{
    "contractName": "AssetManager",
    "abi": [
        {
            "constant": true,
            "inputs": [
                {
                    "name": "",
                    "type": "address"
                }
            ],
            "name": "owners",
            "outputs": [
                {
                    "name": "",
                    "type": "bool"
                }
            ],
            "payable": false,
            "stateMutability": "view",
            "type": "function"
        },
        {
            "constant": false,
            "inputs": [
                {
                    "name": "_newOwner",
                    "type": "address"
                }
            ],
            "name": "setOwner",
            "outputs": [],
            "payable": false,
            "stateMutability": "nonpayable",
            "type": "function"
        },
        {
            "constant": true,
            "inputs": [],
            "name": "getAddress",
            "outputs": [
                {
                    "name": "",
                    "type": "address"
                }
            ],
            "payable": false,
            "stateMutability": "view",
            "type": "function"
        },
        {
            "constant": false,
            "inputs": [
                {
                    "name": "_newOwner",
                    "type": "address"
                }
            ],
            "name": "removeOwnership",
            "outputs": [],
            "payable": false,
            "stateMutability": "nonpayable",
            "type": "function"
        },
        {
            "constant": true,
            "inputs": [],
            "name": "aggregatedStoneCoins",
            "outputs": [
                {
                    "name": "",
                    "type": "address"
                }
            ],
            "payable": false,
            "stateMutability": "view",
            "type": "function"
        },
        {
            "constant": true,
            "inputs": [],
            "name": "owner",
            "outputs": [
                {
                    "name": "",
                    "type": "address"
                }
            ],
            "payable": false,
            "stateMutability": "view",
            "type": "function"
        },
        {
            "constant": true,
            "inputs": [
                {
                    "name": "user",
                    "type": "address"
                }
            ],
            "name": "isOwnable",
            "outputs": [
                {
                    "name": "",
                    "type": "bool"
                }
            ],
            "payable": false,
            "stateMutability": "view",
            "type": "function"
        },
        {
            "constant": false,
            "inputs": [
                {
                    "name": "_newOwner",
                    "type": "address"
                }
            ],
            "name": "addOwnership",
            "outputs": [],
            "payable": false,
            "stateMutability": "nonpayable",
            "type": "function"
        },
        {
            "inputs": [],
            "payable": false,
            "stateMutability": "nonpayable",
            "type": "constructor"
        },
        {
            "anonymous": false,
            "inputs": [
                {
                    "indexed": true,
                    "name": "previousOwner",
                    "type": "address"
                }
            ],
            "name": "OwnershipRenounced",
            "type": "event"
        },
        {
            "anonymous": false,
            "inputs": [
                {
                    "indexed": true,
                    "name": "previousOwner",
                    "type": "address"
                },
                {
                    "indexed": true,
                    "name": "newOwner",
                    "type": "address"
                }
            ],
            "name": "OwnershipTransferred",
            "type": "event"
        },
        {
            "constant": true,
            "inputs": [],
            "name": "getOwner",
            "outputs": [
                {
                    "name": "",
                    "type": "address"
                }
            ],
            "payable": false,
            "stateMutability": "view",
            "type": "function"
        },
        {
            "constant": false,
            "inputs": [
                {
                    "name": "_aggregatedStoneCoins",
                    "type": "address"
                }
            ],
            "name": "setAggregatedStoneCoins",
            "outputs": [],
            "payable": false,
            "stateMutability": "nonpayable",
            "type": "function"
        },
        {
            "constant": false,
            "inputs": [
                {
                    "name": "role",
                    "type": "string"
                },
                {
                    "name": "user",
                    "type": "address"
                }
            ],
            "name": "addProjectOfficial",
            "outputs": [],
            "payable": false,
            "stateMutability": "nonpayable",
            "type": "function"
        },
        {
            "constant": false,
            "inputs": [
                {
                    "name": "role",
                    "type": "string"
                },
                {
                    "name": "md5",
                    "type": "string"
                }
            ],
            "name": "addProjectDocument",
            "outputs": [],
            "payable": false,
            "stateMutability": "nonpayable",
            "type": "function"
        },
        {
            "constant": true,
            "inputs": [
                {
                    "name": "role",
                    "type": "string"
                }
            ],
            "name": "getProjectDocument",
            "outputs": [
                {
                    "name": "",
                    "type": "string"
                }
            ],
            "payable": false,
            "stateMutability": "view",
            "type": "function"
        },
        {
            "constant": false,
            "inputs": [
                {
                    "name": "role",
                    "type": "string"
                }
            ],
            "name": "removeProjectOfficial",
            "outputs": [],
            "payable": false,
            "stateMutability": "nonpayable",
            "type": "function"
        },
        {
            "constant": true,
            "inputs": [
                {
                    "name": "role",
                    "type": "string"
                }
            ],
            "name": "getOfficial",
            "outputs": [
                {
                    "name": "",
                    "type": "address"
                }
            ],
            "payable": false,
            "stateMutability": "view",
            "type": "function"
        },
        {
            "constant": true,
            "inputs": [
                {
                    "name": "official",
                    "type": "address"
                }
            ],
            "name": "getOfficialRole",
            "outputs": [
                {
                    "name": "",
                    "type": "string"
                }
            ],
            "payable": false,
            "stateMutability": "view",
            "type": "function"
        }
    ],
    "bytecode": "0x608060405234801561001057600080fd5b50336000818152602081905260409020805460ff191660019081179091558054600160a060020a0319169091179055610b758061004e6000396000f3006080604052600436106100e55763ffffffff7c010000000000000000000000000000000000000000000000000000000060003504166301e5978281146100ea578063022914a71461015057806313af4035146101855780632fa9732b146101a657806335abfa831461023c57806338cc4831146102d3578063464393a2146103045780635ee732a9146103255780636258e1331461037e578063666a3427146103d757806372daae86146103f8578063893d20e81461040d5780638da5cb5b14610422578063d971899814610437578063e88914de14610490578063f5a55ff6146104b1575b600080fd5b3480156100f657600080fd5b506040805160206004803580820135601f810184900484028501840190955284845261014e94369492936024939284019190819084018382808284375094975050509235600160a060020a031693506104d292505050565b005b34801561015c57600080fd5b50610171600160a060020a036004351661059f565b604080519115158252519081900360200190f35b34801561019157600080fd5b5061014e600160a060020a03600435166105b4565b3480156101b257600080fd5b506101c7600160a060020a0360043516610601565b6040805160208082528351818301528351919283929083019185019080838360005b838110156102015781810151838201526020016101e9565b50505050905090810190601f16801561022e5780820380516001836020036101000a031916815260200191505b509250505060405180910390f35b34801561024857600080fd5b506040805160206004803580820135601f810184900484028501840190955284845261014e94369492936024939284019190819084018382808284375050604080516020601f89358b018035918201839004830284018301909452808352979a9998810197919650918201945092508291508401838280828437509497506106ac9650505050505050565b3480156102df57600080fd5b506102e861073e565b60408051600160a060020a039092168252519081900360200190f35b34801561031057600080fd5b5061014e600160a060020a0360043516610743565b34801561033157600080fd5b506040805160206004803580820135601f81018490048402850184019095528484526102e89436949293602493928401919081908401838280828437509497506107909650505050505050565b34801561038a57600080fd5b506040805160206004803580820135601f81018490048402850184019095528484526101c79436949293602493928401919081908401838280828437509497506108019650505050505050565b3480156103e357600080fd5b5061014e600160a060020a03600435166108be565b34801561040457600080fd5b506102e86108e8565b34801561041957600080fd5b506102e86108f7565b34801561042e57600080fd5b506102e8610906565b34801561044357600080fd5b506040805160206004803580820135601f810184900484028501840190955284845261014e9436949293602493928401919081908401838280828437509497506109159650505050505050565b34801561049c57600080fd5b50610171600160a060020a03600435166109c3565b3480156104bd57600080fd5b5061014e600160a060020a03600435166109e1565b3360009081526020819052604090205460ff1615156104f057600080fd5b806003836040518082805190602001908083835b602083106105235780518252601f199092019160209182019101610504565b51815160209384036101000a600019018019909216911617905292019485525060408051948590038201909420805473ffffffffffffffffffffffffffffffffffffffff1916600160a060020a0396871617905593851660009081526004855292909220855161059a949193509086019150610ab1565b505050565b60006020819052908152604090205460ff1681565b3360009081526020819052604090205460ff1615156105d257600080fd5b6001805473ffffffffffffffffffffffffffffffffffffffff1916600160a060020a0392909216919091179055565b600160a060020a03811660009081526004602090815260409182902080548351601f60026000196101006001861615020190931692909204918201849004840281018401909452808452606093928301828280156106a05780601f10610675576101008083540402835291602001916106a0565b820191906000526020600020905b81548152906001019060200180831161068357829003601f168201915b50505050509050919050565b3360009081526020819052604090205460ff1615156106ca57600080fd5b806005836040518082805190602001908083835b602083106106fd5780518252601f1990920191602091820191016106de565b51815160209384036101000a6000190180199092169116179052920194855250604051938490038101909320845161059a9591949190910192509050610ab1565b305b90565b3360009081526020819052604090205460ff16151561076157600080fd5b6002805473ffffffffffffffffffffffffffffffffffffffff1916600160a060020a0392909216919091179055565b60006003826040518082805190602001908083835b602083106107c45780518252601f1990920191602091820191016107a5565b51815160209384036101000a6000190180199092169116179052920194855250604051938490030190922054600160a060020a0316949350505050565b60606005826040518082805190602001908083835b602083106108355780518252601f199092019160209182019101610816565b518151600019602094850361010090810a820192831692199390931691909117909252949092019687526040805197889003820188208054601f60026001831615909802909501169590950492830182900482028801820190528187529294509250508301828280156106a05780601f10610675576101008083540402835291602001916106a0565b3360009081526020819052604090205460ff1615156108dc57600080fd5b6108e581610a08565b50565b600254600160a060020a031681565b600154600160a060020a031690565b600154600160a060020a031681565b3360009081526020819052604090205460ff16151561093357600080fd5b60006003826040518082805190602001908083835b602083106109675780518252601f199092019160209182019101610948565b51815160209384036101000a60001901801990921691161790529201948552506040519384900301909220805473ffffffffffffffffffffffffffffffffffffffff1916600160a060020a039490941693909317909255505050565b600160a060020a031660009081526020819052604090205460ff1690565b3360009081526020819052604090205460ff1615156109ff57600080fd5b6108e581610a3e565b600160a060020a0381161515610a1d57600080fd5b600160a060020a03166000908152602081905260409020805460ff19169055565b600160a060020a0381161515610a5357600080fd5b600154604051600160a060020a038084169216907f8be0079c531659141344cd1fd0a4f28419497f9722a3daafe3b4186f6b6457e090600090a3600160a060020a03166000908152602081905260409020805460ff19166001179055565b828054600181600116156101000203166002900490600052602060002090601f016020900481019282601f10610af257805160ff1916838001178555610b1f565b82800160010185558215610b1f579182015b82811115610b1f578251825591602001919060010190610b04565b50610b2b929150610b2f565b5090565b61074091905b80821115610b2b5760008155600101610b355600a165627a7a72305820afcda312169c93075093a9aa96e59029bf6dd241d9c7618f0698bd4de9b773c60029",
    "source": "pragma solidity ^0.4.24;\n\nimport \"openzeppelin-solidity/contracts/ownership/Ownable.sol\";\nimport 'openzeppelin-solidity/contracts/math/SafeMath.sol';\nimport \"./structures/Estimation.sol\";\nimport \"./structures/Registrar.sol\";\nimport \"./structures/Terms.sol\";\nimport \"./structures/Manager.sol\";\nimport \"./structures/Property.sol\";\nimport \"./structures/Trustee.sol\";\nimport \"./interfaces/Ownables.sol\";\n\ncontract AssetManager is Ownables {\n    using SafeMath for uint256;\n\n\n    address public aggregatedStoneCoins;\n\n\n    mapping(string => address) projectOfficials;\n    mapping(address => string) projectOfficialsRole;\n    mapping(string => string) projectDocumentsMd5;\n\n\n    // This is the constructor whose code is\n    // run only when the contract is created.\n    constructor(\n    ) Ownables() public {\n    }\n\n    function getOwner() public view returns (address){\n        return owner;\n    }\n\n\n    function setAggregatedStoneCoins(address _aggregatedStoneCoins) onlyOwner public {\n        aggregatedStoneCoins = _aggregatedStoneCoins;\n    }\n\n\n    function addProjectOfficial(string role, address user) onlyOwner public {\n        projectOfficials[role] = user;\n        projectOfficialsRole[user] = role;\n    }\n\n    function addProjectDocument(string role, string md5) onlyOwner public {\n        projectDocumentsMd5[role] = md5;\n    }\n\n    function getProjectDocument(string role) public view returns (string) {\n        return projectDocumentsMd5[role];\n    }\n\n    function removeProjectOfficial(string role) onlyOwner public {\n        projectOfficials[role] = 0;\n    }\n\n    function getOfficial(string role) public view returns (address) {\n        return projectOfficials[role];\n    }\n\n    function getOfficialRole(address official) public view returns (string) {\n        return projectOfficialsRole[official];\n    }\n\n\n}",
    "sourcePath": "/Users/roilandshut/projects/brikoin/brikoin/contracts/AssetManager.sol",
    "compiler": {
        "name": "solc",
        "version": "0.4.24+commit.e67f0147.Emscripten.clang"
    },
    "schemaVersion": "2.0.1",
    "updatedAt": "2019-10-27T14:12:10.840Z"
}