{
    "contractName": "CornerStoneBase",
    "abi": [
        {
            "constant": true,
            "inputs": [
                {
                    "name": "",
                    "type": "address"
                }
            ],
            "name": "owners",
            "outputs": [
                {
                    "name": "",
                    "type": "bool"
                }
            ],
            "payable": false,
            "stateMutability": "view",
            "type": "function"
        },
        {
            "constant": false,
            "inputs": [
                {
                    "name": "_newOwner",
                    "type": "address"
                }
            ],
            "name": "setOwner",
            "outputs": [],
            "payable": false,
            "stateMutability": "nonpayable",
            "type": "function"
        },
        {
            "constant": true,
            "inputs": [],
            "name": "getAddress",
            "outputs": [
                {
                    "name": "",
                    "type": "address"
                }
            ],
            "payable": false,
            "stateMutability": "view",
            "type": "function"
        },
        {
            "constant": false,
            "inputs": [
                {
                    "name": "_newOwner",
                    "type": "address"
                }
            ],
            "name": "removeOwnership",
            "outputs": [],
            "payable": false,
            "stateMutability": "nonpayable",
            "type": "function"
        },
        {
            "constant": true,
            "inputs": [],
            "name": "owner",
            "outputs": [
                {
                    "name": "",
                    "type": "address"
                }
            ],
            "payable": false,
            "stateMutability": "view",
            "type": "function"
        },
        {
            "constant": true,
            "inputs": [
                {
                    "name": "user",
                    "type": "address"
                }
            ],
            "name": "isOwnable",
            "outputs": [
                {
                    "name": "",
                    "type": "bool"
                }
            ],
            "payable": false,
            "stateMutability": "view",
            "type": "function"
        },
        {
            "constant": false,
            "inputs": [
                {
                    "name": "_newOwner",
                    "type": "address"
                }
            ],
            "name": "addOwnership",
            "outputs": [],
            "payable": false,
            "stateMutability": "nonpayable",
            "type": "function"
        },
        {
            "inputs": [],
            "payable": false,
            "stateMutability": "nonpayable",
            "type": "constructor"
        },
        {
            "anonymous": false,
            "inputs": [
                {
                    "indexed": true,
                    "name": "from",
                    "type": "address"
                },
                {
                    "indexed": false,
                    "name": "amount",
                    "type": "uint256"
                },
                {
                    "indexed": false,
                    "name": "balance",
                    "type": "uint256"
                }
            ],
            "name": "WithdrawPending",
            "type": "event"
        },
        {
            "anonymous": false,
            "inputs": [
                {
                    "indexed": true,
                    "name": "from",
                    "type": "address"
                },
                {
                    "indexed": false,
                    "name": "amount",
                    "type": "uint256"
                },
                {
                    "indexed": false,
                    "name": "balance",
                    "type": "uint256"
                }
            ],
            "name": "Withdraw",
            "type": "event"
        },
        {
            "anonymous": false,
            "inputs": [
                {
                    "indexed": true,
                    "name": "to",
                    "type": "address"
                },
                {
                    "indexed": false,
                    "name": "amount",
                    "type": "uint256"
                },
                {
                    "indexed": false,
                    "name": "balance",
                    "type": "uint256"
                }
            ],
            "name": "Deposit",
            "type": "event"
        },
        {
            "anonymous": false,
            "inputs": [
                {
                    "indexed": false,
                    "name": "investor",
                    "type": "address"
                },
                {
                    "indexed": false,
                    "name": "stoneCoinAddress",
                    "type": "address"
                },
                {
                    "indexed": false,
                    "name": "amount",
                    "type": "uint256"
                },
                {
                    "indexed": false,
                    "name": "total",
                    "type": "uint256"
                }
            ],
            "name": "Investment",
            "type": "event"
        },
        {
            "anonymous": false,
            "inputs": [
                {
                    "indexed": false,
                    "name": "payee",
                    "type": "address"
                },
                {
                    "indexed": false,
                    "name": "payer",
                    "type": "address"
                },
                {
                    "indexed": false,
                    "name": "stoneCoinName",
                    "type": "bytes32"
                },
                {
                    "indexed": false,
                    "name": "price",
                    "type": "uint256"
                },
                {
                    "indexed": false,
                    "name": "amount",
                    "type": "uint256"
                }
            ],
            "name": "StoneTransferred",
            "type": "event"
        },
        {
            "anonymous": false,
            "inputs": [
                {
                    "indexed": false,
                    "name": "_from",
                    "type": "address"
                },
                {
                    "indexed": false,
                    "name": "_to",
                    "type": "address"
                },
                {
                    "indexed": false,
                    "name": "_value",
                    "type": "uint256"
                }
            ],
            "name": "Transfer",
            "type": "event"
        },
        {
            "anonymous": false,
            "inputs": [
                {
                    "indexed": false,
                    "name": "name",
                    "type": "bytes32"
                }
            ],
            "name": "StoneCoinCreated",
            "type": "event"
        },
        {
            "anonymous": false,
            "inputs": [
                {
                    "indexed": false,
                    "name": "holder",
                    "type": "address"
                },
                {
                    "indexed": false,
                    "name": "userShare",
                    "type": "uint256"
                },
                {
                    "indexed": false,
                    "name": "stoneCoinAddress",
                    "type": "address"
                },
                {
                    "indexed": false,
                    "name": "holders",
                    "type": "uint256"
                }
            ],
            "name": "IncomePayment",
            "type": "event"
        },
        {
            "anonymous": false,
            "inputs": [
                {
                    "indexed": false,
                    "name": "stoneCoinAddress",
                    "type": "address"
                },
                {
                    "indexed": false,
                    "name": "to",
                    "type": "address"
                },
                {
                    "indexed": false,
                    "name": "amount",
                    "type": "uint256"
                }
            ],
            "name": "TransferFromOwner",
            "type": "event"
        },
        {
            "anonymous": false,
            "inputs": [
                {
                    "indexed": true,
                    "name": "previousOwner",
                    "type": "address"
                }
            ],
            "name": "OwnershipRenounced",
            "type": "event"
        },
        {
            "anonymous": false,
            "inputs": [
                {
                    "indexed": true,
                    "name": "previousOwner",
                    "type": "address"
                },
                {
                    "indexed": true,
                    "name": "newOwner",
                    "type": "address"
                }
            ],
            "name": "OwnershipTransferred",
            "type": "event"
        },
        {
            "constant": false,
            "inputs": [
                {
                    "name": "_cornerStoneBaseStorageAddress",
                    "type": "address"
                }
            ],
            "name": "setCornerStoneBaseStorage",
            "outputs": [],
            "payable": false,
            "stateMutability": "nonpayable",
            "type": "function"
        },
        {
            "constant": false,
            "inputs": [],
            "name": "init",
            "outputs": [],
            "payable": false,
            "stateMutability": "nonpayable",
            "type": "function"
        },
        {
            "constant": false,
            "inputs": [
                {
                    "name": "_tradesHistoryAddress",
                    "type": "address"
                }
            ],
            "name": "setNewTraderHistory",
            "outputs": [],
            "payable": false,
            "stateMutability": "nonpayable",
            "type": "function"
        },
        {
            "constant": false,
            "inputs": [
                {
                    "name": "_cornerTransactionAddress",
                    "type": "address"
                }
            ],
            "name": "setNewCornerTransaction",
            "outputs": [],
            "payable": false,
            "stateMutability": "nonpayable",
            "type": "function"
        },
        {
            "constant": false,
            "inputs": [
                {
                    "name": "_feeManagerAddress",
                    "type": "address"
                }
            ],
            "name": "setNewFeeManager",
            "outputs": [],
            "payable": false,
            "stateMutability": "nonpayable",
            "type": "function"
        },
        {
            "constant": false,
            "inputs": [
                {
                    "name": "_brokerManagerAddress",
                    "type": "address"
                }
            ],
            "name": "setNewBrokerManager",
            "outputs": [],
            "payable": false,
            "stateMutability": "nonpayable",
            "type": "function"
        },
        {
            "constant": true,
            "inputs": [],
            "name": "getBrokerManager",
            "outputs": [
                {
                    "name": "",
                    "type": "address"
                }
            ],
            "payable": false,
            "stateMutability": "view",
            "type": "function"
        },
        {
            "constant": true,
            "inputs": [],
            "name": "getTransactionManager",
            "outputs": [
                {
                    "name": "",
                    "type": "address"
                }
            ],
            "payable": false,
            "stateMutability": "view",
            "type": "function"
        },
        {
            "constant": false,
            "inputs": [
                {
                    "name": "user",
                    "type": "address"
                },
                {
                    "name": "firstDealRatio",
                    "type": "uint256"
                },
                {
                    "name": "otherDealRatio",
                    "type": "uint256"
                },
                {
                    "name": "secondaryFee",
                    "type": "uint256"
                },
                {
                    "name": "organization",
                    "type": "address"
                }
            ],
            "name": "setBrokerFees",
            "outputs": [],
            "payable": false,
            "stateMutability": "nonpayable",
            "type": "function"
        },
        {
            "constant": false,
            "inputs": [
                {
                    "name": "user",
                    "type": "address"
                },
                {
                    "name": "organization",
                    "type": "address"
                }
            ],
            "name": "addBroker",
            "outputs": [],
            "payable": false,
            "stateMutability": "nonpayable",
            "type": "function"
        },
        {
            "constant": false,
            "inputs": [
                {
                    "name": "user",
                    "type": "address"
                }
            ],
            "name": "setTransactionManager",
            "outputs": [],
            "payable": false,
            "stateMutability": "nonpayable",
            "type": "function"
        },
        {
            "constant": false,
            "inputs": [
                {
                    "name": "user",
                    "type": "address"
                },
                {
                    "name": "broker",
                    "type": "address"
                },
                {
                    "name": "organization",
                    "type": "address"
                }
            ],
            "name": "addUserToBroker",
            "outputs": [],
            "payable": false,
            "stateMutability": "nonpayable",
            "type": "function"
        },
        {
            "constant": true,
            "inputs": [],
            "name": "getTradesHistory",
            "outputs": [
                {
                    "name": "",
                    "type": "address"
                }
            ],
            "payable": false,
            "stateMutability": "view",
            "type": "function"
        },
        {
            "constant": true,
            "inputs": [],
            "name": "getFeeManager",
            "outputs": [
                {
                    "name": "",
                    "type": "address"
                }
            ],
            "payable": false,
            "stateMutability": "view",
            "type": "function"
        },
        {
            "constant": false,
            "inputs": [
                {
                    "name": "user",
                    "type": "address"
                }
            ],
            "name": "addFeeManagerRole",
            "outputs": [],
            "payable": false,
            "stateMutability": "nonpayable",
            "type": "function"
        },
        {
            "constant": true,
            "inputs": [
                {
                    "name": "_user",
                    "type": "address"
                }
            ],
            "name": "isMortgageOperator",
            "outputs": [
                {
                    "name": "",
                    "type": "bool"
                }
            ],
            "payable": false,
            "stateMutability": "view",
            "type": "function"
        },
        {
            "constant": true,
            "inputs": [
                {
                    "name": "_user",
                    "type": "address"
                }
            ],
            "name": "isMortgageFinance",
            "outputs": [
                {
                    "name": "",
                    "type": "bool"
                }
            ],
            "payable": false,
            "stateMutability": "view",
            "type": "function"
        },
        {
            "constant": true,
            "inputs": [
                {
                    "name": "_user",
                    "type": "address"
                }
            ],
            "name": "isTokenApproveRole",
            "outputs": [
                {
                    "name": "",
                    "type": "bool"
                }
            ],
            "payable": false,
            "stateMutability": "view",
            "type": "function"
        },
        {
            "constant": false,
            "inputs": [
                {
                    "name": "_user",
                    "type": "address"
                }
            ],
            "name": "addMortgageOperatorRole",
            "outputs": [],
            "payable": false,
            "stateMutability": "nonpayable",
            "type": "function"
        },
        {
            "constant": false,
            "inputs": [
                {
                    "name": "_user",
                    "type": "address"
                }
            ],
            "name": "addMortgageFinanceRole",
            "outputs": [],
            "payable": false,
            "stateMutability": "nonpayable",
            "type": "function"
        },
        {
            "constant": false,
            "inputs": [
                {
                    "name": "_user",
                    "type": "address"
                }
            ],
            "name": "addTokenApproveRole",
            "outputs": [],
            "payable": false,
            "stateMutability": "nonpayable",
            "type": "function"
        },
        {
            "constant": false,
            "inputs": [
                {
                    "name": "_user",
                    "type": "address"
                },
                {
                    "name": "_value",
                    "type": "uint256"
                },
                {
                    "name": "stoneCoin",
                    "type": "address"
                },
                {
                    "name": "operation",
                    "type": "string"
                }
            ],
            "name": "subBalance",
            "outputs": [
                {
                    "name": "",
                    "type": "uint256"
                }
            ],
            "payable": false,
            "stateMutability": "nonpayable",
            "type": "function"
        },
        {
            "constant": false,
            "inputs": [
                {
                    "name": "_user",
                    "type": "address"
                },
                {
                    "name": "_stoneCoinAddress",
                    "type": "address"
                }
            ],
            "name": "reserveBid",
            "outputs": [],
            "payable": false,
            "stateMutability": "nonpayable",
            "type": "function"
        },
        {
            "constant": true,
            "inputs": [
                {
                    "name": "_user",
                    "type": "address"
                },
                {
                    "name": "_stoneCoinAddress",
                    "type": "address"
                }
            ],
            "name": "getReserveBid",
            "outputs": [
                {
                    "name": "",
                    "type": "uint256"
                }
            ],
            "payable": false,
            "stateMutability": "view",
            "type": "function"
        },
        {
            "constant": false,
            "inputs": [
                {
                    "name": "_user",
                    "type": "address"
                },
                {
                    "name": "_stoneCoinAddress",
                    "type": "address"
                }
            ],
            "name": "reservedBidLost",
            "outputs": [],
            "payable": false,
            "stateMutability": "nonpayable",
            "type": "function"
        },
        {
            "constant": false,
            "inputs": [
                {
                    "name": "_user",
                    "type": "address"
                },
                {
                    "name": "_stoneCoinAddress",
                    "type": "address"
                }
            ],
            "name": "cancelReserveBid",
            "outputs": [],
            "payable": false,
            "stateMutability": "nonpayable",
            "type": "function"
        },
        {
            "constant": false,
            "inputs": [
                {
                    "name": "_user",
                    "type": "address"
                },
                {
                    "name": "_value",
                    "type": "uint256"
                },
                {
                    "name": "stoneCoin",
                    "type": "address"
                },
                {
                    "name": "operation",
                    "type": "string"
                }
            ],
            "name": "addBalance",
            "outputs": [
                {
                    "name": "",
                    "type": "uint256"
                }
            ],
            "payable": false,
            "stateMutability": "nonpayable",
            "type": "function"
        },
        {
            "constant": false,
            "inputs": [
                {
                    "name": "_value",
                    "type": "uint256"
                }
            ],
            "name": "addOwnerBalance",
            "outputs": [
                {
                    "name": "",
                    "type": "uint256"
                }
            ],
            "payable": false,
            "stateMutability": "nonpayable",
            "type": "function"
        },
        {
            "constant": false,
            "inputs": [
                {
                    "name": "_value",
                    "type": "uint256"
                }
            ],
            "name": "subOwnerBalance",
            "outputs": [
                {
                    "name": "",
                    "type": "uint256"
                }
            ],
            "payable": false,
            "stateMutability": "nonpayable",
            "type": "function"
        },
        {
            "constant": true,
            "inputs": [],
            "name": "getInitialSupply",
            "outputs": [
                {
                    "name": "",
                    "type": "uint256"
                }
            ],
            "payable": false,
            "stateMutability": "view",
            "type": "function"
        },
        {
            "constant": true,
            "inputs": [],
            "name": "symbol",
            "outputs": [
                {
                    "name": "",
                    "type": "bytes32"
                }
            ],
            "payable": false,
            "stateMutability": "view",
            "type": "function"
        },
        {
            "constant": false,
            "inputs": [
                {
                    "name": "_to",
                    "type": "address"
                },
                {
                    "name": "_value",
                    "type": "uint256"
                },
                {
                    "name": "operation",
                    "type": "string"
                }
            ],
            "name": "transfer",
            "outputs": [
                {
                    "name": "",
                    "type": "bool"
                }
            ],
            "payable": false,
            "stateMutability": "nonpayable",
            "type": "function"
        },
        {
            "constant": true,
            "inputs": [
                {
                    "name": "_user",
                    "type": "address"
                }
            ],
            "name": "balanceOf",
            "outputs": [
                {
                    "name": "",
                    "type": "uint256"
                }
            ],
            "payable": false,
            "stateMutability": "view",
            "type": "function"
        },
        {
            "constant": true,
            "inputs": [],
            "name": "getOwnerBalance",
            "outputs": [
                {
                    "name": "",
                    "type": "uint256"
                }
            ],
            "payable": false,
            "stateMutability": "view",
            "type": "function"
        },
        {
            "constant": false,
            "inputs": [
                {
                    "name": "_from",
                    "type": "address"
                },
                {
                    "name": "_to",
                    "type": "address"
                },
                {
                    "name": "_value",
                    "type": "uint256"
                },
                {
                    "name": "stoneCoin",
                    "type": "address"
                },
                {
                    "name": "operation",
                    "type": "string"
                }
            ],
            "name": "transferFrom",
            "outputs": [
                {
                    "name": "",
                    "type": "bool"
                }
            ],
            "payable": false,
            "stateMutability": "nonpayable",
            "type": "function"
        },
        {
            "constant": false,
            "inputs": [
                {
                    "name": "stoneCoinAddress",
                    "type": "address"
                },
                {
                    "name": "seller",
                    "type": "address"
                },
                {
                    "name": "amount",
                    "type": "uint256"
                },
                {
                    "name": "price",
                    "type": "uint256"
                }
            ],
            "name": "sell",
            "outputs": [],
            "payable": false,
            "stateMutability": "nonpayable",
            "type": "function"
        },
        {
            "constant": false,
            "inputs": [
                {
                    "name": "stoneCoinAddress",
                    "type": "address"
                },
                {
                    "name": "buyer",
                    "type": "address"
                },
                {
                    "name": "amount",
                    "type": "uint256"
                },
                {
                    "name": "price",
                    "type": "uint256"
                }
            ],
            "name": "buy",
            "outputs": [],
            "payable": false,
            "stateMutability": "nonpayable",
            "type": "function"
        },
        {
            "constant": false,
            "inputs": [
                {
                    "name": "stoneCoinAddress",
                    "type": "address"
                },
                {
                    "name": "user",
                    "type": "address"
                },
                {
                    "name": "mortgageAddress",
                    "type": "address"
                }
            ],
            "name": "clearMortgage",
            "outputs": [],
            "payable": false,
            "stateMutability": "nonpayable",
            "type": "function"
        },
        {
            "constant": false,
            "inputs": [
                {
                    "name": "stoneCoinAddress",
                    "type": "address"
                },
                {
                    "name": "user",
                    "type": "address"
                },
                {
                    "name": "mortgagee",
                    "type": "address"
                },
                {
                    "name": "mortgageAddress",
                    "type": "address"
                },
                {
                    "name": "marketPriceMills",
                    "type": "uint256"
                },
                {
                    "name": "maxDefaulted",
                    "type": "bool"
                }
            ],
            "name": "partlyForfeitureMortgage",
            "outputs": [],
            "payable": false,
            "stateMutability": "nonpayable",
            "type": "function"
        },
        {
            "constant": false,
            "inputs": [
                {
                    "name": "taxes",
                    "type": "address"
                },
                {
                    "name": "buyer",
                    "type": "address"
                },
                {
                    "name": "seller",
                    "type": "address"
                }
            ],
            "name": "calculateTax",
            "outputs": [],
            "payable": false,
            "stateMutability": "nonpayable",
            "type": "function"
        },
        {
            "constant": false,
            "inputs": [
                {
                    "name": "stoneCoinAddress",
                    "type": "address"
                },
                {
                    "name": "mortgageAddress",
                    "type": "address"
                },
                {
                    "name": "buyer",
                    "type": "address"
                },
                {
                    "name": "amount",
                    "type": "uint256"
                },
                {
                    "name": "price",
                    "type": "uint256"
                }
            ],
            "name": "buyMortgaged",
            "outputs": [],
            "payable": false,
            "stateMutability": "nonpayable",
            "type": "function"
        },
        {
            "constant": false,
            "inputs": [
                {
                    "name": "stoneCoinAddress",
                    "type": "address"
                },
                {
                    "name": "mortgageAddress",
                    "type": "address"
                },
                {
                    "name": "seller",
                    "type": "address"
                },
                {
                    "name": "amount",
                    "type": "uint256"
                },
                {
                    "name": "price",
                    "type": "uint256"
                }
            ],
            "name": "sellMortgaged",
            "outputs": [],
            "payable": false,
            "stateMutability": "nonpayable",
            "type": "function"
        },
        {
            "constant": true,
            "inputs": [
                {
                    "name": "stoneCoinAddress",
                    "type": "address"
                }
            ],
            "name": "isInitialOffering",
            "outputs": [
                {
                    "name": "",
                    "type": "bool"
                }
            ],
            "payable": false,
            "stateMutability": "view",
            "type": "function"
        },
        {
            "constant": false,
            "inputs": [
                {
                    "name": "payee",
                    "type": "address"
                },
                {
                    "name": "amount",
                    "type": "uint256"
                },
                {
                    "name": "stoneCoin",
                    "type": "address"
                }
            ],
            "name": "deposit",
            "outputs": [
                {
                    "name": "",
                    "type": "bool"
                }
            ],
            "payable": false,
            "stateMutability": "nonpayable",
            "type": "function"
        },
        {
            "constant": false,
            "inputs": [
                {
                    "name": "user",
                    "type": "address"
                },
                {
                    "name": "amount",
                    "type": "uint256"
                },
                {
                    "name": "stoneCoinAddress",
                    "type": "address"
                }
            ],
            "name": "withdrawApprove",
            "outputs": [
                {
                    "name": "",
                    "type": "bool"
                }
            ],
            "payable": false,
            "stateMutability": "nonpayable",
            "type": "function"
        },
        {
            "constant": false,
            "inputs": [
                {
                    "name": "user",
                    "type": "address"
                },
                {
                    "name": "amount",
                    "type": "uint256"
                }
            ],
            "name": "withdraw",
            "outputs": [
                {
                    "name": "",
                    "type": "bool"
                }
            ],
            "payable": false,
            "stateMutability": "nonpayable",
            "type": "function"
        },
        {
            "constant": false,
            "inputs": [
                {
                    "name": "stoneCoinAddress",
                    "type": "address"
                },
                {
                    "name": "micros",
                    "type": "uint256"
                }
            ],
            "name": "payIncome",
            "outputs": [
                {
                    "name": "remaining",
                    "type": "uint256"
                }
            ],
            "payable": false,
            "stateMutability": "nonpayable",
            "type": "function"
        },
        {
            "constant": true,
            "inputs": [
                {
                    "name": "stoneCoinAddress",
                    "type": "address"
                }
            ],
            "name": "getTotalAllocated",
            "outputs": [
                {
                    "name": "",
                    "type": "uint256"
                }
            ],
            "payable": false,
            "stateMutability": "view",
            "type": "function"
        },
        {
            "constant": true,
            "inputs": [
                {
                    "name": "stoneCoinAddress",
                    "type": "address"
                },
                {
                    "name": "user",
                    "type": "address"
                }
            ],
            "name": "getUserHoldings",
            "outputs": [
                {
                    "name": "",
                    "type": "uint256"
                }
            ],
            "payable": false,
            "stateMutability": "view",
            "type": "function"
        },
        {
            "constant": false,
            "inputs": [
                {
                    "name": "stoneCoinAddress",
                    "type": "address"
                },
                {
                    "name": "micros",
                    "type": "uint256"
                }
            ],
            "name": "closeStoneCoin",
            "outputs": [],
            "payable": false,
            "stateMutability": "nonpayable",
            "type": "function"
        },
        {
            "constant": false,
            "inputs": [
                {
                    "name": "signDocument",
                    "type": "address"
                },
                {
                    "name": "stoneCoinAddress",
                    "type": "address"
                }
            ],
            "name": "checkSignature",
            "outputs": [
                {
                    "name": "",
                    "type": "bool"
                }
            ],
            "payable": false,
            "stateMutability": "nonpayable",
            "type": "function"
        },
        {
            "constant": false,
            "inputs": [
                {
                    "name": "stoneCoinAddress",
                    "type": "address"
                },
                {
                    "name": "to",
                    "type": "address"
                },
                {
                    "name": "amount",
                    "type": "uint256"
                }
            ],
            "name": "transferFromOwner",
            "outputs": [
                {
                    "name": "",
                    "type": "bool"
                }
            ],
            "payable": false,
            "stateMutability": "nonpayable",
            "type": "function"
        },
        {
            "constant": false,
            "inputs": [
                {
                    "name": "_buyer",
                    "type": "address"
                },
                {
                    "name": "_seller",
                    "type": "address"
                },
                {
                    "name": "_value",
                    "type": "uint256"
                },
                {
                    "name": "stoneCoinAddress",
                    "type": "address"
                },
                {
                    "name": "operation",
                    "type": "string"
                }
            ],
            "name": "transferAll",
            "outputs": [],
            "payable": false,
            "stateMutability": "nonpayable",
            "type": "function"
        },
        {
            "constant": false,
            "inputs": [
                {
                    "name": "broker",
                    "type": "address"
                },
                {
                    "name": "payment",
                    "type": "uint256"
                },
                {
                    "name": "organization",
                    "type": "address"
                },
                {
                    "name": "stoneCoinAddress",
                    "type": "address"
                }
            ],
            "name": "payBroker",
            "outputs": [],
            "payable": false,
            "stateMutability": "nonpayable",
            "type": "function"
        }
    ],
    "bytecode": "0x608060405234801561001057600080fd5b50336000818152602081905260409020805460ff191660019081179091558054600160a060020a031916909117905561495a8061004e6000396000f3006080604052600436106102bb5763ffffffff60e060020a600035041663022914a781146102c057806308dbd3db146102f55780630b1fa61c1461031857806313af4035146103395780631e8d61791461035a57806321bde2901461038157806322c49935146103f9578063262355ca1461041a5780632ec764811461043b57806331de7d151461046257806332f40a9b1461048f57806338cc4831146104b05780633b7bd0c4146104e15780634077586f14610508578063436c6f1b14610543578063436d9233146105645780634d55b9161461059757806351149616146105ac578063534b01c6146105cd578063561cf42d1461060057806356b8c72414610615578063590791f21461067e5780635cdcaadd14610693578063666a3427146106b45780636ecc7b48146106d55780636f8ee4c6146106f657806370a082311461071757806374f2a9c214610738578063759fa7441461075f5780637648b9d814610780578063797d6b30146107985780637998dde9146107cb57806381a4a6d8146107fe57806381f30b9214610813578063828d51dc146108375780638da5cb5b146108645780638e52bbb91461087957806395d89b41146108a457806396f32fb8146108b9578063a3dfaafb146108ce578063a577ccb6146108f2578063a67ca6121461091f578063a9d424e214610937578063aaf428d614610964578063b069be71146109d4578063b34ee906146109f5578063b4bfa47814610a22578063b8dbf87614610a53578063bb646bab14610a7d578063bc6a188014610aa4578063c5dc046414610ac5578063def1b93314610ae6578063e1c7392a14610b56578063e3ff715e14610b6b578063e88914de14610b92578063e90385d514610bb3578063f2d6382614610bda578063f3fef3a314610bef578063f45346dc14610c13578063f562c1ae14610c3e578063f5a55ff614610cb6575b600080fd5b3480156102cc57600080fd5b506102e1600160a060020a0360043516610cd7565b604080519115158252519081900360200190f35b34801561030157600080fd5b50610316600160a060020a0360043516610cec565b005b34801561032457600080fd5b50610316600160a060020a0360043516610d93565b34801561034557600080fd5b50610316600160a060020a0360043516610e18565b34801561036657600080fd5b506102e1600160a060020a0360043581169060243516610e65565b34801561038d57600080fd5b50604080516020600460843581810135601f81018490048402850184019095528484526102e1948235600160a060020a0390811695602480358316966044359660643590941695369560a49493909101918190840183828082843750949750610fbf9650505050505050565b34801561040557600080fd5b50610316600160a060020a036004351661108c565b34801561042657600080fd5b50610316600160a060020a03600435166110d9565b34801561044757600080fd5b50610316600160a060020a0360043581169060243516611126565b34801561046e57600080fd5b50610316600160a060020a03600435811690602435166044356064356111d4565b34801561049b57600080fd5b50610316600160a060020a036004351661138a565b3480156104bc57600080fd5b506104c5611416565b60408051600160a060020a039092168252519081900360200190f35b3480156104ed57600080fd5b50610316600160a060020a036004358116906024351661141a565b34801561051457600080fd5b50610316600160a060020a036004358116906024358116906044358116906064351660843560a43515156114ab565b34801561054f57600080fd5b50610316600160a060020a036004351661156c565b34801561057057600080fd5b50610316600160a060020a03600435811690602435906044359060643590608435166115f8565b3480156105a357600080fd5b506104c56116bd565b3480156105b857600080fd5b506102e1600160a060020a03600435166116cc565b3480156105d957600080fd5b506105ee600160a060020a0360043516611769565b60408051918252519081900360200190f35b34801561060c57600080fd5b506104c56117dd565b34801561062157600080fd5b50604080516020600460443581810135601f81018490048402850184019095528484526102e1948235600160a060020a03169460248035953695946064949201919081908401838280828437509497506117ec9650505050505050565b34801561068a57600080fd5b506105ee6118a2565b34801561069f57600080fd5b506102e1600160a060020a036004351661192f565b3480156106c057600080fd5b50610316600160a060020a036004351661198b565b3480156106e157600080fd5b50610316600160a060020a03600435166119b5565b34801561070257600080fd5b506102e1600160a060020a0360043516611a02565b34801561072357600080fd5b506105ee600160a060020a0360043516611a6d565b34801561074457600080fd5b50610316600160a060020a0360043581169060243516611ac6565b34801561076b57600080fd5b50610316600160a060020a0360043516611c5f565b34801561078c57600080fd5b506105ee600435611ce4565b3480156107a457600080fd5b50610316600160a060020a0360043581169060243581169060443516606435608435611e2a565b3480156107d757600080fd5b50610316600160a060020a0360043581169060243581169060443516606435608435611f74565b34801561080a57600080fd5b506105ee6120ca565b34801561081f57600080fd5b506105ee600160a060020a0360043516602435612129565b34801561084357600080fd5b50610316600160a060020a036004358116906024358116906044351661246a565b34801561087057600080fd5b506104c56124ab565b34801561088557600080fd5b506102e1600160a060020a0360043581169060243590604435166124ba565b3480156108b057600080fd5b506105ee61272c565b3480156108c557600080fd5b506104c561278b565b3480156108da57600080fd5b50610316600160a060020a036004351660243561279a565b3480156108fe57600080fd5b50610316600160a060020a03600435811690602435811690604435166127c2565b34801561092b57600080fd5b506105ee60043561284c565b34801561094357600080fd5b50610316600160a060020a0360043581169060243516604435606435612900565b34801561097057600080fd5b50604080516020601f6064356004818101359283018490048402850184019095528184526105ee94600160a060020a03813581169560248035966044359093169536956084949201918190840183828082843750949750612abc9650505050505050565b3480156109e057600080fd5b506102e1600160a060020a0360043516612ed4565b348015610a0157600080fd5b50610316600160a060020a0360043581169060243581169060443516612f3f565b348015610a2e57600080fd5b50610316600160a060020a036004358116906024359060443581169060643516612fd8565b348015610a5f57600080fd5b506102e1600160a060020a0360043581169060243516604435613096565b348015610a8957600080fd5b506105ee600160a060020a0360043581169060243516613184565b348015610ab057600080fd5b50610316600160a060020a0360043516613216565b348015610ad157600080fd5b50610316600160a060020a0360043516613263565b348015610af257600080fd5b50604080516020601f6064356004818101359283018490048402850184019095528184526105ee94600160a060020a038135811695602480359660443590931695369560849492019181908401838280828437509497506132b09650505050505050565b348015610b6257600080fd5b506103166134d8565b348015610b7757600080fd5b50610316600160a060020a03600435811690602435166135eb565b348015610b9e57600080fd5b506102e1600160a060020a0360043516613861565b348015610bbf57600080fd5b506105ee600160a060020a036004358116906024351661387f565b348015610be657600080fd5b506104c5613927565b348015610bfb57600080fd5b506102e1600160a060020a0360043516602435613936565b348015610c1f57600080fd5b506102e1600160a060020a036004358116906024359060443516613ade565b348015610c4a57600080fd5b50604080516020600460843581810135601f8101849004840285018401909552848452610316948235600160a060020a0390811695602480358316966044359660643590941695369560a49493909101918190840183828082843750949750613bdb9650505050505050565b348015610cc257600080fd5b50610316600160a060020a0360043516613c26565b60006020819052908152604090205460ff1681565b3360009081526020819052604090205460ff161515610d0a57600080fd5b600654604080517f0b41b4a5000000000000000000000000000000000000000000000000000000008152600160a060020a0384811660048301526001602483015291519190921691630b41b4a591604480830192600092919082900301818387803b158015610d7857600080fd5b505af1158015610d8c573d6000803e3d6000fd5b5050505050565b3360009081526020819052604090205460ff161515610db157600080fd5b600554604080517f0b1fa61c000000000000000000000000000000000000000000000000000000008152600160a060020a03848116600483015291519190921691630b1fa61c91602480830192600092919082900301818387803b158015610d7857600080fd5b3360009081526020819052604090205460ff161515610e3657600080fd5b6001805473ffffffffffffffffffffffffffffffffffffffff1916600160a060020a0392909216919091179055565b6000806001905082600160a060020a031663fca669006040518163ffffffff1660e060020a028152600401602060405180830381600087803b158015610eaa57600080fd5b505af1158015610ebe573d6000803e3d6000fd5b505050506040513d6020811015610ed457600080fd5b505115610fb85783600160a060020a031663c8e0b2a96040518163ffffffff1660e060020a028152600401602060405180830381600087803b158015610f1957600080fd5b505af1158015610f2d573d6000803e3d6000fd5b505050506040513d6020811015610f4357600080fd5b505190508015610fb85783600160a060020a03166319d40b086040518163ffffffff1660e060020a028152600401602060405180830381600087803b158015610f8b57600080fd5b505af1158015610f9f573d6000803e3d6000fd5b505050506040513d6020811015610fb557600080fd5b50505b9392505050565b3360009081526020819052604081205460ff161515610fdd57600080fd5b600160a060020a0385161515610ff257600080fd5b600160a060020a038616151561100757600080fd5b61101086611a6d565b84111561101c57600080fd5b61102886858585612abc565b50611035858585856132b0565b5060408051600160a060020a0380891682528716602082015280820186905290517fddf252ad1be2c89b69c2b068fc378daa952ba7f163c4a11628f55a4df523b3ef9181900360600190a150600195945050505050565b3360009081526020819052604090205460ff1615156110aa57600080fd5b6006805473ffffffffffffffffffffffffffffffffffffffff1916600160a060020a0392909216919091179055565b3360009081526020819052604090205460ff1615156110f757600080fd5b6005805473ffffffffffffffffffffffffffffffffffffffff1916600160a060020a0392909216919091179055565b3360009081526020819052604090205460ff16151561114457600080fd5b600654604080517fd37512f8000000000000000000000000000000000000000000000000000000008152600160a060020a0385811660048301528481166024830152600060448301819052925193169263d37512f89260648084019391929182900301818387803b1580156111b857600080fd5b505af11580156111cc573d6000803e3d6000fd5b505050505050565b3360009081526020819052604090205460ff1615156111f257600080fd5b8184600160a060020a031663436bbf336040518163ffffffff1660e060020a028152600401602060405180830381600087803b15801561123157600080fd5b505af1158015611245573d6000803e3d6000fd5b505050506040513d602081101561125b57600080fd5b5051111561126857600080fd5b83600160a060020a0316636c197ff584846040518363ffffffff1660e060020a0281526004018083600160a060020a0316600160a060020a0316815260200182815260200192505050600060405180830381600087803b1580156112cb57600080fd5b505af11580156112df573d6000803e3d6000fd5b5050600254604080517f40f11351000000000000000000000000000000000000000000000000000000008152600160a060020a0389811660048301528881166024830152604482018890526064820187905291519190921693506340f113519250608480830192600092919082900301818387803b15801561136057600080fd5b505af1158015611374573d6000803e3d6000fd5b5050505061138483838387613c4d565b50505050565b3360009081526020819052604090205460ff1615156113a857600080fd5b600654604080517fedae030c000000000000000000000000000000000000000000000000000000008152600160a060020a038481166004830152600160248301529151919092169163edae030c91604480830192600092919082900301818387803b158015610d7857600080fd5b3090565b3360009081526020819052604090205460ff16151561143857600080fd5b60048054604080517f3b7bd0c4000000000000000000000000000000000000000000000000000000008152600160a060020a0386811694820194909452848416602482015290519290911691633b7bd0c49160448082019260009290919082900301818387803b1580156111b857600080fd5b3360009081526020819052604090205460ff1615156114c957600080fd5b604080517fb52d75c3000000000000000000000000000000000000000000000000000000008152600160a060020a0387811660048301528681166024830152858116604483015260648201859052831515608483015291519188169163b52d75c39160a48082019260009290919082900301818387803b15801561154c57600080fd5b505af1158015611560573d6000803e3d6000fd5b50505050505050505050565b3360009081526020819052604090205460ff16151561158a57600080fd5b600654604080517f66c4ad19000000000000000000000000000000000000000000000000000000008152600160a060020a03848116600483015260016024830152915191909216916366c4ad1991604480830192600092919082900301818387803b158015610d7857600080fd5b3360009081526020819052604090205460ff16151561161657600080fd5b60048054604080517f436d9233000000000000000000000000000000000000000000000000000000008152600160a060020a038981169482019490945260248101889052604481018790526064810186905284841660848201529051929091169163436d92339160a48082019260009290919082900301818387803b15801561169e57600080fd5b505af11580156116b2573d6000803e3d6000fd5b505050505050505050565b600454600160a060020a031690565b600654604080517f791297fe000000000000000000000000000000000000000000000000000000008152600160a060020a0384811660048301529151600093929092169163791297fe9160248082019260209290919082900301818787803b15801561173757600080fd5b505af115801561174b573d6000803e3d6000fd5b505050506040513d602081101561176157600080fd5b505192915050565b60008082600160a060020a031663523555336040518163ffffffff1660e060020a028152600401602060405180830381600087803b1580156117aa57600080fd5b505af11580156117be573d6000803e3d6000fd5b505050506040513d60208110156117d457600080fd5b50519392505050565b600254600160a060020a031690565b3360009081526020819052604081205460ff16151561180a57600080fd5b600160a060020a038416151561181f57600080fd5b61182833611a6d565b83111561183457600080fd5b6118413384600085612abc565b5061184f84846000856132b0565b5060408051338152600160a060020a038616602082015280820185905290517fddf252ad1be2c89b69c2b068fc378daa952ba7f163c4a11628f55a4df523b3ef9181900360600190a15060019392505050565b6006546001546040805160008051602061490f8339815191528152600160a060020a0392831660048201529051600093929092169163477348929160248082019260209290919082900301818787803b1580156118fe57600080fd5b505af1158015611912573d6000803e3d6000fd5b505050506040513d602081101561192857600080fd5b5051905090565b3360009081526020819052604081205460ff16151561194d57600080fd5b81600160a060020a0316630c852c8f6040518163ffffffff1660e060020a028152600401602060405180830381600087803b15801561173757600080fd5b3360009081526020819052604090205460ff1615156119a957600080fd5b6119b281613e77565b50565b3360009081526020819052604090205460ff1615156119d357600080fd5b6003805473ffffffffffffffffffffffffffffffffffffffff1916600160a060020a0392909216919091179055565b600654604080517f561c3f96000000000000000000000000000000000000000000000000000000008152600160a060020a0384811660048301529151600093929092169163561c3f969160248082019260209290919082900301818787803b15801561173757600080fd5b6006546040805160008051602061490f8339815191528152600160a060020a0384811660048301529151600093929092169163477348929160248082019260209290919082900301818787803b15801561173757600080fd5b3360009081526020819052604081205460ff161515611ae457600080fd5b600654604080517fd928f807000000000000000000000000000000000000000000000000000000008152600160a060020a03868116600483015285811660248301529151919092169163d928f8079160448083019260209291908290030181600087803b158015611b5457600080fd5b505af1158015611b68573d6000803e3d6000fd5b505050506040513d6020811015611b7e57600080fd5b505190506000811115611c5a57611bcc8382846040805190810160405280601381526020017f43414e43454c5f52455345525645445f424944000000000000000000000000008152506132b0565b50600654604080517fd37512f8000000000000000000000000000000000000000000000000000000008152600160a060020a0386811660048301528581166024830152600060448301819052925193169263d37512f89260648084019391929182900301818387803b158015611c4157600080fd5b505af1158015611c55573d6000803e3d6000fd5b505050505b505050565b3360009081526020819052604090205460ff161515611c7d57600080fd5b600354604080517f062db38b000000000000000000000000000000000000000000000000000000008152600160a060020a0384811660048301529151919092169163062db38b91602480830192600092919082900301818387803b158015610d7857600080fd5b33600090815260208190526040812054819060ff161515611d0457600080fd5b6006546001546040805160008051602061490f8339815191528152600160a060020a0392831660048201529051611d98938793169163477348929160248083019260209291908290030181600087803b158015611d6057600080fd5b505af1158015611d74573d6000803e3d6000fd5b505050506040513d6020811015611d8a57600080fd5b50519063ffffffff613ead16565b600654600154604080517ffe177700000000000000000000000000000000000000000000000000000000008152600160a060020a03928316600482015260248101859052905193945091169163fe1777009160448082019260009290919082900301818387803b158015611e0b57600080fd5b505af1158015611e1f573d6000803e3d6000fd5b509295945050505050565b3360009081526020819052604090205460ff161515611e4857600080fd5b604080517fcff15d79000000000000000000000000000000000000000000000000000000008152600160a060020a03868116600483015285811660248301526044820185905291519187169163cff15d799160648082019260009290919082900301818387803b158015611ebb57600080fd5b505af1158015611ecf573d6000803e3d6000fd5b5050600254604080517f40f11351000000000000000000000000000000000000000000000000000000008152600160a060020a038a811660048301528881166024830152604482018890526064820187905291519190921693506340f113519250608480830192600092919082900301818387803b158015611f5057600080fd5b505af1158015611f64573d6000803e3d6000fd5b50505050610d8c83838388613c4d565b3360009081526020819052604090205460ff161515611f9257600080fd5b611f9e83838388613ebf565b604080517fd22c0100000000000000000000000000000000000000000000000000000000008152600160a060020a03868116600483015285811660248301526044820185905291519187169163d22c01009160648082019260009290919082900301818387803b15801561201157600080fd5b505af1158015612025573d6000803e3d6000fd5b5050600254604080517f944d1cb5000000000000000000000000000000000000000000000000000000008152600160a060020a038a8116600483015288811660248301526044820188905260648201879052915191909216935063944d1cb59250608480830192600092919082900301818387803b1580156120a657600080fd5b505af11580156120ba573d6000803e3d6000fd5b50505050610d8c838383886140bb565b600654604080517f81a4a6d80000000000000000000000000000000000000000000000000000000081529051600092600160a060020a0316916381a4a6d891600480830192602092919082900301818787803b1580156118fe57600080fd5b33600090815260208190526040812054819081908190819081908190819060ff16151561215557600080fd5b6000975087891161216557600080fd5b600160a060020a038a16151561217a57600080fd5b89600160a060020a031663523555336040518163ffffffff1660e060020a028152600401602060405180830381600087803b1580156121b857600080fd5b505af11580156121cc573d6000803e3d6000fd5b505050506040513d60208110156121e257600080fd5b5051604080517f73889f4a0000000000000000000000000000000000000000000000000000000081529051919850600160a060020a038c16916373889f4a916004808201926020929091908290030181600087803b15801561224357600080fd5b505af1158015612257573d6000803e3d6000fd5b505050506040513d602081101561226d57600080fd5b50519550600094505b8585101561245d5789600160a060020a031663cb8106f4866040518263ffffffff1660e060020a02815260040180828152602001915050602060405180830381600087803b1580156122c757600080fd5b505af11580156122db573d6000803e3d6000fd5b505050506040513d60208110156122f157600080fd5b5051604080517f70a08231000000000000000000000000000000000000000000000000000000008152600160a060020a0380841660048301529151929650908c16916370a08231916024808201926020929091908290030181600087803b15801561235b57600080fd5b505af115801561236f573d6000803e3d6000fd5b505050506040513d602081101561238557600080fd5b50519250612399898463ffffffff61424116565b915086828115156123a657fe5b049050612400600160009054906101000a9004600160a060020a031685838d6040805190810160405280600a81526020017f5041595f494e434f4d4500000000000000000000000000000000000000000000815250610fbf565b5060408051600160a060020a038087168252602082018490528c16818301526060810188905290517fb64ed7557c55209d837fdfb48cef77c80630853e11f38934bfc31d6df11f24689181900360800190a1600190940193612276565b5050505050505092915050565b3360009081526020819052604090205460ff16151561248857600080fd5b600160a060020a03831615611c5a576124a1828461426a565b611c5a8184614539565b600154600160a060020a031681565b33600090815260208190526040812054819060ff1615156124da57600080fd5b600160a060020a038516158015906124fa5750600160a060020a03851615155b151561250557600080fd5b6000841161251257600080fd5b61251b85614808565b84111561252757600080fd5b6125408461253487614808565b9063ffffffff613ead16565b600654604080517fc6685c8f000000000000000000000000000000000000000000000000000000008152600160a060020a03898116600483015260248201859052915193945091169163c6685c8f9160448082019260009290919082900301818387803b1580156125b057600080fd5b505af11580156125c4573d6000803e3d6000fd5b5050600554604080517f32ed7a29000000000000000000000000000000000000000000000000000000008152600160a060020a038a81166004830152600060248301819052604483018b9052898216606484015260a06084840152601160a48401527f57495448445241575f415050524f56454400000000000000000000000000000060c48401529251931694506332ed7a29935060e4808201939182900301818387803b15801561267557600080fd5b505af1158015612689573d6000803e3d6000fd5b505060015460408051808201909152601181527f57495448445241575f415050524f56454400000000000000000000000000000060208201526126dd9350600160a060020a039091169150869086906132b0565b5060408051858152602081018390528151600160a060020a038816927f07bb2758d1b76fdf518b55c8bbdb60127b90c27cafdff0fc8e1e9f2ac55c6b56928290030190a2506001949350505050565b600654604080517f150704010000000000000000000000000000000000000000000000000000000081529051600092600160a060020a031691631507040191600480830192602092919082900301818787803b1580156118fe57600080fd5b600554600160a060020a031690565b3360009081526020819052604090205460ff1615156127b857600080fd5b611c5a8282612129565b3360009081526020819052604090205460ff1615156127e057600080fd5b604080517fff98e76f000000000000000000000000000000000000000000000000000000008152600160a060020a038481166004830152838116602483015291519185169163ff98e76f9160448082019260009290919082900301818387803b158015611c4157600080fd5b33600090815260208190526040812054819060ff16151561286c57600080fd5b6006546001546040805160008051602061490f8339815191528152600160a060020a0392831660048201529051611d98938793169163477348929160248083019260209291908290030181600087803b1580156128c857600080fd5b505af11580156128dc573d6000803e3d6000fd5b505050506040513d60208110156128f257600080fd5b50519063ffffffff61488e16565b3360009081526020819052604090205460ff16151561291e57600080fd5b8184600160a060020a031663436bbf336040518163ffffffff1660e060020a028152600401602060405180830381600087803b15801561295d57600080fd5b505af1158015612971573d6000803e3d6000fd5b505050506040513d602081101561298757600080fd5b5051111561299457600080fd5b6129a083838387613ebf565b83600160a060020a031663cce7ec1384846040518363ffffffff1660e060020a0281526004018083600160a060020a0316600160a060020a0316815260200182815260200192505050600060405180830381600087803b158015612a0357600080fd5b505af1158015612a17573d6000803e3d6000fd5b5050600254604080517f944d1cb5000000000000000000000000000000000000000000000000000000008152600160a060020a03898116600483015288811660248301526044820188905260648201879052915191909216935063944d1cb59250608480830192600092919082900301818387803b158015612a9857600080fd5b505af1158015612aac573d6000803e3d6000fd5b50505050611384838383876140bb565b3360009081526020819052604081205481908190819060ff161515612ae057600080fd5b600160a060020a03861615612d5757612af9888761387f565b92506000831115612bb6576006546040805160008051602061490f8339815191528152600160a060020a038b811660048301529151612b989392909216916347734892916024808201926020929091908290030181600087803b158015612b5f57600080fd5b505af1158015612b73573d6000803e3d6000fd5b505050506040513d6020811015612b8957600080fd5b5051849063ffffffff61488e16565b915086821015612ba757600080fd5b612bb18887611ac6565b612c46565b6006546040805160008051602061490f8339815191528152600160a060020a038b8116600483015291518a9392909216916347734892916024808201926020929091908290030181600087803b158015612c0f57600080fd5b505af1158015612c23573d6000803e3d6000fd5b505050506040513d6020811015612c3957600080fd5b50511015612c4657600080fd5b6005546040517f32ed7a29000000000000000000000000000000000000000000000000000000008152600160a060020a038a811660048301908152600060248401819052604484018c90528a8316606485015260a0608485019081528a5160a48601528a5193909516946332ed7a29948e9492938e938e938e93909160c49091019060208501908083838b5b83811015612cea578181015183820152602001612cd2565b50505050905090810190601f168015612d175780820380516001836020036101000a031916815260200191505b509650505050505050600060405180830381600087803b158015612d3a57600080fd5b505af1158015612d4e573d6000803e3d6000fd5b50505050612de7565b6006546040805160008051602061490f8339815191528152600160a060020a038b8116600483015291518a9392909216916347734892916024808201926020929091908290030181600087803b158015612db057600080fd5b505af1158015612dc4573d6000803e3d6000fd5b505050506040513d6020811015612dda57600080fd5b50511015612de757600080fd5b6006546040805160008051602061490f8339815191528152600160a060020a038b811660048301529151612e40938b93169163477348929160248083019260209291908290030181600087803b158015611d6057600080fd5b600654604080517ffe177700000000000000000000000000000000000000000000000000000000008152600160a060020a038c8116600483015260248201859052915193945091169163fe1777009160448082019260009290919082900301818387803b158015612eb057600080fd5b505af1158015612ec4573d6000803e3d6000fd5b50929a9950505050505050505050565b600654604080517fc5f33082000000000000000000000000000000000000000000000000000000008152600160a060020a0384811660048301529151600093929092169163c5f330829160248082019260209290919082900301818787803b15801561173757600080fd5b3360009081526020819052604090205460ff161515612f5d57600080fd5b60048054604080517fb34ee906000000000000000000000000000000000000000000000000000000008152600160a060020a0387811694820194909452858416602482015284841660448201529051929091169163b34ee9069160648082019260009290919082900301818387803b158015611c4157600080fd5b3360009081526020819052604090205460ff161515612ff657600080fd5b60048054604080517fb4bfa478000000000000000000000000000000000000000000000000000000008152600160a060020a038881169482019490945260248101879052858416604482015284841660648201529051929091169163b4bfa4789160848082019260009290919082900301818387803b15801561307857600080fd5b505af115801561308c573d6000803e3d6000fd5b5050505050505050565b3360009081526020819052604081205460ff1615156130b457600080fd5b83600160a060020a031663cce7ec1384846040518363ffffffff1660e060020a0281526004018083600160a060020a0316600160a060020a0316815260200182815260200192505050600060405180830381600087803b15801561311757600080fd5b505af115801561312b573d6000803e3d6000fd5b505060408051600160a060020a0380891682528716602082015280820186905290517f165da1339afaf62d755a5ed9c5f2b526dbaa6b9c000126a85c024c391644fe269350908190036060019150a15060019392505050565b60008083600160a060020a03166370a08231846040518263ffffffff1660e060020a0281526004018082600160a060020a0316600160a060020a03168152602001915050602060405180830381600087803b1580156131e257600080fd5b505af11580156131f6573d6000803e3d6000fd5b505050506040513d602081101561320c57600080fd5b5051949350505050565b3360009081526020819052604090205460ff16151561323457600080fd5b6004805473ffffffffffffffffffffffffffffffffffffffff1916600160a060020a0392909216919091179055565b3360009081526020819052604090205460ff16151561328157600080fd5b6002805473ffffffffffffffffffffffffffffffffffffffff1916600160a060020a0392909216919091179055565b33600090815260208190526040812054819060ff1615156132d057600080fd5b600160a060020a038416156133ed576005546040517f32ed7a29000000000000000000000000000000000000000000000000000000008152600160a060020a0388811660048301908152600160248401819052604484018a9052888316606485015260a060848501908152885160a4860152885193909516946332ed7a29948c9492938c938c938c93909160c490910190602085019080838360005b8381101561338457818101518382015260200161336c565b50505050905090810190601f1680156133b15780820380516001836020036101000a031916815260200191505b509650505050505050600060405180830381600087803b1580156133d457600080fd5b505af11580156133e8573d6000803e3d6000fd5b505050505b6006546040805160008051602061490f8339815191528152600160a060020a0389811660048301529151613446938993169163477348929160248083019260209291908290030181600087803b1580156128c857600080fd5b600654604080517ffe177700000000000000000000000000000000000000000000000000000000008152600160a060020a038a8116600483015260248201859052915193945091169163fe1777009160448082019260009290919082900301818387803b1580156134b657600080fd5b505af11580156134ca573d6000803e3d6000fd5b509298975050505050505050565b3360009081526020819052604090205460ff1615156134f657600080fd5b600654604080517f81a4a6d80000000000000000000000000000000000000000000000000000000081529051600160a060020a039092169163fe17770091339184916381a4a6d89160048083019260209291908290030181600087803b15801561355f57600080fd5b505af1158015613573573d6000803e3d6000fd5b505050506040513d602081101561358957600080fd5b50516040805160e060020a63ffffffff8616028152600160a060020a039093166004840152602483019190915251604480830192600092919082900301818387803b1580156135d757600080fd5b505af1158015611384573d6000803e3d6000fd5b3360009081526020819052604081205460ff16151561360957600080fd5b81600160a060020a031663ec3124806040518163ffffffff1660e060020a028152600401602060405180830381600087803b15801561364757600080fd5b505af115801561365b573d6000803e3d6000fd5b505050506040513d602081101561367157600080fd5b5051600654604080517fd928f807000000000000000000000000000000000000000000000000000000008152600160a060020a0387811660048301528681166024830152915193945091169163d928f807916044808201926020929091908290030181600087803b1580156136e557600080fd5b505af11580156136f9573d6000803e3d6000fd5b505050506040513d602081101561370f57600080fd5b50511561371b57600080fd5b6006546040805160008051602061490f8339815191528152600160a060020a0386811660048301529151919092169163477348929160248083019260209291908290030181600087803b15801561377157600080fd5b505af1158015613785573d6000803e3d6000fd5b505050506040513d602081101561379b57600080fd5b50518111156137a957600080fd5b6137ea8382846040805190810160405280600b81526020017f524553455256455f424944000000000000000000000000000000000000000000815250612abc565b50600654604080517fd37512f8000000000000000000000000000000000000000000000000000000008152600160a060020a0386811660048301528581166024830152604482018590529151919092169163d37512f891606480830192600092919082900301818387803b158015611c4157600080fd5b600160a060020a031660009081526020819052604090205460ff1690565b600654604080517fd928f807000000000000000000000000000000000000000000000000000000008152600160a060020a03858116600483015284811660248301529151600093929092169163d928f8079160448082019260209290919082900301818787803b1580156138f257600080fd5b505af1158015613906573d6000803e3d6000fd5b505050506040513d602081101561391c57600080fd5b505190505b92915050565b600354600160a060020a031690565b33600090815260208190526040812054819060ff16151561395657600080fd5b600160a060020a038416158015906139765750600160a060020a03841615155b151561398157600080fd5b6000831161398e57600080fd5b61399784611a6d565b8311156139a357600080fd5b6139e5848460006040805190810160405280600881526020017f5749544844524157000000000000000000000000000000000000000000000000815250612abc565b506139ff836139f386614808565b9063ffffffff61488e16565b600654604080517fc6685c8f000000000000000000000000000000000000000000000000000000008152600160a060020a03888116600483015260248201859052915193945091169163c6685c8f9160448082019260009290919082900301818387803b158015613a6f57600080fd5b505af1158015613a83573d6000803e3d6000fd5b5050505083600160a060020a03167ff279e6a1f5e320cca91135676d9cb6e44ca8a08c0b88342bcdb1144f6511b56884613abc87611a6d565b6040805192835260208301919091528051918290030190a25060019392505050565b3360009081526020819052604081205460ff161515613afc57600080fd5b600160a060020a03841615801590613b1c5750600160a060020a03841615155b1515613b2757600080fd5b60008311613b3457600080fd5b600154613b4990600160a060020a0316611a6d565b831115613b5557600080fd5b60015460408051808201909152600781527f4445504f534954000000000000000000000000000000000000000000000000006020820152613ba591600160a060020a031690869086908690610fbf565b5083600160a060020a03167f90890809c654f11d6e72a28fa60149770a0d11ec6c92319d6ceb2bb0a4ea1a1584613abc87611a6d565b3360009081526020819052604090205460ff161515613bf957600080fd5b613c0585848484612abc565b50613c0f8361284c565b50613c1c848484846132b0565b506111cc83611ce4565b3360009081526020819052604090205460ff161515613c4457600080fd5b6119b28161489b565b3360009081526020819052604081205460ff161515613c6b57600080fd5b600360009054906101000a9004600160a060020a0316600160a060020a0316635ec2e01286868686600160a060020a031663abb8e2136040518163ffffffff1660e060020a028152600401602060405180830381600087803b158015613cd057600080fd5b505af1158015613ce4573d6000803e3d6000fd5b505050506040513d6020811015613cfa57600080fd5b50516040805160e060020a63ffffffff8816028152600160a060020a03958616600482015260248101949094526044840192909252929092166064820152905160848083019260209291908290030181600087803b158015613d5b57600080fd5b505af1158015613d6f573d6000803e3d6000fd5b505050506040513d6020811015613d8557600080fd5b505190506000811115610d8c57613dd38582846040805190810160405280600c81526020017f53454c4c494e475f464545530000000000000000000000000000000000000000815250612abc565b50613ddd8161284c565b50600354604080517faac6b34100000000000000000000000000000000000000000000000000000000815260048101849052600160a060020a0385811660248301529151919092169163aac6b3419160448083019260209291908290030181600087803b158015613e4d57600080fd5b505af1158015613e61573d6000803e3d6000fd5b505050506040513d6020811015611c5557600080fd5b600160a060020a0381161515613e8c57600080fd5b600160a060020a03166000908152602081905260409020805460ff19169055565b600082821115613eb957fe5b50900390565b33600090815260208190526040812054819060ff161515613edf57600080fd5b60048054604080517fc207f469000000000000000000000000000000000000000000000000000000008152600160a060020a038a81169482019490945286841660248201529051929091169163c207f469916044808201926020929091908290030181600087803b158015613f5357600080fd5b505af1158015613f67573d6000803e3d6000fd5b505050506040513d6020811015613f7d57600080fd5b505160048054604080517f8cbc9f27000000000000000000000000000000000000000000000000000000008152600160a060020a038b81169482019490945287841660248201529051939550911691638cbc9f27916044808201926020929091908290030181600087803b158015613ff457600080fd5b505af1158015614008573d6000803e3d6000fd5b505050506040513d602081101561401e57600080fd5b5051905060008111156111cc5760048054604080517f5af829f6000000000000000000000000000000000000000000000000000000008152600160a060020a038781169482019490945285841660248201528984166044820152606481018990526084810188905260a4810185905290519290911691635af829f69160c48082019260009290919082900301818387803b15801561154c57600080fd5b3360009081526020819052604081205460ff1615156140d957600080fd5b600360009054906101000a9004600160a060020a0316600160a060020a031663e8b0a94e86868686600160a060020a031663abb8e2136040518163ffffffff1660e060020a028152600401602060405180830381600087803b15801561413e57600080fd5b505af1158015614152573d6000803e3d6000fd5b505050506040513d602081101561416857600080fd5b50516040805160e060020a63ffffffff8816028152600160a060020a03958616600482015260248101949094526044840192909252929092166064820152905160848083019260209291908290030181600087803b1580156141c957600080fd5b505af11580156141dd573d6000803e3d6000fd5b505050506040513d60208110156141f357600080fd5b505190506000811115610d8c57613dd38582846040805190810160405280600b81526020017f425559494e475f46454553000000000000000000000000000000000000000000815250612abc565b600082151561425257506000613921565b5081810281838281151561426257fe5b041461392157fe5b33600090815260208190526040812054819081908190819060ff16151561429057600080fd5b85600160a060020a0316639fb9e7bd6040518163ffffffff1660e060020a028152600401602060405180830381600087803b1580156142ce57600080fd5b505af11580156142e2573d6000803e3d6000fd5b505050506040513d60208110156142f857600080fd5b50519450600093505b84841015611c555785600160a060020a03166375f2e4e5856040518263ffffffff1660e060020a02815260040180828152602001915050602060405180830381600087803b15801561435257600080fd5b505af1158015614366573d6000803e3d6000fd5b505050506040513d602081101561437c57600080fd5b5051604080517f4538f92f0000000000000000000000000000000000000000000000000000000081529051919450600160a060020a03881691634538f92f916004808201926020929091908290030181600087803b1580156143dd57600080fd5b505af11580156143f1573d6000803e3d6000fd5b505050506040513d602081101561440757600080fd5b5051604080517f56101b25000000000000000000000000000000000000000000000000000000008152600160a060020a038a8116600483015280841660248301529151929450908516916356101b25916044808201926020929091908290030181600087803b15801561447957600080fd5b505af115801561448d573d6000803e3d6000fd5b505050506040513d60208110156144a357600080fd5b505160408051808201909152600b81527f54415845535f544f54414c00000000000000000000000000000000000000000060208201529091506144eb90889083908590612abc565b5061452d8382846040805190810160405280600b81526020017f54415845535f544f54414c0000000000000000000000000000000000000000008152506132b0565b50600190930192614301565b33600090815260208190526040812054819081908190819060ff16151561455f57600080fd5b85600160a060020a0316638d9e55f36040518163ffffffff1660e060020a028152600401602060405180830381600087803b15801561459d57600080fd5b505af11580156145b1573d6000803e3d6000fd5b505050506040513d60208110156145c757600080fd5b50519450600093505b84841015611c555785600160a060020a031663785cad0b856040518263ffffffff1660e060020a02815260040180828152602001915050602060405180830381600087803b15801561462157600080fd5b505af1158015614635573d6000803e3d6000fd5b505050506040513d602081101561464b57600080fd5b5051604080517f4538f92f0000000000000000000000000000000000000000000000000000000081529051919450600160a060020a03881691634538f92f916004808201926020929091908290030181600087803b1580156146ac57600080fd5b505af11580156146c0573d6000803e3d6000fd5b505050506040513d60208110156146d657600080fd5b5051604080517f56101b25000000000000000000000000000000000000000000000000000000008152600160a060020a038a8116600483015280841660248301529151929450908516916356101b25916044808201926020929091908290030181600087803b15801561474857600080fd5b505af115801561475c573d6000803e3d6000fd5b505050506040513d602081101561477257600080fd5b505160408051808201909152600b81527f54415845535f544f54414c00000000000000000000000000000000000000000060208201529091506147ba90889083908590612abc565b506147fc8382846040805190810160405280600b81526020017f54415845535f544f54414c0000000000000000000000000000000000000000008152506132b0565b506001909301926145d0565b3360009081526020819052604081205460ff16151561482657600080fd5b600654604080517ff69417dd000000000000000000000000000000000000000000000000000000008152600160a060020a0385811660048301529151919092169163f69417dd9160248083019260209291908290030181600087803b15801561173757600080fd5b8181018281101561392157fe5b600160a060020a03811615156148b057600080fd5b600154604051600160a060020a038084169216907f8be0079c531659141344cd1fd0a4f28419497f9722a3daafe3b4186f6b6457e090600090a3600160a060020a03166000908152602081905260409020805460ff1916600117905556004773489200000000000000000000000000000000000000000000000000000000a165627a7a72305820066368e5e1221c1a3379e7c120a1c0b0548632e582e212e6e8d72a6ba74d1ac80029",
    "source": "pragma solidity ^0.4.24;\n\nimport \"openzeppelin-solidity/contracts/token/ERC20/StandardToken.sol\";\nimport 'openzeppelin-solidity/contracts/math/SafeMath.sol';\nimport \"./Mortgage.sol\";\nimport \"./factory/StoneCoinFactory.sol\";\n\nimport \"./CornerTransaction.sol\";\n\nimport './Mortgagee.sol';\n\nimport \"./interfaces/CornerStoneBaseInt.sol\";\nimport \"./interfaces/TradesHistoryInt.sol\";\nimport \"./interfaces/FeeManagerInt.sol\";\nimport \"./interfaces/BrokerManagerInt.sol\";\nimport \"./interfaces/StoneCoinMortgageInt.sol\";\nimport \"./interfaces/SignedDocumentInt.sol\";\nimport \"./interfaces/CornerTransactionInt.sol\";\nimport \"./interfaces/CornerStoneBaseStorageInt.sol\";\nimport \"./interfaces/StoneCoinInt.sol\";\nimport \"./interfaces/Ownables.sol\";\nimport \"./interfaces/TransactionTaxesInt.sol\";\nimport \"./interfaces/TaxEntityInt.sol\";\n\ncontract CornerStoneBase is Ownables, CornerStoneBaseInt{\n  using SafeMath for uint256;\n\n  event WithdrawPending(address indexed from, uint256 amount, uint256 balance);\n  event Withdraw(address indexed from, uint256 amount, uint256 balance);\n  event Deposit(address indexed to, uint256 amount, uint256 balance);\n  event Investment(address investor, address stoneCoinAddress, uint256 amount, uint256 total);\n  event StoneTransferred(address payee, address payer, bytes32 stoneCoinName, uint256 price, uint256 amount);\n  event Transfer(address _from, address _to, uint256 _value);\n  event StoneCoinCreated(bytes32 name);\n  event IncomePayment(address holder, uint256 userShare, address stoneCoinAddress, uint256 holders);\n  event TransferFromOwner(address stoneCoinAddress, address to, uint256 amount);\n\n    address tradesHistoryAddress;\n    address feeManagerAddress;\n    address brokerManagerAddress;\n    address cornerTransactionAddress;\n    address cornerStoneBaseStorageAddress;\n    constructor() public Ownables() {\n    }\n\n    function setCornerStoneBaseStorage(address _cornerStoneBaseStorageAddress) public onlyOwner{\n        cornerStoneBaseStorageAddress = _cornerStoneBaseStorageAddress;\n    }\n\n    function init() public onlyOwner {\n        CornerStoneBaseStorageInt(cornerStoneBaseStorageAddress).setUserBalance(msg.sender, CornerStoneBaseStorageInt(cornerStoneBaseStorageAddress).getInitialSupply());\n    }\n\n    function setNewTraderHistory(address _tradesHistoryAddress) public onlyOwner{\n        tradesHistoryAddress = _tradesHistoryAddress;\n    }\n\n     function setNewCornerTransaction(address _cornerTransactionAddress) public onlyOwner{\n         cornerTransactionAddress = _cornerTransactionAddress;\n    }\n\n\n    function setNewFeeManager(address _feeManagerAddress) public onlyOwner{\n        feeManagerAddress = _feeManagerAddress;\n    }\n\n    function setNewBrokerManager(address _brokerManagerAddress) public onlyOwner{\n        brokerManagerAddress = _brokerManagerAddress;\n    }\n\n    function getBrokerManager() public view returns(address){\n        return brokerManagerAddress;\n    }\n    function getTransactionManager() public view returns(address){\n        return cornerTransactionAddress;\n    }\n    function setBrokerFees(address user, uint256 firstDealRatio, uint256 otherDealRatio, uint256 secondaryFee, address organization)  public onlyOwner{\n        BrokerManagerInt(brokerManagerAddress).setBrokerFees(user, firstDealRatio, otherDealRatio, secondaryFee, organization);\n    }\n\n    function addBroker(address user, address organization)  public onlyOwner{\n         BrokerManagerInt(brokerManagerAddress).addBroker(user, organization);\n    }\n    function setTransactionManager(address user)  public onlyOwner{\n        CornerTransactionInt(cornerTransactionAddress).setTransactionManager(user);\n    }\n\n    function addUserToBroker(address user, address broker, address organization)  public onlyOwner{\n        BrokerManagerInt(brokerManagerAddress).addUserToBroker(user, broker,organization);\n    }\n\n    function getTradesHistory() public view returns(address){\n        return tradesHistoryAddress;\n    }\n\n    function getFeeManager() public view returns(address){\n        return  feeManagerAddress;\n    }\n\n    function addFeeManagerRole(address user)  public onlyOwner{\n        FeeManagerInt(feeManagerAddress).setFeeManagerRole(user);\n    }\n\n    function isMortgageOperator(address _user) public view returns(bool) {\n        return  CornerStoneBaseStorageInt(cornerStoneBaseStorageAddress).getMortgageOperatorRoles(_user);\n    }\n\n    function isMortgageFinance(address _user) public view returns(bool) {\n        return CornerStoneBaseStorageInt(cornerStoneBaseStorageAddress).getMortgageFinanceRoles(_user);\n    }\n\n    function isTokenApproveRole(address _user) public view returns(bool) {\n        return CornerStoneBaseStorageInt(cornerStoneBaseStorageAddress).getTokenApproveRoles(_user);\n    }\n\n    function addMortgageOperatorRole(address _user) public onlyOwner  {\n        CornerStoneBaseStorageInt(cornerStoneBaseStorageAddress).setMortgageOperatorRoles(_user, true);\n    }\n\n    function addMortgageFinanceRole(address _user) public onlyOwner  {\n        CornerStoneBaseStorageInt(cornerStoneBaseStorageAddress).setMortgageFinanceRoles(_user, true);\n    }\n\n    function addTokenApproveRole(address _user) public onlyOwner  {\n        CornerStoneBaseStorageInt(cornerStoneBaseStorageAddress).setTokenApproveRoles(_user, true);\n    }\n\n  function subBalance(address _user, uint256 _value, address stoneCoin, string operation) public onlyOwner returns(uint256) {\n      if(stoneCoin != address(0)){\n          uint256 reserveBid = getReserveBid(_user, stoneCoin);\n          if(reserveBid > 0){\n              uint256 totalFund = reserveBid.add(CornerStoneBaseStorageInt(cornerStoneBaseStorageAddress).getUserBalance(_user));\n              require(totalFund >= _value);\n              cancelReserveBid(_user, stoneCoin);\n          }else{\n              require(CornerStoneBaseStorageInt(cornerStoneBaseStorageAddress).getUserBalance(_user) >= _value);\n          }\n          CornerTransactionInt(cornerTransactionAddress).addTransaction(_user, false, _value, stoneCoin, operation);\n      }else {\n          require(CornerStoneBaseStorageInt(cornerStoneBaseStorageAddress).getUserBalance(_user) >= _value);\n\n      }\n      uint256 userBalance = CornerStoneBaseStorageInt(cornerStoneBaseStorageAddress).getUserBalance(_user).sub(_value);\n      CornerStoneBaseStorageInt(cornerStoneBaseStorageAddress).setUserBalance(_user, userBalance);\n      return userBalance;\n  }\n\n    function reserveBid(address _user, address _stoneCoinAddress) public onlyOwner {\n        uint256 bidReserved = StoneCoinInt(_stoneCoinAddress).getReservedPrice();\n        require( CornerStoneBaseStorageInt(cornerStoneBaseStorageAddress).getUserReservedBalance(_user, _stoneCoinAddress) == 0);\n        require(bidReserved <= CornerStoneBaseStorageInt(cornerStoneBaseStorageAddress).getUserBalance(_user));\n        subBalance(_user, bidReserved, _stoneCoinAddress, \"RESERVE_BID\");\n        CornerStoneBaseStorageInt(cornerStoneBaseStorageAddress).setUserReservedBalance(_user, _stoneCoinAddress, bidReserved);\n    }\n\n\n    function getReserveBid(address _user, address _stoneCoinAddress) public view returns (uint256) {\n        return CornerStoneBaseStorageInt(cornerStoneBaseStorageAddress).getUserReservedBalance(_user, _stoneCoinAddress);\n    }\n\n    function reservedBidLost(address _user, address _stoneCoinAddress) public onlyOwner {\n        return CornerStoneBaseStorageInt(cornerStoneBaseStorageAddress).setUserReservedBalance(_user, _stoneCoinAddress, 0);\n    }\n\n    function cancelReserveBid(address _user, address _stoneCoinAddress) public onlyOwner {\n        uint256 bidReserved = CornerStoneBaseStorageInt(cornerStoneBaseStorageAddress).getUserReservedBalance(_user, _stoneCoinAddress);\n        if(bidReserved > 0){\n            addBalance(_user, bidReserved, _stoneCoinAddress, \"CANCEL_RESERVED_BID\");\n            CornerStoneBaseStorageInt(cornerStoneBaseStorageAddress).setUserReservedBalance(_user, _stoneCoinAddress, 0);\n        }\n    }\n\n    function addBalance(address _user, uint256 _value, address stoneCoin, string operation) public onlyOwner returns(uint256) {\n      if(stoneCoin != address(0)){\n         CornerTransactionInt(cornerTransactionAddress).addTransaction(_user, true, _value, stoneCoin, operation);\n          }\n      uint256 userBalance = CornerStoneBaseStorageInt(cornerStoneBaseStorageAddress).getUserBalance(_user).add(_value);\n      CornerStoneBaseStorageInt(cornerStoneBaseStorageAddress).setUserBalance(_user, userBalance);\n        return userBalance;\n  }\n\n  function addOwnerBalance(uint256 _value) public onlyOwner returns(uint256) {\n      uint256 userBalance = CornerStoneBaseStorageInt(cornerStoneBaseStorageAddress).getUserBalance(owner).add(_value);\n      CornerStoneBaseStorageInt(cornerStoneBaseStorageAddress).setUserBalance(owner, userBalance);\n     return userBalance;\n  }\n\n  function subOwnerBalance(uint256 _value) public onlyOwner returns(uint256) {\n\n      uint256 userBalance = CornerStoneBaseStorageInt(cornerStoneBaseStorageAddress).getUserBalance(owner).sub(_value);\n      CornerStoneBaseStorageInt(cornerStoneBaseStorageAddress).setUserBalance(owner, userBalance);\n      return userBalance;\n  }\n\n  function getInitialSupply() public view returns(uint256) {\n    return CornerStoneBaseStorageInt(cornerStoneBaseStorageAddress).getInitialSupply();\n  }\n\n  function symbol() external view returns (bytes32) {\n    return CornerStoneBaseStorageInt(cornerStoneBaseStorageAddress).getSymbol();\n  }\n\n  function transfer(address _to, uint256 _value, string operation) public onlyOwner returns(bool) {\n    require(_to != address(0));\n    require(_value <= balanceOf(msg.sender));\n\n    subBalance(msg.sender,_value,address(0),operation);\n    addBalance(_to, _value, address(0), operation);\n    emit Transfer(msg.sender, _to, _value);\n    return true;\n  }\n\n  function balanceOf(address _user) public view returns (uint256) {\n    return  CornerStoneBaseStorageInt(cornerStoneBaseStorageAddress).getUserBalance(_user);\n  }\n\n  function getOwnerBalance() public view returns (uint256) {\n    return CornerStoneBaseStorageInt(cornerStoneBaseStorageAddress).getUserBalance(owner);\n  }\n\n  function  transferFrom(address _from, address _to, uint256 _value, address stoneCoin, string operation) public onlyOwner returns(bool) {\n    require(_to != address(0));\n    require(_from != address(0));\n    require(_value <= balanceOf(_from));\n      subBalance(_from,_value,stoneCoin,operation);\n      addBalance(_to, _value, stoneCoin, operation);\n\n    emit Transfer(_from, _to, _value);\n    return true;\n  }\n\n  function sell(address stoneCoinAddress, address seller, uint256 amount, uint256 price) public onlyOwner {\n    require(StoneCoinInt(stoneCoinAddress).getMinBulkSize() <= amount);\n    StoneCoinInt(stoneCoinAddress).sell(seller, amount);\n    TradesHistoryInt(tradesHistoryAddress).sellingTrade(stoneCoinAddress, seller, amount, price);\n    transferSellingFee(seller, amount, price, stoneCoinAddress);\n  }\n  function buy(address stoneCoinAddress, address buyer, uint256 amount, uint256 price) public onlyOwner {\n    require(StoneCoinInt(stoneCoinAddress).getMinBulkSize() <= amount);\n    transferBrokerFee(buyer, amount, price, stoneCoinAddress);\n      StoneCoinInt(stoneCoinAddress).buy(buyer, amount);\n    TradesHistoryInt(tradesHistoryAddress).buyingTrade(stoneCoinAddress, buyer, amount, price);\n    transferBuyingFee(buyer, amount, price, stoneCoinAddress);\n\n  }\n\n  function clearMortgage(address stoneCoinAddress, address user, address mortgageAddress) public onlyOwner {\n      StoneCoinInt(stoneCoinAddress).clearMortgage(user, mortgageAddress);\n\n  }\n\n  function partlyForfeitureMortgage(address stoneCoinAddress, address user, address mortgagee, address mortgageAddress, uint marketPriceMills, bool maxDefaulted) public onlyOwner {\n      StoneCoinInt(stoneCoinAddress).partlyForfeitureMortgage(user, mortgagee, mortgageAddress, marketPriceMills, maxDefaulted);\n  }\n\n    function calculateTax(address taxes, address buyer, address seller  )  public onlyOwner{\n        if(taxes != address(0)){\n            calculateBuyerTax(buyer, taxes);\n            calculateSellerTax(seller, taxes);\n        }\n    }\n\n    function calculateBuyerTax(address buyer, address taxes) private onlyOwner {\n        uint arrayLength = TransactionTaxesInt(taxes).getBuyerTaxEntitiesLength();\n        for (uint i=0; i<arrayLength; i++) {\n            address taxEntity = TaxEntityInt(TransactionTaxesInt(taxes).getBuyerTaxEntity(i));\n            address stoneCoinAddress =  TransactionTaxesInt(taxes).getStoneCoinAddress();\n            uint256 tax =  TaxEntityInt(taxEntity).getTax(buyer, stoneCoinAddress);\n            subBalance(buyer, tax,  stoneCoinAddress,\"TAXES_TOTAL\");\n            addBalance(taxEntity, tax, stoneCoinAddress, \"TAXES_TOTAL\");\n        }\n    }\n\n    function calculateSellerTax(address seller, address taxes) private onlyOwner {\n        uint arrayLength = TransactionTaxesInt(taxes).getSellerTaxEntitiesLength();\n        for (uint i=0; i<arrayLength; i++) {\n            address taxEntity = TaxEntityInt(TransactionTaxesInt(taxes).getSellerTaxEntity(i));\n            address stoneCoinAddress =  TransactionTaxesInt(taxes).getStoneCoinAddress();\n            uint256 tax =  TaxEntityInt(taxEntity).getTax(seller, stoneCoinAddress);\n            subBalance(seller, tax,  stoneCoinAddress,\"TAXES_TOTAL\");\n            addBalance(taxEntity, tax, stoneCoinAddress,\"TAXES_TOTAL\");\n        }\n    }\n  function buyMortgaged(address stoneCoinAddress,address mortgageAddress, address buyer, uint256 amount, uint256 price) public onlyOwner {\n    transferBrokerFee(buyer, amount, price, stoneCoinAddress);\n    StoneCoinInt(stoneCoinAddress).buyMortgaged(mortgageAddress, buyer, amount);\n    TradesHistoryInt(tradesHistoryAddress).buyingTrade(stoneCoinAddress, buyer, amount, price);\n    transferBuyingFee(buyer, amount, price, stoneCoinAddress);\n\n  }\n\n  function sellMortgaged(address stoneCoinAddress,address mortgageAddress, address seller, uint256 amount, uint256 price) public onlyOwner {\n     StoneCoinInt(stoneCoinAddress).sellMortgaged(mortgageAddress, seller, amount);\n     TradesHistoryInt(tradesHistoryAddress).sellingTrade(stoneCoinAddress, seller, amount, price);\n    transferSellingFee(seller, amount, price,stoneCoinAddress);\n\n  }\n\n function isInitialOffering(address stoneCoinAddress) public view onlyOwner returns(bool) {\n    return StoneCoinInt(stoneCoinAddress).isInitialOffering();\n  }\n\n  function deposit(address payee, uint256 amount, address stoneCoin) public onlyOwner returns(bool){\n    require(payee != 0 && payee != address(0));\n    require(amount > 0);\n    require(amount <= balanceOf(owner));\n    transferFrom(owner, payee, amount, stoneCoin,\"DEPOSIT\");\n    emit Deposit(payee, amount, balanceOf(payee));\n    return true;\n  }\n\n    function pendingBalanceOf(address _user) private view onlyOwner returns(uint256){\n        return CornerStoneBaseStorageInt(cornerStoneBaseStorageAddress).getUserPendingBalance(_user);\n    }\n  function withdrawApprove(address user, uint256 amount, address stoneCoinAddress) public onlyOwner returns(bool) {\n    require(user != 0 && user != address(0));\n    require(amount > 0);\n    require(amount <= pendingBalanceOf(user));\n\n\n    uint256 pendingBalance = pendingBalanceOf(user).sub(amount);\n    CornerStoneBaseStorageInt(cornerStoneBaseStorageAddress).setUserPendingBalance(user, pendingBalance);\n    CornerTransactionInt(cornerTransactionAddress).addTransaction(user, false, amount, stoneCoinAddress,\"WITHDRAW_APPROVED\");\n\n    addBalance(owner, amount, stoneCoinAddress, \"WITHDRAW_APPROVED\");\n    emit WithdrawPending(user, amount,pendingBalance);\n    return true;\n  }\n\n  function withdraw(address user, uint256 amount) public onlyOwner returns(bool) {\n    require(user != 0 && user != address(0));\n    require(amount > 0);\n    require(amount <= balanceOf(user));\n    subBalance(user, amount, address(0),\"WITHDRAW\");\n    uint256 pendingBalance = pendingBalanceOf(user).add(amount);\n    CornerStoneBaseStorageInt(cornerStoneBaseStorageAddress).setUserPendingBalance(user, pendingBalance);\n    emit Withdraw(user, amount, balanceOf(user));\n    return true;\n  }\n\n  //pay incomne\n  function payIncome(address stoneCoinAddress, uint256 micros) public onlyOwner returns(uint256 remaining){\n    remaining = 0;\n    require(micros > 0);\n    require(stoneCoinAddress != address(0));\n\n    uint256 totalAllocated = StoneCoinInt(stoneCoinAddress).STONES();\n    uint256 length = StoneCoinInt(stoneCoinAddress).getHoldersCount();\n    for (uint i=0; i<length; i++) {\n        address holder = StoneCoinInt(stoneCoinAddress).getHolderByIndex(i);\n        uint256 balance = StoneCoinInt(stoneCoinAddress).balanceOf(holder);\n        uint256 totalMicros  = micros.mul(balance);\n        uint256 userShare = totalMicros/totalAllocated;\n        transferFrom(owner, holder, userShare, stoneCoinAddress, \"PAY_INCOME\");\n        emit IncomePayment(holder, userShare, stoneCoinAddress,length);\n    }\n\n    return remaining;\n  }\n\n  function getTotalAllocated(address stoneCoinAddress) public view returns (uint256) {\n    uint256 totalAllocated = StoneCoinInt(stoneCoinAddress).STONES();\n    return totalAllocated;\n  }\n\n  function getUserHoldings(address stoneCoinAddress, address user) public view returns (uint256) {\n    uint256 userHoldings = StoneCoinInt(stoneCoinAddress).balanceOf(user);\n    return userHoldings;\n  }\n\n  //StoneCoin project sold\n  function closeStoneCoin(address stoneCoinAddress, uint256 micros) public onlyOwner {\n    payIncome(stoneCoinAddress, micros);\n  }\n\n    function checkSignature(address signDocument, address stoneCoinAddress) public returns (bool){\n        bool result = true;\n         if(StoneCoinInt(stoneCoinAddress).isSignDocument()){\n             result =  SignedDocumentInt(signDocument).isSign();\n             if(result){\n                 SignedDocumentInt(signDocument).approved();\n             }\n         }\n        return result;\n    }\n\n\n    function transferFromOwner( address stoneCoinAddress,\n                              address to,\n                              uint256 amount) public onlyOwner returns(bool) {\n    StoneCoinInt(stoneCoinAddress).buy(to, amount);\n    emit TransferFromOwner(stoneCoinAddress, to, amount);\n    return true;\n  }\n\n    function transferAll(address _buyer, address _seller, uint256 _value, address stoneCoinAddress, string operation) public onlyOwner {\n        subBalance(_buyer, _value, stoneCoinAddress,operation);\n        addOwnerBalance( _value);\n        addBalance(_seller, _value, stoneCoinAddress, operation);\n        subOwnerBalance(_value);\n    }\n\n    function transferBuyingFee(address _buyer, uint256 amount, uint256 price, address stoneCoinAddress) private onlyOwner {\n        uint256 userFee = FeeManagerInt(feeManagerAddress).getUserBuyingFee(_buyer, amount, price, StoneCoinInt(stoneCoinAddress).getOrganization());\n        if(userFee > 0){\n            subBalance(_buyer, userFee, stoneCoinAddress,\"BUYING_FEES\");\n            addOwnerBalance( userFee);\n            FeeManagerInt(feeManagerAddress).addToTotalFee(userFee, stoneCoinAddress);\n        }\n    }\n    function transferSellingFee(address _seller, uint256 amount, uint256 price, address stoneCoinAddress) private onlyOwner{\n        uint256 userFee = FeeManagerInt(feeManagerAddress).getUserSellingFee(_seller, amount, price, StoneCoinInt(stoneCoinAddress).getOrganization());\n        if(userFee > 0){\n            subBalance(_seller, userFee, stoneCoinAddress,\"SELLING_FEES\");\n            addOwnerBalance( userFee);\n            FeeManagerInt(feeManagerAddress).addToTotalFee(userFee, stoneCoinAddress);\n        }\n    }\n\n    function payBroker(address broker, uint256 payment, address organization, address stoneCoinAddress) public onlyOwner{\n        BrokerManagerInt(brokerManagerAddress).payBroker(broker, payment, organization, stoneCoinAddress);\n    }\n\n    function transferBrokerFee(address user, uint256 amount, uint256 price,address stoneCoinAddress) private onlyOwner{\n        address brokerUser = BrokerManagerInt(brokerManagerAddress).checkBroker(user, stoneCoinAddress);\n\n        uint256 brokerFeeRatio = BrokerManagerInt(brokerManagerAddress).getBrokerFee(user, stoneCoinAddress);\n        if(brokerFeeRatio > 0){\n            BrokerManagerInt(brokerManagerAddress).addBrokerHistory(stoneCoinAddress, brokerUser, user, amount, price, brokerFeeRatio);\n        }\n    }\n\n\n\n}\n",
    "sourcePath": "/Users/roilandshut/projects/brikoin/brikoin/contracts/CornerStoneBase.sol",
    "compiler": {
        "name": "solc",
        "version": "0.4.24+commit.e67f0147.Emscripten.clang"
    },
    "schemaVersion": "2.0.1",
    "updatedAt": "2019-10-27T14:12:10.888Z"
}