{
    "contractName": "Disposition",
    "abi": [
        {
            "constant": true,
            "inputs": [
                {
                    "name": "",
                    "type": "address"
                }
            ],
            "name": "owners",
            "outputs": [
                {
                    "name": "",
                    "type": "bool"
                }
            ],
            "payable": false,
            "stateMutability": "view",
            "type": "function"
        },
        {
            "constant": false,
            "inputs": [
                {
                    "name": "_newOwner",
                    "type": "address"
                }
            ],
            "name": "setOwner",
            "outputs": [],
            "payable": false,
            "stateMutability": "nonpayable",
            "type": "function"
        },
        {
            "constant": true,
            "inputs": [],
            "name": "getAddress",
            "outputs": [
                {
                    "name": "",
                    "type": "address"
                }
            ],
            "payable": false,
            "stateMutability": "view",
            "type": "function"
        },
        {
            "constant": false,
            "inputs": [
                {
                    "name": "_newOwner",
                    "type": "address"
                }
            ],
            "name": "removeOwnership",
            "outputs": [],
            "payable": false,
            "stateMutability": "nonpayable",
            "type": "function"
        },
        {
            "constant": true,
            "inputs": [
                {
                    "name": "",
                    "type": "address"
                }
            ],
            "name": "projects",
            "outputs": [
                {
                    "name": "",
                    "type": "bool"
                }
            ],
            "payable": false,
            "stateMutability": "view",
            "type": "function"
        },
        {
            "constant": true,
            "inputs": [],
            "name": "owner",
            "outputs": [
                {
                    "name": "",
                    "type": "address"
                }
            ],
            "payable": false,
            "stateMutability": "view",
            "type": "function"
        },
        {
            "constant": true,
            "inputs": [
                {
                    "name": "",
                    "type": "address"
                }
            ],
            "name": "users",
            "outputs": [
                {
                    "name": "",
                    "type": "bool"
                }
            ],
            "payable": false,
            "stateMutability": "view",
            "type": "function"
        },
        {
            "constant": true,
            "inputs": [
                {
                    "name": "user",
                    "type": "address"
                }
            ],
            "name": "isOwnable",
            "outputs": [
                {
                    "name": "",
                    "type": "bool"
                }
            ],
            "payable": false,
            "stateMutability": "view",
            "type": "function"
        },
        {
            "constant": false,
            "inputs": [
                {
                    "name": "_newOwner",
                    "type": "address"
                }
            ],
            "name": "addOwnership",
            "outputs": [],
            "payable": false,
            "stateMutability": "nonpayable",
            "type": "function"
        },
        {
            "inputs": [],
            "payable": false,
            "stateMutability": "nonpayable",
            "type": "constructor"
        },
        {
            "anonymous": false,
            "inputs": [
                {
                    "indexed": true,
                    "name": "previousOwner",
                    "type": "address"
                }
            ],
            "name": "OwnershipRenounced",
            "type": "event"
        },
        {
            "anonymous": false,
            "inputs": [
                {
                    "indexed": true,
                    "name": "previousOwner",
                    "type": "address"
                },
                {
                    "indexed": true,
                    "name": "newOwner",
                    "type": "address"
                }
            ],
            "name": "OwnershipTransferred",
            "type": "event"
        },
        {
            "constant": true,
            "inputs": [
                {
                    "name": "_user",
                    "type": "address"
                }
            ],
            "name": "checkUserDisposition",
            "outputs": [
                {
                    "name": "isIndeed",
                    "type": "bool"
                }
            ],
            "payable": false,
            "stateMutability": "view",
            "type": "function"
        },
        {
            "constant": true,
            "inputs": [
                {
                    "name": "_stoneCoin",
                    "type": "address"
                }
            ],
            "name": "checkProjectDisposition",
            "outputs": [
                {
                    "name": "isIndeed",
                    "type": "bool"
                }
            ],
            "payable": false,
            "stateMutability": "view",
            "type": "function"
        },
        {
            "constant": false,
            "inputs": [
                {
                    "name": "_user",
                    "type": "address"
                },
                {
                    "name": "state",
                    "type": "bool"
                }
            ],
            "name": "setUserDisposition",
            "outputs": [
                {
                    "name": "success",
                    "type": "bool"
                }
            ],
            "payable": false,
            "stateMutability": "nonpayable",
            "type": "function"
        },
        {
            "constant": false,
            "inputs": [
                {
                    "name": "_project",
                    "type": "address"
                },
                {
                    "name": "state",
                    "type": "bool"
                }
            ],
            "name": "setProjectDisposition",
            "outputs": [
                {
                    "name": "success",
                    "type": "bool"
                }
            ],
            "payable": false,
            "stateMutability": "nonpayable",
            "type": "function"
        }
    ],
    "bytecode": "0x608060405234801561001057600080fd5b50336000818152602081905260409020805460ff191660019081179091558054600160a060020a03191690911790556105728061004e6000396000f3006080604052600436106100c45763ffffffff7c0100000000000000000000000000000000000000000000000000000000600035041663022914a781146100c957806313af4035146100fe578063334f56751461012157806338cc48311461014757806353aca8651461017857806360e21e7c1461019e578063666a3427146101bf578063840e78fd146101e05780638da5cb5b14610201578063a87430ba14610216578063e88914de14610237578063f5a55ff614610258578063f9674c3d14610279575b600080fd5b3480156100d557600080fd5b506100ea600160a060020a036004351661029a565b604080519115158252519081900360200190f35b34801561010a57600080fd5b5061011f600160a060020a03600435166102af565b005b34801561012d57600080fd5b506100ea600160a060020a036004351660243515156102fc565b34801561015357600080fd5b5061015c610349565b60408051600160a060020a039092168252519081900360200190f35b34801561018457600080fd5b506100ea600160a060020a0360043516602435151561034d565b3480156101aa57600080fd5b506100ea600160a060020a036004351661039a565b3480156101cb57600080fd5b5061011f600160a060020a03600435166103cc565b3480156101ec57600080fd5b506100ea600160a060020a03600435166103f6565b34801561020d57600080fd5b5061015c61040b565b34801561022257600080fd5b506100ea600160a060020a036004351661041a565b34801561024357600080fd5b506100ea600160a060020a036004351661042f565b34801561026457600080fd5b5061011f600160a060020a036004351661044d565b34801561028557600080fd5b506100ea600160a060020a0360043516610474565b60006020819052908152604090205460ff1681565b3360009081526020819052604090205460ff1615156102cd57600080fd5b6001805473ffffffffffffffffffffffffffffffffffffffff1916600160a060020a0392909216919091179055565b3360009081526020819052604081205460ff16151561031a57600080fd5b50600160a060020a0382166000908152600260205260409020805482151560ff19909116179055600192915050565b3090565b3360009081526020819052604081205460ff16151561036b57600080fd5b50600160a060020a0382166000908152600360205260409020805482151560ff19909116179055600192915050565b600160a060020a03811660009081526002602052604081205460ff16156103c3575060006103c7565b5060015b919050565b3360009081526020819052604090205460ff1615156103ea57600080fd5b6103f38161049d565b50565b60036020526000908152604090205460ff1681565b600154600160a060020a031681565b60026020526000908152604090205460ff1681565b600160a060020a031660009081526020819052604090205460ff1690565b3360009081526020819052604090205460ff16151561046b57600080fd5b6103f3816104d3565b600160a060020a03811660009081526003602052604081205460ff16156103c3575060006103c7565b600160a060020a03811615156104b257600080fd5b600160a060020a03166000908152602081905260409020805460ff19169055565b600160a060020a03811615156104e857600080fd5b600154604051600160a060020a038084169216907f8be0079c531659141344cd1fd0a4f28419497f9722a3daafe3b4186f6b6457e090600090a3600160a060020a03166000908152602081905260409020805460ff191660011790555600a165627a7a72305820ee6fa9447a8fe6781834e59010ddda096db0284bcc1efbb3621ade03477ea7aa0029",
    "source": "pragma solidity ^0.4.24;\n\nimport 'openzeppelin-solidity/contracts/ownership/Ownable.sol';\nimport 'openzeppelin-solidity/contracts/math/SafeMath.sol';\nimport \"../interfaces/DispositionInt.sol\";\nimport \"../interfaces/Ownables.sol\";\n\ncontract Disposition is Ownables, DispositionInt\n{\n  using SafeMath for uint256;\n\n  mapping(address => bool) public users;\n  mapping(address => bool) public projects;\n\n  constructor (\n  ) Ownables() public {\n  }\n\n  function checkUserDisposition(address _user) public constant returns(bool isIndeed) {\n    if(users[_user]){\n      return false;\n    }\n    return true;\n  }\n\n  function checkProjectDisposition(address _stoneCoin) public constant returns(bool isIndeed) {\n    if(projects[_stoneCoin]){\n      return false;\n    }\n    return true;\n  }\n\n  function setUserDisposition(address _user, bool state) public onlyOwner returns(bool success) {\n    users[_user] = state;\n    return true;\n  }\n\n\n  function setProjectDisposition(address _project, bool state) public onlyOwner returns(bool success) {\n    projects[_project] = state;\n    return true;\n  }\n}\n",
    "sourcePath": "/Users/roilandshut/projects/brikoin/brikoin/contracts/structures/Disposition.sol",
    "compiler": {
        "name": "solc",
        "version": "0.4.24+commit.e67f0147.Emscripten.clang"
    },
    "schemaVersion": "2.0.1",
    "updatedAt": "2019-10-27T14:12:11.079Z"
}