{
    "contractName": "Estimation",
    "abi": [
        {
            "constant": true,
            "inputs": [],
            "name": "expectedYield",
            "outputs": [
                {
                    "name": "",
                    "type": "uint256"
                }
            ],
            "payable": false,
            "stateMutability": "view",
            "type": "function"
        },
        {
            "constant": true,
            "inputs": [],
            "name": "rental",
            "outputs": [
                {
                    "name": "",
                    "type": "bytes32"
                }
            ],
            "payable": false,
            "stateMutability": "view",
            "type": "function"
        },
        {
            "constant": true,
            "inputs": [],
            "name": "estimatorFirstName",
            "outputs": [
                {
                    "name": "",
                    "type": "bytes32"
                }
            ],
            "payable": false,
            "stateMutability": "view",
            "type": "function"
        },
        {
            "constant": true,
            "inputs": [],
            "name": "url",
            "outputs": [
                {
                    "name": "",
                    "type": "bytes32"
                }
            ],
            "payable": false,
            "stateMutability": "view",
            "type": "function"
        },
        {
            "constant": false,
            "inputs": [],
            "name": "renounceOwnership",
            "outputs": [],
            "payable": false,
            "stateMutability": "nonpayable",
            "type": "function"
        },
        {
            "constant": true,
            "inputs": [],
            "name": "phoneNumber",
            "outputs": [
                {
                    "name": "",
                    "type": "bytes32"
                }
            ],
            "payable": false,
            "stateMutability": "view",
            "type": "function"
        },
        {
            "constant": true,
            "inputs": [],
            "name": "email",
            "outputs": [
                {
                    "name": "",
                    "type": "bytes32"
                }
            ],
            "payable": false,
            "stateMutability": "view",
            "type": "function"
        },
        {
            "constant": true,
            "inputs": [],
            "name": "owner",
            "outputs": [
                {
                    "name": "",
                    "type": "address"
                }
            ],
            "payable": false,
            "stateMutability": "view",
            "type": "function"
        },
        {
            "constant": true,
            "inputs": [],
            "name": "estimatorSecondName",
            "outputs": [
                {
                    "name": "",
                    "type": "bytes32"
                }
            ],
            "payable": false,
            "stateMutability": "view",
            "type": "function"
        },
        {
            "constant": true,
            "inputs": [],
            "name": "price",
            "outputs": [
                {
                    "name": "",
                    "type": "uint256"
                }
            ],
            "payable": false,
            "stateMutability": "view",
            "type": "function"
        },
        {
            "constant": true,
            "inputs": [],
            "name": "timestamp",
            "outputs": [
                {
                    "name": "",
                    "type": "uint256"
                }
            ],
            "payable": false,
            "stateMutability": "view",
            "type": "function"
        },
        {
            "constant": true,
            "inputs": [],
            "name": "urlMD5",
            "outputs": [
                {
                    "name": "",
                    "type": "bytes32"
                }
            ],
            "payable": false,
            "stateMutability": "view",
            "type": "function"
        },
        {
            "constant": true,
            "inputs": [],
            "name": "currency",
            "outputs": [
                {
                    "name": "",
                    "type": "bytes32"
                }
            ],
            "payable": false,
            "stateMutability": "view",
            "type": "function"
        },
        {
            "constant": false,
            "inputs": [
                {
                    "name": "_newOwner",
                    "type": "address"
                }
            ],
            "name": "transferOwnership",
            "outputs": [],
            "payable": false,
            "stateMutability": "nonpayable",
            "type": "function"
        },
        {
            "constant": true,
            "inputs": [],
            "name": "estimatorName",
            "outputs": [
                {
                    "name": "",
                    "type": "bytes32"
                }
            ],
            "payable": false,
            "stateMutability": "view",
            "type": "function"
        },
        {
            "inputs": [
                {
                    "name": "_price",
                    "type": "uint256"
                },
                {
                    "name": "_currency",
                    "type": "bytes32"
                },
                {
                    "name": "_timestamp",
                    "type": "uint256"
                },
                {
                    "name": "_rental",
                    "type": "bytes32"
                },
                {
                    "name": "_expectedYield",
                    "type": "uint256"
                },
                {
                    "name": "_estimatorName",
                    "type": "bytes32"
                },
                {
                    "name": "_estimatorFirstName",
                    "type": "bytes32"
                },
                {
                    "name": "_estimatorSecondName",
                    "type": "bytes32"
                },
                {
                    "name": "_phoneNumber",
                    "type": "bytes32"
                },
                {
                    "name": "_email",
                    "type": "bytes32"
                },
                {
                    "name": "_url",
                    "type": "bytes32"
                },
                {
                    "name": "_urlMD5",
                    "type": "bytes32"
                }
            ],
            "payable": false,
            "stateMutability": "nonpayable",
            "type": "constructor"
        },
        {
            "anonymous": false,
            "inputs": [
                {
                    "indexed": true,
                    "name": "previousOwner",
                    "type": "address"
                }
            ],
            "name": "OwnershipRenounced",
            "type": "event"
        },
        {
            "anonymous": false,
            "inputs": [
                {
                    "indexed": true,
                    "name": "previousOwner",
                    "type": "address"
                },
                {
                    "indexed": true,
                    "name": "newOwner",
                    "type": "address"
                }
            ],
            "name": "OwnershipTransferred",
            "type": "event"
        }
    ],
    "bytecode": "0x608060405234801561001057600080fd5b506040516101808061054a83398101604090815281516020830151918301516060840151608085015160a086015160c087015160e08801516101008901516101208a01516101408b0151610160909b015160008054600160a060020a03191633178155999b98999798969795969495939492939192918c1161009157600080fd5b60008a1161009e57600080fd5b600088116100ab57600080fd5b60019b909b55600299909955600397909755600495909555600593909355600691909155600755600855600955600a55600b55600c5561045a806100f06000396000f3006080604052600436106100da5763ffffffff7c0100000000000000000000000000000000000000000000000000000000600035041663027b980b81146100df578063181d13fc146101065780633f10573d1461011b5780635600f04f14610130578063715018a614610145578063747f33801461015c578063820e93f5146101715780638da5cb5b1461018657806395ed26e7146101c4578063a035b1fe146101d9578063b80777ea146101ee578063da4de74314610203578063e5a6b10f14610218578063f2fde38b1461022d578063f44da35a1461025b575b600080fd5b3480156100eb57600080fd5b506100f4610270565b60408051918252519081900360200190f35b34801561011257600080fd5b506100f4610276565b34801561012757600080fd5b506100f461027c565b34801561013c57600080fd5b506100f4610282565b34801561015157600080fd5b5061015a610288565b005b34801561016857600080fd5b506100f461030e565b34801561017d57600080fd5b506100f4610314565b34801561019257600080fd5b5061019b61031a565b6040805173ffffffffffffffffffffffffffffffffffffffff9092168252519081900360200190f35b3480156101d057600080fd5b506100f4610336565b3480156101e557600080fd5b506100f461033c565b3480156101fa57600080fd5b506100f4610342565b34801561020f57600080fd5b506100f4610348565b34801561022457600080fd5b506100f461034e565b34801561023957600080fd5b5061015a73ffffffffffffffffffffffffffffffffffffffff60043516610354565b34801561026757600080fd5b506100f4610384565b60055481565b60045481565b60075481565b600b5481565b60005473ffffffffffffffffffffffffffffffffffffffff1633146102ac57600080fd5b6000805460405173ffffffffffffffffffffffffffffffffffffffff909116917ff8df31144d9c2f0f6b59d69b8b98abd5459d07f2742c4df920b25aae33c6482091a26000805473ffffffffffffffffffffffffffffffffffffffff19169055565b60095481565b600a5481565b60005473ffffffffffffffffffffffffffffffffffffffff1681565b60085481565b60015481565b60035481565b600c5481565b60025481565b60005473ffffffffffffffffffffffffffffffffffffffff16331461037857600080fd5b6103818161038a565b50565b60065481565b73ffffffffffffffffffffffffffffffffffffffff811615156103ac57600080fd5b6000805460405173ffffffffffffffffffffffffffffffffffffffff808516939216917f8be0079c531659141344cd1fd0a4f28419497f9722a3daafe3b4186f6b6457e091a36000805473ffffffffffffffffffffffffffffffffffffffff191673ffffffffffffffffffffffffffffffffffffffff929092169190911790555600a165627a7a723058202b6a5ca73be0d51aa339c4f70ef1554022e88ad830c97bf5281dbd1bce22859c0029",
    "source": "pragma solidity ^0.4.24;\n\nimport 'openzeppelin-solidity/contracts/ownership/Ownable.sol';\nimport 'openzeppelin-solidity/contracts/math/SafeMath.sol';\n\ncontract Estimation is Ownable{\n    using SafeMath for uint256;\n\n    uint256  public price;\n    bytes32  public currency;\n    uint256  public timestamp;\n    bytes32  public rental;\n    uint256  public expectedYield; //in tenth of percent units\n    bytes32  public estimatorName;\n    bytes32  public estimatorFirstName;\n    bytes32  public estimatorSecondName;\n    bytes32  public phoneNumber;\n    bytes32  public email;\n    bytes32  public url; //pdf\n    bytes32  public urlMD5;\n\n    constructor (\n        uint256  _price,\n        bytes32  _currency,\n        uint256  _timestamp,\n        bytes32  _rental,\n        uint256  _expectedYield,\n        bytes32  _estimatorName,\n        bytes32  _estimatorFirstName,\n        bytes32  _estimatorSecondName,\n        bytes32  _phoneNumber,\n        bytes32  _email,\n        bytes32  _url,\n        bytes32  _urlMD5\n    ) Ownable() public {\n\n        require(_price > 0);\n        require(_currency.length != 0);\n        require(_timestamp > 0);\n        require(_rental.length != 0);\n        require(_expectedYield > 0);\n        require(_estimatorName.length != 0);\n        require(_estimatorFirstName.length != 0);\n        require(_estimatorSecondName.length != 0);\n        require(_phoneNumber.length != 0);\n        require(_email.length != 0);\n        require(_url.length != 0);\n        require(_urlMD5.length != 0);\n\n        price = _price;\n        currency = _currency;\n        timestamp = _timestamp;\n        rental = _rental;\n        expectedYield = _expectedYield;\n        estimatorName = _estimatorName;\n        estimatorFirstName = _estimatorFirstName;\n        estimatorSecondName = _estimatorSecondName;\n        phoneNumber = _phoneNumber;\n        email = _email;\n        url = _url;\n        urlMD5 = _urlMD5;\n    }\n}\n",
    "sourcePath": "/Users/roilandshut/projects/brikoin/brikoin/contracts/structures/Estimation.sol",
    "compiler": {
        "name": "solc",
        "version": "0.4.24+commit.e67f0147.Emscripten.clang"
    },
    "schemaVersion": "2.0.1",
    "updatedAt": "2019-10-27T14:12:11.090Z"
}