{
    "contractName": "MortgageStone",
    "abi": [
        {
            "constant": true,
            "inputs": [
                {
                    "name": "",
                    "type": "address"
                }
            ],
            "name": "owners",
            "outputs": [
                {
                    "name": "",
                    "type": "bool"
                }
            ],
            "payable": false,
            "stateMutability": "view",
            "type": "function"
        },
        {
            "constant": false,
            "inputs": [
                {
                    "name": "_newOwner",
                    "type": "address"
                }
            ],
            "name": "setOwner",
            "outputs": [],
            "payable": false,
            "stateMutability": "nonpayable",
            "type": "function"
        },
        {
            "constant": true,
            "inputs": [],
            "name": "getAddress",
            "outputs": [
                {
                    "name": "",
                    "type": "address"
                }
            ],
            "payable": false,
            "stateMutability": "view",
            "type": "function"
        },
        {
            "constant": true,
            "inputs": [],
            "name": "cornerStoneBaseAddress",
            "outputs": [
                {
                    "name": "",
                    "type": "address"
                }
            ],
            "payable": false,
            "stateMutability": "view",
            "type": "function"
        },
        {
            "constant": false,
            "inputs": [
                {
                    "name": "_newOwner",
                    "type": "address"
                }
            ],
            "name": "removeOwnership",
            "outputs": [],
            "payable": false,
            "stateMutability": "nonpayable",
            "type": "function"
        },
        {
            "constant": true,
            "inputs": [],
            "name": "owner",
            "outputs": [
                {
                    "name": "",
                    "type": "address"
                }
            ],
            "payable": false,
            "stateMutability": "view",
            "type": "function"
        },
        {
            "constant": true,
            "inputs": [
                {
                    "name": "user",
                    "type": "address"
                }
            ],
            "name": "isOwnable",
            "outputs": [
                {
                    "name": "",
                    "type": "bool"
                }
            ],
            "payable": false,
            "stateMutability": "view",
            "type": "function"
        },
        {
            "constant": false,
            "inputs": [
                {
                    "name": "_newOwner",
                    "type": "address"
                }
            ],
            "name": "addOwnership",
            "outputs": [],
            "payable": false,
            "stateMutability": "nonpayable",
            "type": "function"
        },
        {
            "inputs": [],
            "payable": false,
            "stateMutability": "nonpayable",
            "type": "constructor"
        },
        {
            "anonymous": false,
            "inputs": [
                {
                    "indexed": false,
                    "name": "user",
                    "type": "address"
                },
                {
                    "indexed": false,
                    "name": "stoneCoinAddress",
                    "type": "address"
                },
                {
                    "indexed": false,
                    "name": "amount",
                    "type": "uint256"
                },
                {
                    "indexed": false,
                    "name": "limit_micros",
                    "type": "uint256"
                },
                {
                    "indexed": false,
                    "name": "available",
                    "type": "uint256"
                }
            ],
            "name": "BidMortgageCreated",
            "type": "event"
        },
        {
            "anonymous": false,
            "inputs": [
                {
                    "indexed": false,
                    "name": "user",
                    "type": "address"
                },
                {
                    "indexed": false,
                    "name": "stoneCoinAddress",
                    "type": "address"
                },
                {
                    "indexed": false,
                    "name": "amount",
                    "type": "uint256"
                },
                {
                    "indexed": false,
                    "name": "limit_micros",
                    "type": "uint256"
                }
            ],
            "name": "AskMortgageCreated",
            "type": "event"
        },
        {
            "anonymous": false,
            "inputs": [
                {
                    "indexed": false,
                    "name": "stoneCoinAddress",
                    "type": "address"
                },
                {
                    "indexed": false,
                    "name": "buyer",
                    "type": "address"
                },
                {
                    "indexed": false,
                    "name": "seller",
                    "type": "address"
                },
                {
                    "indexed": false,
                    "name": "amount",
                    "type": "uint256"
                },
                {
                    "indexed": false,
                    "name": "price",
                    "type": "uint256"
                }
            ],
            "name": "TradeMortgaged",
            "type": "event"
        },
        {
            "anonymous": false,
            "inputs": [],
            "name": "BuyerMortgageeInsufficientBalance",
            "type": "event"
        },
        {
            "anonymous": false,
            "inputs": [
                {
                    "indexed": false,
                    "name": "newMortgagee",
                    "type": "address"
                },
                {
                    "indexed": false,
                    "name": "microUSDs",
                    "type": "uint256"
                },
                {
                    "indexed": false,
                    "name": "maxMortgage",
                    "type": "uint256"
                }
            ],
            "name": "MortgageeAdded",
            "type": "event"
        },
        {
            "anonymous": false,
            "inputs": [
                {
                    "indexed": false,
                    "name": "newMortgagee",
                    "type": "address"
                },
                {
                    "indexed": false,
                    "name": "microUSDs",
                    "type": "uint256"
                },
                {
                    "indexed": false,
                    "name": "maxMortgage",
                    "type": "uint256"
                }
            ],
            "name": "MortgageeAddFunds",
            "type": "event"
        },
        {
            "anonymous": false,
            "inputs": [
                {
                    "indexed": false,
                    "name": "key",
                    "type": "uint64"
                }
            ],
            "name": "TradeMortgageCreated",
            "type": "event"
        },
        {
            "anonymous": false,
            "inputs": [
                {
                    "indexed": false,
                    "name": "buyer",
                    "type": "address"
                },
                {
                    "indexed": false,
                    "name": "value",
                    "type": "uint256"
                },
                {
                    "indexed": false,
                    "name": "budget",
                    "type": "uint256"
                }
            ],
            "name": "debug",
            "type": "event"
        },
        {
            "anonymous": false,
            "inputs": [
                {
                    "indexed": false,
                    "name": "mortgageAddress",
                    "type": "address"
                },
                {
                    "indexed": false,
                    "name": "buyer",
                    "type": "address"
                },
                {
                    "indexed": false,
                    "name": "mortgagee",
                    "type": "address"
                },
                {
                    "indexed": false,
                    "name": "balance",
                    "type": "uint256"
                },
                {
                    "indexed": false,
                    "name": "value",
                    "type": "uint256"
                },
                {
                    "indexed": false,
                    "name": "timestamp",
                    "type": "uint256"
                }
            ],
            "name": "MortgageDefaulted",
            "type": "event"
        },
        {
            "anonymous": false,
            "inputs": [
                {
                    "indexed": false,
                    "name": "mortgageAddress",
                    "type": "address"
                },
                {
                    "indexed": false,
                    "name": "buyer",
                    "type": "address"
                },
                {
                    "indexed": false,
                    "name": "mortgagee",
                    "type": "address"
                },
                {
                    "indexed": false,
                    "name": "balance",
                    "type": "uint256"
                },
                {
                    "indexed": false,
                    "name": "value",
                    "type": "uint256"
                },
                {
                    "indexed": false,
                    "name": "timestamp",
                    "type": "uint256"
                }
            ],
            "name": "MortgagePayment",
            "type": "event"
        },
        {
            "anonymous": false,
            "inputs": [
                {
                    "indexed": true,
                    "name": "previousOwner",
                    "type": "address"
                }
            ],
            "name": "OwnershipRenounced",
            "type": "event"
        },
        {
            "anonymous": false,
            "inputs": [
                {
                    "indexed": true,
                    "name": "previousOwner",
                    "type": "address"
                },
                {
                    "indexed": true,
                    "name": "newOwner",
                    "type": "address"
                }
            ],
            "name": "OwnershipTransferred",
            "type": "event"
        },
        {
            "constant": false,
            "inputs": [
                {
                    "name": "_cornerStoneBaseAddress",
                    "type": "address"
                }
            ],
            "name": "setStoneBaseAddress",
            "outputs": [],
            "payable": false,
            "stateMutability": "nonpayable",
            "type": "function"
        },
        {
            "constant": false,
            "inputs": [
                {
                    "name": "_storageAddress",
                    "type": "address"
                }
            ],
            "name": "setStorageAddress",
            "outputs": [],
            "payable": false,
            "stateMutability": "nonpayable",
            "type": "function"
        },
        {
            "constant": false,
            "inputs": [
                {
                    "name": "_mortgageOperationsAddress",
                    "type": "address"
                }
            ],
            "name": "setMortgageOperationAddress",
            "outputs": [],
            "payable": false,
            "stateMutability": "nonpayable",
            "type": "function"
        },
        {
            "constant": false,
            "inputs": [
                {
                    "name": "_user",
                    "type": "address"
                },
                {
                    "name": "microUSDs",
                    "type": "uint256"
                }
            ],
            "name": "addMortgageBalance",
            "outputs": [],
            "payable": false,
            "stateMutability": "nonpayable",
            "type": "function"
        },
        {
            "constant": true,
            "inputs": [
                {
                    "name": "stoneCoinAddress",
                    "type": "address"
                },
                {
                    "name": "user",
                    "type": "address"
                }
            ],
            "name": "bidAmount",
            "outputs": [
                {
                    "name": "",
                    "type": "uint256"
                }
            ],
            "payable": false,
            "stateMutability": "view",
            "type": "function"
        },
        {
            "constant": true,
            "inputs": [
                {
                    "name": "stoneCoinAddress",
                    "type": "address"
                },
                {
                    "name": "user",
                    "type": "address"
                }
            ],
            "name": "bidValueHold",
            "outputs": [
                {
                    "name": "",
                    "type": "uint256"
                }
            ],
            "payable": false,
            "stateMutability": "view",
            "type": "function"
        },
        {
            "constant": true,
            "inputs": [
                {
                    "name": "stoneCoinAddress",
                    "type": "address"
                },
                {
                    "name": "user",
                    "type": "address"
                }
            ],
            "name": "isBidMortgaged",
            "outputs": [
                {
                    "name": "",
                    "type": "bool"
                }
            ],
            "payable": false,
            "stateMutability": "view",
            "type": "function"
        },
        {
            "constant": false,
            "inputs": [
                {
                    "name": "stoneCoinAddress",
                    "type": "address"
                },
                {
                    "name": "user",
                    "type": "address"
                },
                {
                    "name": "amount",
                    "type": "uint256"
                }
            ],
            "name": "setBidAmount",
            "outputs": [
                {
                    "name": "",
                    "type": "uint256"
                }
            ],
            "payable": false,
            "stateMutability": "nonpayable",
            "type": "function"
        },
        {
            "constant": false,
            "inputs": [
                {
                    "name": "stoneCoinAddress",
                    "type": "address"
                },
                {
                    "name": "user",
                    "type": "address"
                },
                {
                    "name": "limit",
                    "type": "uint256"
                }
            ],
            "name": "setBidLimit",
            "outputs": [
                {
                    "name": "",
                    "type": "uint256"
                }
            ],
            "payable": false,
            "stateMutability": "nonpayable",
            "type": "function"
        },
        {
            "constant": false,
            "inputs": [
                {
                    "name": "stoneCoinAddress",
                    "type": "address"
                },
                {
                    "name": "user",
                    "type": "address"
                },
                {
                    "name": "amount",
                    "type": "uint256"
                }
            ],
            "name": "setAskAmount",
            "outputs": [
                {
                    "name": "",
                    "type": "uint256"
                }
            ],
            "payable": false,
            "stateMutability": "nonpayable",
            "type": "function"
        },
        {
            "constant": false,
            "inputs": [
                {
                    "name": "stoneCoinAddress",
                    "type": "address"
                },
                {
                    "name": "user",
                    "type": "address"
                },
                {
                    "name": "limit",
                    "type": "uint256"
                }
            ],
            "name": "setAskLimit",
            "outputs": [
                {
                    "name": "",
                    "type": "uint256"
                }
            ],
            "payable": false,
            "stateMutability": "nonpayable",
            "type": "function"
        },
        {
            "constant": false,
            "inputs": [
                {
                    "name": "stoneCoinAddress",
                    "type": "address"
                },
                {
                    "name": "user",
                    "type": "address"
                },
                {
                    "name": "valueHold",
                    "type": "uint256"
                }
            ],
            "name": "setBidValueHold",
            "outputs": [
                {
                    "name": "",
                    "type": "uint256"
                }
            ],
            "payable": false,
            "stateMutability": "nonpayable",
            "type": "function"
        },
        {
            "constant": true,
            "inputs": [
                {
                    "name": "stoneCoinAddress",
                    "type": "address"
                },
                {
                    "name": "user",
                    "type": "address"
                }
            ],
            "name": "askAmount",
            "outputs": [
                {
                    "name": "",
                    "type": "uint256"
                }
            ],
            "payable": false,
            "stateMutability": "view",
            "type": "function"
        },
        {
            "constant": false,
            "inputs": [
                {
                    "name": "_user",
                    "type": "address"
                },
                {
                    "name": "microUSDs",
                    "type": "uint256"
                }
            ],
            "name": "withdrawMortgageBalance",
            "outputs": [],
            "payable": false,
            "stateMutability": "nonpayable",
            "type": "function"
        },
        {
            "constant": true,
            "inputs": [
                {
                    "name": "_user",
                    "type": "address"
                }
            ],
            "name": "mortgageeBalanceOf",
            "outputs": [
                {
                    "name": "",
                    "type": "uint256"
                }
            ],
            "payable": false,
            "stateMutability": "view",
            "type": "function"
        },
        {
            "constant": false,
            "inputs": [
                {
                    "name": "user",
                    "type": "address"
                },
                {
                    "name": "microUSDs",
                    "type": "uint256"
                },
                {
                    "name": "maxMortgage",
                    "type": "uint256"
                },
                {
                    "name": "newMortgagee",
                    "type": "address"
                }
            ],
            "name": "addMortgegee",
            "outputs": [
                {
                    "name": "",
                    "type": "address"
                }
            ],
            "payable": false,
            "stateMutability": "nonpayable",
            "type": "function"
        },
        {
            "constant": false,
            "inputs": [
                {
                    "name": "user",
                    "type": "address"
                },
                {
                    "name": "mortgageAddress",
                    "type": "address"
                },
                {
                    "name": "marketPriceMills",
                    "type": "uint256"
                },
                {
                    "name": "paymentInMills",
                    "type": "uint256"
                }
            ],
            "name": "mortgagePayment",
            "outputs": [
                {
                    "name": "",
                    "type": "uint256"
                }
            ],
            "payable": false,
            "stateMutability": "nonpayable",
            "type": "function"
        },
        {
            "constant": false,
            "inputs": [
                {
                    "name": "user",
                    "type": "address"
                },
                {
                    "name": "mortgageAddress",
                    "type": "address"
                }
            ],
            "name": "clearAllMortgage",
            "outputs": [
                {
                    "name": "",
                    "type": "uint256"
                }
            ],
            "payable": false,
            "stateMutability": "nonpayable",
            "type": "function"
        },
        {
            "constant": false,
            "inputs": [
                {
                    "name": "_user",
                    "type": "address"
                },
                {
                    "name": "mortgageRequestAddress",
                    "type": "address"
                },
                {
                    "name": "stoneCoinAddress",
                    "type": "address"
                },
                {
                    "name": "downPaymentMicros",
                    "type": "uint64"
                },
                {
                    "name": "amount",
                    "type": "uint256"
                },
                {
                    "name": "limit_micros",
                    "type": "uint256"
                },
                {
                    "name": "signDocument",
                    "type": "address"
                }
            ],
            "name": "bidMortgaged",
            "outputs": [
                {
                    "name": "successeded",
                    "type": "bool"
                },
                {
                    "name": "available",
                    "type": "uint256"
                }
            ],
            "payable": false,
            "stateMutability": "nonpayable",
            "type": "function"
        },
        {
            "constant": false,
            "inputs": [
                {
                    "name": "user",
                    "type": "address"
                },
                {
                    "name": "mortgageAddress",
                    "type": "address"
                },
                {
                    "name": "stoneCoinAddress",
                    "type": "address"
                },
                {
                    "name": "amount",
                    "type": "uint256"
                },
                {
                    "name": "limit_micros",
                    "type": "uint256"
                },
                {
                    "name": "signDocument",
                    "type": "address"
                }
            ],
            "name": "askMortgaged",
            "outputs": [
                {
                    "name": "",
                    "type": "bool"
                }
            ],
            "payable": false,
            "stateMutability": "nonpayable",
            "type": "function"
        },
        {
            "constant": false,
            "inputs": [
                {
                    "name": "key",
                    "type": "uint64"
                },
                {
                    "name": "_stoneCoinAddress",
                    "type": "address"
                },
                {
                    "name": "_buyer",
                    "type": "address"
                },
                {
                    "name": "_seller",
                    "type": "address"
                },
                {
                    "name": "_buyerMortgage",
                    "type": "address"
                },
                {
                    "name": "_sellerMortgage",
                    "type": "address"
                },
                {
                    "name": "_amount",
                    "type": "uint256"
                },
                {
                    "name": "_price",
                    "type": "uint256"
                }
            ],
            "name": "createTradeMortgage",
            "outputs": [],
            "payable": false,
            "stateMutability": "nonpayable",
            "type": "function"
        },
        {
            "constant": false,
            "inputs": [
                {
                    "name": "mortgageAddress",
                    "type": "address"
                }
            ],
            "name": "applyMortgageClearance",
            "outputs": [],
            "payable": false,
            "stateMutability": "nonpayable",
            "type": "function"
        },
        {
            "constant": false,
            "inputs": [
                {
                    "name": "key",
                    "type": "uint64"
                }
            ],
            "name": "tradeMortgaged",
            "outputs": [],
            "payable": false,
            "stateMutability": "nonpayable",
            "type": "function"
        },
        {
            "constant": false,
            "inputs": [
                {
                    "name": "_buyer",
                    "type": "address"
                },
                {
                    "name": "_value",
                    "type": "uint256"
                },
                {
                    "name": "mortgageAddress",
                    "type": "address"
                },
                {
                    "name": "stoneCoinAddress",
                    "type": "address"
                }
            ],
            "name": "transferMortgageBalance",
            "outputs": [],
            "payable": false,
            "stateMutability": "nonpayable",
            "type": "function"
        },
        {
            "constant": false,
            "inputs": [
                {
                    "name": "stoneCoinAddress",
                    "type": "address"
                },
                {
                    "name": "user",
                    "type": "address"
                },
                {
                    "name": "mortgageAddress",
                    "type": "address"
                }
            ],
            "name": "clearMortgage",
            "outputs": [],
            "payable": false,
            "stateMutability": "nonpayable",
            "type": "function"
        },
        {
            "constant": false,
            "inputs": [
                {
                    "name": "stoneCoinAddress",
                    "type": "address"
                },
                {
                    "name": "user",
                    "type": "address"
                },
                {
                    "name": "mortgagee",
                    "type": "address"
                },
                {
                    "name": "mortgageAddress",
                    "type": "address"
                },
                {
                    "name": "marketPriceMills",
                    "type": "uint256"
                },
                {
                    "name": "maxDefaulted",
                    "type": "bool"
                }
            ],
            "name": "partlyForfeitureMortgage",
            "outputs": [],
            "payable": false,
            "stateMutability": "nonpayable",
            "type": "function"
        }
    ],
    "bytecode": "0x608060405234801561001057600080fd5b50336000818152602081905260409020805460ff191660019081179091558054600160a060020a0319169091179055615fcd806200004f6000396000f3006080604052600436106101925763ffffffff60e060020a600035041663015755bf8114610197578063022914a7146101ca578063058586bc146101ff57806310b625391461023857806313af40351461025a57806323709ff21461027b57806323e5127c146102c75780632df840f4146102eb57806338cc4831146103125780634077586f1461034357806341be76d51461037e578063574bf0ee146103a857806359b910d6146103bd578063666a3427146103de5780637642678b146103ff5780637e9a6f0e1461042657806382fef30e1461044d57806385f4b1131461046e5780638da5cb5b1461049b57806398fb4083146104b05780639e561cec146104da578063a577ccb614610504578063a7750b9d14610531578063af5af68f14610558578063b027ae8d1461057c578063b3721886146105a6578063b3f47daf146105e1578063ba48617a14610602578063bd283e2914610623578063bd42b4db14610687578063dd173611146106a8578063e88914de146106d2578063f5a55ff6146106f3578063f890171614610714575b600080fd5b3480156101a357600080fd5b506101c8600160a060020a036004358116906024359060443581169060643516610743565b005b3480156101d657600080fd5b506101eb600160a060020a0360043516610d48565b604080519115158252519081900360200190f35b34801561020b57600080fd5b50610226600160a060020a0360043581169060243516610d5d565b60408051918252519081900360200190f35b34801561024457600080fd5b506101c867ffffffffffffffff60043516610df5565b34801561026657600080fd5b506101c8600160a060020a0360043516611564565b34801561028757600080fd5b506101c867ffffffffffffffff60043516600160a060020a0360243581169060443581169060643581169060843581169060a4351660c43560e4356115b1565b3480156102d357600080fd5b506101c8600160a060020a0360043516602435611b71565b3480156102f757600080fd5b50610226600160a060020a0360043581169060243516611ca8565b34801561031e57600080fd5b50610327611d1d565b60408051600160a060020a039092168252519081900360200190f35b34801561034f57600080fd5b506101c8600160a060020a036004358116906024358116906044358116906064351660843560a4351515611d21565b34801561038a57600080fd5b50610226600160a060020a0360043581169060243516604435611e72565b3480156103b457600080fd5b50610327611f29565b3480156103c957600080fd5b506101c8600160a060020a0360043516611f38565b3480156103ea57600080fd5b506101c8600160a060020a0360043516611f85565b34801561040b57600080fd5b50610226600160a060020a0360043581169060243516611faf565b34801561043257600080fd5b50610226600160a060020a0360043581169060243516612024565b34801561045957600080fd5b506101c8600160a060020a03600435166123b2565b34801561047a57600080fd5b50610226600160a060020a0360043581169060243516604435606435612452565b3480156104a757600080fd5b50610327612ff7565b3480156104bc57600080fd5b50610226600160a060020a0360043581169060243516604435613006565b3480156104e657600080fd5b50610226600160a060020a036004358116906024351660443561312e565b34801561051057600080fd5b506101c8600160a060020a03600435811690602435811690604435166131c6565b34801561053d57600080fd5b506101eb600160a060020a03600435811690602435166132f7565b34801561056457600080fd5b506101c8600160a060020a036004351660243561336c565b34801561058857600080fd5b50610226600160a060020a03600435811690602435166044356137f2565b3480156105b257600080fd5b506101eb600160a060020a03600435811690602435811690604435811690606435906084359060a4351661388a565b3480156105ed57600080fd5b506101c8600160a060020a0360043516613b7c565b34801561060e57600080fd5b506101c8600160a060020a0360043516613bc9565b34801561062f57600080fd5b5061066c600160a060020a0360043581169060243581169060443581169067ffffffffffffffff60643516906084359060a4359060c43516613c16565b60408051921515835260208301919091528051918290030190f35b34801561069357600080fd5b50610226600160a060020a0360043516613ec9565b3480156106b457600080fd5b50610226600160a060020a0360043581169060243516604435613f68565b3480156106de57600080fd5b506101eb600160a060020a0360043516614090565b3480156106ff57600080fd5b506101c8600160a060020a03600435166140ae565b34801561072057600080fd5b50610327600160a060020a036004358116906024359060443590606435166140d5565b33600090815260208190526040812054819060ff16151561076357600080fd5b600254604080517faaf428d6000000000000000000000000000000000000000000000000000000008152600160a060020a03898116600483015260248201899052868116604483015260806064830152601060848301527f4d4f5254474147455f42414c414e43450000000000000000000000000000000060a48301529151879550919092169163aaf428d69160c48083019260209291908290030181600087803b15801561081157600080fd5b505af1158015610825573d6000803e3d6000fd5b505050506040513d602081101561083b57600080fd5b5050600254604080517fa67ca612000000000000000000000000000000000000000000000000000000008152600481018890529051600160a060020a039092169163a67ca612916024808201926020929091908290030181600087803b1580156108a457600080fd5b505af11580156108b8573d6000803e3d6000fd5b505050506040513d60208110156108ce57600080fd5b505060025460408051600080516020615f8283398151915281529051600160a060020a039283169263def1b9339290861691632f29a062916004808201926020929091908290030181600087803b15801561092857600080fd5b505af115801561093c573d6000803e3d6000fd5b505050506040513d602081101561095257600080fd5b50516040805160e060020a63ffffffff8516028152600160a060020a039283166004820152602481018a9052918716604483015260806064830152601060848301527f4d4f5254474147455f42414c414e43450000000000000000000000000000000060a48301525160c48083019260209291908290030181600087803b1580156109dc57600080fd5b505af11580156109f0573d6000803e3d6000fd5b505050506040513d6020811015610a0657600080fd5b505060025460408051600080516020615f628339815191528152600481018890529051600160a060020a0390921691637648b9d8916024808201926020929091908290030181600087803b158015610a5d57600080fd5b505af1158015610a71573d6000803e3d6000fd5b505050506040513d6020811015610a8757600080fd5b5050600354604080517f8015da19000000000000000000000000000000000000000000000000000000008152600160a060020a03878116600483015291519190921691638015da1991602480830192600092919082900301818387803b158015610af057600080fd5b505af1158015610b04573d6000803e3d6000fd5b5050505081600160a060020a0316634a7d7e456040518163ffffffff1660e060020a028152600401602060405180830381600087803b158015610b4657600080fd5b505af1158015610b5a573d6000803e3d6000fd5b505050506040513d6020811015610b7057600080fd5b505190506000811115610d405760025460408051600080516020615f628339815191528152600481018490529051600160a060020a0390921691637648b9d8916024808201926020929091908290030181600087803b158015610bd257600080fd5b505af1158015610be6573d6000803e3d6000fd5b505050506040513d6020811015610bfc57600080fd5b505060025460408051600080516020615f8283398151915281529051600160a060020a039283169263def1b9339290861691632f29a062916004808201926020929091908290030181600087803b158015610c5657600080fd5b505af1158015610c6a573d6000803e3d6000fd5b505050506040513d6020811015610c8057600080fd5b50516040805160e060020a63ffffffff8516028152600160a060020a03928316600482015260248101869052918716604483015260806064830152601060848301527f4d4f5254474147455f42414c414e43450000000000000000000000000000000060a48301525160c48083019260209291908290030181600087803b158015610d0a57600080fd5b505af1158015610d1e573d6000803e3d6000fd5b505050506040513d6020811015610d3457600080fd5b50610d409050846123b2565b505050505050565b60006020819052908152604090205460ff1681565b6004805460408051600080516020615f428339815191528152600160a060020a038581169482019490945285841660248201529051600093909216916304ac71f99160448082019260209290919082900301818787803b158015610dc057600080fd5b505af1158015610dd4573d6000803e3d6000fd5b505050506040513d6020811015610dea57600080fd5b505190505b92915050565b336000908152602081905260408120548190819081908190819081908190819060ff161515610e2357600080fd5b60048054604080517f63fd16e400000000000000000000000000000000000000000000000000000000815267ffffffffffffffff8e169381019390935251600160a060020a03909116916363fd16e49160248083019260209291908290030181600087803b158015610e9457600080fd5b505af1158015610ea8573d6000803e3d6000fd5b505050506040513d6020811015610ebe57600080fd5b50511515610ecb57600080fd5b60048054604080517f411bd4b800000000000000000000000000000000000000000000000000000000815267ffffffffffffffff8e169381019390935251600160a060020a039091169163411bd4b89160248083019260209291908290030181600087803b158015610f3c57600080fd5b505af1158015610f50573d6000803e3d6000fd5b505050506040513d6020811015610f6657600080fd5b505160048054604080517f621e4ab700000000000000000000000000000000000000000000000000000000815267ffffffffffffffff8f169381019390935251929b50600160a060020a03169163621e4ab7916024808201926020929091908290030181600087803b158015610fdb57600080fd5b505af1158015610fef573d6000803e3d6000fd5b505050506040513d602081101561100557600080fd5b505160048054604080517f9e2c041e00000000000000000000000000000000000000000000000000000000815267ffffffffffffffff8f169381019390935251929a50600160a060020a031691639e2c041e916024808201926020929091908290030181600087803b15801561107a57600080fd5b505af115801561108e573d6000803e3d6000fd5b505050506040513d60208110156110a457600080fd5b505160048054604080517fe11a9cb200000000000000000000000000000000000000000000000000000000815267ffffffffffffffff8f169381019390935251929950600160a060020a03169163e11a9cb2916024808201926020929091908290030181600087803b15801561111957600080fd5b505af115801561112d573d6000803e3d6000fd5b505050506040513d602081101561114357600080fd5b505160048054604080517fbd8d6e6d00000000000000000000000000000000000000000000000000000000815267ffffffffffffffff8f169381019390935251929850600160a060020a03169163bd8d6e6d916024808201926020929091908290030181600087803b1580156111b857600080fd5b505af11580156111cc573d6000803e3d6000fd5b505050506040513d60208110156111e257600080fd5b505160048054604080517ffcbd3e5c00000000000000000000000000000000000000000000000000000000815267ffffffffffffffff8f169381019390935251929750600160a060020a03169163fcbd3e5c916024808201926020929091908290030181600087803b15801561125757600080fd5b505af115801561126b573d6000803e3d6000fd5b505050506040513d602081101561128157600080fd5b505160048054604080517fd38ee48100000000000000000000000000000000000000000000000000000000815267ffffffffffffffff8f169381019390935251929650600160a060020a03169163d38ee481916024808201926020929091908290030181600087803b1580156112f657600080fd5b505af115801561130a573d6000803e3d6000fd5b505050506040513d602081101561132057600080fd5b50516004805460408051600080516020615f428339815191528152600160a060020a038a8116948201949094528c8416602482015290519396509116916304ac71f9916044808201926020929091908290030181600087803b15801561138557600080fd5b505af1158015611399573d6000803e3d6000fd5b505050506040513d60208110156113af57600080fd5b505160048054604080517f70667d3a00000000000000000000000000000000000000000000000000000000815267ffffffffffffffff8f169381019390935251929450600160a060020a0316916370667d3a916024808201926020929091908290030181600087803b15801561142457600080fd5b505af1158015611438573d6000803e3d6000fd5b505050506040513d602081101561144e57600080fd5b505190506114618a828b868c8c8c6143f4565b6114708486858b868c8c614ce2565b60048054604080517fd294f2e100000000000000000000000000000000000000000000000000000000815267ffffffffffffffff8e16938101939093526000602484018190529051600160a060020a039092169263d294f2e1926044808301939282900301818387803b1580156114e657600080fd5b505af11580156114fa573d6000803e3d6000fd5b505060408051600160a060020a03808d168252808a1660208301528d1681830152606081018b9052608081018a905290517fb6db6d9e428506726a64ff543d416f95d128b274f216d8b7dd72fd0226a0e7be93509081900360a0019150a150505050505050505050565b3360009081526020819052604090205460ff16151561158257600080fd5b6001805473ffffffffffffffffffffffffffffffffffffffff1916600160a060020a0392909216919091179055565b3360009081526020819052604081205481908190819060ff1615156115d557600080fd5b600160a060020a0388161561168357600354604080517fe3c72cdb000000000000000000000000000000000000000000000000000000008152600160a060020a038b811660048301529151919092169163e3c72cdb9160248083019260209291908290030181600087803b15801561164c57600080fd5b505af1158015611660573d6000803e3d6000fd5b505050506040513d602081101561167657600080fd5b5051151561168357600080fd5b60048054604080517f7642678b000000000000000000000000000000000000000000000000000000008152600160a060020a038e8116948201949094528e841660248201529051899390921691637642678b916044808201926020929091908290030181600087803b1580156116f857600080fd5b505af115801561170c573d6000803e3d6000fd5b505050506040513d602081101561172257600080fd5b5051101561172f57600080fd5b6004805460408051600080516020615f428339815191528152600160a060020a038e8116948201949094528e84166024820152905192909116916304ac71f9916044808201926020929091908290030181600087803b15801561179157600080fd5b505af11580156117a5573d6000803e3d6000fd5b505050506040513d60208110156117bb57600080fd5b505160048054604080517f2fa9cb80000000000000000000000000000000000000000000000000000000008152600160a060020a038f8116948201949094528f841660248201529051939750911691632fa9cb80916044808201926020929091908290030181600087803b15801561183257600080fd5b505af1158015611846573d6000803e3d6000fd5b505050506040513d602081101561185c57600080fd5b505160048054604080517fa2c4ced8000000000000000000000000000000000000000000000000000000008152600160a060020a038e8116948201949094528f84166024820152905193965091169163a2c4ced8916044808201926020929091908290030181600087803b1580156118d357600080fd5b505af11580156118e7573d6000803e3d6000fd5b505050506040513d60208110156118fd57600080fd5b50519150611911868663ffffffff61550a16565b9050600460009054906101000a9004600160a060020a0316600160a060020a031663a1ea85de8d60018e8e8e8e8e8e8e8b8f8f8f6040518e63ffffffff1660e060020a028152600401808e67ffffffffffffffff1667ffffffffffffffff1681526020018d1515151581526020018c600160a060020a0316600160a060020a031681526020018b600160a060020a0316600160a060020a031681526020018a600160a060020a0316600160a060020a0316815260200189600160a060020a0316600160a060020a0316815260200188600160a060020a0316600160a060020a0316815260200187815260200186815260200185815260200184815260200183151515158152602001821515151581526020019d5050505050505050505050505050600060405180830381600087803b158015611a4c57600080fd5b505af1158015611a60573d6000803e3d6000fd5b5050505085600460009054906101000a9004600160a060020a0316600160a060020a0316632df840f48b8e6040518363ffffffff1660e060020a0281526004018083600160a060020a0316600160a060020a0316815260200182600160a060020a0316600160a060020a0316815260200192505050602060405180830381600087803b158015611aef57600080fd5b505af1158015611b03573d6000803e3d6000fd5b505050506040513d6020811015611b1957600080fd5b50511015611b2657600080fd5b6040805167ffffffffffffffff8e16815290517fb5b0e23ec8f993d3fceeaeae4cf1ac41e719072a02eaaf5952fcafabdcbb11df9181900360200190a1505050505050505050505050565b3360009081526020819052604090205460ff161515611b8f57600080fd5b60048054604080517f9eaeec3c000000000000000000000000000000000000000000000000000000008152600160a060020a03868116948201949094529051929091169163d9b40fac918591611c429186918691639eaeec3c9160248083019260209291908290030181600087803b158015611c0a57600080fd5b505af1158015611c1e573d6000803e3d6000fd5b505050506040513d6020811015611c3457600080fd5b50519063ffffffff61553316565b6040518363ffffffff1660e060020a0281526004018083600160a060020a0316600160a060020a0316815260200182815260200192505050600060405180830381600087803b158015611c9457600080fd5b505af1158015610d40573d6000803e3d6000fd5b60048054604080517f2df840f4000000000000000000000000000000000000000000000000000000008152600160a060020a03858116948201949094528584166024820152905160009390921691632df840f49160448082019260209290919082900301818787803b158015610dc057600080fd5b3090565b3360009081526020819052604090205460ff161515611d3f57600080fd5b600254604080517f4077586f000000000000000000000000000000000000000000000000000000008152600160a060020a0389811660048301528881166024830152878116604483015286811660648301526084820186905284151560a483015291519190921691634077586f9160c480830192600092919082900301818387803b158015611dcd57600080fd5b505af1158015611de1573d6000803e3d6000fd5b505050508015610d4057600354604080517f6eba2823000000000000000000000000000000000000000000000000000000008152600160a060020a03868116600483015291519190921691636eba282391602480830192600092919082900301818387803b158015611e5257600080fd5b505af1158015611e66573d6000803e3d6000fd5b50505050505050505050565b3360009081526020819052604081205460ff161515611e9057600080fd5b60048054604080517f41be76d5000000000000000000000000000000000000000000000000000000008152600160a060020a0388811694820194909452868416602482015260448101869052905192909116916341be76d59160648082019260009290919082900301818387803b158015611f0a57600080fd5b505af1158015611f1e573d6000803e3d6000fd5b505050509392505050565b600254600160a060020a031681565b3360009081526020819052604090205460ff161515611f5657600080fd5b6004805473ffffffffffffffffffffffffffffffffffffffff1916600160a060020a0392909216919091179055565b3360009081526020819052604090205460ff161515611fa357600080fd5b611fac81615540565b50565b60048054604080517f7642678b000000000000000000000000000000000000000000000000000000008152600160a060020a03858116948201949094528584166024820152905160009390921691637642678b9160448082019260209290919082900301818787803b158015610dc057600080fd5b33600090815260208190526040812054819081908190819060ff16151561204a57600080fd5b85935083600160a060020a031663603daf9a6040518163ffffffff1660e060020a028152600401602060405180830381600087803b15801561208b57600080fd5b505af115801561209f573d6000803e3d6000fd5b505050506040513d60208110156120b557600080fd5b5051604080517f1832ca2e0000000000000000000000000000000000000000000000000000000081529051919450600160a060020a03861691631832ca2e916004808201926020929091908290030181600087803b15801561211657600080fd5b505af115801561212a573d6000803e3d6000fd5b505050506040513d602081101561214057600080fd5b50519150600160a060020a038781169084161461215c57600080fd5b600254604080517f70a08231000000000000000000000000000000000000000000000000000000008152600160a060020a0386811660048301529151859392909216916370a08231916024808201926020929091908290030181600087803b1580156121c757600080fd5b505af11580156121db573d6000803e3d6000fd5b505050506040513d60208110156121f157600080fd5b5051116121fd57600080fd5b600260009054906101000a9004600160a060020a0316600160a060020a031663f562c1ae8486600160a060020a0316632f29a0626040518163ffffffff1660e060020a028152600401602060405180830381600087803b15801561226057600080fd5b505af1158015612274573d6000803e3d6000fd5b505050506040513d602081101561228a57600080fd5b50516040805160e060020a63ffffffff8616028152600160a060020a0393841660048201529290911660248301526044820186905260006064830181905260a06084840152600e60a48401527f434c4541525f4d4f52544741474500000000000000000000000000000000000060c4840152905160e48084019382900301818387803b15801561231957600080fd5b505af115801561232d573d6000803e3d6000fd5b5050505083600160a060020a0316634538f92f6040518163ffffffff1660e060020a028152600401602060405180830381600087803b15801561236f57600080fd5b505af1158015612383573d6000803e3d6000fd5b505050506040513d602081101561239957600080fd5b505190506123a88184886131c6565b5095945050505050565b3360009081526020819052604090205460ff1615156123d057600080fd5b600354604080517f82fef30e000000000000000000000000000000000000000000000000000000008152600160a060020a038481166004830152915191909216916382fef30e91602480830192600092919082900301818387803b15801561243757600080fd5b505af115801561244b573d6000803e3d6000fd5b5050505050565b33600090815260208190526040812054819081908190819081908190819060ff16151561247e57600080fd5b600254604080517f51149616000000000000000000000000000000000000000000000000000000008152600160a060020a038f811660048301529151919092169163511496169160248083019260209291908290030181600087803b1580156124e657600080fd5b505af11580156124fa573d6000803e3d6000fd5b505050506040513d602081101561251057600080fd5b5051151561251d57600080fd5b8a955085600160a060020a031663603daf9a6040518163ffffffff1660e060020a028152600401602060405180830381600087803b15801561255e57600080fd5b505af1158015612572573d6000803e3d6000fd5b505050506040513d602081101561258857600080fd5b5051604080517f4ae01cdc0000000000000000000000000000000000000000000000000000000081529051919650600160a060020a03881691634ae01cdc916004808201926020929091908290030181600087803b1580156125e957600080fd5b505af11580156125fd573d6000803e3d6000fd5b505050506040513d602081101561261357600080fd5b5051935060008911156126c357600254604080517fb069be71000000000000000000000000000000000000000000000000000000008152600160a060020a038f811660048301529151919092169163b069be719160248083019260209291908290030181600087803b15801561268857600080fd5b505af115801561269c573d6000803e3d6000fd5b505050506040513d60208110156126b257600080fd5b505115156126bf57600080fd5b8893505b600084116126d057600080fd5b600254604080517f70a08231000000000000000000000000000000000000000000000000000000008152600160a060020a0388811660048301529151879392909216916370a08231916024808201926020929091908290030181600087803b15801561273b57600080fd5b505af115801561274f573d6000803e3d6000fd5b505050506040513d602081101561276557600080fd5b50511015612c205785600160a060020a031663485d498a6040518163ffffffff1660e060020a028152600401602060405180830381600087803b1580156127ab57600080fd5b505af11580156127bf573d6000803e3d6000fd5b505050506040513d60208110156127d557600080fd5b50519250600267ffffffffffffffff841614156129ad576128da86600160a060020a0316634538f92f6040518163ffffffff1660e060020a028152600401602060405180830381600087803b15801561282d57600080fd5b505af1158015612841573d6000803e3d6000fd5b505050506040513d602081101561285757600080fd5b505160408051600080516020615f82833981519152815290518891600160a060020a038b1691632f29a062916004808201926020929091908290030181600087803b1580156128a557600080fd5b505af11580156128b9573d6000803e3d6000fd5b505050506040513d60208110156128cf57600080fd5b50518e8e6001611d21565b7f2f1004a3da4d66a6a17f18d5799760a01e64d5e1c50955ef050596c9547260068b8688600160a060020a0316632f29a0626040518163ffffffff1660e060020a028152600401602060405180830381600087803b15801561293b57600080fd5b505af115801561294f573d6000803e3d6000fd5b505050506040513d602081101561296557600080fd5b505160408051600160a060020a0394851681529284166020840152921681830152606081018a9052608081018790524260a082015290519081900360c00190a1869750612fe8565b600354604080517fbd29d390000000000000000000000000000000000000000000000000000000008152600160a060020a038e811660048301529151919092169163bd29d39091602480830192600092919082900301818387803b158015612a1457600080fd5b505af1158015612a28573d6000803e3d6000fd5b50505050612b1a86600160a060020a0316634538f92f6040518163ffffffff1660e060020a028152600401602060405180830381600087803b158015612a6d57600080fd5b505af1158015612a81573d6000803e3d6000fd5b505050506040513d6020811015612a9757600080fd5b505160408051600080516020615f82833981519152815290518891600160a060020a038b1691632f29a062916004808201926020929091908290030181600087803b158015612ae557600080fd5b505af1158015612af9573d6000803e3d6000fd5b505050506040513d6020811015612b0f57600080fd5b50518e8e6000611d21565b600254604080517f70a08231000000000000000000000000000000000000000000000000000000008152600160a060020a038881166004830152915191909216916370a082319160248083019260209291908290030181600087803b158015612b8257600080fd5b505af1158015612b96573d6000803e3d6000fd5b505050506040513d6020811015612bac57600080fd5b505160408051600080516020615f82833981519152815290519198507f2f1004a3da4d66a6a17f18d5799760a01e64d5e1c50955ef050596c954726006918d918891600160a060020a038b1691632f29a0629160048083019260209291908290030181600087803b15801561293b57600080fd5b612c9585858d89600160a060020a0316634538f92f6040518163ffffffff1660e060020a028152600401602060405180830381600087803b158015612c6457600080fd5b505af1158015612c78573d6000803e3d6000fd5b505050506040513d6020811015612c8e57600080fd5b5051610743565b85600160a060020a03166329b293ab6040518163ffffffff1660e060020a028152600401602060405180830381600087803b158015612cd357600080fd5b505af1158015612ce7573d6000803e3d6000fd5b505050506040513d6020811015612cfd57600080fd5b50511515612e745785600160a060020a0316634ae01cdc6040518163ffffffff1660e060020a028152600401602060405180830381600087803b158015612d4357600080fd5b505af1158015612d57573d6000803e3d6000fd5b505050506040513d6020811015612d6d57600080fd5b50519150811515612e745785600160a060020a0316634538f92f6040518163ffffffff1660e060020a028152600401602060405180830381600087803b158015612db657600080fd5b505af1158015612dca573d6000803e3d6000fd5b505050506040513d6020811015612de057600080fd5b5051600254604080517fa577ccb6000000000000000000000000000000000000000000000000000000008152600160a060020a03808516600483015289811660248301528f81166044830152915193945091169163a577ccb69160648082019260009290919082900301818387803b158015612e5b57600080fd5b505af1158015612e6f573d6000803e3d6000fd5b505050505b600254604080517f70a08231000000000000000000000000000000000000000000000000000000008152600160a060020a038881166004830152915191909216916370a082319160248083019260209291908290030181600087803b158015612edc57600080fd5b505af1158015612ef0573d6000803e3d6000fd5b505050506040513d6020811015612f0657600080fd5b505160408051600080516020615f82833981519152815290519198507fd9187982ee1602bb76fe11eb78d900512809cbdd694d7dacc872d772ebf98a44918d918891600160a060020a038b1691632f29a0629160048083019260209291908290030181600087803b158015612f7a57600080fd5b505af1158015612f8e573d6000803e3d6000fd5b505050506040513d6020811015612fa457600080fd5b505160408051600160a060020a0394851681529284166020840152921681830152606081018a9052608081018790524260a082015290519081900360c00190a18397505b50505050505050949350505050565b600154600160a060020a031681565b3360009081526020819052604081205460ff16151561302457600080fd5b60048054604080517f98fb4083000000000000000000000000000000000000000000000000000000008152600160a060020a0388811694820194909452868416602482015260448101869052905192909116916398fb40839160648082019260009290919082900301818387803b15801561309e57600080fd5b505af11580156130b2573d6000803e3d6000fd5b505060048054604080517ffae75550000000000000000000000000000000000000000000000000000000008152600160a060020a038a8116948201949094528884166024820152600060448201819052915193909216945063fae755509350606480830193919282900301818387803b158015611f0a57600080fd5b3360009081526020819052604081205460ff16151561314c57600080fd5b60048054604080517f9e561cec000000000000000000000000000000000000000000000000000000008152600160a060020a038881169482019490945286841660248201526044810186905290519290911691639e561cec9160648082019260009290919082900301818387803b158015611f0a57600080fd5b3360009081526020819052604090205460ff1615156131e457600080fd5b600354604080517f6eba2823000000000000000000000000000000000000000000000000000000008152600160a060020a03848116600483015291519190921691636eba282391602480830192600092919082900301818387803b15801561324b57600080fd5b505af115801561325f573d6000803e3d6000fd5b5050600254604080517fa577ccb6000000000000000000000000000000000000000000000000000000008152600160a060020a03888116600483015287811660248301528681166044830152915191909216935063a577ccb69250606480830192600092919082900301818387803b1580156132da57600080fd5b505af11580156132ee573d6000803e3d6000fd5b50505050505050565b60048054604080517f2fa9cb80000000000000000000000000000000000000000000000000000000008152600160a060020a03858116948201949094528584166024820152905160009390921691632fa9cb809160448082019260209290919082900301818787803b158015610dc057600080fd5b3360009081526020819052604081205460ff16151561338a57600080fd5b60048054604080517f9eaeec3c000000000000000000000000000000000000000000000000000000008152600160a060020a038781169482019490945290519290911691639eaeec3c916024808201926020929091908290030181600087803b1580156133f657600080fd5b505af115801561340a573d6000803e3d6000fd5b505050506040513d602081101561342057600080fd5b505190506000811161343157600080fd5b8181111561362457600454600160a060020a031663d9b40fac8461345b848663ffffffff61557616565b6040518363ffffffff1660e060020a0281526004018083600160a060020a0316600160a060020a0316815260200182815260200192505050600060405180830381600087803b1580156134ad57600080fd5b505af11580156134c1573d6000803e3d6000fd5b5050600254604080517fdef1b933000000000000000000000000000000000000000000000000000000008152600160a060020a0388811660048301526024820188905260006044830181905260806064840152601960848401527f57495448445241575f4d4f5254474147455f42414c414e43450000000000000060a484015292519316945063def1b933935060c480820193602093909283900390910190829087803b15801561357157600080fd5b505af1158015613585573d6000803e3d6000fd5b505050506040513d602081101561359b57600080fd5b505060025460408051600080516020615f628339815191528152600481018590529051600160a060020a0390921691637648b9d8916024808201926020929091908290030181600087803b1580156135f257600080fd5b505af1158015613606573d6000803e3d6000fd5b505050506040513d602081101561361c57600080fd5b506137ed9050565b600254604080517fdef1b933000000000000000000000000000000000000000000000000000000008152600160a060020a0386811660048301526024820185905260006044830181905260806064840152601960848401527f57495448445241575f4d4f5254474147455f42414c414e43450000000000000060a4840152925193169263def1b9339260c480840193602093929083900390910190829087803b1580156136d057600080fd5b505af11580156136e4573d6000803e3d6000fd5b505050506040513d60208110156136fa57600080fd5b505060025460408051600080516020615f628339815191528152600481018490529051600160a060020a0390921691637648b9d8916024808201926020929091908290030181600087803b15801561375157600080fd5b505af1158015613765573d6000803e3d6000fd5b505050506040513d602081101561377b57600080fd5b505060048054604080517fd9b40fac000000000000000000000000000000000000000000000000000000008152600160a060020a03878116948201949094526000602482018190529151939092169263d9b40fac92604480820193929182900301818387803b1580156132da57600080fd5b505050565b3360009081526020819052604081205460ff16151561381057600080fd5b60048054604080517fb027ae8d000000000000000000000000000000000000000000000000000000008152600160a060020a03888116948201949094528684166024820152604481018690529051929091169163b027ae8d9160648082019260009290919082900301818387803b158015611f0a57600080fd5b600254604080517f5cdcaadd000000000000000000000000000000000000000000000000000000008152600160a060020a038781166004830152915160009384931691635cdcaadd91602480830192602092919082900301818787803b1580156138f357600080fd5b505af1158015613907573d6000803e3d6000fd5b505050506040513d602081101561391d57600080fd5b50519050801561392c57600080fd5b60048054604080517f2df840f4000000000000000000000000000000000000000000000000000000008152600160a060020a038c811694820194909452898416602482015290519290911691632df840f4916044808201926020929091908290030181600087803b1580156139a057600080fd5b505af11580156139b4573d6000803e3d6000fd5b505050506040513d60208110156139ca57600080fd5b5051156139d657600080fd5b600254604080517f1e8d6179000000000000000000000000000000000000000000000000000000008152600160a060020a038681166004830152898116602483015291519190921691631e8d61799160448083019260209291908290030181600087803b158015613a4657600080fd5b505af1158015613a5a573d6000803e3d6000fd5b505050506040513d6020811015613a7057600080fd5b50511515613a7d57600080fd5b60048054604080517f13879e3a0000000000000000000000000000000000000000000000000000000081529283018790526024830188905260016044840152600160a060020a038a811660648501528b8116608485015289811660a485015290519116916313879e3a9160c480830192600092919082900301818387803b158015613b0757600080fd5b505af1158015613b1b573d6000803e3d6000fd5b505060408051600160a060020a03808d1682528a1660208201528082018990526060810188905290517fb57ec5a45154eaa83bade8c3a6f46e07960e3377567da78c6df9e67750219c899350908190036080019150a1509695505050505050565b3360009081526020819052604090205460ff161515613b9a57600080fd5b6002805473ffffffffffffffffffffffffffffffffffffffff1916600160a060020a0392909216919091179055565b3360009081526020819052604090205460ff161515613be757600080fd5b6003805473ffffffffffffffffffffffffffffffffffffffff1916600160a060020a0392909216919091179055565b6000806000613c278a8a8a87615588565b600254604080517faaf428d6000000000000000000000000000000000000000000000000000000008152600160a060020a038d8116600483015267ffffffffffffffff8b1660248301528b8116604483015260806064830152600d60848301527f4249445f4d4f525447414745440000000000000000000000000000000000000060a48301529151919092169163aaf428d69160c48083019260209291908290030181600087803b158015613cdb57600080fd5b505af1158015613cef573d6000803e3d6000fd5b505050506040513d6020811015613d0557600080fd5b5050600254604080517fa67ca61200000000000000000000000000000000000000000000000000000000815267ffffffffffffffff8a1660048201529051600160a060020a039092169163a67ca612916024808201926020929091908290030181600087803b158015613d7757600080fd5b505af1158015613d8b573d6000803e3d6000fd5b505050506040513d6020811015613da157600080fd5b5050600354613dca908690889067ffffffffffffffff8b1690600160a060020a03168e8d615763565b600254604080517f70a08231000000000000000000000000000000000000000000000000000000008152600160a060020a038d81166004830152915191909216916370a082319160248083019260209291908290030181600087803b158015613e3257600080fd5b505af1158015613e46573d6000803e3d6000fd5b505050506040513d6020811015613e5c57600080fd5b505160408051338152600160a060020a038b166020820152808201899052606081018890526080810183905290519192507fa4104ed75ae25eeabe57733d26451698d5095182b0cb12eb336f2be5779e9cc7919081900360a00190a160019a909950975050505050505050565b60048054604080517f9eaeec3c000000000000000000000000000000000000000000000000000000008152600160a060020a0385811694820194909452905160009390921691639eaeec3c9160248082019260209290919082900301818787803b158015613f3657600080fd5b505af1158015613f4a573d6000803e3d6000fd5b505050506040513d6020811015613f6057600080fd5b505192915050565b3360009081526020819052604081205460ff161515613f8657600080fd5b60048054604080517fdd173611000000000000000000000000000000000000000000000000000000008152600160a060020a03888116948201949094528684166024820152604481018690529051929091169163dd1736119160648082019260009290919082900301818387803b15801561400057600080fd5b505af1158015614014573d6000803e3d6000fd5b505060048054604080517f079ea741000000000000000000000000000000000000000000000000000000008152600160a060020a038a8116948201949094528884166024820152600060448201819052915193909216945063079ea7419350606480830193919282900301818387803b158015611f0a57600080fd5b600160a060020a031660009081526020819052604090205460ff1690565b3360009081526020819052604090205460ff1615156140cc57600080fd5b611fac816157f4565b3360009081526020819052604081205460ff1615156140f357600080fd5b6000841161410057600080fd5b6000831161410d57600080fd5b600254604080517f70a08231000000000000000000000000000000000000000000000000000000008152600160a060020a038881166004830152915191909216916370a082319160248083019260209291908290030181600087803b15801561417557600080fd5b505af1158015614189573d6000803e3d6000fd5b505050506040513d602081101561419f57600080fd5b50518411156141ad57600080fd5b600254604080517faaf428d6000000000000000000000000000000000000000000000000000000008152600160a060020a0388811660048301526024820188905260006044830181905260806064840152600d60848401527f4d4f525447414745455f4144440000000000000000000000000000000000000060a4840152925193169263aaf428d69260c480840193602093929083900390910190829087803b15801561425957600080fd5b505af115801561426d573d6000803e3d6000fd5b505050506040513d602081101561428357600080fd5b5050600254604080517fa67ca612000000000000000000000000000000000000000000000000000000008152600481018790529051600160a060020a039092169163a67ca612916024808201926020929091908290030181600087803b1580156142ec57600080fd5b505af1158015614300573d6000803e3d6000fd5b505050506040513d602081101561431657600080fd5b505060048054604080517fd9b40fac000000000000000000000000000000000000000000000000000000008152600160a060020a0389811694820194909452602481018890529051929091169163d9b40fac9160448082019260009290919082900301818387803b15801561438a57600080fd5b505af115801561439e573d6000803e3d6000fd5b505060408051600160a060020a03891681526020810188905280820187905290517f4b96a655cd87af3c9307f0cc5ceb3b6c617e2a7ff3c70486363eb814829b289a9350908190036060019150a1509392505050565b33600090815260208190526040812054819081908190819060ff16151561441a57600080fd5b600460009054906101000a9004600160a060020a0316600160a060020a03166363fd16e48d6040518263ffffffff1660e060020a028152600401808267ffffffffffffffff1667ffffffffffffffff168152602001915050602060405180830381600087803b15801561448c57600080fd5b505af11580156144a0573d6000803e3d6000fd5b505050506040513d60208110156144b657600080fd5b505115156144c357600080fd5b600254604080517f5cdcaadd000000000000000000000000000000000000000000000000000000008152600160a060020a038b8116600483015291519190921691635cdcaadd9160248083019260209291908290030181600087803b15801561452b57600080fd5b505af115801561453f573d6000803e3d6000fd5b505050506040513d602081101561455557600080fd5b505160048054604080517fa2c4ced8000000000000000000000000000000000000000000000000000000008152600160a060020a038f8116948201949094528c84166024820152905193985091169163a2c4ced8916044808201926020929091908290030181600087803b1580156145cc57600080fd5b505af11580156145e0573d6000803e3d6000fd5b505050506040513d60208110156145f657600080fd5b505115614992578a935083600160a060020a0316631832ca2e6040518163ffffffff1660e060020a028152600401602060405180830381600087803b15801561463e57600080fd5b505af1158015614652573d6000803e3d6000fd5b505050506040513d602081101561466857600080fd5b505192508289111561486957614684898463ffffffff61557616565b600254604080517fdef1b933000000000000000000000000000000000000000000000000000000008152600160a060020a038e81166004830152602482018590528c8116604483015260806064830152600560848301527f545241444500000000000000000000000000000000000000000000000000000060a4830152915193955091169163def1b9339160c4808201926020929091908290030181600087803b15801561473157600080fd5b505af1158015614745573d6000803e3d6000fd5b505050506040513d602081101561475b57600080fd5b505060025460408051600080516020615f628339815191528152600481018590529051600160a060020a0390921691637648b9d8916024808201926020929091908290030181600087803b1580156147b257600080fd5b505af11580156147c6573d6000803e3d6000fd5b505050506040513d60208110156147dc57600080fd5b5050600354604080517f0b96c457000000000000000000000000000000000000000000000000000000008152600160a060020a038e811660048301526024820187905291519190921691630b96c45791604480830192600092919082900301818387803b15801561484c57600080fd5b505af1158015614860573d6000803e3d6000fd5b505050506148f0565b600354604080517f0b96c457000000000000000000000000000000000000000000000000000000008152600160a060020a038e81166004830152602482018d905291519190921691630b96c45791604480830192600092919082900301818387803b1580156148d757600080fd5b505af11580156148eb573d6000803e3d6000fd5b505050505b600254604080517f797d6b30000000000000000000000000000000000000000000000000000000008152600160a060020a038b811660048301528e811660248301528d81166044830152606482018b9052608482018a90529151919092169163797d6b309160a480830192600092919082900301818387803b15801561497557600080fd5b505af1158015614989573d6000803e3d6000fd5b50505050614b88565b841515614af257600254604080517fdef1b933000000000000000000000000000000000000000000000000000000008152600160a060020a038d81166004830152602482018d90528b8116604483015260806064830152600560848301527f545241444500000000000000000000000000000000000000000000000000000060a48301529151919092169163def1b9339160c48083019260209291908290030181600087803b158015614a4457600080fd5b505af1158015614a58573d6000803e3d6000fd5b505050506040513d6020811015614a6e57600080fd5b505060025460408051600080516020615f628339815191528152600481018c90529051600160a060020a0390921691637648b9d8916024808201926020929091908290030181600087803b158015614ac557600080fd5b505af1158015614ad9573d6000803e3d6000fd5b505050506040513d6020811015614aef57600080fd5b50505b600254604080517f31de7d15000000000000000000000000000000000000000000000000000000008152600160a060020a038b811660048301528d81166024830152604482018b9052606482018a9052915191909216916331de7d1591608480830192600092919082900301818387803b158015614b6f57600080fd5b505af1158015614b83573d6000803e3d6000fd5b505050505b60048054604080517f2df840f4000000000000000000000000000000000000000000000000000000008152600160a060020a038e8116948201949094528b8416602482015290519290911691632df840f4916044808201926020929091908290030181600087803b158015614bfc57600080fd5b505af1158015614c10573d6000803e3d6000fd5b505050506040513d6020811015614c2657600080fd5b5051905060008110801590614c3b5750868110155b1515614c4657600080fd5b600454600160a060020a03166398fb4083898c614c69858c63ffffffff61557616565b6040805160e060020a63ffffffff8716028152600160a060020a03948516600482015292909316602483015260448201529051606480830192600092919082900301818387803b158015614cbc57600080fd5b505af1158015614cd0573d6000803e3d6000fd5b50505050505050505050505050505050565b336000908152602081905260408120548190819060ff161515614d0457600080fd5b60048054604080517f2fa9cb80000000000000000000000000000000000000000000000000000000008152600160a060020a038d8116948201949094528a8416602482015290519290911691632fa9cb80916044808201926020929091908290030181600087803b158015614d7857600080fd5b505af1158015614d8c573d6000803e3d6000fd5b505050506040513d6020811015614da257600080fd5b505115614dbd57614db88a898b8989898d615867565b615020565b6004805460408051600080516020615f428339815191528152600160a060020a038d8116948201949094528a8416602482015290518b93909216916304ac71f9916044808201926020929091908290030181600087803b158015614e2057600080fd5b505af1158015614e34573d6000803e3d6000fd5b505050506040513d6020811015614e4a57600080fd5b50511015614e5757600080fd5b600254604080517fa9d424e2000000000000000000000000000000000000000000000000000000008152600160a060020a038a811660048301528c8116602483015260448201899052606482018890529151919092169163a9d424e291608480830192600092919082900301818387803b158015614ed457600080fd5b505af1158015614ee8573d6000803e3d6000fd5b50506004805460408051600080516020615f428339815191528152600160a060020a038f8116948201949094528c841660248201529051614f8c95508d945092909116916304ac71f9916044808201926020929091908290030181600087803b158015614f5457600080fd5b505af1158015614f68573d6000803e3d6000fd5b505050506040513d6020811015614f7e57600080fd5b50519063ffffffff61557616565b60048054604080517f9e561cec000000000000000000000000000000000000000000000000000000008152600160a060020a038c8116948201949094528d84166024820152604481018590529051939650911691639e561cec9160648082019260009290919082900301818387803b15801561500757600080fd5b505af115801561501b573d6000803e3d6000fd5b505050505b60048054604080517f7642678b000000000000000000000000000000000000000000000000000000008152600160a060020a038d8116948201949094528a84166024820152905160009390921691637642678b9160448082019260209290919082900301818787803b15801561509557600080fd5b505af11580156150a9573d6000803e3d6000fd5b505050506040513d60208110156150bf57600080fd5b505110156150cc57600080fd5b60048054604080517f7642678b000000000000000000000000000000000000000000000000000000008152600160a060020a038d8116948201949094528a8416602482015290516151429389931691637642678b9160448083019260209291908290030181600087803b158015614f5457600080fd5b60048054604080517fdd173611000000000000000000000000000000000000000000000000000000008152600160a060020a038c8116948201949094528d8416602482015260448101859052905193955091169163dd1736119160648082019260009290919082900301818387803b1580156151bd57600080fd5b505af11580156151d1573d6000803e3d6000fd5b50506004805460408051600080516020615f428339815191528152600160a060020a038f8116948201949094528c8416602482015290519290911693506304ac71f992506044808201926020929091908290030181600087803b15801561523757600080fd5b505af115801561524b573d6000803e3d6000fd5b505050506040513d602081101561526157600080fd5b505160048054604080517f7642678b000000000000000000000000000000000000000000000000000000008152600160a060020a038e8116948201949094528b841660248201529051939450911691637642678b916044808201926020929091908290030181600087803b1580156152d857600080fd5b505af11580156152ec573d6000803e3d6000fd5b505050506040513d602081101561530257600080fd5b50511580156153115750600081115b15611e6657600254604080517fdef1b933000000000000000000000000000000000000000000000000000000008152600160a060020a038c81166004830152602482018590528a8116604483015260806064830152600b60848301527f4249445f5245515545535400000000000000000000000000000000000000000060a48301529151919092169163def1b9339160c48083019260209291908290030181600087803b1580156153c157600080fd5b505af11580156153d5573d6000803e3d6000fd5b505050506040513d60208110156153eb57600080fd5b505060025460408051600080516020615f628339815191528152600481018490529051600160a060020a0390921691637648b9d8916024808201926020929091908290030181600087803b15801561544257600080fd5b505af1158015615456573d6000803e3d6000fd5b505050506040513d602081101561546c57600080fd5b505060048054604080517f9e561cec000000000000000000000000000000000000000000000000000000008152600160a060020a038b8116948201949094528c8416602482015260006044820181905291519390921692639e561cec92606480820193929182900301818387803b1580156154e657600080fd5b505af11580156154fa573d6000803e3d6000fd5b5050505050505050505050505050565b600082151561551b57506000610def565b5081810281838281151561552b57fe5b0414610def57fe5b81810182811015610def57fe5b600160a060020a038116151561555557600080fd5b600160a060020a03166000908152602081905260409020805460ff19169055565b60008282111561558257fe5b50900390565b82600160a060020a03166328f371aa6040518163ffffffff1660e060020a028152600401602060405180830381600087803b1580156155c657600080fd5b505af11580156155da573d6000803e3d6000fd5b505050506040513d60208110156155f057600080fd5b505115156155fd57600080fd5b60048054604080517f7642678b000000000000000000000000000000000000000000000000000000008152600160a060020a0388811694820194909452858416602482015290519290911691637642678b916044808201926020929091908290030181600087803b15801561567157600080fd5b505af1158015615685573d6000803e3d6000fd5b505050506040513d602081101561569b57600080fd5b5051156156a757600080fd5b600160a060020a0381161561575d57600254604080517f1e8d6179000000000000000000000000000000000000000000000000000000008152600160a060020a038481166004830152858116602483015291519190921691631e8d61799160448083019260209291908290030181600087803b15801561572657600080fd5b505af115801561573a573d6000803e3d6000fd5b505050506040513d602081101561575057600080fd5b5051151561575d57600080fd5b50505050565b60048054604080517f31fa3d20000000000000000000000000000000000000000000000000000000008152928301899052602483018890526044830187905260016064840152600160a060020a03868116608485015285811660a485015284811660c485015290519116916331fa3d209160e480830192600092919082900301818387803b158015611e5257600080fd5b600160a060020a038116151561580957600080fd5b600154604051600160a060020a038084169216907f8be0079c531659141344cd1fd0a4f28419497f9722a3daafe3b4186f6b6457e090600090a3600160a060020a03166000908152602081905260409020805460ff19166001179055565b6000806000808a935088600160a060020a031684600160a060020a031663603daf9a6040518163ffffffff1660e060020a028152600401602060405180830381600087803b1580156158b857600080fd5b505af11580156158cc573d6000803e3d6000fd5b505050506040513d60208110156158e257600080fd5b5051600160a060020a0316146158f757600080fd5b8961597285600160a060020a031663d26c5c316040518163ffffffff1660e060020a028152600401602060405180830381600087803b15801561593957600080fd5b505af115801561594d573d6000803e3d6000fd5b505050506040513d602081101561596357600080fd5b50518a9063ffffffff61553316565b101561597d57600080fd5b83600160a060020a031663d26c5c316040518163ffffffff1660e060020a028152600401602060405180830381600087803b1580156159bb57600080fd5b505af11580156159cf573d6000803e3d6000fd5b505050506040513d60208110156159e557600080fd5b50516004805460408051600080516020615f8283398151915281529051600160a060020a0392831693639eaeec3c938a1692632f29a06292818301926020928290030181600087803b158015615a3a57600080fd5b505af1158015615a4e573d6000803e3d6000fd5b505050506040513d6020811015615a6457600080fd5b50516040805160e060020a63ffffffff8516028152600160a060020a0390921660048301525160248083019260209291908290030181600087803b158015615aab57600080fd5b505af1158015615abf573d6000803e3d6000fd5b505050506040513d6020811015615ad557600080fd5b50511015615b0b576040517f33a32b1b6e9867f7478cba09c008a9faab59d28974e22d0b3d97aee6ffc5ea6c90600090a1615f34565b83600160a060020a031663d6dd04f76040518163ffffffff1660e060020a028152600401602060405180830381600087803b158015615b4957600080fd5b505af1158015615b5d573d6000803e3d6000fd5b505050506040513d6020811015615b7357600080fd5b50516004805460408051600080516020615f8283398151915281529051939650600160a060020a0391821693639eaeec3c9392891692632f29a062928082019260209290918290030181600087803b158015615bce57600080fd5b505af1158015615be2573d6000803e3d6000fd5b505050506040513d6020811015615bf857600080fd5b50516040805160e060020a63ffffffff8516028152600160a060020a0390921660048301525160248083019260209291908290030181600087803b158015615c3f57600080fd5b505af1158015615c53573d6000803e3d6000fd5b505050506040513d6020811015615c6957600080fd5b50516004805460408051600080516020615f8283398151915281529051939550600160a060020a039182169363d9b40fac9392891692632f29a062928082019260209290918290030181600087803b158015615cc457600080fd5b505af1158015615cd8573d6000803e3d6000fd5b505050506040513d6020811015615cee57600080fd5b5051615d0285878f0363ffffffff61557616565b6040518363ffffffff1660e060020a0281526004018083600160a060020a0316600160a060020a0316815260200182815260200192505050600060405180830381600087803b158015615d5457600080fd5b505af1158015615d68573d6000803e3d6000fd5b50506004805460408051600080516020615f428339815191528152600160a060020a038f8116948201949094528a841660248201529051615dd4955088945092909116916304ac71f9916044808201926020929091908290030181600087803b158015614f5457600080fd5b60048054604080517f9e561cec000000000000000000000000000000000000000000000000000000008152600160a060020a038a8116948201949094528d84166024820152604481018590529051939450911691639e561cec9160648082019260009290919082900301818387803b158015615e4f57600080fd5b505af1158015615e63573d6000803e3d6000fd5b50505050600260009054906101000a9004600160a060020a0316600160a060020a0316637998dde9868d8c8b8b6040518663ffffffff1660e060020a0281526004018086600160a060020a0316600160a060020a0316815260200185600160a060020a0316600160a060020a0316815260200184600160a060020a0316600160a060020a0316815260200183815260200182815260200195505050505050600060405180830381600087803b158015615f1b57600080fd5b505af1158015615f2f573d6000803e3d6000fd5b505050505b5050505050505050505050560004ac71f9000000000000000000000000000000000000000000000000000000007648b9d8000000000000000000000000000000000000000000000000000000002f29a06200000000000000000000000000000000000000000000000000000000a165627a7a723058205b8ff129b5e22bad118188bb929d9e5478c8b6c085865ae60c055f254fe4af5b0029",
    "source": "pragma solidity ^0.4.24;\n\nimport \"openzeppelin-solidity/contracts/token/ERC20/StandardToken.sol\";\nimport \"openzeppelin-solidity/contracts/ownership/Ownable.sol\";\nimport 'openzeppelin-solidity/contracts/math/SafeMath.sol';\nimport \"./interfaces/CornerStoneBaseInt.sol\";\nimport \"./interfaces/MortgageOperationsInt.sol\";\nimport \"./interfaces/MortgageStoneStorageInt.sol\";\nimport \"./interfaces/MortgageInt.sol\";\nimport \"./interfaces/MortgageStoneInt.sol\";\nimport \"./interfaces/Ownables.sol\";\nimport \"./interfaces/MortgageRequestInt.sol\";\n\ncontract MortgageStone  is Ownables, MortgageStoneInt{\n  using SafeMath for uint256;\n\n  event BidMortgageCreated(address user, address stoneCoinAddress, uint256 amount, uint256 limit_micros, uint256 available);\n  event AskMortgageCreated(address user, address stoneCoinAddress, uint256 amount, uint256 limit_micros);\n  event TradeMortgaged(address stoneCoinAddress, address  buyer, address  seller,  uint256 amount, uint256 price);\n  event BuyerMortgageeInsufficientBalance();\n  event MortgageeAdded(address newMortgagee, uint256 microUSDs, uint256 maxMortgage);\n  event MortgageeAddFunds(address newMortgagee, uint256 microUSDs, uint256 maxMortgage);\n  event TradeMortgageCreated(uint64 key);\n  event debug(address buyer, uint256 value,  uint256 budget);\n  event MortgageDefaulted(address mortgageAddress, address buyer, address mortgagee, uint256 balance, uint256 value,  uint256 timestamp);\n  event MortgagePayment(address mortgageAddress, address buyer, address mortgagee, uint256 balance, uint256 value, uint256 timestamp);\n\n  address public cornerStoneBaseAddress;\n  address mortgageOperationsAddress;\n  address storageAddress;\n  constructor() public Ownables() {\n  }\n\n\n  function setStoneBaseAddress(address _cornerStoneBaseAddress) public onlyOwner {\n    cornerStoneBaseAddress = _cornerStoneBaseAddress;\n  }\n  function setStorageAddress(address _storageAddress) public onlyOwner {\n    storageAddress = _storageAddress;\n  }\n\n  function setMortgageOperationAddress(address _mortgageOperationsAddress) public onlyOwner {\n    mortgageOperationsAddress =  _mortgageOperationsAddress;\n  }\n\n  function addMortgageBalance(address _user, uint256 microUSDs) public onlyOwner {\n    MortgageStoneStorageInt(storageAddress).setMortgageeBalance(_user, MortgageStoneStorageInt(storageAddress).getMortgageeBalance(_user).add(microUSDs));\n\n  }\n\n\n  function bidAmount(address stoneCoinAddress, address user) public view returns (uint256) {\n    return MortgageStoneStorageInt(storageAddress).bidAmount(user, stoneCoinAddress);\n  }\n\n\n  function bidValueHold(address stoneCoinAddress, address user) public view returns (uint256) {\n    return MortgageStoneStorageInt(storageAddress).bidMortgageValueHold(user, stoneCoinAddress);\n  }\n\n\n  function isBidMortgaged(address stoneCoinAddress, address user)  public view returns (bool) {\n    return MortgageStoneStorageInt(storageAddress).bidMortgaged(user, stoneCoinAddress);\n  }\n\n  function setBidAmount(address stoneCoinAddress, address user, uint256 amount) public  onlyOwner returns (uint256) {\n    MortgageStoneStorageInt(storageAddress).setBidAmount(stoneCoinAddress, user, amount);\n    MortgageStoneStorageInt(storageAddress).setBidMortgaged(stoneCoinAddress, user, false);\n  }\n\n  function setBidLimit(address stoneCoinAddress, address user, uint256 limit) public onlyOwner returns (uint256) {\n    MortgageStoneStorageInt(storageAddress).setBidLimit(stoneCoinAddress, user, limit);\n  }\n\n  function setAskAmount(address stoneCoinAddress, address user, uint256 amount) public  onlyOwner returns (uint256) {\n    MortgageStoneStorageInt(storageAddress).setAskAmount(stoneCoinAddress, user, amount);\n    MortgageStoneStorageInt(storageAddress).setAskMortgaged(stoneCoinAddress, user, false);\n  }\n\n  function setAskLimit(address stoneCoinAddress, address user, uint256 limit) public onlyOwner returns (uint256) {\n    MortgageStoneStorageInt(storageAddress).setAskLimit(stoneCoinAddress,user , limit);\n  }\n\n  function setBidValueHold(address stoneCoinAddress, address user, uint256 valueHold)  public onlyOwner returns (uint256) {\n    MortgageStoneStorageInt(storageAddress).setBidValueHold(stoneCoinAddress, user, valueHold);\n  }\n\n  function askAmount(address stoneCoinAddress, address user) public view returns (uint256) {\n    return  MortgageStoneStorageInt(storageAddress).askAmount(user, stoneCoinAddress);\n  }\n\n  function withdrawMortgageBalance(address _user, uint256 microUSDs) public onlyOwner {\n    uint256 userBalance = MortgageStoneStorageInt(storageAddress).getMortgageeBalance(_user);\n    require(userBalance > 0);\n    if(userBalance > microUSDs){\n      MortgageStoneStorageInt(storageAddress).setMortgageeBalance(_user, userBalance.sub(microUSDs));\n      CornerStoneBaseInt(cornerStoneBaseAddress).addBalance(_user, microUSDs, 0,\"WITHDRAW_MORTGAGE_BALANCE\");\n      CornerStoneBaseInt(cornerStoneBaseAddress).subOwnerBalance( microUSDs);\n    }else {\n      CornerStoneBaseInt(cornerStoneBaseAddress).addBalance(_user, userBalance, 0, \"WITHDRAW_MORTGAGE_BALANCE\");\n      CornerStoneBaseInt(cornerStoneBaseAddress).subOwnerBalance( userBalance);\n      MortgageStoneStorageInt(storageAddress).setMortgageeBalance(_user,0);\n    }\n  }\n\n\n  function mortgageeBalanceOf(address _user) public view returns (uint256) {\n    return  MortgageStoneStorageInt(storageAddress).getMortgageeBalance(_user);\n  }\n\n  function addMortgegee(address user, uint256 microUSDs, uint256 maxMortgage, address newMortgagee ) public onlyOwner returns(address){\n    require(microUSDs > 0);\n    require(maxMortgage > 0);\n    require(microUSDs <= CornerStoneBaseInt(cornerStoneBaseAddress).balanceOf(user));\n    CornerStoneBaseInt(cornerStoneBaseAddress).subBalance(user, microUSDs, 0,\"MORTGAGEE_ADD\");\n    CornerStoneBaseInt(cornerStoneBaseAddress).addOwnerBalance( microUSDs);\n    MortgageStoneStorageInt(storageAddress).setMortgageeBalance(user, microUSDs);\n    emit MortgageeAdded(user, microUSDs, maxMortgage);\n    return address(newMortgagee);\n  }\n\n  function mortgagePayment(address user, address mortgageAddress, uint marketPriceMills, uint256 paymentInMills) public onlyOwner returns(uint256){\n    require(CornerStoneBaseInt(cornerStoneBaseAddress).isMortgageOperator(user));\n    uint256 buyerBalance;\n    MortgageInt mortgage = MortgageInt(mortgageAddress);\n    address _buyer = mortgage.getBuyer();\n    uint256 _value = mortgage.getNextPayment();\n    if(paymentInMills > 0){\n      require(CornerStoneBaseInt(cornerStoneBaseAddress).isMortgageFinance(user));\n      _value = paymentInMills;\n    }\n    require(_value > 0);\n    if(CornerStoneBaseInt(cornerStoneBaseAddress).balanceOf(_buyer) < _value) {\n      uint64 defaults = mortgage.getDefaultStatus();\n      if(defaults == 2){\n        partlyForfeitureMortgage(mortgage.getStoneCoinAddress(), _buyer, mortgage.getMortgagee() ,mortgageAddress, marketPriceMills, true);\n        emit MortgageDefaulted(mortgageAddress, _buyer, mortgage.getMortgagee(), buyerBalance, _value, now);\n        return buyerBalance;\n      }\n      MortgageOperationsInt(mortgageOperationsAddress).defaulted(mortgageAddress);\n      partlyForfeitureMortgage(mortgage.getStoneCoinAddress(), _buyer, mortgage.getMortgagee() ,mortgageAddress, marketPriceMills, false);\n      buyerBalance = CornerStoneBaseInt(cornerStoneBaseAddress).balanceOf(_buyer);\n      emit MortgageDefaulted(mortgageAddress, _buyer, mortgage.getMortgagee(), buyerBalance, _value, now);\n      return buyerBalance;\n    }\n    transferMortgageBalance(_buyer, _value, mortgageAddress, mortgage.getStoneCoinAddress());\n\n    //check if close mortgage\n    if(!mortgage.shouldRefinance()){\n      uint256 nextValue = mortgage.getNextPayment();\n      if(nextValue == 0){\n        address stoneCoinAddress = mortgage.getStoneCoinAddress();\n        CornerStoneBaseInt(cornerStoneBaseAddress).clearMortgage(stoneCoinAddress, _buyer, mortgageAddress);\n      }\n    }\n    buyerBalance = CornerStoneBaseInt(cornerStoneBaseAddress).balanceOf(_buyer);\n    emit MortgagePayment(mortgageAddress, _buyer, mortgage.getMortgagee(), buyerBalance, _value, now);\n    return _value;\n  }\n\n  function clearAllMortgage(address user, address mortgageAddress) public onlyOwner returns(uint256){\n    MortgageInt mortgage = MortgageInt(mortgageAddress);\n    address _buyer = mortgage.getBuyer();\n    uint256 _value = mortgage.getRemainingLoanBalance();\n    require(user == _buyer);\n    require(CornerStoneBaseInt(cornerStoneBaseAddress).balanceOf(_buyer) > _value);\n    CornerStoneBaseInt(cornerStoneBaseAddress).transferAll(_buyer,mortgage.getMortgagee(), _value,0,\"CLEAR_MORTGAGE\" );\n    address stoneCoinAddress = mortgage.getStoneCoinAddress();\n    clearMortgage(stoneCoinAddress, _buyer, mortgageAddress);\n    return _value;\n  }\n\n  function bidMortgaged(address _user, address mortgageRequestAddress, address stoneCoinAddress, uint64 downPaymentMicros, uint256 amount, uint256 limit_micros , address signDocument) public returns(bool successeded, uint256 available) {\n    validateBidCreation(_user,mortgageRequestAddress, stoneCoinAddress,signDocument);\n    CornerStoneBaseInt(cornerStoneBaseAddress).subBalance(_user, downPaymentMicros, stoneCoinAddress,\"BID_MORTGAGED\");\n    CornerStoneBaseInt(cornerStoneBaseAddress).addOwnerBalance(downPaymentMicros);\n\n    createBidMortgage(limit_micros, amount, downPaymentMicros, mortgageOperationsAddress, _user, stoneCoinAddress);\n    uint256 senderBalance = CornerStoneBaseInt(cornerStoneBaseAddress).balanceOf(_user);\n    emit BidMortgageCreated(msg.sender, stoneCoinAddress, amount, limit_micros, senderBalance);\n    return (true, senderBalance);\n  }\n\n  function validateBidCreation(address _user, address mortgageRequestAddress, address stoneCoinAddress, address signDocument) private {\n    require(MortgageRequestInt(mortgageRequestAddress).isApproved());\n    require(MortgageStoneStorageInt(storageAddress).bidAmount(_user, stoneCoinAddress) == 0);\n    if(signDocument != address(0)){\n       require(CornerStoneBaseInt(cornerStoneBaseAddress).checkSignature(signDocument,stoneCoinAddress));\n    }\n  }\n\n  function createBidMortgage(uint256 limit_micros, uint256 amount, uint256 downPaymentMicros, address mortgageRequestAddress, address _user, address stoneCoinAddress) private {\n    MortgageStoneStorageInt(storageAddress).createBid(limit_micros, amount, downPaymentMicros, true, mortgageRequestAddress, _user,  stoneCoinAddress);\n  }\n\n  function askMortgaged(address user, address mortgageAddress, address stoneCoinAddress, uint256 amount, uint256 limit_micros, address signDocument) public returns(bool) {\n    bool initialOffering = CornerStoneBaseInt(cornerStoneBaseAddress).isInitialOffering(stoneCoinAddress);\n    require(!initialOffering);\n    require(MortgageStoneStorageInt(storageAddress).askAmount(user, stoneCoinAddress) == 0);\n    require(CornerStoneBaseInt(cornerStoneBaseAddress).checkSignature(signDocument,stoneCoinAddress));\n\n    MortgageStoneStorageInt(storageAddress).createAsk(limit_micros,amount, true,  mortgageAddress, user, stoneCoinAddress);\n    emit AskMortgageCreated(user, stoneCoinAddress, amount, limit_micros);\n  }\n\n  function createTradeMortgage( uint64 key,\n    address _stoneCoinAddress,\n    address _buyer,\n    address _seller,\n    address _buyerMortgage,\n    address _sellerMortgage,\n    uint256 _amount,\n    uint256 _price) public onlyOwner {\n    if(_buyerMortgage != address(0)){\n      require(MortgageOperationsInt(mortgageOperationsAddress).isMortgageRegistered(_buyerMortgage));\n    }\n\n      require(MortgageStoneStorageInt(storageAddress).bidAmount(_buyer, _stoneCoinAddress) >= _amount);\n      uint256 _valueHold = MortgageStoneStorageInt(storageAddress).bidMortgageValueHold(_buyer, _stoneCoinAddress);\n      bool _bidMortgaged = MortgageStoneStorageInt(storageAddress).bidMortgaged(_buyer, _stoneCoinAddress);\n      bool _askMortgaged = MortgageStoneStorageInt(storageAddress).askMortgaged(_seller, _stoneCoinAddress);\n      uint256 _payAmount = _amount.mul(_price);\n      MortgageStoneStorageInt(storageAddress).createTradeMortgage(key, true, _stoneCoinAddress,\n        _buyer,\n        _seller,\n        _buyerMortgage,\n        _sellerMortgage,\n        _amount,\n        _price,\n        _payAmount,\n        _valueHold,\n        _bidMortgaged,\n        _askMortgaged\n      );\n      ////   require(stoneCoin.getMinBulkSize() <= _amount);\n      require(MortgageStoneStorageInt(storageAddress).askAmount(_seller, _stoneCoinAddress) >= _amount);\n\n      emit TradeMortgageCreated(key);\n  }\n\n  function bidTradeMortgaged( address buyerMortgage, address buyer,  uint256 valuePayed, address stoneCoin, uint256 _bidValueHold, uint256 amount, uint256 price) private onlyOwner {\n\n    if( MortgageStoneStorageInt(storageAddress).bidMortgaged(buyer, stoneCoin)){\n      calculateBidTrade(buyerMortgage, valuePayed, buyer, _bidValueHold,  amount,  price,  stoneCoin);\n    }\n    else{\n      require(MortgageStoneStorageInt(storageAddress).bidMortgageValueHold(buyer, stoneCoin) >= valuePayed);\n      CornerStoneBaseInt(cornerStoneBaseAddress).buy(stoneCoin, buyer, amount, price);\n      uint256 newValue =  MortgageStoneStorageInt(storageAddress).bidMortgageValueHold(buyer,stoneCoin).sub(valuePayed);\n      MortgageStoneStorageInt(storageAddress).setBidValueHold(stoneCoin,buyer,newValue);\n\n    }\n    require(MortgageStoneStorageInt(storageAddress).bidAmount(buyer,stoneCoin) >= 0);\n    uint256 newBidAmount = MortgageStoneStorageInt(storageAddress).bidAmount(buyer,stoneCoin).sub(amount);\n    MortgageStoneStorageInt(storageAddress).setBidAmount(stoneCoin,buyer, newBidAmount);\n\n    uint256 buyerValueHolds = MortgageStoneStorageInt(storageAddress).bidMortgageValueHold(buyer, stoneCoin);\n    if(MortgageStoneStorageInt(storageAddress).bidAmount(buyer, stoneCoin) == 0 && buyerValueHolds > 0 ){\n      CornerStoneBaseInt(cornerStoneBaseAddress).addBalance(buyer, buyerValueHolds, stoneCoin,\"BID_REQUEST\");\n      CornerStoneBaseInt(cornerStoneBaseAddress).subOwnerBalance( buyerValueHolds);\n      MortgageStoneStorageInt(storageAddress).setBidValueHold(stoneCoin, buyer, 0);\n    }\n\n  }\n\n  function calculateBidTrade(address buyerMortgage, uint256 valuePayed, address buyer, uint256 _bidValueHold, uint256 amount, uint256 price, address stoneCoin) private {\n    MortgageInt buyerMortgageInt = MortgageInt(buyerMortgage);\n    require(buyerMortgageInt.getBuyer() == buyer);\n    require(_bidValueHold.add(buyerMortgageInt.getLoanValue()) >= valuePayed);\n\n\n    if(MortgageStoneStorageInt(storageAddress).getMortgageeBalance(buyerMortgageInt.getMortgagee()) < buyerMortgageInt.getLoanValue()){\n      emit BuyerMortgageeInsufficientBalance();\n      return;\n    }\n\n    uint256  downPaymentMicro = buyerMortgageInt.getDownPayment();\n    uint256  mortgageeBalance =  MortgageStoneStorageInt(storageAddress).getMortgageeBalance(buyerMortgageInt.getMortgagee());\n    MortgageStoneStorageInt(storageAddress).setMortgageeBalance(buyerMortgageInt.getMortgagee(), mortgageeBalance.sub(valuePayed - downPaymentMicro));\n    uint256 newValueBid =MortgageStoneStorageInt(storageAddress).bidMortgageValueHold(buyer,stoneCoin).sub(downPaymentMicro);\n    MortgageStoneStorageInt(storageAddress).setBidValueHold(stoneCoin,buyer,newValueBid);\n\n    CornerStoneBaseInt(cornerStoneBaseAddress).buyMortgaged(stoneCoin, buyerMortgage, buyer, amount,price);\n\n  }\n\n  function askTradeMortgaged(uint64 key, address sellerMortgage,  address seller,  uint256 valuePayed,  address stoneCoin, uint256 amount , uint256 price) private onlyOwner {\n    require(MortgageStoneStorageInt(storageAddress).isTradeValid(key));\n    bool isInitialize = CornerStoneBaseInt(cornerStoneBaseAddress).isInitialOffering(stoneCoin);\n    if(MortgageStoneStorageInt(storageAddress).askMortgaged(seller, stoneCoin)){\n      MortgageInt mortgage = MortgageInt(sellerMortgage);\n      uint256 remainingLoanBalance = mortgage.getRemainingLoanBalance();\n      if(valuePayed > remainingLoanBalance){\n        uint256 transferToSeller = valuePayed.sub(remainingLoanBalance);\n        CornerStoneBaseInt(cornerStoneBaseAddress).addBalance(seller, transferToSeller, stoneCoin,\"TRADE\");\n        CornerStoneBaseInt(cornerStoneBaseAddress).subOwnerBalance( transferToSeller);\n        MortgageOperationsInt(mortgageOperationsAddress).clearance(sellerMortgage, remainingLoanBalance);\n      }else{\n        MortgageOperationsInt(mortgageOperationsAddress).clearance(sellerMortgage, valuePayed);\n      }\n      CornerStoneBaseInt(cornerStoneBaseAddress).sellMortgaged(stoneCoin ,sellerMortgage, seller, amount, price);\n    }else{\n      if(!isInitialize){\n        CornerStoneBaseInt(cornerStoneBaseAddress).addBalance(seller, valuePayed, stoneCoin,\"TRADE\");\n        CornerStoneBaseInt(cornerStoneBaseAddress).subOwnerBalance(valuePayed);\n      }\n      CornerStoneBaseInt(cornerStoneBaseAddress).sell(stoneCoin, seller, amount, price);\n    }\n    uint256 _askAmount = MortgageStoneStorageInt(storageAddress).askAmount(seller, stoneCoin);\n    require(_askAmount >= 0 && _askAmount >= amount );\n    MortgageStoneStorageInt(storageAddress).setAskAmount(stoneCoin, seller ,_askAmount.sub(amount));\n\n  }\n\n  function applyMortgageClearance(address mortgageAddress) public onlyOwner{\n    MortgageOperationsInt(mortgageOperationsAddress).applyMortgageClearance(mortgageAddress);\n  }\n\n  function tradeMortgaged(uint64 key) public onlyOwner {\n    require(MortgageStoneStorageInt(storageAddress).isTradeValid(key));\n    address seller = MortgageStoneStorageInt(storageAddress).getTradeSeller(key);\n    address stoneCoin = MortgageStoneStorageInt(storageAddress).getTradeStoneCoin(key);\n    uint256 amount = MortgageStoneStorageInt(storageAddress).getTradeAmount(key);\n    uint256 price = MortgageStoneStorageInt(storageAddress).getTradePrice(key);\n    address buyer = MortgageStoneStorageInt(storageAddress).getTradeBuyer(key);\n    address buyerMortgage = MortgageStoneStorageInt(storageAddress).getTradeBuyerMortgage(key);\n    uint256 valuePayed = MortgageStoneStorageInt(storageAddress).getTradeValuePayed(key);\n    uint256 _bidValueHold = MortgageStoneStorageInt(storageAddress).bidMortgageValueHold(buyer, stoneCoin);\n    address sellerMortgage = MortgageStoneStorageInt(storageAddress).getTradeSellerMortgage(key);\n    askTradeMortgaged(key, sellerMortgage, seller, valuePayed, stoneCoin, amount, price );\n    bidTradeMortgaged( buyerMortgage, buyer, valuePayed, stoneCoin, _bidValueHold, amount, price);\n\n    MortgageStoneStorageInt(storageAddress).setTradeValid(key, false);\n    emit TradeMortgaged(stoneCoin, buyer, seller, amount, price);\n  }\n\n  function transferMortgageBalance(address _buyer, uint256 _value, address mortgageAddress, address stoneCoinAddress)  public onlyOwner{\n    MortgageInt mortgage = MortgageInt(mortgageAddress);\n    CornerStoneBaseInt(cornerStoneBaseAddress).subBalance(_buyer, _value, stoneCoinAddress,\"MORTGAGE_BALANCE\");\n    CornerStoneBaseInt(cornerStoneBaseAddress).addOwnerBalance( _value);\n    // TODO\n    CornerStoneBaseInt(cornerStoneBaseAddress).addBalance(mortgage.getMortgagee(), _value, stoneCoinAddress,\"MORTGAGE_BALANCE\");\n    CornerStoneBaseInt(cornerStoneBaseAddress). subOwnerBalance(_value);\n    MortgageOperationsInt(mortgageOperationsAddress).payed(mortgageAddress);\n    uint256 clearances = mortgage.getTotalClearances();\n    if(clearances > 0){\n      CornerStoneBaseInt(cornerStoneBaseAddress).subOwnerBalance(clearances);\n      CornerStoneBaseInt(cornerStoneBaseAddress).addBalance(mortgage.getMortgagee(), clearances, stoneCoinAddress,\"MORTGAGE_BALANCE\");\n      applyMortgageClearance(mortgageAddress);\n    }\n  }\n\n  function clearMortgage(address stoneCoinAddress, address user, address mortgageAddress) public onlyOwner {\n    MortgageOperationsInt(mortgageOperationsAddress).clearMortgage(mortgageAddress);\n    CornerStoneBaseInt(cornerStoneBaseAddress).clearMortgage(stoneCoinAddress, user, mortgageAddress);\n\n  }\n\n  function partlyForfeitureMortgage(address stoneCoinAddress, address user, address mortgagee, address mortgageAddress, uint marketPriceMills, bool maxDefaulted) public onlyOwner {\n    CornerStoneBaseInt(cornerStoneBaseAddress).partlyForfeitureMortgage(stoneCoinAddress, user, mortgagee, mortgageAddress, marketPriceMills, maxDefaulted);\n    if(maxDefaulted){\n      MortgageOperationsInt(mortgageOperationsAddress).clearMortgage(mortgageAddress);\n    }\n  }\n\n}\n",
    "sourcePath": "/Users/roilandshut/projects/brikoin/brikoin/contracts/MortgageStone.sol",
    "compiler": {
        "name": "solc",
        "version": "0.4.24+commit.e67f0147.Emscripten.clang"
    },
    "schemaVersion": "2.0.1",
    "updatedAt": "2019-10-27T14:12:10.942Z"
}