{
    "contractName": "MortgageOperations",
    "abi": [
        {
            "constant": true,
            "inputs": [
                {
                    "name": "",
                    "type": "address"
                }
            ],
            "name": "owners",
            "outputs": [
                {
                    "name": "",
                    "type": "bool"
                }
            ],
            "payable": false,
            "stateMutability": "view",
            "type": "function"
        },
        {
            "constant": false,
            "inputs": [
                {
                    "name": "_newOwner",
                    "type": "address"
                }
            ],
            "name": "setOwner",
            "outputs": [],
            "payable": false,
            "stateMutability": "nonpayable",
            "type": "function"
        },
        {
            "constant": true,
            "inputs": [],
            "name": "getAddress",
            "outputs": [
                {
                    "name": "",
                    "type": "address"
                }
            ],
            "payable": false,
            "stateMutability": "view",
            "type": "function"
        },
        {
            "constant": false,
            "inputs": [
                {
                    "name": "_newOwner",
                    "type": "address"
                }
            ],
            "name": "removeOwnership",
            "outputs": [],
            "payable": false,
            "stateMutability": "nonpayable",
            "type": "function"
        },
        {
            "constant": true,
            "inputs": [],
            "name": "owner",
            "outputs": [
                {
                    "name": "",
                    "type": "address"
                }
            ],
            "payable": false,
            "stateMutability": "view",
            "type": "function"
        },
        {
            "constant": true,
            "inputs": [
                {
                    "name": "user",
                    "type": "address"
                }
            ],
            "name": "isOwnable",
            "outputs": [
                {
                    "name": "",
                    "type": "bool"
                }
            ],
            "payable": false,
            "stateMutability": "view",
            "type": "function"
        },
        {
            "constant": false,
            "inputs": [
                {
                    "name": "_newOwner",
                    "type": "address"
                }
            ],
            "name": "addOwnership",
            "outputs": [],
            "payable": false,
            "stateMutability": "nonpayable",
            "type": "function"
        },
        {
            "inputs": [],
            "payable": false,
            "stateMutability": "nonpayable",
            "type": "constructor"
        },
        {
            "anonymous": false,
            "inputs": [
                {
                    "indexed": false,
                    "name": "mortgage",
                    "type": "address"
                },
                {
                    "indexed": false,
                    "name": "stoneCoin",
                    "type": "address"
                },
                {
                    "indexed": false,
                    "name": "mortgagee",
                    "type": "address"
                },
                {
                    "indexed": false,
                    "name": "requester",
                    "type": "address"
                },
                {
                    "indexed": false,
                    "name": "mortgageRequest",
                    "type": "address"
                },
                {
                    "indexed": false,
                    "name": "mortgageeCondition",
                    "type": "address"
                }
            ],
            "name": "MortgageCreated",
            "type": "event"
        },
        {
            "anonymous": false,
            "inputs": [
                {
                    "indexed": true,
                    "name": "previousOwner",
                    "type": "address"
                }
            ],
            "name": "OwnershipRenounced",
            "type": "event"
        },
        {
            "anonymous": false,
            "inputs": [
                {
                    "indexed": true,
                    "name": "previousOwner",
                    "type": "address"
                },
                {
                    "indexed": true,
                    "name": "newOwner",
                    "type": "address"
                }
            ],
            "name": "OwnershipTransferred",
            "type": "event"
        },
        {
            "constant": false,
            "inputs": [
                {
                    "name": "_mortgageeAddress",
                    "type": "address"
                },
                {
                    "name": "_stoneCoinAddress",
                    "type": "address"
                },
                {
                    "name": "_mortgageRequestAddress",
                    "type": "address"
                },
                {
                    "name": "_key",
                    "type": "uint256"
                },
                {
                    "name": "baseStoneAddress",
                    "type": "address"
                }
            ],
            "name": "createExternalMortgage",
            "outputs": [
                {
                    "name": "",
                    "type": "address"
                }
            ],
            "payable": false,
            "stateMutability": "nonpayable",
            "type": "function"
        },
        {
            "constant": false,
            "inputs": [
                {
                    "name": "mortgageOwner",
                    "type": "address"
                },
                {
                    "name": "_mortgageeAddress",
                    "type": "address"
                },
                {
                    "name": "_stoneCoinAddress",
                    "type": "address"
                },
                {
                    "name": "_mortgageRequestAddress",
                    "type": "address"
                },
                {
                    "name": "_mortgageeConditionAddress",
                    "type": "address"
                },
                {
                    "name": "_key",
                    "type": "uint256"
                },
                {
                    "name": "isExternal",
                    "type": "bool"
                },
                {
                    "name": "baseStoneAddress",
                    "type": "address"
                }
            ],
            "name": "createMortgage",
            "outputs": [
                {
                    "name": "",
                    "type": "address"
                }
            ],
            "payable": false,
            "stateMutability": "nonpayable",
            "type": "function"
        },
        {
            "constant": true,
            "inputs": [
                {
                    "name": "_key",
                    "type": "uint256"
                }
            ],
            "name": "lastMortgage",
            "outputs": [
                {
                    "name": "",
                    "type": "address"
                }
            ],
            "payable": false,
            "stateMutability": "view",
            "type": "function"
        },
        {
            "constant": false,
            "inputs": [
                {
                    "name": "mortgageAddress",
                    "type": "address"
                }
            ],
            "name": "payed",
            "outputs": [],
            "payable": false,
            "stateMutability": "nonpayable",
            "type": "function"
        },
        {
            "constant": false,
            "inputs": [
                {
                    "name": "mortgageAddress",
                    "type": "address"
                }
            ],
            "name": "applyMortgageClearance",
            "outputs": [],
            "payable": false,
            "stateMutability": "nonpayable",
            "type": "function"
        },
        {
            "constant": false,
            "inputs": [
                {
                    "name": "mortgageAddress",
                    "type": "address"
                }
            ],
            "name": "defaulted",
            "outputs": [],
            "payable": false,
            "stateMutability": "nonpayable",
            "type": "function"
        },
        {
            "constant": false,
            "inputs": [
                {
                    "name": "mortgageAddress",
                    "type": "address"
                },
                {
                    "name": "valuePayed",
                    "type": "uint256"
                }
            ],
            "name": "clearance",
            "outputs": [],
            "payable": false,
            "stateMutability": "nonpayable",
            "type": "function"
        },
        {
            "constant": false,
            "inputs": [
                {
                    "name": "mortgageAddress",
                    "type": "address"
                }
            ],
            "name": "clearMortgage",
            "outputs": [],
            "payable": false,
            "stateMutability": "nonpayable",
            "type": "function"
        },
        {
            "constant": true,
            "inputs": [
                {
                    "name": "mortgageAddress",
                    "type": "address"
                }
            ],
            "name": "isMortgageRegistered",
            "outputs": [
                {
                    "name": "",
                    "type": "bool"
                }
            ],
            "payable": false,
            "stateMutability": "view",
            "type": "function"
        }
    ],
    "bytecode": "0x608060405234801561001057600080fd5b50336000818152602081905260409020805460ff191660019081179091558054600160a060020a0319169091179055612e018061004e6000396000f3006080604052600436106100cc5763ffffffff60e060020a600035041663022914a781146100d15780630b96c4571461010657806313af40351461012c578063220871ff1461014d57806338cc4831146101815780635c44838814610196578063666a3427146101cd5780636eba2823146101ee5780638015da191461020f57806382fef30e146102305780638da5cb5b14610251578063bd29d39014610266578063e395ea7a14610287578063e3c72cdb146102d0578063e88914de146102f1578063f5a55ff614610312575b600080fd5b3480156100dd57600080fd5b506100f2600160a060020a0360043516610333565b604080519115158252519081900360200190f35b34801561011257600080fd5b5061012a600160a060020a0360043516602435610348565b005b34801561013857600080fd5b5061012a600160a060020a03600435166103cf565b34801561015957600080fd5b5061016560043561041c565b60408051600160a060020a039092168252519081900360200190f35b34801561018d57600080fd5b50610165610437565b3480156101a257600080fd5b50610165600160a060020a03600435811690602435811690604435811690606435906084351661043b565b3480156101d957600080fd5b5061012a600160a060020a03600435166105e8565b3480156101fa57600080fd5b5061012a600160a060020a0360043516610612565b34801561021b57600080fd5b5061012a600160a060020a036004351661068d565b34801561023c57600080fd5b5061012a600160a060020a03600435166106ec565b34801561025d57600080fd5b5061016561077b565b34801561027257600080fd5b5061012a600160a060020a036004351661078a565b34801561029357600080fd5b50610165600160a060020a0360043581169060243581169060443581169060643581169060843581169060a4359060c43515159060e435166107e9565b3480156102dc57600080fd5b506100f2600160a060020a0360043516610c42565b3480156102fd57600080fd5b506100f2600160a060020a0360043516610cb9565b34801561031e57600080fd5b5061012a600160a060020a0360043516610cd7565b60006020819052908152604090205460ff1681565b3360009081526020819052604081205460ff16151561036657600080fd5b82905080600160a060020a031663a6e63d1f836040518263ffffffff1660e060020a02815260040180828152602001915050600060405180830381600087803b1580156103b257600080fd5b505af11580156103c6573d6000803e3d6000fd5b50505050505050565b3360009081526020819052604090205460ff1615156103ed57600080fd5b6001805473ffffffffffffffffffffffffffffffffffffffff1916600160a060020a0392909216919091179055565b600090815260036020526040902054600160a060020a031690565b3090565b6000806000859150868883600160a060020a031663cd1e07176040518163ffffffff1660e060020a028152600401602060405180830381600087803b15801561048357600080fd5b505af1158015610497573d6000803e3d6000fd5b505050506040513d60208110156104ad57600080fd5b505188600060016104bc610da7565b600160a060020a039687168152948616602086015292851660408086019190915291851660608501529093166080830152151560a082015290519081900360c001906000f080158015610513573d6000803e3d6000fd5b50905080600160a060020a0316638d0d7af7856040518263ffffffff1660e060020a0281526004018082600160a060020a0316600160a060020a03168152602001915050600060405180830381600087803b15801561057157600080fd5b505af1158015610585573d6000803e3d6000fd5b505050600095865250600360209081526040808720805473ffffffffffffffffffffffffffffffffffffffff1916600160a060020a03858116919091179091559790971686526002905294909320805460ff191660011790555091949350505050565b3360009081526020819052604090205460ff16151561060657600080fd5b61060f81610cfe565b50565b3360009081526020819052604081205460ff16151561063057600080fd5b81905080600160a060020a031663e8588c2f6040518163ffffffff1660e060020a028152600401600060405180830381600087803b15801561067157600080fd5b505af1158015610685573d6000803e3d6000fd5b505050505050565b3360009081526020819052604081205460ff1615156106ab57600080fd5b81905080600160a060020a03166356e4bc1f6040518163ffffffff1660e060020a028152600401600060405180830381600087803b15801561067157600080fd5b3360009081526020819052604081205460ff16151561070a57600080fd5b81905080600160a060020a0316636bdedb336040518163ffffffff1660e060020a028152600401602060405180830381600087803b15801561074b57600080fd5b505af115801561075f573d6000803e3d6000fd5b505050506040513d602081101561077557600080fd5b50505050565b600154600160a060020a031681565b3360009081526020819052604081205460ff1615156107a857600080fd5b81905080600160a060020a03166369e25ec16040518163ffffffff1660e060020a028152600401600060405180830381600087803b15801561067157600080fd5b6000806000808515610809576108028b8b8b8a8961043b565b9350610c33565b87925088915087600160a060020a031682600160a060020a0316635f3112146040518163ffffffff1660e060020a028152600401602060405180830381600087803b15801561085757600080fd5b505af115801561086b573d6000803e3d6000fd5b505050506040513d602081101561088157600080fd5b5051600160a060020a03161461089657600080fd5b82600160a060020a03166322f3e2d46040518163ffffffff1660e060020a028152600401602060405180830381600087803b1580156108d457600080fd5b505af11580156108e8573d6000803e3d6000fd5b505050506040513d60208110156108fe57600080fd5b5051151561090b57600080fd5b600160a060020a03891660009081526002602052604090205460ff161561093157600080fd5b898b83600160a060020a031663cd1e07176040518163ffffffff1660e060020a028152600401602060405180830381600087803b15801561097157600080fd5b505af1158015610985573d6000803e3d6000fd5b505050506040513d602081101561099b57600080fd5b50518b8b60006109a9610da7565b600160a060020a039687168152948616602086015292851660408086019190915291851660608501529093166080830152151560a082015290519081900360c001906000f080158015610a00573d6000803e3d6000fd5b50905080600160a060020a031663f5a55ff68d6040518263ffffffff1660e060020a0281526004018082600160a060020a0316600160a060020a03168152602001915050600060405180830381600087803b158015610a5e57600080fd5b505af1158015610a72573d6000803e3d6000fd5b5050505080600160a060020a0316638d0d7af7866040518263ffffffff1660e060020a0281526004018082600160a060020a0316600160a060020a03168152602001915050600060405180830381600087803b158015610ad157600080fd5b505af1158015610ae5573d6000803e3d6000fd5b50505050806003600089815260200190815260200160002060006101000a815481600160a060020a030219169083600160a060020a031602179055506001600260008b600160a060020a0316600160a060020a0316815260200190815260200160002060006101000a81548160ff0219169083151502179055507fa084b6796894acd56c0c3a82b28320c58b8c232206096f559abb5bf779562c28818b8d85600160a060020a031663cd1e07176040518163ffffffff1660e060020a028152600401602060405180830381600087803b158015610bc157600080fd5b505af1158015610bd5573d6000803e3d6000fd5b505050506040513d6020811015610beb57600080fd5b505160408051600160a060020a03958616815293851660208501529184168383015283166060830152828d166080830152918b1660a082015290519081900360c00190a18093505b50505098975050505050505050565b60008082905080600160a060020a031663e9c17c3e6040518163ffffffff1660e060020a028152600401602060405180830381600087803b158015610c8657600080fd5b505af1158015610c9a573d6000803e3d6000fd5b505050506040513d6020811015610cb057600080fd5b50519392505050565b600160a060020a031660009081526020819052604090205460ff1690565b3360009081526020819052604090205460ff161515610cf557600080fd5b61060f81610d34565b600160a060020a0381161515610d1357600080fd5b600160a060020a03166000908152602081905260409020805460ff19169055565b600160a060020a0381161515610d4957600080fd5b600154604051600160a060020a038084169216907f8be0079c531659141344cd1fd0a4f28419497f9722a3daafe3b4186f6b6457e090600090a3600160a060020a03166000908152602081905260409020805460ff19166001179055565b60405161201e80610db8833901905600608060405234801561001057600080fd5b5060405160c08061201e8339810160409081528151602080840151838501516060860151608087015160a090970151336000818152958690529685208054600160ff199182168117909255815460028054600160a060020a0319908116600160a060020a039b8c1617909155600380548216988b1698909817909755600480548816968a169690961790955560058054871694891694909417909355600680548616979099169690961790975560128054601386905582168617610100605060020a0319169055600c80546009869055600b86905561ffff19169055600f805490911690558116841760a060020a60ff0219167401000000000000000000000000000000000000000095151595909502949094179093169091179055611ee290819061013c90396000f3006080604052600436106101b65763ffffffff7c0100000000000000000000000000000000000000000000000000000000600035041663022914a781146101bb57806313af4035146101f05780631832ca2e1461021357806329b293ab1461023a5780632f29a0621461024f578063371c9e061461028057806338cc4831146102955780634538f92f146102aa578063485d498a146102bf5780634a7d7e45146102f15780634ae01cdc1461030657806356e4bc1f1461031b578063603daf9a14610330578063666a34271461034557806369e25ec1146103665780636bdedb331461037b57806372d1e548146103905780638a7ce01c146103a55780638d0d7af7146104035780638da5cb5b146104245780639db47b7714610439578063a24166ef1461044e578063a6e63d1f14610463578063ae47b9d71461047b578063d26c5c3114610490578063d6dd04f7146104a5578063dbd8612e146104ba578063e8588c2f14610390578063e88914de146104cf578063e9c17c3e146104f0578063f2ab76cf14610505578063f4f8057d1461051a578063f5a55ff61461052f578063f783ba4614610550578063fa3f8f611461056b575b600080fd5b3480156101c757600080fd5b506101dc600160a060020a0360043516610580565b604080519115158252519081900360200190f35b3480156101fc57600080fd5b50610211600160a060020a0360043516610595565b005b34801561021f57600080fd5b506102286105e2565b60408051918252519081900360200190f35b34801561024657600080fd5b506101dc6107a4565b34801561025b57600080fd5b506102646107ad565b60408051600160a060020a039092168252519081900360200190f35b34801561028c57600080fd5b506102286107bc565b3480156102a157600080fd5b50610264610850565b3480156102b657600080fd5b50610264610854565b3480156102cb57600080fd5b506102d4610863565b6040805167ffffffffffffffff9092168252519081900360200190f35b3480156102fd57600080fd5b50610228610873565b34801561031257600080fd5b50610228610879565b34801561032757600080fd5b50610211610a1d565b34801561033c57600080fd5b50610264610ac6565b34801561035157600080fd5b50610211600160a060020a0360043516610ad5565b34801561037257600080fd5b50610211610aff565b34801561038757600080fd5b50610228610c02565b34801561039c57600080fd5b50610211610f13565b3480156103b157600080fd5b5061021167ffffffffffffffff6004358116906024358116906044358116906064358116906084359060a4359060c4359060e43590610104358116906101243590610144358116906101643516610f42565b34801561040f57600080fd5b50610211600160a060020a0360043516611861565b34801561043057600080fd5b506102646118ae565b34801561044557600080fd5b506102286118bd565b34801561045a57600080fd5b5061021161191f565b34801561046f57600080fd5b5061021160043561193d565b34801561048757600080fd5b50610228611ab0565b34801561049c57600080fd5b50610228611ab6565b3480156104b157600080fd5b50610228611b18565b3480156104c657600080fd5b50610228611b7a565b3480156104db57600080fd5b506101dc600160a060020a0360043516611b80565b3480156104fc57600080fd5b506101dc611b9e565b34801561051157600080fd5b506101dc611ba7565b34801561052657600080fd5b50610228611bc8565b34801561053b57600080fd5b50610211600160a060020a0360043516611bce565b34801561055c57600080fd5b50610211600435602435611bf5565b34801561057757600080fd5b50610228611c24565b60006020819052908152604090205460ff1681565b3360009081526020819052604090205460ff1615156105b357600080fd5b6001805473ffffffffffffffffffffffffffffffffffffffff1916600160a060020a0392909216919091179055565b60006105ec611e32565b600c54600090610100900460ff1615610608576000925061079f565b600c5460ff161561061d57601154925061079f565b60015474010000000000000000000000000000000000000000900460ff161561064f57610648611ab6565b925061079f565b60095460158054909190811061066157fe5b60009182526020918290206040805161020081018252600b909302909101805460ff8082161515855261010080830482161515968601969096526201000082041615159284019290925267ffffffffffffffff63010000008304811660608501526b010000000000000000000000830481166080850152730100000000000000000000000000000000000000909204821660a08401526001810154821660c0840152600281015460e08401526003810154938301939093526004830154610120830152600583015461014083018190526006840154821661016084015260078401546101808401819052600885015483166101a085015260098501546101c0850152600a909401549091166101e0830152909350610785919063ffffffff611d6416565b905061079c60105482611d7790919063ffffffff16565b92505b505090565b600c5460ff1690565b600354600160a060020a031690565b600654604080517fda82485e0000000000000000000000000000000000000000000000000000000081529051600092600160a060020a031691829163da82485e9160048082019260209290919082900301818887803b15801561081e57600080fd5b505af1158015610832573d6000803e3d6000fd5b505050506040513d602081101561084857600080fd5b505191505090565b3090565b600254600160a060020a031690565b60145467ffffffffffffffff1690565b60105490565b6000610883611e32565b600c54600090819060ff161561089857600080fd5b6009546015805490919081106108aa57fe5b60009182526020918290206040805161020081018252600b909302909101805460ff8082161515855261010080830482161515968601969096526201000082041615159284019290925267ffffffffffffffff63010000008304811660608501526b010000000000000000000000830481166080850152730100000000000000000000000000000000000000909204821660a08401526001810154821660c0840152600281015460e0840152600381015493830193909352600483015461012083015260058301546101408301526006830154811661016083015260078301546101808301819052600884015482166101a084015260098401546101c0840152600a90930154166101e0820152601054909450909250821015610a055760a08301516109e790839067ffffffffffffffff1663ffffffff611d6416565b90506109fe60105482611d7790919063ffffffff16565b9350610a17565b8260a0015167ffffffffffffffff1693505b50505090565b3360009081526020819052604090205460ff161515610a3b57600080fd5b600954601580549091908110610a4d57fe5b60009182526020909120600b909102015460ff161515610a6c57600080fd5b60095460158054600192908110610a7f57fe5b60009182526020909120600b9091020180549115156101000261ff001990921691909117905560098054600a81905560010190556014805467ffffffffffffffff19169055565b600454600160a060020a031690565b3360009081526020819052604090205460ff161515610af357600080fd5b610afc81611d89565b50565b3360009081526020819052604090205460ff161515610b1d57600080fd5b60015474010000000000000000000000000000000000000000900460ff161515610bdc5760125460158054909162010000900467ffffffffffffffff16908110610b6357fe5b60009182526020909120600b909102015460ff161515610b8257600080fd5b6012546015805460019262010000900467ffffffffffffffff16908110610ba557fe5b60009182526020909120600b909102018054911515620100000262ff00001990921691909117905560098054600a81905560010190555b6014805467ffffffffffffffff8082166001011667ffffffffffffffff19909116179055565b6000610c0c611e32565b336000908152602081905260408120548190819060ff161515610c2e57600080fd5b600c5460ff1615610c3e57600080fd5b60095460158054909160001901908110610c5457fe5b60009182526020918290206040805161020081018252600b909302909101805460ff8082161515855261010080830482161515968601969096526201000082041615159284019290925267ffffffffffffffff63010000008304811660608501526b010000000000000000000000830481166080850152730100000000000000000000000000000000000000909204821660a08401526001810154821660c0840152600281015460e0840152600381015493830193909352600483015461012083015260058301546101408301526006830154811661016083015260078301546101808301819052600884015482166101a084015260098401546101c0840152600a90930154166101e0820152601054909550909350831115610d9657600c805460ff19166001179055601054610d9290849063ffffffff611d7716565b6011555b600091506000600b5410158015610db05750600b54601654115b15610ed95750600b545b601654811115610e6f576001601682815481101515610dd557fe5b906000526020600020906004020160000160016101000a81548160ff021916908315150217905550610e30601682815481101515610e0f57fe5b90600052602060002090600402016003015483611d6490919063ffffffff16565b9150610e65601682815481101515610e4457fe5b90600052602060002090600402016003015486611d6490919063ffffffff16565b9450600101610dba565b601654600b55601354610e88908363ffffffff611d6416565b601355506009545b601554811015610ed357601580546000919083908110610eac57fe5b60009182526020909120600b90910201805460ff1916911515919091179055600101610e90565b60006010555b6040805183815290517fdde62efc77808b293e650e1bf0324d6bf7833f2dfaa077f252a87c83c9ea2f359181900360200190a15050505090565b3360009081526020819052604090205460ff161515610f3157600080fd5b600c805461ff001916610100179055565b33600090815260208190526040812054819060ff161515610f6257600080fd5b5050600654600554604080517ffcbc6d690000000000000000000000000000000000000000000000000000000081529051600160a060020a039384169390921691839163fcbc6d699160048083019260209291908290030181600087803b158015610fcc57600080fd5b505af1158015610fe0573d6000803e3d6000fd5b505050506040513d6020811015610ff657600080fd5b505167ffffffffffffffff8516111561100e57600080fd5b6010541561101b57600080fd5b8d67ffffffffffffffff1681600160a060020a03166306bff47b6040518163ffffffff167c0100000000000000000000000000000000000000000000000000000000028152600401602060405180830381600087803b15801561107d57600080fd5b505af1158015611091573d6000803e3d6000fd5b505050506040513d60208110156110a757600080fd5b505110156110b457600080fd5b60006011819055506000600c60006101000a81548160ff021916908315150217905550601260030161020060405190810160405280600115158152602001600015158152602001600015158152602001600067ffffffffffffffff168152602001600067ffffffffffffffff168152602001600067ffffffffffffffff168152602001600067ffffffffffffffff16815260200160008152602001600081526020016000815260200160008152602001600067ffffffffffffffff16815260200160008152602001600067ffffffffffffffff16815260200160008152602001600067ffffffffffffffff168152509080600181540180825580915050906001820390600052602060002090600b02016000909192909190915060008201518160000160006101000a81548160ff02191690831515021790555060208201518160000160016101000a81548160ff02191690831515021790555060408201518160000160026101000a81548160ff02191690831515021790555060608201518160000160036101000a81548167ffffffffffffffff021916908367ffffffffffffffff160217905550608082015181600001600b6101000a81548167ffffffffffffffff021916908367ffffffffffffffff16021790555060a08201518160000160136101000a81548167ffffffffffffffff021916908367ffffffffffffffff16021790555060c08201518160010160006101000a81548167ffffffffffffffff021916908367ffffffffffffffff16021790555060e082015181600201556101008201518160030155610120820151816004015561014082015181600501556101608201518160060160006101000a81548167ffffffffffffffff021916908367ffffffffffffffff16021790555061018082015181600701556101a08201518160080160006101000a81548167ffffffffffffffff021916908367ffffffffffffffff1602179055506101c082015181600901556101e082015181600a0160006101000a81548167ffffffffffffffff021916908367ffffffffffffffff160217905550505050600160126003018f67ffffffffffffffff168154811015156113dc57fe5b60009182526020909120600b90910201805460ff1916911515919091179055601580548f919067ffffffffffffffff831690811061141657fe5b90600052602060002090600b020160000160036101000a81548167ffffffffffffffff021916908367ffffffffffffffff1602179055508c60126003018f67ffffffffffffffff1681548110151561146a57fe5b90600052602060002090600b0201600001600b6101000a81548167ffffffffffffffff021916908367ffffffffffffffff1602179055508b60126003018f67ffffffffffffffff168154811015156114be57fe5b90600052602060002090600b020160000160136101000a81548167ffffffffffffffff021916908367ffffffffffffffff1602179055508a60126003018f67ffffffffffffffff1681548110151561151257fe5b90600052602060002090600b020160010160006101000a81548167ffffffffffffffff021916908367ffffffffffffffff1602179055508960126003018f67ffffffffffffffff1681548110151561156657fe5b90600052602060002090600b0201600201819055508860126003018f67ffffffffffffffff1681548110151561159857fe5b90600052602060002090600b0201600901819055508760126003018f67ffffffffffffffff168154811015156115ca57fe5b90600052602060002090600b0201600401819055508660126003018f67ffffffffffffffff168154811015156115fc57fe5b90600052602060002090600b0201600501819055508560126003018f67ffffffffffffffff1681548110151561162e57fe5b90600052602060002090600b020160060160006101000a81548167ffffffffffffffff021916908367ffffffffffffffff1602179055508460126003018f67ffffffffffffffff1681548110151561168257fe5b90600052602060002090600b0201600701819055508360126003018f67ffffffffffffffff168154811015156116b457fe5b90600052602060002090600b020160080160006101000a81548167ffffffffffffffff021916908367ffffffffffffffff1602179055508260126003018f67ffffffffffffffff1681548110151561170857fe5b90600052602060002090600b0201600a0160006101000a81548167ffffffffffffffff021916908367ffffffffffffffff1602179055508d60010167ffffffffffffffff1681600160a060020a03166306bff47b6040518163ffffffff167c0100000000000000000000000000000000000000000000000000000000028152600401602060405180830381600087803b1580156117a457600080fd5b505af11580156117b8573d6000803e3d6000fd5b505050506040513d60208110156117ce57600080fd5b5051141561181d576012805461ff0019166101001790556040805130815290517f277927f9986c738ae60340b2ca0fe5442372b72868e1087d06b8a4121ff095559181900360200190a1611851565b6040805130815290517f26e60f3c74c4d5a783dacde033ea89c53b034107dd417e72c7a5a8b6ec5244ff9181900360200190a15b5050505050505050505050505050565b3360009081526020819052604090205460ff16151561187f57600080fd5b6007805473ffffffffffffffffffffffffffffffffffffffff1916600160a060020a0392909216919091179055565b600154600160a060020a031681565b600554604080517f9db47b770000000000000000000000000000000000000000000000000000000081529051600092600160a060020a0316918291639db47b779160048082019260209290919082900301818887803b15801561081e57600080fd5b3360009081526020819052604090205460ff161515610bdc57600080fd5b3360009081526020819052604090205460ff16151561195b57600080fd5b6040805160a0810182526001808252600060208301818152600954948401948552426060850190815260808501878152601680549586018155909352935160049093027fd833147d7dc355ba459fc788f669e58cfaf9dc25ddcd0702e87d69c7b512428981018054925115156101000261ff001995151560ff1990941693909317949094169190911790925592517fd833147d7dc355ba459fc788f669e58cfaf9dc25ddcd0702e87d69c7b512428a82015590517fd833147d7dc355ba459fc788f669e58cfaf9dc25ddcd0702e87d69c7b512428b82015590517fd833147d7dc355ba459fc788f669e58cfaf9dc25ddcd0702e87d69c7b512428c90910155601054611a6d908263ffffffff611d6416565b601055600954604080519182526020820183905280517f53aaa7481b225589a515a273d66ea07c9b39e8448b2f615d99c9b8a747cfe6369281900390910190a150565b600a5490565b600554604080517f2929c6e60000000000000000000000000000000000000000000000000000000081529051600092600160a060020a0316918291632929c6e69160048082019260209290919082900301818887803b15801561081e57600080fd5b600554604080517fd6dd04f70000000000000000000000000000000000000000000000000000000081529051600092600160a060020a031691829163d6dd04f79160048082019260209290919082900301818887803b15801561081e57600080fd5b60095490565b600160a060020a031660009081526020819052604090205460ff1690565b600f5460ff1690565b60015474010000000000000000000000000000000000000000900460ff1690565b60115490565b3360009081526020819052604090205460ff161515611bec57600080fd5b610afc81611dbf565b600354600160a060020a03163314611c0c57600080fd5b600d91909155600e55600f805460ff19166001179055565b6000611c2e611e32565b60125460158054909162010000900467ffffffffffffffff16908110611c5057fe5b60009182526020918290206040805161020081018252600b909302909101805460ff8082161515855261010080830482161515968601969096526201000082041615159284019290925267ffffffffffffffff63010000008304811660608501526b010000000000000000000000830481166080850152730100000000000000000000000000000000000000909204821660a084018190526001820154831660c0850152600282015460e085015260038201549484019490945260048101546101208401526005810154610140840152600681015482166101608401526007810154610180840152600881015482166101a084015260098101546101c0840152600a0154166101e082015290925090505090565b81810182811015611d7157fe5b92915050565b600082821115611d8357fe5b50900390565b600160a060020a0381161515611d9e57600080fd5b600160a060020a03166000908152602081905260409020805460ff19169055565b600160a060020a0381161515611dd457600080fd5b600154604051600160a060020a038084169216907f8be0079c531659141344cd1fd0a4f28419497f9722a3daafe3b4186f6b6457e090600090a3600160a060020a03166000908152602081905260409020805460ff19166001179055565b6040805161020081018252600080825260208201819052918101829052606081018290526080810182905260a0810182905260c0810182905260e08101829052610100810182905261012081018290526101408101829052610160810182905261018081018290526101a081018290526101c081018290526101e0810191909152905600a165627a7a723058209080324701d68f2be7ec7005d89955c88156b5e868285fdaa72f43fc5e40f8dc0029a165627a7a7230582047e1f3759953bac9b2f1495c3fb6c07eab7d6789ccd2b44fdbba92be9e15cc310029",
    "source": "pragma solidity ^0.4.0;\nimport \"openzeppelin-solidity/contracts/token/ERC20/StandardToken.sol\";\nimport \"openzeppelin-solidity/contracts/ownership/Ownable.sol\";\nimport 'openzeppelin-solidity/contracts/math/SafeMath.sol';\nimport \"./structures/MortgageRequest.sol\";\nimport \"./Mortgage.sol\";\nimport \"./interfaces/MortgageOperationsInt.sol\";\nimport \"./interfaces/Ownables.sol\";\n\n\ncontract MortgageOperations is Ownables, MortgageOperationsInt{\n    using SafeMath for uint256;\n    event MortgageCreated(  address mortgage,\n        address stoneCoin,\n        address mortgagee,\n        address requester,\n        address mortgageRequest,\n        address mortgageeCondition);\n\n    mapping (address => bool) mortgageRequests;\n    mapping (uint256 => address)  lastMortgageAddress;\n\n    constructor( ) public Ownables() {\n    }\n    function createExternalMortgage(address _mortgageeAddress,\n        address _stoneCoinAddress, address _mortgageRequestAddress, uint256 _key, address baseStoneAddress) public returns(address){\n        MortgageRequest mortgageRequest = MortgageRequest(_mortgageRequestAddress);\n        Mortgage mortgage = new Mortgage( _stoneCoinAddress,\n            _mortgageeAddress,\n            mortgageRequest.getRequester(),\n            _mortgageRequestAddress,\n            0, true);\n        mortgage.setCornerStoneBase(baseStoneAddress);\n        lastMortgageAddress[_key] = address(mortgage);\n        mortgageRequests[_mortgageRequestAddress] = true;\n        return address(mortgage);\n    }\n\n    function createMortgage(address mortgageOwner, address _mortgageeAddress,\n        address _stoneCoinAddress,\n        address _mortgageRequestAddress,\n        address _mortgageeConditionAddress, uint256 _key, bool isExternal, address baseStoneAddress) public returns(address) {\n        if(isExternal){\n            return createExternalMortgage(_mortgageeAddress, _stoneCoinAddress, _mortgageRequestAddress, _key, baseStoneAddress);\n        }\n        MortgageeCondition mortgageCondition = MortgageeCondition(_mortgageeConditionAddress);\n        MortgageRequest mortgageRequest = MortgageRequest(_mortgageRequestAddress);\n        require(mortgageRequest.getMortgageCondition() == _mortgageeConditionAddress);\n\n        require(mortgageCondition.isActive());\n        require(mortgageRequests[_mortgageRequestAddress] == false);\n        Mortgage mortgage = new Mortgage( _stoneCoinAddress,\n            _mortgageeAddress,\n            mortgageRequest.getRequester(),\n            _mortgageRequestAddress,\n            _mortgageeConditionAddress, false);\n        mortgage.addOwnership(mortgageOwner);\n        mortgage.setCornerStoneBase(baseStoneAddress);\n        lastMortgageAddress[_key] = address(mortgage);\n        mortgageRequests[_mortgageRequestAddress] = true;\n        emit MortgageCreated(mortgage,\n            _stoneCoinAddress,\n            _mortgageeAddress,\n            mortgageRequest.getRequester(),\n            _mortgageRequestAddress,\n            _mortgageeConditionAddress);\n        return address(mortgage);\n    }\n\n    function lastMortgage(uint256 _key) public view returns (address) {\n        return lastMortgageAddress[_key];\n    }\n\n\n    function payed(address mortgageAddress) public onlyOwner {\n        Mortgage mortgage = Mortgage(mortgageAddress);\n        return mortgage.payed();\n    }\n\n    function applyMortgageClearance(address mortgageAddress)  public onlyOwner{\n        Mortgage mortgage = Mortgage(mortgageAddress);\n        mortgage.applyClearances();\n    }\n    function defaulted(address mortgageAddress) public onlyOwner {\n        Mortgage mortgage = Mortgage(mortgageAddress);\n        return mortgage.defaulted();\n    }\n\n\n    function clearance(address mortgageAddress, uint256 valuePayed) public onlyOwner {\n        Mortgage mortgage = Mortgage(mortgageAddress);\n        mortgage.clearance(valuePayed);\n    }\n\n    function clearMortgage(address mortgageAddress) public onlyOwner {\n        Mortgage mortgage = Mortgage(mortgageAddress);\n        mortgage.cleared();\n    }\n\n    function isMortgageRegistered(address mortgageAddress) public view returns (bool) {\n        Mortgage mortgage = Mortgage(mortgageAddress);\n        return mortgage.isMortgageRegistered();\n    }\n}\n",
    "sourcePath": "/Users/roilandshut/projects/brikoin/brikoin/contracts/MortgageOperations.sol",
    "compiler": {
        "name": "solc",
        "version": "0.4.24+commit.e67f0147.Emscripten.clang"
    },
    "schemaVersion": "2.0.1",
    "updatedAt": "2019-10-27T14:12:10.901Z"
}