{
    "contractName": "ProjectGroupsVotingStorage",
    "abi": [
        {
            "constant": true,
            "inputs": [
                {
                    "name": "",
                    "type": "address"
                }
            ],
            "name": "owners",
            "outputs": [
                {
                    "name": "",
                    "type": "bool"
                }
            ],
            "payable": false,
            "stateMutability": "view",
            "type": "function"
        },
        {
            "constant": false,
            "inputs": [
                {
                    "name": "_newOwner",
                    "type": "address"
                }
            ],
            "name": "setOwner",
            "outputs": [],
            "payable": false,
            "stateMutability": "nonpayable",
            "type": "function"
        },
        {
            "constant": true,
            "inputs": [],
            "name": "getAddress",
            "outputs": [
                {
                    "name": "",
                    "type": "address"
                }
            ],
            "payable": false,
            "stateMutability": "view",
            "type": "function"
        },
        {
            "constant": false,
            "inputs": [
                {
                    "name": "_newOwner",
                    "type": "address"
                }
            ],
            "name": "removeOwnership",
            "outputs": [],
            "payable": false,
            "stateMutability": "nonpayable",
            "type": "function"
        },
        {
            "constant": true,
            "inputs": [],
            "name": "owner",
            "outputs": [
                {
                    "name": "",
                    "type": "address"
                }
            ],
            "payable": false,
            "stateMutability": "view",
            "type": "function"
        },
        {
            "constant": true,
            "inputs": [
                {
                    "name": "user",
                    "type": "address"
                }
            ],
            "name": "isOwnable",
            "outputs": [
                {
                    "name": "",
                    "type": "bool"
                }
            ],
            "payable": false,
            "stateMutability": "view",
            "type": "function"
        },
        {
            "constant": false,
            "inputs": [
                {
                    "name": "_newOwner",
                    "type": "address"
                }
            ],
            "name": "addOwnership",
            "outputs": [],
            "payable": false,
            "stateMutability": "nonpayable",
            "type": "function"
        },
        {
            "inputs": [],
            "payable": false,
            "stateMutability": "nonpayable",
            "type": "constructor"
        },
        {
            "anonymous": false,
            "inputs": [
                {
                    "indexed": true,
                    "name": "previousOwner",
                    "type": "address"
                }
            ],
            "name": "OwnershipRenounced",
            "type": "event"
        },
        {
            "anonymous": false,
            "inputs": [
                {
                    "indexed": true,
                    "name": "previousOwner",
                    "type": "address"
                },
                {
                    "indexed": true,
                    "name": "newOwner",
                    "type": "address"
                }
            ],
            "name": "OwnershipTransferred",
            "type": "event"
        },
        {
            "constant": false,
            "inputs": [
                {
                    "name": "documentMd5",
                    "type": "string"
                },
                {
                    "name": "_votingType",
                    "type": "string"
                }
            ],
            "name": "setVotingType",
            "outputs": [],
            "payable": false,
            "stateMutability": "nonpayable",
            "type": "function"
        },
        {
            "constant": true,
            "inputs": [
                {
                    "name": "documentMd5",
                    "type": "string"
                }
            ],
            "name": "getVotingType",
            "outputs": [
                {
                    "name": "",
                    "type": "string"
                }
            ],
            "payable": false,
            "stateMutability": "view",
            "type": "function"
        },
        {
            "constant": false,
            "inputs": [
                {
                    "name": "member",
                    "type": "address"
                }
            ],
            "name": "addGroupRepresentation",
            "outputs": [],
            "payable": false,
            "stateMutability": "nonpayable",
            "type": "function"
        },
        {
            "constant": true,
            "inputs": [
                {
                    "name": "member",
                    "type": "address"
                }
            ],
            "name": "isGroupRepresentative",
            "outputs": [
                {
                    "name": "",
                    "type": "bool"
                }
            ],
            "payable": false,
            "stateMutability": "view",
            "type": "function"
        },
        {
            "constant": false,
            "inputs": [
                {
                    "name": "_projectGroupsStorageAddress",
                    "type": "address"
                }
            ],
            "name": "setProjectGroupStorageAddress",
            "outputs": [],
            "payable": false,
            "stateMutability": "nonpayable",
            "type": "function"
        },
        {
            "constant": true,
            "inputs": [
                {
                    "name": "member",
                    "type": "address"
                }
            ],
            "name": "isVotingMember",
            "outputs": [
                {
                    "name": "",
                    "type": "bool"
                }
            ],
            "payable": false,
            "stateMutability": "view",
            "type": "function"
        },
        {
            "constant": false,
            "inputs": [
                {
                    "name": "member",
                    "type": "address"
                },
                {
                    "name": "status",
                    "type": "bool"
                }
            ],
            "name": "setVotingMember",
            "outputs": [],
            "payable": false,
            "stateMutability": "nonpayable",
            "type": "function"
        },
        {
            "constant": true,
            "inputs": [
                {
                    "name": "documentMd5",
                    "type": "string"
                }
            ],
            "name": "getVotingPositiveResult",
            "outputs": [
                {
                    "name": "",
                    "type": "uint256"
                }
            ],
            "payable": false,
            "stateMutability": "view",
            "type": "function"
        },
        {
            "constant": true,
            "inputs": [
                {
                    "name": "documentMd5",
                    "type": "string"
                }
            ],
            "name": "getNumberOfVoters",
            "outputs": [
                {
                    "name": "",
                    "type": "uint256"
                }
            ],
            "payable": false,
            "stateMutability": "view",
            "type": "function"
        },
        {
            "constant": false,
            "inputs": [
                {
                    "name": "documentMd5",
                    "type": "string"
                },
                {
                    "name": "member",
                    "type": "address"
                },
                {
                    "name": "status",
                    "type": "bool"
                }
            ],
            "name": "vote",
            "outputs": [],
            "payable": false,
            "stateMutability": "nonpayable",
            "type": "function"
        },
        {
            "constant": true,
            "inputs": [
                {
                    "name": "documentMd5",
                    "type": "string"
                },
                {
                    "name": "member",
                    "type": "address"
                }
            ],
            "name": "isVoted",
            "outputs": [
                {
                    "name": "",
                    "type": "bool"
                }
            ],
            "payable": false,
            "stateMutability": "view",
            "type": "function"
        },
        {
            "constant": true,
            "inputs": [
                {
                    "name": "subject",
                    "type": "string"
                }
            ],
            "name": "getVotingResult",
            "outputs": [
                {
                    "name": "",
                    "type": "uint256"
                }
            ],
            "payable": false,
            "stateMutability": "view",
            "type": "function"
        },
        {
            "constant": true,
            "inputs": [],
            "name": "getGroupRepresentation",
            "outputs": [
                {
                    "name": "",
                    "type": "address[]"
                }
            ],
            "payable": false,
            "stateMutability": "view",
            "type": "function"
        }
    ],
    "bytecode": "0x608060405234801561001057600080fd5b50336000818152602081905260409020805460ff191660019081179091558054600160a060020a03191690911790556112258061004e6000396000f3006080604052600436106101115763ffffffff7c0100000000000000000000000000000000000000000000000000000000600035041663022914a781146101165780630f3825d41461014b57806313af40351461016c57806338cc48311461018f57806344b745d7146101c057806357987aed14610257578063666a34271461027d5780638da5cb5b1461029e5780638ed8c889146102b35780639a7252391461031c5780639b2b622d1461033d5780639b904f0a1461035e578063a1077fb4146103c9578063ab36fd3d1461042e578063c5362e231461044f578063db7cde8b146104a8578063e6e836b414610501578063e88914de146105cf578063f5a55ff6146105f0578063fdda238714610611575b600080fd5b34801561012257600080fd5b50610137600160a060020a0360043516610675565b604080519115158252519081900360200190f35b34801561015757600080fd5b50610137600160a060020a036004351661068a565b34801561017857600080fd5b5061018d600160a060020a03600435166106c7565b005b34801561019b57600080fd5b506101a4610714565b60408051600160a060020a039092168252519081900360200190f35b3480156101cc57600080fd5b506040805160206004803580820135601f810184900484028501840190955284845261018d94369492936024939284019190819084018382808284375050604080516020601f89358b018035918201839004830284018301909452808352979a9998810197919650918201945092508291508401838280828437509497506107199650505050505050565b34801561026357600080fd5b5061018d600160a060020a036004351660243515156107b0565b34801561028957600080fd5b5061018d600160a060020a03600435166107f9565b3480156102aa57600080fd5b506101a4610823565b3480156102bf57600080fd5b506040805160206004803580820135601f810184900484028501840190955284845261018d94369492936024939284019190819084018382808284375094975050600160a060020a03853516955050505050602001351515610832565b34801561032857600080fd5b5061018d600160a060020a0360043516610c58565b34801561034957600080fd5b50610137600160a060020a0360043516610cea565b34801561036a57600080fd5b506040805160206004803580820135601f81018490048402850184019095528484526103b7943694929360249392840191908190840183828082843750949750610d279650505050505050565b60408051918252519081900360200190f35b3480156103d557600080fd5b506103de610d8f565b60408051602080825283518183015283519192839290830191858101910280838360005b8381101561041a578181015183820152602001610402565b505050509050019250505060405180910390f35b34801561043a57600080fd5b5061018d600160a060020a0360043516610e10565b34801561045b57600080fd5b506040805160206004803580820135601f81018490048402850184019095528484526103b7943694929360249392840191908190840183828082843750949750610e5d9650505050505050565b3480156104b457600080fd5b506040805160206004803580820135601f81018490048402850184019095528484526103b7943694929360249392840191908190840183828082843750949750610e909650505050505050565b34801561050d57600080fd5b506040805160206004803580820135601f810184900484028501840190955284845261055a943694929360249392840191908190840183828082843750949750610edf9650505050505050565b6040805160208082528351818301528351919283929083019185019080838360005b8381101561059457818101518382015260200161057c565b50505050905090810190601f1680156105c15780820380516001836020036101000a031916815260200191505b509250505060405180910390f35b3480156105db57600080fd5b50610137600160a060020a0360043516610fd3565b3480156105fc57600080fd5b5061018d600160a060020a0360043516610ff1565b34801561061d57600080fd5b506040805160206004803580820135601f810184900484028501840190955284845261013794369492936024939284019190819084018382808284375094975050509235600160a060020a0316935061101892505050565b60006020819052908152604090205460ff1681565b3360009081526020819052604081205460ff1615156106a857600080fd5b50600160a060020a031660009081526003602052604090205460ff1690565b3360009081526020819052604090205460ff1615156106e557600080fd5b6001805473ffffffffffffffffffffffffffffffffffffffff1916600160a060020a0392909216919091179055565b305b90565b3360009081526020819052604090205460ff16151561073757600080fd5b80600a836040518082805190602001908083835b6020831061076a5780518252601f19909201916020918201910161074b565b51815160209384036101000a600019018019909216911617905292019485525060405193849003810190932084516107ab9591949190910192509050611161565b505050565b3360009081526020819052604090205460ff1615156107ce57600080fd5b600160a060020a03919091166000908152600560205260409020805460ff1916911515919091179055565b3360009081526020819052604090205460ff16151561081757600080fd5b610820816110b8565b50565b600154600160a060020a031681565b3360009081526020819052604090205460ff16151561085057600080fd5b6006836040518082805190602001908083835b602083106108825780518252601f199092019160209182019101610863565b51815160209384036101000a600019018019909216911617905292019485525060408051948590038201909420600160a060020a03871660009081529152929092205460ff161591506108d6905057600080fd5b6007836040518082805190602001908083835b602083106109085780518252601f1990920191602091820191016108e9565b6001836020036101000a0380198251168184511680821785525050505050509050019150509081526020016040518091039020546001016007846040518082805190602001908083835b602083106109715780518252601f199092019160209182019101610952565b51815160209384036101000a600019018019909216911617905292019485525060405193849003019092209290925550508015610bca576008836040518082805190602001908083835b602083106109da5780518252601f1990920191602091820191016109bb565b6001836020036101000a0380198251168184511680821785525050505050509050019150509081526020016040518091039020546001016008846040518082805190602001908083835b60208310610a435780518252601f199092019160209182019101610a24565b51815160209384036101000a6000190180199092169116179052920194855250604080519485900382018520959095556002547f395f4f00000000000000000000000000000000000000000000000000000000008552600160a060020a038881166004870152955195169463395f4f0094602480820195509293509091908290030181600087803b158015610ad757600080fd5b505af1158015610aeb573d6000803e3d6000fd5b505050506040513d6020811015610b0157600080fd5b505160405184516009918691819060208401908083835b60208310610b375780518252601f199092019160209182019101610b18565b51815160209384036101000a60001901801990921691161790529201948552506040519384900381018420548851950194600994899450925082918401908083835b60208310610b985780518252601f199092019160209182019101610b79565b51815160209384036101000a600019018019909216911617905292019485525060405193849003019092209290925550505b60016006846040518082805190602001908083835b60208310610bfe5780518252601f199092019160209182019101610bdf565b51815160209384036101000a600019018019909216911617905292019485525060408051948590038201909420600160a060020a039790971660009081529690525050909220805460ff1916921515929092179091555050565b3360009081526020819052604090205460ff161515610c7657600080fd5b6004805460018181019092557f8a35acfbc15ff81a39ae7d344fd709f28e8600b4aa8c65c6b64bfe7fe36bd19b018054600160a060020a0390931673ffffffffffffffffffffffffffffffffffffffff1990931683179055600091825260036020526040909120805460ff19169091179055565b3360009081526020819052604081205460ff161515610d0857600080fd5b50600160a060020a031660009081526005602052604090205460ff1690565b60006007826040518082805190602001908083835b60208310610d5b5780518252601f199092019160209182019101610d3c565b51815160209384036101000a6000190180199092169116179052920194855250604051938490030190922054949350505050565b3360009081526020819052604090205460609060ff161515610db057600080fd5b6004805480602002602001604051908101604052809291908181526020018280548015610e0657602002820191906000526020600020905b8154600160a060020a03168152600190910190602001808311610de8575b5050505050905090565b3360009081526020819052604090205460ff161515610e2e57600080fd5b6002805473ffffffffffffffffffffffffffffffffffffffff1916600160a060020a0392909216919091179055565b600060088260405180828051906020019080838360208310610d5b5780518252601f199092019160209182019101610d3c565b3360009081526020819052604081205460ff161515610eae57600080fd5b60098260405180828051906020019080838360208310610d5b5780518252601f199092019160209182019101610d3c565b6060600a826040518082805190602001908083835b60208310610f135780518252601f199092019160209182019101610ef4565b518151600019602094850361010090810a820192831692199390931691909117909252949092019687526040805197889003820188208054601f6002600183161590980290950116959095049283018290048202880182019052818752929450925050830182828015610fc75780601f10610f9c57610100808354040283529160200191610fc7565b820191906000526020600020905b815481529060010190602001808311610faa57829003601f168201915b50505050509050919050565b600160a060020a031660009081526020819052604090205460ff1690565b3360009081526020819052604090205460ff16151561100f57600080fd5b610820816110ee565b3360009081526020819052604081205460ff16151561103657600080fd5b6006836040518082805190602001908083835b602083106110685780518252601f199092019160209182019101611049565b51815160209384036101000a600019018019909216911617905292019485525060408051948590038201909420600160a060020a0396909616600090815295905250509091205460ff1692915050565b600160a060020a03811615156110cd57600080fd5b600160a060020a03166000908152602081905260409020805460ff19169055565b600160a060020a038116151561110357600080fd5b600154604051600160a060020a038084169216907f8be0079c531659141344cd1fd0a4f28419497f9722a3daafe3b4186f6b6457e090600090a3600160a060020a03166000908152602081905260409020805460ff19166001179055565b828054600181600116156101000203166002900490600052602060002090601f016020900481019282601f106111a257805160ff19168380011785556111cf565b828001600101855582156111cf579182015b828111156111cf5782518255916020019190600101906111b4565b506111db9291506111df565b5090565b61071691905b808211156111db57600081556001016111e55600a165627a7a723058204976c3674932d68df9c28a8fa19cdf4130ab1d6ac667d69d95d2ff43221059970029",
    "source": "pragma solidity ^0.4.24;\n\nimport \"openzeppelin-solidity/contracts/token/ERC20/StandardToken.sol\";\nimport \"openzeppelin-solidity/contracts/ownership/Ownable.sol\";\nimport 'openzeppelin-solidity/contracts/math/SafeMath.sol';\nimport \"../interfaces/Ownables.sol\";\nimport \"../interfaces/ProjectGroupsVotingStorageInt.sol\";\nimport \"../interfaces/ProjectGroupsStorageInt.sol\";\n\ncontract ProjectGroupsVotingStorage is Ownables, ProjectGroupsVotingStorageInt {\n    using SafeMath for uint256;\n    address projectGroupsStorageAddress;\n    mapping(address => bool) groupRepresented;\n    address[] groupRepresentedArray;\n    mapping(address => bool) votingMembers;\n    mapping(string => mapping(address => bool)) memberVoted;\n    mapping(string => uint256) votingMembersCount;\n    mapping(string => uint256) positiveVotingMembers;\n    mapping(string => uint256) memberVotingResult;\n    mapping(string => string) votingType;\n    constructor() public Ownables() {\n    }\n\n    function setVotingType(string documentMd5, string _votingType) public onlyOwner {\n        votingType[documentMd5] = _votingType;\n    }\n\n    function getVotingType(string documentMd5) public view returns (string){\n        return votingType[documentMd5];\n    }\n\n    function addGroupRepresentation(address member) public onlyOwner {\n        groupRepresentedArray.push(member);\n        groupRepresented[member] = true;\n\n    }\n\n    function isGroupRepresentative(address member) public view onlyOwner returns (bool){\n        return groupRepresented[member];\n    }\n\n    function setProjectGroupStorageAddress(address _projectGroupsStorageAddress) public onlyOwner {\n        projectGroupsStorageAddress = _projectGroupsStorageAddress;\n    }\n\n    function isVotingMember(address member) public view onlyOwner returns (bool){\n        return votingMembers[member];\n    }\n\n    function setVotingMember(address member, bool status) public onlyOwner {\n        votingMembers[member] = status;\n    }\n\n\n    function getVotingPositiveResult(string documentMd5) public view returns (uint256){\n        return positiveVotingMembers[documentMd5];\n    }\n\n    function getNumberOfVoters(string documentMd5) public view returns (uint256){\n        return votingMembersCount[documentMd5];\n    }\n\n\n    function vote(string documentMd5, address member, bool status) public onlyOwner {\n        require(!memberVoted[documentMd5][member]);\n        votingMembersCount[documentMd5] = votingMembersCount[documentMd5] + 1;\n\n        if (status) {\n            positiveVotingMembers[documentMd5] = positiveVotingMembers[documentMd5] + 1;\n            memberVotingResult[documentMd5] = memberVotingResult[documentMd5] + ProjectGroupsStorageInt(projectGroupsStorageAddress).getMemberOffer(member);\n        }\n        memberVoted[documentMd5][member] = true;\n    }\n\n    function isVoted(string documentMd5, address member) public view onlyOwner returns (bool){\n        return memberVoted[documentMd5][member];\n    }\n\n    function getVotingResult(string subject) public view onlyOwner returns (uint256){\n        return memberVotingResult[subject];\n    }\n\n    function getGroupRepresentation() public view onlyOwner returns (address[]){\n        return groupRepresentedArray;\n    }\n\n\n}\n",
    "sourcePath": "/Users/roilandshut/projects/brikoin/brikoin/contracts/storage/ProjectGroupsVotingStorage.sol",
    "compiler": {
        "name": "solc",
        "version": "0.4.24+commit.e67f0147.Emscripten.clang"
    },
    "schemaVersion": "2.0.1",
    "updatedAt": "2019-10-27T14:12:11.064Z"
}