{
    "contractName": "Property",
    "abi": [
        {
            "constant": true,
            "inputs": [],
            "name": "name",
            "outputs": [
                {
                    "name": "",
                    "type": "bytes32"
                }
            ],
            "payable": false,
            "stateMutability": "view",
            "type": "function"
        },
        {
            "constant": true,
            "inputs": [],
            "name": "registrar",
            "outputs": [
                {
                    "name": "",
                    "type": "address"
                }
            ],
            "payable": false,
            "stateMutability": "view",
            "type": "function"
        },
        {
            "constant": true,
            "inputs": [],
            "name": "address1",
            "outputs": [
                {
                    "name": "",
                    "type": "bytes32"
                }
            ],
            "payable": false,
            "stateMutability": "view",
            "type": "function"
        },
        {
            "constant": true,
            "inputs": [],
            "name": "manager",
            "outputs": [
                {
                    "name": "",
                    "type": "address"
                }
            ],
            "payable": false,
            "stateMutability": "view",
            "type": "function"
        },
        {
            "constant": true,
            "inputs": [],
            "name": "lon",
            "outputs": [
                {
                    "name": "",
                    "type": "bytes32"
                }
            ],
            "payable": false,
            "stateMutability": "view",
            "type": "function"
        },
        {
            "constant": true,
            "inputs": [],
            "name": "lat",
            "outputs": [
                {
                    "name": "",
                    "type": "bytes32"
                }
            ],
            "payable": false,
            "stateMutability": "view",
            "type": "function"
        },
        {
            "constant": false,
            "inputs": [],
            "name": "renounceOwnership",
            "outputs": [],
            "payable": false,
            "stateMutability": "nonpayable",
            "type": "function"
        },
        {
            "constant": true,
            "inputs": [
                {
                    "name": "",
                    "type": "uint256"
                }
            ],
            "name": "trustees",
            "outputs": [
                {
                    "name": "",
                    "type": "address"
                }
            ],
            "payable": false,
            "stateMutability": "view",
            "type": "function"
        },
        {
            "constant": true,
            "inputs": [
                {
                    "name": "",
                    "type": "uint256"
                }
            ],
            "name": "estimations",
            "outputs": [
                {
                    "name": "",
                    "type": "address"
                }
            ],
            "payable": false,
            "stateMutability": "view",
            "type": "function"
        },
        {
            "constant": true,
            "inputs": [],
            "name": "owner",
            "outputs": [
                {
                    "name": "",
                    "type": "address"
                }
            ],
            "payable": false,
            "stateMutability": "view",
            "type": "function"
        },
        {
            "constant": true,
            "inputs": [],
            "name": "address2",
            "outputs": [
                {
                    "name": "",
                    "type": "bytes32"
                }
            ],
            "payable": false,
            "stateMutability": "view",
            "type": "function"
        },
        {
            "constant": true,
            "inputs": [],
            "name": "state",
            "outputs": [
                {
                    "name": "",
                    "type": "bytes32"
                }
            ],
            "payable": false,
            "stateMutability": "view",
            "type": "function"
        },
        {
            "constant": true,
            "inputs": [],
            "name": "country",
            "outputs": [
                {
                    "name": "",
                    "type": "bytes32"
                }
            ],
            "payable": false,
            "stateMutability": "view",
            "type": "function"
        },
        {
            "constant": false,
            "inputs": [
                {
                    "name": "_newOwner",
                    "type": "address"
                }
            ],
            "name": "transferOwnership",
            "outputs": [],
            "payable": false,
            "stateMutability": "nonpayable",
            "type": "function"
        },
        {
            "inputs": [
                {
                    "name": "_name",
                    "type": "bytes32"
                },
                {
                    "name": "_manager",
                    "type": "address"
                },
                {
                    "name": "_trustee",
                    "type": "address"
                },
                {
                    "name": "_registrar",
                    "type": "address"
                },
                {
                    "name": "_estimation",
                    "type": "address"
                },
                {
                    "name": "_country",
                    "type": "bytes32"
                },
                {
                    "name": "_address1",
                    "type": "bytes32"
                },
                {
                    "name": "_address2",
                    "type": "bytes32"
                },
                {
                    "name": "_state",
                    "type": "bytes32"
                },
                {
                    "name": "_lat",
                    "type": "bytes32"
                },
                {
                    "name": "_lon",
                    "type": "bytes32"
                }
            ],
            "payable": false,
            "stateMutability": "nonpayable",
            "type": "constructor"
        },
        {
            "anonymous": false,
            "inputs": [
                {
                    "indexed": true,
                    "name": "previousOwner",
                    "type": "address"
                }
            ],
            "name": "OwnershipRenounced",
            "type": "event"
        },
        {
            "anonymous": false,
            "inputs": [
                {
                    "indexed": true,
                    "name": "previousOwner",
                    "type": "address"
                },
                {
                    "indexed": true,
                    "name": "newOwner",
                    "type": "address"
                }
            ],
            "name": "OwnershipTransferred",
            "type": "event"
        },
        {
            "constant": false,
            "inputs": [
                {
                    "name": "_estimation",
                    "type": "address"
                }
            ],
            "name": "addEstimation",
            "outputs": [],
            "payable": false,
            "stateMutability": "nonpayable",
            "type": "function"
        }
    ],
    "bytecode": "0x608060405234801561001057600080fd5b50604051610160806106d383398101604090815281516020830151918301516060840151608085015160a086015160c087015160e08801516101008901516101208a0151610140909a015160008054600160a060020a0319163317905597999697959694959394929391929091600160a060020a038a16151561009257600080fd5b600160a060020a03891615156100a757600080fd5b600160a060020a03881615156100bc57600080fd5b60019a8b5560028054600160a060020a039b8c16600160a060020a03199182161790915560038054808e019091557fc2575a0e9e593c00f959f8c92f12db2869c3395a3b0502d05e2516446f71f85b0180549a8c169a82169a909a17909955600580549b8c0181556000527f036b6384b5eca791c62761152d0c79bb0604c104a5fb6f4eb0703f3154bb3db0909a018054968a169689169690961790955560048054969098169590961694909417909555600655600793909355600855600955600a55600b55610542806101916000396000f3006080604052600436106100da5763ffffffff7c010000000000000000000000000000000000000000000000000000000060003504166306fdde0381146100df5780632b20e397146101065780633a36399e14610144578063481c6a75146101595780634dee73c81461016e57806355d576cc1461018357806362c78b9f14610198578063715018a6146101c8578063717d63a4146101dd5780638389b131146101f55780638da5cb5b1461020d5780639eea4a3a14610222578063c19d93fb14610237578063d8b0b4991461024c578063f2fde38b14610261575b600080fd5b3480156100eb57600080fd5b506100f461028f565b60408051918252519081900360200190f35b34801561011257600080fd5b5061011b610295565b6040805173ffffffffffffffffffffffffffffffffffffffff9092168252519081900360200190f35b34801561015057600080fd5b506100f46102b1565b34801561016557600080fd5b5061011b6102b7565b34801561017a57600080fd5b506100f46102d3565b34801561018f57600080fd5b506100f46102d9565b3480156101a457600080fd5b506101c673ffffffffffffffffffffffffffffffffffffffff600435166102df565b005b3480156101d457600080fd5b506101c661034b565b3480156101e957600080fd5b5061011b6004356103d1565b34801561020157600080fd5b5061011b600435610406565b34801561021957600080fd5b5061011b610414565b34801561022e57600080fd5b506100f4610430565b34801561024357600080fd5b506100f4610436565b34801561025857600080fd5b506100f461043c565b34801561026d57600080fd5b506101c673ffffffffffffffffffffffffffffffffffffffff60043516610442565b60015481565b60045473ffffffffffffffffffffffffffffffffffffffff1681565b60075481565b60025473ffffffffffffffffffffffffffffffffffffffff1681565b600b5481565b600a5481565b600580546001810182556000919091527f036b6384b5eca791c62761152d0c79bb0604c104a5fb6f4eb0703f3154bb3db001805473ffffffffffffffffffffffffffffffffffffffff191673ffffffffffffffffffffffffffffffffffffffff92909216919091179055565b60005473ffffffffffffffffffffffffffffffffffffffff16331461036f57600080fd5b6000805460405173ffffffffffffffffffffffffffffffffffffffff909116917ff8df31144d9c2f0f6b59d69b8b98abd5459d07f2742c4df920b25aae33c6482091a26000805473ffffffffffffffffffffffffffffffffffffffff19169055565b60038054829081106103df57fe5b60009182526020909120015473ffffffffffffffffffffffffffffffffffffffff16905081565b60058054829081106103df57fe5b60005473ffffffffffffffffffffffffffffffffffffffff1681565b60085481565b60095481565b60065481565b60005473ffffffffffffffffffffffffffffffffffffffff16331461046657600080fd5b61046f81610472565b50565b73ffffffffffffffffffffffffffffffffffffffff8116151561049457600080fd5b6000805460405173ffffffffffffffffffffffffffffffffffffffff808516939216917f8be0079c531659141344cd1fd0a4f28419497f9722a3daafe3b4186f6b6457e091a36000805473ffffffffffffffffffffffffffffffffffffffff191673ffffffffffffffffffffffffffffffffffffffff929092169190911790555600a165627a7a72305820ff6bf2c6e203d4b83ae598113eb24a3df530daf8c42cf4ca7cd4a978876107330029",
    "source": "pragma solidity ^0.4.24;\nimport \"openzeppelin-solidity/contracts/ownership/Ownable.sol\";\nimport 'openzeppelin-solidity/contracts/math/SafeMath.sol';\n\ncontract Property is Ownable{\n    using SafeMath for uint256;\n\n    bytes32      public   name;\n    address      public   manager;\n    address[]    public   trustees;\n    address      public   registrar;\n    address[]    public   estimations;\n    bytes32      public   country;\n    bytes32      public   address1;\n    bytes32      public   address2;\n    bytes32      public   state;\n    bytes32      public   lat;\n    bytes32      public   lon;\n\n    constructor(\n        bytes32      _name,\n        address      _manager,\n        address      _trustee,\n        address      _registrar,\n        address      _estimation,\n        bytes32      _country,\n        bytes32      _address1,\n        bytes32      _address2,\n        bytes32      _state,\n        bytes32      _lat,\n        bytes32      _lon\n\n    ) Ownable()  public{\n        require(_name.length != 0);\n        require(_manager != address(0));\n        require(_trustee != address(0));\n        require(_registrar != address(0));\n        require(_country.length != 0);\n        require(_address1.length != 0);\n        require(_address2.length != 0);\n        require(_lat.length != 0);\n        require(_lon.length != 0);\n\n\n        name = _name;\n        manager = _manager;\n        trustees.push(_trustee);\n        estimations.push(_estimation);\n        registrar = _registrar;\n        country = _country;\n        address1 = _address1;\n        address2 = _address2;\n        state = _state;\n        lat = _lat;\n        lon = _lon;\n    }\n\n    function addEstimation(address _estimation) public {\n        estimations.push(_estimation);\n    }\n}\n",
    "sourcePath": "/Users/roilandshut/projects/brikoin/brikoin/contracts/structures/Property.sol",
    "compiler": {
        "name": "solc",
        "version": "0.4.24+commit.e67f0147.Emscripten.clang"
    },
    "schemaVersion": "2.0.1",
    "updatedAt": "2019-10-27T14:12:11.105Z"
}