{
    "contractName": "SignedDocumentFactory",
    "abi": [
        {
            "constant": false,
            "inputs": [],
            "name": "renounceOwnership",
            "outputs": [],
            "payable": false,
            "stateMutability": "nonpayable",
            "type": "function"
        },
        {
            "constant": true,
            "inputs": [],
            "name": "owner",
            "outputs": [
                {
                    "name": "",
                    "type": "address"
                }
            ],
            "payable": false,
            "stateMutability": "view",
            "type": "function"
        },
        {
            "constant": false,
            "inputs": [
                {
                    "name": "_newOwner",
                    "type": "address"
                }
            ],
            "name": "transferOwnership",
            "outputs": [],
            "payable": false,
            "stateMutability": "nonpayable",
            "type": "function"
        },
        {
            "anonymous": false,
            "inputs": [
                {
                    "indexed": false,
                    "name": "SignedDocument",
                    "type": "address"
                }
            ],
            "name": "SignedDocumentCreated",
            "type": "event"
        },
        {
            "anonymous": false,
            "inputs": [
                {
                    "indexed": true,
                    "name": "previousOwner",
                    "type": "address"
                }
            ],
            "name": "OwnershipRenounced",
            "type": "event"
        },
        {
            "anonymous": false,
            "inputs": [
                {
                    "indexed": true,
                    "name": "previousOwner",
                    "type": "address"
                },
                {
                    "indexed": true,
                    "name": "newOwner",
                    "type": "address"
                }
            ],
            "name": "OwnershipTransferred",
            "type": "event"
        },
        {
            "constant": false,
            "inputs": [
                {
                    "name": "_admin",
                    "type": "bool"
                },
                {
                    "name": "_url",
                    "type": "bytes32"
                },
                {
                    "name": "_urlMD5",
                    "type": "bytes32"
                }
            ],
            "name": "createSignedDocument",
            "outputs": [
                {
                    "name": "",
                    "type": "address"
                }
            ],
            "payable": false,
            "stateMutability": "nonpayable",
            "type": "function"
        },
        {
            "constant": false,
            "inputs": [
                {
                    "name": "signedDocument",
                    "type": "address"
                },
                {
                    "name": "_user",
                    "type": "address"
                },
                {
                    "name": "_role",
                    "type": "bytes32"
                }
            ],
            "name": "shouldSign",
            "outputs": [
                {
                    "name": "success",
                    "type": "bool"
                }
            ],
            "payable": false,
            "stateMutability": "nonpayable",
            "type": "function"
        },
        {
            "constant": false,
            "inputs": [
                {
                    "name": "signedDocument",
                    "type": "address"
                }
            ],
            "name": "sign",
            "outputs": [
                {
                    "name": "success",
                    "type": "bool"
                }
            ],
            "payable": false,
            "stateMutability": "nonpayable",
            "type": "function"
        },
        {
            "constant": true,
            "inputs": [
                {
                    "name": "signedDocument",
                    "type": "address"
                }
            ],
            "name": "isSign",
            "outputs": [
                {
                    "name": "",
                    "type": "bool"
                }
            ],
            "payable": false,
            "stateMutability": "view",
            "type": "function"
        }
    ],
    "bytecode": "0x608060405260008054600160a060020a03191633179055610f20806100256000396000f3006080604052600436106100825763ffffffff7c0100000000000000000000000000000000000000000000000000000000600035041663347c2d2c8114610087578063715018a6146100c55780638da5cb5b146100dc578063edd9fcbc1461010d578063f2fde38b1461012e578063f71be8371461014f578063fe8b831914610170575b600080fd5b34801561009357600080fd5b506100b1600160a060020a0360043581169060243516604435610190565b604080519115158252519081900360200190f35b3480156100d157600080fd5b506100da610235565b005b3480156100e857600080fd5b506100f16102a1565b60408051600160a060020a039092168252519081900360200190f35b34801561011957600080fd5b506100b1600160a060020a03600435166102b0565b34801561013a57600080fd5b506100da600160a060020a0360043516610340565b34801561015b57600080fd5b506100b1600160a060020a0360043516610363565b34801561017c57600080fd5b506100f160043515156024356044356103c8565b604080517ff58d924b000000000000000000000000000000000000000000000000000000008152600160a060020a03848116600483015260248201849052915160009286929083169163f58d924b9160448082019260209290919082900301818887803b15801561020057600080fd5b505af1158015610214573d6000803e3d6000fd5b505050506040513d602081101561022a57600080fd5b505195945050505050565b600054600160a060020a0316331461024c57600080fd5b60008054604051600160a060020a03909116917ff8df31144d9c2f0f6b59d69b8b98abd5459d07f2742c4df920b25aae33c6482091a26000805473ffffffffffffffffffffffffffffffffffffffff19169055565b600054600160a060020a031681565b60008082905080600160a060020a031663c8e0b2a96040518163ffffffff167c0100000000000000000000000000000000000000000000000000000000028152600401602060405180830381600087803b15801561030d57600080fd5b505af1158015610321573d6000803e3d6000fd5b505050506040513d602081101561033757600080fd5b50519392505050565b600054600160a060020a0316331461035757600080fd5b61036081610453565b50565b604080517ff71be83700000000000000000000000000000000000000000000000000000000815233600482015290516000918391600160a060020a0383169163f71be83791602480830192602092919082900301818887803b15801561030d57600080fd5b6000808483856103d66104d0565b921515835260208301919091526040808301919091525190819003606001906000f08015801561040a573d6000803e3d6000fd5b5060408051600160a060020a038316815290519192507ffba353b90f7ff8a62cba1f619a1dc8ebd65e4898c5bba55376a331580d16cc5f919081900360200190a1949350505050565b600160a060020a038116151561046857600080fd5b60008054604051600160a060020a03808516939216917f8be0079c531659141344cd1fd0a4f28419497f9722a3daafe3b4186f6b6457e091a36000805473ffffffffffffffffffffffffffffffffffffffff1916600160a060020a0392909216919091179055565b604051610a14806104e1833901905600608060405234801561001057600080fd5b50604051606080610a1483398101604090815281516020830151919092015160008054600160a060020a031916331790556000805460a860020a60ff0219941515740100000000000000000000000000000000000000000260a060020a60ff02199091161793909316909255600155600255610983806100916000396000f3006080604052600436106100fb5763ffffffff7c01000000000000000000000000000000000000000000000000000000006000350416630c4f5534811461010057806319d40b08146101295780632ca151221461013e57806333cce661146101535780633baa8c56146101685780635600f04f14610189578063715018a6146101b05780637f91fb7d146101c757806389d84af5146101e85780638da5cb5b146101fd578063c19b7a041461022e578063c792f36d14610246578063c8e0b2a914610297578063da4de743146102ac578063e0d17fe7146102c1578063f2fde38b146102e2578063f58d924b14610303578063f71be83714610327575b600080fd5b34801561010c57600080fd5b50610115610348565b604080519115158252519081900360200190f35b34801561013557600080fd5b5061011561036a565b34801561014a57600080fd5b506101156103bc565b34801561015f57600080fd5b5061011561043c565b34801561017457600080fd5b50610115600160a060020a036004351661045d565b34801561019557600080fd5b5061019e610497565b60408051918252519081900360200190f35b3480156101bc57600080fd5b506101c561049d565b005b3480156101d357600080fd5b50610115600160a060020a0360043516610509565b3480156101f457600080fd5b5061019e610527565b34801561020957600080fd5b5061021261052d565b60408051600160a060020a039092168252519081900360200190f35b34801561023a57600080fd5b5061021260043561053c565b34801561025257600080fd5b50610267600160a060020a0360043516610564565b604080519415158552600160a060020a039093166020850152838301919091526060830152519081900360800190f35b3480156102a357600080fd5b50610115610598565b3480156102b857600080fd5b5061019e6106ca565b3480156102cd57600080fd5b50610115600160a060020a03600435166106d0565b3480156102ee57600080fd5b506101c5600160a060020a036004351661072b565b34801561030f57600080fd5b50610115600160a060020a036004351660243561074e565b34801561033357600080fd5b50610115600160a060020a036004351661084d565b6000547501000000000000000000000000000000000000000000900460ff1681565b6000610374610598565b151561037f57600080fd5b506000805475ff00000000000000000000000000000000000000000019167501000000000000000000000000000000000000000000179055600190565b336000818152600460205260408120549091610100909104600160a060020a0316146103e757600080fd5b33600081815260046020908152604091829020805460ff19166001179055815192835290517ff5f1a1247aa8d2a5ca47f8c104886e2df9ac31612408cd09314472006efafa9b9281900390910190a150600190565b60005474010000000000000000000000000000000000000000900460ff1681565b600160a060020a03808216600081815260046020526040812054909261010090910416141561048e57506001610492565b5060005b919050565b60015481565b600054600160a060020a031633146104b457600080fd5b60008054604051600160a060020a03909116917ff8df31144d9c2f0f6b59d69b8b98abd5459d07f2742c4df920b25aae33c6482091a26000805473ffffffffffffffffffffffffffffffffffffffff19169055565b600160a060020a031660009081526004602052604090205460ff1690565b60035490565b600054600160a060020a031681565b600380548290811061054a57fe5b600091825260209091200154600160a060020a0316905081565b60046020526000908152604090208054600182015460029092015460ff821692610100909204600160a060020a0316919084565b600080600080600060159054906101000a900460ff16156105bc57600093506106c4565b506001915060009050805b60035481101561068a57600460006003838154811015156105e457fe5b6000918252602080832090910154600160a060020a0316835282019290925260400190205460ff16151561061b57600093506106c4565b6004600060038381548110151561062e57fe5b6000918252602080832090910154600160a060020a031683528201929092526040019020600101547f41444d494e000000000000000000000000000000000000000000000000000000141561068257600191505b6001016105c7565b60005474010000000000000000000000000000000000000000900460ff1680156106b2575081155b156106c057600093506106c4565b8293505b50505090565b60025481565b60035460009015156106e457506000610492565b600160a060020a03821660008181526004602052604090206002015460038054909190811061070f57fe5b600091825260209091200154600160a060020a03161492915050565b600054600160a060020a0316331461074257600080fd5b61074b816108da565b50565b60008054600160a060020a0316331461076657600080fd5b61076f836106d0565b1561077957600080fd5b600160a060020a038316600081815260046020908152604091829020805474ffffffffffffffffffffffffffffffffffffffff001916610100850217815560018082018790556003805491820190557fc2575a0e9e593c00f959f8c92f12db2869c3395a3b0502d05e2516446f71f85b8101805473ffffffffffffffffffffffffffffffffffffffff1916861790556002909101558151928352820184905280517faafad92ab2bdab3d1a8c119c523f2ecdaeeb618b561d447e8d87afeb8b029a559281900390910190a150600192915050565b600160a060020a038082166000818152600460205260408120549092610100909104161461087a57600080fd5b600160a060020a038216600081815260046020908152604091829020805460ff19166001179055815192835290517ff5f1a1247aa8d2a5ca47f8c104886e2df9ac31612408cd09314472006efafa9b9281900390910190a1506001919050565b600160a060020a03811615156108ef57600080fd5b60008054604051600160a060020a03808516939216917f8be0079c531659141344cd1fd0a4f28419497f9722a3daafe3b4186f6b6457e091a36000805473ffffffffffffffffffffffffffffffffffffffff1916600160a060020a03929092169190911790555600a165627a7a72305820e0bf7322b960e5ebba3cf97c1f80adddcff4aad8bfa42666e579cd071b19be610029a165627a7a72305820b3703a41ede89930b88aee6e3848b68dac2f9847b45a9634d30fbaee84b25dfa0029",
    "source": "pragma solidity ^0.4.24;\nimport \"openzeppelin-solidity/contracts/ownership/Ownable.sol\";\nimport 'openzeppelin-solidity/contracts/math/SafeMath.sol';\nimport '../structures/SignedDocument.sol';\n\ncontract SignedDocumentFactory is Ownable{\n    event SignedDocumentCreated(address SignedDocument);\n\n    function createSignedDocument (\n        bool      _admin,\n        bytes32      _url,\n        bytes32      _urlMD5\n    ) public returns(address){\n\n        SignedDocument newContract = new SignedDocument(_admin,\n            _urlMD5,\n            _url);\n        emit SignedDocumentCreated(address(newContract));\n        return address(newContract);\n    }\n\n    function shouldSign(address signedDocument , address _user, bytes32 _role) public returns(bool success) {\n         SignedDocument signedDocumentContract = SignedDocument(signedDocument);\n         return signedDocumentContract.shouldSign(_user, _role);\n    }\n\n\n    function sign(address signedDocument) public returns(bool success) {\n        SignedDocument signedDocumentContract = SignedDocument(signedDocument);\n        return signedDocumentContract.sign(msg.sender);\n    }\n\n    function isSign(address signedDocument) public view returns(bool) {\n        SignedDocument signedDocumentContract = SignedDocument(signedDocument);\n        return signedDocumentContract.isSign();\n    }\n\n}\n",
    "sourcePath": "/Users/roilandshut/projects/brikoin/brikoin/contracts/factory/SignedDocumentFactory.sol",
    "compiler": {
        "name": "solc",
        "version": "0.4.24+commit.e67f0147.Emscripten.clang"
    },
    "schemaVersion": "2.0.1",
    "updatedAt": "2019-10-27T14:12:11.005Z"
}