{
    "contractName": "StoneCoin",
    "abi": [
        {
            "constant": true,
            "inputs": [
                {
                    "name": "",
                    "type": "address"
                }
            ],
            "name": "owners",
            "outputs": [
                {
                    "name": "",
                    "type": "bool"
                }
            ],
            "payable": false,
            "stateMutability": "view",
            "type": "function"
        },
        {
            "constant": true,
            "inputs": [],
            "name": "name",
            "outputs": [
                {
                    "name": "",
                    "type": "bytes32"
                }
            ],
            "payable": false,
            "stateMutability": "view",
            "type": "function"
        },
        {
            "constant": true,
            "inputs": [
                {
                    "name": "",
                    "type": "uint256"
                }
            ],
            "name": "urlMD5",
            "outputs": [
                {
                    "name": "",
                    "type": "bytes32"
                }
            ],
            "payable": false,
            "stateMutability": "view",
            "type": "function"
        },
        {
            "constant": false,
            "inputs": [
                {
                    "name": "_newOwner",
                    "type": "address"
                }
            ],
            "name": "setOwner",
            "outputs": [],
            "payable": false,
            "stateMutability": "nonpayable",
            "type": "function"
        },
        {
            "constant": true,
            "inputs": [
                {
                    "name": "",
                    "type": "uint256"
                }
            ],
            "name": "url",
            "outputs": [
                {
                    "name": "",
                    "type": "bytes32"
                }
            ],
            "payable": false,
            "stateMutability": "view",
            "type": "function"
        },
        {
            "constant": true,
            "inputs": [],
            "name": "getAddress",
            "outputs": [
                {
                    "name": "",
                    "type": "address"
                }
            ],
            "payable": false,
            "stateMutability": "view",
            "type": "function"
        },
        {
            "constant": false,
            "inputs": [
                {
                    "name": "_newOwner",
                    "type": "address"
                }
            ],
            "name": "removeOwnership",
            "outputs": [],
            "payable": false,
            "stateMutability": "nonpayable",
            "type": "function"
        },
        {
            "constant": true,
            "inputs": [],
            "name": "owner",
            "outputs": [
                {
                    "name": "",
                    "type": "address"
                }
            ],
            "payable": false,
            "stateMutability": "view",
            "type": "function"
        },
        {
            "constant": true,
            "inputs": [],
            "name": "assetManager",
            "outputs": [
                {
                    "name": "",
                    "type": "address"
                }
            ],
            "payable": false,
            "stateMutability": "view",
            "type": "function"
        },
        {
            "constant": true,
            "inputs": [],
            "name": "symbol",
            "outputs": [
                {
                    "name": "",
                    "type": "bytes32"
                }
            ],
            "payable": false,
            "stateMutability": "view",
            "type": "function"
        },
        {
            "constant": true,
            "inputs": [],
            "name": "durationSeconds",
            "outputs": [
                {
                    "name": "",
                    "type": "uint256"
                }
            ],
            "payable": false,
            "stateMutability": "view",
            "type": "function"
        },
        {
            "constant": true,
            "inputs": [],
            "name": "startTimestamp",
            "outputs": [
                {
                    "name": "",
                    "type": "uint256"
                }
            ],
            "payable": false,
            "stateMutability": "view",
            "type": "function"
        },
        {
            "constant": true,
            "inputs": [
                {
                    "name": "user",
                    "type": "address"
                }
            ],
            "name": "isOwnable",
            "outputs": [
                {
                    "name": "",
                    "type": "bool"
                }
            ],
            "payable": false,
            "stateMutability": "view",
            "type": "function"
        },
        {
            "constant": false,
            "inputs": [
                {
                    "name": "_newOwner",
                    "type": "address"
                }
            ],
            "name": "addOwnership",
            "outputs": [],
            "payable": false,
            "stateMutability": "nonpayable",
            "type": "function"
        },
        {
            "inputs": [
                {
                    "name": "_name",
                    "type": "bytes32"
                },
                {
                    "name": "_symbol",
                    "type": "bytes32"
                },
                {
                    "name": "_target",
                    "type": "uint256"
                },
                {
                    "name": "_startTimestamp",
                    "type": "uint256"
                },
                {
                    "name": "_durationSeconds",
                    "type": "uint256"
                },
                {
                    "name": "_assetManager",
                    "type": "address"
                },
                {
                    "name": "_url",
                    "type": "bytes32"
                },
                {
                    "name": "_urlMD5",
                    "type": "bytes32"
                },
                {
                    "name": "_signDocument",
                    "type": "bool"
                },
                {
                    "name": "_minBulkSize",
                    "type": "uint256"
                }
            ],
            "payable": false,
            "stateMutability": "nonpayable",
            "type": "constructor"
        },
        {
            "anonymous": false,
            "inputs": [
                {
                    "indexed": false,
                    "name": "from",
                    "type": "address"
                },
                {
                    "indexed": false,
                    "name": "to",
                    "type": "address"
                },
                {
                    "indexed": false,
                    "name": "amount",
                    "type": "uint256"
                }
            ],
            "name": "Sent",
            "type": "event"
        },
        {
            "anonymous": false,
            "inputs": [
                {
                    "indexed": false,
                    "name": "estimation",
                    "type": "address"
                }
            ],
            "name": "EstimationAdded",
            "type": "event"
        },
        {
            "anonymous": false,
            "inputs": [
                {
                    "indexed": false,
                    "name": "user",
                    "type": "address"
                },
                {
                    "indexed": false,
                    "name": "units",
                    "type": "uint256"
                }
            ],
            "name": "Invest",
            "type": "event"
        },
        {
            "anonymous": false,
            "inputs": [
                {
                    "indexed": false,
                    "name": "buyer",
                    "type": "address"
                },
                {
                    "indexed": false,
                    "name": "units",
                    "type": "uint256"
                },
                {
                    "indexed": false,
                    "name": "initialOffering",
                    "type": "bool"
                }
            ],
            "name": "Buy",
            "type": "event"
        },
        {
            "anonymous": false,
            "inputs": [
                {
                    "indexed": false,
                    "name": "seller",
                    "type": "address"
                },
                {
                    "indexed": false,
                    "name": "units",
                    "type": "uint256"
                }
            ],
            "name": "Sell",
            "type": "event"
        },
        {
            "anonymous": false,
            "inputs": [
                {
                    "indexed": false,
                    "name": "units",
                    "type": "uint256"
                }
            ],
            "name": "OwnerTokenCleared",
            "type": "event"
        },
        {
            "anonymous": false,
            "inputs": [
                {
                    "indexed": false,
                    "name": "user",
                    "type": "address"
                },
                {
                    "indexed": false,
                    "name": "mortgageAddress",
                    "type": "address"
                }
            ],
            "name": "MortgageCleared",
            "type": "event"
        },
        {
            "anonymous": false,
            "inputs": [
                {
                    "indexed": false,
                    "name": "user",
                    "type": "address"
                },
                {
                    "indexed": false,
                    "name": "mortgagee",
                    "type": "address"
                },
                {
                    "indexed": false,
                    "name": "mortgageAddress",
                    "type": "address"
                }
            ],
            "name": "MortgageForfeiture",
            "type": "event"
        },
        {
            "anonymous": false,
            "inputs": [
                {
                    "indexed": false,
                    "name": "buyer",
                    "type": "address"
                },
                {
                    "indexed": false,
                    "name": "units",
                    "type": "uint256"
                },
                {
                    "indexed": false,
                    "name": "initialOffering",
                    "type": "bool"
                }
            ],
            "name": "BuyMortgaged",
            "type": "event"
        },
        {
            "anonymous": false,
            "inputs": [
                {
                    "indexed": false,
                    "name": "seller",
                    "type": "address"
                },
                {
                    "indexed": false,
                    "name": "units",
                    "type": "uint256"
                }
            ],
            "name": "SellMortgaged",
            "type": "event"
        },
        {
            "anonymous": false,
            "inputs": [
                {
                    "indexed": false,
                    "name": "ownerUnits",
                    "type": "uint256"
                }
            ],
            "name": "Debug",
            "type": "event"
        },
        {
            "anonymous": false,
            "inputs": [
                {
                    "indexed": true,
                    "name": "previousOwner",
                    "type": "address"
                }
            ],
            "name": "OwnershipRenounced",
            "type": "event"
        },
        {
            "anonymous": false,
            "inputs": [
                {
                    "indexed": true,
                    "name": "previousOwner",
                    "type": "address"
                },
                {
                    "indexed": true,
                    "name": "newOwner",
                    "type": "address"
                }
            ],
            "name": "OwnershipTransferred",
            "type": "event"
        },
        {
            "constant": true,
            "inputs": [],
            "name": "isInitialOffering",
            "outputs": [
                {
                    "name": "",
                    "type": "bool"
                }
            ],
            "payable": false,
            "stateMutability": "view",
            "type": "function"
        },
        {
            "constant": true,
            "inputs": [],
            "name": "getOwnerTokens",
            "outputs": [
                {
                    "name": "",
                    "type": "uint256"
                }
            ],
            "payable": false,
            "stateMutability": "view",
            "type": "function"
        },
        {
            "constant": true,
            "inputs": [],
            "name": "isSignDocument",
            "outputs": [
                {
                    "name": "",
                    "type": "bool"
                }
            ],
            "payable": false,
            "stateMutability": "view",
            "type": "function"
        },
        {
            "constant": true,
            "inputs": [],
            "name": "getOrganization",
            "outputs": [
                {
                    "name": "",
                    "type": "address"
                }
            ],
            "payable": false,
            "stateMutability": "view",
            "type": "function"
        },
        {
            "constant": true,
            "inputs": [],
            "name": "getReservedPrice",
            "outputs": [
                {
                    "name": "",
                    "type": "uint256"
                }
            ],
            "payable": false,
            "stateMutability": "view",
            "type": "function"
        },
        {
            "constant": true,
            "inputs": [],
            "name": "getCurrency",
            "outputs": [
                {
                    "name": "",
                    "type": "bytes32"
                }
            ],
            "payable": false,
            "stateMutability": "view",
            "type": "function"
        },
        {
            "constant": false,
            "inputs": [
                {
                    "name": "_reservedPrice",
                    "type": "uint256"
                }
            ],
            "name": "setReservedPrice",
            "outputs": [],
            "payable": false,
            "stateMutability": "nonpayable",
            "type": "function"
        },
        {
            "constant": false,
            "inputs": [
                {
                    "name": "_currency",
                    "type": "bytes32"
                }
            ],
            "name": "setCurrency",
            "outputs": [],
            "payable": false,
            "stateMutability": "nonpayable",
            "type": "function"
        },
        {
            "constant": false,
            "inputs": [
                {
                    "name": "_stoneCoinMortgageAddress",
                    "type": "address"
                }
            ],
            "name": "setStoneCoinMortgageAddress",
            "outputs": [],
            "payable": false,
            "stateMutability": "nonpayable",
            "type": "function"
        },
        {
            "constant": false,
            "inputs": [
                {
                    "name": "_stoneCoinStorageAddress",
                    "type": "address"
                }
            ],
            "name": "setStoneCoinStorageAddress",
            "outputs": [],
            "payable": false,
            "stateMutability": "nonpayable",
            "type": "function"
        },
        {
            "constant": false,
            "inputs": [],
            "name": "init",
            "outputs": [],
            "payable": false,
            "stateMutability": "nonpayable",
            "type": "function"
        },
        {
            "constant": true,
            "inputs": [],
            "name": "STONES",
            "outputs": [
                {
                    "name": "",
                    "type": "uint256"
                }
            ],
            "payable": false,
            "stateMutability": "view",
            "type": "function"
        },
        {
            "constant": true,
            "inputs": [
                {
                    "name": "holder",
                    "type": "address"
                }
            ],
            "name": "isHolder",
            "outputs": [
                {
                    "name": "",
                    "type": "bool"
                }
            ],
            "payable": false,
            "stateMutability": "view",
            "type": "function"
        },
        {
            "constant": false,
            "inputs": [],
            "name": "setTransferFree",
            "outputs": [],
            "payable": false,
            "stateMutability": "nonpayable",
            "type": "function"
        },
        {
            "constant": false,
            "inputs": [],
            "name": "setTransferFreeWithContract",
            "outputs": [],
            "payable": false,
            "stateMutability": "nonpayable",
            "type": "function"
        },
        {
            "constant": true,
            "inputs": [
                {
                    "name": "i",
                    "type": "uint256"
                }
            ],
            "name": "getHolderByIndex",
            "outputs": [
                {
                    "name": "holder",
                    "type": "address"
                }
            ],
            "payable": false,
            "stateMutability": "view",
            "type": "function"
        },
        {
            "constant": true,
            "inputs": [],
            "name": "getHoldersCount",
            "outputs": [
                {
                    "name": "holderCount",
                    "type": "uint256"
                }
            ],
            "payable": false,
            "stateMutability": "view",
            "type": "function"
        },
        {
            "constant": false,
            "inputs": [
                {
                    "name": "holder",
                    "type": "address"
                },
                {
                    "name": "units",
                    "type": "uint256"
                }
            ],
            "name": "newHolder",
            "outputs": [
                {
                    "name": "success",
                    "type": "bool"
                }
            ],
            "payable": false,
            "stateMutability": "nonpayable",
            "type": "function"
        },
        {
            "constant": false,
            "inputs": [
                {
                    "name": "holder",
                    "type": "address"
                },
                {
                    "name": "units",
                    "type": "uint256"
                }
            ],
            "name": "updateHoldings",
            "outputs": [
                {
                    "name": "success",
                    "type": "bool"
                }
            ],
            "payable": false,
            "stateMutability": "nonpayable",
            "type": "function"
        },
        {
            "constant": false,
            "inputs": [
                {
                    "name": "holder",
                    "type": "address"
                }
            ],
            "name": "deleteHolder",
            "outputs": [
                {
                    "name": "success",
                    "type": "bool"
                }
            ],
            "payable": false,
            "stateMutability": "nonpayable",
            "type": "function"
        },
        {
            "constant": false,
            "inputs": [
                {
                    "name": "_from",
                    "type": "address"
                },
                {
                    "name": "_to",
                    "type": "address"
                },
                {
                    "name": "_units",
                    "type": "uint256"
                },
                {
                    "name": "contractAddress",
                    "type": "address"
                }
            ],
            "name": "transferTokenFrom",
            "outputs": [
                {
                    "name": "",
                    "type": "bool"
                }
            ],
            "payable": false,
            "stateMutability": "nonpayable",
            "type": "function"
        },
        {
            "constant": false,
            "inputs": [
                {
                    "name": "buyer",
                    "type": "address"
                },
                {
                    "name": "units",
                    "type": "uint256"
                }
            ],
            "name": "buy",
            "outputs": [],
            "payable": false,
            "stateMutability": "nonpayable",
            "type": "function"
        },
        {
            "constant": false,
            "inputs": [
                {
                    "name": "seller",
                    "type": "address"
                },
                {
                    "name": "units",
                    "type": "uint256"
                }
            ],
            "name": "sell",
            "outputs": [],
            "payable": false,
            "stateMutability": "nonpayable",
            "type": "function"
        },
        {
            "constant": false,
            "inputs": [],
            "name": "clearOwnerTokens",
            "outputs": [],
            "payable": false,
            "stateMutability": "nonpayable",
            "type": "function"
        },
        {
            "constant": false,
            "inputs": [
                {
                    "name": "user",
                    "type": "address"
                },
                {
                    "name": "_mortgageAddress",
                    "type": "address"
                }
            ],
            "name": "clearMortgage",
            "outputs": [],
            "payable": false,
            "stateMutability": "nonpayable",
            "type": "function"
        },
        {
            "constant": false,
            "inputs": [
                {
                    "name": "user",
                    "type": "address"
                },
                {
                    "name": "mortgagee",
                    "type": "address"
                },
                {
                    "name": "_mortgageAddress",
                    "type": "address"
                },
                {
                    "name": "_marketPriceMills",
                    "type": "uint256"
                },
                {
                    "name": "maxDefaulted",
                    "type": "bool"
                }
            ],
            "name": "partlyForfeitureMortgage",
            "outputs": [],
            "payable": false,
            "stateMutability": "nonpayable",
            "type": "function"
        },
        {
            "constant": false,
            "inputs": [
                {
                    "name": "mortgageAddress",
                    "type": "address"
                },
                {
                    "name": "buyer",
                    "type": "address"
                },
                {
                    "name": "units",
                    "type": "uint256"
                }
            ],
            "name": "buyMortgaged",
            "outputs": [],
            "payable": false,
            "stateMutability": "nonpayable",
            "type": "function"
        },
        {
            "constant": true,
            "inputs": [
                {
                    "name": "user",
                    "type": "address"
                }
            ],
            "name": "getBalance",
            "outputs": [
                {
                    "name": "balance",
                    "type": "uint256"
                }
            ],
            "payable": false,
            "stateMutability": "view",
            "type": "function"
        },
        {
            "constant": false,
            "inputs": [
                {
                    "name": "mortgageAddress",
                    "type": "address"
                },
                {
                    "name": "seller",
                    "type": "address"
                },
                {
                    "name": "amount",
                    "type": "uint256"
                }
            ],
            "name": "sellMortgaged",
            "outputs": [],
            "payable": false,
            "stateMutability": "nonpayable",
            "type": "function"
        },
        {
            "constant": true,
            "inputs": [],
            "name": "getOwnerBalance",
            "outputs": [
                {
                    "name": "balance",
                    "type": "uint256"
                }
            ],
            "payable": false,
            "stateMutability": "view",
            "type": "function"
        },
        {
            "constant": true,
            "inputs": [
                {
                    "name": "_user",
                    "type": "address"
                }
            ],
            "name": "balanceOf",
            "outputs": [
                {
                    "name": "",
                    "type": "uint256"
                }
            ],
            "payable": false,
            "stateMutability": "view",
            "type": "function"
        },
        {
            "constant": true,
            "inputs": [],
            "name": "getMinBulkSize",
            "outputs": [
                {
                    "name": "",
                    "type": "uint256"
                }
            ],
            "payable": false,
            "stateMutability": "view",
            "type": "function"
        },
        {
            "constant": true,
            "inputs": [],
            "name": "getMaxBulkSize",
            "outputs": [
                {
                    "name": "",
                    "type": "uint256"
                }
            ],
            "payable": false,
            "stateMutability": "view",
            "type": "function"
        },
        {
            "constant": false,
            "inputs": [
                {
                    "name": "dilutionUnits",
                    "type": "uint256"
                }
            ],
            "name": "dilutionStoneCoin",
            "outputs": [],
            "payable": false,
            "stateMutability": "nonpayable",
            "type": "function"
        },
        {
            "constant": false,
            "inputs": [
                {
                    "name": "units",
                    "type": "uint256"
                }
            ],
            "name": "removeStoneCoin",
            "outputs": [],
            "payable": false,
            "stateMutability": "nonpayable",
            "type": "function"
        },
        {
            "constant": false,
            "inputs": [
                {
                    "name": "bulkSize",
                    "type": "uint256"
                }
            ],
            "name": "setMinBulkSize",
            "outputs": [],
            "payable": false,
            "stateMutability": "nonpayable",
            "type": "function"
        },
        {
            "constant": false,
            "inputs": [
                {
                    "name": "bulkSize",
                    "type": "uint256"
                }
            ],
            "name": "setMaxBulkSize",
            "outputs": [],
            "payable": false,
            "stateMutability": "nonpayable",
            "type": "function"
        },
        {
            "constant": false,
            "inputs": [
                {
                    "name": "_organization",
                    "type": "address"
                }
            ],
            "name": "setOrganization",
            "outputs": [],
            "payable": false,
            "stateMutability": "nonpayable",
            "type": "function"
        },
        {
            "constant": false,
            "inputs": [
                {
                    "name": "_url",
                    "type": "bytes32"
                },
                {
                    "name": "_urlMD5",
                    "type": "bytes32"
                }
            ],
            "name": "addDocument",
            "outputs": [],
            "payable": false,
            "stateMutability": "nonpayable",
            "type": "function"
        },
        {
            "constant": true,
            "inputs": [],
            "name": "getDocumentsLength",
            "outputs": [
                {
                    "name": "",
                    "type": "uint256"
                }
            ],
            "payable": false,
            "stateMutability": "view",
            "type": "function"
        },
        {
            "constant": false,
            "inputs": [
                {
                    "name": "_user",
                    "type": "address"
                },
                {
                    "name": "mortgageAddress",
                    "type": "address"
                },
                {
                    "name": "_to",
                    "type": "address"
                },
                {
                    "name": "sale",
                    "type": "bool"
                }
            ],
            "name": "forecloseTokens",
            "outputs": [],
            "payable": false,
            "stateMutability": "nonpayable",
            "type": "function"
        }
    ],
    "bytecode": "0x60806040527f53746f6e65436f696e0000000000000000000000000000000000000000000000600a557f5354430000000000000000000000000000000000000000000000000000000000600b556293a800600e556000600f8190556010805463ffffff001960ff1990911660011716905560115560128054600160a060020a031916905534801561008f57600080fd5b50604051610140806134888339810160409081528151602080840151838501516060860151608087015160a088015160c089015160e08a0151610100808c0151610120909c01513360008181529a8b90529b8a20805460ff191660019081179091558054600160a060020a03199081168e178255600a9c909c55600b99909955600f88905560058054808b019091557f036b6384b5eca791c62761152d0c79bb0604c104a5fb6f4eb0703f3154bb3db0019390935560068054808a01825599527ff652222313e28459528d920b65115c16c04f3efc82aaedc97be59f3f377c0d3f90980155600d93909355600792909255600e5560048054600160a060020a0390921691861691909117905581549093169093179092556008556010805463ffff00001993151590920261ff0019909216919091179190911690557f5553440000000000000000000000000000000000000000000000000000000000600c5561328b806101fd6000396000f3006080604052600436106102795763ffffffff60e060020a600035041663022914a7811461027e57806306ec8ca6146102b357806306fdde03146102cd57806309173f9e146102f45780630b331f891461030f5780630c852c8f146103275780630f4ee32f1461033c57806313217f411461035457806313af40351461036c5780631d9821cd1461038d57806324b392db146103a557806338cc4831146103bd57806339b16173146103ee578063436bbf331461040f5780634506559f146104245780634e69149c146104565780635235553314610477578063590791f21461048c57806362db90c3146104a1578063666a3427146104b65780636945c1fd146104d75780636c197ff5146104ec5780637071e8831461051057806370a082311461052557806373889f4a146105465780637d9aa5e11461055b5780638da5cb5b1461057f57806394217ad11461059457806395d89b41146105a95780639a8f402a146105be5780639acba2af146105d35780639eab2b39146105e8578063a397d39d146105fd578063a720b8af1461062e578063a84566dd14610652578063abb8e21314610667578063b52d75c31461067c578063cb8106f4146106b1578063cce7ec13146106c9578063cff15d79146106ed578063d22c010014610717578063d4d7b19a14610741578063dbb2205c14610762578063e1c7392a14610777578063e1f3985b1461078c578063e6fd48bc146107ad578063e88914de146107c2578063eb299768146107e3578063ec312480146107fb578063f5995f5a14610810578063f5a55ff614610831578063f8b2cb4f14610852578063f8cc6c1e14610873578063fca669001461088b578063ff98e76f146108a0575b600080fd5b34801561028a57600080fd5b5061029f600160a060020a03600435166108c7565b604080519115158252519081900360200190f35b3480156102bf57600080fd5b506102cb6004356108dc565b005b3480156102d957600080fd5b506102e26108ff565b60408051918252519081900360200190f35b34801561030057600080fd5b506102cb600435602435610905565b34801561031b57600080fd5b506102cb600435610988565b34801561033357600080fd5b5061029f6109ab565b34801561034857600080fd5b506102e26004356109b4565b34801561036057600080fd5b506102cb6004356109d3565b34801561037857600080fd5b506102cb600160a060020a0360043516610b9a565b34801561039957600080fd5b506102e2600435610be7565b3480156103b157600080fd5b506102cb600435610bf5565b3480156103c957600080fd5b506103d2610c18565b60408051600160a060020a039092168252519081900360200190f35b3480156103fa57600080fd5b5061029f600160a060020a0360043516610c1c565b34801561041b57600080fd5b506102e2610ced565b34801561043057600080fd5b506102cb600160a060020a03600435811690602435811690604435166064351515610d92565b34801561046257600080fd5b506102cb600160a060020a03600435166111d6565b34801561048357600080fd5b506102e2611223565b34801561049857600080fd5b506102e26112b3565b3480156104ad57600080fd5b506102e261130f565b3480156104c257600080fd5b506102cb600160a060020a0360043516611315565b3480156104e357600080fd5b506102e261133f565b3480156104f857600080fd5b506102cb600160a060020a0360043516602435611345565b34801561051c57600080fd5b506102cb6113cd565b34801561053157600080fd5b506102e2600160a060020a0360043516611400565b34801561055257600080fd5b506102e26115d2565b34801561056757600080fd5b5061029f600160a060020a0360043516602435611631565b34801561058b57600080fd5b506103d261189e565b3480156105a057600080fd5b506103d26118ad565b3480156105b557600080fd5b506102e26118bc565b3480156105ca57600080fd5b506102cb6118c2565b3480156105df57600080fd5b506102e26118f3565b3480156105f457600080fd5b506102e26118f9565b34801561060957600080fd5b5061029f600160a060020a0360043581169060243581169060443590606435166118ff565b34801561063a57600080fd5b5061029f600160a060020a0360043516602435611b70565b34801561065e57600080fd5b506102cb611c70565b34801561067357600080fd5b506103d2611df6565b34801561068857600080fd5b506102cb600160a060020a03600435811690602435811690604435166064356084351515611e05565b3480156106bd57600080fd5b506103d2600435611e83565b3480156106d557600080fd5b506102cb600160a060020a0360043516602435611f3a565b3480156106f957600080fd5b506102cb600160a060020a0360043581169060243516604435611ff7565b34801561072357600080fd5b506102cb600160a060020a0360043581169060243516604435612026565b34801561074d57600080fd5b5061029f600160a060020a03600435166120bc565b34801561076e57600080fd5b506102e2612214565b34801561078357600080fd5b506102cb612231565b34801561079857600080fd5b506102cb600160a060020a03600435166122eb565b3480156107b957600080fd5b506102e2612338565b3480156107ce57600080fd5b5061029f600160a060020a036004351661233e565b3480156107ef57600080fd5b506102cb60043561235c565b34801561080757600080fd5b506102e26124fb565b34801561081c57600080fd5b506102cb600160a060020a0360043516612501565b34801561083d57600080fd5b506102cb600160a060020a036004351661254e565b34801561085e57600080fd5b506102e2600160a060020a0360043516612575565b34801561087f57600080fd5b506102cb6004356125e2565b34801561089757600080fd5b5061029f612605565b3480156108ac57600080fd5b506102cb600160a060020a0360043581169060243516612613565b60006020819052908152604090205460ff1681565b3360009081526020819052604090205460ff1615156108fa57600080fd5b600c55565b600a5481565b3360009081526020819052604090205460ff16151561092357600080fd5b6005805460018181019092557f036b6384b5eca791c62761152d0c79bb0604c104a5fb6f4eb0703f3154bb3db001929092556006805492830181556000527ff652222313e28459528d920b65115c16c04f3efc82aaedc97be59f3f377c0d3f90910155565b3360009081526020819052604090205460ff1615156109a657600080fd5b600755565b60105460ff1690565b60068054829081106109c257fe5b600091825260209091200154905081565b3360009081526020819052604081205460ff1615156109f157600080fd5b600354600154604080516000805160206132408339815191528152600160a060020a0392831660048201529051919092169163368e73cf9160248083019260209291908290030181600087803b158015610a4a57600080fd5b505af1158015610a5e573d6000803e3d6000fd5b505050506040513d6020811015610a7457600080fd5b5051905081811015610a8557600080fd5b600354600154600160a060020a039182169163118f55889116610aae848663ffffffff61286f16565b6040518363ffffffff1660e060020a0281526004018083600160a060020a0316600160a060020a0316815260200182815260200192505050600060405180830381600087803b158015610b0057600080fd5b505af1158015610b14573d6000803e3d6000fd5b5050600354604080517fc2ce4ae2000000000000000000000000000000000000000000000000000000008152600481018790529051600160a060020a03909216935063c2ce4ae2925060248082019260009290919082900301818387803b158015610b7e57600080fd5b505af1158015610b92573d6000803e3d6000fd5b505050505050565b3360009081526020819052604090205460ff161515610bb857600080fd5b6001805473ffffffffffffffffffffffffffffffffffffffff1916600160a060020a0392909216919091179055565b60058054829081106109c257fe5b3360009081526020819052604090205460ff161515610c1357600080fd5b600855565b3090565b3360009081526020819052604081205460ff161515610c3a57600080fd5b610c43826120bc565b1515600114610c5157600080fd5b600354604080517f39b16173000000000000000000000000000000000000000000000000000000008152600160a060020a038581166004830152915191909216916339b161739160248083019260209291908290030181600087803b158015610cb957600080fd5b505af1158015610ccd573d6000803e3d6000fd5b505050506040513d6020811015610ce357600080fd5b5060019392505050565b600354600154604080516000805160206132408339815191528152600160a060020a03928316600482015290516000938493169163368e73cf91602480830192602092919082900301818787803b158015610d4757600080fd5b505af1158015610d5b573d6000803e3d6000fd5b505050506040513d6020811015610d7157600080fd5b5051600754909150811015610d8857809150610d8e565b60075491505b5090565b336000908152602081905260408120548190819060ff161515610db457600080fd5b600354604080516000805160206132408339815191528152600160a060020a0388811660048301529151919092169163368e73cf9160248083019260209291908290030181600087803b158015610e0a57600080fd5b505af1158015610e1e573d6000803e3d6000fd5b505050506040513d6020811015610e3457600080fd5b5051600354604080516000805160206132408339815191528152600160a060020a038b81166004830152915193965091169163368e73cf916024808201926020929091908290030181600087803b158015610e8e57600080fd5b505af1158015610ea2573d6000803e3d6000fd5b505050506040513d6020811015610eb857600080fd5b50519150600160a060020a0386161561109f57600254604080517ff22ec3da000000000000000000000000000000000000000000000000000000008152600160a060020a038a8116600483015289811660248301529151919092169163f22ec3da9160448083019260209291908290030181600087803b158015610f3b57600080fd5b505af1158015610f4f573d6000803e3d6000fd5b505050506040513d6020811015610f6557600080fd5b5051600354909150600160a060020a031663118f558886610f8c868563ffffffff61288116565b6040518363ffffffff1660e060020a0281526004018083600160a060020a0316600160a060020a0316815260200182815260200192505050600060405180830381600087803b158015610fde57600080fd5b505af1158015610ff2573d6000803e3d6000fd5b5050505083156110135760115461100f908263ffffffff61286f16565b6011555b600254604080517feeceeef6000000000000000000000000000000000000000000000000000000008152600160a060020a038a8116600483015289811660248301529151919092169163eeceeef691604480830192600092919082900301818387803b15801561108257600080fd5b505af1158015611096573d6000803e3d6000fd5b505050506111cd565b600354600160a060020a031663118f5588866110c1868663ffffffff61288116565b6040518363ffffffff1660e060020a0281526004018083600160a060020a0316600160a060020a0316815260200182815260200192505050600060405180830381600087803b15801561111357600080fd5b505af1158015611127573d6000803e3d6000fd5b50505050831561114857601154611144908363ffffffff61286f16565b6011555b600354604080517f118f5588000000000000000000000000000000000000000000000000000000008152600160a060020a038a81166004830152600060248301819052925193169263118f55889260448084019391929182900301818387803b1580156111b457600080fd5b505af11580156111c8573d6000803e3d6000fd5b505050505b50505050505050565b3360009081526020819052604090205460ff1615156111f457600080fd5b6012805473ffffffffffffffffffffffffffffffffffffffff1916600160a060020a0392909216919091179055565b600354604080517fad2e5c8b0000000000000000000000000000000000000000000000000000000081529051600092600160a060020a03169163ad2e5c8b91600480830192602092919082900301818787803b15801561128257600080fd5b505af1158015611296573d6000803e3d6000fd5b505050506040513d60208110156112ac57600080fd5b5051905090565b600354600154604080516000805160206132408339815191528152600160a060020a0392831660048201529051600093929092169163368e73cf9160248082019260209290919082900301818787803b15801561128257600080fd5b60055490565b3360009081526020819052604090205460ff16151561133357600080fd5b61133c81612894565b50565b600c5490565b3360009081526020819052604090205460ff16151561136357600080fd5b60015461137b908390600160a060020a0316836128ca565b507f5e5e995ce3133561afceaa51a9a154d5db228cd7525d34df5185582c18d3df09826113a784612575565b60408051600160a060020a03909316835260208301919091528051918290030190a15050565b3360009081526020819052604090205460ff1615156113eb57600080fd5b6010805463ff00000019166301000000179055565b6002546000908190600160a060020a03161561154757600254604080517f70a08231000000000000000000000000000000000000000000000000000000008152600160a060020a038681166004830152915161153d9392909216916370a08231916024808201926020929091908290030181600087803b15801561148357600080fd5b505af1158015611497573d6000803e3d6000fd5b505050506040513d60208110156114ad57600080fd5b5051600354604080516000805160206132408339815191528152600160a060020a0388811660048301529151919092169163368e73cf9160248083019260209291908290030181600087803b15801561150557600080fd5b505af1158015611519573d6000803e3d6000fd5b505050506040513d602081101561152f57600080fd5b50519063ffffffff61288116565b90508091506115cc565b600354604080516000805160206132408339815191528152600160a060020a0386811660048301529151919092169163368e73cf9160248083019260209291908290030181600087803b15801561159d57600080fd5b505af11580156115b1573d6000803e3d6000fd5b505050506040513d60208110156115c757600080fd5b505191505b50919050565b600354604080517fdb04aef40000000000000000000000000000000000000000000000000000000081529051600092600160a060020a03169163db04aef491600480830192602092919082900301818787803b15801561128257600080fd5b33600090815260208190526040812054819060ff16151561165157600080fd5b61165a846120bc565b1561166457600080fd5b600354604080517fd7fc2d1f000000000000000000000000000000000000000000000000000000008152600160a060020a038781166004830152600160248301529151919092169163d7fc2d1f91604480830192600092919082900301818387803b1580156116d257600080fd5b505af11580156116e6573d6000803e3d6000fd5b5050600354604080517f118f5588000000000000000000000000000000000000000000000000000000008152600160a060020a03898116600483015260248201899052915191909216935063118f55889250604480830192600092919082900301818387803b15801561175857600080fd5b505af115801561176c573d6000803e3d6000fd5b5050600354604080517fac1e17df000000000000000000000000000000000000000000000000000000008152600160a060020a03898116600483015291516001955091909216925063ac1e17df916024808201926020929091908290030181600087803b1580156117dc57600080fd5b505af11580156117f0573d6000803e3d6000fd5b505050506040513d602081101561180657600080fd5b5051600354604080517f0db50921000000000000000000000000000000000000000000000000000000008152600160a060020a03898116600483015294909303602484018190529051909450921691630db509219160448082019260009290919082900301818387803b15801561187c57600080fd5b505af1158015611890573d6000803e3d6000fd5b506001979650505050505050565b600154600160a060020a031681565b600454600160a060020a031681565b600b5481565b3360009081526020819052604090205460ff1615156118e057600080fd5b6010805462ff0000191662010000179055565b600e5481565b60085490565b60008033600160a060020a0387161461191757600080fd5b60105462010000900460ff168061193757506010546301000000900460ff165b151561194257600080fd5b60105462010000900460ff161515611b5857600160a060020a038316151561196957600080fd5b82905080600160a060020a03166328f371aa6040518163ffffffff1660e060020a028152600401602060405180830381600087803b1580156119aa57600080fd5b505af11580156119be573d6000803e3d6000fd5b505050506040513d60208110156119d457600080fd5b505115156119e157600080fd5b80600160a060020a03166394704c906040518163ffffffff1660e060020a028152600401602060405180830381600087803b158015611a1f57600080fd5b505af1158015611a33573d6000803e3d6000fd5b505050506040513d6020811015611a4957600080fd5b5051600160a060020a03868116911614611a6257600080fd5b80600160a060020a031663322692436040518163ffffffff1660e060020a028152600401602060405180830381600087803b158015611aa057600080fd5b505af1158015611ab4573d6000803e3d6000fd5b505050506040513d6020811015611aca57600080fd5b5051600160a060020a03878116911614611ae357600080fd5b80600160a060020a031663976a84356040518163ffffffff1660e060020a028152600401602060405180830381600087803b158015611b2157600080fd5b505af1158015611b35573d6000803e3d6000fd5b505050506040513d6020811015611b4b57600080fd5b50518414611b5857600080fd5b611b638686866128ca565b5060019695505050505050565b33600090815260208190526040812054819060ff161515611b9057600080fd5b611b99846120bc565b1515600114611ba757600080fd5b600354604080516000805160206132408339815191528152600160a060020a0387811660048301529151611c00938793169163368e73cf9160248083019260209291908290030181600087803b15801561150557600080fd5b600354604080517f118f5588000000000000000000000000000000000000000000000000000000008152600160a060020a03888116600483015260248201859052915193945091169163118f55889160448082019260009290919082900301818387803b15801561187c57600080fd5b3360009081526020819052604081205460ff161515611c8e57600080fd5b600354600154604080516000805160206132408339815191528152600160a060020a0392831660048201529051919092169163368e73cf9160248083019260209291908290030181600087803b158015611ce757600080fd5b505af1158015611cfb573d6000803e3d6000fd5b505050506040513d6020811015611d1157600080fd5b5051600354600154604080517f118f5588000000000000000000000000000000000000000000000000000000008152600160a060020a0392831660048201526000602482018190529151949550919092169263118f55889260448084019391929182900301818387803b158015611d8757600080fd5b505af1158015611d9b573d6000803e3d6000fd5b5050600f54611db3925090508263ffffffff61286f16565b600f556010805460ff191690556040805182815290517fdbc7873820de68d96e5cccbd7cf4bf6f65820526cf51db5eb137a242a01236139181900360200190a150565b601254600160a060020a031690565b3360009081526020819052604090205460ff161515611e2357600080fd5b611e308585858585612ba1565b5060408051600160a060020a038088168252808716602083015285168183015290517fa7bff14fb40b54f311bdf0f5c3e6b1012bb0451dbe6782a47ef633e1a776ba359181900360600190a15050505050565b3360009081526020819052604081205460ff161515611ea157600080fd5b600354604080517fe8a96b46000000000000000000000000000000000000000000000000000000008152600481018590529051600160a060020a039092169163e8a96b46916024808201926020929091908290030181600087803b158015611f0857600080fd5b505af1158015611f1c573d6000803e3d6000fd5b505050506040513d6020811015611f3257600080fd5b505192915050565b3360009081526020819052604081205460ff161515611f5857600080fd5b611f61836120bc565b9050801515611f7757611f75836000611631565b505b600154611f8e90600160a060020a031684846128ca565b50611f9882612d97565b7ff9a6d736c9cdf652a103afcf426226bdb4c51ac9c727f4a5047fec88402e8c6e83611fc385612575565b60105460408051600160a060020a039094168452602084019290925260ff16151582820152519081900360600190a1505050565b3360009081526020819052604090205460ff16151561201557600080fd5b612020838383612df2565b50505050565b6000612031836120bc565b905080151561204757612045836000611631565b505b612052848484612ff0565b5061205c82612d97565b7fbd669f2b02371c6d6ef0518acef501a0cf5d0b847797f91ff764b2d55960ceee8361208785612575565b60105460408051600160a060020a039094168452602084019290925260ff16151582820152519081900360600190a150505050565b6000806120c76115d2565b15156120d657600091506115cc565b600354604080517f379cae23000000000000000000000000000000000000000000000000000000008152600160a060020a0386811660048301529151919092169163379cae239160248083019260209291908290030181600087803b15801561213e57600080fd5b505af1158015612152573d6000803e3d6000fd5b505050506040513d602081101561216857600080fd5b5051600354604080517fe8a96b46000000000000000000000000000000000000000000000000000000008152600481018490529051929350600160a060020a038087169392169163e8a96b46916024808201926020929091908290030181600087803b1580156121d757600080fd5b505af11580156121eb573d6000803e3d6000fd5b505050506040513d602081101561220157600080fd5b5051600160a060020a0316149392505050565b60015460009061222c90600160a060020a0316612575565b905090565b3360009081526020819052604090205460ff16151561224f57600080fd5b600354600f54604080517f5cbf00d5000000000000000000000000000000000000000000000000000000008152600481019290925251600160a060020a0390921691635cbf00d59160248082019260009290919082900301818387803b1580156122b857600080fd5b505af11580156122cc573d6000803e3d6000fd5b5050600154600f5461133c9350600160a060020a039091169150611631565b3360009081526020819052604090205460ff16151561230957600080fd5b6002805473ffffffffffffffffffffffffffffffffffffffff1916600160a060020a0392909216919091179055565b600d5481565b600160a060020a031660009081526020819052604090205460ff1690565b3360009081526020819052604081205460ff16151561237a57600080fd5b600354600154604080516000805160206132408339815191528152600160a060020a0392831660048201529051919092169163368e73cf9160248083019260209291908290030181600087803b1580156123d357600080fd5b505af11580156123e7573d6000803e3d6000fd5b505050506040513d60208110156123fd57600080fd5b5051600354600154919250600160a060020a039081169163118f5588911661242b848663ffffffff61288116565b6040518363ffffffff1660e060020a0281526004018083600160a060020a0316600160a060020a0316815260200182815260200192505050600060405180830381600087803b15801561247d57600080fd5b505af1158015612491573d6000803e3d6000fd5b5050600354604080517f5cbf00d5000000000000000000000000000000000000000000000000000000008152600481018790529051600160a060020a039092169350635cbf00d5925060248082019260009290919082900301818387803b158015610b7e57600080fd5b60095490565b3360009081526020819052604090205460ff16151561251f57600080fd5b6003805473ffffffffffffffffffffffffffffffffffffffff1916600160a060020a0392909216919091179055565b3360009081526020819052604090205460ff16151561256c57600080fd5b61133c816131cc565b6000600160a060020a038216151561258c57600080fd5b600354604080516000805160206132408339815191528152600160a060020a0385811660048301529151919092169163368e73cf9160248083019260209291908290030181600087803b158015611f0857600080fd5b3360009081526020819052604090205460ff16151561260057600080fd5b600955565b601054610100900460ff1690565b33600090815260208190526040812054819060ff16151561263357600080fd5b600254604080517ff22ec3da000000000000000000000000000000000000000000000000000000008152600160a060020a03878116600483015286811660248301529151919092169163f22ec3da9160448083019260209291908290030181600087803b1580156126a357600080fd5b505af11580156126b7573d6000803e3d6000fd5b505050506040513d60208110156126cd57600080fd5b5051600254604080517fff98e76f000000000000000000000000000000000000000000000000000000008152600160a060020a0388811660048301528781166024830152915193955091169163ff98e76f9160448082019260009290919082900301818387803b15801561274057600080fd5b505af1158015612754573d6000803e3d6000fd5b5050600354604080516000805160206132408339815191528152600160a060020a038981166004830152915191909216935063368e73cf925060248083019260209291908290030181600087803b1580156127ae57600080fd5b505af11580156127c2573d6000803e3d6000fd5b505050506040513d60208110156127d857600080fd5b5051600354909150600160a060020a031663118f5588856127ff848663ffffffff61288116565b6040518363ffffffff1660e060020a0281526004018083600160a060020a0316600160a060020a0316815260200182815260200192505050600060405180830381600087803b15801561285157600080fd5b505af1158015612865573d6000803e3d6000fd5b5050505050505050565b60008282111561287b57fe5b50900390565b8181018281101561288e57fe5b92915050565b600160a060020a03811615156128a957600080fd5b600160a060020a03166000908152602081905260409020805460ff19169055565b60008080600160a060020a03851615156128e357600080fd5b600354604080516000805160206132408339815191528152600160a060020a0389811660048301529151919092169163368e73cf9160248083019260209291908290030181600087803b15801561293957600080fd5b505af115801561294d573d6000803e3d6000fd5b505050506040513d602081101561296357600080fd5b5051600354604080516000805160206132408339815191528152600160a060020a038981166004830152915193955091169163368e73cf916024808201926020929091908290030181600087803b1580156129bd57600080fd5b505af11580156129d1573d6000803e3d6000fd5b505050506040513d60208110156129e757600080fd5b50519050818411156129f857600080fd5b600354600160a060020a031663118f558887612a1a858863ffffffff61286f16565b6040518363ffffffff1660e060020a0281526004018083600160a060020a0316600160a060020a0316815260200182815260200192505050600060405180830381600087803b158015612a6c57600080fd5b505af1158015612a80573d6000803e3d6000fd5b5050600354604080516000805160206132408339815191528152600160a060020a038a81166004830152915191909216935063368e73cf925060248083019260209291908290030181600087803b158015612ada57600080fd5b505af1158015612aee573d6000803e3d6000fd5b505050506040513d6020811015612b0457600080fd5b5051600354909150600160a060020a031663118f558886612b2b848863ffffffff61288116565b6040518363ffffffff1660e060020a0281526004018083600160a060020a0316600160a060020a0316815260200182815260200192505050600060405180830381600087803b158015612b7d57600080fd5b505af1158015612b91573d6000803e3d6000fd5b5060019998505050505050505050565b336000908152602081905260408120548190819060ff161515612bc357600080fd5b600254604080517fb52d75c3000000000000000000000000000000000000000000000000000000008152600160a060020a038b811660048301528a8116602483015289811660448301526064820189905287151560848301529151919092169163b52d75c39160a48083019260209291908290030181600087803b158015612c4a57600080fd5b505af1158015612c5e573d6000803e3d6000fd5b505050506040513d6020811015612c7457600080fd5b5051600354604080516000805160206132408339815191528152600160a060020a038b81166004830152915193955091169163368e73cf916024808201926020929091908290030181600087803b158015612cce57600080fd5b505af1158015612ce2573d6000803e3d6000fd5b505050506040513d6020811015612cf857600080fd5b5051600354909150600160a060020a031663118f558888612d1f848663ffffffff61288116565b6040518363ffffffff1660e060020a0281526004018083600160a060020a0316600160a060020a0316815260200182815260200192505050600060405180830381600087803b158015612d7157600080fd5b505af1158015612d85573d6000803e3d6000fd5b5060019b9a5050505050505050505050565b3360009081526020819052604090205460ff161515612db557600080fd5b60105460ff1615156001141561133c57601154612dd8908263ffffffff61288116565b6011819055600f541161133c576010805460ff1916905550565b33600090815260208190526040812054819060ff161515612e1257600080fd5b600160a060020a0384161515612e2757600080fd5b600254604080517f2adfd6d6000000000000000000000000000000000000000000000000000000008152600160a060020a03888116600483015287811660248301526044820187905291519190921691632adfd6d69160648083019260209291908290030181600087803b158015612e9e57600080fd5b505af1158015612eb2573d6000803e3d6000fd5b505050506040513d6020811015612ec857600080fd5b5050600354600154604080516000805160206132408339815191528152600160a060020a0392831660048201529051919092169163368e73cf9160248083019260209291908290030181600087803b158015612f2357600080fd5b505af1158015612f37573d6000803e3d6000fd5b505050506040513d6020811015612f4d57600080fd5b5051600354600154919250600160a060020a039081169163118f55889116612f7b848763ffffffff61288116565b6040518363ffffffff1660e060020a0281526004018083600160a060020a0316600160a060020a0316815260200182815260200192505050600060405180830381600087803b158015612fcd57600080fd5b505af1158015612fe1573d6000803e3d6000fd5b50600198975050505050505050565b33600090815260208190526040812054819060ff16151561301057600080fd5b600354600154604080516000805160206132408339815191528152600160a060020a0392831660048201529051919092169163368e73cf9160248083019260209291908290030181600087803b15801561306957600080fd5b505af115801561307d573d6000803e3d6000fd5b505050506040513d602081101561309357600080fd5b5051600354600154919250600160a060020a039081169163118f558891166130c1848763ffffffff61286f16565b6040518363ffffffff1660e060020a0281526004018083600160a060020a0316600160a060020a0316815260200182815260200192505050600060405180830381600087803b15801561311357600080fd5b505af1158015613127573d6000803e3d6000fd5b5050600254604080517f7f5cdb44000000000000000000000000000000000000000000000000000000008152600160a060020a038a811660048301528981166024830152604482018990529151919092169350637f5cdb44925060648083019260209291908290030181600087803b1580156131a257600080fd5b505af11580156131b6573d6000803e3d6000fd5b505050506040513d6020811015611b6357600080fd5b600160a060020a03811615156131e157600080fd5b600154604051600160a060020a038084169216907f8be0079c531659141344cd1fd0a4f28419497f9722a3daafe3b4186f6b6457e090600090a3600160a060020a03166000908152602081905260409020805460ff191660011790555600368e73cf00000000000000000000000000000000000000000000000000000000a165627a7a72305820d8d4fd26e192d346a8d3796d09596ea703453e079a8aab767e3d33d354bb05790029",
    "source": "pragma solidity ^0.4.24;\n\nimport \"openzeppelin-solidity/contracts/ownership/Ownable.sol\";\nimport 'openzeppelin-solidity/contracts/math/SafeMath.sol';\nimport \"./Mortgage.sol\";\nimport \"./structures/TokenApproveContract.sol\";\nimport \"./interfaces/StoneCoinMortgageInt.sol\";\nimport \"./interfaces/StoneCoinStorageInt.sol\";\nimport \"./interfaces/Ownables.sol\";\nimport \"./interfaces/StoneCoinInt.sol\";\n//TODO: https://ethereum.stackexchange.com/questions/13167/are-there-well-solved-and-simple-storage-patterns-for-solidity\ncontract StoneCoin is Ownables, StoneCoinInt {\n    using SafeMath for uint256;\n    address stoneCoinMortgageAddress;\n    address stoneCoinStorageAddress;\n\n\n    address   public assetManager;\n    bytes32[] public url;\n    bytes32[] public urlMD5;\n    uint256   minBulkSize;\n    uint256   maxBulkSize;\n    uint256   reservedPrice;\n\n    bytes32  public name = \"StoneCoin\";\n    bytes32  public symbol = \"STC\";\n    bytes32  currency;\n\n    uint256 public startTimestamp; // timestamp after which ICO will start\n    uint256 public durationSeconds = 16 * 7 * 24 * 60 * 60; // 16 weeks\n    uint256 target = 0;\n    bool     initialOffering = true;\n    bool     signDocument = false;\n    bool    tokenFreeTransfer = false;\n    bool    transferWithContract = false;\n    uint256 initialOfferingUnits = 0;\n    address  organization = 0 ;\n\n    event Sent(address from, address to, uint256 amount);\n    event EstimationAdded(address estimation);\n    event Invest(address user, uint256 units);\n    event Buy(address buyer, uint256 units, bool initialOffering);\n    event Sell(address seller, uint256 units);\n    event OwnerTokenCleared( uint256 units);\n    event MortgageCleared(address user, address mortgageAddress);\n    event MortgageForfeiture(address user, address mortgagee,address mortgageAddress);\n    event BuyMortgaged(address buyer, uint256 units, bool initialOffering);\n    event SellMortgaged(address seller, uint256 units);\n    event Debug(uint256 ownerUnits);\n    // This is the constructor whose code is\n    // run only when the contract is created.\n    constructor(\n        bytes32 _name,\n        bytes32 _symbol,\n        uint256 _target,\n        uint256 _startTimestamp,\n        uint256 _durationSeconds,\n        address _assetManager,\n        bytes32 _url,\n        bytes32 _urlMD5,\n        bool _signDocument,\n        uint256 _minBulkSize\n    ) Ownables() public {\n        name            = _name;\n        symbol          = _symbol;\n        target          = _target;\n        url.push(_url);\n        urlMD5.push(_urlMD5);\n        startTimestamp  = _startTimestamp;\n        minBulkSize = _minBulkSize;\n        durationSeconds = _durationSeconds;\n        assetManager =  _assetManager;\n        owner = msg.sender;\n        maxBulkSize = _target;\n        signDocument = _signDocument;\n        tokenFreeTransfer = false;\n        transferWithContract = false;\n        currency = 'USD';\n\n    }\n\n    function isInitialOffering() public view  returns(bool) {\n        return initialOffering;\n    }\n    function getOwnerTokens() public view  returns(uint256) {\n        return getBalance(owner);\n    }\n    function isSignDocument() public view  returns(bool) {\n        return signDocument;\n    }\n    function getOrganization() public view  returns(address){\n        return organization;\n    }\n\n    function getReservedPrice() public view returns(uint256){\n        return reservedPrice;\n    }\n\n    function getCurrency() public view returns(bytes32){\n        return currency;\n    }\n\n    function setReservedPrice(uint256 _reservedPrice) public  onlyOwner{\n        reservedPrice = _reservedPrice;\n    }\n    function setCurrency(bytes32 _currency) public  onlyOwner{\n        currency = _currency;\n    }\n\n    function setStoneCoinMortgageAddress(address _stoneCoinMortgageAddress) public  onlyOwner{\n        stoneCoinMortgageAddress = _stoneCoinMortgageAddress;\n    }\n\n    function setStoneCoinStorageAddress(address _stoneCoinStorageAddress) public onlyOwner {\n        stoneCoinStorageAddress = _stoneCoinStorageAddress;\n    }\n    function init() public onlyOwner{\n         StoneCoinStorageInt(stoneCoinStorageAddress).addStones(target);\n         newHolder(owner, target);\n    }\n    function STONES() public view returns(uint256){\n        return  StoneCoinStorageInt(stoneCoinStorageAddress).getStones();\n    }\n\n    function isHolder(address holder) public view returns(bool) {\n        if(getHoldersCount() == 0) return false;\n        uint256 index =  StoneCoinStorageInt(stoneCoinStorageAddress).getHoldersIndex(holder);\n        return (StoneCoinStorageInt(stoneCoinStorageAddress).getHolder(index) == holder);\n    }\n\n    function setTransferFree() public onlyOwner{\n        tokenFreeTransfer = true;\n    }\n\n    function setTransferFreeWithContract() public onlyOwner{\n        transferWithContract = true;\n    }\n\n    function getHolderByIndex(uint i) public view onlyOwner returns(address holder) {\n        return   StoneCoinStorageInt(stoneCoinStorageAddress).getHolder(i);\n    }\n\n    function getHoldersCount() public view returns(uint holderCount) {\n        return StoneCoinStorageInt(stoneCoinStorageAddress).getHoldersLength();\n    }\n\n\n    function newHolder(address holder, uint256 units) public onlyOwner returns(bool success) {\n        require(isHolder(holder) == false);\n        StoneCoinStorageInt(stoneCoinStorageAddress).setValid(holder, true);\n        StoneCoinStorageInt(stoneCoinStorageAddress).setHoldingsUnits(holder, units);\n        uint256 holderIndex =  StoneCoinStorageInt(stoneCoinStorageAddress).addHolder(holder) - 1;\n        StoneCoinStorageInt(stoneCoinStorageAddress).setHoldersIndex(holder, holderIndex);\n        return true;\n    }\n\n    function updateHoldings(address holder, uint256 units) public onlyOwner returns(bool success) {\n        require(isHolder(holder) == true);\n        uint256 holdingsNew =  StoneCoinStorageInt(stoneCoinStorageAddress).getHoldingsUnits(holder).add(units);\n        StoneCoinStorageInt(stoneCoinStorageAddress).setHoldingsUnits(holder, holdingsNew);\n        return true;\n    }\n\n    function deleteHolder(address holder) public onlyOwner returns(bool success) {\n        require(isHolder(holder) == true);\n        StoneCoinStorageInt(stoneCoinStorageAddress).deleteHolder(holder);\n        return true;\n    }\n\n    function transferFrom(address _from, address _to, uint256 _units) private returns (bool) {\n        require(_to != address(0));\n        uint256 fromUnits = StoneCoinStorageInt(stoneCoinStorageAddress).getHoldingsUnits(_from);\n        uint256 toUnits = StoneCoinStorageInt(stoneCoinStorageAddress).getHoldingsUnits(_to);\n        require(_units <= fromUnits);\n        StoneCoinStorageInt(stoneCoinStorageAddress).setHoldingsUnits(_from,fromUnits.sub(_units));\n        toUnits = StoneCoinStorageInt(stoneCoinStorageAddress).getHoldingsUnits(_to);\n        StoneCoinStorageInt(stoneCoinStorageAddress).setHoldingsUnits(_to,toUnits.add(_units));\n        return true;\n    }\n\n    function transferTokenFrom(address _from, address _to, uint256 _units, address contractAddress) public returns (bool) {\n        require(msg.sender == _from);\n        require(tokenFreeTransfer || transferWithContract );\n        if(!tokenFreeTransfer){\n            require(contractAddress != address(0));\n            TokenApproveContract tokenApproveContract = TokenApproveContract(contractAddress);\n            require(tokenApproveContract.isApproved());\n            require(_to == tokenApproveContract.toUser());\n            require(_from == tokenApproveContract.fromUser());\n            require(_units == tokenApproveContract.units());\n        }\n        transferFrom(_from, _to, _units);\n        return true;\n    }\n\n    function partlyForfeitureTransfer(address _user, address _mortgagee, address _mortgageAddress, uint marketPriceMill, bool maxDefaulted) private onlyOwner returns (bool) {\n\n        uint256 numberOfUnits = StoneCoinMortgageInt(stoneCoinMortgageAddress).partlyForfeitureMortgage(_user, _mortgagee, _mortgageAddress, marketPriceMill, maxDefaulted);\n        uint256 mortgageeUnits =  StoneCoinStorageInt(stoneCoinStorageAddress).getHoldingsUnits(_mortgagee);\n        //TODO\n        StoneCoinStorageInt(stoneCoinStorageAddress).setHoldingsUnits(_mortgagee,mortgageeUnits.add(numberOfUnits));\n        return true;\n    }\n\n    function transferBuyMortgaged(address _mortgageAddress, address _to, uint256 _units) private onlyOwner returns (bool) {\n\n        uint256 ownerUnits = StoneCoinStorageInt(stoneCoinStorageAddress).getHoldingsUnits(owner);\n\n        StoneCoinStorageInt(stoneCoinStorageAddress).setHoldingsUnits(owner,ownerUnits.sub(_units));\n\n         StoneCoinMortgageInt(stoneCoinMortgageAddress).transferBuyMortgaged(_mortgageAddress, _to, _units);\n        return true;\n    }\n\n\n    function transferSellMortgaged(address _mortgageAddress, address _from, uint256 _units) private onlyOwner returns (bool) {\n        require(_from != address(0));\n        StoneCoinMortgageInt(stoneCoinMortgageAddress).transferSellMortgaged(_mortgageAddress,_from,_units);\n        uint256 ownerUnits =StoneCoinStorageInt(stoneCoinStorageAddress).getHoldingsUnits(owner);\n        StoneCoinStorageInt(stoneCoinStorageAddress).setHoldingsUnits(owner,ownerUnits.add(_units));\n        return true;\n    }\n\n\n    function buy(address buyer, uint256 units) public onlyOwner {\n        bool holder = isHolder(buyer);\n\n\n        if(!holder){\n           newHolder(buyer,0);\n        }\n        transferFrom(owner, buyer, units);\n        checkInitialOffering(units);\n        emit Buy(buyer, getBalance(buyer),initialOffering);\n    }\n\n    function sell(address seller, uint256 units) public onlyOwner {\n        transferFrom(seller, owner, units);\n        emit Sell(seller, getBalance(seller));\n    }\n\n    function clearOwnerTokens() public onlyOwner {\n        uint256 ownerRemainingHoldings = StoneCoinStorageInt(stoneCoinStorageAddress).getHoldingsUnits(owner);\n        StoneCoinStorageInt(stoneCoinStorageAddress).setHoldingsUnits(owner,0);\n        target = target.sub(ownerRemainingHoldings);\n        initialOffering = false;\n        emit OwnerTokenCleared(ownerRemainingHoldings);\n    }\n\n    function clearMortgage(address user, address _mortgageAddress) public onlyOwner {\n        uint256 _units = StoneCoinMortgageInt(stoneCoinMortgageAddress).balanceOfMortgage(user, _mortgageAddress);\n        StoneCoinMortgageInt(stoneCoinMortgageAddress).clearMortgage(user, _mortgageAddress);\n\n        uint256 userUnits = StoneCoinStorageInt(stoneCoinStorageAddress).getHoldingsUnits(user);\n        StoneCoinStorageInt(stoneCoinStorageAddress).setHoldingsUnits(user,userUnits.add(_units));\n    }\n\n    function partlyForfeitureMortgage(address user, address mortgagee, address _mortgageAddress, uint _marketPriceMills, bool maxDefaulted) public onlyOwner {\n        partlyForfeitureTransfer(user, mortgagee,_mortgageAddress, _marketPriceMills, maxDefaulted);\n        emit MortgageForfeiture(user, mortgagee, _mortgageAddress);\n    }\n\n    function buyMortgaged(address mortgageAddress, address buyer, uint256 units) public      {\n        bool holder = isHolder(buyer);\n        if(!holder){\n           newHolder(buyer,0);\n        }\n        transferBuyMortgaged(mortgageAddress, buyer, units);\n\n        checkInitialOffering(units);\n        emit BuyMortgaged(buyer, getBalance(buyer),initialOffering);\n    }\n\n    function checkInitialOffering(uint256 units) private onlyOwner {\n        if(initialOffering == true){\n            initialOfferingUnits = initialOfferingUnits.add(units);\n            if(initialOfferingUnits >= target)\n                initialOffering = false;\n        }\n    }\n\n    function getBalance(address user)public view  returns(uint256 balance) {\n        require(user != address(0));\n        balance = StoneCoinStorageInt(stoneCoinStorageAddress).getHoldingsUnits(user);\n    }\n\n\n    function sellMortgaged(address mortgageAddress, address seller, uint256 amount) public onlyOwner {\n        transferSellMortgaged(mortgageAddress, seller, amount);\n    }\n\n    function getOwnerBalance() public view returns(uint256 balance) {\n        balance = StoneCoinStorageInt(stoneCoinStorageAddress).getHoldingsUnits(owner);\n        return balance;\n    }\n\n    function balanceOf(address _user) public view returns (uint256) {\n        if(stoneCoinMortgageAddress != address(0)){\n            uint256 result = StoneCoinStorageInt(stoneCoinStorageAddress).getHoldingsUnits(_user).add(StoneCoinMortgageInt(stoneCoinMortgageAddress).balanceOf(_user));\n            return  result;\n        }else{\n          return StoneCoinStorageInt(stoneCoinStorageAddress).getHoldingsUnits(_user);\n        }\n    }\n\n    function getMinBulkSize() external view returns (uint256) {\n        uint256 ownerHoldings = StoneCoinStorageInt(stoneCoinStorageAddress).getHoldingsUnits(owner);\n        if(ownerHoldings < minBulkSize){\n            return ownerHoldings;\n        }\n        return minBulkSize;\n    }\n\n    function getMaxBulkSize() external view returns (uint256) {\n        return maxBulkSize;\n    }\n\n    function dilutionStoneCoin( uint256 dilutionUnits) public onlyOwner {\n        uint256 contractOwnerUnits = StoneCoinStorageInt(stoneCoinStorageAddress).getHoldingsUnits(owner);\n        StoneCoinStorageInt(stoneCoinStorageAddress).setHoldingsUnits(owner,contractOwnerUnits.add(dilutionUnits));\n\n        StoneCoinStorageInt(stoneCoinStorageAddress).addStones(dilutionUnits);\n    }\n\n    function removeStoneCoin( uint256 units) public onlyOwner {\n        uint256 contractOwnerUnits = StoneCoinStorageInt(stoneCoinStorageAddress).getHoldingsUnits(owner);\n        require(contractOwnerUnits >= units);\n        StoneCoinStorageInt(stoneCoinStorageAddress).setHoldingsUnits(owner,contractOwnerUnits.sub(units));\n\n        StoneCoinStorageInt(stoneCoinStorageAddress).removeStones(units);\n    }\n\n    function setMinBulkSize(uint256 bulkSize) public onlyOwner {\n        minBulkSize = bulkSize;\n    }\n    function setMaxBulkSize(uint256 bulkSize) public onlyOwner {\n        maxBulkSize = bulkSize;\n    }\n    function setOrganization(address _organization) public onlyOwner {\n        organization = _organization;\n    }\n\n    function addDocument( bytes32 _url, bytes32 _urlMD5) public onlyOwner {\n        url.push(_url);\n        urlMD5.push(_urlMD5);\n    }\n\n    function getDocumentsLength()  external view returns (uint256) {\n        return url.length;\n    }\n\n    function forecloseTokens(address _user, address mortgageAddress, address _to, bool sale) public onlyOwner {\n        uint256 _toUnits =  StoneCoinStorageInt(stoneCoinStorageAddress).getHoldingsUnits(_to);\n        uint256 _userUnits=  StoneCoinStorageInt(stoneCoinStorageAddress).getHoldingsUnits(_user);\n        if(mortgageAddress != address(0)){\n            uint256 mortgagedUnits = StoneCoinMortgageInt(stoneCoinMortgageAddress).balanceOfMortgage(_user, mortgageAddress);\n            StoneCoinStorageInt(stoneCoinStorageAddress).setHoldingsUnits(_to,_toUnits.add(mortgagedUnits));\n            if(sale){\n                initialOfferingUnits =  initialOfferingUnits.sub(mortgagedUnits);\n            }\n            StoneCoinMortgageInt(stoneCoinMortgageAddress).forecloseTokens(_user, mortgageAddress);\n        }else{\n\n            StoneCoinStorageInt(stoneCoinStorageAddress).setHoldingsUnits(_to,_toUnits.add(_userUnits));\n            if(sale){\n                initialOfferingUnits =  initialOfferingUnits.sub(_userUnits);\n            }\n            StoneCoinStorageInt(stoneCoinStorageAddress).setHoldingsUnits(_user,0);\n\n        }\n    }\n\n}",
    "sourcePath": "/Users/roilandshut/projects/brikoin/brikoin/contracts/StoneCoin.sol",
    "compiler": {
        "name": "solc",
        "version": "0.4.24+commit.e67f0147.Emscripten.clang"
    },
    "schemaVersion": "2.0.1",
    "updatedAt": "2019-10-27T14:12:10.978Z"
}