{
  "contractName": "BrokerManager",
  "abi": [
    {
      "constant": true,
      "inputs": [
        {
          "name": "",
          "type": "address"
        }
      ],
      "name": "owners",
      "outputs": [
        {
          "name": "",
          "type": "bool"
        }
      ],
      "payable": false,
      "stateMutability": "view",
      "type": "function"
    },
    {
      "constant": false,
      "inputs": [
        {
          "name": "_newOwner",
          "type": "address"
        }
      ],
      "name": "setOwner",
      "outputs": [],
      "payable": false,
      "stateMutability": "nonpayable",
      "type": "function"
    },
    {
      "constant": true,
      "inputs": [
        {
          "name": "",
          "type": "address"
        },
        {
          "name": "",
          "type": "address"
        }
      ],
      "name": "userAssignmentDate",
      "outputs": [
        {
          "name": "",
          "type": "uint256"
        }
      ],
      "payable": false,
      "stateMutability": "view",
      "type": "function"
    },
    {
      "constant": true,
      "inputs": [],
      "name": "getAddress",
      "outputs": [
        {
          "name": "",
          "type": "address"
        }
      ],
      "payable": false,
      "stateMutability": "view",
      "type": "function"
    },
    {
      "constant": true,
      "inputs": [
        {
          "name": "",
          "type": "address"
        },
        {
          "name": "",
          "type": "address"
        },
        {
          "name": "",
          "type": "address"
        },
        {
          "name": "",
          "type": "uint256"
        }
      ],
      "name": "brokerUserFeesHistory",
      "outputs": [
        {
          "name": "time",
          "type": "uint256"
        },
        {
          "name": "amount",
          "type": "uint256"
        },
        {
          "name": "fee",
          "type": "uint256"
        },
        {
          "name": "buyingPrice",
          "type": "uint256"
        },
        {
          "name": "stoneCoinAddress",
          "type": "address"
        }
      ],
      "payable": false,
      "stateMutability": "view",
      "type": "function"
    },
    {
      "constant": true,
      "inputs": [
        {
          "name": "",
          "type": "address"
        },
        {
          "name": "",
          "type": "address"
        },
        {
          "name": "",
          "type": "uint256"
        }
      ],
      "name": "brokerToUsers",
      "outputs": [
        {
          "name": "",
          "type": "address"
        }
      ],
      "payable": false,
      "stateMutability": "view",
      "type": "function"
    },
    {
      "constant": false,
      "inputs": [
        {
          "name": "_newOwner",
          "type": "address"
        }
      ],
      "name": "removeOwnership",
      "outputs": [],
      "payable": false,
      "stateMutability": "nonpayable",
      "type": "function"
    },
    {
      "constant": true,
      "inputs": [
        {
          "name": "",
          "type": "address"
        },
        {
          "name": "",
          "type": "address"
        }
      ],
      "name": "userToBroker",
      "outputs": [
        {
          "name": "",
          "type": "address"
        }
      ],
      "payable": false,
      "stateMutability": "view",
      "type": "function"
    },
    {
      "constant": true,
      "inputs": [],
      "name": "owner",
      "outputs": [
        {
          "name": "",
          "type": "address"
        }
      ],
      "payable": false,
      "stateMutability": "view",
      "type": "function"
    },
    {
      "constant": true,
      "inputs": [
        {
          "name": "",
          "type": "address"
        },
        {
          "name": "",
          "type": "address"
        }
      ],
      "name": "brokerFeesPolicy",
      "outputs": [
        {
          "name": "firstDealFee",
          "type": "uint256"
        },
        {
          "name": "otherDealFee",
          "type": "uint256"
        },
        {
          "name": "secondaryFee",
          "type": "uint256"
        },
        {
          "name": "oneTime",
          "type": "bool"
        },
        {
          "name": "upToo",
          "type": "uint256"
        }
      ],
      "payable": false,
      "stateMutability": "view",
      "type": "function"
    },
    {
      "constant": true,
      "inputs": [
        {
          "name": "",
          "type": "address"
        },
        {
          "name": "",
          "type": "address"
        },
        {
          "name": "",
          "type": "address"
        }
      ],
      "name": "brokerToPayment",
      "outputs": [
        {
          "name": "",
          "type": "uint256"
        }
      ],
      "payable": false,
      "stateMutability": "view",
      "type": "function"
    },
    {
      "constant": true,
      "inputs": [
        {
          "name": "user",
          "type": "address"
        }
      ],
      "name": "isOwnable",
      "outputs": [
        {
          "name": "",
          "type": "bool"
        }
      ],
      "payable": false,
      "stateMutability": "view",
      "type": "function"
    },
    {
      "constant": false,
      "inputs": [
        {
          "name": "_newOwner",
          "type": "address"
        }
      ],
      "name": "addOwnership",
      "outputs": [],
      "payable": false,
      "stateMutability": "nonpayable",
      "type": "function"
    },
    {
      "constant": true,
      "inputs": [
        {
          "name": "",
          "type": "address"
        },
        {
          "name": "",
          "type": "address"
        }
      ],
      "name": "isBroker",
      "outputs": [
        {
          "name": "",
          "type": "bool"
        }
      ],
      "payable": false,
      "stateMutability": "view",
      "type": "function"
    },
    {
      "inputs": [],
      "payable": false,
      "stateMutability": "nonpayable",
      "type": "constructor"
    },
    {
      "anonymous": false,
      "inputs": [
        {
          "indexed": true,
          "name": "previousOwner",
          "type": "address"
        }
      ],
      "name": "OwnershipRenounced",
      "type": "event"
    },
    {
      "anonymous": false,
      "inputs": [
        {
          "indexed": true,
          "name": "previousOwner",
          "type": "address"
        },
        {
          "indexed": true,
          "name": "newOwner",
          "type": "address"
        }
      ],
      "name": "OwnershipTransferred",
      "type": "event"
    },
    {
      "constant": false,
      "inputs": [
        {
          "name": "user",
          "type": "address"
        },
        {
          "name": "organization",
          "type": "address"
        }
      ],
      "name": "addBroker",
      "outputs": [],
      "payable": false,
      "stateMutability": "nonpayable",
      "type": "function"
    },
    {
      "constant": false,
      "inputs": [
        {
          "name": "user",
          "type": "address"
        },
        {
          "name": "firstDealRatio",
          "type": "uint256"
        },
        {
          "name": "otherDealRatio",
          "type": "uint256"
        },
        {
          "name": "secondaryFee",
          "type": "uint256"
        },
        {
          "name": "organization",
          "type": "address"
        }
      ],
      "name": "setBrokerFees",
      "outputs": [],
      "payable": false,
      "stateMutability": "nonpayable",
      "type": "function"
    },
    {
      "constant": false,
      "inputs": [
        {
          "name": "user",
          "type": "address"
        },
        {
          "name": "broker",
          "type": "address"
        },
        {
          "name": "organization",
          "type": "address"
        }
      ],
      "name": "addUserToBroker",
      "outputs": [],
      "payable": false,
      "stateMutability": "nonpayable",
      "type": "function"
    },
    {
      "constant": true,
      "inputs": [
        {
          "name": "user",
          "type": "address"
        },
        {
          "name": "organization",
          "type": "address"
        }
      ],
      "name": "getUserAssignmentDate",
      "outputs": [
        {
          "name": "",
          "type": "uint256"
        }
      ],
      "payable": false,
      "stateMutability": "view",
      "type": "function"
    },
    {
      "constant": true,
      "inputs": [
        {
          "name": "broker",
          "type": "address"
        },
        {
          "name": "organization",
          "type": "address"
        }
      ],
      "name": "getBrokerUsers",
      "outputs": [
        {
          "name": "",
          "type": "address[]"
        }
      ],
      "payable": false,
      "stateMutability": "view",
      "type": "function"
    },
    {
      "constant": false,
      "inputs": [
        {
          "name": "broker",
          "type": "address"
        },
        {
          "name": "payment",
          "type": "uint256"
        },
        {
          "name": "organization",
          "type": "address"
        },
        {
          "name": "stoneCoinAddress",
          "type": "address"
        }
      ],
      "name": "payBroker",
      "outputs": [],
      "payable": false,
      "stateMutability": "nonpayable",
      "type": "function"
    },
    {
      "constant": true,
      "inputs": [
        {
          "name": "broker",
          "type": "address"
        },
        {
          "name": "organization",
          "type": "address"
        },
        {
          "name": "stoneCoinAddress",
          "type": "address"
        }
      ],
      "name": "getBrokerPayments",
      "outputs": [
        {
          "name": "",
          "type": "uint256"
        }
      ],
      "payable": false,
      "stateMutability": "view",
      "type": "function"
    },
    {
      "constant": true,
      "inputs": [
        {
          "name": "broker",
          "type": "address"
        },
        {
          "name": "organization",
          "type": "address"
        }
      ],
      "name": "getBrokerFirstDealRatio",
      "outputs": [
        {
          "name": "",
          "type": "uint256"
        }
      ],
      "payable": false,
      "stateMutability": "view",
      "type": "function"
    },
    {
      "constant": true,
      "inputs": [
        {
          "name": "broker",
          "type": "address"
        },
        {
          "name": "organization",
          "type": "address"
        }
      ],
      "name": "getBrokerOtherDealRatio",
      "outputs": [
        {
          "name": "",
          "type": "uint256"
        }
      ],
      "payable": false,
      "stateMutability": "view",
      "type": "function"
    },
    {
      "constant": true,
      "inputs": [
        {
          "name": "broker",
          "type": "address"
        },
        {
          "name": "user",
          "type": "address"
        },
        {
          "name": "organization",
          "type": "address"
        }
      ],
      "name": "getBrokerHistoryLength",
      "outputs": [
        {
          "name": "",
          "type": "uint256"
        }
      ],
      "payable": false,
      "stateMutability": "view",
      "type": "function"
    },
    {
      "constant": true,
      "inputs": [
        {
          "name": "broker",
          "type": "address"
        },
        {
          "name": "user",
          "type": "address"
        },
        {
          "name": "index",
          "type": "uint256"
        },
        {
          "name": "organization",
          "type": "address"
        }
      ],
      "name": "getBrokerHistoryFee",
      "outputs": [
        {
          "name": "",
          "type": "uint256"
        }
      ],
      "payable": false,
      "stateMutability": "view",
      "type": "function"
    },
    {
      "constant": true,
      "inputs": [
        {
          "name": "broker",
          "type": "address"
        },
        {
          "name": "user",
          "type": "address"
        },
        {
          "name": "index",
          "type": "uint256"
        },
        {
          "name": "organization",
          "type": "address"
        }
      ],
      "name": "getBrokerHistoryTime",
      "outputs": [
        {
          "name": "",
          "type": "uint256"
        }
      ],
      "payable": false,
      "stateMutability": "view",
      "type": "function"
    },
    {
      "constant": true,
      "inputs": [
        {
          "name": "broker",
          "type": "address"
        },
        {
          "name": "user",
          "type": "address"
        },
        {
          "name": "index",
          "type": "uint256"
        },
        {
          "name": "organization",
          "type": "address"
        }
      ],
      "name": "getBrokerHistoryAmount",
      "outputs": [
        {
          "name": "",
          "type": "uint256"
        }
      ],
      "payable": false,
      "stateMutability": "view",
      "type": "function"
    },
    {
      "constant": true,
      "inputs": [
        {
          "name": "broker",
          "type": "address"
        },
        {
          "name": "user",
          "type": "address"
        },
        {
          "name": "index",
          "type": "uint256"
        },
        {
          "name": "organization",
          "type": "address"
        }
      ],
      "name": "getBrokerHistoryBuyingPrice",
      "outputs": [
        {
          "name": "",
          "type": "uint256"
        }
      ],
      "payable": false,
      "stateMutability": "view",
      "type": "function"
    },
    {
      "constant": true,
      "inputs": [
        {
          "name": "broker",
          "type": "address"
        },
        {
          "name": "user",
          "type": "address"
        },
        {
          "name": "index",
          "type": "uint256"
        },
        {
          "name": "organization",
          "type": "address"
        }
      ],
      "name": "getBrokerHistoryProject",
      "outputs": [
        {
          "name": "",
          "type": "address"
        }
      ],
      "payable": false,
      "stateMutability": "view",
      "type": "function"
    },
    {
      "constant": true,
      "inputs": [
        {
          "name": "user",
          "type": "address"
        },
        {
          "name": "stoneCoinAddress",
          "type": "address"
        }
      ],
      "name": "checkBroker",
      "outputs": [
        {
          "name": "",
          "type": "address"
        }
      ],
      "payable": false,
      "stateMutability": "view",
      "type": "function"
    },
    {
      "constant": true,
      "inputs": [
        {
          "name": "user",
          "type": "address"
        },
        {
          "name": "stoneCoinAddress",
          "type": "address"
        }
      ],
      "name": "getBrokerFee",
      "outputs": [
        {
          "name": "",
          "type": "uint256"
        }
      ],
      "payable": false,
      "stateMutability": "view",
      "type": "function"
    },
    {
      "constant": false,
      "inputs": [
        {
          "name": "stoneCoinAddress",
          "type": "address"
        },
        {
          "name": "broker",
          "type": "address"
        },
        {
          "name": "user",
          "type": "address"
        },
        {
          "name": "amount",
          "type": "uint256"
        },
        {
          "name": "buyingPrice",
          "type": "uint256"
        },
        {
          "name": "feeRatio",
          "type": "uint256"
        }
      ],
      "name": "addBrokerHistory",
      "outputs": [],
      "payable": false,
      "stateMutability": "nonpayable",
      "type": "function"
    }
  ],
  "bytecode": "0x608060405234801561001057600080fd5b50336000818152602081905260409020805460ff191660019081179091558054600160a060020a03191690911790556119498061004e6000396000f30060806040526004361061017c5763ffffffff60e060020a600035041663022914a7811461018157806313af4035146101b65780631f1a6f7c146101d9578063358c39551461021857806338cc48311461023f5780633b7bd0c4146102705780633c433e5114610297578063436d9233146102fb5780635316bc3a1461032e578063548d991d146103585780635af829f6146103cf578063666a34271461040557806367a29a3b1461042657806372f4257c1461044d57806378abeb2e1461047457806386d51197146104a55780638cbc9f27146104d25780638da5cb5b146104f9578063a5d0f91c1461050e578063b34ee9061461053f578063b4bfa4781461056c578063c207f4691461059d578063c576a641146105c4578063c6c9445714610618578063cb8afa9514610645578063ce8c538e14610676578063d92e84d91461069d578063e53ac573146106c4578063e88914de146106f5578063f5a55ff614610716578063f691c0e714610737578063fa59e1341461075e575b600080fd5b34801561018d57600080fd5b506101a2600160a060020a036004351661078f565b604080519115158252519081900360200190f35b3480156101c257600080fd5b506101d7600160a060020a03600435166107a4565b005b3480156101e557600080fd5b50610206600160a060020a03600435811690602435811690604435166107f1565b60408051918252519081900360200190f35b34801561022457600080fd5b50610206600160a060020a036004358116906024351661085c565b34801561024b57600080fd5b50610254610879565b60408051600160a060020a039092168252519081900360200190f35b34801561027c57600080fd5b506101d7600160a060020a036004358116906024351661087d565b3480156102a357600080fd5b506102c7600160a060020a0360043581169060243581169060443516606435610909565b604080519586526020860194909452848401929092526060840152600160a060020a03166080830152519081900360a00190f35b34801561030757600080fd5b506101d7600160a060020a036004358116906024359060443590606435906084351661097a565b34801561033a57600080fd5b50610254600160a060020a0360043581169060243516604435610a03565b34801561036457600080fd5b5061037f600160a060020a0360043581169060243516610a47565b60408051602080825283518183015283519192839290830191858101910280838360005b838110156103bb5781810151838201526020016103a3565b505050509050019250505060405180910390f35b3480156103db57600080fd5b506101d7600160a060020a036004358116906024358116906044351660643560843560a435610acb565b34801561041157600080fd5b506101d7600160a060020a0360043516610c77565b34801561043257600080fd5b50610254600160a060020a0360043581169060243516610ca1565b34801561045957600080fd5b50610206600160a060020a0360043581169060243516610cc7565b34801561048057600080fd5b50610206600160a060020a036004358116906024358116906044359060643516610d2d565b3480156104b157600080fd5b50610206600160a060020a0360043581169060243581169060443516610dc1565b3480156104de57600080fd5b50610206600160a060020a0360043581169060243516610df6565b34801561050557600080fd5b506102546111a9565b34801561051a57600080fd5b50610206600160a060020a0360043581169060243581169060443590606435166111b8565b34801561054b57600080fd5b506101d7600160a060020a036004358116906024358116906044351661124c565b34801561057857600080fd5b506101d7600160a060020a03600435811690602435906044358116906064351661135f565b3480156105a957600080fd5b50610254600160a060020a036004358116906024351661142d565b3480156105d057600080fd5b506105eb600160a060020a03600435811690602435166114d6565b60408051958652602086019490945284840192909252151560608401526080830152519081900360a00190f35b34801561062457600080fd5b50610206600160a060020a0360043581169060243581169060443516611513565b34801561065157600080fd5b50610254600160a060020a036004358116906024358116906044359060643516611536565b34801561068257600080fd5b50610206600160a060020a03600435811690602435166115d4565b3480156106a957600080fd5b50610206600160a060020a0360043581169060243516611600565b3480156106d057600080fd5b50610206600160a060020a036004358116906024358116906044359060643516611663565b34801561070157600080fd5b506101a2600160a060020a03600435166116f7565b34801561072257600080fd5b506101d7600160a060020a0360043516611715565b34801561074357600080fd5b506101a2600160a060020a036004358116906024351661173c565b34801561076a57600080fd5b50610206600160a060020a03600435811690602435811690604435906064351661175c565b60006020819052908152604090205460ff1681565b3360009081526020819052604090205460ff1615156107c257600080fd5b6001805473ffffffffffffffffffffffffffffffffffffffff1916600160a060020a0392909216919091179055565b600160a060020a03808316600090815260046020908152604080832093871683529290529081205460ff16151561082757600080fd5b50600160a060020a03918216600090815260056020908152604080832095851683529481528482209290931681529152205490565b600760209081526000928352604080842090915290825290205481565b3090565b3360009081526020819052604090205460ff16151561089b57600080fd5b600160a060020a039081166000818152600460209081526040808320959094168083529481528382208054600160ff1991821681179092559383526006825284832095835294905291822060148155600a938101939093556002830191909155600390910180549091169055565b60086020528360005260406000206020528260005260406000206020528160005260406000208181548110151561093c57fe5b6000918252602090912060059091020180546001820154600283015460038401546004909401549297509095509350909150600160a060020a031685565b3360009081526020819052604090205460ff16151561099857600080fd5b600160a060020a0380821660009081526004602090815260408083209389168352929052205460ff1615156109cc57600080fd5b600160a060020a03908116600090815260066020908152604080832097909316825295909552909320918255600182015560020155565b600260205282600052604060002060205281600052604060002081815481101515610a2a57fe5b600091825260209091200154600160a060020a0316925083915050565b600160a060020a038082166000908152600260209081526040808320938616835292815290829020805483518184028101840190945280845260609392830182828015610abd57602002820191906000526020600020905b8154600160a060020a03168152600190910190602001808311610a9f575b505050505090505b92915050565b6000610ad56118e4565b3360009081526020819052604090205460ff161515610af357600080fd5b42815260208101859052879150610b326103e8610b2685610b1a898963ffffffff6117f016565b9063ffffffff6117f016565b9063ffffffff61181916565b60408083019190915260608201859052600160a060020a03808a16608084015281517fabb8e213000000000000000000000000000000000000000000000000000000008152915160089260009286169163abb8e2139160048082019260209290919082900301818787803b158015610ba957600080fd5b505af1158015610bbd573d6000803e3d6000fd5b505050506040513d6020811015610bd357600080fd5b5051600160a060020a039081168252602080830193909352604091820160009081209a82168152998352818a209881168a52978252808920805460018082018355918b529983902084516005909b0201998a559183015191890191909155810151600288015560608101516003880155608001516004909601805473ffffffffffffffffffffffffffffffffffffffff191696909516959095179093555050505050565b3360009081526020819052604090205460ff161515610c9557600080fd5b610c9e8161182e565b50565b6003602090815260009283526040808420909152908252902054600160a060020a031681565b600160a060020a03808216600090815260046020908152604080832093861683529290529081205460ff161515610cfd57600080fd5b50600160a060020a0380821660009081526006602090815260408083209386168352929052206001015492915050565b600160a060020a038082166000908152600860209081526040808320888516845282528083209387168352929052908120548310610d6a57600080fd5b600160a060020a03808316600090815260086020908152604080832089851684528252808320938816835292905220805484908110610da557fe5b9060005260206000209060050201600201549050949350505050565b600160a060020a0390811660009081526008602090815260408083209584168352948152848220939092168152919052205490565b60008060008391506003600083600160a060020a031663abb8e2136040518163ffffffff1660e060020a028152600401602060405180830381600087803b158015610e4057600080fd5b505af1158015610e54573d6000803e3d6000fd5b505050506040513d6020811015610e6a57600080fd5b5051600160a060020a039081168252602082810193909352604091820160009081208983168252909352912054169050801515610eaa57600092506111a1565b81600160a060020a0316630c852c8f6040518163ffffffff1660e060020a028152600401602060405180830381600087803b158015610ee857600080fd5b505af1158015610efc573d6000803e3d6000fd5b505050506040513d6020811015610f1257600080fd5b50511515610fbc576006600083600160a060020a031663abb8e2136040518163ffffffff1660e060020a028152600401602060405180830381600087803b158015610f5c57600080fd5b505af1158015610f70573d6000803e3d6000fd5b505050506040513d6020811015610f8657600080fd5b5051600160a060020a039081168252602082810193909352604091820160009081209185168152925290206002015492506111a1565b6008600083600160a060020a031663abb8e2136040518163ffffffff1660e060020a028152600401602060405180830381600087803b158015610ffe57600080fd5b505af1158015611012573d6000803e3d6000fd5b505050506040513d602081101561102857600080fd5b5051600160a060020a0390811682526020828101939093526040918201600090812085831682528452828120918916815292529020541515611103576006600083600160a060020a031663abb8e2136040518163ffffffff1660e060020a028152600401602060405180830381600087803b1580156110a657600080fd5b505af11580156110ba573d6000803e3d6000fd5b505050506040513d60208110156110d057600080fd5b5051600160a060020a039081168252602082810193909352604091820160009081209185168152925290205492506111a1565b6006600083600160a060020a031663abb8e2136040518163ffffffff1660e060020a028152600401602060405180830381600087803b15801561114557600080fd5b505af1158015611159573d6000803e3d6000fd5b505050506040513d602081101561116f57600080fd5b5051600160a060020a039081168252602082810193909352604091820160009081209185168152925290206001015492505b505092915050565b600154600160a060020a031681565b600160a060020a0380821660009081526008602090815260408083208885168452825280832093871683529290529081205483106111f557600080fd5b600160a060020a0380831660009081526008602090815260408083208985168452825280832093881683529290522080548490811061123057fe5b9060005260206000209060050201600301549050949350505050565b3360009081526020819052604090205460ff16151561126a57600080fd5b600160a060020a0380821660009081526004602090815260408083209386168352929052205460ff16151561129e57600080fd5b600160a060020a038181166000908152600360209081526040808320878516845290915290205416156112d057600080fd5b600160a060020a03908116600081815260036020908152604080832096851680845296825280832080549590961673ffffffffffffffffffffffffffffffffffffffff1995861681179096558383526002825280832095835294815284822080546001810182559083528183200180549094168617909355908152600782528281209381529290529020429055565b3360009081526020819052604090205460ff16151561137d57600080fd5b600160a060020a0380831660009081526004602090815260408083209388168352929052205460ff1615156113b157600080fd5b600160a060020a03808316600090815260056020908152604080832088851684528252808320938516835292905220546113f1908463ffffffff61186416565b600160a060020a039283166000908152600560209081526040808320978616835296815286822093909416815291909252929092209190915550565b6000808290506003600082600160a060020a031663abb8e2136040518163ffffffff1660e060020a028152600401602060405180830381600087803b15801561147557600080fd5b505af1158015611489573d6000803e3d6000fd5b505050506040513d602081101561149f57600080fd5b5051600160a060020a0390811682526020828101939093526040918201600090812088831682529093529120541691505092915050565b60066020908152600092835260408084209091529082529020805460018201546002830154600384015460049094015492939192909160ff169085565b600560209081526000938452604080852082529284528284209052825290205481565b600160a060020a03808216600090815260086020908152604080832088851684528252808320938716835292905290812054831061157357600080fd5b600160a060020a038083166000908152600860209081526040808320898516845282528083209388168352929052208054849081106115ae57fe5b6000918252602090912060059091020160040154600160a060020a031695945050505050565b600160a060020a0380821660009081526007602090815260408083209386168352929052205492915050565b600160a060020a03808216600090815260046020908152604080832093861683529290529081205460ff16151561163657600080fd5b50600160a060020a0380821660009081526006602090815260408083209386168352929052205492915050565b600160a060020a0380821660009081526008602090815260408083208885168452825280832093871683529290529081205483106116a057600080fd5b600160a060020a038083166000908152600860209081526040808320898516845282528083209388168352929052208054849081106116db57fe5b9060005260206000209060050201600101549050949350505050565b600160a060020a031660009081526020819052604090205460ff1690565b3360009081526020819052604090205460ff16151561173357600080fd5b610c9e81611871565b600460209081526000928352604080842090915290825290205460ff1681565b600160a060020a03808216600090815260086020908152604080832088851684528252808320938716835292905290812054831061179957600080fd5b600160a060020a038083166000908152600860209081526040808320898516845282528083209388168352929052208054849081106117d457fe5b9060005260206000209060050201600001549050949350505050565b600082151561180157506000610ac5565b5081810281838281151561181157fe5b0414610ac557fe5b6000818381151561182657fe5b049392505050565b600160a060020a038116151561184357600080fd5b600160a060020a03166000908152602081905260409020805460ff19169055565b81810182811015610ac557fe5b600160a060020a038116151561188657600080fd5b600154604051600160a060020a038084169216907f8be0079c531659141344cd1fd0a4f28419497f9722a3daafe3b4186f6b6457e090600090a3600160a060020a03166000908152602081905260409020805460ff19166001179055565b60a060405190810160405280600081526020016000815260200160008152602001600081526020016000600160a060020a0316815250905600a165627a7a723058207a086757182d01344d9f1dfb79c733492b933101aceb103f3ec6baceba9b5aca0029",
  "source": "pragma solidity ^0.4.0;\n\nimport 'openzeppelin-solidity/contracts/math/SafeMath.sol';\nimport \"../interfaces/BrokerManagerInt.sol\";\nimport \"../interfaces/Ownables.sol\";\nimport \"../StoneCoin.sol\";\ncontract BrokerManager  is Ownables, BrokerManagerInt{\n    using SafeMath for uint256;\n    struct BrokerHistory {\n        uint256 time;\n        uint256 amount;\n        uint256 fee;\n        uint256 buyingPrice;\n        address stoneCoinAddress;\n    }\n    struct BrokerFee {\n        uint256 firstDealFee;\n        uint256 otherDealFee;\n        uint256 secondaryFee;\n        bool oneTime;\n        uint256 upToo;\n    }\n    mapping(address => mapping(address => address[])) public brokerToUsers;\n    mapping(address => mapping(address => address)) public userToBroker;\n    mapping(address =>  mapping(address => bool)) public isBroker;\n    mapping(address => mapping(address => mapping(address => uint256))) public brokerToPayment;\n    mapping(address => mapping(address => BrokerFee)) public brokerFeesPolicy;\n    mapping(address => mapping(address => uint)) public userAssignmentDate;\n    mapping(address => mapping(address => mapping(address =>  BrokerHistory[]))) public brokerUserFeesHistory;\n\n\n    constructor (\n    ) Ownables() public {\n    }\n\n\n    function addBroker(address user, address organization)  public onlyOwner{\n        isBroker[organization][user] = true;\n        brokerFeesPolicy[organization][user].firstDealFee = 20;\n        brokerFeesPolicy[organization][user].otherDealFee = 10;\n        brokerFeesPolicy[organization][user].secondaryFee = 0;\n        brokerFeesPolicy[organization][user].oneTime = false;\n    }\n\n    function setBrokerFees(address user, uint256 firstDealRatio, uint256 otherDealRatio,  uint256 secondaryFee,  address organization )  public onlyOwner{\n        require(isBroker[organization][user]);\n        brokerFeesPolicy[organization][user].firstDealFee = firstDealRatio;\n        brokerFeesPolicy[organization][user].otherDealFee = otherDealRatio;\n        brokerFeesPolicy[organization][user].secondaryFee = secondaryFee;\n    }\n\n    function addUserToBroker(address user, address broker,  address organization)  public onlyOwner{\n        require(isBroker[organization][broker]);\n        require(userToBroker[organization][user] == address(0));\n        userToBroker[organization][user] = broker;\n        brokerToUsers[organization][broker].push(user);\n        userAssignmentDate[organization][user] = now;\n    }\n\n    function getUserAssignmentDate(address user,  address organization) public view returns(uint){\n        return userAssignmentDate[organization][user];\n    }\n\n    function getBrokerUsers(address broker,  address organization)  public view returns(address[]) {\n        return brokerToUsers[organization][broker];\n    }\n\n    function payBroker(address broker, uint256 payment,  address organization, address stoneCoinAddress) public onlyOwner{\n        require(isBroker[organization][broker]);\n        brokerToPayment[organization][broker][stoneCoinAddress] = brokerToPayment[organization][broker][stoneCoinAddress].add(payment);\n    }\n\n    function getBrokerPayments(address broker, address organization, address stoneCoinAddress)  public view returns(uint256) {\n        require(isBroker[organization][broker]);\n        return brokerToPayment[organization][broker][stoneCoinAddress];\n    }\n    function getBrokerFirstDealRatio(address broker,  address organization)  public view returns(uint256) {\n        require(isBroker[organization][broker]);\n        return brokerFeesPolicy[organization][broker].firstDealFee;\n    }\n\n    function getBrokerOtherDealRatio(address broker,  address organization)  public view returns(uint256) {\n        require(isBroker[organization][broker]);\n        return brokerFeesPolicy[organization][broker].otherDealFee;\n    }\n\n    function getBrokerHistoryLength(address broker, address user,  address organization)  public view returns(uint) {\n        return  brokerUserFeesHistory[organization][broker][user].length;\n    }\n\n    function getBrokerHistoryFee(address broker, address user, uint index,  address organization)  public view returns(uint256) {\n        require(brokerUserFeesHistory[organization][broker][user].length > index);\n        return  brokerUserFeesHistory[organization][broker][user][index].fee;\n    }\n\n    function getBrokerHistoryTime(address broker, address user, uint index,  address organization)  public view returns(uint256) {\n        require(brokerUserFeesHistory[organization][broker][user].length > index);\n        return  brokerUserFeesHistory[organization][broker][user][index].time;\n    }\n\n    function getBrokerHistoryAmount(address broker, address user, uint index,  address organization)  public view returns(uint256) {\n        require(brokerUserFeesHistory[organization][broker][user].length > index);\n        return  brokerUserFeesHistory[organization][broker][user][index].amount;\n    }\n\n    function getBrokerHistoryBuyingPrice(address broker, address user, uint index,  address organization)  public view returns(uint256) {\n        require(brokerUserFeesHistory[organization][broker][user].length > index);\n        return  brokerUserFeesHistory[organization][broker][user][index].buyingPrice;\n    }\n\n    function getBrokerHistoryProject(address broker, address user, uint index,  address organization)  public view returns(address) {\n        require(brokerUserFeesHistory[organization][broker][user].length > index);\n        return  brokerUserFeesHistory[organization][broker][user][index].stoneCoinAddress;\n    }\n\n    function checkBroker(address user,  address stoneCoinAddress)  public view returns(address){\n        StoneCoin stoneCoinContract = StoneCoin(stoneCoinAddress);\n        return userToBroker[stoneCoinContract.getOrganization()][user];\n    }\n\n    function getBrokerFee(address user, address stoneCoinAddress) public view returns(uint256){\n        StoneCoin stoneCoinContract = StoneCoin(stoneCoinAddress);\n        address broker = userToBroker[stoneCoinContract.getOrganization()][user];\n        if(address(0) == broker){\n            return 0;\n        }\n\n        if(!stoneCoinContract.isInitialOffering()){\n            return brokerFeesPolicy[stoneCoinContract.getOrganization()][broker].secondaryFee;\n        }\n        if(brokerUserFeesHistory[stoneCoinContract.getOrganization()][broker][user].length == 0){\n            return brokerFeesPolicy[stoneCoinContract.getOrganization()][broker].firstDealFee;\n        }\n        return brokerFeesPolicy[stoneCoinContract.getOrganization()][broker].otherDealFee;\n\n    }\n\n\n    function addBrokerHistory(address stoneCoinAddress,  address broker, address user, uint256 amount, uint256 buyingPrice, uint256 feeRatio) public onlyOwner  {\n        StoneCoin stoneCoinContract = StoneCoin(stoneCoinAddress);\n        BrokerHistory memory history;\n        history.time = now;\n        history.amount = amount;\n        history.fee = amount.mul(buyingPrice).mul(feeRatio).div(1000);\n        history.buyingPrice = buyingPrice;\n        history.stoneCoinAddress = stoneCoinAddress;\n        brokerUserFeesHistory[stoneCoinContract.getOrganization()][broker][user].push(history);\n    }\n\n\n}\n",
  "sourcePath": "/Users/roilandshut/projects/brikoin/brikoin/contracts/structures/BrokerManager.sol",
  "compiler": {
    "name": "solc",
    "version": "0.4.24+commit.e67f0147.Emscripten.clang"
  },
  "schemaVersion": "2.0.1",
  "updatedAt": "2019-10-27T14:12:11.085Z"
}