{
  "contractName": "CornerStone",
  "abi": [
    {
      "constant": true,
      "inputs": [
        {
          "name": "",
          "type": "address"
        }
      ],
      "name": "owners",
      "outputs": [
        {
          "name": "",
          "type": "bool"
        }
      ],
      "payable": false,
      "stateMutability": "view",
      "type": "function"
    },
    {
      "constant": false,
      "inputs": [
        {
          "name": "_newOwner",
          "type": "address"
        }
      ],
      "name": "setOwner",
      "outputs": [],
      "payable": false,
      "stateMutability": "nonpayable",
      "type": "function"
    },
    {
      "constant": true,
      "inputs": [],
      "name": "getAddress",
      "outputs": [
        {
          "name": "",
          "type": "address"
        }
      ],
      "payable": false,
      "stateMutability": "view",
      "type": "function"
    },
    {
      "constant": false,
      "inputs": [
        {
          "name": "_newOwner",
          "type": "address"
        }
      ],
      "name": "removeOwnership",
      "outputs": [],
      "payable": false,
      "stateMutability": "nonpayable",
      "type": "function"
    },
    {
      "constant": true,
      "inputs": [],
      "name": "owner",
      "outputs": [
        {
          "name": "",
          "type": "address"
        }
      ],
      "payable": false,
      "stateMutability": "view",
      "type": "function"
    },
    {
      "constant": true,
      "inputs": [
        {
          "name": "user",
          "type": "address"
        }
      ],
      "name": "isOwnable",
      "outputs": [
        {
          "name": "",
          "type": "bool"
        }
      ],
      "payable": false,
      "stateMutability": "view",
      "type": "function"
    },
    {
      "constant": false,
      "inputs": [
        {
          "name": "_newOwner",
          "type": "address"
        }
      ],
      "name": "addOwnership",
      "outputs": [],
      "payable": false,
      "stateMutability": "nonpayable",
      "type": "function"
    },
    {
      "inputs": [],
      "payable": false,
      "stateMutability": "nonpayable",
      "type": "constructor"
    },
    {
      "anonymous": false,
      "inputs": [
        {
          "indexed": false,
          "name": "user",
          "type": "address"
        },
        {
          "indexed": false,
          "name": "stoneCoinAddress",
          "type": "address"
        },
        {
          "indexed": false,
          "name": "amount",
          "type": "uint256"
        },
        {
          "indexed": false,
          "name": "limit_micros",
          "type": "uint256"
        },
        {
          "indexed": false,
          "name": "available",
          "type": "uint256"
        }
      ],
      "name": "BidCreated",
      "type": "event"
    },
    {
      "anonymous": false,
      "inputs": [
        {
          "indexed": false,
          "name": "user",
          "type": "address"
        },
        {
          "indexed": false,
          "name": "stoneCoinAddress",
          "type": "address"
        },
        {
          "indexed": false,
          "name": "amount",
          "type": "uint256"
        },
        {
          "indexed": false,
          "name": "limit_micros",
          "type": "uint256"
        },
        {
          "indexed": false,
          "name": "available",
          "type": "uint256"
        }
      ],
      "name": "BidMortgageCreated",
      "type": "event"
    },
    {
      "anonymous": false,
      "inputs": [
        {
          "indexed": false,
          "name": "user",
          "type": "address"
        },
        {
          "indexed": false,
          "name": "stoneCoinAddress",
          "type": "address"
        }
      ],
      "name": "BidCancel",
      "type": "event"
    },
    {
      "anonymous": false,
      "inputs": [
        {
          "indexed": false,
          "name": "user",
          "type": "address"
        },
        {
          "indexed": false,
          "name": "stoneCoinAddress",
          "type": "address"
        },
        {
          "indexed": false,
          "name": "amount",
          "type": "uint256"
        },
        {
          "indexed": false,
          "name": "limit_micros",
          "type": "uint256"
        }
      ],
      "name": "AskCreated",
      "type": "event"
    },
    {
      "anonymous": false,
      "inputs": [
        {
          "indexed": false,
          "name": "user",
          "type": "address"
        },
        {
          "indexed": false,
          "name": "stoneCoinAddress",
          "type": "address"
        },
        {
          "indexed": false,
          "name": "amount",
          "type": "uint256"
        },
        {
          "indexed": false,
          "name": "limit_micros",
          "type": "uint256"
        }
      ],
      "name": "AskMortgageCreated",
      "type": "event"
    },
    {
      "anonymous": false,
      "inputs": [
        {
          "indexed": false,
          "name": "stoneCoinAddress",
          "type": "address"
        },
        {
          "indexed": false,
          "name": "amount",
          "type": "uint256"
        }
      ],
      "name": "InitialAskCreated",
      "type": "event"
    },
    {
      "anonymous": false,
      "inputs": [
        {
          "indexed": false,
          "name": "user",
          "type": "address"
        },
        {
          "indexed": false,
          "name": "stoneCoinAddress",
          "type": "address"
        }
      ],
      "name": "AskCancel",
      "type": "event"
    },
    {
      "anonymous": false,
      "inputs": [
        {
          "indexed": false,
          "name": "stoneCoinAddress",
          "type": "address"
        },
        {
          "indexed": false,
          "name": "buyer",
          "type": "address"
        },
        {
          "indexed": false,
          "name": "seller",
          "type": "address"
        },
        {
          "indexed": false,
          "name": "amount",
          "type": "uint256"
        },
        {
          "indexed": false,
          "name": "price",
          "type": "uint256"
        },
        {
          "indexed": false,
          "name": "initi",
          "type": "bool"
        }
      ],
      "name": "Trade",
      "type": "event"
    },
    {
      "anonymous": false,
      "inputs": [
        {
          "indexed": false,
          "name": "stoneCoinAddress",
          "type": "address"
        },
        {
          "indexed": false,
          "name": "buyer",
          "type": "address"
        },
        {
          "indexed": false,
          "name": "seller",
          "type": "address"
        },
        {
          "indexed": false,
          "name": "amount",
          "type": "uint256"
        },
        {
          "indexed": false,
          "name": "price",
          "type": "uint256"
        }
      ],
      "name": "TradeMortgaged",
      "type": "event"
    },
    {
      "anonymous": false,
      "inputs": [
        {
          "indexed": false,
          "name": "total",
          "type": "uint256"
        }
      ],
      "name": "TotalAllocated",
      "type": "event"
    },
    {
      "anonymous": false,
      "inputs": [],
      "name": "BuyerMortgageeInsufficientBalance",
      "type": "event"
    },
    {
      "anonymous": false,
      "inputs": [
        {
          "indexed": false,
          "name": "newMortgagee",
          "type": "address"
        },
        {
          "indexed": false,
          "name": "microUSDs",
          "type": "uint256"
        },
        {
          "indexed": false,
          "name": "maxMortgage",
          "type": "uint256"
        }
      ],
      "name": "MortgageeAdded",
      "type": "event"
    },
    {
      "anonymous": false,
      "inputs": [
        {
          "indexed": false,
          "name": "newMortgagee",
          "type": "address"
        },
        {
          "indexed": false,
          "name": "microUSDs",
          "type": "uint256"
        },
        {
          "indexed": false,
          "name": "maxMortgage",
          "type": "uint256"
        }
      ],
      "name": "MortgageeAddFunds",
      "type": "event"
    },
    {
      "anonymous": false,
      "inputs": [
        {
          "indexed": false,
          "name": "key",
          "type": "uint64"
        }
      ],
      "name": "TradeMortgageCreated",
      "type": "event"
    },
    {
      "anonymous": false,
      "inputs": [
        {
          "indexed": false,
          "name": "mortgageAddress",
          "type": "address"
        },
        {
          "indexed": false,
          "name": "buyer",
          "type": "address"
        },
        {
          "indexed": false,
          "name": "mortgagee",
          "type": "address"
        },
        {
          "indexed": false,
          "name": "balance",
          "type": "uint256"
        },
        {
          "indexed": false,
          "name": "value",
          "type": "uint256"
        },
        {
          "indexed": false,
          "name": "timestamp",
          "type": "uint256"
        }
      ],
      "name": "MortgageDefaulted",
      "type": "event"
    },
    {
      "anonymous": false,
      "inputs": [
        {
          "indexed": false,
          "name": "stoneCoin",
          "type": "address"
        }
      ],
      "name": "StoneCoinCreated",
      "type": "event"
    },
    {
      "anonymous": false,
      "inputs": [
        {
          "indexed": false,
          "name": "mortgage",
          "type": "address"
        }
      ],
      "name": "MortgageCreated",
      "type": "event"
    },
    {
      "anonymous": false,
      "inputs": [
        {
          "indexed": false,
          "name": "mortgageAddress",
          "type": "address"
        },
        {
          "indexed": false,
          "name": "buyer",
          "type": "address"
        },
        {
          "indexed": false,
          "name": "mortgagee",
          "type": "address"
        },
        {
          "indexed": false,
          "name": "balance",
          "type": "uint256"
        },
        {
          "indexed": false,
          "name": "value",
          "type": "uint256"
        },
        {
          "indexed": false,
          "name": "timestamp",
          "type": "uint256"
        }
      ],
      "name": "MortgagePayment",
      "type": "event"
    },
    {
      "anonymous": false,
      "inputs": [
        {
          "indexed": true,
          "name": "previousOwner",
          "type": "address"
        }
      ],
      "name": "OwnershipRenounced",
      "type": "event"
    },
    {
      "anonymous": false,
      "inputs": [
        {
          "indexed": true,
          "name": "previousOwner",
          "type": "address"
        },
        {
          "indexed": true,
          "name": "newOwner",
          "type": "address"
        }
      ],
      "name": "OwnershipTransferred",
      "type": "event"
    },
    {
      "constant": false,
      "inputs": [
        {
          "name": "_dispositionAddress",
          "type": "address"
        }
      ],
      "name": "setDispositionAddress",
      "outputs": [],
      "payable": false,
      "stateMutability": "nonpayable",
      "type": "function"
    },
    {
      "constant": false,
      "inputs": [
        {
          "name": "_mortgageStoneAddress",
          "type": "address"
        }
      ],
      "name": "setMortgageStoneAddress",
      "outputs": [],
      "payable": false,
      "stateMutability": "nonpayable",
      "type": "function"
    },
    {
      "constant": false,
      "inputs": [
        {
          "name": "_baseStoneAddress",
          "type": "address"
        }
      ],
      "name": "setBaseStoneAddress",
      "outputs": [],
      "payable": false,
      "stateMutability": "nonpayable",
      "type": "function"
    },
    {
      "constant": true,
      "inputs": [],
      "name": "getBrokerManager",
      "outputs": [
        {
          "name": "",
          "type": "address"
        }
      ],
      "payable": false,
      "stateMutability": "view",
      "type": "function"
    },
    {
      "constant": true,
      "inputs": [],
      "name": "getTransactionManager",
      "outputs": [
        {
          "name": "",
          "type": "address"
        }
      ],
      "payable": false,
      "stateMutability": "view",
      "type": "function"
    },
    {
      "constant": false,
      "inputs": [
        {
          "name": "user",
          "type": "address"
        }
      ],
      "name": "setTransactionManager",
      "outputs": [],
      "payable": false,
      "stateMutability": "nonpayable",
      "type": "function"
    },
    {
      "constant": false,
      "inputs": [
        {
          "name": "user",
          "type": "address"
        }
      ],
      "name": "addBroker",
      "outputs": [],
      "payable": false,
      "stateMutability": "nonpayable",
      "type": "function"
    },
    {
      "constant": false,
      "inputs": [
        {
          "name": "user",
          "type": "address"
        }
      ],
      "name": "addTokenApproveRole",
      "outputs": [],
      "payable": false,
      "stateMutability": "nonpayable",
      "type": "function"
    },
    {
      "constant": false,
      "inputs": [
        {
          "name": "user",
          "type": "address"
        },
        {
          "name": "firstDealRatio",
          "type": "uint256"
        },
        {
          "name": "otherDealRatio",
          "type": "uint256"
        },
        {
          "name": "secondaryFee",
          "type": "uint256"
        },
        {
          "name": "organization",
          "type": "address"
        }
      ],
      "name": "setBrokerFees",
      "outputs": [],
      "payable": false,
      "stateMutability": "nonpayable",
      "type": "function"
    },
    {
      "constant": false,
      "inputs": [
        {
          "name": "broker",
          "type": "address"
        },
        {
          "name": "payment",
          "type": "uint256"
        },
        {
          "name": "organization",
          "type": "address"
        },
        {
          "name": "stoneCoinAddress",
          "type": "address"
        }
      ],
      "name": "payBroker",
      "outputs": [],
      "payable": false,
      "stateMutability": "nonpayable",
      "type": "function"
    },
    {
      "constant": false,
      "inputs": [
        {
          "name": "user",
          "type": "address"
        },
        {
          "name": "broker",
          "type": "address"
        },
        {
          "name": "organization",
          "type": "address"
        }
      ],
      "name": "addUserToBroker",
      "outputs": [],
      "payable": false,
      "stateMutability": "nonpayable",
      "type": "function"
    },
    {
      "constant": true,
      "inputs": [],
      "name": "getTradesHistory",
      "outputs": [
        {
          "name": "",
          "type": "address"
        }
      ],
      "payable": false,
      "stateMutability": "view",
      "type": "function"
    },
    {
      "constant": true,
      "inputs": [],
      "name": "getFeeManager",
      "outputs": [
        {
          "name": "",
          "type": "address"
        }
      ],
      "payable": false,
      "stateMutability": "view",
      "type": "function"
    },
    {
      "constant": false,
      "inputs": [
        {
          "name": "user",
          "type": "address"
        }
      ],
      "name": "addFeeManagerRole",
      "outputs": [],
      "payable": false,
      "stateMutability": "nonpayable",
      "type": "function"
    },
    {
      "constant": true,
      "inputs": [
        {
          "name": "_user",
          "type": "address"
        }
      ],
      "name": "balanceOf",
      "outputs": [
        {
          "name": "",
          "type": "uint256"
        }
      ],
      "payable": false,
      "stateMutability": "view",
      "type": "function"
    },
    {
      "constant": true,
      "inputs": [],
      "name": "getOwnerBalance",
      "outputs": [
        {
          "name": "",
          "type": "uint256"
        }
      ],
      "payable": false,
      "stateMutability": "view",
      "type": "function"
    },
    {
      "constant": true,
      "inputs": [],
      "name": "getCornerBase",
      "outputs": [
        {
          "name": "",
          "type": "address"
        }
      ],
      "payable": false,
      "stateMutability": "view",
      "type": "function"
    },
    {
      "constant": true,
      "inputs": [],
      "name": "getInitialSupply",
      "outputs": [
        {
          "name": "",
          "type": "uint256"
        }
      ],
      "payable": false,
      "stateMutability": "view",
      "type": "function"
    },
    {
      "constant": true,
      "inputs": [
        {
          "name": "stoneCoinAddress",
          "type": "address"
        },
        {
          "name": "user",
          "type": "address"
        }
      ],
      "name": "bidAmount",
      "outputs": [
        {
          "name": "",
          "type": "uint256"
        }
      ],
      "payable": false,
      "stateMutability": "view",
      "type": "function"
    },
    {
      "constant": true,
      "inputs": [
        {
          "name": "stoneCoinAddress",
          "type": "address"
        },
        {
          "name": "user",
          "type": "address"
        }
      ],
      "name": "askAmount",
      "outputs": [
        {
          "name": "",
          "type": "uint256"
        }
      ],
      "payable": false,
      "stateMutability": "view",
      "type": "function"
    },
    {
      "constant": true,
      "inputs": [
        {
          "name": "_user",
          "type": "address"
        }
      ],
      "name": "mortgageeBalanceOf",
      "outputs": [
        {
          "name": "",
          "type": "uint256"
        }
      ],
      "payable": false,
      "stateMutability": "view",
      "type": "function"
    },
    {
      "constant": false,
      "inputs": [
        {
          "name": "microUSDs",
          "type": "uint256"
        }
      ],
      "name": "withdrawMortgageBalance",
      "outputs": [],
      "payable": false,
      "stateMutability": "nonpayable",
      "type": "function"
    },
    {
      "constant": false,
      "inputs": [
        {
          "name": "payee",
          "type": "address"
        },
        {
          "name": "amount",
          "type": "uint256"
        }
      ],
      "name": "deposit",
      "outputs": [
        {
          "name": "",
          "type": "bool"
        }
      ],
      "payable": false,
      "stateMutability": "nonpayable",
      "type": "function"
    },
    {
      "constant": false,
      "inputs": [
        {
          "name": "payee",
          "type": "address"
        },
        {
          "name": "amount",
          "type": "uint256"
        },
        {
          "name": "stoneCoinAddress",
          "type": "address"
        }
      ],
      "name": "depositProject",
      "outputs": [
        {
          "name": "",
          "type": "bool"
        }
      ],
      "payable": false,
      "stateMutability": "nonpayable",
      "type": "function"
    },
    {
      "constant": false,
      "inputs": [
        {
          "name": "user",
          "type": "address"
        },
        {
          "name": "amount",
          "type": "uint256"
        },
        {
          "name": "stoneCoinAddress",
          "type": "address"
        }
      ],
      "name": "withdrawApprove",
      "outputs": [
        {
          "name": "",
          "type": "bool"
        }
      ],
      "payable": false,
      "stateMutability": "nonpayable",
      "type": "function"
    },
    {
      "constant": false,
      "inputs": [
        {
          "name": "user",
          "type": "address"
        },
        {
          "name": "amount",
          "type": "uint256"
        }
      ],
      "name": "withdraw",
      "outputs": [
        {
          "name": "",
          "type": "bool"
        }
      ],
      "payable": false,
      "stateMutability": "nonpayable",
      "type": "function"
    },
    {
      "constant": false,
      "inputs": [
        {
          "name": "stoneCoinAddress",
          "type": "address"
        },
        {
          "name": "micros",
          "type": "uint256"
        }
      ],
      "name": "payIncome",
      "outputs": [
        {
          "name": "remaining",
          "type": "uint256"
        }
      ],
      "payable": false,
      "stateMutability": "nonpayable",
      "type": "function"
    },
    {
      "constant": false,
      "inputs": [
        {
          "name": "user",
          "type": "address"
        },
        {
          "name": "state",
          "type": "bool"
        }
      ],
      "name": "setUserDispositionState",
      "outputs": [],
      "payable": false,
      "stateMutability": "nonpayable",
      "type": "function"
    },
    {
      "constant": false,
      "inputs": [
        {
          "name": "project",
          "type": "address"
        },
        {
          "name": "state",
          "type": "bool"
        }
      ],
      "name": "setProjectDispositionState",
      "outputs": [],
      "payable": false,
      "stateMutability": "nonpayable",
      "type": "function"
    },
    {
      "constant": true,
      "inputs": [
        {
          "name": "stoneCoinAddress",
          "type": "address"
        }
      ],
      "name": "getTotalAllocated",
      "outputs": [
        {
          "name": "",
          "type": "uint256"
        }
      ],
      "payable": false,
      "stateMutability": "view",
      "type": "function"
    },
    {
      "constant": true,
      "inputs": [
        {
          "name": "stoneCoinAddress",
          "type": "address"
        },
        {
          "name": "user",
          "type": "address"
        }
      ],
      "name": "getUserHoldings",
      "outputs": [
        {
          "name": "",
          "type": "uint256"
        }
      ],
      "payable": false,
      "stateMutability": "view",
      "type": "function"
    },
    {
      "constant": false,
      "inputs": [
        {
          "name": "user",
          "type": "address"
        }
      ],
      "name": "addMortgageOperatorRole",
      "outputs": [],
      "payable": false,
      "stateMutability": "nonpayable",
      "type": "function"
    },
    {
      "constant": false,
      "inputs": [
        {
          "name": "user",
          "type": "address"
        }
      ],
      "name": "addMortgageFinanceRole",
      "outputs": [],
      "payable": false,
      "stateMutability": "nonpayable",
      "type": "function"
    },
    {
      "constant": false,
      "inputs": [
        {
          "name": "stoneCoinAddress",
          "type": "address"
        },
        {
          "name": "micros",
          "type": "uint256"
        }
      ],
      "name": "closeStoneCoin",
      "outputs": [],
      "payable": false,
      "stateMutability": "nonpayable",
      "type": "function"
    },
    {
      "constant": false,
      "inputs": [
        {
          "name": "stoneCoinAddress",
          "type": "address"
        },
        {
          "name": "to",
          "type": "address"
        },
        {
          "name": "amount",
          "type": "uint256"
        }
      ],
      "name": "transferFromOwner",
      "outputs": [
        {
          "name": "",
          "type": "bool"
        }
      ],
      "payable": false,
      "stateMutability": "nonpayable",
      "type": "function"
    },
    {
      "constant": false,
      "inputs": [
        {
          "name": "stoneCoinAddress",
          "type": "address"
        },
        {
          "name": "amount",
          "type": "uint256"
        },
        {
          "name": "limit_micros",
          "type": "uint256"
        },
        {
          "name": "signDocument",
          "type": "address"
        }
      ],
      "name": "bid",
      "outputs": [
        {
          "name": "successeded",
          "type": "bool"
        },
        {
          "name": "available",
          "type": "uint256"
        }
      ],
      "payable": false,
      "stateMutability": "nonpayable",
      "type": "function"
    },
    {
      "constant": false,
      "inputs": [
        {
          "name": "user",
          "type": "address"
        },
        {
          "name": "stoneCoinAddress",
          "type": "address"
        },
        {
          "name": "amount",
          "type": "uint256"
        },
        {
          "name": "limit_micros",
          "type": "uint256"
        },
        {
          "name": "signDocument",
          "type": "address"
        }
      ],
      "name": "bidAdmin",
      "outputs": [],
      "payable": false,
      "stateMutability": "nonpayable",
      "type": "function"
    },
    {
      "constant": false,
      "inputs": [
        {
          "name": "stoneCoinAddress",
          "type": "address"
        }
      ],
      "name": "reservedBid",
      "outputs": [],
      "payable": false,
      "stateMutability": "nonpayable",
      "type": "function"
    },
    {
      "constant": false,
      "inputs": [
        {
          "name": "user",
          "type": "address"
        },
        {
          "name": "stoneCoinAddress",
          "type": "address"
        }
      ],
      "name": "reservedBidLost",
      "outputs": [],
      "payable": false,
      "stateMutability": "nonpayable",
      "type": "function"
    },
    {
      "constant": false,
      "inputs": [
        {
          "name": "stoneCoinAddress",
          "type": "address"
        }
      ],
      "name": "cancelReserveBid",
      "outputs": [],
      "payable": false,
      "stateMutability": "nonpayable",
      "type": "function"
    },
    {
      "constant": true,
      "inputs": [
        {
          "name": "_stoneCoinAddress",
          "type": "address"
        }
      ],
      "name": "getReserveBid",
      "outputs": [
        {
          "name": "",
          "type": "uint256"
        }
      ],
      "payable": false,
      "stateMutability": "view",
      "type": "function"
    },
    {
      "constant": false,
      "inputs": [
        {
          "name": "signDocument",
          "type": "address"
        },
        {
          "name": "stoneCoinAddress",
          "type": "address"
        }
      ],
      "name": "checkSignature",
      "outputs": [
        {
          "name": "",
          "type": "bool"
        }
      ],
      "payable": false,
      "stateMutability": "nonpayable",
      "type": "function"
    },
    {
      "constant": false,
      "inputs": [
        {
          "name": "stoneCoinAddress",
          "type": "address"
        }
      ],
      "name": "bidCancel",
      "outputs": [],
      "payable": false,
      "stateMutability": "nonpayable",
      "type": "function"
    },
    {
      "constant": false,
      "inputs": [
        {
          "name": "user",
          "type": "address"
        },
        {
          "name": "stoneCoinAddress",
          "type": "address"
        }
      ],
      "name": "bidCancelAdmin",
      "outputs": [],
      "payable": false,
      "stateMutability": "nonpayable",
      "type": "function"
    },
    {
      "constant": false,
      "inputs": [
        {
          "name": "stoneCoinAddress",
          "type": "address"
        },
        {
          "name": "amount",
          "type": "uint256"
        }
      ],
      "name": "initialAsk",
      "outputs": [
        {
          "name": "",
          "type": "bool"
        }
      ],
      "payable": false,
      "stateMutability": "nonpayable",
      "type": "function"
    },
    {
      "constant": false,
      "inputs": [
        {
          "name": "adminUser",
          "type": "address"
        },
        {
          "name": "stoneCoinAddress",
          "type": "address"
        },
        {
          "name": "amount",
          "type": "uint256"
        }
      ],
      "name": "initialAskAdmin",
      "outputs": [
        {
          "name": "",
          "type": "bool"
        }
      ],
      "payable": false,
      "stateMutability": "nonpayable",
      "type": "function"
    },
    {
      "constant": false,
      "inputs": [
        {
          "name": "stoneCoinAddress",
          "type": "address"
        },
        {
          "name": "amount",
          "type": "uint256"
        },
        {
          "name": "limit_micros",
          "type": "uint256"
        },
        {
          "name": "signDocument",
          "type": "address"
        }
      ],
      "name": "ask",
      "outputs": [
        {
          "name": "",
          "type": "bool"
        }
      ],
      "payable": false,
      "stateMutability": "nonpayable",
      "type": "function"
    },
    {
      "constant": false,
      "inputs": [
        {
          "name": "user",
          "type": "address"
        },
        {
          "name": "stoneCoinAddress",
          "type": "address"
        },
        {
          "name": "amount",
          "type": "uint256"
        },
        {
          "name": "limit_micros",
          "type": "uint256"
        },
        {
          "name": "signDocument",
          "type": "address"
        }
      ],
      "name": "askAdmin",
      "outputs": [
        {
          "name": "",
          "type": "bool"
        }
      ],
      "payable": false,
      "stateMutability": "nonpayable",
      "type": "function"
    },
    {
      "constant": false,
      "inputs": [
        {
          "name": "user",
          "type": "address"
        },
        {
          "name": "stoneCoinAddress",
          "type": "address"
        }
      ],
      "name": "askCancelAdmin",
      "outputs": [
        {
          "name": "",
          "type": "bool"
        }
      ],
      "payable": false,
      "stateMutability": "nonpayable",
      "type": "function"
    },
    {
      "constant": false,
      "inputs": [
        {
          "name": "stoneCoinAddress",
          "type": "address"
        }
      ],
      "name": "askCancel",
      "outputs": [
        {
          "name": "",
          "type": "bool"
        }
      ],
      "payable": false,
      "stateMutability": "nonpayable",
      "type": "function"
    },
    {
      "constant": false,
      "inputs": [
        {
          "name": "stoneCoinAddress",
          "type": "address"
        },
        {
          "name": "buyer",
          "type": "address"
        },
        {
          "name": "seller",
          "type": "address"
        },
        {
          "name": "amount",
          "type": "uint256"
        },
        {
          "name": "price",
          "type": "uint256"
        },
        {
          "name": "taxes",
          "type": "address"
        }
      ],
      "name": "trade",
      "outputs": [
        {
          "name": "",
          "type": "bool"
        }
      ],
      "payable": false,
      "stateMutability": "nonpayable",
      "type": "function"
    },
    {
      "constant": false,
      "inputs": [
        {
          "name": "microUSDs",
          "type": "uint256"
        },
        {
          "name": "maxMortgage",
          "type": "uint256"
        },
        {
          "name": "newMortgagee",
          "type": "address"
        }
      ],
      "name": "addMortgegee",
      "outputs": [
        {
          "name": "",
          "type": "address"
        }
      ],
      "payable": false,
      "stateMutability": "nonpayable",
      "type": "function"
    },
    {
      "constant": false,
      "inputs": [
        {
          "name": "user",
          "type": "address"
        },
        {
          "name": "microUSDs",
          "type": "uint256"
        },
        {
          "name": "maxMortgage",
          "type": "uint256"
        },
        {
          "name": "newMortgagee",
          "type": "address"
        }
      ],
      "name": "addMortgegeeAdmin",
      "outputs": [
        {
          "name": "",
          "type": "address"
        }
      ],
      "payable": false,
      "stateMutability": "nonpayable",
      "type": "function"
    },
    {
      "constant": false,
      "inputs": [
        {
          "name": "mortgageAddress",
          "type": "address"
        },
        {
          "name": "marketPriceMills",
          "type": "uint256"
        }
      ],
      "name": "mortgagePayment",
      "outputs": [
        {
          "name": "",
          "type": "uint256"
        }
      ],
      "payable": false,
      "stateMutability": "nonpayable",
      "type": "function"
    },
    {
      "constant": false,
      "inputs": [
        {
          "name": "mortgageAddress",
          "type": "address"
        },
        {
          "name": "marketPriceMills",
          "type": "uint256"
        },
        {
          "name": "paymentInMills",
          "type": "uint256"
        }
      ],
      "name": "trustedMortgagePayment",
      "outputs": [
        {
          "name": "",
          "type": "uint256"
        }
      ],
      "payable": false,
      "stateMutability": "nonpayable",
      "type": "function"
    },
    {
      "constant": false,
      "inputs": [
        {
          "name": "mortgageAddress",
          "type": "address"
        }
      ],
      "name": "clearAllMortgage",
      "outputs": [
        {
          "name": "",
          "type": "uint256"
        }
      ],
      "payable": false,
      "stateMutability": "nonpayable",
      "type": "function"
    },
    {
      "constant": false,
      "inputs": [
        {
          "name": "mortgageRequestAddress",
          "type": "address"
        },
        {
          "name": "stoneCoinAddress",
          "type": "address"
        },
        {
          "name": "downPaymentMicros",
          "type": "uint64"
        },
        {
          "name": "amount",
          "type": "uint256"
        },
        {
          "name": "limit_micros",
          "type": "uint256"
        },
        {
          "name": "signDocument",
          "type": "address"
        }
      ],
      "name": "bidMortgaged",
      "outputs": [
        {
          "name": "successeded",
          "type": "bool"
        },
        {
          "name": "available",
          "type": "uint256"
        }
      ],
      "payable": false,
      "stateMutability": "nonpayable",
      "type": "function"
    },
    {
      "constant": false,
      "inputs": [
        {
          "name": "user",
          "type": "address"
        },
        {
          "name": "mortgageRequestAddress",
          "type": "address"
        },
        {
          "name": "stoneCoinAddress",
          "type": "address"
        },
        {
          "name": "downPaymentMicros",
          "type": "uint64"
        },
        {
          "name": "amount",
          "type": "uint256"
        },
        {
          "name": "limit_micros",
          "type": "uint256"
        },
        {
          "name": "signDocument",
          "type": "address"
        }
      ],
      "name": "bidMortgagedAdmin",
      "outputs": [],
      "payable": false,
      "stateMutability": "nonpayable",
      "type": "function"
    },
    {
      "constant": false,
      "inputs": [
        {
          "name": "mortgageAddress",
          "type": "address"
        },
        {
          "name": "stoneCoinAddress",
          "type": "address"
        },
        {
          "name": "amount",
          "type": "uint256"
        },
        {
          "name": "limit_micros",
          "type": "uint256"
        },
        {
          "name": "signDocument",
          "type": "address"
        }
      ],
      "name": "askMortgaged",
      "outputs": [
        {
          "name": "",
          "type": "bool"
        }
      ],
      "payable": false,
      "stateMutability": "nonpayable",
      "type": "function"
    },
    {
      "constant": false,
      "inputs": [
        {
          "name": "user",
          "type": "address"
        },
        {
          "name": "mortgageAddress",
          "type": "address"
        },
        {
          "name": "stoneCoinAddress",
          "type": "address"
        },
        {
          "name": "amount",
          "type": "uint256"
        },
        {
          "name": "limit_micros",
          "type": "uint256"
        },
        {
          "name": "signDocument",
          "type": "address"
        }
      ],
      "name": "askMortgagedAdmin",
      "outputs": [
        {
          "name": "",
          "type": "bool"
        }
      ],
      "payable": false,
      "stateMutability": "nonpayable",
      "type": "function"
    },
    {
      "constant": false,
      "inputs": [
        {
          "name": "key",
          "type": "uint64"
        },
        {
          "name": "_stoneCoinAddress",
          "type": "address"
        },
        {
          "name": "_buyer",
          "type": "address"
        },
        {
          "name": "_seller",
          "type": "address"
        },
        {
          "name": "_buyerMortgage",
          "type": "address"
        },
        {
          "name": "_sellerMortgage",
          "type": "address"
        },
        {
          "name": "_amount",
          "type": "uint256"
        },
        {
          "name": "_price",
          "type": "uint256"
        },
        {
          "name": "taxes",
          "type": "address"
        }
      ],
      "name": "createTradeMortgage",
      "outputs": [],
      "payable": false,
      "stateMutability": "nonpayable",
      "type": "function"
    },
    {
      "constant": false,
      "inputs": [
        {
          "name": "mortgageAddress",
          "type": "address"
        }
      ],
      "name": "applyMortgageClearance",
      "outputs": [],
      "payable": false,
      "stateMutability": "nonpayable",
      "type": "function"
    }
  ],
  "bytecode": "0x608060405234801561001057600080fd5b50336000818152602081905260409020805460ff191660019081179091558054600160a060020a0319169091179055615e73806200004f6000396000f3006080604052600436106103135763ffffffff60e060020a600035041663022914a781146103185780630349e2ff1461034d578063088429db1461037057806308dbd3db1461039f5780630b1fa61c146103c057806313af4035146103e15780631e8d6179146104025780631eda6277146104295780632df840f41461045c5780632ec764811461048357806332f40a9b146104aa57806336e0c06c146104cb5780633715cc1f146104ec57806338cc48311461050d5780633c1bb86c1461053e5780633cd0df421461055f578063436c6f1b14610594578063436d9233146105b557806345eb3f17146105e857806347e7ef24146106465780634d55b9161461066a578063534b01c61461067f578063561cf42d146106a057806356b994a5146106b5578063590791f2146106e45780635cafa0ed146106f9578063666a3427146107205780636d80e1b41461074157806370a0823114610767578063759fa744146107885780637642678b146107a95780637bdca500146107d057806381a4a6d81461080b57806381f30b921461082057806382fef30e14610844578063836cae651461086557806384da3e22146108865780638569061b146108ac5780638da5cb5b146108d35780638e52bbb9146108e857806396f32fb81461091357806398803248146109285780639c99f55d14610949578063a3dfaafb1461095e578063a4a0051514610982578063a5690f76146109ac578063a7ff3b23146109d7578063a97ac49f14610a06578063aab2a87214610a27578063ae6e24a014610a7c578063b34ee90614610aa0578063b4bfa47814610acd578063b8dbf87614610afe578063ba05753814610b28578063bb646bab14610b5d578063bbc0808414610b84578063bd42b4db14610bab578063bd5af13d14610bcc578063d7e8753514610bed578063da0a46b714610c05578063dbaa114014610c26578063dbcda9d414610c4d578063dc12b81e14610c71578063e88914de14610ca6578063f2d6382614610cc7578063f3fef3a314610cdc578063f5a55ff614610d00578063f619208814610d21578063f94889d714610d6a575b600080fd5b34801561032457600080fd5b50610339600160a060020a0360043516610da5565b604080519115158252519081900360200190f35b34801561035957600080fd5b5061036e600160a060020a0360043516610dba565b005b34801561037c57600080fd5b50610339600160a060020a03600435811690602435906044359060643516610e42565b3480156103ab57600080fd5b5061036e600160a060020a0360043516610e5c565b3480156103cc57600080fd5b5061036e600160a060020a0360043516610ee4565b3480156103ed57600080fd5b5061036e600160a060020a0360043516610f69565b34801561040e57600080fd5b50610339600160a060020a0360043581169060243516610fb6565b34801561043557600080fd5b5061044a600160a060020a036004351661105e565b60408051918252519081900360200190f35b34801561046857600080fd5b5061044a600160a060020a0360043581169060243516611101565b34801561048f57600080fd5b5061036e600160a060020a0360043581169060243516611174565b3480156104b657600080fd5b5061036e600160a060020a036004351661121d565b3480156104d757600080fd5b5061036e600160a060020a03600435166112a2565b3480156104f857600080fd5b5061036e600160a060020a03600435166112b1565b34801561051957600080fd5b506105226112fe565b60408051600160a060020a039092168252519081900360200190f35b34801561054a57600080fd5b5061036e600160a060020a0360043516611302565b34801561056b57600080fd5b5061036e600160a060020a0360043581169060243581169060443590606435906084351661136f565b3480156105a057600080fd5b5061036e600160a060020a036004351661139a565b3480156105c157600080fd5b5061036e600160a060020a036004358116906024359060443590606435906084351661141f565b3480156105f457600080fd5b5061062b600160a060020a0360043581169060243581169067ffffffffffffffff6044351690606435906084359060a435166114e0565b60408051921515835260208301919091528051918290030190f35b34801561065257600080fd5b50610339600160a060020a0360043516602435611585565b34801561067657600080fd5b5061052261161b565b34801561068b57600080fd5b5061044a600160a060020a03600435166116ab565b3480156106ac57600080fd5b50610522611716565b3480156106c157600080fd5b50610522600160a060020a03600435811690602435906044359060643516611775565b3480156106f057600080fd5b5061044a6117a8565b34801561070557600080fd5b50610522600435602435600160a060020a0360443516611807565b34801561072c57600080fd5b5061036e600160a060020a036004351661181d565b34801561074d57600080fd5b5061036e600160a060020a03600435166024351515611844565b34801561077357600080fd5b5061044a600160a060020a0360043516611906565b34801561079457600080fd5b5061036e600160a060020a0360043516611990565b3480156107b557600080fd5b5061044a600160a060020a0360043581169060243516611a15565b3480156107dc57600080fd5b50610339600160a060020a03600435811690602435811690604435811690606435906084359060a43516611a88565b34801561081757600080fd5b5061044a6123f1565b34801561082c57600080fd5b5061044a600160a060020a0360043516602435612450565b34801561085057600080fd5b5061036e600160a060020a03600435166124dd565b34801561087157600080fd5b5061036e600160a060020a0360043516612562565b34801561089257600080fd5b5061036e600160a060020a036004351660243515156125ec565b3480156108b857600080fd5b5061044a600160a060020a036004351660243560443561267e565b3480156108df57600080fd5b50610522612731565b3480156108f457600080fd5b50610339600160a060020a036004358116906024359060443516612740565b34801561091f57600080fd5b506105226127d5565b34801561093457600080fd5b5061036e600160a060020a0360043516612834565b34801561095557600080fd5b50610522612881565b34801561096a57600080fd5b5061036e600160a060020a0360043516602435612890565b34801561098e57600080fd5b50610339600160a060020a036004358116906024351660443561291c565b3480156109b857600080fd5b50610339600160a060020a036004358116906024359060443516612ad0565b3480156109e357600080fd5b5061062b600160a060020a03600435811690602435906044359060643516612b65565b348015610a1257600080fd5b5061044a600160a060020a0360043516612c06565b348015610a3357600080fd5b5061036e67ffffffffffffffff60043516600160a060020a0360243581169060443581169060643581169060843581169060a43581169060c4359060e435906101043516612c77565b348015610a8857600080fd5b50610339600160a060020a0360043516602435613077565b348015610aac57600080fd5b5061036e600160a060020a0360043581169060243581169060443516613226565b348015610ad957600080fd5b5061036e600160a060020a0360043581169060243590604435811690606435166132d8565b348015610b0a57600080fd5b50610339600160a060020a0360043581169060243516604435613392565b348015610b3457600080fd5b50610339600160a060020a03600435811690602435811690604435906064359060843516613427565b348015610b6957600080fd5b5061044a600160a060020a0360043581169060243516613443565b348015610b9057600080fd5b5061036e600160a060020a03600435811690602435166134b6565b348015610bb757600080fd5b5061044a600160a060020a03600435166134de565b348015610bd857600080fd5b5061036e600160a060020a0360043516613549565b348015610bf957600080fd5b5061036e600435613596565b348015610c1157600080fd5b50610339600160a060020a0360043516613602565b348015610c3257600080fd5b50610339600160a060020a0360043581169060243516613617565b348015610c5957600080fd5b5061044a600160a060020a0360043516602435613649565b348015610c7d57600080fd5b50610339600160a060020a036004358116906024358116906044359060643590608435166136c6565b348015610cb257600080fd5b50610339600160a060020a03600435166136f1565b348015610cd357600080fd5b5061052261370f565b348015610ce857600080fd5b50610339600160a060020a036004351660243561376e565b348015610d0c57600080fd5b5061036e600160a060020a03600435166137fb565b348015610d2d57600080fd5b5061036e600160a060020a0360043581169060243581169060443581169067ffffffffffffffff60643516906084359060a4359060c43516613822565b348015610d7657600080fd5b50610339600160a060020a03600435811690602435811690604435811690606435906084359060a4351661384f565b60006020819052908152604090205460ff1681565b600354604080517fe3ff715e000000000000000000000000000000000000000000000000000000008152336004820152600160a060020a0384811660248301529151919092169163e3ff715e91604480830192600092919082900301818387803b158015610e2757600080fd5b505af1158015610e3b573d6000803e3d6000fd5b5050505050565b6000610e513386868686613888565b506001949350505050565b3360009081526020819052604090205460ff161515610e7a57600080fd5b600354604080517f08dbd3db000000000000000000000000000000000000000000000000000000008152600160a060020a038481166004830152915191909216916308dbd3db91602480830192600092919082900301818387803b158015610e2757600080fd5b50565b3360009081526020819052604090205460ff161515610f0257600080fd5b600354604080517f0b1fa61c000000000000000000000000000000000000000000000000000000008152600160a060020a03848116600483015291519190921691630b1fa61c91602480830192600092919082900301818387803b158015610e2757600080fd5b3360009081526020819052604090205460ff161515610f8757600080fd5b6001805473ffffffffffffffffffffffffffffffffffffffff1916600160a060020a0392909216919091179055565b600354604080517f1e8d6179000000000000000000000000000000000000000000000000000000008152600160a060020a038581166004830152848116602483015291516000939290921691631e8d61799160448082019260209290919082900301818787803b15801561102957600080fd5b505af115801561103d573d6000803e3d6000fd5b505050506040513d602081101561105357600080fd5b505190505b92915050565b600354604080517fe90385d5000000000000000000000000000000000000000000000000000000008152336004820152600160a060020a0384811660248301529151600093929092169163e90385d59160448082019260209290919082900301818787803b1580156110cf57600080fd5b505af11580156110e3573d6000803e3d6000fd5b505050506040513d60208110156110f957600080fd5b505192915050565b600254604080517f2df840f4000000000000000000000000000000000000000000000000000000008152600160a060020a038581166004830152848116602483015291516000939290921691632df840f49160448082019260209290919082900301818787803b15801561102957600080fd5b3360009081526020819052604090205460ff16151561119257600080fd5b600354604080517f2ec76481000000000000000000000000000000000000000000000000000000008152600160a060020a038581166004830152848116602483015291519190921691632ec7648191604480830192600092919082900301818387803b15801561120157600080fd5b505af1158015611215573d6000803e3d6000fd5b505050505050565b3360009081526020819052604090205460ff16151561123b57600080fd5b600354604080517f32f40a9b000000000000000000000000000000000000000000000000000000008152600160a060020a038481166004830152915191909216916332f40a9b91602480830192600092919082900301818387803b158015610e2757600080fd5b6112ac3382613ee0565b505050565b3360009081526020819052604090205460ff1615156112cf57600080fd5b6004805473ffffffffffffffffffffffffffffffffffffffff1916600160a060020a0392909216919091179055565b3090565b600354604080517f74f2a9c2000000000000000000000000000000000000000000000000000000008152336004820152600160a060020a038481166024830152915191909216916374f2a9c291604480830192600092919082900301818387803b158015610e2757600080fd5b3360009081526020819052604090205460ff16151561138d57600080fd5b610e3b85858585856143b3565b3360009081526020819052604090205460ff1615156113b857600080fd5b600354604080517f436c6f1b000000000000000000000000000000000000000000000000000000008152600160a060020a0384811660048301529151919092169163436c6f1b91602480830192600092919082900301818387803b158015610e2757600080fd5b3360009081526020819052604090205460ff16151561143d57600080fd5b600354604080517f436d9233000000000000000000000000000000000000000000000000000000008152600160a060020a03888116600483015260248201889052604482018790526064820186905284811660848301529151919092169163436d92339160a480830192600092919082900301818387803b1580156114c157600080fd5b505af11580156114d5573d6000803e3d6000fd5b505050505050505050565b60008060006114f4338a8a8a8a8a8a614adb565b60035460408051600080516020615e0883398151915281523360048201529051600160a060020a03909216916370a08231916024808201926020929091908290030181600087803b15801561154857600080fd5b505af115801561155c573d6000803e3d6000fd5b505050506040513d602081101561157257600080fd5b505160019a909950975050505050505050565b3360009081526020819052604081205460ff1615156115a357600080fd5b600354604080517ff45346dc000000000000000000000000000000000000000000000000000000008152600160a060020a03868116600483015260248201869052600060448301819052925193169263f45346dc92606480840193602093929083900390910190829087803b15801561102957600080fd5b600354604080517f4d55b9160000000000000000000000000000000000000000000000000000000081529051600092600160a060020a031691634d55b91691600480830192602092919082900301818787803b15801561167a57600080fd5b505af115801561168e573d6000803e3d6000fd5b505050506040513d60208110156116a457600080fd5b5051905090565b600354604080517f534b01c6000000000000000000000000000000000000000000000000000000008152600160a060020a0384811660048301529151600093929092169163534b01c69160248082019260209290919082900301818787803b1580156110cf57600080fd5b600354604080517f561cf42d0000000000000000000000000000000000000000000000000000000081529051600092600160a060020a03169163561cf42d91600480830192602092919082900301818787803b15801561167a57600080fd5b3360009081526020819052604081205460ff16151561179357600080fd5b61179f85858585614eaa565b95945050505050565b600354604080517f590791f20000000000000000000000000000000000000000000000000000000081529051600092600160a060020a03169163590791f291600480830192602092919082900301818787803b15801561167a57600080fd5b600061181533858585614eaa565b949350505050565b3360009081526020819052604090205460ff16151561183b57600080fd5b610ee181615196565b3360009081526020819052604090205460ff16151561186257600080fd5b60048054604080517f334f5675000000000000000000000000000000000000000000000000000000008152600160a060020a038681169482019490945284151560248201529051929091169163334f5675916044808201926020929091908290030181600087803b1580156118d657600080fd5b505af11580156118ea573d6000803e3d6000fd5b505050506040513d602081101561190057600080fd5b50505050565b60035460408051600080516020615e088339815191528152600160a060020a0384811660048301529151600093849316916370a0823191602480830192602092919082900301818787803b15801561195d57600080fd5b505af1158015611971573d6000803e3d6000fd5b505050506040513d602081101561198757600080fd5b50519392505050565b3360009081526020819052604090205460ff1615156119ae57600080fd5b600354604080517f759fa744000000000000000000000000000000000000000000000000000000008152600160a060020a0384811660048301529151919092169163759fa74491602480830192600092919082900301818387803b158015610e2757600080fd5b600254604080517f7642678b000000000000000000000000000000000000000000000000000000008152600160a060020a038581166004830152848116602483015291516000939290921691637642678b9160448082019260209290919082900301818787803b15801561102957600080fd5b336000908152602081905260408120548190819081908190819060ff161515611ab057600080fd5b6004805460408051600080516020615e288339815191528152600160a060020a038f811694820194909452905192909116916360e21e7c916024808201926020929091908290030181600087803b158015611b0a57600080fd5b505af1158015611b1e573d6000803e3d6000fd5b505050506040513d6020811015611b3457600080fd5b50511515611b4157600080fd5b6004805460408051600080516020615e288339815191528152600160a060020a038e811694820194909452905192909116916360e21e7c916024808201926020929091908290030181600087803b158015611b9b57600080fd5b505af1158015611baf573d6000803e3d6000fd5b505050506040513d6020811015611bc557600080fd5b50511515611bd257600080fd5b600460009054906101000a9004600160a060020a0316600160a060020a031663f9674c3d8d6040518263ffffffff1660e060020a0281526004018082600160a060020a0316600160a060020a03168152602001915050602060405180830381600087803b158015611c4257600080fd5b505af1158015611c56573d6000803e3d6000fd5b505050506040513d6020811015611c6c57600080fd5b50511515611c7957600080fd5b600254604080517f2df840f4000000000000000000000000000000000000000000000000000000008152600160a060020a038f811660048301528d8116602483015291519190921691632df840f49160448083019260209291908290030181600087803b158015611ce957600080fd5b505af1158015611cfd573d6000803e3d6000fd5b505050506040513d6020811015611d1357600080fd5b50519450611d27898963ffffffff6151cc16565b9350600260009054906101000a9004600160a060020a0316600160a060020a0316637642678b8d8d6040518363ffffffff1660e060020a0281526004018083600160a060020a0316600160a060020a0316815260200182600160a060020a0316600160a060020a0316815260200192505050602060405180830381600087803b158015611db357600080fd5b505af1158015611dc7573d6000803e3d6000fd5b505050506040513d6020811015611ddd57600080fd5b5051925088831015611dee57600080fd5b88851015611dfb57600080fd5b600254604080517f058586bc000000000000000000000000000000000000000000000000000000008152600160a060020a038f811660048301528e811660248301529151919092169163058586bc9160448083019260209291908290030181600087803b158015611e6b57600080fd5b505af1158015611e7f573d6000803e3d6000fd5b505050506040513d6020811015611e9557600080fd5b5051915083821015611ea657600080fd5b600354604080517fdef1b933000000000000000000000000000000000000000000000000000000008152600160a060020a038d81166004830152602482018890528f8116604483015260806064830152600560848301527f545241444500000000000000000000000000000000000000000000000000000060a48301529151919092169163def1b9339160c48083019260209291908290030181600087803b158015611f5157600080fd5b505af1158015611f65573d6000803e3d6000fd5b505050506040513d6020811015611f7b57600080fd5b5050600254600160a060020a0316639e561cec8d8d611fa0868963ffffffff6151f516565b6040805160e060020a63ffffffff8716028152600160a060020a0394851660048201529290931660248301526044820152905160648083019260209291908290030181600087803b158015611ff457600080fd5b505af1158015612008573d6000803e3d6000fd5b505050506040513d602081101561201e57600080fd5b5050600254604080517f058586bc000000000000000000000000000000000000000000000000000000008152600160a060020a038f811660048301528e811660248301529151919092169163058586bc9160448083019260209291908290030181600087803b15801561209057600080fd5b505af11580156120a4573d6000803e3d6000fd5b505050506040513d60208110156120ba57600080fd5b5051600354604080517f7648b9d8000000000000000000000000000000000000000000000000000000008152600481018890529051929350600160a060020a0390911691637648b9d8916024808201926020929091908290030181600087803b15801561212657600080fd5b505af115801561213a573d6000803e3d6000fd5b505050506040513d602081101561215057600080fd5b5050600254600160a060020a03166398fb40838d8c612175898e63ffffffff6151f516565b6040805160e060020a63ffffffff8716028152600160a060020a0394851660048201529290931660248301526044820152905160648083019260209291908290030181600087803b1580156121c957600080fd5b505af11580156121dd573d6000803e3d6000fd5b505050506040513d60208110156121f357600080fd5b5050600254600160a060020a031663dd1736118d8d612218878e63ffffffff6151f516565b6040805160e060020a63ffffffff8716028152600160a060020a0394851660048201529290931660248301526044820152905160648083019260209291908290030181600087803b15801561226c57600080fd5b505af1158015612280573d6000803e3d6000fd5b505050506040513d602081101561229657600080fd5b5050600254604080517f7642678b000000000000000000000000000000000000000000000000000000008152600160a060020a038f811660048301528e8116602483015291516000939290921691637642678b9160448082019260209290919082900301818787803b15801561230b57600080fd5b505af115801561231f573d6000803e3d6000fd5b505050506040513d602081101561233557600080fd5b5051101561234257600080fd5b6123508c8c8c8b8d86615207565b600354604080517f828d51dc000000000000000000000000000000000000000000000000000000008152600160a060020a038a811660048301528e811660248301528d811660448301529151919092169163828d51dc91606480830192600092919082900301818387803b1580156123c757600080fd5b505af11580156123db573d6000803e3d6000fd5b5060019f9e505050505050505050505050505050565b600354604080517f81a4a6d80000000000000000000000000000000000000000000000000000000081529051600092600160a060020a0316916381a4a6d891600480830192602092919082900301818787803b15801561167a57600080fd5b3360009081526020819052604081205460ff16151561246e57600080fd5b600354604080517f81f30b92000000000000000000000000000000000000000000000000000000008152600160a060020a03868116600483015260248201869052915191909216916381f30b929160448083019260209291908290030181600087803b15801561102957600080fd5b3360009081526020819052604090205460ff1615156124fb57600080fd5b600254604080517f82fef30e000000000000000000000000000000000000000000000000000000008152600160a060020a038481166004830152915191909216916382fef30e91602480830192600092919082900301818387803b158015610e2757600080fd5b3360009081526020819052604090205460ff16151561258057600080fd5b600354604080517f3b7bd0c4000000000000000000000000000000000000000000000000000000008152600160a060020a0384811660048301526000602483018190529251931692633b7bd0c49260448084019391929182900301818387803b158015610e2757600080fd5b3360009081526020819052604090205460ff16151561260a57600080fd5b60048054604080517f53aca865000000000000000000000000000000000000000000000000000000008152600160a060020a03868116948201949094528415156024820152905192909116916353aca865916044808201926020929091908290030181600087803b1580156118d657600080fd5b600254604080517f85f4b113000000000000000000000000000000000000000000000000000000008152336004820152600160a060020a0386811660248301526044820186905260648201859052915160009392909216916385f4b1139160848082019260209290919082900301818787803b1580156126fd57600080fd5b505af1158015612711573d6000803e3d6000fd5b505050506040513d602081101561272757600080fd5b5051949350505050565b600154600160a060020a031681565b3360009081526020819052604081205460ff16151561275e57600080fd5b600354604080517f8e52bbb9000000000000000000000000000000000000000000000000000000008152600160a060020a03878116600483015260248201879052858116604483015291519190921691638e52bbb99160648083019260209291908290030181600087803b1580156126fd57600080fd5b600354604080517f96f32fb80000000000000000000000000000000000000000000000000000000081529051600092600160a060020a0316916396f32fb891600480830192602092919082900301818787803b15801561167a57600080fd5b3360009081526020819052604090205460ff16151561285257600080fd5b6002805473ffffffffffffffffffffffffffffffffffffffff1916600160a060020a0392909216919091179055565b600354600160a060020a031690565b3360009081526020819052604090205460ff1615156128ae57600080fd5b600354604080517fa3dfaafb000000000000000000000000000000000000000000000000000000008152600160a060020a038581166004830152602482018590529151919092169163a3dfaafb91604480830192600092919082900301818387803b15801561120157600080fd5b3360009081526020819052604081205460ff16151561293a57600080fd5b600254604080517fb027ae8d000000000000000000000000000000000000000000000000000000008152600160a060020a0386811660048301528781166024830152620f424060448301529151919092169163b027ae8d9160648083019260209291908290030181600087803b1580156129b357600080fd5b505af11580156129c7573d6000803e3d6000fd5b505050506040513d60208110156129dd57600080fd5b5050600254604080517f98fb4083000000000000000000000000000000000000000000000000000000008152600160a060020a038681166004830152878116602483015260448201869052915191909216916398fb40839160648083019260209291908290030181600087803b158015612a5657600080fd5b505af1158015612a6a573d6000803e3d6000fd5b505050506040513d6020811015612a8057600080fd5b505060408051600160a060020a03851681526020810184905281517fb6fe70849dae7baad4fc16c027d5d308f91824b55bf0e2001ca02e11a6d670e4929181900390910190a15060019392505050565b3360009081526020819052604081205460ff161515612aee57600080fd5b600354604080517ff45346dc000000000000000000000000000000000000000000000000000000008152600160a060020a0387811660048301526024820187905285811660448301529151919092169163f45346dc9160648083019260209291908290030181600087803b1580156126fd57600080fd5b6000806000612b7733888888886143b3565b60035460408051600080516020615e0883398151915281523360048201529051600160a060020a03909216916370a08231916024808201926020929091908290030181600087803b158015612bcb57600080fd5b505af1158015612bdf573d6000803e3d6000fd5b505050506040513d6020811015612bf557600080fd5b505160019890975095505050505050565b600254604080517f7e9a6f0e000000000000000000000000000000000000000000000000000000008152336004820152600160a060020a03848116602483015291516000939290921691637e9a6f0e9160448082019260209290919082900301818787803b1580156110cf57600080fd5b3360009081526020819052604090205460ff161515612c9557600080fd5b6004805460408051600080516020615e288339815191528152600160a060020a038b811694820194909452905192909116916360e21e7c916024808201926020929091908290030181600087803b158015612cef57600080fd5b505af1158015612d03573d6000803e3d6000fd5b505050506040513d6020811015612d1957600080fd5b50511515612d2657600080fd5b6004805460408051600080516020615e288339815191528152600160a060020a038a811694820194909452905192909116916360e21e7c916024808201926020929091908290030181600087803b158015612d8057600080fd5b505af1158015612d94573d6000803e3d6000fd5b505050506040513d6020811015612daa57600080fd5b50511515612db757600080fd5b60048054604080517ff9674c3d000000000000000000000000000000000000000000000000000000008152600160a060020a038c8116948201949094529051929091169163f9674c3d916024808201926020929091908290030181600087803b158015612e2357600080fd5b505af1158015612e37573d6000803e3d6000fd5b505050506040513d6020811015612e4d57600080fd5b50511515612e5a57600080fd5b600254604080517f23709ff200000000000000000000000000000000000000000000000000000000815267ffffffffffffffff8c166004820152600160a060020a038b811660248301528a811660448301528981166064830152888116608483015287811660a483015260c4820187905260e48201869052915191909216916323709ff29161010480830192600092919082900301818387803b158015612f0057600080fd5b505af1158015612f14573d6000803e3d6000fd5b5050600254604080517f10b6253900000000000000000000000000000000000000000000000000000000815267ffffffffffffffff8e1660048201529051600160a060020a0390921693506310b62539925060248082019260009290919082900301818387803b158015612f8757600080fd5b505af1158015612f9b573d6000803e3d6000fd5b5050600354604080517f828d51dc000000000000000000000000000000000000000000000000000000008152600160a060020a0386811660048301528c811660248301528b81166044830152915191909216935063828d51dc9250606480830192600092919082900301818387803b15801561301657600080fd5b505af115801561302a573d6000803e3d6000fd5b50506040805167ffffffffffffffff8d16815290517fb5b0e23ec8f993d3fceeaeae4cf1ac41e719072a02eaaf5952fcafabdcbb11df9350908190036020019150a1505050505050505050565b3360009081526020819052604081205460ff16151561309557600080fd5b600254604080517fb027ae8d000000000000000000000000000000000000000000000000000000008152600160a060020a038681166004830152336024830152620f424060448301529151919092169163b027ae8d9160648083019260209291908290030181600087803b15801561310c57600080fd5b505af1158015613120573d6000803e3d6000fd5b505050506040513d602081101561313657600080fd5b5050600254604080517f98fb4083000000000000000000000000000000000000000000000000000000008152600160a060020a03868116600483015233602483015260448201869052915191909216916398fb40839160648083019260209291908290030181600087803b1580156131ad57600080fd5b505af11580156131c1573d6000803e3d6000fd5b505050506040513d60208110156131d757600080fd5b505060408051600160a060020a03851681526020810184905281517fb6fe70849dae7baad4fc16c027d5d308f91824b55bf0e2001ca02e11a6d670e4929181900390910190a150600192915050565b3360009081526020819052604090205460ff16151561324457600080fd5b600354604080517fb34ee906000000000000000000000000000000000000000000000000000000008152600160a060020a038681166004830152858116602483015284811660448301529151919092169163b34ee90691606480830192600092919082900301818387803b1580156132bb57600080fd5b505af11580156132cf573d6000803e3d6000fd5b50505050505050565b3360009081526020819052604090205460ff1615156132f657600080fd5b600354604080517fb4bfa478000000000000000000000000000000000000000000000000000000008152600160a060020a03878116600483015260248201879052858116604483015284811660648301529151919092169163b4bfa47891608480830192600092919082900301818387803b15801561337457600080fd5b505af1158015613388573d6000803e3d6000fd5b5050505050505050565b3360009081526020819052604081205460ff1615156133b057600080fd5b600354604080517fb8dbf876000000000000000000000000000000000000000000000000000000008152600160a060020a0387811660048301528681166024830152604482018690529151919092169163b8dbf8769160648083019260209291908290030181600087803b1580156126fd57600080fd5b600061343733878787878761570f565b50600195945050505050565b600354604080517fbb646bab000000000000000000000000000000000000000000000000000000008152600160a060020a03858116600483015284811660248301529151600093929092169163bb646bab9160448082019260209290919082900301818787803b15801561102957600080fd5b3360009081526020819052604090205460ff1615156134d457600080fd5b6119008282613ee0565b600254604080517fbd42b4db000000000000000000000000000000000000000000000000000000008152600160a060020a0384811660048301529151600093929092169163bd42b4db9160248082019260209290919082900301818787803b1580156110cf57600080fd5b3360009081526020819052604090205460ff16151561356757600080fd5b6003805473ffffffffffffffffffffffffffffffffffffffff1916600160a060020a0392909216919091179055565b600254604080517faf5af68f000000000000000000000000000000000000000000000000000000008152336004820152602481018490529051600160a060020a039092169163af5af68f9160448082019260009290919082900301818387803b158015610e2757600080fd5b600061360e3383615bff565b50600192915050565b3360009081526020819052604081205460ff16151561363557600080fd5b61363f8383615bff565b5060019392505050565b600254604080517f85f4b113000000000000000000000000000000000000000000000000000000008152336004820152600160a060020a038581166024830152604482018590526000606483018190529251929316916385f4b1139160848082019260209290919082900301818787803b15801561102957600080fd5b3360009081526020819052604081205460ff1615156136e457600080fd5b6134378686868686613888565b600160a060020a031660009081526020819052604090205460ff1690565b600354604080517ff2d638260000000000000000000000000000000000000000000000000000000081529051600092600160a060020a03169163f2d6382691600480830192602092919082900301818787803b15801561167a57600080fd5b3360009081526020819052604081205460ff16151561378c57600080fd5b600354604080517ff3fef3a3000000000000000000000000000000000000000000000000000000008152600160a060020a038681166004830152602482018690529151919092169163f3fef3a39160448083019260209291908290030181600087803b15801561102957600080fd5b3360009081526020819052604090205460ff16151561381957600080fd5b610ee181615d94565b3360009081526020819052604090205460ff16151561384057600080fd5b6132cf87878787878787614adb565b3360009081526020819052604081205460ff16151561386d57600080fd5b61387b87878787878761570f565b5060019695505050505050565b600354604080517f5cdcaadd000000000000000000000000000000000000000000000000000000008152600160a060020a03878116600483015291516000939290921691635cdcaadd9160248082019260209290919082900301818787803b1580156138f357600080fd5b505af1158015613907573d6000803e3d6000fd5b505050506040513d602081101561391d57600080fd5b5051604080517f436bbf3300000000000000000000000000000000000000000000000000000000815290519192508591600160a060020a0388169163436bbf339160048083019260209291908290030181600087803b15801561397f57600080fd5b505af1158015613993573d6000803e3d6000fd5b505050506040513d60208110156139a957600080fd5b505111156139b657600080fd5b84600160a060020a031663dbb2205c6040518163ffffffff1660e060020a028152600401602060405180830381600087803b1580156139f457600080fd5b505af1158015613a08573d6000803e3d6000fd5b505050506040513d6020811015613a1e57600080fd5b505115613a2a57600080fd5b8385600160a060020a0316639eab2b396040518163ffffffff1660e060020a028152600401602060405180830381600087803b158015613a6957600080fd5b505af1158015613a7d573d6000803e3d6000fd5b505050506040513d6020811015613a9357600080fd5b50511015613aa057600080fd5b6004805460408051600080516020615e288339815191528152600160a060020a038a811694820194909452905192909116916360e21e7c916024808201926020929091908290030181600087803b158015613afa57600080fd5b505af1158015613b0e573d6000803e3d6000fd5b505050506040513d6020811015613b2457600080fd5b50511515613b3157600080fd5b60048054604080517ff9674c3d000000000000000000000000000000000000000000000000000000008152600160a060020a03898116948201949094529051929091169163f9674c3d916024808201926020929091908290030181600087803b158015613b9d57600080fd5b505af1158015613bb1573d6000803e3d6000fd5b505050506040513d6020811015613bc757600080fd5b50511515613bd457600080fd5b80158015613c7b5750600254604080517f2df840f4000000000000000000000000000000000000000000000000000000008152600160a060020a038881166004830152898116602483015291519190921691632df840f49160448083019260209291908290030181600087803b158015613c4d57600080fd5b505af1158015613c61573d6000803e3d6000fd5b505050506040513d6020811015613c7757600080fd5b5051155b1515613c8657600080fd5b600254604080517f2df840f4000000000000000000000000000000000000000000000000000000008152600160a060020a038881166004830152898116602483015291519190921691632df840f49160448083019260209291908290030181600087803b158015613cf657600080fd5b505af1158015613d0a573d6000803e3d6000fd5b505050506040513d6020811015613d2057600080fd5b505115613d2c57600080fd5b613d368286610fb6565b1515613d4157600080fd5b600254604080517fb027ae8d000000000000000000000000000000000000000000000000000000008152600160a060020a0388811660048301528981166024830152604482018790529151919092169163b027ae8d9160648083019260209291908290030181600087803b158015613db857600080fd5b505af1158015613dcc573d6000803e3d6000fd5b505050506040513d6020811015613de257600080fd5b5050600254604080517f98fb4083000000000000000000000000000000000000000000000000000000008152600160a060020a038881166004830152898116602483015260448201889052915191909216916398fb40839160648083019260209291908290030181600087803b158015613e5b57600080fd5b505af1158015613e6f573d6000803e3d6000fd5b505050506040513d6020811015613e8557600080fd5b505060408051600160a060020a038089168252871660208201528082018690526060810185905290517ffa48562167fff9476ad3bcdaa8c0e01138209907b6896ffe728f52338aee10c29181900360800190a1505050505050565b600254604080517f058586bc000000000000000000000000000000000000000000000000000000008152600160a060020a038481166004830152858116602483015291516000938493849391169163058586bc9160448082019260209290919082900301818787803b158015613f5557600080fd5b505af1158015613f69573d6000803e3d6000fd5b505050506040513d6020811015613f7f57600080fd5b5051600354604080517fdef1b933000000000000000000000000000000000000000000000000000000008152600160a060020a03898116600483015260248201859052888116604483015260806064830152600a60848301527f43414e43454c5f4249440000000000000000000000000000000000000000000060a4830152915193945091169163def1b9339160c4808201926020929091908290030181600087803b15801561402e57600080fd5b505af1158015614042573d6000803e3d6000fd5b505050506040513d602081101561405857600080fd5b5050600354604080517f7648b9d8000000000000000000000000000000000000000000000000000000008152600481018490529051600160a060020a0390921691637648b9d8916024808201926020929091908290030181600087803b1580156140c157600080fd5b505af11580156140d5573d6000803e3d6000fd5b505050506040513d60208110156140eb57600080fd5b5050600254604080517f41be76d5000000000000000000000000000000000000000000000000000000008152600160a060020a038781166004830152888116602483015260006044830181905292519316926341be76d592606480840193602093929083900390910190829087803b15801561416657600080fd5b505af115801561417a573d6000803e3d6000fd5b505050506040513d602081101561419057600080fd5b5050600254604080517fdd173611000000000000000000000000000000000000000000000000000000008152600160a060020a0387811660048301528881166024830152600060448301819052925193169263dd17361192606480840193602093929083900390910190829087803b15801561420b57600080fd5b505af115801561421f573d6000803e3d6000fd5b505050506040513d602081101561423557600080fd5b5050600254604080517f9e561cec000000000000000000000000000000000000000000000000000000008152600160a060020a03878116600483015288811660248301526000604483018190529251931692639e561cec92606480840193602093929083900390910190829087803b1580156142b057600080fd5b505af11580156142c4573d6000803e3d6000fd5b505050506040513d60208110156142da57600080fd5b505060408051600160a060020a0380881682528616602082015281517ff13f0d4878de97ff1b4fbedd3abf28b2660aafcafa494377a058572a553ae180929181900390910190a160035460408051600080516020615e088339815191528152600160a060020a038881166004830152915160019392909216916370a08231916024808201926020929091908290030181600087803b15801561437b57600080fd5b505af115801561438f573d6000803e3d6000fd5b505050506040513d60208110156143a557600080fd5b505190969095509350505050565b6000808486600160a060020a031663436bbf336040518163ffffffff1660e060020a028152600401602060405180830381600087803b1580156143f557600080fd5b505af1158015614409573d6000803e3d6000fd5b505050506040513d602081101561441f57600080fd5b5051111561442c57600080fd5b8486600160a060020a0316639eab2b396040518163ffffffff1660e060020a028152600401602060405180830381600087803b15801561446b57600080fd5b505af115801561447f573d6000803e3d6000fd5b505050506040513d602081101561449557600080fd5b505110156144a257600080fd5b600254604080517f7642678b000000000000000000000000000000000000000000000000000000008152600160a060020a0389811660048301528a8116602483015291519190921691637642678b9160448083019260209291908290030181600087803b15801561451257600080fd5b505af1158015614526573d6000803e3d6000fd5b505050506040513d602081101561453c57600080fd5b50511561454857600080fd5b6145528387610fb6565b151561455d57600080fd5b6004805460408051600080516020615e288339815191528152600160a060020a038b811694820194909452905192909116916360e21e7c916024808201926020929091908290030181600087803b1580156145b757600080fd5b505af11580156145cb573d6000803e3d6000fd5b505050506040513d60208110156145e157600080fd5b505115156145ee57600080fd5b60048054604080517ff9674c3d000000000000000000000000000000000000000000000000000000008152600160a060020a038a8116948201949094529051929091169163f9674c3d916024808201926020929091908290030181600087803b15801561465a57600080fd5b505af115801561466e573d6000803e3d6000fd5b505050506040513d602081101561468457600080fd5b5051151561469157600080fd5b6146a1858563ffffffff6151cc16565b600354604080517faaf428d6000000000000000000000000000000000000000000000000000000008152600160a060020a038b81166004830152602482018590528a8116604483015260806064830152600c60848301527f494e5445524e414c5f424944000000000000000000000000000000000000000060a4830152915193955091169163aaf428d69160c4808201926020929091908290030181600087803b15801561474e57600080fd5b505af1158015614762573d6000803e3d6000fd5b505050506040513d602081101561477857600080fd5b5050600354604080517fa67ca612000000000000000000000000000000000000000000000000000000008152600481018590529051600160a060020a039092169163a67ca612916024808201926020929091908290030181600087803b1580156147e157600080fd5b505af11580156147f5573d6000803e3d6000fd5b505050506040513d602081101561480b57600080fd5b5050600254604080517f41be76d5000000000000000000000000000000000000000000000000000000008152600160a060020a0389811660048301528a8116602483015260448201889052915191909216916341be76d59160648083019260209291908290030181600087803b15801561488457600080fd5b505af1158015614898573d6000803e3d6000fd5b505050506040513d60208110156148ae57600080fd5b5050600254604080517fdd173611000000000000000000000000000000000000000000000000000000008152600160a060020a0389811660048301528a81166024830152604482018990529151919092169163dd1736119160648083019260209291908290030181600087803b15801561492757600080fd5b505af115801561493b573d6000803e3d6000fd5b505050506040513d602081101561495157600080fd5b5050600254604080517f9e561cec000000000000000000000000000000000000000000000000000000008152600160a060020a0389811660048301528a811660248301526044820186905291519190921691639e561cec9160648083019260209291908290030181600087803b1580156149ca57600080fd5b505af11580156149de573d6000803e3d6000fd5b505050506040513d60208110156149f457600080fd5b505060035460408051600080516020615e088339815191528152600160a060020a038a81166004830152915191909216916370a082319160248083019260209291908290030181600087803b158015614a4c57600080fd5b505af1158015614a60573d6000803e3d6000fd5b505050506040513d6020811015614a7657600080fd5b505160408051338152600160a060020a0389166020820152808201889052606081018790526080810183905290519192507f23c31f8ed9ad472d2122170e55b87eff1ccb31b98537277b6a9b3f1df56d97b8919081900360a00190a150505050505050565b60048054604080517ff9674c3d000000000000000000000000000000000000000000000000000000008152600160a060020a038981169482019490945290516000939092169163f9674c3d9160248082019260209290919082900301818787803b158015614b4857600080fd5b505af1158015614b5c573d6000803e3d6000fd5b505050506040513d6020811015614b7257600080fd5b50511515614b7f57600080fd5b6004805460408051600080516020615e288339815191528152600160a060020a038c811694820194909452905192909116916360e21e7c916024808201926020929091908290030181600087803b158015614bd957600080fd5b505af1158015614bed573d6000803e3d6000fd5b505050506040513d6020811015614c0357600080fd5b50511515614c1057600080fd5b8386600160a060020a031663436bbf336040518163ffffffff1660e060020a028152600401602060405180830381600087803b158015614c4f57600080fd5b505af1158015614c63573d6000803e3d6000fd5b505050506040513d6020811015614c7957600080fd5b50511115614c8657600080fd5b8386600160a060020a0316639eab2b396040518163ffffffff1660e060020a028152600401602060405180830381600087803b158015614cc557600080fd5b505af1158015614cd9573d6000803e3d6000fd5b505050506040513d6020811015614cef57600080fd5b50511015614cfc57600080fd5b600254604080517fbd283e29000000000000000000000000000000000000000000000000000000008152600160a060020a038b811660048301528a81166024830152898116604483015267ffffffffffffffff891660648301526084820188905260a4820187905285811660c4830152825193169263bd283e299260e4808401939192918290030181600087803b158015614d9657600080fd5b505af1158015614daa573d6000803e3d6000fd5b505050506040513d6040811015614dc057600080fd5b505060035460408051600080516020615e088339815191528152600160a060020a038b81166004830152915191909216916370a082319160248083019260209291908290030181600087803b158015614e1857600080fd5b505af1158015614e2c573d6000803e3d6000fd5b505050506040513d6020811015614e4257600080fd5b505160408051600160a060020a03808c16825289166020820152808201879052606081018690526080810183905290519192507fa4104ed75ae25eeabe57733d26451698d5095182b0cb12eb336f2be5779e9cc7919081900360a00190a15050505050505050565b6000808411614eb857600080fd5b60008311614ec557600080fd5b60035460408051600080516020615e088339815191528152600160a060020a038881166004830152915191909216916370a082319160248083019260209291908290030181600087803b158015614f1b57600080fd5b505af1158015614f2f573d6000803e3d6000fd5b505050506040513d6020811015614f4557600080fd5b5051841115614f5357600080fd5b600354604080517faaf428d6000000000000000000000000000000000000000000000000000000008152600160a060020a0388811660048301526024820188905260006044830181905260806064840152601160848401527f4d4f525447414745455f4445504f53495400000000000000000000000000000060a4840152925193169263aaf428d69260c480840193602093929083900390910190829087803b158015614fff57600080fd5b505af1158015615013573d6000803e3d6000fd5b505050506040513d602081101561502957600080fd5b5050600354604080517fa67ca612000000000000000000000000000000000000000000000000000000008152600481018790529051600160a060020a039092169163a67ca612916024808201926020929091908290030181600087803b15801561509257600080fd5b505af11580156150a6573d6000803e3d6000fd5b505050506040513d60208110156150bc57600080fd5b5050600254604080517f23e5127c000000000000000000000000000000000000000000000000000000008152600160a060020a03888116600483015260248201889052915191909216916323e5127c91604480830192600092919082900301818387803b15801561512c57600080fd5b505af1158015615140573d6000803e3d6000fd5b505060408051600160a060020a03891681526020810188905280820187905290517f4b96a655cd87af3c9307f0cc5ceb3b6c617e2a7ff3c70486363eb814829b289a9350908190036060019150a1509392505050565b600160a060020a03811615156151ab57600080fd5b600160a060020a03166000908152602081905260409020805460ff19169055565b60008215156151dd57506000611058565b508181028183828115156151ed57fe5b041461105857fe5b60008282111561520157fe5b50900390565b3360009081526020819052604081205460ff16151561522557600080fd5b600254604080517f7642678b000000000000000000000000000000000000000000000000000000008152600160a060020a038a81166004830152898116602483015291519190921691637642678b9160448083019260209291908290030181600087803b15801561529557600080fd5b505af11580156152a9573d6000803e3d6000fd5b505050506040513d60208110156152bf57600080fd5b50511580156152ce5750600082115b156154e357600254604080517f9e561cec000000000000000000000000000000000000000000000000000000008152600160a060020a038a8116600483015289811660248301526000604483018190529251931692639e561cec92606480840193602093929083900390910190829087803b15801561534c57600080fd5b505af1158015615360573d6000803e3d6000fd5b505050506040513d602081101561537657600080fd5b5050600354604080517fdef1b933000000000000000000000000000000000000000000000000000000008152600160a060020a038981166004830152602482018690528a8116604483015260806064830152600560848301527f545241444500000000000000000000000000000000000000000000000000000060a48301529151919092169163def1b9339160c48083019260209291908290030181600087803b15801561542357600080fd5b505af1158015615437573d6000803e3d6000fd5b505050506040513d602081101561544d57600080fd5b5050600354604080517f7648b9d8000000000000000000000000000000000000000000000000000000008152600481018590529051600160a060020a0390921691637648b9d8916024808201926020929091908290030181600087803b1580156154b657600080fd5b505af11580156154ca573d6000803e3d6000fd5b505050506040513d60208110156154e057600080fd5b50505b600354604080517f31de7d15000000000000000000000000000000000000000000000000000000008152600160a060020a038a8116600483015288811660248301526044820187905260648201889052915191909216916331de7d1591608480830192600092919082900301818387803b15801561556057600080fd5b505af1158015615574573d6000803e3d6000fd5b5050600354604080517fa9d424e2000000000000000000000000000000000000000000000000000000008152600160a060020a038c811660048301528b8116602483015260448201899052606482018a9052915191909216935063a9d424e29250608480830192600092919082900301818387803b1580156155f557600080fd5b505af1158015615609573d6000803e3d6000fd5b5050600354604080517f5cdcaadd000000000000000000000000000000000000000000000000000000008152600160a060020a038c811660048301529151919092169350635cdcaadd925060248083019260209291908290030181600087803b15801561567557600080fd5b505af1158015615689573d6000803e3d6000fd5b505050506040513d602081101561569f57600080fd5b505160408051600160a060020a03808b168252808a166020830152881681830152606081018690526080810187905282151560a082015290519192507f84b5ae22e8b52687edc94b3e1f54ffb5210abc9bd3567d3a19941949e0eaa094919081900360c00190a150505050505050565b6004805460408051600080516020615e288339815191528152600160a060020a038a8116948201949094529051600093909216916360e21e7c9160248082019260209290919082900301818787803b15801561576a57600080fd5b505af115801561577e573d6000803e3d6000fd5b505050506040513d602081101561579457600080fd5b505115156157a157600080fd5b60048054604080517ff9674c3d000000000000000000000000000000000000000000000000000000008152600160a060020a03898116948201949094529051929091169163f9674c3d916024808201926020929091908290030181600087803b15801561580d57600080fd5b505af1158015615821573d6000803e3d6000fd5b505050506040513d602081101561583757600080fd5b5051151561584457600080fd5b84600160a060020a031663dbb2205c6040518163ffffffff1660e060020a028152600401602060405180830381600087803b15801561588257600080fd5b505af1158015615896573d6000803e3d6000fd5b505050506040513d60208110156158ac57600080fd5b5051156158b857600080fd5b8385600160a060020a031663436bbf336040518163ffffffff1660e060020a028152600401602060405180830381600087803b1580156158f757600080fd5b505af115801561590b573d6000803e3d6000fd5b505050506040513d602081101561592157600080fd5b5051111561592e57600080fd5b8385600160a060020a0316639eab2b396040518163ffffffff1660e060020a028152600401602060405180830381600087803b15801561596d57600080fd5b505af1158015615981573d6000803e3d6000fd5b505050506040513d602081101561599757600080fd5b505110156159a457600080fd5b600354604080517f5cdcaadd000000000000000000000000000000000000000000000000000000008152600160a060020a03888116600483015291519190921691635cdcaadd9160248083019260209291908290030181600087803b158015615a0c57600080fd5b505af1158015615a20573d6000803e3d6000fd5b505050506040513d6020811015615a3657600080fd5b505190508015615a4557600080fd5b600254604080517f2df840f4000000000000000000000000000000000000000000000000000000008152600160a060020a0388811660048301528a8116602483015291519190921691632df840f49160448083019260209291908290030181600087803b158015615ab557600080fd5b505af1158015615ac9573d6000803e3d6000fd5b505050506040513d6020811015615adf57600080fd5b505115615aeb57600080fd5b600254604080517fb3721886000000000000000000000000000000000000000000000000000000008152600160a060020a038a8116600483015289811660248301528881166044830152606482018890526084820187905285811660a48301529151919092169163b37218869160c48083019260209291908290030181600087803b158015615b7957600080fd5b505af1158015615b8d573d6000803e3d6000fd5b505050506040513d6020811015615ba357600080fd5b505060408051600160a060020a03808a168252871660208201528082018690526060810185905290517fb57ec5a45154eaa83bade8c3a6f46e07960e3377567da78c6df9e67750219c899181900360800190a150505050505050565b600254604080517fb027ae8d000000000000000000000000000000000000000000000000000000008152600160a060020a038481166004830152858116602483015260006044830181905292519293169163b027ae8d9160648082019260209290919082900301818787803b158015615c7757600080fd5b505af1158015615c8b573d6000803e3d6000fd5b505050506040513d6020811015615ca157600080fd5b5050600254604080517f98fb4083000000000000000000000000000000000000000000000000000000008152600160a060020a038581166004830152868116602483015260006044830181905292519316926398fb408392606480840193602093929083900390910190829087803b158015615d1c57600080fd5b505af1158015615d30573d6000803e3d6000fd5b505050506040513d6020811015615d4657600080fd5b505060408051338152600160a060020a038416602082015281517fab1242bbbb301c58825a393df6d00ea75d659d54f2269e6e72aa6834504d0fb9929181900390910190a150600192915050565b600160a060020a0381161515615da957600080fd5b600154604051600160a060020a038084169216907f8be0079c531659141344cd1fd0a4f28419497f9722a3daafe3b4186f6b6457e090600090a3600160a060020a03166000908152602081905260409020805460ff19166001179055560070a082310000000000000000000000000000000000000000000000000000000060e21e7c00000000000000000000000000000000000000000000000000000000a165627a7a72305820505eeeb2e9e99432a50be9f3a9b7c5a6548649e6e977e1c45d88b42856cccd4e0029",
  "source": "pragma solidity ^0.4.24;\n\nimport \"openzeppelin-solidity/contracts/token/ERC20/StandardToken.sol\";\nimport \"openzeppelin-solidity/contracts/ownership/Ownable.sol\";\nimport 'openzeppelin-solidity/contracts/math/SafeMath.sol';\nimport \"./structures/Disposition.sol\";\nimport \"./interfaces/MortgageStoneInt.sol\";\nimport \"./interfaces/StoneCoinInt.sol\";\nimport \"./interfaces/CornerStoneBaseInt.sol\";\nimport \"./interfaces/DispositionInt.sol\";\nimport \"./interfaces/Ownables.sol\";\n\ncontract CornerStone  is Ownables{\n  using SafeMath for uint256;\n\n\n\n  event BidCreated(address user, address stoneCoinAddress, uint256 amount, uint256 limit_micros, uint256 available);\n  event BidMortgageCreated(address user, address stoneCoinAddress, uint256 amount, uint256 limit_micros, uint256 available);\n  event BidCancel(address user, address stoneCoinAddress);\n  event AskCreated(address user, address stoneCoinAddress, uint256 amount, uint256 limit_micros);\n  event AskMortgageCreated(address user, address stoneCoinAddress, uint256 amount, uint256 limit_micros);\n  event InitialAskCreated(address stoneCoinAddress, uint256 amount);\n  event AskCancel(address user, address stoneCoinAddress);\n  event Trade(address stoneCoinAddress, address buyer, address seller, uint256 amount, uint256 price, bool initi);\n  event TradeMortgaged(address stoneCoinAddress, address  buyer, address  seller,  uint256 amount, uint256 price);\n  event TotalAllocated(uint256 total);\n  event BuyerMortgageeInsufficientBalance();\n  event MortgageeAdded(address newMortgagee, uint256 microUSDs, uint256 maxMortgage);\n  event MortgageeAddFunds(address newMortgagee, uint256 microUSDs, uint256 maxMortgage);\n  event TradeMortgageCreated(uint64 key);\n  event MortgageDefaulted(address mortgageAddress, address buyer, address mortgagee, uint256 balance, uint256 value,  uint256 timestamp);\n  event StoneCoinCreated(address stoneCoin);\n  event MortgageCreated(address mortgage);\n  event MortgagePayment(address mortgageAddress, address buyer, address mortgagee, uint256 balance, uint256 value, uint256 timestamp);\n\n  address mortgageStoneAddress;\n  address baseStoneAddress;\n  address dispositionAddress;\n\n  constructor( ) public Ownables() {\n  }\n\n  function setDispositionAddress(address _dispositionAddress) public onlyOwner {\n    dispositionAddress = _dispositionAddress;\n  }\n\n  function setMortgageStoneAddress(address _mortgageStoneAddress) public onlyOwner {\n    mortgageStoneAddress = _mortgageStoneAddress;\n  }\n\n  function setBaseStoneAddress(address _baseStoneAddress) public onlyOwner {\n    baseStoneAddress = _baseStoneAddress;\n  }\n\n\n  function getBrokerManager() public view returns(address){\n    return  CornerStoneBaseInt(baseStoneAddress).getBrokerManager();\n  }\n\n  function getTransactionManager() public view returns(address){\n    return CornerStoneBaseInt(baseStoneAddress).getTransactionManager();\n  }\n\n  function setTransactionManager(address user)  public onlyOwner{\n    CornerStoneBaseInt(baseStoneAddress).setTransactionManager(user);\n  }\n\n  function addBroker(address user)  public onlyOwner{\n    CornerStoneBaseInt(baseStoneAddress).addBroker(user, 0);\n  }\n\n  function addTokenApproveRole(address user)  public onlyOwner{\n    CornerStoneBaseInt(baseStoneAddress).addTokenApproveRole(user);\n  }\n\n  function setBrokerFees(address user, uint256 firstDealRatio, uint256 otherDealRatio ,uint256 secondaryFee, address organization)  public onlyOwner{\n    CornerStoneBaseInt(baseStoneAddress).setBrokerFees(user, firstDealRatio, otherDealRatio, secondaryFee, organization);\n  }\n\n  function payBroker(address broker, uint256 payment, address organization, address stoneCoinAddress) public onlyOwner{\n    CornerStoneBaseInt(baseStoneAddress).payBroker(broker, payment, organization, stoneCoinAddress);\n  }\n  function addUserToBroker(address user, address broker, address organization)  public onlyOwner{\n    CornerStoneBaseInt(baseStoneAddress).addUserToBroker(user, broker, organization);\n  }\n\n  function getTradesHistory() public view returns(address){\n    return   CornerStoneBaseInt(baseStoneAddress).getTradesHistory();\n  }\n\n  function getFeeManager() public view returns(address){\n    return  CornerStoneBaseInt(baseStoneAddress).getFeeManager();\n  }\n\n  function addFeeManagerRole(address user)  public onlyOwner{\n    CornerStoneBaseInt(baseStoneAddress).addFeeManagerRole(user);\n  }\n\n  function balanceOf(address _user) public view returns (uint256) {\n    uint256 balance =  CornerStoneBaseInt(baseStoneAddress).balanceOf(_user);\n    return balance;\n  }\n\n  function getOwnerBalance() public view returns (uint256) {\n    return  CornerStoneBaseInt(baseStoneAddress).getOwnerBalance();\n  }\n\n  function getCornerBase() public view returns (address) {\n    return baseStoneAddress;\n  }\n\n  function getInitialSupply() public view returns(uint256) {\n    return CornerStoneBaseInt(baseStoneAddress).getInitialSupply();\n  }\n\n  function bidAmount(address stoneCoinAddress, address user) external view returns (uint256) {\n    return MortgageStoneInt(mortgageStoneAddress).bidAmount(stoneCoinAddress, user);\n  }\n  function askAmount(address stoneCoinAddress, address user) external view returns (uint256) {\n    return MortgageStoneInt(mortgageStoneAddress).askAmount(stoneCoinAddress, user);\n  }\n\n  function mortgageeBalanceOf(address _user) public view returns (uint256) {\n    return MortgageStoneInt(mortgageStoneAddress).mortgageeBalanceOf(_user);\n  }\n\n  function withdrawMortgageBalance(uint256 microUSDs) public  {\n    MortgageStoneInt(mortgageStoneAddress).withdrawMortgageBalance(msg.sender, microUSDs);\n  }\n\n  function deposit(address payee, uint256 amount) public onlyOwner returns(bool) {\n    return CornerStoneBaseInt(baseStoneAddress).deposit(payee, amount,0);\n  }\n  function depositProject(address payee, uint256 amount, address stoneCoinAddress) public onlyOwner returns(bool) {\n    return CornerStoneBaseInt(baseStoneAddress).deposit(payee, amount, stoneCoinAddress);\n  }\n\n  function withdrawApprove(address user, uint256 amount, address stoneCoinAddress) public onlyOwner returns(bool) {\n    return CornerStoneBaseInt(baseStoneAddress).withdrawApprove(user, amount, stoneCoinAddress);\n  }\n\n  function withdraw(address user, uint256 amount) public onlyOwner returns(bool) {\n    return CornerStoneBaseInt(baseStoneAddress).withdraw(user, amount);\n  }\n\n  //pay income\n  function payIncome(address stoneCoinAddress, uint256 micros) public onlyOwner returns(uint256 remaining){\n    return CornerStoneBaseInt(baseStoneAddress).payIncome(stoneCoinAddress, micros);\n  }\n\n  function setUserDispositionState(address user, bool state) public onlyOwner{\n    DispositionInt(dispositionAddress).setUserDisposition(user, state);\n  }\n\n\n  function setProjectDispositionState(address project, bool state) public onlyOwner{\n    DispositionInt(dispositionAddress).setProjectDisposition(project, state);\n  }\n\n  function getTotalAllocated(address stoneCoinAddress) public view returns (uint256) {\n    return CornerStoneBaseInt(baseStoneAddress).getTotalAllocated(stoneCoinAddress);\n  }\n\n  function getUserHoldings(address stoneCoinAddress, address user) public view returns (uint256) {\n    return CornerStoneBaseInt(baseStoneAddress).getUserHoldings(stoneCoinAddress, user);\n  }\n\n  function addMortgageOperatorRole(address user) public onlyOwner {\n    return CornerStoneBaseInt(baseStoneAddress).addMortgageOperatorRole(user);\n  }\nfunction addMortgageFinanceRole(address user) public onlyOwner {\n    return CornerStoneBaseInt(baseStoneAddress).addMortgageFinanceRole(user);\n  }\n\n  //StoneCoin project sold\n  function closeStoneCoin(address stoneCoinAddress, uint256 micros) public onlyOwner {\n    return CornerStoneBaseInt(baseStoneAddress).closeStoneCoin(stoneCoinAddress, micros);\n  }\n\n  function transferFromOwner( address stoneCoinAddress, address to, uint256 amount) public onlyOwner returns(bool) {\n    return CornerStoneBaseInt(baseStoneAddress).transferFromOwner(stoneCoinAddress, to, amount);\n  }\n\n  function bid(address stoneCoinAddress, uint256 amount, uint256 limit_micros, address signDocument) public returns(bool successeded, uint256 available) {\n    internalBid(msg.sender, stoneCoinAddress, amount, limit_micros, signDocument);\n    uint256 bidderBalance = CornerStoneBaseInt(baseStoneAddress).balanceOf(msg.sender);\n    return (true, bidderBalance);\n  }\n\n  function bidAdmin(address user, address stoneCoinAddress, uint256 amount, uint256 limit_micros, address signDocument) public onlyOwner  {\n    internalBid(user, stoneCoinAddress, amount, limit_micros, signDocument);\n  }\n\n  function reservedBid(address stoneCoinAddress) public  {\n    CornerStoneBaseInt(baseStoneAddress).reserveBid(msg.sender, stoneCoinAddress);\n  }\n  function reservedBidLost(address user, address stoneCoinAddress) public onlyOwner {\n    CornerStoneBaseInt(baseStoneAddress).reservedBidLost(user, stoneCoinAddress);\n  }\n\n  function cancelReserveBid(address stoneCoinAddress) public  {\n    CornerStoneBaseInt(baseStoneAddress).cancelReserveBid(msg.sender, stoneCoinAddress);\n  }\n\n  function getReserveBid(address _stoneCoinAddress) public view returns (uint256){\n    return  CornerStoneBaseInt(baseStoneAddress).getReserveBid(msg.sender, _stoneCoinAddress);\n  }\n\n  function internalBid(address user, address stoneCoinAddress, uint256 amount, uint256 limit_micros, address signDocument) private{\n    require(StoneCoinInt(stoneCoinAddress).getMinBulkSize() <= amount);\n    require(StoneCoinInt(stoneCoinAddress).getMaxBulkSize() >= amount);\n    require(MortgageStoneInt(mortgageStoneAddress).bidAmount(stoneCoinAddress, user) == 0);\n    require(checkSignature(signDocument,stoneCoinAddress));\n    require(DispositionInt(dispositionAddress).checkUserDisposition(user));\n    require(DispositionInt(dispositionAddress).checkProjectDisposition(stoneCoinAddress));\n    uint256 value = amount.mul(limit_micros);\n\n    // hold funds been bid\n    CornerStoneBaseInt(baseStoneAddress).subBalance(user, value, stoneCoinAddress,\"INTERNAL_BID\");\n    CornerStoneBaseInt(baseStoneAddress).addOwnerBalance( value);\n\n    MortgageStoneInt(mortgageStoneAddress).setBidLimit(stoneCoinAddress,user, limit_micros);\n    MortgageStoneInt(mortgageStoneAddress).setBidAmount(stoneCoinAddress, user ,amount);\n    MortgageStoneInt(mortgageStoneAddress).setBidValueHold(stoneCoinAddress,user, value);\n    uint256 bidderBalance = CornerStoneBaseInt(baseStoneAddress).balanceOf(user);\n    emit BidCreated(msg.sender, stoneCoinAddress, amount, limit_micros, bidderBalance);\n  }\n\n  function checkSignature(address signDocument, address stoneCoinAddress) public returns (bool){\n    return CornerStoneBaseInt(baseStoneAddress).checkSignature(signDocument, stoneCoinAddress);\n  }\n\n  function bidCancel(address stoneCoinAddress) public  {\n    bidCancelInternal(msg.sender, stoneCoinAddress);\n  }\n\n  function bidCancelAdmin(address user, address stoneCoinAddress) public onlyOwner  {\n    bidCancelInternal(user, stoneCoinAddress);\n  }\n\n  function bidCancelInternal(address user, address stoneCoinAddress) private returns(bool successeded, uint256 available) {\n    // add back funds been in bid\n    uint256 valueHold = MortgageStoneInt(mortgageStoneAddress).bidValueHold(stoneCoinAddress, user);\n    CornerStoneBaseInt(baseStoneAddress).addBalance(user, valueHold, stoneCoinAddress,\"CANCEL_BID\");\n    CornerStoneBaseInt(baseStoneAddress).subOwnerBalance( valueHold);\n\n    MortgageStoneInt(mortgageStoneAddress).setBidLimit(stoneCoinAddress,user, 0);\n    MortgageStoneInt(mortgageStoneAddress).setBidAmount(stoneCoinAddress, user,0);\n    MortgageStoneInt(mortgageStoneAddress).setBidValueHold(stoneCoinAddress,user, 0);\n    emit BidCancel(user, stoneCoinAddress);\n    return (true, CornerStoneBaseInt(baseStoneAddress).balanceOf(user));\n  }\n\n  function initialAsk(address stoneCoinAddress, uint256 amount) public onlyOwner returns(bool) {\n\n    MortgageStoneInt(mortgageStoneAddress).setAskLimit(stoneCoinAddress,msg.sender, 1000000);\n    MortgageStoneInt(mortgageStoneAddress).setAskAmount(stoneCoinAddress,msg.sender, amount);\n    emit InitialAskCreated(stoneCoinAddress, amount);\n    return true;\n  }\n  function initialAskAdmin(address adminUser, address stoneCoinAddress, uint256 amount) public onlyOwner returns(bool) {\n\n    MortgageStoneInt(mortgageStoneAddress).setAskLimit(stoneCoinAddress,adminUser, 1000000);\n    MortgageStoneInt(mortgageStoneAddress).setAskAmount(stoneCoinAddress,adminUser, amount);\n    emit InitialAskCreated(stoneCoinAddress, amount);\n    return true;\n  }\n\n  function ask(address stoneCoinAddress, uint256 amount, uint256 limit_micros, address signDocument) public returns(bool) {\n    internalAsk(msg.sender, stoneCoinAddress, amount, limit_micros, signDocument);\n    return true;\n  }\n\n  function askAdmin(address user, address stoneCoinAddress, uint256 amount, uint256 limit_micros, address signDocument) public onlyOwner returns(bool)  {\n    internalAsk(user, stoneCoinAddress, amount, limit_micros, signDocument);\n    return true;\n  }\n\n  function internalAsk(address user, address stoneCoinAddress , uint256 amount, uint256 limit_micros, address signDocument) private{\n    bool isInitialize = CornerStoneBaseInt(baseStoneAddress).isInitialOffering(stoneCoinAddress);\n    require(StoneCoinInt(stoneCoinAddress).getMinBulkSize() <= amount);\n    require(StoneCoinInt(stoneCoinAddress).getOwnerTokens() == 0);\n    require(StoneCoinInt(stoneCoinAddress).getMaxBulkSize() >= amount);\n    require(DispositionInt(dispositionAddress).checkUserDisposition(user));\n    require(DispositionInt(dispositionAddress).checkProjectDisposition(stoneCoinAddress));\n    require( !isInitialize && MortgageStoneInt(mortgageStoneAddress).askAmount(stoneCoinAddress, user) == 0);\n    require(MortgageStoneInt(mortgageStoneAddress).askAmount(stoneCoinAddress, user) == 0);\n    require(checkSignature(signDocument,stoneCoinAddress));\n    MortgageStoneInt(mortgageStoneAddress).setAskLimit(stoneCoinAddress,user, limit_micros);\n    MortgageStoneInt(mortgageStoneAddress).setAskAmount(stoneCoinAddress,user, amount);\n    emit AskCreated(user, stoneCoinAddress, amount, limit_micros);\n  }\n\n  function askCancelAdmin(address user, address stoneCoinAddress) public onlyOwner returns(bool) {\n    askCancelInternal(user, stoneCoinAddress);\n    return true;\n  }\n  function askCancel(address stoneCoinAddress) public returns(bool) {\n    askCancelInternal(msg.sender, stoneCoinAddress);\n    return true;\n  }\n  function  askCancelInternal(address user, address stoneCoinAddress) private returns(bool) {\n    MortgageStoneInt(mortgageStoneAddress).setAskLimit(stoneCoinAddress,user, 0);\n    MortgageStoneInt(mortgageStoneAddress).setAskAmount(stoneCoinAddress,user, 0);\n    emit AskCancel(msg.sender, stoneCoinAddress);\n    return true;\n  }\n\n  function trade( address stoneCoinAddress,\n                  address buyer,\n                  address seller,\n                  uint256 amount,\n                  uint256 price, address taxes) public onlyOwner returns(bool) {\n    require(DispositionInt(dispositionAddress).checkUserDisposition(buyer));\n    require(DispositionInt(dispositionAddress).checkUserDisposition(seller));\n    require(DispositionInt(dispositionAddress).checkProjectDisposition(stoneCoinAddress));\n\n   uint256 askTradeAmount = MortgageStoneInt(mortgageStoneAddress).askAmount(stoneCoinAddress, seller);\n    uint256 valuePayed = amount.mul(price);\n    uint256 tradeBidAmount = MortgageStoneInt(mortgageStoneAddress).bidAmount(stoneCoinAddress, buyer);\n    require(tradeBidAmount >= amount);\n    require(askTradeAmount >= amount);\n    uint256 valueHold = MortgageStoneInt(mortgageStoneAddress).bidValueHold(stoneCoinAddress, buyer);\n    require(valueHold >= valuePayed);\n    CornerStoneBaseInt(baseStoneAddress).addBalance(seller, valuePayed, stoneCoinAddress,\"TRADE\");\n    MortgageStoneInt(mortgageStoneAddress).setBidValueHold( stoneCoinAddress, buyer, valueHold.sub(valuePayed));\n    uint256 remainingValueHold = MortgageStoneInt(mortgageStoneAddress).bidValueHold(stoneCoinAddress, buyer);\n\n    CornerStoneBaseInt(baseStoneAddress).subOwnerBalance( valuePayed);\n\n    MortgageStoneInt(mortgageStoneAddress).setAskAmount(stoneCoinAddress,seller, askTradeAmount.sub(amount));\n    MortgageStoneInt(mortgageStoneAddress).setBidAmount(stoneCoinAddress,buyer, tradeBidAmount.sub(amount));\n    require(MortgageStoneInt(mortgageStoneAddress).bidAmount(stoneCoinAddress, buyer) >= 0);\n    doTrade(stoneCoinAddress, buyer, seller, price, amount, remainingValueHold);\n    CornerStoneBaseInt(baseStoneAddress).calculateTax( taxes,  buyer, seller );\n    return true;\n  }\n\n  function doTrade(address stoneCoinAddress, address buyer, address seller, uint256 price, uint256 amount ,uint256 remainingValueHold) private onlyOwner{\n\n        if( MortgageStoneInt(mortgageStoneAddress).bidAmount(stoneCoinAddress, buyer) == 0 && remainingValueHold > 0){\n          //bid ended and user hold more then buy value.\n          MortgageStoneInt(mortgageStoneAddress).setBidValueHold(stoneCoinAddress,buyer, 0);\n          CornerStoneBaseInt(baseStoneAddress).addBalance(buyer, remainingValueHold, stoneCoinAddress,\"TRADE\");\n          CornerStoneBaseInt(baseStoneAddress).subOwnerBalance(remainingValueHold);\n        }\n\n        CornerStoneBaseInt(baseStoneAddress).sell(stoneCoinAddress, seller, amount, price);\n        CornerStoneBaseInt(baseStoneAddress).buy(stoneCoinAddress, buyer, amount, price);\n        bool isInitialize =  CornerStoneBaseInt(baseStoneAddress).isInitialOffering(stoneCoinAddress);\n        emit Trade(stoneCoinAddress, buyer, seller, amount, price, isInitialize);\n\n  }\n\n  function addMortgegee(uint256 microUSDs, uint256 maxMortgage, address newMortgagee ) public returns(address){\n    return addMortgegeeInternal(msg.sender, microUSDs, maxMortgage, newMortgagee);\n  }\n\n  function addMortgegeeAdmin(address user, uint256 microUSDs, uint256 maxMortgage, address newMortgagee ) public onlyOwner returns(address){\n    return addMortgegeeInternal(user, microUSDs, maxMortgage, newMortgagee);\n  }\n\n  function addMortgegeeInternal(address user, uint256 microUSDs, uint256 maxMortgage, address newMortgagee ) private returns(address){\n    require(microUSDs > 0);\n    require(maxMortgage > 0);\n    require(microUSDs <=  CornerStoneBaseInt(baseStoneAddress).balanceOf(user));\n    CornerStoneBaseInt(baseStoneAddress).subBalance(user, microUSDs, 0,\"MORTGAGEE_DEPOSIT\");\n    CornerStoneBaseInt(baseStoneAddress).addOwnerBalance( microUSDs);\n    MortgageStoneInt(mortgageStoneAddress).addMortgageBalance(user, microUSDs);\n    emit MortgageeAdded(user, microUSDs, maxMortgage);\n    return address(newMortgagee);\n  }\n\n  function mortgagePayment(address mortgageAddress, uint marketPriceMills) public returns(uint256){\n    return MortgageStoneInt(mortgageStoneAddress).mortgagePayment(msg.sender, mortgageAddress, marketPriceMills, 0);\n  }\n  function trustedMortgagePayment(address mortgageAddress, uint marketPriceMills, uint256 paymentInMills) public returns(uint256){\n    return MortgageStoneInt(mortgageStoneAddress).mortgagePayment(msg.sender, mortgageAddress, marketPriceMills, paymentInMills);\n  }\n\n  function clearAllMortgage(address mortgageAddress) public returns(uint256){\n    return MortgageStoneInt(mortgageStoneAddress).clearAllMortgage(msg.sender, mortgageAddress);\n  }\n\n  function bidMortgaged(address mortgageRequestAddress, address stoneCoinAddress, uint64 downPaymentMicros, uint256 amount, uint256 limit_micros , address signDocument) public returns(bool successeded, uint256 available) {\n    bidMortgagedInternal(msg.sender, mortgageRequestAddress, stoneCoinAddress, downPaymentMicros, amount, limit_micros, signDocument);\n    uint256 senderBalance =  CornerStoneBaseInt(baseStoneAddress).balanceOf(msg.sender);\n    return (true, senderBalance);\n  }\n\n  function bidMortgagedAdmin(address user,address mortgageRequestAddress, address stoneCoinAddress, uint64 downPaymentMicros, uint256 amount, uint256 limit_micros , address signDocument) public onlyOwner {\n    bidMortgagedInternal(user, mortgageRequestAddress, stoneCoinAddress, downPaymentMicros, amount, limit_micros, signDocument);\n  }\n\n  function bidMortgagedInternal(address user, address mortgageRequestAddress, address stoneCoinAddress, uint64 downPaymentMicros, uint256 amount, uint256 limit_micros , address signDocument) private{\n    require(DispositionInt(dispositionAddress).checkProjectDisposition(stoneCoinAddress));\n    require(DispositionInt(dispositionAddress).checkUserDisposition(user));\n    require(StoneCoinInt(stoneCoinAddress).getMinBulkSize() <= amount);\n    require(StoneCoinInt(stoneCoinAddress).getMaxBulkSize() >= amount);\n    MortgageStoneInt(mortgageStoneAddress).bidMortgaged(user, mortgageRequestAddress, stoneCoinAddress, downPaymentMicros, amount , limit_micros, signDocument);\n    uint256 senderBalance =  CornerStoneBaseInt(baseStoneAddress).balanceOf(user);\n    emit BidMortgageCreated(user, stoneCoinAddress, amount, limit_micros, senderBalance);\n  }\n\n  function askMortgaged(address mortgageAddress, address stoneCoinAddress, uint256 amount, uint256 limit_micros, address signDocument) public returns(bool) {\n    askMortgagedInternal(msg.sender, mortgageAddress,stoneCoinAddress, amount, limit_micros, signDocument );\n    return true;\n  }\n\n  function askMortgagedAdmin(address user, address mortgageAddress, address stoneCoinAddress, uint256 amount, uint256 limit_micros, address signDocument) public onlyOwner returns(bool) {\n    askMortgagedInternal(user, mortgageAddress,stoneCoinAddress, amount, limit_micros, signDocument );\n    return true;\n  }\n\n  function askMortgagedInternal(address user, address mortgageAddress, address stoneCoinAddress, uint256 amount, uint256 limit_micros, address signDocument) private  {\n    require(DispositionInt(dispositionAddress).checkUserDisposition(user));\n    require(DispositionInt(dispositionAddress).checkProjectDisposition(stoneCoinAddress));\n    require(StoneCoinInt(stoneCoinAddress).getOwnerTokens() == 0);\n    require(StoneCoinInt(stoneCoinAddress).getMinBulkSize() <= amount);\n    require(StoneCoinInt(stoneCoinAddress).getMaxBulkSize() >= amount);\n    bool isInitialOffering =  CornerStoneBaseInt(baseStoneAddress).isInitialOffering(stoneCoinAddress);\n    require(!isInitialOffering);\n    require(MortgageStoneInt(mortgageStoneAddress).askAmount(stoneCoinAddress, user) == 0);\n    MortgageStoneInt(mortgageStoneAddress).askMortgaged(user, mortgageAddress, stoneCoinAddress, amount, limit_micros, signDocument);\n    emit AskMortgageCreated(user, stoneCoinAddress, amount, limit_micros);\n  }\n\n  function createTradeMortgage( uint64 key,\n                                address _stoneCoinAddress,\n                                address _buyer,\n                                address _seller,\n                                address _buyerMortgage,\n                                address _sellerMortgage,\n                                uint256 _amount,\n                                uint256 _price, address taxes) public onlyOwner {\n\n    require(DispositionInt(dispositionAddress).checkUserDisposition(_buyer));\n    require(DispositionInt(dispositionAddress).checkUserDisposition(_seller));\n    require(DispositionInt(dispositionAddress).checkProjectDisposition(_stoneCoinAddress));\n    MortgageStoneInt(mortgageStoneAddress).createTradeMortgage(key, _stoneCoinAddress, _buyer, _seller, _buyerMortgage, _sellerMortgage, _amount, _price);\n    MortgageStoneInt(mortgageStoneAddress).tradeMortgaged(key);\n    CornerStoneBaseInt(baseStoneAddress).calculateTax( taxes,  _buyer, _seller);\n\n   emit TradeMortgageCreated(key);\n  }\n\n  function applyMortgageClearance(address mortgageAddress) public onlyOwner{\n      MortgageStoneInt(mortgageStoneAddress).applyMortgageClearance(mortgageAddress);\n  }\n\n\n\n}\n",
  "sourcePath": "/Users/roilandshut/projects/brikoin/brikoin/contracts/CornerStone.sol",
  "compiler": {
    "name": "solc",
    "version": "0.4.24+commit.e67f0147.Emscripten.clang"
  },
  "schemaVersion": "2.0.1",
  "updatedAt": "2019-10-27T14:12:10.862Z"
}