{
  "contractName": "CornerTransaction",
  "abi": [
    {
      "constant": true,
      "inputs": [
        {
          "name": "",
          "type": "address"
        }
      ],
      "name": "owners",
      "outputs": [
        {
          "name": "",
          "type": "bool"
        }
      ],
      "payable": false,
      "stateMutability": "view",
      "type": "function"
    },
    {
      "constant": false,
      "inputs": [
        {
          "name": "_newOwner",
          "type": "address"
        }
      ],
      "name": "setOwner",
      "outputs": [],
      "payable": false,
      "stateMutability": "nonpayable",
      "type": "function"
    },
    {
      "constant": true,
      "inputs": [
        {
          "name": "",
          "type": "address"
        }
      ],
      "name": "transactionsManager",
      "outputs": [
        {
          "name": "",
          "type": "bool"
        }
      ],
      "payable": false,
      "stateMutability": "view",
      "type": "function"
    },
    {
      "constant": true,
      "inputs": [
        {
          "name": "",
          "type": "address"
        },
        {
          "name": "",
          "type": "uint256"
        }
      ],
      "name": "userToTransactions",
      "outputs": [
        {
          "name": "time",
          "type": "uint256"
        },
        {
          "name": "add",
          "type": "bool"
        },
        {
          "name": "transaction",
          "type": "uint256"
        },
        {
          "name": "stoneCoinAddress",
          "type": "address"
        },
        {
          "name": "codeDescription",
          "type": "string"
        }
      ],
      "payable": false,
      "stateMutability": "view",
      "type": "function"
    },
    {
      "constant": true,
      "inputs": [],
      "name": "getAddress",
      "outputs": [
        {
          "name": "",
          "type": "address"
        }
      ],
      "payable": false,
      "stateMutability": "view",
      "type": "function"
    },
    {
      "constant": false,
      "inputs": [
        {
          "name": "_newOwner",
          "type": "address"
        }
      ],
      "name": "removeOwnership",
      "outputs": [],
      "payable": false,
      "stateMutability": "nonpayable",
      "type": "function"
    },
    {
      "constant": true,
      "inputs": [
        {
          "name": "",
          "type": "address"
        },
        {
          "name": "",
          "type": "address"
        }
      ],
      "name": "notFirstTransaction",
      "outputs": [
        {
          "name": "",
          "type": "bool"
        }
      ],
      "payable": false,
      "stateMutability": "view",
      "type": "function"
    },
    {
      "constant": true,
      "inputs": [],
      "name": "owner",
      "outputs": [
        {
          "name": "",
          "type": "address"
        }
      ],
      "payable": false,
      "stateMutability": "view",
      "type": "function"
    },
    {
      "constant": true,
      "inputs": [
        {
          "name": "user",
          "type": "address"
        }
      ],
      "name": "isOwnable",
      "outputs": [
        {
          "name": "",
          "type": "bool"
        }
      ],
      "payable": false,
      "stateMutability": "view",
      "type": "function"
    },
    {
      "constant": false,
      "inputs": [
        {
          "name": "_newOwner",
          "type": "address"
        }
      ],
      "name": "addOwnership",
      "outputs": [],
      "payable": false,
      "stateMutability": "nonpayable",
      "type": "function"
    },
    {
      "inputs": [],
      "payable": false,
      "stateMutability": "nonpayable",
      "type": "constructor"
    },
    {
      "anonymous": false,
      "inputs": [
        {
          "indexed": true,
          "name": "previousOwner",
          "type": "address"
        }
      ],
      "name": "OwnershipRenounced",
      "type": "event"
    },
    {
      "anonymous": false,
      "inputs": [
        {
          "indexed": true,
          "name": "previousOwner",
          "type": "address"
        },
        {
          "indexed": true,
          "name": "newOwner",
          "type": "address"
        }
      ],
      "name": "OwnershipTransferred",
      "type": "event"
    },
    {
      "constant": false,
      "inputs": [
        {
          "name": "user",
          "type": "address"
        },
        {
          "name": "add",
          "type": "bool"
        },
        {
          "name": "transaction",
          "type": "uint256"
        },
        {
          "name": "stoneCoinAddress",
          "type": "address"
        },
        {
          "name": "codeDescription",
          "type": "string"
        }
      ],
      "name": "addTransaction",
      "outputs": [],
      "payable": false,
      "stateMutability": "nonpayable",
      "type": "function"
    },
    {
      "constant": false,
      "inputs": [
        {
          "name": "user",
          "type": "address"
        }
      ],
      "name": "setTransactionManager",
      "outputs": [],
      "payable": false,
      "stateMutability": "nonpayable",
      "type": "function"
    },
    {
      "constant": true,
      "inputs": [
        {
          "name": "user",
          "type": "address"
        }
      ],
      "name": "getTransactionsLength",
      "outputs": [
        {
          "name": "",
          "type": "uint256"
        }
      ],
      "payable": false,
      "stateMutability": "view",
      "type": "function"
    },
    {
      "constant": true,
      "inputs": [
        {
          "name": "user",
          "type": "address"
        },
        {
          "name": "index",
          "type": "uint256"
        }
      ],
      "name": "getTransactionsTime",
      "outputs": [
        {
          "name": "",
          "type": "uint256"
        }
      ],
      "payable": false,
      "stateMutability": "view",
      "type": "function"
    },
    {
      "constant": true,
      "inputs": [
        {
          "name": "user",
          "type": "address"
        },
        {
          "name": "index",
          "type": "uint256"
        }
      ],
      "name": "getTransaction",
      "outputs": [
        {
          "name": "",
          "type": "uint256"
        }
      ],
      "payable": false,
      "stateMutability": "view",
      "type": "function"
    },
    {
      "constant": true,
      "inputs": [
        {
          "name": "user",
          "type": "address"
        },
        {
          "name": "index",
          "type": "uint256"
        }
      ],
      "name": "getTransactionDescription",
      "outputs": [
        {
          "name": "",
          "type": "string"
        }
      ],
      "payable": false,
      "stateMutability": "view",
      "type": "function"
    },
    {
      "constant": true,
      "inputs": [
        {
          "name": "user",
          "type": "address"
        },
        {
          "name": "index",
          "type": "uint256"
        }
      ],
      "name": "getTransactionsStoneCoin",
      "outputs": [
        {
          "name": "",
          "type": "address"
        }
      ],
      "payable": false,
      "stateMutability": "view",
      "type": "function"
    },
    {
      "constant": true,
      "inputs": [
        {
          "name": "user",
          "type": "address"
        },
        {
          "name": "index",
          "type": "uint256"
        }
      ],
      "name": "isAddTransaction",
      "outputs": [
        {
          "name": "",
          "type": "bool"
        }
      ],
      "payable": false,
      "stateMutability": "view",
      "type": "function"
    }
  ],
  "bytecode": "0x608060405234801561001057600080fd5b50336000818152602081905260409020805460ff191660019081179091558054600160a060020a0319169091179055610db18061004e6000396000f3006080604052600436106100fb5763ffffffff7c0100000000000000000000000000000000000000000000000000000000600035041663022914a781146101005780630b1fa61c1461013557806313af40351461015857806320c19b81146101795780632e6967bc1461019a57806332ed7a291461026857806338cc4831146102e05780635435fb0d14610311578063666a3427146103355780636cbe682f1461035657806379d8a6da146103895780637dba85e4146103b05780638da5cb5b146103d4578063a43293b4146103e9578063a9e1c8dd1461040d578063cd6967bb14610431578063e88914de146104ca578063f5a55ff6146104eb575b600080fd5b34801561010c57600080fd5b50610121600160a060020a036004351661050c565b604080519115158252519081900360200190f35b34801561014157600080fd5b50610156600160a060020a0360043516610521565b005b34801561016457600080fd5b50610156600160a060020a0360043516610563565b34801561018557600080fd5b50610121600160a060020a03600435166105b0565b3480156101a657600080fd5b506101be600160a060020a03600435166024356105c5565b604051808681526020018515151515815260200184815260200183600160a060020a0316600160a060020a0316815260200180602001828103825283818151815260200191508051906020019080838360005b83811015610229578181015183820152602001610211565b50505050905090810190601f1680156102565780820380516001836020036101000a031916815260200191505b50965050505050505060405180910390f35b34801561027457600080fd5b50604080516020600460843581810135601f8101849004840285018401909552848452610156948235600160a060020a0390811695602480351515966044359660643590941695369560a494939091019181908401838280828437509497506106ac9650505050505050565b3480156102ec57600080fd5b506102f56108c6565b60408051600160a060020a039092168252519081900360200190f35b34801561031d57600080fd5b506102f5600160a060020a03600435166024356108cb565b34801561034157600080fd5b50610156600160a060020a0360043516610931565b34801561036257600080fd5b50610377600160a060020a036004351661095b565b60408051918252519081900360200190f35b34801561039557600080fd5b50610121600160a060020a0360043581169060243516610995565b3480156103bc57600080fd5b50610377600160a060020a03600435166024356109b5565b3480156103e057600080fd5b506102f5610a11565b3480156103f557600080fd5b50610377600160a060020a0360043516602435610a20565b34801561041957600080fd5b50610121600160a060020a0360043516602435610a7c565b34801561043d57600080fd5b50610455600160a060020a0360043516602435610adc565b6040805160208082528351818301528351919283929083019185019080838360005b8381101561048f578181015183820152602001610477565b50505050905090810190601f1680156104bc5780820380516001836020036101000a031916815260200191505b509250505060405180910390f35b3480156104d657600080fd5b50610121600160a060020a0360043516610bc4565b3480156104f757600080fd5b50610156600160a060020a0360043516610be2565b60006020819052908152604090205460ff1681565b3360009081526020819052604090205460ff16151561053f57600080fd5b600160a060020a03166000908152600360205260409020805460ff19166001179055565b3360009081526020819052604090205460ff16151561058157600080fd5b6001805473ffffffffffffffffffffffffffffffffffffffff1916600160a060020a0392909216919091179055565b60036020526000908152604090205460ff1681565b6002602052816000526040600020818154811015156105e057fe5b600091825260209182902060059190910201805460018083015460028085015460038601546004870180546040805161010098831615989098026000190190911694909404601f81018a90048a0287018a0190945283865295995060ff909316975095600160a060020a039092169493918301828280156106a25780601f10610677576101008083540402835291602001916106a2565b820191906000526020600020905b81548152906001019060200180831161068557829003601f168201915b5050505050905085565b6106b4610cb2565b3360009081526020819052604090205460ff1615156106d257600080fd5b600160a060020a038316156108be57600160a060020a0380871660009081526004602090815260408083209387168352929052205460ff16158015610715575084155b156107cf574281526001602080830182815260808401858152600160a060020a038781166060870190815260408088018b81528d8416600090815260028089529281208054808b01808355918352918990208b516005909302019182559651988101805460ff19169915159990991790985551908701555160038601805473ffffffffffffffffffffffffffffffffffffffff1916919092161790555180519193859390926107ca9260048501920190610ced565b505050505b4281528415156020808301918252600160a060020a03858116606085019081526080850186815260408087018a81528c85166000908152600280885292812080546001808201808455928452928990208b516005909202019081559851918901805460ff191692151592909217909155905191870191909155915160038601805473ffffffffffffffffffffffffffffffffffffffff19169190941617909255905180519193859390926108899260048501920190610ced565b505050600160a060020a038088166000908152600460209081526040808320938816835292905220805460ff19166001179055505b505050505050565b305b90565b3360009081526003602052604081205460ff1615156108e957600080fd5b600160a060020a038316600090815260026020526040902080548390811061090d57fe5b6000918252602090912060059091020160030154600160a060020a03169392505050565b3360009081526020819052604090205460ff16151561094f57600080fd5b61095881610c09565b50565b3360009081526003602052604081205460ff16151561097957600080fd5b50600160a060020a031660009081526002602052604090205490565b600460209081526000928352604080842090915290825290205460ff1681565b3360009081526003602052604081205460ff1615156109d357600080fd5b600160a060020a03831660009081526002602052604090208054839081106109f757fe5b906000526020600020906005020160000154905092915050565b600154600160a060020a031681565b3360009081526003602052604081205460ff161515610a3e57600080fd5b600160a060020a0383166000908152600260205260409020805483908110610a6257fe5b906000526020600020906005020160020154905092915050565b3360009081526003602052604081205460ff161515610a9a57600080fd5b600160a060020a0383166000908152600260205260409020805483908110610abe57fe5b600091825260209091206005909102016001015460ff169392505050565b3360009081526003602052604090205460609060ff161515610afd57600080fd5b600160a060020a0383166000908152600260205260409020805483908110610b2157fe5b6000918252602091829020600460059092020101805460408051601f6002600019610100600187161502019094169390930492830185900485028101850190915281815292830182828015610bb75780601f10610b8c57610100808354040283529160200191610bb7565b820191906000526020600020905b815481529060010190602001808311610b9a57829003601f168201915b5050505050905092915050565b600160a060020a031660009081526020819052604090205460ff1690565b3360009081526020819052604090205460ff161515610c0057600080fd5b61095881610c3f565b600160a060020a0381161515610c1e57600080fd5b600160a060020a03166000908152602081905260409020805460ff19169055565b600160a060020a0381161515610c5457600080fd5b600154604051600160a060020a038084169216907f8be0079c531659141344cd1fd0a4f28419497f9722a3daafe3b4186f6b6457e090600090a3600160a060020a03166000908152602081905260409020805460ff19166001179055565b60a06040519081016040528060008152602001600015158152602001600081526020016000600160a060020a03168152602001606081525090565b828054600181600116156101000203166002900490600052602060002090601f016020900481019282601f10610d2e57805160ff1916838001178555610d5b565b82800160010185558215610d5b579182015b82811115610d5b578251825591602001919060010190610d40565b50610d67929150610d6b565b5090565b6108c891905b80821115610d675760008155600101610d715600a165627a7a7230582016c6d9a2ec0e2459f5551fda6a89affe6c1e64bd5210f69b9678f1e0f47aefda0029",
  "source": "pragma solidity ^0.4.0;\n\nimport 'openzeppelin-solidity/contracts/ownership/Ownable.sol';\nimport 'openzeppelin-solidity/contracts/math/SafeMath.sol';\nimport \"./interfaces/Ownables.sol\";\nimport \"./interfaces/CornerTransactionInt.sol\";\n\ncontract CornerTransaction  is Ownables, CornerTransactionInt{\n    using SafeMath for uint256;\n    struct Transaction {\n        uint256 time;\n        bool add;\n        uint256 transaction;\n        address stoneCoinAddress;\n        string codeDescription;\n    }\n\n    mapping(address => Transaction[]) public userToTransactions;\n    mapping(address => bool) public transactionsManager;\n    mapping(address => mapping(address => bool)) public notFirstTransaction;\n    constructor() public Ownables() {\n    }\n    function addTransaction(address user, bool add, uint256 transaction, address stoneCoinAddress, string codeDescription  )  public onlyOwner{\n        if(stoneCoinAddress != 0){\n            Transaction memory userTransaction;\n            if(!notFirstTransaction[user][stoneCoinAddress] && !add){\n                userTransaction.time = now;\n                userTransaction.add = true;\n                userTransaction.codeDescription = codeDescription;\n                userTransaction.stoneCoinAddress = stoneCoinAddress;\n                userTransaction.transaction = transaction;\n                userToTransactions[user].push(userTransaction);\n\n            }\n            userTransaction.time = now;\n            userTransaction.add = add;\n            userTransaction.stoneCoinAddress = stoneCoinAddress;\n            userTransaction.codeDescription = codeDescription;\n            userTransaction.transaction = transaction;\n            userToTransactions[user].push(userTransaction);\n            notFirstTransaction[user][stoneCoinAddress] = true;\n        }\n\n    }\n\n    function setTransactionManager(address user) public onlyOwner{\n         transactionsManager[user] = true;\n    }\n\n    function getTransactionsLength(address user) public view returns (uint256) {\n        require(transactionsManager[msg.sender]);\n        return userToTransactions[user].length;\n    }\n\n    function getTransactionsTime(address user, uint256 index) public view returns (uint256) {\n        require(transactionsManager[msg.sender]);\n        return userToTransactions[user][index].time;\n\n    }\n\n    function getTransaction(address user, uint256 index) public view returns (uint256) {\n        require(transactionsManager[msg.sender]);\n        return userToTransactions[user][index].transaction;\n\n    }\n\n    function getTransactionDescription(address user, uint256 index) public view returns (string) {\n        require(transactionsManager[msg.sender]);\n        return userToTransactions[user][index].codeDescription;\n\n    }\n\n    function getTransactionsStoneCoin(address user, uint256 index) public view returns (address) {\n        require(transactionsManager[msg.sender]);\n        return userToTransactions[user][index].stoneCoinAddress;\n\n    }\n\n    function isAddTransaction(address user, uint256 index) public view returns (bool) {\n        require(transactionsManager[msg.sender]);\n        return userToTransactions[user][index].add;\n\n    }\n\n\n}\n",
  "sourcePath": "/Users/roilandshut/projects/brikoin/brikoin/contracts/CornerTransaction.sol",
  "compiler": {
    "name": "solc",
    "version": "0.4.24+commit.e67f0147.Emscripten.clang"
  },
  "schemaVersion": "2.0.1",
  "updatedAt": "2019-10-27T14:12:10.844Z"
}