{
  "contractName": "FeeManager",
  "abi": [
    {
      "constant": true,
      "inputs": [
        {
          "name": "",
          "type": "address"
        }
      ],
      "name": "owners",
      "outputs": [
        {
          "name": "",
          "type": "bool"
        }
      ],
      "payable": false,
      "stateMutability": "view",
      "type": "function"
    },
    {
      "constant": true,
      "inputs": [],
      "name": "defaultSellingFeeRatio",
      "outputs": [
        {
          "name": "",
          "type": "uint256"
        }
      ],
      "payable": false,
      "stateMutability": "view",
      "type": "function"
    },
    {
      "constant": false,
      "inputs": [
        {
          "name": "_newOwner",
          "type": "address"
        }
      ],
      "name": "setOwner",
      "outputs": [],
      "payable": false,
      "stateMutability": "nonpayable",
      "type": "function"
    },
    {
      "constant": true,
      "inputs": [],
      "name": "getAddress",
      "outputs": [
        {
          "name": "",
          "type": "address"
        }
      ],
      "payable": false,
      "stateMutability": "view",
      "type": "function"
    },
    {
      "constant": false,
      "inputs": [
        {
          "name": "_newOwner",
          "type": "address"
        }
      ],
      "name": "removeOwnership",
      "outputs": [],
      "payable": false,
      "stateMutability": "nonpayable",
      "type": "function"
    },
    {
      "constant": true,
      "inputs": [
        {
          "name": "",
          "type": "address"
        }
      ],
      "name": "feeManagerRoles",
      "outputs": [
        {
          "name": "",
          "type": "bool"
        }
      ],
      "payable": false,
      "stateMutability": "view",
      "type": "function"
    },
    {
      "constant": true,
      "inputs": [
        {
          "name": "",
          "type": "address"
        },
        {
          "name": "",
          "type": "address"
        }
      ],
      "name": "usersFeeStatus",
      "outputs": [
        {
          "name": "",
          "type": "bool"
        }
      ],
      "payable": false,
      "stateMutability": "view",
      "type": "function"
    },
    {
      "constant": true,
      "inputs": [],
      "name": "defaultBuyingFeeRatio",
      "outputs": [
        {
          "name": "",
          "type": "uint256"
        }
      ],
      "payable": false,
      "stateMutability": "view",
      "type": "function"
    },
    {
      "constant": true,
      "inputs": [],
      "name": "owner",
      "outputs": [
        {
          "name": "",
          "type": "address"
        }
      ],
      "payable": false,
      "stateMutability": "view",
      "type": "function"
    },
    {
      "constant": true,
      "inputs": [
        {
          "name": "user",
          "type": "address"
        }
      ],
      "name": "isOwnable",
      "outputs": [
        {
          "name": "",
          "type": "bool"
        }
      ],
      "payable": false,
      "stateMutability": "view",
      "type": "function"
    },
    {
      "constant": false,
      "inputs": [
        {
          "name": "_newOwner",
          "type": "address"
        }
      ],
      "name": "addOwnership",
      "outputs": [],
      "payable": false,
      "stateMutability": "nonpayable",
      "type": "function"
    },
    {
      "inputs": [],
      "payable": false,
      "stateMutability": "nonpayable",
      "type": "constructor"
    },
    {
      "anonymous": false,
      "inputs": [
        {
          "indexed": true,
          "name": "previousOwner",
          "type": "address"
        }
      ],
      "name": "OwnershipRenounced",
      "type": "event"
    },
    {
      "anonymous": false,
      "inputs": [
        {
          "indexed": true,
          "name": "previousOwner",
          "type": "address"
        },
        {
          "indexed": true,
          "name": "newOwner",
          "type": "address"
        }
      ],
      "name": "OwnershipTransferred",
      "type": "event"
    },
    {
      "constant": true,
      "inputs": [
        {
          "name": "user",
          "type": "address"
        },
        {
          "name": "amount",
          "type": "uint256"
        },
        {
          "name": "limit_price",
          "type": "uint256"
        },
        {
          "name": "organization",
          "type": "address"
        }
      ],
      "name": "getUserSellingFee",
      "outputs": [
        {
          "name": "",
          "type": "uint256"
        }
      ],
      "payable": false,
      "stateMutability": "view",
      "type": "function"
    },
    {
      "constant": false,
      "inputs": [
        {
          "name": "user",
          "type": "address"
        }
      ],
      "name": "setFeeManagerRole",
      "outputs": [],
      "payable": false,
      "stateMutability": "nonpayable",
      "type": "function"
    },
    {
      "constant": true,
      "inputs": [
        {
          "name": "user",
          "type": "address"
        },
        {
          "name": "amount",
          "type": "uint256"
        },
        {
          "name": "limit_price",
          "type": "uint256"
        },
        {
          "name": "organization",
          "type": "address"
        }
      ],
      "name": "getUserBuyingFee",
      "outputs": [
        {
          "name": "",
          "type": "uint256"
        }
      ],
      "payable": false,
      "stateMutability": "view",
      "type": "function"
    },
    {
      "constant": true,
      "inputs": [
        {
          "name": "stoneCoinAddress",
          "type": "address"
        }
      ],
      "name": "getTotalFees",
      "outputs": [
        {
          "name": "",
          "type": "uint256"
        }
      ],
      "payable": false,
      "stateMutability": "view",
      "type": "function"
    },
    {
      "constant": false,
      "inputs": [
        {
          "name": "stoneCoinAddress",
          "type": "address"
        }
      ],
      "name": "clearFees",
      "outputs": [
        {
          "name": "",
          "type": "uint256"
        }
      ],
      "payable": false,
      "stateMutability": "nonpayable",
      "type": "function"
    },
    {
      "constant": false,
      "inputs": [
        {
          "name": "ratio_mill",
          "type": "uint256"
        },
        {
          "name": "organization",
          "type": "address"
        }
      ],
      "name": "setBuyingFeeRatio",
      "outputs": [],
      "payable": false,
      "stateMutability": "nonpayable",
      "type": "function"
    },
    {
      "constant": false,
      "inputs": [
        {
          "name": "ratio_mill",
          "type": "uint256"
        },
        {
          "name": "organization",
          "type": "address"
        }
      ],
      "name": "setSellingFeeRatio",
      "outputs": [],
      "payable": false,
      "stateMutability": "nonpayable",
      "type": "function"
    },
    {
      "constant": false,
      "inputs": [
        {
          "name": "fee",
          "type": "uint256"
        },
        {
          "name": "stoneCoinAddress",
          "type": "address"
        }
      ],
      "name": "addToTotalFee",
      "outputs": [
        {
          "name": "",
          "type": "uint256"
        }
      ],
      "payable": false,
      "stateMutability": "nonpayable",
      "type": "function"
    },
    {
      "constant": false,
      "inputs": [
        {
          "name": "user",
          "type": "address"
        },
        {
          "name": "state",
          "type": "bool"
        },
        {
          "name": "organization",
          "type": "address"
        }
      ],
      "name": "setUserFeeStatus",
      "outputs": [],
      "payable": false,
      "stateMutability": "nonpayable",
      "type": "function"
    }
  ],
  "bytecode": "0x60806040526019600355601960045534801561001a57600080fd5b50336000818152602081905260409020805460ff191660019081179091558054600160a060020a0319169091179055610a0e806100586000396000f3006080604052600436106101115763ffffffff7c01000000000000000000000000000000000000000000000000000000006000350416630139904e8114610116578063022914a714610149578063062db38b1461017e5780630695b654146101a157806313af4035146101b65780632028f7af146101d757806338cc4831146101fb5780635ec2e0121461022c578063666a34271461025b57806373d3e9761461027c5780637fe124d61461029d578063871fed13146102c45780638da5cb5b146102d9578063aac6b341146102ee578063d884aa6414610312578063e88914de14610336578063e8b0a94e14610357578063e8d3b91014610386578063f5902821146103b3578063f5a55ff6146103d4575b600080fd5b34801561012257600080fd5b50610137600160a060020a03600435166103f5565b60408051918252519081900360200190f35b34801561015557600080fd5b5061016a600160a060020a036004351661042f565b604080519115158252519081900360200190f35b34801561018a57600080fd5b5061019f600160a060020a0360043516610444565b005b3480156101ad57600080fd5b50610137610486565b3480156101c257600080fd5b5061019f600160a060020a036004351661048c565b3480156101e357600080fd5b5061019f600435600160a060020a03602435166104d9565b34801561020757600080fd5b50610210610541565b60408051600160a060020a039092168252519081900360200190f35b34801561023857600080fd5b50610137600160a060020a03600435811690602435906044359060643516610545565b34801561026757600080fd5b5061019f600160a060020a036004351661061d565b34801561028857600080fd5b5061016a600160a060020a0360043516610647565b3480156102a957600080fd5b5061016a600160a060020a036004358116906024351661065c565b3480156102d057600080fd5b5061013761067c565b3480156102e557600080fd5b50610210610682565b3480156102fa57600080fd5b50610137600435600160a060020a0360243516610691565b34801561031e57600080fd5b5061019f600435600160a060020a03602435166106fa565b34801561034257600080fd5b5061016a600160a060020a0360043516610762565b34801561036357600080fd5b50610137600160a060020a03600435811690602435906044359060643516610780565b34801561039257600080fd5b5061019f600160a060020a036004358116906024351515906044351661082e565b3480156103bf57600080fd5b50610137600160a060020a0360043516610886565b3480156103e057600080fd5b5061019f600160a060020a03600435166108c1565b336000908152600a602052604081205460ff16151561041357600080fd5b50600160a060020a031660009081526002602052604090205490565b60006020819052908152604090205460ff1681565b3360009081526020819052604090205460ff16151561046257600080fd5b600160a060020a03166000908152600a60205260409020805460ff19166001179055565b60045481565b3360009081526020819052604090205460ff1615156104aa57600080fd5b6001805473ffffffffffffffffffffffffffffffffffffffff1916600160a060020a0392909216919091179055565b336000908152600a602052604090205460ff1615156104f757600080fd5b6064821061050457600080fd5b6000821161051157600080fd5b600160a060020a03166000908152600860209081526040808320939093556007905220805460ff19166001179055565b3090565b600160a060020a03808216600090815260096020908152604080832093881683529290529081205460ff16151561057e57506000610615565b600160a060020a03821660009081526006602052604090205460ff16156105f357600160a060020a0382166000908152600560205260409020546105ec906103e8906105e0906105d4888863ffffffff6108e816565b9063ffffffff6108e816565b9063ffffffff61091716565b9050610615565b6106126103e86105e06003546105d487896108e890919063ffffffff16565b90505b949350505050565b3360009081526020819052604090205460ff16151561063b57600080fd5b6106448161092c565b50565b600a6020526000908152604090205460ff1681565b600960209081526000928352604080842090915290825290205460ff1681565b60035481565b600154600160a060020a031681565b3360009081526020819052604081205460ff1615156106af57600080fd5b600160a060020a0382166000908152600260205260409020546106d8908463ffffffff61096216565b600160a060020a03909216600090815260026020526040902091909155919050565b336000908152600a602052604090205460ff16151561071857600080fd5b6064821061072557600080fd5b6000821161073257600080fd5b600160a060020a03166000908152600560209081526040808320939093556006905220805460ff19166001179055565b600160a060020a031660009081526020819052604090205460ff1690565b600160a060020a03808216600090815260096020908152604080832093881683529290529081205460ff1615156107b957506000610615565b600160a060020a03821660009081526007602052604090205460ff161561080f57600160a060020a0382166000908152600860205260409020546105ec906103e8906105e0906105d4888863ffffffff6108e816565b6106126103e86105e06004546105d487896108e890919063ffffffff16565b336000908152600a602052604090205460ff16151561084c57600080fd5b600160a060020a03908116600090815260096020908152604080832095909316825293909352909120805460ff1916911515919091179055565b336000908152600a602052604081205460ff1615156108a457600080fd5b600160a060020a0390911660009081526002602052604081205590565b3360009081526020819052604090205460ff1615156108df57600080fd5b6106448161096f565b60008215156108f957506000610911565b5081810281838281151561090957fe5b041461091157fe5b92915050565b6000818381151561092457fe5b049392505050565b600160a060020a038116151561094157600080fd5b600160a060020a03166000908152602081905260409020805460ff19169055565b8181018281101561091157fe5b600160a060020a038116151561098457600080fd5b600154604051600160a060020a038084169216907f8be0079c531659141344cd1fd0a4f28419497f9722a3daafe3b4186f6b6457e090600090a3600160a060020a03166000908152602081905260409020805460ff191660011790555600a165627a7a7230582014170940c5d8a5ec06b26d09bcb6755a41f9617cbb7d71ab34beb4264881f3690029",
  "source": "pragma solidity ^0.4.0;\nimport 'openzeppelin-solidity/contracts/ownership/Ownable.sol';\nimport 'openzeppelin-solidity/contracts/math/SafeMath.sol';\nimport \"../interfaces/Ownables.sol\";\n\ncontract FeeManager is Ownables{\n    using SafeMath for uint256;\n    mapping(address => uint256) totalFees;\n    uint256 public defaultBuyingFeeRatio = 25;\n    uint256 public defaultSellingFeeRatio = 25;\n    mapping(address => uint256) buyingFeeRatio;\n    mapping(address => bool) buyingFeeRatioEnabled;\n    mapping(address => bool) sellingFeeRatioEnabled;\n    mapping(address => uint256) sellingFeeRatio;\n    mapping(address => mapping(address => bool)) public usersFeeStatus;\n    mapping(address => bool) public feeManagerRoles;\n\n    constructor (\n    ) Ownables() public {\n    }\n\n    function getUserSellingFee(address user, uint256 amount, uint256 limit_price, address organization)  public view returns(uint256) {\n        if(!usersFeeStatus[organization][user]){\n            return 0;\n        }\n\n        if(buyingFeeRatioEnabled[organization]){\n            return amount.mul(limit_price).mul(buyingFeeRatio[organization]).div(1000);\n        }\n\n        return amount.mul(limit_price).mul(defaultBuyingFeeRatio).div(1000);\n    }\n\n    function setFeeManagerRole(address user) public onlyOwner{\n        feeManagerRoles[user] = true;\n    }\n\n    function getUserBuyingFee(address user, uint256 amount, uint256 limit_price, address organization)  public view returns(uint256) {\n        if(!usersFeeStatus[organization][user]){\n            return 0;\n        }\n\n        if(sellingFeeRatioEnabled[organization]){\n            return amount.mul(limit_price).mul(sellingFeeRatio[organization]).div(1000);\n        }\n        return amount.mul(limit_price).mul(defaultSellingFeeRatio).div(1000);\n    }\n\n    function getTotalFees(address stoneCoinAddress) public view returns(uint256) {\n        require(feeManagerRoles[msg.sender]);\n        return totalFees[stoneCoinAddress];\n    }\n\n    function clearFees(address stoneCoinAddress) public returns(uint256) {\n        require(feeManagerRoles[msg.sender]);\n        totalFees[stoneCoinAddress] = 0;\n    }\n\n    function setBuyingFeeRatio(uint256 ratio_mill, address organization) public  {\n        require(feeManagerRoles[msg.sender]);\n        require(ratio_mill < 100);\n        require(ratio_mill > 0);\n        buyingFeeRatio[organization] = ratio_mill;\n        buyingFeeRatioEnabled[organization] = true;\n    }\n\n    function setSellingFeeRatio(uint256 ratio_mill, address organization) public  {\n        require(feeManagerRoles[msg.sender]);\n        require(ratio_mill < 100);\n        require(ratio_mill > 0);\n        sellingFeeRatio[organization] = ratio_mill;\n        sellingFeeRatioEnabled[organization] = true;\n    }\n\n    function addToTotalFee(uint256 fee, address stoneCoinAddress) public onlyOwner returns(uint256) {\n        totalFees[stoneCoinAddress] = totalFees[stoneCoinAddress].add(fee);\n    }\n\n    function setUserFeeStatus(address user, bool state, address organization) public {\n        require(feeManagerRoles[msg.sender]);\n        usersFeeStatus[organization][user] = state;\n    }\n\n}\n",
  "sourcePath": "/Users/roilandshut/projects/brikoin/brikoin/contracts/structures/FeeManager.sol",
  "compiler": {
    "name": "solc",
    "version": "0.4.24+commit.e67f0147.Emscripten.clang"
  },
  "schemaVersion": "2.0.1",
  "updatedAt": "2019-10-27T14:12:11.093Z"
}