{
  "contractName": "ForecloseTokensTracker",
  "abi": [
    {
      "constant": true,
      "inputs": [],
      "name": "isApproved",
      "outputs": [
        {
          "name": "",
          "type": "bool"
        }
      ],
      "payable": false,
      "stateMutability": "view",
      "type": "function"
    },
    {
      "constant": true,
      "inputs": [],
      "name": "fromUser",
      "outputs": [
        {
          "name": "",
          "type": "address"
        }
      ],
      "payable": false,
      "stateMutability": "view",
      "type": "function"
    },
    {
      "constant": false,
      "inputs": [],
      "name": "renounceOwnership",
      "outputs": [],
      "payable": false,
      "stateMutability": "nonpayable",
      "type": "function"
    },
    {
      "constant": true,
      "inputs": [],
      "name": "owner",
      "outputs": [
        {
          "name": "",
          "type": "address"
        }
      ],
      "payable": false,
      "stateMutability": "view",
      "type": "function"
    },
    {
      "constant": true,
      "inputs": [],
      "name": "toUser",
      "outputs": [
        {
          "name": "",
          "type": "address"
        }
      ],
      "payable": false,
      "stateMutability": "view",
      "type": "function"
    },
    {
      "constant": true,
      "inputs": [],
      "name": "units",
      "outputs": [
        {
          "name": "",
          "type": "uint256"
        }
      ],
      "payable": false,
      "stateMutability": "view",
      "type": "function"
    },
    {
      "constant": true,
      "inputs": [],
      "name": "stoneCoinAddress",
      "outputs": [
        {
          "name": "",
          "type": "address"
        }
      ],
      "payable": false,
      "stateMutability": "view",
      "type": "function"
    },
    {
      "constant": false,
      "inputs": [
        {
          "name": "_newOwner",
          "type": "address"
        }
      ],
      "name": "transferOwnership",
      "outputs": [],
      "payable": false,
      "stateMutability": "nonpayable",
      "type": "function"
    },
    {
      "inputs": [
        {
          "name": "_baseCornerContractAddress",
          "type": "address"
        },
        {
          "name": "_stoneCoinAddress",
          "type": "address"
        },
        {
          "name": "_fromUser",
          "type": "address"
        },
        {
          "name": "_toUser",
          "type": "address"
        },
        {
          "name": "_units",
          "type": "uint256"
        }
      ],
      "payable": false,
      "stateMutability": "nonpayable",
      "type": "constructor"
    },
    {
      "anonymous": false,
      "inputs": [
        {
          "indexed": true,
          "name": "previousOwner",
          "type": "address"
        }
      ],
      "name": "OwnershipRenounced",
      "type": "event"
    },
    {
      "anonymous": false,
      "inputs": [
        {
          "indexed": true,
          "name": "previousOwner",
          "type": "address"
        },
        {
          "indexed": true,
          "name": "newOwner",
          "type": "address"
        }
      ],
      "name": "OwnershipTransferred",
      "type": "event"
    },
    {
      "constant": false,
      "inputs": [],
      "name": "approveContract",
      "outputs": [],
      "payable": false,
      "stateMutability": "nonpayable",
      "type": "function"
    },
    {
      "constant": true,
      "inputs": [
        {
          "name": "userRequester",
          "type": "address"
        },
        {
          "name": "_fromUser",
          "type": "address"
        },
        {
          "name": "_toUser",
          "type": "address"
        },
        {
          "name": "_units",
          "type": "uint256"
        },
        {
          "name": "stoneCoin",
          "type": "address"
        }
      ],
      "name": "validate",
      "outputs": [
        {
          "name": "",
          "type": "bool"
        }
      ],
      "payable": false,
      "stateMutability": "view",
      "type": "function"
    }
  ],
  "bytecode": "0x608060405234801561001057600080fd5b5060405160a08061065c8339810160409081528151602083015191830151606084015160809094015160008054600160a060020a0319908116331790915560048054600160a060020a0395861690831617905560038054958516958216959095179094556001805492841692851692909217909155600280549290941691909216179091556005556105b5806100a76000396000f3006080604052600436106100a35763ffffffff7c010000000000000000000000000000000000000000000000000000000060003504166328f371aa81146100a857806332269243146100d157806343d00d0414610102578063715018a614610119578063880706e71461012e5780638da5cb5b1461016557806394704c901461017a578063976a84351461018f578063f04414f2146101b6578063f2fde38b146101cb575b600080fd5b3480156100b457600080fd5b506100bd6101ec565b604080519115158252519081900360200190f35b3480156100dd57600080fd5b506100e661020d565b60408051600160a060020a039092168252519081900360200190f35b34801561010e57600080fd5b5061011761021c565b005b34801561012557600080fd5b506101176102f5565b34801561013a57600080fd5b506100bd600160a060020a036004358116906024358116906044358116906064359060843516610361565b34801561017157600080fd5b506100e66104b6565b34801561018657600080fd5b506100e66104c5565b34801561019b57600080fd5b506101a46104d4565b60408051918252519081900360200190f35b3480156101c257600080fd5b506100e66104da565b3480156101d757600080fd5b50610117600160a060020a03600435166104e9565b60045474010000000000000000000000000000000000000000900460ff1681565b600154600160a060020a031681565b60048054604080517f6f8ee4c6000000000000000000000000000000000000000000000000000000008152339381019390935251600160a060020a03909116918291636f8ee4c6916024808201926020929091908290030181600087803b15801561028657600080fd5b505af115801561029a573d6000803e3d6000fd5b505050506040513d60208110156102b057600080fd5b505115156102bd57600080fd5b506004805474ff0000000000000000000000000000000000000000191674010000000000000000000000000000000000000000179055565b600054600160a060020a0316331461030c57600080fd5b60008054604051600160a060020a03909116917ff8df31144d9c2f0f6b59d69b8b98abd5459d07f2742c4df920b25aae33c6482091a26000805473ffffffffffffffffffffffffffffffffffffffff19169055565b6003546000908190600160a060020a0384811691161461038057600080fd5b5060035460048054604080517f8da5cb5b0000000000000000000000000000000000000000000000000000000081529051600160a060020a0394851694909216928492638da5cb5b9280830192602092918290030181600087803b1580156103e757600080fd5b505af11580156103fb573d6000803e3d6000fd5b505050506040513d602081101561041157600080fd5b5051600160a060020a03161461042657600080fd5b600160a060020a038781169087161461043e57600080fd5b60045474010000000000000000000000000000000000000000900460ff16151561046757600080fd5b600254600160a060020a0386811691161461048157600080fd5b600154600160a060020a0387811691161461049b57600080fd5b60055484146104a957600080fd5b5060019695505050505050565b600054600160a060020a031681565b600254600160a060020a031681565b60055481565b600354600160a060020a031681565b600054600160a060020a0316331461050057600080fd5b6105098161050c565b50565b600160a060020a038116151561052157600080fd5b60008054604051600160a060020a03808516939216917f8be0079c531659141344cd1fd0a4f28419497f9722a3daafe3b4186f6b6457e091a36000805473ffffffffffffffffffffffffffffffffffffffff1916600160a060020a03929092169190911790555600a165627a7a723058207060aa461c9c1dc95566f5752386a332c26e40f8191d661affad66b8e7e228550029",
  "source": "pragma solidity ^0.4.0;\n\nimport 'openzeppelin-solidity/contracts/ownership/Ownable.sol';\nimport 'openzeppelin-solidity/contracts/math/SafeMath.sol';\nimport \"../StoneCoin.sol\";\nimport \"../CornerStoneBase.sol\";\n\ncontract ForecloseTokensTracker is Ownable{\n    using SafeMath for uint256;\n    address public fromUser;\n    address public toUser;\n    address public stoneCoinAddress;\n    address        baseCornerContractAddress;\n    bool    public isApproved;\n    uint256 public units;\n\n\n    constructor(\n        address _baseCornerContractAddress,\n        address _stoneCoinAddress, address _fromUser, address _toUser, uint256 _units\n    ) Ownable() public {\n        baseCornerContractAddress = _baseCornerContractAddress;\n        stoneCoinAddress = _stoneCoinAddress;\n        fromUser = _fromUser;\n        toUser = _toUser;\n        units = _units;\n    }\n\n    function approveContract() public {\n        CornerStoneBase cornerStone = CornerStoneBase(baseCornerContractAddress);\n        require(cornerStone.isTokenApproveRole(msg.sender));\n        isApproved = true;\n    }\n\n    function validate(address userRequester, address _fromUser, address _toUser, uint256 _units, address stoneCoin) public view returns (bool){\n        require(stoneCoinAddress == stoneCoin);\n        StoneCoin stoneCoinContract = StoneCoin(stoneCoinAddress);\n        require(stoneCoinContract.owner() == baseCornerContractAddress);\n        require(userRequester == _fromUser);\n        require(isApproved);\n        require(_toUser == toUser);\n        require(_fromUser == fromUser);\n        require(_units == units);\n        return true;\n    }\n\n\n}\n",
  "sourcePath": "/Users/roilandshut/projects/brikoin/brikoin/contracts/structures/ForecloseTokensTracker.sol",
  "compiler": {
    "name": "solc",
    "version": "0.4.24+commit.e67f0147.Emscripten.clang"
  },
  "schemaVersion": "2.0.1",
  "updatedAt": "2019-10-27T14:12:11.097Z"
}