{
  "contractName": "ManagerFactory",
  "abi": [
    {
      "constant": false,
      "inputs": [],
      "name": "renounceOwnership",
      "outputs": [],
      "payable": false,
      "stateMutability": "nonpayable",
      "type": "function"
    },
    {
      "constant": true,
      "inputs": [],
      "name": "owner",
      "outputs": [
        {
          "name": "",
          "type": "address"
        }
      ],
      "payable": false,
      "stateMutability": "view",
      "type": "function"
    },
    {
      "constant": true,
      "inputs": [],
      "name": "_manager",
      "outputs": [
        {
          "name": "",
          "type": "address"
        }
      ],
      "payable": false,
      "stateMutability": "view",
      "type": "function"
    },
    {
      "constant": false,
      "inputs": [
        {
          "name": "_newOwner",
          "type": "address"
        }
      ],
      "name": "transferOwnership",
      "outputs": [],
      "payable": false,
      "stateMutability": "nonpayable",
      "type": "function"
    },
    {
      "anonymous": false,
      "inputs": [
        {
          "indexed": false,
          "name": "manager",
          "type": "address"
        }
      ],
      "name": "ManagerRoleCreated",
      "type": "event"
    },
    {
      "anonymous": false,
      "inputs": [
        {
          "indexed": false,
          "name": "manager",
          "type": "address"
        }
      ],
      "name": "ManagerCreated",
      "type": "event"
    },
    {
      "anonymous": false,
      "inputs": [
        {
          "indexed": true,
          "name": "previousOwner",
          "type": "address"
        }
      ],
      "name": "OwnershipRenounced",
      "type": "event"
    },
    {
      "anonymous": false,
      "inputs": [
        {
          "indexed": true,
          "name": "previousOwner",
          "type": "address"
        },
        {
          "indexed": true,
          "name": "newOwner",
          "type": "address"
        }
      ],
      "name": "OwnershipTransferred",
      "type": "event"
    },
    {
      "constant": false,
      "inputs": [
        {
          "name": "_name",
          "type": "bytes32"
        },
        {
          "name": "_country",
          "type": "bytes32"
        },
        {
          "name": "_address1",
          "type": "bytes32"
        },
        {
          "name": "_address2",
          "type": "bytes32"
        },
        {
          "name": "_contactFirstName",
          "type": "bytes32"
        },
        {
          "name": "_contactSecondName",
          "type": "bytes32"
        },
        {
          "name": "_phoneNumber",
          "type": "bytes32"
        },
        {
          "name": "_email",
          "type": "bytes32"
        },
        {
          "name": "_url",
          "type": "bytes32"
        },
        {
          "name": "_urlMD5",
          "type": "bytes32"
        }
      ],
      "name": "createManager",
      "outputs": [
        {
          "name": "",
          "type": "address"
        }
      ],
      "payable": false,
      "stateMutability": "nonpayable",
      "type": "function"
    },
    {
      "constant": false,
      "inputs": [
        {
          "name": "newManager",
          "type": "address"
        }
      ],
      "name": "addManager",
      "outputs": [],
      "payable": false,
      "stateMutability": "nonpayable",
      "type": "function"
    }
  ],
  "bytecode": "0x608060405260008054600160a060020a0319163317905561077d806100256000396000f3006080604052600436106100775763ffffffff7c01000000000000000000000000000000000000000000000000000000006000350416632d06177a811461007c578063715018a61461009f5780637a5b9e2b146100b45780638da5cb5b14610105578063f0329f6b1461011a578063f2fde38b1461012f575b600080fd5b34801561008857600080fd5b5061009d600160a060020a0360043516610150565b005b3480156100ab57600080fd5b5061009d6101ef565b3480156100c057600080fd5b506100e960043560243560443560643560843560a43560c43560e435610104356101243561025b565b60408051600160a060020a039092168252519081900360200190f35b34801561011157600080fd5b506100e961035d565b34801561012657600080fd5b506100e961036c565b34801561013b57600080fd5b5061009d600160a060020a036004351661037b565b600054600160a060020a0316331461016757600080fd5b600160a060020a03811660009081526001602081905260409091205460ff161515141561019357600080fd5b600160a060020a038116600081815260016020818152604092839020805460ff1916909217909155815192835290517f532689ee3777e0680192d8af8f1db571bb7b9f4e075b0038fe32d57bbab1084a9281900390910190a150565b600054600160a060020a0316331461020657600080fd5b60008054604051600160a060020a03909116917ff8df31144d9c2f0f6b59d69b8b98abd5459d07f2742c4df920b25aae33c6482091a26000805473ffffffffffffffffffffffffffffffffffffffff19169055565b336000908152600160208190526040822054829160ff9091161515148061028c5750600054600160a060020a031633145b151561029757600080fd5b8b8b8b8b8b8b8b8b8b8b6102a961041b565b998a5260208a01989098526040808a01979097526060890195909552608088019390935260a087019190915260c086015260e0850152610100840152610120830191909152519081900361014001906000f08015801561030d573d6000803e3d6000fd5b5060408051600160a060020a038316815290519192507f8fb535e68a1d9e939f56e832df97d6e8949dc31fe7403ecc0a883d5263297c2e919081900360200190a19b9a5050505050505050505050565b600054600160a060020a031681565b600254600160a060020a031681565b600054600160a060020a0316331461039257600080fd5b61039b8161039e565b50565b600160a060020a03811615156103b357600080fd5b60008054604051600160a060020a03808516939216917f8be0079c531659141344cd1fd0a4f28419497f9722a3daafe3b4186f6b6457e091a36000805473ffffffffffffffffffffffffffffffffffffffff1916600160a060020a0392909216919091179055565b6040516103268061042c833901905600608060405234801561001057600080fd5b506040516101408061032683398101604090815281516020830151918301516060840151608085015160a086015160c087015160e08801516101008901516101209099015160008054600160a060020a03191633179055600197909755600297909755600394909455600492909255600555600655600755600891909155600991909155600a55610280806100a66000396000f3006080604052600436106100565763ffffffff7c0100000000000000000000000000000000000000000000000000000000600035041663715018a6811461005b5780638da5cb5b14610072578063f2fde38b146100b0575b600080fd5b34801561006757600080fd5b506100706100de565b005b34801561007e57600080fd5b50610087610164565b6040805173ffffffffffffffffffffffffffffffffffffffff9092168252519081900360200190f35b3480156100bc57600080fd5b5061007073ffffffffffffffffffffffffffffffffffffffff60043516610180565b60005473ffffffffffffffffffffffffffffffffffffffff16331461010257600080fd5b6000805460405173ffffffffffffffffffffffffffffffffffffffff909116917ff8df31144d9c2f0f6b59d69b8b98abd5459d07f2742c4df920b25aae33c6482091a26000805473ffffffffffffffffffffffffffffffffffffffff19169055565b60005473ffffffffffffffffffffffffffffffffffffffff1681565b60005473ffffffffffffffffffffffffffffffffffffffff1633146101a457600080fd5b6101ad816101b0565b50565b73ffffffffffffffffffffffffffffffffffffffff811615156101d257600080fd5b6000805460405173ffffffffffffffffffffffffffffffffffffffff808516939216917f8be0079c531659141344cd1fd0a4f28419497f9722a3daafe3b4186f6b6457e091a36000805473ffffffffffffffffffffffffffffffffffffffff191673ffffffffffffffffffffffffffffffffffffffff929092169190911790555600a165627a7a72305820de9822f18d12fc37d97ecaee95151b7f5767e12b44363b51b6bf2fde4fca434e0029a165627a7a723058200bd2ceaec29e2a64fecf58fff2454e703e2004de4132c0d3e12c1e1e067ce9240029",
  "source": "pragma solidity ^0.4.24;\nimport \"openzeppelin-solidity/contracts/ownership/Ownable.sol\";\nimport 'openzeppelin-solidity/contracts/math/SafeMath.sol';\nimport '../structures/Manager.sol';\n\ncontract ManagerFactory is Ownable{\n    using SafeMath for uint256;\n    mapping( address=> bool) managers;\n    event ManagerRoleCreated(address manager);\n    event ManagerCreated(address manager);\n    address public _manager;\n\n\n    modifier onlyManager() {\n        require(managers[msg.sender] == true ||  owner == msg.sender);\n        _;\n    }\n\n    function createManager (\n        bytes32 _name,\n        bytes32 _country,\n        bytes32 _address1,\n        bytes32 _address2,\n        bytes32 _contactFirstName,\n        bytes32 _contactSecondName,\n        bytes32 _phoneNumber,\n        bytes32 _email,\n        bytes32 _url,\n        bytes32 _urlMD5\n    ) public onlyManager returns(address){\n\n        Manager newContract = new Manager(_name,\n            _country,\n            _address1,\n            _address2,\n            _contactFirstName,\n            _contactSecondName,\n            _phoneNumber,\n            _email,\n            _url,\n            _urlMD5              );\n        emit ManagerCreated(address(newContract));\n        return address(newContract);\n    }\n\n    function addManager(address newManager) public onlyOwner {\n        require(managers[newManager] != true);\n        managers[newManager] = true;\n        emit ManagerRoleCreated(newManager);\n    }\n}\n",
  "sourcePath": "/Users/roilandshut/projects/brikoin/brikoin/contracts/factory/ManagerFactory.sol",
  "compiler": {
    "name": "solc",
    "version": "0.4.24+commit.e67f0147.Emscripten.clang"
  },
  "schemaVersion": "2.0.1",
  "updatedAt": "2019-10-27T14:12:10.986Z"
}