{
  "contractName": "MortgageStoneNew",
  "abi": [
    {
      "constant": true,
      "inputs": [
        {
          "name": "",
          "type": "address"
        }
      ],
      "name": "owners",
      "outputs": [
        {
          "name": "",
          "type": "bool"
        }
      ],
      "payable": false,
      "stateMutability": "view",
      "type": "function"
    },
    {
      "constant": true,
      "inputs": [],
      "name": "getAddress",
      "outputs": [
        {
          "name": "",
          "type": "address"
        }
      ],
      "payable": false,
      "stateMutability": "view",
      "type": "function"
    },
    {
      "constant": true,
      "inputs": [],
      "name": "cornerStoneBaseAddress",
      "outputs": [
        {
          "name": "",
          "type": "address"
        }
      ],
      "payable": false,
      "stateMutability": "view",
      "type": "function"
    },
    {
      "constant": true,
      "inputs": [],
      "name": "owner",
      "outputs": [
        {
          "name": "",
          "type": "address"
        }
      ],
      "payable": false,
      "stateMutability": "view",
      "type": "function"
    },
    {
      "constant": false,
      "inputs": [
        {
          "name": "_newOwner",
          "type": "address"
        }
      ],
      "name": "addOwnership",
      "outputs": [],
      "payable": false,
      "stateMutability": "nonpayable",
      "type": "function"
    },
    {
      "inputs": [],
      "payable": false,
      "stateMutability": "nonpayable",
      "type": "constructor"
    },
    {
      "anonymous": false,
      "inputs": [
        {
          "indexed": false,
          "name": "user",
          "type": "address"
        },
        {
          "indexed": false,
          "name": "stoneCoinAddress",
          "type": "address"
        },
        {
          "indexed": false,
          "name": "amount",
          "type": "uint256"
        },
        {
          "indexed": false,
          "name": "limit_micros",
          "type": "uint256"
        },
        {
          "indexed": false,
          "name": "available",
          "type": "uint256"
        }
      ],
      "name": "BidMortgageCreated",
      "type": "event"
    },
    {
      "anonymous": false,
      "inputs": [
        {
          "indexed": false,
          "name": "user",
          "type": "address"
        },
        {
          "indexed": false,
          "name": "stoneCoinAddress",
          "type": "address"
        },
        {
          "indexed": false,
          "name": "amount",
          "type": "uint256"
        },
        {
          "indexed": false,
          "name": "limit_micros",
          "type": "uint256"
        }
      ],
      "name": "AskMortgageCreated",
      "type": "event"
    },
    {
      "anonymous": false,
      "inputs": [
        {
          "indexed": false,
          "name": "stoneCoinAddress",
          "type": "address"
        },
        {
          "indexed": false,
          "name": "buyer",
          "type": "address"
        },
        {
          "indexed": false,
          "name": "seller",
          "type": "address"
        },
        {
          "indexed": false,
          "name": "amount",
          "type": "uint256"
        },
        {
          "indexed": false,
          "name": "price",
          "type": "uint256"
        }
      ],
      "name": "TradeMortgaged",
      "type": "event"
    },
    {
      "anonymous": false,
      "inputs": [],
      "name": "BuyerMortgageeInsufficientBalance",
      "type": "event"
    },
    {
      "anonymous": false,
      "inputs": [
        {
          "indexed": false,
          "name": "newMortgagee",
          "type": "address"
        },
        {
          "indexed": false,
          "name": "microUSDs",
          "type": "uint256"
        },
        {
          "indexed": false,
          "name": "maxMortgage",
          "type": "uint256"
        }
      ],
      "name": "MortgageeAdded",
      "type": "event"
    },
    {
      "anonymous": false,
      "inputs": [
        {
          "indexed": false,
          "name": "newMortgagee",
          "type": "address"
        },
        {
          "indexed": false,
          "name": "microUSDs",
          "type": "uint256"
        },
        {
          "indexed": false,
          "name": "maxMortgage",
          "type": "uint256"
        }
      ],
      "name": "MortgageeAddFunds",
      "type": "event"
    },
    {
      "anonymous": false,
      "inputs": [
        {
          "indexed": false,
          "name": "key",
          "type": "uint64"
        }
      ],
      "name": "TradeMortgageCreated",
      "type": "event"
    },
    {
      "anonymous": false,
      "inputs": [
        {
          "indexed": false,
          "name": "mortgageAddress",
          "type": "address"
        },
        {
          "indexed": false,
          "name": "buyer",
          "type": "address"
        },
        {
          "indexed": false,
          "name": "mortgagee",
          "type": "address"
        },
        {
          "indexed": false,
          "name": "balance",
          "type": "uint256"
        },
        {
          "indexed": false,
          "name": "value",
          "type": "uint256"
        },
        {
          "indexed": false,
          "name": "timestamp",
          "type": "uint256"
        }
      ],
      "name": "MortgageDefaulted",
      "type": "event"
    },
    {
      "anonymous": false,
      "inputs": [
        {
          "indexed": false,
          "name": "mortgageAddress",
          "type": "address"
        },
        {
          "indexed": false,
          "name": "buyer",
          "type": "address"
        },
        {
          "indexed": false,
          "name": "mortgagee",
          "type": "address"
        },
        {
          "indexed": false,
          "name": "balance",
          "type": "uint256"
        },
        {
          "indexed": false,
          "name": "value",
          "type": "uint256"
        },
        {
          "indexed": false,
          "name": "timestamp",
          "type": "uint256"
        }
      ],
      "name": "MortgagePayment",
      "type": "event"
    },
    {
      "anonymous": false,
      "inputs": [
        {
          "indexed": true,
          "name": "previousOwner",
          "type": "address"
        }
      ],
      "name": "OwnershipRenounced",
      "type": "event"
    },
    {
      "anonymous": false,
      "inputs": [
        {
          "indexed": true,
          "name": "previousOwner",
          "type": "address"
        },
        {
          "indexed": true,
          "name": "newOwner",
          "type": "address"
        }
      ],
      "name": "OwnershipTransferred",
      "type": "event"
    },
    {
      "constant": false,
      "inputs": [
        {
          "name": "_cornerStoneBaseAddress",
          "type": "address"
        }
      ],
      "name": "setStoneBaseAddress",
      "outputs": [],
      "payable": false,
      "stateMutability": "nonpayable",
      "type": "function"
    },
    {
      "constant": false,
      "inputs": [
        {
          "name": "_storageAddress",
          "type": "address"
        }
      ],
      "name": "setStorageAddress",
      "outputs": [],
      "payable": false,
      "stateMutability": "nonpayable",
      "type": "function"
    },
    {
      "constant": false,
      "inputs": [
        {
          "name": "_mortgageOperationsAddress",
          "type": "address"
        }
      ],
      "name": "setMortgageOperationAddress",
      "outputs": [],
      "payable": false,
      "stateMutability": "nonpayable",
      "type": "function"
    },
    {
      "constant": false,
      "inputs": [
        {
          "name": "_user",
          "type": "address"
        },
        {
          "name": "microUSDs",
          "type": "uint256"
        }
      ],
      "name": "addMortgageBalance",
      "outputs": [],
      "payable": false,
      "stateMutability": "nonpayable",
      "type": "function"
    },
    {
      "constant": true,
      "inputs": [
        {
          "name": "stoneCoinAddress",
          "type": "address"
        },
        {
          "name": "user",
          "type": "address"
        }
      ],
      "name": "bidAmount",
      "outputs": [
        {
          "name": "",
          "type": "uint256"
        }
      ],
      "payable": false,
      "stateMutability": "view",
      "type": "function"
    },
    {
      "constant": true,
      "inputs": [
        {
          "name": "stoneCoinAddress",
          "type": "address"
        },
        {
          "name": "user",
          "type": "address"
        }
      ],
      "name": "bidValueHold",
      "outputs": [
        {
          "name": "",
          "type": "uint256"
        }
      ],
      "payable": false,
      "stateMutability": "view",
      "type": "function"
    },
    {
      "constant": true,
      "inputs": [
        {
          "name": "stoneCoinAddress",
          "type": "address"
        },
        {
          "name": "user",
          "type": "address"
        }
      ],
      "name": "isBidMortgaged",
      "outputs": [
        {
          "name": "",
          "type": "bool"
        }
      ],
      "payable": false,
      "stateMutability": "view",
      "type": "function"
    },
    {
      "constant": false,
      "inputs": [
        {
          "name": "stoneCoinAddress",
          "type": "address"
        },
        {
          "name": "user",
          "type": "address"
        },
        {
          "name": "amount",
          "type": "uint256"
        }
      ],
      "name": "setBidAmount",
      "outputs": [
        {
          "name": "",
          "type": "uint256"
        }
      ],
      "payable": false,
      "stateMutability": "nonpayable",
      "type": "function"
    },
    {
      "constant": false,
      "inputs": [
        {
          "name": "stoneCoinAddress",
          "type": "address"
        },
        {
          "name": "user",
          "type": "address"
        },
        {
          "name": "limit",
          "type": "uint256"
        }
      ],
      "name": "setBidLimit",
      "outputs": [
        {
          "name": "",
          "type": "uint256"
        }
      ],
      "payable": false,
      "stateMutability": "nonpayable",
      "type": "function"
    },
    {
      "constant": false,
      "inputs": [
        {
          "name": "stoneCoinAddress",
          "type": "address"
        },
        {
          "name": "user",
          "type": "address"
        },
        {
          "name": "amount",
          "type": "uint256"
        }
      ],
      "name": "setAskAmount",
      "outputs": [
        {
          "name": "",
          "type": "uint256"
        }
      ],
      "payable": false,
      "stateMutability": "nonpayable",
      "type": "function"
    },
    {
      "constant": false,
      "inputs": [
        {
          "name": "stoneCoinAddress",
          "type": "address"
        },
        {
          "name": "user",
          "type": "address"
        },
        {
          "name": "limit",
          "type": "uint256"
        }
      ],
      "name": "setAskLimit",
      "outputs": [
        {
          "name": "",
          "type": "uint256"
        }
      ],
      "payable": false,
      "stateMutability": "nonpayable",
      "type": "function"
    },
    {
      "constant": false,
      "inputs": [
        {
          "name": "stoneCoinAddress",
          "type": "address"
        },
        {
          "name": "user",
          "type": "address"
        },
        {
          "name": "valueHold",
          "type": "uint256"
        }
      ],
      "name": "setBidValueHold",
      "outputs": [
        {
          "name": "",
          "type": "uint256"
        }
      ],
      "payable": false,
      "stateMutability": "nonpayable",
      "type": "function"
    },
    {
      "constant": true,
      "inputs": [
        {
          "name": "stoneCoinAddress",
          "type": "address"
        },
        {
          "name": "user",
          "type": "address"
        }
      ],
      "name": "askAmount",
      "outputs": [
        {
          "name": "",
          "type": "uint256"
        }
      ],
      "payable": false,
      "stateMutability": "view",
      "type": "function"
    },
    {
      "constant": false,
      "inputs": [
        {
          "name": "_user",
          "type": "address"
        },
        {
          "name": "microUSDs",
          "type": "uint256"
        }
      ],
      "name": "withdrawMortgageBalance",
      "outputs": [],
      "payable": false,
      "stateMutability": "nonpayable",
      "type": "function"
    },
    {
      "constant": true,
      "inputs": [],
      "name": "symbol",
      "outputs": [
        {
          "name": "",
          "type": "bytes32"
        }
      ],
      "payable": false,
      "stateMutability": "view",
      "type": "function"
    },
    {
      "constant": true,
      "inputs": [
        {
          "name": "_user",
          "type": "address"
        }
      ],
      "name": "mortgageeBalanceOf",
      "outputs": [
        {
          "name": "",
          "type": "uint256"
        }
      ],
      "payable": false,
      "stateMutability": "view",
      "type": "function"
    },
    {
      "constant": false,
      "inputs": [
        {
          "name": "user",
          "type": "address"
        },
        {
          "name": "microUSDs",
          "type": "uint256"
        },
        {
          "name": "maxMortgage",
          "type": "uint256"
        },
        {
          "name": "newMortgagee",
          "type": "address"
        }
      ],
      "name": "addMortgegee",
      "outputs": [
        {
          "name": "",
          "type": "address"
        }
      ],
      "payable": false,
      "stateMutability": "nonpayable",
      "type": "function"
    },
    {
      "constant": false,
      "inputs": [
        {
          "name": "user",
          "type": "address"
        },
        {
          "name": "mortgageAddress",
          "type": "address"
        },
        {
          "name": "marketPriceMills",
          "type": "uint256"
        },
        {
          "name": "paymentInMills",
          "type": "uint256"
        }
      ],
      "name": "mortgagePayment",
      "outputs": [
        {
          "name": "",
          "type": "uint256"
        }
      ],
      "payable": false,
      "stateMutability": "nonpayable",
      "type": "function"
    },
    {
      "constant": false,
      "inputs": [
        {
          "name": "user",
          "type": "address"
        },
        {
          "name": "mortgageAddress",
          "type": "address"
        }
      ],
      "name": "clearAllMortgage",
      "outputs": [
        {
          "name": "",
          "type": "uint256"
        }
      ],
      "payable": false,
      "stateMutability": "nonpayable",
      "type": "function"
    },
    {
      "constant": false,
      "inputs": [
        {
          "name": "_user",
          "type": "address"
        },
        {
          "name": "mortgageRequestAddress",
          "type": "address"
        },
        {
          "name": "stoneCoinAddress",
          "type": "address"
        },
        {
          "name": "downPaymentMicros",
          "type": "uint64"
        },
        {
          "name": "amount",
          "type": "uint256"
        },
        {
          "name": "limit_micros",
          "type": "uint256"
        },
        {
          "name": "signDocument",
          "type": "address"
        }
      ],
      "name": "bidMortgaged",
      "outputs": [
        {
          "name": "successeded",
          "type": "bool"
        },
        {
          "name": "available",
          "type": "uint256"
        }
      ],
      "payable": false,
      "stateMutability": "nonpayable",
      "type": "function"
    },
    {
      "constant": false,
      "inputs": [
        {
          "name": "user",
          "type": "address"
        },
        {
          "name": "mortgageAddress",
          "type": "address"
        },
        {
          "name": "stoneCoinAddress",
          "type": "address"
        },
        {
          "name": "amount",
          "type": "uint256"
        },
        {
          "name": "limit_micros",
          "type": "uint256"
        },
        {
          "name": "signDocument",
          "type": "address"
        }
      ],
      "name": "askMortgaged",
      "outputs": [
        {
          "name": "",
          "type": "bool"
        }
      ],
      "payable": false,
      "stateMutability": "nonpayable",
      "type": "function"
    },
    {
      "constant": false,
      "inputs": [
        {
          "name": "key",
          "type": "uint64"
        },
        {
          "name": "_stoneCoinAddress",
          "type": "address"
        },
        {
          "name": "_buyer",
          "type": "address"
        },
        {
          "name": "_seller",
          "type": "address"
        },
        {
          "name": "_buyerMortgage",
          "type": "address"
        },
        {
          "name": "_sellerMortgage",
          "type": "address"
        },
        {
          "name": "_amount",
          "type": "uint256"
        },
        {
          "name": "_price",
          "type": "uint256"
        }
      ],
      "name": "createTradeMortgage",
      "outputs": [],
      "payable": false,
      "stateMutability": "nonpayable",
      "type": "function"
    },
    {
      "constant": false,
      "inputs": [
        {
          "name": "mortgageAddress",
          "type": "address"
        }
      ],
      "name": "applyMortgageClearance",
      "outputs": [],
      "payable": false,
      "stateMutability": "nonpayable",
      "type": "function"
    },
    {
      "constant": false,
      "inputs": [
        {
          "name": "key",
          "type": "uint64"
        }
      ],
      "name": "tradeMortgaged",
      "outputs": [],
      "payable": false,
      "stateMutability": "nonpayable",
      "type": "function"
    },
    {
      "constant": false,
      "inputs": [
        {
          "name": "signDocument",
          "type": "address"
        },
        {
          "name": "stoneCoinAddress",
          "type": "address"
        }
      ],
      "name": "checkSignature",
      "outputs": [
        {
          "name": "",
          "type": "bool"
        }
      ],
      "payable": false,
      "stateMutability": "nonpayable",
      "type": "function"
    },
    {
      "constant": false,
      "inputs": [
        {
          "name": "_mortgageeAddress",
          "type": "address"
        },
        {
          "name": "_stoneCoinAddress",
          "type": "address"
        },
        {
          "name": "_mortgageRequestAddress",
          "type": "address"
        },
        {
          "name": "_mortgageeConditionAddress",
          "type": "address"
        },
        {
          "name": "_key",
          "type": "uint256"
        },
        {
          "name": "isExternal",
          "type": "bool"
        }
      ],
      "name": "createMortgage",
      "outputs": [
        {
          "name": "",
          "type": "address"
        }
      ],
      "payable": false,
      "stateMutability": "nonpayable",
      "type": "function"
    },
    {
      "constant": true,
      "inputs": [
        {
          "name": "_key",
          "type": "uint256"
        }
      ],
      "name": "lastMortgage",
      "outputs": [
        {
          "name": "",
          "type": "address"
        }
      ],
      "payable": false,
      "stateMutability": "view",
      "type": "function"
    },
    {
      "constant": false,
      "inputs": [
        {
          "name": "_buyer",
          "type": "address"
        },
        {
          "name": "_value",
          "type": "uint256"
        },
        {
          "name": "mortgageAddress",
          "type": "address"
        },
        {
          "name": "stoneCoinAddress",
          "type": "address"
        }
      ],
      "name": "transferMortgageBalance",
      "outputs": [],
      "payable": false,
      "stateMutability": "nonpayable",
      "type": "function"
    },
    {
      "constant": false,
      "inputs": [
        {
          "name": "stoneCoinAddress",
          "type": "address"
        },
        {
          "name": "user",
          "type": "address"
        },
        {
          "name": "mortgageAddress",
          "type": "address"
        }
      ],
      "name": "clearMortgage",
      "outputs": [],
      "payable": false,
      "stateMutability": "nonpayable",
      "type": "function"
    },
    {
      "constant": false,
      "inputs": [
        {
          "name": "stoneCoinAddress",
          "type": "address"
        },
        {
          "name": "user",
          "type": "address"
        },
        {
          "name": "mortgagee",
          "type": "address"
        },
        {
          "name": "mortgageAddress",
          "type": "address"
        },
        {
          "name": "marketPriceMills",
          "type": "uint256"
        },
        {
          "name": "maxDefaulted",
          "type": "bool"
        }
      ],
      "name": "partlyForfeitureMortgage",
      "outputs": [],
      "payable": false,
      "stateMutability": "nonpayable",
      "type": "function"
    }
  ],
  "bytecode": "0x608060405234801561001057600080fd5b50336000818152602081905260409020805460ff191660019081179091558054600160a060020a0319169091179055615e04806200004f6000396000f30060806040526004361061019d5763ffffffff60e060020a600035041663015755bf81146101a2578063022914a7146101d5578063058586bc1461020a57806310b62539146102435780631e8d617914610265578063220871ff1461028c57806323709ff2146102c057806323e5127c1461030c5780632df840f41461033057806338cc4831146103575780634077586f1461036c57806341be76d5146103a7578063574bf0ee146103d157806359b910d6146103e65780637642678b146104075780637e9a6f0e1461042e57806382fef30e1461045557806385f4b113146104765780638da5cb5b146104a357806395d89b41146104b857806398fb4083146104cd5780639e561cec146104f75780639f99a22414610521578063a577ccb61461055c578063a7750b9d14610589578063af5af68f146105b0578063b027ae8d146105d4578063b3721886146105fe578063b3f47daf14610639578063ba48617a1461065a578063bd283e291461067b578063bd42b4db146106df578063dd17361114610700578063f5a55ff61461072a578063f89017161461074b575b600080fd5b3480156101ae57600080fd5b506101d3600160a060020a03600435811690602435906044358116906064351661077a565b005b3480156101e157600080fd5b506101f6600160a060020a0360043516610a48565b604080519115158252519081900360200190f35b34801561021657600080fd5b50610231600160a060020a0360043581169060243516610a5d565b60408051918252519081900360200190f35b34801561024f57600080fd5b506101d367ffffffffffffffff60043516610af5565b34801561027157600080fd5b506101f6600160a060020a0360043581169060243516611264565b34801561029857600080fd5b506102a46004356112d7565b60408051600160a060020a039092168252519081900360200190f35b3480156102cc57600080fd5b506101d367ffffffffffffffff60043516600160a060020a0360243581169060443581169060643581169060843581169060a4351660c43560e43561136f565b34801561031857600080fd5b506101d3600160a060020a036004351660243561192f565b34801561033c57600080fd5b50610231600160a060020a0360043581169060243516611a66565b34801561036357600080fd5b506102a4611adb565b34801561037857600080fd5b506101d3600160a060020a036004358116906024358116906044358116906064351660843560a4351515611adf565b3480156103b357600080fd5b50610231600160a060020a0360043581169060243516604435611c30565b3480156103dd57600080fd5b506102a4611ce7565b3480156103f257600080fd5b506101d3600160a060020a0360043516611cf6565b34801561041357600080fd5b50610231600160a060020a0360043581169060243516611d43565b34801561043a57600080fd5b50610231600160a060020a0360043581169060243516611db8565b34801561046157600080fd5b506101d3600160a060020a0360043516612100565b34801561048257600080fd5b50610231600160a060020a03600435811690602435166044356064356121a0565b3480156104af57600080fd5b506102a4612d0f565b3480156104c457600080fd5b50610231612d1e565b3480156104d957600080fd5b50610231600160a060020a0360043581169060243516604435612dae565b34801561050357600080fd5b50610231600160a060020a0360043581169060243516604435612ed6565b34801561052d57600080fd5b506102a4600160a060020a036004358116906024358116906044358116906064351660843560a4351515612f6e565b34801561056857600080fd5b506101d3600160a060020a0360043581169060243581169060443516613041565b34801561059557600080fd5b506101f6600160a060020a0360043581169060243516613172565b3480156105bc57600080fd5b506101d3600160a060020a03600435166024356131e7565b3480156105e057600080fd5b50610231600160a060020a0360043581169060243516604435613629565b34801561060a57600080fd5b506101f6600160a060020a03600435811690602435811690604435811690606435906084359060a435166136c1565b34801561064557600080fd5b506101d3600160a060020a0360043516613921565b34801561066657600080fd5b506101d3600160a060020a036004351661396e565b34801561068757600080fd5b506106c4600160a060020a0360043581169060243581169060443581169067ffffffffffffffff60643516906084359060a4359060c435166139bb565b60408051921515835260208301919091528051918290030190f35b3480156106eb57600080fd5b50610231600160a060020a0360043516613c33565b34801561070c57600080fd5b50610231600160a060020a0360043581169060243516604435613ca0565b34801561073657600080fd5b506101d3600160a060020a0360043516613dc8565b34801561075757600080fd5b506102a4600160a060020a03600435811690602435906044359060643516613df2565b33600090815260208190526040812054819060ff16151561079a57600080fd5b604080517fb97cb0e1000000000000000000000000000000000000000000000000000000008152600160a060020a03888116600483015260248201889052851660448201819052915186945063b97cb0e1916064808201926020929091908290030181600087803b15801561080e57600080fd5b505af1158015610822573d6000803e3d6000fd5b505050506040513d602081101561083857600080fd5b506108449050856140cb565b506108b982600160a060020a0316632f29a0626040518163ffffffff1660e060020a028152600401602060405180830381600087803b15801561088657600080fd5b505af115801561089a573d6000803e3d6000fd5b505050506040513d60208110156108b057600080fd5b50518685614150565b506108c385614219565b50600354604080517f8015da19000000000000000000000000000000000000000000000000000000008152600160a060020a03878116600483015291519190921691638015da1991602480830192600092919082900301818387803b15801561092b57600080fd5b505af115801561093f573d6000803e3d6000fd5b5050505081600160a060020a0316634a7d7e456040518163ffffffff1660e060020a028152600401602060405180830381600087803b15801561098157600080fd5b505af1158015610995573d6000803e3d6000fd5b505050506040513d60208110156109ab57600080fd5b505190506000811115610a40576109c181614219565b50610a3682600160a060020a0316632f29a0626040518163ffffffff1660e060020a028152600401602060405180830381600087803b158015610a0357600080fd5b505af1158015610a17573d6000803e3d6000fd5b505050506040513d6020811015610a2d57600080fd5b50518285614150565b50610a4084612100565b505050505050565b60006020819052908152604090205460ff1681565b6004805460408051600080516020615d998339815191528152600160a060020a038581169482019490945285841660248201529051600093909216916304ac71f99160448082019260209290919082900301818787803b158015610ac057600080fd5b505af1158015610ad4573d6000803e3d6000fd5b505050506040513d6020811015610aea57600080fd5b505190505b92915050565b336000908152602081905260408120548190819081908190819081908190819060ff161515610b2357600080fd5b60048054604080517f63fd16e400000000000000000000000000000000000000000000000000000000815267ffffffffffffffff8e169381019390935251600160a060020a03909116916363fd16e49160248083019260209291908290030181600087803b158015610b9457600080fd5b505af1158015610ba8573d6000803e3d6000fd5b505050506040513d6020811015610bbe57600080fd5b50511515610bcb57600080fd5b60048054604080517f411bd4b800000000000000000000000000000000000000000000000000000000815267ffffffffffffffff8e169381019390935251600160a060020a039091169163411bd4b89160248083019260209291908290030181600087803b158015610c3c57600080fd5b505af1158015610c50573d6000803e3d6000fd5b505050506040513d6020811015610c6657600080fd5b505160048054604080517f621e4ab700000000000000000000000000000000000000000000000000000000815267ffffffffffffffff8f169381019390935251929b50600160a060020a03169163621e4ab7916024808201926020929091908290030181600087803b158015610cdb57600080fd5b505af1158015610cef573d6000803e3d6000fd5b505050506040513d6020811015610d0557600080fd5b505160048054604080517f9e2c041e00000000000000000000000000000000000000000000000000000000815267ffffffffffffffff8f169381019390935251929a50600160a060020a031691639e2c041e916024808201926020929091908290030181600087803b158015610d7a57600080fd5b505af1158015610d8e573d6000803e3d6000fd5b505050506040513d6020811015610da457600080fd5b505160048054604080517fe11a9cb200000000000000000000000000000000000000000000000000000000815267ffffffffffffffff8f169381019390935251929950600160a060020a03169163e11a9cb2916024808201926020929091908290030181600087803b158015610e1957600080fd5b505af1158015610e2d573d6000803e3d6000fd5b505050506040513d6020811015610e4357600080fd5b505160048054604080517fbd8d6e6d00000000000000000000000000000000000000000000000000000000815267ffffffffffffffff8f169381019390935251929850600160a060020a03169163bd8d6e6d916024808201926020929091908290030181600087803b158015610eb857600080fd5b505af1158015610ecc573d6000803e3d6000fd5b505050506040513d6020811015610ee257600080fd5b505160048054604080517ffcbd3e5c00000000000000000000000000000000000000000000000000000000815267ffffffffffffffff8f169381019390935251929750600160a060020a03169163fcbd3e5c916024808201926020929091908290030181600087803b158015610f5757600080fd5b505af1158015610f6b573d6000803e3d6000fd5b505050506040513d6020811015610f8157600080fd5b505160048054604080517fd38ee48100000000000000000000000000000000000000000000000000000000815267ffffffffffffffff8f169381019390935251929650600160a060020a03169163d38ee481916024808201926020929091908290030181600087803b158015610ff657600080fd5b505af115801561100a573d6000803e3d6000fd5b505050506040513d602081101561102057600080fd5b50516004805460408051600080516020615d998339815191528152600160a060020a038a8116948201949094528c8416602482015290519396509116916304ac71f9916044808201926020929091908290030181600087803b15801561108557600080fd5b505af1158015611099573d6000803e3d6000fd5b505050506040513d60208110156110af57600080fd5b505160048054604080517f70667d3a00000000000000000000000000000000000000000000000000000000815267ffffffffffffffff8f169381019390935251929450600160a060020a0316916370667d3a916024808201926020929091908290030181600087803b15801561112457600080fd5b505af1158015611138573d6000803e3d6000fd5b505050506040513d602081101561114e57600080fd5b505190506111618a828b868c8c8c61429e565b6111708486858b868c8c614b48565b60048054604080517fd294f2e100000000000000000000000000000000000000000000000000000000815267ffffffffffffffff8e16938101939093526000602484018190529051600160a060020a039092169263d294f2e1926044808301939282900301818387803b1580156111e657600080fd5b505af11580156111fa573d6000803e3d6000fd5b505060408051600160a060020a03808d168252808a1660208301528d1681830152606081018b9052608081018a905290517fb6db6d9e428506726a64ff543d416f95d128b274f216d8b7dd72fd0226a0e7be93509081900360a0019150a150505050505050505050565b600254604080517f1e8d6179000000000000000000000000000000000000000000000000000000008152600160a060020a038581166004830152848116602483015291516000939290921691631e8d61799160448082019260209290919082900301818787803b158015610ac057600080fd5b600354604080517f220871ff000000000000000000000000000000000000000000000000000000008152600481018490529051600092600160a060020a03169163220871ff91602480830192602092919082900301818787803b15801561133d57600080fd5b505af1158015611351573d6000803e3d6000fd5b505050506040513d602081101561136757600080fd5b505192915050565b3360009081526020819052604081205481908190819060ff16151561139357600080fd5b600160a060020a0388161561144157600354604080517fe3c72cdb000000000000000000000000000000000000000000000000000000008152600160a060020a038b811660048301529151919092169163e3c72cdb9160248083019260209291908290030181600087803b15801561140a57600080fd5b505af115801561141e573d6000803e3d6000fd5b505050506040513d602081101561143457600080fd5b5051151561144157600080fd5b60048054604080517f7642678b000000000000000000000000000000000000000000000000000000008152600160a060020a038e8116948201949094528e841660248201529051899390921691637642678b916044808201926020929091908290030181600087803b1580156114b657600080fd5b505af11580156114ca573d6000803e3d6000fd5b505050506040513d60208110156114e057600080fd5b505110156114ed57600080fd5b6004805460408051600080516020615d998339815191528152600160a060020a038e8116948201949094528e84166024820152905192909116916304ac71f9916044808201926020929091908290030181600087803b15801561154f57600080fd5b505af1158015611563573d6000803e3d6000fd5b505050506040513d602081101561157957600080fd5b505160048054604080517f2fa9cb80000000000000000000000000000000000000000000000000000000008152600160a060020a038f8116948201949094528f841660248201529051939750911691632fa9cb80916044808201926020929091908290030181600087803b1580156115f057600080fd5b505af1158015611604573d6000803e3d6000fd5b505050506040513d602081101561161a57600080fd5b505160048054604080517fa2c4ced8000000000000000000000000000000000000000000000000000000008152600160a060020a038e8116948201949094528f84166024820152905193965091169163a2c4ced8916044808201926020929091908290030181600087803b15801561169157600080fd5b505af11580156116a5573d6000803e3d6000fd5b505050506040513d60208110156116bb57600080fd5b505191506116cf868663ffffffff61534e16565b9050600460009054906101000a9004600160a060020a0316600160a060020a031663a1ea85de8d60018e8e8e8e8e8e8e8b8f8f8f6040518e63ffffffff1660e060020a028152600401808e67ffffffffffffffff1667ffffffffffffffff1681526020018d1515151581526020018c600160a060020a0316600160a060020a031681526020018b600160a060020a0316600160a060020a031681526020018a600160a060020a0316600160a060020a0316815260200189600160a060020a0316600160a060020a0316815260200188600160a060020a0316600160a060020a0316815260200187815260200186815260200185815260200184815260200183151515158152602001821515151581526020019d5050505050505050505050505050600060405180830381600087803b15801561180a57600080fd5b505af115801561181e573d6000803e3d6000fd5b5050505085600460009054906101000a9004600160a060020a0316600160a060020a0316632df840f48b8e6040518363ffffffff1660e060020a0281526004018083600160a060020a0316600160a060020a0316815260200182600160a060020a0316600160a060020a0316815260200192505050602060405180830381600087803b1580156118ad57600080fd5b505af11580156118c1573d6000803e3d6000fd5b505050506040513d60208110156118d757600080fd5b505110156118e457600080fd5b6040805167ffffffffffffffff8e16815290517fb5b0e23ec8f993d3fceeaeae4cf1ac41e719072a02eaaf5952fcafabdcbb11df9181900360200190a1505050505050505050505050565b3360009081526020819052604090205460ff16151561194d57600080fd5b60048054604080517f9eaeec3c000000000000000000000000000000000000000000000000000000008152600160a060020a03868116948201949094529051929091169163d9b40fac918591611a009186918691639eaeec3c9160248083019260209291908290030181600087803b1580156119c857600080fd5b505af11580156119dc573d6000803e3d6000fd5b505050506040513d60208110156119f257600080fd5b50519063ffffffff61537716565b6040518363ffffffff1660e060020a0281526004018083600160a060020a0316600160a060020a0316815260200182815260200192505050600060405180830381600087803b158015611a5257600080fd5b505af1158015610a40573d6000803e3d6000fd5b60048054604080517f2df840f4000000000000000000000000000000000000000000000000000000008152600160a060020a03858116948201949094528584166024820152905160009390921691632df840f49160448082019260209290919082900301818787803b158015610ac057600080fd5b3090565b3360009081526020819052604090205460ff161515611afd57600080fd5b600254604080517f4077586f000000000000000000000000000000000000000000000000000000008152600160a060020a0389811660048301528881166024830152878116604483015286811660648301526084820186905284151560a483015291519190921691634077586f9160c480830192600092919082900301818387803b158015611b8b57600080fd5b505af1158015611b9f573d6000803e3d6000fd5b505050508015610a4057600354604080517f6eba2823000000000000000000000000000000000000000000000000000000008152600160a060020a03868116600483015291519190921691636eba282391602480830192600092919082900301818387803b158015611c1057600080fd5b505af1158015611c24573d6000803e3d6000fd5b50505050505050505050565b3360009081526020819052604081205460ff161515611c4e57600080fd5b60048054604080517f41be76d5000000000000000000000000000000000000000000000000000000008152600160a060020a0388811694820194909452868416602482015260448101869052905192909116916341be76d59160648082019260009290919082900301818387803b158015611cc857600080fd5b505af1158015611cdc573d6000803e3d6000fd5b505050509392505050565b600254600160a060020a031681565b3360009081526020819052604090205460ff161515611d1457600080fd5b6004805473ffffffffffffffffffffffffffffffffffffffff1916600160a060020a0392909216919091179055565b60048054604080517f7642678b000000000000000000000000000000000000000000000000000000008152600160a060020a03858116948201949094528584166024820152905160009390921691637642678b9160448082019260209290919082900301818787803b158015610ac057600080fd5b33600090815260208190526040812054819081908190819060ff161515611dde57600080fd5b85935083600160a060020a031663603daf9a6040518163ffffffff1660e060020a028152600401602060405180830381600087803b158015611e1f57600080fd5b505af1158015611e33573d6000803e3d6000fd5b505050506040513d6020811015611e4957600080fd5b5051604080517f1832ca2e0000000000000000000000000000000000000000000000000000000081529051919450600160a060020a03861691631832ca2e916004808201926020929091908290030181600087803b158015611eaa57600080fd5b505af1158015611ebe573d6000803e3d6000fd5b505050506040513d6020811015611ed457600080fd5b50519150600160a060020a0387811690841614611ef057600080fd5b60025460408051600080516020615d798339815191528152600160a060020a0386811660048301529151859392909216916370a08231916024808201926020929091908290030181600087803b158015611f4957600080fd5b505af1158015611f5d573d6000803e3d6000fd5b505050506040513d6020811015611f7357600080fd5b505111611f7f57600080fd5b600260009054906101000a9004600160a060020a0316600160a060020a031663e5affb2c8486600160a060020a0316632f29a0626040518163ffffffff1660e060020a028152600401602060405180830381600087803b158015611fe257600080fd5b505af1158015611ff6573d6000803e3d6000fd5b505050506040513d602081101561200c57600080fd5b50516040805160e060020a63ffffffff8616028152600160a060020a03938416600482015292909116602483015260448201869052600060648301819052905160848084019382900301818387803b15801561206757600080fd5b505af115801561207b573d6000803e3d6000fd5b5050505083600160a060020a0316634538f92f6040518163ffffffff1660e060020a028152600401602060405180830381600087803b1580156120bd57600080fd5b505af11580156120d1573d6000803e3d6000fd5b505050506040513d60208110156120e757600080fd5b505190506120f6818488613041565b5095945050505050565b3360009081526020819052604090205460ff16151561211e57600080fd5b600354604080517f82fef30e000000000000000000000000000000000000000000000000000000008152600160a060020a038481166004830152915191909216916382fef30e91602480830192600092919082900301818387803b15801561218557600080fd5b505af1158015612199573d6000803e3d6000fd5b5050505050565b33600090815260208190526040812054819081908190819081908190819060ff1615156121cc57600080fd5b600254604080517f51149616000000000000000000000000000000000000000000000000000000008152600160a060020a038f811660048301529151919092169163511496169160248083019260209291908290030181600087803b15801561223457600080fd5b505af1158015612248573d6000803e3d6000fd5b505050506040513d602081101561225e57600080fd5b5051151561226b57600080fd5b8a955085600160a060020a031663603daf9a6040518163ffffffff1660e060020a028152600401602060405180830381600087803b1580156122ac57600080fd5b505af11580156122c0573d6000803e3d6000fd5b505050506040513d60208110156122d657600080fd5b5051604080517f4ae01cdc0000000000000000000000000000000000000000000000000000000081529051919650600160a060020a03881691634ae01cdc916004808201926020929091908290030181600087803b15801561233757600080fd5b505af115801561234b573d6000803e3d6000fd5b505050506040513d602081101561236157600080fd5b50519350600089111561241157600254604080517fb069be71000000000000000000000000000000000000000000000000000000008152600160a060020a038f811660048301529151919092169163b069be719160248083019260209291908290030181600087803b1580156123d657600080fd5b505af11580156123ea573d6000803e3d6000fd5b505050506040513d602081101561240057600080fd5b5051151561240d57600080fd5b8893505b6000841161241e57600080fd5b60025460408051600080516020615d798339815191528152600160a060020a0388811660048301529151879392909216916370a08231916024808201926020929091908290030181600087803b15801561247757600080fd5b505af115801561248b573d6000803e3d6000fd5b505050506040513d60208110156124a157600080fd5b5051101561294a5785600160a060020a031663485d498a6040518163ffffffff1660e060020a028152600401602060405180830381600087803b1580156124e757600080fd5b505af11580156124fb573d6000803e3d6000fd5b505050506040513d602081101561251157600080fd5b50519250600267ffffffffffffffff841614156126e95761261686600160a060020a0316634538f92f6040518163ffffffff1660e060020a028152600401602060405180830381600087803b15801561256957600080fd5b505af115801561257d573d6000803e3d6000fd5b505050506040513d602081101561259357600080fd5b505160408051600080516020615db9833981519152815290518891600160a060020a038b1691632f29a062916004808201926020929091908290030181600087803b1580156125e157600080fd5b505af11580156125f5573d6000803e3d6000fd5b505050506040513d602081101561260b57600080fd5b50518e8e6001611adf565b7f2f1004a3da4d66a6a17f18d5799760a01e64d5e1c50955ef050596c9547260068b8688600160a060020a0316632f29a0626040518163ffffffff1660e060020a028152600401602060405180830381600087803b15801561267757600080fd5b505af115801561268b573d6000803e3d6000fd5b505050506040513d60208110156126a157600080fd5b505160408051600160a060020a0394851681529284166020840152921681830152606081018a9052608081018790524260a082015290519081900360c00190a1869750612d00565b600354604080517fbd29d390000000000000000000000000000000000000000000000000000000008152600160a060020a038e811660048301529151919092169163bd29d39091602480830192600092919082900301818387803b15801561275057600080fd5b505af1158015612764573d6000803e3d6000fd5b5050505061285686600160a060020a0316634538f92f6040518163ffffffff1660e060020a028152600401602060405180830381600087803b1580156127a957600080fd5b505af11580156127bd573d6000803e3d6000fd5b505050506040513d60208110156127d357600080fd5b505160408051600080516020615db9833981519152815290518891600160a060020a038b1691632f29a062916004808201926020929091908290030181600087803b15801561282157600080fd5b505af1158015612835573d6000803e3d6000fd5b505050506040513d602081101561284b57600080fd5b50518e8e6000611adf565b60025460408051600080516020615d798339815191528152600160a060020a038881166004830152915191909216916370a082319160248083019260209291908290030181600087803b1580156128ac57600080fd5b505af11580156128c0573d6000803e3d6000fd5b505050506040513d60208110156128d657600080fd5b505160408051600080516020615db9833981519152815290519198507f2f1004a3da4d66a6a17f18d5799760a01e64d5e1c50955ef050596c954726006918d918891600160a060020a038b1691632f29a0629160048083019260209291908290030181600087803b15801561267757600080fd5b6129bf85858d89600160a060020a0316634538f92f6040518163ffffffff1660e060020a028152600401602060405180830381600087803b15801561298e57600080fd5b505af11580156129a2573d6000803e3d6000fd5b505050506040513d60208110156129b857600080fd5b505161077a565b85600160a060020a03166329b293ab6040518163ffffffff1660e060020a028152600401602060405180830381600087803b1580156129fd57600080fd5b505af1158015612a11573d6000803e3d6000fd5b505050506040513d6020811015612a2757600080fd5b50511515612b9e5785600160a060020a0316634ae01cdc6040518163ffffffff1660e060020a028152600401602060405180830381600087803b158015612a6d57600080fd5b505af1158015612a81573d6000803e3d6000fd5b505050506040513d6020811015612a9757600080fd5b50519150811515612b9e5785600160a060020a0316634538f92f6040518163ffffffff1660e060020a028152600401602060405180830381600087803b158015612ae057600080fd5b505af1158015612af4573d6000803e3d6000fd5b505050506040513d6020811015612b0a57600080fd5b5051600254604080517fa577ccb6000000000000000000000000000000000000000000000000000000008152600160a060020a03808516600483015289811660248301528f81166044830152915193945091169163a577ccb69160648082019260009290919082900301818387803b158015612b8557600080fd5b505af1158015612b99573d6000803e3d6000fd5b505050505b60025460408051600080516020615d798339815191528152600160a060020a038881166004830152915191909216916370a082319160248083019260209291908290030181600087803b158015612bf457600080fd5b505af1158015612c08573d6000803e3d6000fd5b505050506040513d6020811015612c1e57600080fd5b505160408051600080516020615db9833981519152815290519198507fd9187982ee1602bb76fe11eb78d900512809cbdd694d7dacc872d772ebf98a44918d918891600160a060020a038b1691632f29a0629160048083019260209291908290030181600087803b158015612c9257600080fd5b505af1158015612ca6573d6000803e3d6000fd5b505050506040513d6020811015612cbc57600080fd5b505160408051600160a060020a0394851681529284166020840152921681830152606081018a9052608081018790524260a082015290519081900360c00190a18397505b50505050505050949350505050565b600154600160a060020a031681565b600254604080517f95d89b410000000000000000000000000000000000000000000000000000000081529051600092600160a060020a0316916395d89b4191600480830192602092919082900301818787803b158015612d7d57600080fd5b505af1158015612d91573d6000803e3d6000fd5b505050506040513d6020811015612da757600080fd5b5051905090565b3360009081526020819052604081205460ff161515612dcc57600080fd5b60048054604080517f98fb4083000000000000000000000000000000000000000000000000000000008152600160a060020a0388811694820194909452868416602482015260448101869052905192909116916398fb40839160648082019260009290919082900301818387803b158015612e4657600080fd5b505af1158015612e5a573d6000803e3d6000fd5b505060048054604080517ffae75550000000000000000000000000000000000000000000000000000000008152600160a060020a038a8116948201949094528884166024820152600060448201819052915193909216945063fae755509350606480830193919282900301818387803b158015611cc857600080fd5b3360009081526020819052604081205460ff161515612ef457600080fd5b60048054604080517f9e561cec000000000000000000000000000000000000000000000000000000008152600160a060020a038881169482019490945286841660248201526044810186905290519290911691639e561cec9160648082019260009290919082900301818387803b158015611cc857600080fd5b600354600254604080517fded5970a000000000000000000000000000000000000000000000000000000008152600160a060020a038a811660048301528981166024830152888116604483015287811660648301526084820187905285151560a483015292831660c482015290516000938493169163ded5970a9160e480830192602092919082900301818787803b15801561300957600080fd5b505af115801561301d573d6000803e3d6000fd5b505050506040513d602081101561303357600080fd5b505198975050505050505050565b3360009081526020819052604090205460ff16151561305f57600080fd5b600354604080517f6eba2823000000000000000000000000000000000000000000000000000000008152600160a060020a03848116600483015291519190921691636eba282391602480830192600092919082900301818387803b1580156130c657600080fd5b505af11580156130da573d6000803e3d6000fd5b5050600254604080517fa577ccb6000000000000000000000000000000000000000000000000000000008152600160a060020a03888116600483015287811660248301528681166044830152915191909216935063a577ccb69250606480830192600092919082900301818387803b15801561315557600080fd5b505af1158015613169573d6000803e3d6000fd5b50505050505050565b60048054604080517f2fa9cb80000000000000000000000000000000000000000000000000000000008152600160a060020a03858116948201949094528584166024820152905160009390921691632fa9cb809160448082019260209290919082900301818787803b158015610ac057600080fd5b3360009081526020819052604081205460ff16151561320557600080fd5b60048054604080517f9eaeec3c000000000000000000000000000000000000000000000000000000008152600160a060020a038781169482019490945290519290911691639eaeec3c916024808201926020929091908290030181600087803b15801561327157600080fd5b505af1158015613285573d6000803e3d6000fd5b505050506040513d602081101561329b57600080fd5b50519050600081116132ac57600080fd5b8181111561347d57600454600160a060020a031663d9b40fac846132d6848663ffffffff61538416565b6040518363ffffffff1660e060020a0281526004018083600160a060020a0316600160a060020a0316815260200182815260200192505050600060405180830381600087803b15801561332857600080fd5b505af115801561333c573d6000803e3d6000fd5b5050600254604080517f72ad833b000000000000000000000000000000000000000000000000000000008152600160a060020a038881166004830152602482018890526000604483018190529251931694506372ad833b9350606480820193602093909283900390910190829087803b1580156133b857600080fd5b505af11580156133cc573d6000803e3d6000fd5b505050506040513d60208110156133e257600080fd5b5050600254604080517f7648b9d8000000000000000000000000000000000000000000000000000000008152600481018590529051600160a060020a0390921691637648b9d8916024808201926020929091908290030181600087803b15801561344b57600080fd5b505af115801561345f573d6000803e3d6000fd5b505050506040513d602081101561347557600080fd5b506136249050565b600254604080517f72ad833b000000000000000000000000000000000000000000000000000000008152600160a060020a0386811660048301526024820185905260006044830181905292519316926372ad833b92606480840193602093929083900390910190829087803b1580156134f557600080fd5b505af1158015613509573d6000803e3d6000fd5b505050506040513d602081101561351f57600080fd5b5050600254604080517f7648b9d8000000000000000000000000000000000000000000000000000000008152600481018490529051600160a060020a0390921691637648b9d8916024808201926020929091908290030181600087803b15801561358857600080fd5b505af115801561359c573d6000803e3d6000fd5b505050506040513d60208110156135b257600080fd5b505060048054604080517fd9b40fac000000000000000000000000000000000000000000000000000000008152600160a060020a03878116948201949094526000602482018190529151939092169263d9b40fac92604480820193929182900301818387803b15801561315557600080fd5b505050565b3360009081526020819052604081205460ff16151561364757600080fd5b60048054604080517fb027ae8d000000000000000000000000000000000000000000000000000000008152600160a060020a03888116948201949094528684166024820152604481018690529051929091169163b027ae8d9160648082019260009290919082900301818387803b158015611cc857600080fd5b600254604080517f5cdcaadd000000000000000000000000000000000000000000000000000000008152600160a060020a038781166004830152915160009384931691635cdcaadd91602480830192602092919082900301818787803b15801561372a57600080fd5b505af115801561373e573d6000803e3d6000fd5b505050506040513d602081101561375457600080fd5b50519050801561376357600080fd5b60048054604080517f2df840f4000000000000000000000000000000000000000000000000000000008152600160a060020a038c811694820194909452898416602482015290519290911691632df840f4916044808201926020929091908290030181600087803b1580156137d757600080fd5b505af11580156137eb573d6000803e3d6000fd5b505050506040513d602081101561380157600080fd5b50511561380d57600080fd5b6138178387611264565b151561382257600080fd5b60048054604080517f13879e3a0000000000000000000000000000000000000000000000000000000081529283018790526024830188905260016044840152600160a060020a038a811660648501528b8116608485015289811660a485015290519116916313879e3a9160c480830192600092919082900301818387803b1580156138ac57600080fd5b505af11580156138c0573d6000803e3d6000fd5b505060408051600160a060020a03808d1682528a1660208201528082018990526060810188905290517fb57ec5a45154eaa83bade8c3a6f46e07960e3377567da78c6df9e67750219c899350908190036080019150a1509695505050505050565b3360009081526020819052604090205460ff16151561393f57600080fd5b6002805473ffffffffffffffffffffffffffffffffffffffff1916600160a060020a0392909216919091179055565b3360009081526020819052604090205460ff16151561398c57600080fd5b6003805473ffffffffffffffffffffffffffffffffffffffff1916600160a060020a0392909216919091179055565b60008060006139d78a8a8a8a67ffffffffffffffff1688615396565b600254604080517fb97cb0e1000000000000000000000000000000000000000000000000000000008152600160a060020a038d8116600483015267ffffffffffffffff8b1660248301528b811660448301529151919092169163b97cb0e19160648083019260209291908290030181600087803b158015613a5757600080fd5b505af1158015613a6b573d6000803e3d6000fd5b505050506040513d6020811015613a8157600080fd5b5050600254604080517fa67ca61200000000000000000000000000000000000000000000000000000000815267ffffffffffffffff8a1660048201529051600160a060020a039092169163a67ca612916024808201926020929091908290030181600087803b158015613af357600080fd5b505af1158015613b07573d6000803e3d6000fd5b505050506040513d6020811015613b1d57600080fd5b5050600354613b46908690889067ffffffffffffffff8b1690600160a060020a03168e8d61559a565b60025460408051600080516020615d798339815191528152600160a060020a038d81166004830152915191909216916370a082319160248083019260209291908290030181600087803b158015613b9c57600080fd5b505af1158015613bb0573d6000803e3d6000fd5b505050506040513d6020811015613bc657600080fd5b505160408051338152600160a060020a038b166020820152808201899052606081018890526080810183905290519192507fa4104ed75ae25eeabe57733d26451698d5095182b0cb12eb336f2be5779e9cc7919081900360a00190a160019a909950975050505050505050565b60048054604080517f9eaeec3c000000000000000000000000000000000000000000000000000000008152600160a060020a0385811694820194909452905160009390921691639eaeec3c9160248082019260209290919082900301818787803b15801561133d57600080fd5b3360009081526020819052604081205460ff161515613cbe57600080fd5b60048054604080517fdd173611000000000000000000000000000000000000000000000000000000008152600160a060020a03888116948201949094528684166024820152604481018690529051929091169163dd1736119160648082019260009290919082900301818387803b158015613d3857600080fd5b505af1158015613d4c573d6000803e3d6000fd5b505060048054604080517f079ea741000000000000000000000000000000000000000000000000000000008152600160a060020a038a8116948201949094528884166024820152600060448201819052915193909216945063079ea7419350606480830193919282900301818387803b158015611cc857600080fd5b3360009081526020819052604090205460ff161515613de657600080fd5b613def8161562b565b50565b3360009081526020819052604081205460ff161515613e1057600080fd5b60008411613e1d57600080fd5b60008311613e2a57600080fd5b60025460408051600080516020615d798339815191528152600160a060020a038881166004830152915191909216916370a082319160248083019260209291908290030181600087803b158015613e8057600080fd5b505af1158015613e94573d6000803e3d6000fd5b505050506040513d6020811015613eaa57600080fd5b5051841115613eb857600080fd5b600254604080517fb97cb0e1000000000000000000000000000000000000000000000000000000008152600160a060020a03888116600483015260248201889052600060448301819052925193169263b97cb0e192606480840193602093929083900390910190829087803b158015613f3057600080fd5b505af1158015613f44573d6000803e3d6000fd5b505050506040513d6020811015613f5a57600080fd5b5050600254604080517fa67ca612000000000000000000000000000000000000000000000000000000008152600481018790529051600160a060020a039092169163a67ca612916024808201926020929091908290030181600087803b158015613fc357600080fd5b505af1158015613fd7573d6000803e3d6000fd5b505050506040513d6020811015613fed57600080fd5b505060048054604080517fd9b40fac000000000000000000000000000000000000000000000000000000008152600160a060020a0389811694820194909452602481018890529051929091169163d9b40fac9160448082019260009290919082900301818387803b15801561406157600080fd5b505af1158015614075573d6000803e3d6000fd5b505060408051600160a060020a03891681526020810188905280820187905290517f4b96a655cd87af3c9307f0cc5ceb3b6c617e2a7ff3c70486363eb814829b289a9350908190036060019150a1509392505050565b3360009081526020819052604081205460ff1615156140e957600080fd5b600254604080517fa67ca612000000000000000000000000000000000000000000000000000000008152600481018590529051600160a060020a039092169163a67ca612916024808201926020929091908290030181600087803b15801561133d57600080fd5b3360009081526020819052604081205460ff16151561416e57600080fd5b600254604080517f72ad833b000000000000000000000000000000000000000000000000000000008152600160a060020a038781166004830152602482018790528581166044830152915191909216916372ad833b9160648083019260209291908290030181600087803b1580156141e557600080fd5b505af11580156141f9573d6000803e3d6000fd5b505050506040513d602081101561420f57600080fd5b5051949350505050565b3360009081526020819052604081205460ff16151561423757600080fd5b600254604080517f7648b9d8000000000000000000000000000000000000000000000000000000008152600481018590529051600160a060020a0390921691637648b9d8916024808201926020929091908290030181600087803b15801561133d57600080fd5b33600090815260208190526040812054819081908190819060ff1615156142c457600080fd5b600460009054906101000a9004600160a060020a0316600160a060020a03166363fd16e48d6040518263ffffffff1660e060020a028152600401808267ffffffffffffffff1667ffffffffffffffff168152602001915050602060405180830381600087803b15801561433657600080fd5b505af115801561434a573d6000803e3d6000fd5b505050506040513d602081101561436057600080fd5b5051151561436d57600080fd5b600254604080517f5cdcaadd000000000000000000000000000000000000000000000000000000008152600160a060020a038b8116600483015291519190921691635cdcaadd9160248083019260209291908290030181600087803b1580156143d557600080fd5b505af11580156143e9573d6000803e3d6000fd5b505050506040513d60208110156143ff57600080fd5b505160048054604080517fa2c4ced8000000000000000000000000000000000000000000000000000000008152600160a060020a038f8116948201949094528c84166024820152905193985091169163a2c4ced8916044808201926020929091908290030181600087803b15801561447657600080fd5b505af115801561448a573d6000803e3d6000fd5b505050506040513d60208110156144a057600080fd5b50511561481a578a935083600160a060020a0316631832ca2e6040518163ffffffff1660e060020a028152600401602060405180830381600087803b1580156144e857600080fd5b505af11580156144fc573d6000803e3d6000fd5b505050506040513d602081101561451257600080fd5b50519250828911156146f15761452e898463ffffffff61538416565b600254604080517f72ad833b000000000000000000000000000000000000000000000000000000008152600160a060020a038e81166004830152602482018590528c8116604483015291519395509116916372ad833b916064808201926020929091908290030181600087803b1580156145a757600080fd5b505af11580156145bb573d6000803e3d6000fd5b505050506040513d60208110156145d157600080fd5b5050600254604080517f7648b9d8000000000000000000000000000000000000000000000000000000008152600481018590529051600160a060020a0390921691637648b9d8916024808201926020929091908290030181600087803b15801561463a57600080fd5b505af115801561464e573d6000803e3d6000fd5b505050506040513d602081101561466457600080fd5b5050600354604080517f0b96c457000000000000000000000000000000000000000000000000000000008152600160a060020a038e811660048301526024820187905291519190921691630b96c45791604480830192600092919082900301818387803b1580156146d457600080fd5b505af11580156146e8573d6000803e3d6000fd5b50505050614778565b600354604080517f0b96c457000000000000000000000000000000000000000000000000000000008152600160a060020a038e81166004830152602482018d905291519190921691630b96c45791604480830192600092919082900301818387803b15801561475f57600080fd5b505af1158015614773573d6000803e3d6000fd5b505050505b600254604080517f797d6b30000000000000000000000000000000000000000000000000000000008152600160a060020a038b811660048301528e811660248301528d81166044830152606482018b9052608482018a90529151919092169163797d6b309160a480830192600092919082900301818387803b1580156147fd57600080fd5b505af1158015614811573d6000803e3d6000fd5b505050506149ee565b84151561495857600254604080517f72ad833b000000000000000000000000000000000000000000000000000000008152600160a060020a038d81166004830152602482018d90528b81166044830152915191909216916372ad833b9160648083019260209291908290030181600087803b15801561489857600080fd5b505af11580156148ac573d6000803e3d6000fd5b505050506040513d60208110156148c257600080fd5b5050600254604080517f7648b9d8000000000000000000000000000000000000000000000000000000008152600481018c90529051600160a060020a0390921691637648b9d8916024808201926020929091908290030181600087803b15801561492b57600080fd5b505af115801561493f573d6000803e3d6000fd5b505050506040513d602081101561495557600080fd5b50505b600254604080517f31de7d15000000000000000000000000000000000000000000000000000000008152600160a060020a038b811660048301528d81166024830152604482018b9052606482018a9052915191909216916331de7d1591608480830192600092919082900301818387803b1580156149d557600080fd5b505af11580156149e9573d6000803e3d6000fd5b505050505b60048054604080517f2df840f4000000000000000000000000000000000000000000000000000000008152600160a060020a038e8116948201949094528b8416602482015290519290911691632df840f4916044808201926020929091908290030181600087803b158015614a6257600080fd5b505af1158015614a76573d6000803e3d6000fd5b505050506040513d6020811015614a8c57600080fd5b5051905060008110801590614aa15750868110155b1515614aac57600080fd5b600454600160a060020a03166398fb4083898c614acf858c63ffffffff61538416565b6040805160e060020a63ffffffff8716028152600160a060020a03948516600482015292909316602483015260448201529051606480830192600092919082900301818387803b158015614b2257600080fd5b505af1158015614b36573d6000803e3d6000fd5b50505050505050505050505050505050565b336000908152602081905260408120548190819060ff161515614b6a57600080fd5b60048054604080517f2fa9cb80000000000000000000000000000000000000000000000000000000008152600160a060020a038d8116948201949094528a8416602482015290519290911691632fa9cb80916044808201926020929091908290030181600087803b158015614bde57600080fd5b505af1158015614bf2573d6000803e3d6000fd5b505050506040513d6020811015614c0857600080fd5b505115614c2357614c1e8a898b8989898d61569e565b614e86565b6004805460408051600080516020615d998339815191528152600160a060020a038d8116948201949094528a8416602482015290518b93909216916304ac71f9916044808201926020929091908290030181600087803b158015614c8657600080fd5b505af1158015614c9a573d6000803e3d6000fd5b505050506040513d6020811015614cb057600080fd5b50511015614cbd57600080fd5b600254604080517fa9d424e2000000000000000000000000000000000000000000000000000000008152600160a060020a038a811660048301528c8116602483015260448201899052606482018890529151919092169163a9d424e291608480830192600092919082900301818387803b158015614d3a57600080fd5b505af1158015614d4e573d6000803e3d6000fd5b50506004805460408051600080516020615d998339815191528152600160a060020a038f8116948201949094528c841660248201529051614df295508d945092909116916304ac71f9916044808201926020929091908290030181600087803b158015614dba57600080fd5b505af1158015614dce573d6000803e3d6000fd5b505050506040513d6020811015614de457600080fd5b50519063ffffffff61538416565b60048054604080517f9e561cec000000000000000000000000000000000000000000000000000000008152600160a060020a038e8116948201949094528b84166024820152604481018590529051939650911691639e561cec9160648082019260009290919082900301818387803b158015614e6d57600080fd5b505af1158015614e81573d6000803e3d6000fd5b505050505b60048054604080517f7642678b000000000000000000000000000000000000000000000000000000008152600160a060020a038d8116948201949094528a84166024820152905160009390921691637642678b9160448082019260209290919082900301818787803b158015614efb57600080fd5b505af1158015614f0f573d6000803e3d6000fd5b505050506040513d6020811015614f2557600080fd5b50511015614f3257600080fd5b60048054604080517f7642678b000000000000000000000000000000000000000000000000000000008152600160a060020a038d8116948201949094528a841660248201529051614fa89389931691637642678b9160448083019260209291908290030181600087803b158015614dba57600080fd5b60048054604080517f9e561cec000000000000000000000000000000000000000000000000000000008152600160a060020a038e8116948201949094528b84166024820152604481018590529051939550911691639e561cec9160648082019260009290919082900301818387803b15801561502357600080fd5b505af1158015615037573d6000803e3d6000fd5b50506004805460408051600080516020615d998339815191528152600160a060020a038f8116948201949094528c8416602482015290519290911693506304ac71f992506044808201926020929091908290030181600087803b15801561509d57600080fd5b505af11580156150b1573d6000803e3d6000fd5b505050506040513d60208110156150c757600080fd5b505160048054604080517f7642678b000000000000000000000000000000000000000000000000000000008152600160a060020a038e8116948201949094528b841660248201529051939450911691637642678b916044808201926020929091908290030181600087803b15801561513e57600080fd5b505af1158015615152573d6000803e3d6000fd5b505050506040513d602081101561516857600080fd5b50511580156151775750600081115b15611c2457600254604080517f72ad833b000000000000000000000000000000000000000000000000000000008152600160a060020a038c81166004830152602482018590528a81166044830152915191909216916372ad833b9160648083019260209291908290030181600087803b1580156151f357600080fd5b505af1158015615207573d6000803e3d6000fd5b505050506040513d602081101561521d57600080fd5b5050600254604080517f7648b9d8000000000000000000000000000000000000000000000000000000008152600481018490529051600160a060020a0390921691637648b9d8916024808201926020929091908290030181600087803b15801561528657600080fd5b505af115801561529a573d6000803e3d6000fd5b505050506040513d60208110156152b057600080fd5b505060048054604080517f9e561cec000000000000000000000000000000000000000000000000000000008152600160a060020a038d8116948201949094528a8416602482015260006044820181905291519390921692639e561cec92606480820193929182900301818387803b15801561532a57600080fd5b505af115801561533e573d6000803e3d6000fd5b5050505050505050505050505050565b600082151561535f57506000610aef565b5081810281838281151561536f57fe5b0414610aef57fe5b81810182811015610aef57fe5b60008282111561539057fe5b50900390565b60025460408051600080516020615d798339815191528152600160a060020a0388811660048301529151600093849316916370a0823191602480830192602092919082900301818787803b1580156153ed57600080fd5b505af1158015615401573d6000803e3d6000fd5b505050506040513d602081101561541757600080fd5b5051604080517f28f371aa0000000000000000000000000000000000000000000000000000000081529051919350879250600160a060020a038316916328f371aa916004808201926020929091908290030181600087803b15801561547b57600080fd5b505af115801561548f573d6000803e3d6000fd5b505050506040513d60208110156154a557600080fd5b505115156154b257600080fd5b600082116154bf57600080fd5b60048054604080517f7642678b000000000000000000000000000000000000000000000000000000008152600160a060020a038b811694820194909452888416602482015290519290911691637642678b916044808201926020929091908290030181600087803b15801561553357600080fd5b505af1158015615547573d6000803e3d6000fd5b505050506040513d602081101561555d57600080fd5b50511561556957600080fd5b8184111561557657600080fd5b600160a060020a038316156131695761558f8386611264565b151561316957600080fd5b60048054604080517f31fa3d20000000000000000000000000000000000000000000000000000000008152928301899052602483018890526044830187905260016064840152600160a060020a03868116608485015285811660a485015284811660c485015290519116916331fa3d209160e480830192600092919082900301818387803b158015611c1057600080fd5b600160a060020a038116151561564057600080fd5b600154604051600160a060020a038084169216907f8be0079c531659141344cd1fd0a4f28419497f9722a3daafe3b4186f6b6457e090600090a3600160a060020a03166000908152602081905260409020805460ff19166001179055565b6000806000808a935088600160a060020a031684600160a060020a031663603daf9a6040518163ffffffff1660e060020a028152600401602060405180830381600087803b1580156156ef57600080fd5b505af1158015615703573d6000803e3d6000fd5b505050506040513d602081101561571957600080fd5b5051600160a060020a03161461572e57600080fd5b896157a985600160a060020a031663d26c5c316040518163ffffffff1660e060020a028152600401602060405180830381600087803b15801561577057600080fd5b505af1158015615784573d6000803e3d6000fd5b505050506040513d602081101561579a57600080fd5b50518a9063ffffffff61537716565b10156157b457600080fd5b83600160a060020a031663d26c5c316040518163ffffffff1660e060020a028152600401602060405180830381600087803b1580156157f257600080fd5b505af1158015615806573d6000803e3d6000fd5b505050506040513d602081101561581c57600080fd5b50516004805460408051600080516020615db983398151915281529051600160a060020a0392831693639eaeec3c938a1692632f29a06292818301926020928290030181600087803b15801561587157600080fd5b505af1158015615885573d6000803e3d6000fd5b505050506040513d602081101561589b57600080fd5b50516040805160e060020a63ffffffff8516028152600160a060020a0390921660048301525160248083019260209291908290030181600087803b1580156158e257600080fd5b505af11580156158f6573d6000803e3d6000fd5b505050506040513d602081101561590c57600080fd5b50511015615942576040517f33a32b1b6e9867f7478cba09c008a9faab59d28974e22d0b3d97aee6ffc5ea6c90600090a1615d6b565b83600160a060020a031663d6dd04f76040518163ffffffff1660e060020a028152600401602060405180830381600087803b15801561598057600080fd5b505af1158015615994573d6000803e3d6000fd5b505050506040513d60208110156159aa57600080fd5b50516004805460408051600080516020615db983398151915281529051939650600160a060020a0391821693639eaeec3c9392891692632f29a062928082019260209290918290030181600087803b158015615a0557600080fd5b505af1158015615a19573d6000803e3d6000fd5b505050506040513d6020811015615a2f57600080fd5b50516040805160e060020a63ffffffff8516028152600160a060020a0390921660048301525160248083019260209291908290030181600087803b158015615a7657600080fd5b505af1158015615a8a573d6000803e3d6000fd5b505050506040513d6020811015615aa057600080fd5b50516004805460408051600080516020615db983398151915281529051939550600160a060020a039182169363d9b40fac9392891692632f29a062928082019260209290918290030181600087803b158015615afb57600080fd5b505af1158015615b0f573d6000803e3d6000fd5b505050506040513d6020811015615b2557600080fd5b5051615b3985878f0363ffffffff61538416565b6040518363ffffffff1660e060020a0281526004018083600160a060020a0316600160a060020a0316815260200182815260200192505050600060405180830381600087803b158015615b8b57600080fd5b505af1158015615b9f573d6000803e3d6000fd5b50506004805460408051600080516020615d998339815191528152600160a060020a038f8116948201949094528a841660248201529051615c0b955088945092909116916304ac71f9916044808201926020929091908290030181600087803b158015614dba57600080fd5b60048054604080517f9e561cec000000000000000000000000000000000000000000000000000000008152600160a060020a038e8116948201949094528984166024820152604481018590529051939450911691639e561cec9160648082019260009290919082900301818387803b158015615c8657600080fd5b505af1158015615c9a573d6000803e3d6000fd5b50505050600260009054906101000a9004600160a060020a0316600160a060020a0316637998dde9868d8c8b8b6040518663ffffffff1660e060020a0281526004018086600160a060020a0316600160a060020a0316815260200185600160a060020a0316600160a060020a0316815260200184600160a060020a0316600160a060020a0316815260200183815260200182815260200195505050505050600060405180830381600087803b158015615d5257600080fd5b505af1158015615d66573d6000803e3d6000fd5b505050505b5050505050505050505050560070a082310000000000000000000000000000000000000000000000000000000004ac71f9000000000000000000000000000000000000000000000000000000002f29a06200000000000000000000000000000000000000000000000000000000a165627a7a72305820d221889d66b11132264a2b1728ba777bb93b9797b296a3274d291bcc18fe22c40029",
  "source": "pragma solidity ^0.4.24;\n\nimport \"openzeppelin-solidity/contracts/token/ERC20/StandardToken.sol\";\nimport \"openzeppelin-solidity/contracts/ownership/Ownable.sol\";\nimport 'openzeppelin-solidity/contracts/math/SafeMath.sol';\nimport \"./interfaces/CornerStoneBaseInt.sol\";\nimport \"./interfaces/MortgageOperationsInt.sol\";\nimport \"./interfaces/MortgageStoneStorageInt.sol\";\nimport \"./interfaces/MortgageInt.sol\";\nimport \"./interfaces/MortgageStoneInt.sol\";\nimport \"./interfaces/Ownables.sol\";\nimport \"./structures/MortgageRequest.sol\";\n\ncontract MortgageStoneNew  is Ownables, MortgageStoneInt{\n  using SafeMath for uint256;\n\n  event BidMortgageCreated(address user, address stoneCoinAddress, uint256 amount, uint256 limit_micros, uint256 available);\n  event AskMortgageCreated(address user, address stoneCoinAddress, uint256 amount, uint256 limit_micros);\n  event TradeMortgaged(address stoneCoinAddress, address  buyer, address  seller,  uint256 amount, uint256 price);\n  event BuyerMortgageeInsufficientBalance();\n  event MortgageeAdded(address newMortgagee, uint256 microUSDs, uint256 maxMortgage);\n  event MortgageeAddFunds(address newMortgagee, uint256 microUSDs, uint256 maxMortgage);\n  event TradeMortgageCreated(uint64 key);\n  event MortgageDefaulted(address mortgageAddress, address buyer, address mortgagee, uint256 balance, uint256 value,  uint256 timestamp);\n  event MortgagePayment(address mortgageAddress, address buyer, address mortgagee, uint256 balance, uint256 value, uint256 timestamp);\n\n  address public cornerStoneBaseAddress;\n  address mortgageOperationsAddress;\n  address storageAddress;\n  constructor() public Ownables() {\n  }\n\n\n  function setStoneBaseAddress(address _cornerStoneBaseAddress) public onlyOwner {\n    cornerStoneBaseAddress = _cornerStoneBaseAddress;\n  }\n  function setStorageAddress(address _storageAddress) public onlyOwner {\n    storageAddress = _storageAddress;\n  }\n\n  function setMortgageOperationAddress(address _mortgageOperationsAddress) public onlyOwner {\n    mortgageOperationsAddress =  _mortgageOperationsAddress;\n  }\n\n  function addMortgageBalance(address _user, uint256 microUSDs) public onlyOwner {\n    MortgageStoneStorageInt(storageAddress).setMortgageeBalance(_user, MortgageStoneStorageInt(storageAddress).getMortgageeBalance(_user).add(microUSDs));\n\n  }\n\n\n  function bidAmount(address stoneCoinAddress, address user) public view returns (uint256) {\n    return MortgageStoneStorageInt(storageAddress).bidAmount(user, stoneCoinAddress);\n  }\n\n\n  function bidValueHold(address stoneCoinAddress, address user) public view returns (uint256) {\n    return MortgageStoneStorageInt(storageAddress).bidMortgageValueHold(user, stoneCoinAddress);\n  }\n\n\n  function isBidMortgaged(address stoneCoinAddress, address user)  public view returns (bool) {\n    return MortgageStoneStorageInt(storageAddress).bidMortgaged(user, stoneCoinAddress);\n  }\n\n  function setBidAmount(address stoneCoinAddress, address user, uint256 amount) public  onlyOwner returns (uint256) {\n    MortgageStoneStorageInt(storageAddress).setBidAmount(stoneCoinAddress, user, amount);\n    MortgageStoneStorageInt(storageAddress).setBidMortgaged(stoneCoinAddress, user, false);\n  }\n\n  function setBidLimit(address stoneCoinAddress, address user, uint256 limit) public onlyOwner returns (uint256) {\n    MortgageStoneStorageInt(storageAddress).setBidLimit(stoneCoinAddress, user, limit);\n  }\n\n  function setAskAmount(address stoneCoinAddress, address user, uint256 amount) public  onlyOwner returns (uint256) {\n    MortgageStoneStorageInt(storageAddress).setAskAmount(stoneCoinAddress, user, amount);\n    MortgageStoneStorageInt(storageAddress).setAskMortgaged(stoneCoinAddress, user, false);\n  }\n\n  function setAskLimit(address stoneCoinAddress, address user, uint256 limit) public onlyOwner returns (uint256) {\n    MortgageStoneStorageInt(storageAddress).setAskLimit(stoneCoinAddress,user , limit);\n  }\n\n  function setBidValueHold(address stoneCoinAddress, address user, uint256 valueHold)  public onlyOwner returns (uint256) {\n    MortgageStoneStorageInt(storageAddress).setBidValueHold(stoneCoinAddress, user, valueHold);\n  }\n\n  function askAmount(address stoneCoinAddress, address user) public view returns (uint256) {\n    return  MortgageStoneStorageInt(storageAddress).askAmount(user, stoneCoinAddress);\n  }\n\n\n  function subBalance(address _user, uint256 _value, address stoneCoin) private  returns(uint256) {\n    return CornerStoneBaseInt(cornerStoneBaseAddress).subBalance(_user,_value, stoneCoin);\n  }\n\n  function withdrawMortgageBalance(address _user, uint256 microUSDs) public onlyOwner {\n    uint256 userBalance = MortgageStoneStorageInt(storageAddress).getMortgageeBalance(_user);\n    require(userBalance > 0);\n    if(userBalance > microUSDs){\n        MortgageStoneStorageInt(storageAddress).setMortgageeBalance(_user, userBalance.sub(microUSDs));\n        CornerStoneBaseInt(cornerStoneBaseAddress).addBalance(_user, microUSDs, 0);\n        CornerStoneBaseInt(cornerStoneBaseAddress).subOwnerBalance( microUSDs);\n    }else {\n        CornerStoneBaseInt(cornerStoneBaseAddress).addBalance(_user, userBalance, 0);\n        CornerStoneBaseInt(cornerStoneBaseAddress).subOwnerBalance( userBalance);\n        MortgageStoneStorageInt(storageAddress).setMortgageeBalance(_user,0);\n    }\n  }\n\n  function addOwnerBalance(uint256 _value) private onlyOwner returns(uint256) {\n    return CornerStoneBaseInt(cornerStoneBaseAddress).addOwnerBalance( _value);\n  }\n\n  function addBalance(address _user, uint256 _value, address stoneCoinAddress) private onlyOwner returns(uint256) {\n    return CornerStoneBaseInt(cornerStoneBaseAddress).addBalance(_user, _value, stoneCoinAddress);\n  }\n\n  function subOwnerBalance(uint256 _value) private onlyOwner returns(uint256) {\n    return CornerStoneBaseInt(cornerStoneBaseAddress).subOwnerBalance(_value);\n  }\n\n  function symbol() external view returns (bytes32) {\n    return CornerStoneBaseInt(cornerStoneBaseAddress).symbol();\n  }\n\n  function mortgageeBalanceOf(address _user) public view returns (uint256) {\n    return  MortgageStoneStorageInt(storageAddress).getMortgageeBalance(_user);\n  }\n\n  function addMortgegee(address user, uint256 microUSDs, uint256 maxMortgage, address newMortgagee ) public onlyOwner returns(address){\n    require(microUSDs > 0);\n    require(maxMortgage > 0);\n    require(microUSDs <= CornerStoneBaseInt(cornerStoneBaseAddress).balanceOf(user));\n    CornerStoneBaseInt(cornerStoneBaseAddress).subBalance(user, microUSDs, 0);\n    CornerStoneBaseInt(cornerStoneBaseAddress).addOwnerBalance( microUSDs);\n    MortgageStoneStorageInt(storageAddress).setMortgageeBalance(user, microUSDs);\n    emit MortgageeAdded(user, microUSDs, maxMortgage);\n    return address(newMortgagee);\n  }\n\n  function mortgagePayment(address user, address mortgageAddress, uint marketPriceMills, uint256 paymentInMills) public onlyOwner returns(uint256){\n    require(CornerStoneBaseInt(cornerStoneBaseAddress).isMortgageOperator(user));\n    uint256 buyerBalance;\n    MortgageInt mortgage = MortgageInt(mortgageAddress);\n    address _buyer = mortgage.getBuyer();\n    uint256 _value = mortgage.getNextPayment();\n    if(paymentInMills > 0){\n      require(CornerStoneBaseInt(cornerStoneBaseAddress).isMortgageFinance(user));\n      _value = paymentInMills;\n    }\n    require(_value > 0);\n    if(CornerStoneBaseInt(cornerStoneBaseAddress).balanceOf(_buyer) < _value) {\n\n      uint64 defaults = mortgage.getDefaultStatus();\n      if(defaults == 2){\n        partlyForfeitureMortgage(mortgage.getStoneCoinAddress(), _buyer, mortgage.getMortgagee() ,mortgageAddress, marketPriceMills, true);\n        emit MortgageDefaulted(mortgageAddress, _buyer, mortgage.getMortgagee(), buyerBalance, _value, now);\n        return buyerBalance;\n      }\n      MortgageOperationsInt(mortgageOperationsAddress).defaulted(mortgageAddress);\n      partlyForfeitureMortgage(mortgage.getStoneCoinAddress(), _buyer, mortgage.getMortgagee() ,mortgageAddress, marketPriceMills, false);\n      buyerBalance = CornerStoneBaseInt(cornerStoneBaseAddress).balanceOf(_buyer);\n      emit MortgageDefaulted(mortgageAddress, _buyer, mortgage.getMortgagee(), buyerBalance, _value, now);\n      return buyerBalance;\n    }\n    transferMortgageBalance(_buyer, _value, mortgageAddress, mortgage.getStoneCoinAddress());\n\n    //check if close mortgage\n    if(!mortgage.shouldRefinance()){\n      uint256 nextValue = mortgage.getNextPayment();\n      if(nextValue == 0){\n        address stoneCoinAddress = mortgage.getStoneCoinAddress();\n        CornerStoneBaseInt(cornerStoneBaseAddress).clearMortgage(stoneCoinAddress, _buyer, mortgageAddress);\n      }\n    }\n    buyerBalance = CornerStoneBaseInt(cornerStoneBaseAddress).balanceOf(_buyer);\n    emit MortgagePayment(mortgageAddress, _buyer, mortgage.getMortgagee(), buyerBalance, _value, now);\n    return _value;\n  }\n\n  function clearAllMortgage(address user, address mortgageAddress) public onlyOwner returns(uint256){\n    MortgageInt mortgage = MortgageInt(mortgageAddress);\n    address _buyer = mortgage.getBuyer();\n    uint256 _value = mortgage.getRemainingLoanBalance();\n    require(user == _buyer);\n    require(CornerStoneBaseInt(cornerStoneBaseAddress).balanceOf(_buyer) > _value);\n    CornerStoneBaseInt(cornerStoneBaseAddress).transferAll(_buyer,mortgage.getMortgagee(), _value,0 );\n    address stoneCoinAddress = mortgage.getStoneCoinAddress();\n    clearMortgage(stoneCoinAddress, _buyer, mortgageAddress);\n    return _value;\n  }\n\n  function bidMortgaged(address _user, address mortgageRequestAddress, address stoneCoinAddress, uint64 downPaymentMicros, uint256 amount, uint256 limit_micros , address signDocument) public returns(bool successeded, uint256 available) {\n    validateBidCreation(_user,mortgageRequestAddress, stoneCoinAddress,downPaymentMicros,signDocument);\n////\n//    // hold down payment funds been in bid\n    CornerStoneBaseInt(cornerStoneBaseAddress).subBalance(_user, downPaymentMicros, stoneCoinAddress);\n    CornerStoneBaseInt(cornerStoneBaseAddress).addOwnerBalance(downPaymentMicros);\n\n    createBidMortgage(limit_micros, amount, downPaymentMicros, mortgageOperationsAddress, _user, stoneCoinAddress);\n    uint256 senderBalance = CornerStoneBaseInt(cornerStoneBaseAddress).balanceOf(_user);\n    emit BidMortgageCreated(msg.sender, stoneCoinAddress, amount, limit_micros, senderBalance);\n    return (true, senderBalance);\n  }\n\n  function validateBidCreation(address _user, address mortgageRequestAddress, address stoneCoinAddress, uint256 downPaymentMicros, address signDocument) private {\n        uint256 balance = CornerStoneBaseInt(cornerStoneBaseAddress).balanceOf(_user);\n        MortgageRequest mortgageRequest = MortgageRequest(mortgageRequestAddress);\n        require(mortgageRequest.isApproved());\n        require(balance > 0);\n        require(MortgageStoneStorageInt(storageAddress).bidAmount(_user, stoneCoinAddress) == 0);\n        require(downPaymentMicros <= balance);\n        if(signDocument != address(0)){\n          require(checkSignature(signDocument,stoneCoinAddress));\n        }\n  }\n\n  function createBidMortgage(uint256 limit_micros, uint256 amount, uint256 downPaymentMicros, address mortgageRequestAddress, address _user, address stoneCoinAddress) private {\n    MortgageStoneStorageInt(storageAddress).createBid(limit_micros, amount, downPaymentMicros, true, mortgageRequestAddress, _user,  stoneCoinAddress);\n  }\n\n  function askMortgaged(address user, address mortgageAddress, address stoneCoinAddress, uint256 amount, uint256 limit_micros, address signDocument) public returns(bool) {\n    bool initialOffering = CornerStoneBaseInt(cornerStoneBaseAddress).isInitialOffering(stoneCoinAddress);\n    require(!initialOffering);\n    require(MortgageStoneStorageInt(storageAddress).askAmount(user, stoneCoinAddress) == 0);\n    require(checkSignature(signDocument,stoneCoinAddress));\n\n    MortgageStoneStorageInt(storageAddress).createAsk(limit_micros,amount, true,  mortgageAddress, user, stoneCoinAddress);\n    emit AskMortgageCreated(user, stoneCoinAddress, amount, limit_micros);\n  }\n\n  function createTradeMortgage( uint64 key,\n                                address _stoneCoinAddress,\n                                address _buyer,\n                                address _seller,\n                                address _buyerMortgage,\n                                address _sellerMortgage,\n                                uint256 _amount,\n                                uint256 _price) public onlyOwner {\n    if(_buyerMortgage != address(0)){\n      require(MortgageOperationsInt(mortgageOperationsAddress).isMortgageRegistered(_buyerMortgage));\n    }\n\n    require(MortgageStoneStorageInt(storageAddress).bidAmount(_buyer, _stoneCoinAddress) >= _amount);\n    uint256 _valueHold = MortgageStoneStorageInt(storageAddress).bidMortgageValueHold(_buyer, _stoneCoinAddress);\n    bool _bidMortgaged = MortgageStoneStorageInt(storageAddress).bidMortgaged(_buyer, _stoneCoinAddress);\n    bool _askMortgaged = MortgageStoneStorageInt(storageAddress).askMortgaged(_seller, _stoneCoinAddress);\n    uint256 _payAmount = _amount.mul(_price);\n    MortgageStoneStorageInt(storageAddress).createTradeMortgage(key, true, _stoneCoinAddress,\n      _buyer,\n      _seller,\n      _buyerMortgage,\n      _sellerMortgage,\n      _amount,\n      _price,\n      _payAmount,\n      _valueHold,\n      _bidMortgaged,\n      _askMortgaged\n    );\n////   require(stoneCoin.getMinBulkSize() <= _amount);\n    require(MortgageStoneStorageInt(storageAddress).askAmount(_seller, _stoneCoinAddress) >= _amount);\n\n    emit TradeMortgageCreated(key);\n  }\n\n  function bidTradeMortgaged( address buyerMortgage, address buyer,  uint256 valuePayed, address stoneCoin, uint256 _bidValueHold, uint256 amount, uint256 price) private onlyOwner {\n\n    if( MortgageStoneStorageInt(storageAddress).bidMortgaged(buyer, stoneCoin)){\n      calculateBidTrade(buyerMortgage, valuePayed, buyer, _bidValueHold,  amount,  price,  stoneCoin);\n    }\n    else{\n      require(MortgageStoneStorageInt(storageAddress).bidMortgageValueHold(buyer, stoneCoin) >= valuePayed);\n      CornerStoneBaseInt(cornerStoneBaseAddress).buy(stoneCoin, buyer, amount, price);\n      uint256 newValue =  MortgageStoneStorageInt(storageAddress).bidMortgageValueHold(buyer,stoneCoin).sub(valuePayed);\n      MortgageStoneStorageInt(storageAddress).setBidValueHold(buyer,stoneCoin,newValue);\n\n    }\n    require(MortgageStoneStorageInt(storageAddress).bidAmount(buyer,stoneCoin) >= 0);\n    uint256 newBidValue = MortgageStoneStorageInt(storageAddress).bidAmount(buyer,stoneCoin).sub(amount);\n    MortgageStoneStorageInt(storageAddress).setBidValueHold(buyer,stoneCoin, newBidValue);\n\n    uint256 buyerValueHolds =MortgageStoneStorageInt(storageAddress).bidMortgageValueHold(buyer, stoneCoin);\n    if(MortgageStoneStorageInt(storageAddress).bidAmount(buyer, stoneCoin) == 0 && buyerValueHolds > 0 ){\n      CornerStoneBaseInt(cornerStoneBaseAddress).addBalance(buyer, buyerValueHolds, stoneCoin);\n      CornerStoneBaseInt(cornerStoneBaseAddress).subOwnerBalance( buyerValueHolds);\n      MortgageStoneStorageInt(storageAddress).setBidValueHold(buyer, stoneCoin, 0);\n    }\n\n  }\n\n  function calculateBidTrade(address buyerMortgage, uint256 valuePayed, address buyer, uint256 _bidValueHold, uint256 amount, uint256 price, address stoneCoin) private {\n    MortgageInt buyerMortgageInt = MortgageInt(buyerMortgage);\n    require(buyerMortgageInt.getBuyer() == buyer);\n    require(_bidValueHold.add(buyerMortgageInt.getLoanValue()) >= valuePayed);\n\n\n    if(MortgageStoneStorageInt(storageAddress).getMortgageeBalance(buyerMortgageInt.getMortgagee()) < buyerMortgageInt.getLoanValue()){\n      emit BuyerMortgageeInsufficientBalance();\n      return;\n    }\n\n    uint256  downPaymentMicro = buyerMortgageInt.getDownPayment();\n    uint256  mortgageeBalance =  MortgageStoneStorageInt(storageAddress).getMortgageeBalance(buyerMortgageInt.getMortgagee());\n    MortgageStoneStorageInt(storageAddress).setMortgageeBalance(buyerMortgageInt.getMortgagee(), mortgageeBalance.sub(valuePayed - downPaymentMicro));\n    uint256 newValueBid =MortgageStoneStorageInt(storageAddress).bidMortgageValueHold(buyer,stoneCoin).sub(downPaymentMicro);\n    MortgageStoneStorageInt(storageAddress).setBidValueHold(buyer,stoneCoin,newValueBid);\n\n    CornerStoneBaseInt(cornerStoneBaseAddress).buyMortgaged(stoneCoin, buyerMortgage, buyer, amount,price);\n\n  }\n\n  function askTradeMortgaged(uint64 key, address sellerMortgage,  address seller,  uint256 valuePayed,  address stoneCoin, uint256 amount , uint256 price) private onlyOwner {\n    require(MortgageStoneStorageInt(storageAddress).isTradeValid(key));\n    bool isInitialize = CornerStoneBaseInt(cornerStoneBaseAddress).isInitialOffering(stoneCoin);\n    if(MortgageStoneStorageInt(storageAddress).askMortgaged(seller, stoneCoin)){\n      MortgageInt mortgage = MortgageInt(sellerMortgage);\n      uint256 remainingLoanBalance = mortgage.getRemainingLoanBalance();\n      if(valuePayed > remainingLoanBalance){\n        uint256 transferToSeller = valuePayed.sub(remainingLoanBalance);\n        CornerStoneBaseInt(cornerStoneBaseAddress).addBalance(seller, transferToSeller, stoneCoin);\n        CornerStoneBaseInt(cornerStoneBaseAddress).subOwnerBalance( transferToSeller);\n        MortgageOperationsInt(mortgageOperationsAddress).clearance(sellerMortgage, remainingLoanBalance);\n      }else{\n        MortgageOperationsInt(mortgageOperationsAddress).clearance(sellerMortgage, valuePayed);\n      }\n      CornerStoneBaseInt(cornerStoneBaseAddress).sellMortgaged(stoneCoin ,sellerMortgage, seller, amount, price);\n    }else{\n      if(!isInitialize){\n        CornerStoneBaseInt(cornerStoneBaseAddress).addBalance(seller, valuePayed, stoneCoin);\n        CornerStoneBaseInt(cornerStoneBaseAddress).subOwnerBalance(valuePayed);\n      }\n      CornerStoneBaseInt(cornerStoneBaseAddress).sell(stoneCoin, seller, amount, price);\n    }\n    uint256 _askAmount = MortgageStoneStorageInt(storageAddress).askAmount(seller, stoneCoin);\n    require(_askAmount >= 0 && _askAmount >= amount );\n    MortgageStoneStorageInt(storageAddress).setAskAmount(stoneCoin, seller ,_askAmount.sub(amount));\n\n  }\n\n  function applyMortgageClearance(address mortgageAddress) public onlyOwner{\n      MortgageOperationsInt(mortgageOperationsAddress).applyMortgageClearance(mortgageAddress);\n  }\n\n  function tradeMortgaged(uint64 key) public onlyOwner {\n    require(MortgageStoneStorageInt(storageAddress).isTradeValid(key));\n    address seller = MortgageStoneStorageInt(storageAddress).getTradeSeller(key);\n    address stoneCoin = MortgageStoneStorageInt(storageAddress).getTradeStoneCoin(key);\n    uint256 amount = MortgageStoneStorageInt(storageAddress).getTradeAmount(key);\n    uint256 price = MortgageStoneStorageInt(storageAddress).getTradePrice(key);\n    address buyer = MortgageStoneStorageInt(storageAddress).getTradeBuyer(key);\n    address buyerMortgage = MortgageStoneStorageInt(storageAddress).getTradeBuyerMortgage(key);\n    uint256 valuePayed = MortgageStoneStorageInt(storageAddress).getTradeValuePayed(key);\n    uint256 _bidValueHold = MortgageStoneStorageInt(storageAddress).bidMortgageValueHold(buyer, stoneCoin);\n    address sellerMortgage = MortgageStoneStorageInt(storageAddress).getTradeSellerMortgage(key);\n    askTradeMortgaged(key, sellerMortgage, seller, valuePayed, stoneCoin, amount, price );\n    bidTradeMortgaged( buyerMortgage, buyer, valuePayed, stoneCoin, _bidValueHold, amount, price);\n\n    MortgageStoneStorageInt(storageAddress).setTradeValid(key, false);\n    emit TradeMortgaged(stoneCoin, buyer, seller, amount, price);\n  }\n\n  function checkSignature(address signDocument, address stoneCoinAddress) public returns (bool){\n    return CornerStoneBaseInt(cornerStoneBaseAddress).checkSignature(signDocument, stoneCoinAddress);\n  }\n\n\n  function createMortgage(address _mortgageeAddress,\n    address _stoneCoinAddress,\n    address _mortgageRequestAddress,\n    address _mortgageeConditionAddress,\n    uint256 _key, bool isExternal) public returns(address) {\n    address mortgage = MortgageOperationsInt(mortgageOperationsAddress).createMortgage(_mortgageeAddress, _stoneCoinAddress, _mortgageRequestAddress, _mortgageeConditionAddress, _key, isExternal, address(CornerStoneBaseInt(cornerStoneBaseAddress)));\n    return mortgage;\n  }\n\n  function lastMortgage(uint256 _key) public view returns (address) {\n    return MortgageOperationsInt(mortgageOperationsAddress).lastMortgage(_key);\n  }\n\n\n  function transferMortgageBalance(address _buyer, uint256 _value, address mortgageAddress, address stoneCoinAddress)  public onlyOwner{\n    MortgageInt mortgage = MortgageInt(mortgageAddress);\n    CornerStoneBaseInt(stoneCoinAddress).subBalance(_buyer, _value, stoneCoinAddress);\n    addOwnerBalance( _value);\n    addBalance(mortgage.getMortgagee(), _value, stoneCoinAddress);\n    subOwnerBalance(_value);\n    MortgageOperationsInt(mortgageOperationsAddress).payed(mortgageAddress);\n    uint256 clearances = mortgage.getTotalClearances();\n    if(clearances > 0){\n      subOwnerBalance(clearances);\n      addBalance(mortgage.getMortgagee(), clearances, stoneCoinAddress);\n      applyMortgageClearance(mortgageAddress);\n    }\n  }\n\n  function clearMortgage(address stoneCoinAddress, address user, address mortgageAddress) public onlyOwner {\n    MortgageOperationsInt(mortgageOperationsAddress).clearMortgage(mortgageAddress);\n    CornerStoneBaseInt(cornerStoneBaseAddress).clearMortgage(stoneCoinAddress, user, mortgageAddress);\n\n  }\n\n  function partlyForfeitureMortgage(address stoneCoinAddress, address user, address mortgagee, address mortgageAddress, uint marketPriceMills, bool maxDefaulted) public onlyOwner {\n    CornerStoneBaseInt(cornerStoneBaseAddress).partlyForfeitureMortgage(stoneCoinAddress, user, mortgagee, mortgageAddress, marketPriceMills, maxDefaulted);\n    if(maxDefaulted){\n      MortgageOperationsInt(mortgageOperationsAddress).clearMortgage(mortgageAddress);\n    }\n  }\n\n}\n",
  "sourcePath": "/Users/roilandshut/projects/real-stone/contracts/MortgageStoneNew.sol",
  "compiler": {
    "name": "solc",
    "version": "0.4.24+commit.e67f0147.Emscripten.clang"
  },
  "schemaVersion": "2.0.1",
  "updatedAt": "2019-01-03T12:55:46.900Z"
}