{
  "contractName": "Mortgage",
  "abi": [
    {
      "constant": true,
      "inputs": [
        {
          "name": "",
          "type": "address"
        }
      ],
      "name": "owners",
      "outputs": [
        {
          "name": "",
          "type": "bool"
        }
      ],
      "payable": false,
      "stateMutability": "view",
      "type": "function"
    },
    {
      "constant": false,
      "inputs": [
        {
          "name": "_newOwner",
          "type": "address"
        }
      ],
      "name": "setOwner",
      "outputs": [],
      "payable": false,
      "stateMutability": "nonpayable",
      "type": "function"
    },
    {
      "constant": true,
      "inputs": [],
      "name": "getAddress",
      "outputs": [
        {
          "name": "",
          "type": "address"
        }
      ],
      "payable": false,
      "stateMutability": "view",
      "type": "function"
    },
    {
      "constant": false,
      "inputs": [
        {
          "name": "_newOwner",
          "type": "address"
        }
      ],
      "name": "removeOwnership",
      "outputs": [],
      "payable": false,
      "stateMutability": "nonpayable",
      "type": "function"
    },
    {
      "constant": true,
      "inputs": [],
      "name": "owner",
      "outputs": [
        {
          "name": "",
          "type": "address"
        }
      ],
      "payable": false,
      "stateMutability": "view",
      "type": "function"
    },
    {
      "constant": true,
      "inputs": [
        {
          "name": "user",
          "type": "address"
        }
      ],
      "name": "isOwnable",
      "outputs": [
        {
          "name": "",
          "type": "bool"
        }
      ],
      "payable": false,
      "stateMutability": "view",
      "type": "function"
    },
    {
      "constant": false,
      "inputs": [
        {
          "name": "_newOwner",
          "type": "address"
        }
      ],
      "name": "addOwnership",
      "outputs": [],
      "payable": false,
      "stateMutability": "nonpayable",
      "type": "function"
    },
    {
      "inputs": [
        {
          "name": "_stoneCoinAddress",
          "type": "address"
        },
        {
          "name": "_mortgagee",
          "type": "address"
        },
        {
          "name": "_buyer",
          "type": "address"
        },
        {
          "name": "_mortgageRequest",
          "type": "address"
        },
        {
          "name": "_mortgageeCondition",
          "type": "address"
        },
        {
          "name": "_isExternal",
          "type": "bool"
        }
      ],
      "payable": false,
      "stateMutability": "nonpayable",
      "type": "constructor"
    },
    {
      "anonymous": false,
      "inputs": [
        {
          "indexed": false,
          "name": "total",
          "type": "uint256"
        }
      ],
      "name": "PendingClearances",
      "type": "event"
    },
    {
      "anonymous": false,
      "inputs": [
        {
          "indexed": false,
          "name": "mortgage",
          "type": "address"
        }
      ],
      "name": "AllPaymentsAreSet",
      "type": "event"
    },
    {
      "anonymous": false,
      "inputs": [
        {
          "indexed": false,
          "name": "mortgage",
          "type": "address"
        }
      ],
      "name": "PaymentSet",
      "type": "event"
    },
    {
      "anonymous": false,
      "inputs": [
        {
          "indexed": false,
          "name": "mortgage",
          "type": "address"
        },
        {
          "indexed": false,
          "name": "loanMonth",
          "type": "uint64"
        },
        {
          "indexed": false,
          "name": "loanYear",
          "type": "uint64"
        }
      ],
      "name": "Default",
      "type": "event"
    },
    {
      "anonymous": false,
      "inputs": [
        {
          "indexed": false,
          "name": "nextIndex",
          "type": "uint256"
        },
        {
          "indexed": false,
          "name": "value",
          "type": "uint256"
        }
      ],
      "name": "MortgageClearance",
      "type": "event"
    },
    {
      "anonymous": false,
      "inputs": [
        {
          "indexed": false,
          "name": "value",
          "type": "uint256"
        }
      ],
      "name": "ApplyClearances",
      "type": "event"
    },
    {
      "anonymous": false,
      "inputs": [
        {
          "indexed": true,
          "name": "previousOwner",
          "type": "address"
        }
      ],
      "name": "OwnershipRenounced",
      "type": "event"
    },
    {
      "anonymous": false,
      "inputs": [
        {
          "indexed": true,
          "name": "previousOwner",
          "type": "address"
        },
        {
          "indexed": true,
          "name": "newOwner",
          "type": "address"
        }
      ],
      "name": "OwnershipTransferred",
      "type": "event"
    },
    {
      "constant": false,
      "inputs": [
        {
          "name": "_index",
          "type": "uint64"
        },
        {
          "name": "_interestRate",
          "type": "uint64"
        },
        {
          "name": "_scheduledMonthlyPayment",
          "type": "uint64"
        },
        {
          "name": "_interest",
          "type": "uint64"
        },
        {
          "name": "_principal",
          "type": "uint256"
        },
        {
          "name": "_principalTotal",
          "type": "uint256"
        },
        {
          "name": "_propertyTax",
          "type": "uint256"
        },
        {
          "name": "_paymentTotal",
          "type": "uint256"
        },
        {
          "name": "_paymentTimestamp",
          "type": "uint64"
        },
        {
          "name": "_remainingLoanBalance",
          "type": "uint256"
        },
        {
          "name": "_loanMonth",
          "type": "uint64"
        },
        {
          "name": "_loanYear",
          "type": "uint64"
        }
      ],
      "name": "addPaymentSchedule",
      "outputs": [],
      "payable": false,
      "stateMutability": "nonpayable",
      "type": "function"
    },
    {
      "constant": false,
      "inputs": [],
      "name": "payed",
      "outputs": [],
      "payable": false,
      "stateMutability": "nonpayable",
      "type": "function"
    },
    {
      "constant": false,
      "inputs": [],
      "name": "cleared",
      "outputs": [],
      "payable": false,
      "stateMutability": "nonpayable",
      "type": "function"
    },
    {
      "constant": false,
      "inputs": [
        {
          "name": "_cornerStoneBase",
          "type": "address"
        }
      ],
      "name": "setCornerStoneBase",
      "outputs": [],
      "payable": false,
      "stateMutability": "nonpayable",
      "type": "function"
    },
    {
      "constant": false,
      "inputs": [],
      "name": "defaulted",
      "outputs": [],
      "payable": false,
      "stateMutability": "nonpayable",
      "type": "function"
    },
    {
      "constant": false,
      "inputs": [],
      "name": "externalDefaulted",
      "outputs": [],
      "payable": false,
      "stateMutability": "nonpayable",
      "type": "function"
    },
    {
      "constant": false,
      "inputs": [],
      "name": "externalCleared",
      "outputs": [],
      "payable": false,
      "stateMutability": "nonpayable",
      "type": "function"
    },
    {
      "constant": true,
      "inputs": [],
      "name": "getDefaultStatus",
      "outputs": [
        {
          "name": "defaults",
          "type": "uint64"
        }
      ],
      "payable": false,
      "stateMutability": "view",
      "type": "function"
    },
    {
      "constant": false,
      "inputs": [
        {
          "name": "_value",
          "type": "uint256"
        }
      ],
      "name": "clearance",
      "outputs": [],
      "payable": false,
      "stateMutability": "nonpayable",
      "type": "function"
    },
    {
      "constant": false,
      "inputs": [],
      "name": "applyClearances",
      "outputs": [
        {
          "name": "_totalToClear",
          "type": "uint256"
        }
      ],
      "payable": false,
      "stateMutability": "nonpayable",
      "type": "function"
    },
    {
      "constant": true,
      "inputs": [],
      "name": "getMortgagee",
      "outputs": [
        {
          "name": "",
          "type": "address"
        }
      ],
      "payable": false,
      "stateMutability": "view",
      "type": "function"
    },
    {
      "constant": true,
      "inputs": [],
      "name": "getTotalClearances",
      "outputs": [
        {
          "name": "",
          "type": "uint256"
        }
      ],
      "payable": false,
      "stateMutability": "view",
      "type": "function"
    },
    {
      "constant": true,
      "inputs": [],
      "name": "getRefinanceSum",
      "outputs": [
        {
          "name": "",
          "type": "uint256"
        }
      ],
      "payable": false,
      "stateMutability": "view",
      "type": "function"
    },
    {
      "constant": true,
      "inputs": [],
      "name": "shouldRefinance",
      "outputs": [
        {
          "name": "",
          "type": "bool"
        }
      ],
      "payable": false,
      "stateMutability": "view",
      "type": "function"
    },
    {
      "constant": true,
      "inputs": [],
      "name": "isMortgageRegistered",
      "outputs": [
        {
          "name": "",
          "type": "bool"
        }
      ],
      "payable": false,
      "stateMutability": "view",
      "type": "function"
    },
    {
      "constant": true,
      "inputs": [],
      "name": "isExternalMortgage",
      "outputs": [
        {
          "name": "",
          "type": "bool"
        }
      ],
      "payable": false,
      "stateMutability": "view",
      "type": "function"
    },
    {
      "constant": true,
      "inputs": [],
      "name": "getLastPayedIndex",
      "outputs": [
        {
          "name": "",
          "type": "uint256"
        }
      ],
      "payable": false,
      "stateMutability": "view",
      "type": "function"
    },
    {
      "constant": true,
      "inputs": [],
      "name": "getStoneCoinAddress",
      "outputs": [
        {
          "name": "",
          "type": "address"
        }
      ],
      "payable": false,
      "stateMutability": "view",
      "type": "function"
    },
    {
      "constant": true,
      "inputs": [],
      "name": "getNextPaymentIndex",
      "outputs": [
        {
          "name": "",
          "type": "uint256"
        }
      ],
      "payable": false,
      "stateMutability": "view",
      "type": "function"
    },
    {
      "constant": true,
      "inputs": [],
      "name": "getBuyer",
      "outputs": [
        {
          "name": "",
          "type": "address"
        }
      ],
      "payable": false,
      "stateMutability": "view",
      "type": "function"
    },
    {
      "constant": true,
      "inputs": [],
      "name": "getLoanValue",
      "outputs": [
        {
          "name": "",
          "type": "uint256"
        }
      ],
      "payable": false,
      "stateMutability": "view",
      "type": "function"
    },
    {
      "constant": true,
      "inputs": [],
      "name": "getMortgageMaxLoan",
      "outputs": [
        {
          "name": "",
          "type": "uint256"
        }
      ],
      "payable": false,
      "stateMutability": "view",
      "type": "function"
    },
    {
      "constant": true,
      "inputs": [],
      "name": "getDownPayment",
      "outputs": [
        {
          "name": "",
          "type": "uint256"
        }
      ],
      "payable": false,
      "stateMutability": "view",
      "type": "function"
    },
    {
      "constant": true,
      "inputs": [],
      "name": "getNextPayment",
      "outputs": [
        {
          "name": "",
          "type": "uint256"
        }
      ],
      "payable": false,
      "stateMutability": "view",
      "type": "function"
    },
    {
      "constant": true,
      "inputs": [],
      "name": "getRemainingLoanBalance",
      "outputs": [
        {
          "name": "",
          "type": "uint256"
        }
      ],
      "payable": false,
      "stateMutability": "view",
      "type": "function"
    },
    {
      "constant": true,
      "inputs": [],
      "name": "getScheduledMonthlyPayment",
      "outputs": [
        {
          "name": "",
          "type": "uint256"
        }
      ],
      "payable": false,
      "stateMutability": "view",
      "type": "function"
    },
    {
      "constant": true,
      "inputs": [],
      "name": "getDownPaymentPercentMill",
      "outputs": [
        {
          "name": "",
          "type": "uint256"
        }
      ],
      "payable": false,
      "stateMutability": "view",
      "type": "function"
    },
    {
      "constant": false,
      "inputs": [
        {
          "name": "url",
          "type": "bytes32"
        },
        {
          "name": "urlMd5",
          "type": "bytes32"
        }
      ],
      "name": "setMortgageRegistrar",
      "outputs": [],
      "payable": false,
      "stateMutability": "nonpayable",
      "type": "function"
    }
  ],
  "bytecode": "0x608060405234801561001057600080fd5b5060405160c08061201e8339810160409081528151602080840151838501516060860151608087015160a090970151336000818152958690529685208054600160ff199182168117909255815460028054600160a060020a0319908116600160a060020a039b8c1617909155600380548216988b1698909817909755600480548816968a169690961790955560058054871694891694909417909355600680548616979099169690961790975560128054601386905582168617610100605060020a0319169055600c80546009869055600b86905561ffff19169055600f805490911690558116841760a060020a60ff0219167401000000000000000000000000000000000000000095151595909502949094179093169091179055611ee290819061013c90396000f3006080604052600436106101b65763ffffffff7c0100000000000000000000000000000000000000000000000000000000600035041663022914a781146101bb57806313af4035146101f05780631832ca2e1461021357806329b293ab1461023a5780632f29a0621461024f578063371c9e061461028057806338cc4831146102955780634538f92f146102aa578063485d498a146102bf5780634a7d7e45146102f15780634ae01cdc1461030657806356e4bc1f1461031b578063603daf9a14610330578063666a34271461034557806369e25ec1146103665780636bdedb331461037b57806372d1e548146103905780638a7ce01c146103a55780638d0d7af7146104035780638da5cb5b146104245780639db47b7714610439578063a24166ef1461044e578063a6e63d1f14610463578063ae47b9d71461047b578063d26c5c3114610490578063d6dd04f7146104a5578063dbd8612e146104ba578063e8588c2f14610390578063e88914de146104cf578063e9c17c3e146104f0578063f2ab76cf14610505578063f4f8057d1461051a578063f5a55ff61461052f578063f783ba4614610550578063fa3f8f611461056b575b600080fd5b3480156101c757600080fd5b506101dc600160a060020a0360043516610580565b604080519115158252519081900360200190f35b3480156101fc57600080fd5b50610211600160a060020a0360043516610595565b005b34801561021f57600080fd5b506102286105e2565b60408051918252519081900360200190f35b34801561024657600080fd5b506101dc6107a4565b34801561025b57600080fd5b506102646107ad565b60408051600160a060020a039092168252519081900360200190f35b34801561028c57600080fd5b506102286107bc565b3480156102a157600080fd5b50610264610850565b3480156102b657600080fd5b50610264610854565b3480156102cb57600080fd5b506102d4610863565b6040805167ffffffffffffffff9092168252519081900360200190f35b3480156102fd57600080fd5b50610228610873565b34801561031257600080fd5b50610228610879565b34801561032757600080fd5b50610211610a1d565b34801561033c57600080fd5b50610264610ac6565b34801561035157600080fd5b50610211600160a060020a0360043516610ad5565b34801561037257600080fd5b50610211610aff565b34801561038757600080fd5b50610228610c02565b34801561039c57600080fd5b50610211610f13565b3480156103b157600080fd5b5061021167ffffffffffffffff6004358116906024358116906044358116906064358116906084359060a4359060c4359060e43590610104358116906101243590610144358116906101643516610f42565b34801561040f57600080fd5b50610211600160a060020a0360043516611861565b34801561043057600080fd5b506102646118ae565b34801561044557600080fd5b506102286118bd565b34801561045a57600080fd5b5061021161191f565b34801561046f57600080fd5b5061021160043561193d565b34801561048757600080fd5b50610228611ab0565b34801561049c57600080fd5b50610228611ab6565b3480156104b157600080fd5b50610228611b18565b3480156104c657600080fd5b50610228611b7a565b3480156104db57600080fd5b506101dc600160a060020a0360043516611b80565b3480156104fc57600080fd5b506101dc611b9e565b34801561051157600080fd5b506101dc611ba7565b34801561052657600080fd5b50610228611bc8565b34801561053b57600080fd5b50610211600160a060020a0360043516611bce565b34801561055c57600080fd5b50610211600435602435611bf5565b34801561057757600080fd5b50610228611c24565b60006020819052908152604090205460ff1681565b3360009081526020819052604090205460ff1615156105b357600080fd5b6001805473ffffffffffffffffffffffffffffffffffffffff1916600160a060020a0392909216919091179055565b60006105ec611e32565b600c54600090610100900460ff1615610608576000925061079f565b600c5460ff161561061d57601154925061079f565b60015474010000000000000000000000000000000000000000900460ff161561064f57610648611ab6565b925061079f565b60095460158054909190811061066157fe5b60009182526020918290206040805161020081018252600b909302909101805460ff8082161515855261010080830482161515968601969096526201000082041615159284019290925267ffffffffffffffff63010000008304811660608501526b010000000000000000000000830481166080850152730100000000000000000000000000000000000000909204821660a08401526001810154821660c0840152600281015460e08401526003810154938301939093526004830154610120830152600583015461014083018190526006840154821661016084015260078401546101808401819052600885015483166101a085015260098501546101c0850152600a909401549091166101e0830152909350610785919063ffffffff611d6416565b905061079c60105482611d7790919063ffffffff16565b92505b505090565b600c5460ff1690565b600354600160a060020a031690565b600654604080517fda82485e0000000000000000000000000000000000000000000000000000000081529051600092600160a060020a031691829163da82485e9160048082019260209290919082900301818887803b15801561081e57600080fd5b505af1158015610832573d6000803e3d6000fd5b505050506040513d602081101561084857600080fd5b505191505090565b3090565b600254600160a060020a031690565b60145467ffffffffffffffff1690565b60105490565b6000610883611e32565b600c54600090819060ff161561089857600080fd5b6009546015805490919081106108aa57fe5b60009182526020918290206040805161020081018252600b909302909101805460ff8082161515855261010080830482161515968601969096526201000082041615159284019290925267ffffffffffffffff63010000008304811660608501526b010000000000000000000000830481166080850152730100000000000000000000000000000000000000909204821660a08401526001810154821660c0840152600281015460e0840152600381015493830193909352600483015461012083015260058301546101408301526006830154811661016083015260078301546101808301819052600884015482166101a084015260098401546101c0840152600a90930154166101e0820152601054909450909250821015610a055760a08301516109e790839067ffffffffffffffff1663ffffffff611d6416565b90506109fe60105482611d7790919063ffffffff16565b9350610a17565b8260a0015167ffffffffffffffff1693505b50505090565b3360009081526020819052604090205460ff161515610a3b57600080fd5b600954601580549091908110610a4d57fe5b60009182526020909120600b909102015460ff161515610a6c57600080fd5b60095460158054600192908110610a7f57fe5b60009182526020909120600b9091020180549115156101000261ff001990921691909117905560098054600a81905560010190556014805467ffffffffffffffff19169055565b600454600160a060020a031690565b3360009081526020819052604090205460ff161515610af357600080fd5b610afc81611d89565b50565b3360009081526020819052604090205460ff161515610b1d57600080fd5b60015474010000000000000000000000000000000000000000900460ff161515610bdc5760125460158054909162010000900467ffffffffffffffff16908110610b6357fe5b60009182526020909120600b909102015460ff161515610b8257600080fd5b6012546015805460019262010000900467ffffffffffffffff16908110610ba557fe5b60009182526020909120600b909102018054911515620100000262ff00001990921691909117905560098054600a81905560010190555b6014805467ffffffffffffffff8082166001011667ffffffffffffffff19909116179055565b6000610c0c611e32565b336000908152602081905260408120548190819060ff161515610c2e57600080fd5b600c5460ff1615610c3e57600080fd5b60095460158054909160001901908110610c5457fe5b60009182526020918290206040805161020081018252600b909302909101805460ff8082161515855261010080830482161515968601969096526201000082041615159284019290925267ffffffffffffffff63010000008304811660608501526b010000000000000000000000830481166080850152730100000000000000000000000000000000000000909204821660a08401526001810154821660c0840152600281015460e0840152600381015493830193909352600483015461012083015260058301546101408301526006830154811661016083015260078301546101808301819052600884015482166101a084015260098401546101c0840152600a90930154166101e0820152601054909550909350831115610d9657600c805460ff19166001179055601054610d9290849063ffffffff611d7716565b6011555b600091506000600b5410158015610db05750600b54601654115b15610ed95750600b545b601654811115610e6f576001601682815481101515610dd557fe5b906000526020600020906004020160000160016101000a81548160ff021916908315150217905550610e30601682815481101515610e0f57fe5b90600052602060002090600402016003015483611d6490919063ffffffff16565b9150610e65601682815481101515610e4457fe5b90600052602060002090600402016003015486611d6490919063ffffffff16565b9450600101610dba565b601654600b55601354610e88908363ffffffff611d6416565b601355506009545b601554811015610ed357601580546000919083908110610eac57fe5b60009182526020909120600b90910201805460ff1916911515919091179055600101610e90565b60006010555b6040805183815290517fdde62efc77808b293e650e1bf0324d6bf7833f2dfaa077f252a87c83c9ea2f359181900360200190a15050505090565b3360009081526020819052604090205460ff161515610f3157600080fd5b600c805461ff001916610100179055565b33600090815260208190526040812054819060ff161515610f6257600080fd5b5050600654600554604080517ffcbc6d690000000000000000000000000000000000000000000000000000000081529051600160a060020a039384169390921691839163fcbc6d699160048083019260209291908290030181600087803b158015610fcc57600080fd5b505af1158015610fe0573d6000803e3d6000fd5b505050506040513d6020811015610ff657600080fd5b505167ffffffffffffffff8516111561100e57600080fd5b6010541561101b57600080fd5b8d67ffffffffffffffff1681600160a060020a03166306bff47b6040518163ffffffff167c0100000000000000000000000000000000000000000000000000000000028152600401602060405180830381600087803b15801561107d57600080fd5b505af1158015611091573d6000803e3d6000fd5b505050506040513d60208110156110a757600080fd5b505110156110b457600080fd5b60006011819055506000600c60006101000a81548160ff021916908315150217905550601260030161020060405190810160405280600115158152602001600015158152602001600015158152602001600067ffffffffffffffff168152602001600067ffffffffffffffff168152602001600067ffffffffffffffff168152602001600067ffffffffffffffff16815260200160008152602001600081526020016000815260200160008152602001600067ffffffffffffffff16815260200160008152602001600067ffffffffffffffff16815260200160008152602001600067ffffffffffffffff168152509080600181540180825580915050906001820390600052602060002090600b02016000909192909190915060008201518160000160006101000a81548160ff02191690831515021790555060208201518160000160016101000a81548160ff02191690831515021790555060408201518160000160026101000a81548160ff02191690831515021790555060608201518160000160036101000a81548167ffffffffffffffff021916908367ffffffffffffffff160217905550608082015181600001600b6101000a81548167ffffffffffffffff021916908367ffffffffffffffff16021790555060a08201518160000160136101000a81548167ffffffffffffffff021916908367ffffffffffffffff16021790555060c08201518160010160006101000a81548167ffffffffffffffff021916908367ffffffffffffffff16021790555060e082015181600201556101008201518160030155610120820151816004015561014082015181600501556101608201518160060160006101000a81548167ffffffffffffffff021916908367ffffffffffffffff16021790555061018082015181600701556101a08201518160080160006101000a81548167ffffffffffffffff021916908367ffffffffffffffff1602179055506101c082015181600901556101e082015181600a0160006101000a81548167ffffffffffffffff021916908367ffffffffffffffff160217905550505050600160126003018f67ffffffffffffffff168154811015156113dc57fe5b60009182526020909120600b90910201805460ff1916911515919091179055601580548f919067ffffffffffffffff831690811061141657fe5b90600052602060002090600b020160000160036101000a81548167ffffffffffffffff021916908367ffffffffffffffff1602179055508c60126003018f67ffffffffffffffff1681548110151561146a57fe5b90600052602060002090600b0201600001600b6101000a81548167ffffffffffffffff021916908367ffffffffffffffff1602179055508b60126003018f67ffffffffffffffff168154811015156114be57fe5b90600052602060002090600b020160000160136101000a81548167ffffffffffffffff021916908367ffffffffffffffff1602179055508a60126003018f67ffffffffffffffff1681548110151561151257fe5b90600052602060002090600b020160010160006101000a81548167ffffffffffffffff021916908367ffffffffffffffff1602179055508960126003018f67ffffffffffffffff1681548110151561156657fe5b90600052602060002090600b0201600201819055508860126003018f67ffffffffffffffff1681548110151561159857fe5b90600052602060002090600b0201600901819055508760126003018f67ffffffffffffffff168154811015156115ca57fe5b90600052602060002090600b0201600401819055508660126003018f67ffffffffffffffff168154811015156115fc57fe5b90600052602060002090600b0201600501819055508560126003018f67ffffffffffffffff1681548110151561162e57fe5b90600052602060002090600b020160060160006101000a81548167ffffffffffffffff021916908367ffffffffffffffff1602179055508460126003018f67ffffffffffffffff1681548110151561168257fe5b90600052602060002090600b0201600701819055508360126003018f67ffffffffffffffff168154811015156116b457fe5b90600052602060002090600b020160080160006101000a81548167ffffffffffffffff021916908367ffffffffffffffff1602179055508260126003018f67ffffffffffffffff1681548110151561170857fe5b90600052602060002090600b0201600a0160006101000a81548167ffffffffffffffff021916908367ffffffffffffffff1602179055508d60010167ffffffffffffffff1681600160a060020a03166306bff47b6040518163ffffffff167c0100000000000000000000000000000000000000000000000000000000028152600401602060405180830381600087803b1580156117a457600080fd5b505af11580156117b8573d6000803e3d6000fd5b505050506040513d60208110156117ce57600080fd5b5051141561181d576012805461ff0019166101001790556040805130815290517f277927f9986c738ae60340b2ca0fe5442372b72868e1087d06b8a4121ff095559181900360200190a1611851565b6040805130815290517f26e60f3c74c4d5a783dacde033ea89c53b034107dd417e72c7a5a8b6ec5244ff9181900360200190a15b5050505050505050505050505050565b3360009081526020819052604090205460ff16151561187f57600080fd5b6007805473ffffffffffffffffffffffffffffffffffffffff1916600160a060020a0392909216919091179055565b600154600160a060020a031681565b600554604080517f9db47b770000000000000000000000000000000000000000000000000000000081529051600092600160a060020a0316918291639db47b779160048082019260209290919082900301818887803b15801561081e57600080fd5b3360009081526020819052604090205460ff161515610bdc57600080fd5b3360009081526020819052604090205460ff16151561195b57600080fd5b6040805160a0810182526001808252600060208301818152600954948401948552426060850190815260808501878152601680549586018155909352935160049093027fd833147d7dc355ba459fc788f669e58cfaf9dc25ddcd0702e87d69c7b512428981018054925115156101000261ff001995151560ff1990941693909317949094169190911790925592517fd833147d7dc355ba459fc788f669e58cfaf9dc25ddcd0702e87d69c7b512428a82015590517fd833147d7dc355ba459fc788f669e58cfaf9dc25ddcd0702e87d69c7b512428b82015590517fd833147d7dc355ba459fc788f669e58cfaf9dc25ddcd0702e87d69c7b512428c90910155601054611a6d908263ffffffff611d6416565b601055600954604080519182526020820183905280517f53aaa7481b225589a515a273d66ea07c9b39e8448b2f615d99c9b8a747cfe6369281900390910190a150565b600a5490565b600554604080517f2929c6e60000000000000000000000000000000000000000000000000000000081529051600092600160a060020a0316918291632929c6e69160048082019260209290919082900301818887803b15801561081e57600080fd5b600554604080517fd6dd04f70000000000000000000000000000000000000000000000000000000081529051600092600160a060020a031691829163d6dd04f79160048082019260209290919082900301818887803b15801561081e57600080fd5b60095490565b600160a060020a031660009081526020819052604090205460ff1690565b600f5460ff1690565b60015474010000000000000000000000000000000000000000900460ff1690565b60115490565b3360009081526020819052604090205460ff161515611bec57600080fd5b610afc81611dbf565b600354600160a060020a03163314611c0c57600080fd5b600d91909155600e55600f805460ff19166001179055565b6000611c2e611e32565b60125460158054909162010000900467ffffffffffffffff16908110611c5057fe5b60009182526020918290206040805161020081018252600b909302909101805460ff8082161515855261010080830482161515968601969096526201000082041615159284019290925267ffffffffffffffff63010000008304811660608501526b010000000000000000000000830481166080850152730100000000000000000000000000000000000000909204821660a084018190526001820154831660c0850152600282015460e085015260038201549484019490945260048101546101208401526005810154610140840152600681015482166101608401526007810154610180840152600881015482166101a084015260098101546101c0840152600a0154166101e082015290925090505090565b81810182811015611d7157fe5b92915050565b600082821115611d8357fe5b50900390565b600160a060020a0381161515611d9e57600080fd5b600160a060020a03166000908152602081905260409020805460ff19169055565b600160a060020a0381161515611dd457600080fd5b600154604051600160a060020a038084169216907f8be0079c531659141344cd1fd0a4f28419497f9722a3daafe3b4186f6b6457e090600090a3600160a060020a03166000908152602081905260409020805460ff19166001179055565b6040805161020081018252600080825260208201819052918101829052606081018290526080810182905260a0810182905260c0810182905260e08101829052610100810182905261012081018290526101408101829052610160810182905261018081018290526101a081018290526101c081018290526101e0810191909152905600a165627a7a723058209080324701d68f2be7ec7005d89955c88156b5e868285fdaa72f43fc5e40f8dc0029",
  "source": "pragma solidity ^0.4.24;\n\nimport \"openzeppelin-solidity/contracts/ownership/Ownable.sol\";\nimport 'openzeppelin-solidity/contracts/math/SafeMath.sol';\nimport \"./structures/MortgageRequest.sol\";\nimport \"./structures/MortgageeCondition.sol\";\nimport \"./CornerStoneBase.sol\";\nimport \"./StoneCoin.sol\";\nimport \"./interfaces/MortgageInt.sol\";\n\ncontract Mortgage is Ownables, MortgageInt{\n\tusing SafeMath for uint64;\n\tusing SafeMath for uint256;\n\tbool externalMortgage;\n\taddress stoneCoinAddress;\n\taddress mortgagee;\n\taddress\tbuyer;\n\taddress mortgageRequest;\n\taddress mortgageeCondition;\n\taddress cornerStoneBase;\n\taddress[] mortgageOwners;\n\tuint  nextPayment;\n\tuint  lastPayedIndex;\n\tuint  lastValidClearance;\n\tbool  shouldReFinance;\n\tbool mortgageCleared;\n\tbytes32 urlMortgageRegistrar;\n\tbytes32 urlMD5MortgageRegistrar;\n\tbool mortgageRegistered;\n\tuint256 totalClearances;\n\tuint256 refinanceSum;\n\n\tstruct\tPaymentSchedule {\n\t\tbool \t\tvalid;\n\t\tbool\t\tpayed;\n\t\tbool\t\tdefaulted;\n\t\tuint64 \tindex;\n\t\tuint64 \tinterestRate;\n\t\tuint64 \tscheduledMonthlyPayment;\n\t\tuint64 \tinterest;\n\t\tuint256 principal;\n\t\tuint256 extra;\n\t\tuint256 propertyTax;\n\t\tuint256 paymentTotal;\n\t\tuint64  paymentTimestamp;\n\t\tuint256 remainingLoanBalance;\n\t\tuint64 \tloanMonth;\n\t\tuint256  principalTotal;\n\t\tuint64 \tloanYear;\n\t}\n\n\tstruct\tMortgageTerms {\n\t\tbool\tvalid;\n\t\tbool\tallPaymentAreSet;\n\t\tuint64  nextIndex;\n\t\tuint256 cleared;\n\t\tuint64\tdefaults;\n\t\tPaymentSchedule[] paymentSchedules;\n\t}\n\n\tMortgageTerms mortgageTerms;\n\n\tstruct\tClearance {\n\t\tbool    shouldApply;\n\t\tbool    applied;\n\t\tuint256  nextIndex;\n\t\tuint256  timeStamp;\n\t\tuint256 value;\n\t}\n\n  Clearance[] clearances;\n\n\tevent PendingClearances(uint256 total);\n \tevent AllPaymentsAreSet(address mortgage);\n\tevent PaymentSet(address mortgage);\n\tevent Default(address mortgage, uint64 loanMonth, uint64 loanYear);\n  \tevent MortgageClearance(uint nextIndex, uint256 value);\n \tevent ApplyClearances(uint256 value);\n\n\tconstructor(\n\t\taddress _stoneCoinAddress,\n\t\taddress _mortgagee,\n\t\taddress\t_buyer,\n\t\taddress _mortgageRequest,\n\t\taddress _mortgageeCondition,\n\t\tbool _isExternal\n\t) public Ownables() {\n\t\tstoneCoinAddress = _stoneCoinAddress;\n\t\tmortgagee = _mortgagee;\n\t\tbuyer = _buyer;\n\t\tmortgageRequest = _mortgageRequest;\n\t\tmortgageeCondition = _mortgageeCondition;\n\t\tmortgageTerms.valid = true;\n\t\tmortgageTerms.nextIndex = 0;\n\t\tmortgageTerms.cleared = 0;\n\t\tmortgageTerms.allPaymentAreSet = false;\n\t\tshouldReFinance = false;\n\t\tnextPayment = 0;\n\t\tlastValidClearance = 0;\n\t\tmortgageCleared = false;\n\t\tmortgageRegistered = false;\n\t\texternalMortgage = _isExternal;\n\t\towner = msg.sender;\n\t}\n\n\tfunction \taddPaymentSchedule (\n\t\t\t\t\tuint64  _index,\n\t\t\t\t\tuint64 \t_interestRate,\n\t\t\t\t\tuint64 \t_scheduledMonthlyPayment,\n\t\t\t\t\tuint64 \t_interest,\n\t\t\t\t\tuint256 _principal,\n\t\t\t\t\tuint256 _principalTotal,\n\t\t\t\t\tuint256 _propertyTax,\n\t\t\t\t\tuint256 _paymentTotal,\n                    uint64  _paymentTimestamp,\n\t\t\t\t\tuint256 _remainingLoanBalance,\n\t\t\t\t\tuint64 \t_loanMonth,\n\t\t\t\t\tuint64 \t_loanYear\n\t\t\t\t\t) public   onlyOwner{\n\t\tMortgageeCondition condition = MortgageeCondition(mortgageeCondition);\n\t\tMortgageRequest request = MortgageRequest(mortgageRequest);\n\t\trequire(_loanMonth <= condition.getMaxLoanTermMonths());\n\t\trequire(totalClearances == 0);\n\t\trequire(request.getLongTermMonth() >= _index);\n\t\trefinanceSum = 0;\n\t\tshouldReFinance = false;\n\t\tmortgageTerms.paymentSchedules.push(PaymentSchedule({valid: true,\n\t\t\t\t\t\t\t\t\t\t\t\t\t\t\t payed: false,\n\t\t\t\t\t\t\t\t\t\t\t\t\t\t\t index: 0,\n\t\t\t\t\t\t\t\t\t\t\t\t\t\t\t defaulted: false,\n\t\t\t\t\t\t\t\t\t\t\t\t\t\t\t interestRate: 0,\n\t\t\t\t\t\t\t\t\t\t\t\t\t\t\t scheduledMonthlyPayment: 0,\n\t\t\t\t\t\t\t\t\t\t\t\t\t\t     interest: 0,\n\t\t\t\t\t\t\t\t\t\t\t\t\t\t  \t principal: 0,\n\t\t\t\t\t\t\t\t\t\t\t\t\t\t\t extra: 0,\n\t\t\t\t\t\t\t\t\t\t\t\t\t\t\t propertyTax: 0,\n\t\t\t\t\t\t\t\t\t\t\t\t\t\t\t principalTotal: 0,\n\t\t\t\t\t\t\t\t\t\t\t\t\t\t\t paymentTotal: 0,\n\t\t\t\t\t\t\t\t\t\t\t\t\t\t\t paymentTimestamp: 0,\n\t\t\t\t\t\t\t\t\t\t\t\t\t\t\t remainingLoanBalance: 0,\n\t\t\t\t\t\t\t\t\t\t\t\t\t\t\t loanMonth: 0,\n\t\t\t\t\t\t\t\t\t\t\t\t\t\t\t loanYear: 0}));\n\t\tmortgageTerms.paymentSchedules[_index].valid = true;\n\t\tmortgageTerms.paymentSchedules[_index].index = _index;\n\t\tmortgageTerms.paymentSchedules[_index].interestRate = _interestRate;\n\t\tmortgageTerms.paymentSchedules[_index].scheduledMonthlyPayment = _scheduledMonthlyPayment;\n\t\tmortgageTerms.paymentSchedules[_index].interest = _interest;\n\t\tmortgageTerms.paymentSchedules[_index].principal = _principal;\n\t\tmortgageTerms.paymentSchedules[_index].principalTotal = _principalTotal;\n\t\tmortgageTerms.paymentSchedules[_index].propertyTax = _propertyTax;\n\t\tmortgageTerms.paymentSchedules[_index].paymentTotal = _paymentTotal;\n\t\tmortgageTerms.paymentSchedules[_index].paymentTimestamp = _paymentTimestamp;\n\t\tmortgageTerms.paymentSchedules[_index].remainingLoanBalance = _remainingLoanBalance;\n\t\tmortgageTerms.paymentSchedules[_index].loanMonth = _loanMonth;\n\t\tmortgageTerms.paymentSchedules[_index].loanYear = _loanYear;\n\n\t\tif(request.getLongTermMonth() == _index + 1){\n\t\t\tmortgageTerms.allPaymentAreSet = true;\n\t\t\temit AllPaymentsAreSet(address(this));\n\t\t}else{\n\t\t\temit PaymentSet(address(this));\n\t\t}\n\t}\n\n\tfunction payed() public onlyOwner {\n\t\trequire(mortgageTerms.paymentSchedules[nextPayment].valid);\n\t\tmortgageTerms.paymentSchedules[nextPayment].payed = true;\n\t\tlastPayedIndex = nextPayment;\n        nextPayment = nextPayment + 1;\n\t\tmortgageTerms.defaults = 0;\n\t}\n\n\tfunction cleared() public onlyOwner {\n\t     mortgageCleared = true;\n\t}\n\tfunction setCornerStoneBase(address _cornerStoneBase) public onlyOwner {\n\t\tcornerStoneBase = _cornerStoneBase;\n\t}\n\n\tfunction defaulted() public onlyOwner {\n\t\tif(!externalMortgage){\n\t\t\trequire(mortgageTerms.paymentSchedules[mortgageTerms.nextIndex].valid);\n\t\t\tmortgageTerms.paymentSchedules[mortgageTerms.nextIndex].defaulted = true;\n\t\t\tlastPayedIndex = nextPayment;\n\t\t\tnextPayment = nextPayment + 1;\n\t\t}\n\t\tmortgageTerms.defaults = mortgageTerms.defaults + 1;\n\t}\n\n\tfunction externalDefaulted() public onlyOwner {\n\t\tmortgageTerms.defaults = mortgageTerms.defaults + 1;\n\t}\n\n\tfunction externalCleared() public onlyOwner{\n\t\tmortgageCleared = true;\n\t}\n\n\tfunction getDefaultStatus() public view returns (uint64 defaults) {\n\t\treturn mortgageTerms.defaults;\n\t}\n\n\tfunction clearance(uint256 _value) public onlyOwner{\n\t\tclearances.push(Clearance({shouldApply: true,applied: false,timeStamp:now, nextIndex: nextPayment, value: _value }));\n\t\ttotalClearances = totalClearances.add(_value);\n\t\temit MortgageClearance(nextPayment, _value);\n  \t}\n\n\tfunction applyClearances() public onlyOwner returns (uint256 _totalToClear)  {\n\t\trequire(!shouldReFinance);\n\t\tPaymentSchedule memory paymentSchedule = mortgageTerms.paymentSchedules[nextPayment -1];\n\t\tuint256 remainingLoanBalance = paymentSchedule.remainingLoanBalance;\n\t\tif(totalClearances < remainingLoanBalance){\n\t\t\tshouldReFinance = true;\n\t\t\trefinanceSum = remainingLoanBalance.sub(totalClearances);\n\t\t}\n\n\t\tuint256 _value = 0;\n\t\t  if(lastValidClearance >= 0 && clearances.length > lastValidClearance){\n\t\t\tfor(uint i = lastValidClearance; i > clearances.length ; i++){\n\t\t\t  clearances[i].applied = true;\n\t\t\t  _value = _value.add(clearances[i].value);\n\t\t\t  _totalToClear = _totalToClear.add(clearances[i].value);\n\t\t\t}\n\t\t\tlastValidClearance = clearances.length;\n\t\t\tmortgageTerms.cleared = mortgageTerms.cleared.add(_value);\n\t\t\tfor(i = nextPayment; i < mortgageTerms.paymentSchedules.length; i++ ){\n\t\t\t  mortgageTerms.paymentSchedules[i].valid = false;\n\t\t\t}\n\t\t\ttotalClearances = 0;\n\t\t  }\n\t\temit ApplyClearances(_value);\n  }\n\n\tfunction getMortgagee() public view returns(address){\n\t\treturn mortgagee;\n\t}\n\tfunction getTotalClearances() public view returns(uint256){\n\t\treturn totalClearances;\n\t}\n\n\tfunction getRefinanceSum() public view returns(uint256){\n\t\treturn refinanceSum;\n\t}\n\n\tfunction shouldRefinance() public view returns(bool){\n\t\treturn shouldReFinance;\n\t}\n\n\tfunction isMortgageRegistered() public view returns(bool){\n\t\treturn mortgageRegistered;\n\t}\n\tfunction isExternalMortgage() public view returns(bool){\n\t\treturn externalMortgage;\n\t}\n\n\tfunction getLastPayedIndex() public view returns(uint256){\n\t\treturn lastPayedIndex;\n\t}\n\n\tfunction getStoneCoinAddress() public view returns(address){\n\t\treturn stoneCoinAddress;\n\t}\n\n\tfunction getNextPaymentIndex() public view returns(uint256){\n\t\treturn nextPayment;\n\t}\n\n\tfunction getBuyer() public view returns(address){\n\t\treturn buyer;\n\t}\n\n\tfunction getLoanValue() public view returns(uint256){\n\t\tMortgageRequest newContract = MortgageRequest(mortgageRequest);\n\t\treturn newContract.getTotalLoan();\n\t}\n\n\tfunction getMortgageMaxLoan() public view returns(uint256){\n\t\tMortgageeCondition newContract = MortgageeCondition(mortgageeCondition);\n\t\treturn newContract.getMaxLoanMicros();\n\t}\n\n\tfunction getDownPayment() public view returns(uint256){\n\t\tMortgageRequest newContract = MortgageRequest(mortgageRequest);\n\t\treturn newContract.getDownPayment();\n\t}\n\n\tfunction getNextPayment() public view returns(uint256){\n\t  require(!shouldReFinance);\n\t  PaymentSchedule memory paymentSchedule = mortgageTerms.paymentSchedules[nextPayment];\n\n\t  //require(now >= paymentSchedule.paymentTimestamp);\n\t  uint256 remainingLoanBalance = paymentSchedule.remainingLoanBalance;\n\t  if(totalClearances > remainingLoanBalance){\n\t\t  uint256 remainingTotalLoan = remainingLoanBalance.add(paymentSchedule.scheduledMonthlyPayment);\n\t\t  return remainingTotalLoan.sub(totalClearances);\n\t  }\n\t  return paymentSchedule.scheduledMonthlyPayment;\n\t}\n\n    function getRemainingLoanBalance() public view returns(uint256){\n\t\tif(mortgageCleared){\n\t\t\treturn 0;\n\t\t}\n\t\tif(shouldReFinance){\n\t\t\treturn refinanceSum;\n\t\t}\n\n\t\tif(externalMortgage){\n\t\t\treturn getLoanValue();\n\t\t}\n\t  PaymentSchedule memory paymentSchedule = mortgageTerms.paymentSchedules[nextPayment];\n\t  uint256 result = paymentSchedule.remainingLoanBalance.add(paymentSchedule.paymentTotal);\n\t  return result.sub(totalClearances);\n\t}\n\n    function getScheduledMonthlyPayment() public view returns(uint256){\n    \tPaymentSchedule memory paymentSchedule = mortgageTerms.paymentSchedules[mortgageTerms.nextIndex];\n\t\treturn paymentSchedule.scheduledMonthlyPayment;\n\t}\n\n\tfunction getDownPaymentPercentMill() public view returns(uint256){\n\t\tMortgageRequest newContract = MortgageRequest(mortgageRequest);\n\t\treturn newContract.getDownPaymentPercentMill();\n\t}\n\n\tfunction setMortgageRegistrar(bytes32 url, bytes32 urlMd5) public  {\n\t\trequire(mortgagee == msg.sender);\n\t\turlMortgageRegistrar = url;\n\t\turlMD5MortgageRegistrar = urlMd5;\n\t\tmortgageRegistered = true;\n\t}\n\n\n\n}",
  "sourcePath": "/Users/roilandshut/projects/brikoin/brikoin/contracts/Mortgage.sol",
  "compiler": {
    "name": "solc",
    "version": "0.4.24+commit.e67f0147.Emscripten.clang"
  },
  "schemaVersion": "2.0.1",
  "updatedAt": "2019-10-27T14:12:10.909Z"
}