{
  "contractName": "MortgageStoneStorage",
  "abi": [
    {
      "constant": true,
      "inputs": [
        {
          "name": "",
          "type": "address"
        }
      ],
      "name": "owners",
      "outputs": [
        {
          "name": "",
          "type": "bool"
        }
      ],
      "payable": false,
      "stateMutability": "view",
      "type": "function"
    },
    {
      "constant": false,
      "inputs": [
        {
          "name": "_newOwner",
          "type": "address"
        }
      ],
      "name": "setOwner",
      "outputs": [],
      "payable": false,
      "stateMutability": "nonpayable",
      "type": "function"
    },
    {
      "constant": true,
      "inputs": [],
      "name": "getAddress",
      "outputs": [
        {
          "name": "",
          "type": "address"
        }
      ],
      "payable": false,
      "stateMutability": "view",
      "type": "function"
    },
    {
      "constant": false,
      "inputs": [
        {
          "name": "_newOwner",
          "type": "address"
        }
      ],
      "name": "removeOwnership",
      "outputs": [],
      "payable": false,
      "stateMutability": "nonpayable",
      "type": "function"
    },
    {
      "constant": true,
      "inputs": [],
      "name": "owner",
      "outputs": [
        {
          "name": "",
          "type": "address"
        }
      ],
      "payable": false,
      "stateMutability": "view",
      "type": "function"
    },
    {
      "constant": true,
      "inputs": [
        {
          "name": "user",
          "type": "address"
        }
      ],
      "name": "isOwnable",
      "outputs": [
        {
          "name": "",
          "type": "bool"
        }
      ],
      "payable": false,
      "stateMutability": "view",
      "type": "function"
    },
    {
      "constant": false,
      "inputs": [
        {
          "name": "_newOwner",
          "type": "address"
        }
      ],
      "name": "addOwnership",
      "outputs": [],
      "payable": false,
      "stateMutability": "nonpayable",
      "type": "function"
    },
    {
      "inputs": [],
      "payable": false,
      "stateMutability": "nonpayable",
      "type": "constructor"
    },
    {
      "anonymous": false,
      "inputs": [
        {
          "indexed": true,
          "name": "previousOwner",
          "type": "address"
        }
      ],
      "name": "OwnershipRenounced",
      "type": "event"
    },
    {
      "anonymous": false,
      "inputs": [
        {
          "indexed": true,
          "name": "previousOwner",
          "type": "address"
        },
        {
          "indexed": true,
          "name": "newOwner",
          "type": "address"
        }
      ],
      "name": "OwnershipTransferred",
      "type": "event"
    },
    {
      "constant": false,
      "inputs": [
        {
          "name": "limit",
          "type": "uint256"
        },
        {
          "name": "amount",
          "type": "uint256"
        },
        {
          "name": "valueHold",
          "type": "uint256"
        },
        {
          "name": "mortgaged",
          "type": "bool"
        },
        {
          "name": "mortgageRequest",
          "type": "address"
        },
        {
          "name": "user",
          "type": "address"
        },
        {
          "name": "stoneCoinAddress",
          "type": "address"
        }
      ],
      "name": "createBid",
      "outputs": [],
      "payable": false,
      "stateMutability": "nonpayable",
      "type": "function"
    },
    {
      "constant": false,
      "inputs": [
        {
          "name": "limit",
          "type": "uint256"
        },
        {
          "name": "amount",
          "type": "uint256"
        },
        {
          "name": "mortgaged",
          "type": "bool"
        },
        {
          "name": "mortgageAddress",
          "type": "address"
        },
        {
          "name": "user",
          "type": "address"
        },
        {
          "name": "stoneCoinAddress",
          "type": "address"
        }
      ],
      "name": "createAsk",
      "outputs": [],
      "payable": false,
      "stateMutability": "nonpayable",
      "type": "function"
    },
    {
      "constant": true,
      "inputs": [
        {
          "name": "user",
          "type": "address"
        },
        {
          "name": "stoneCoinAddress",
          "type": "address"
        }
      ],
      "name": "askAmount",
      "outputs": [
        {
          "name": "",
          "type": "uint256"
        }
      ],
      "payable": false,
      "stateMutability": "view",
      "type": "function"
    },
    {
      "constant": true,
      "inputs": [
        {
          "name": "user",
          "type": "address"
        },
        {
          "name": "stoneCoinAddress",
          "type": "address"
        }
      ],
      "name": "askLimit",
      "outputs": [
        {
          "name": "",
          "type": "uint256"
        }
      ],
      "payable": false,
      "stateMutability": "view",
      "type": "function"
    },
    {
      "constant": true,
      "inputs": [
        {
          "name": "user",
          "type": "address"
        },
        {
          "name": "stoneCoinAddress",
          "type": "address"
        }
      ],
      "name": "askMortgaged",
      "outputs": [
        {
          "name": "",
          "type": "bool"
        }
      ],
      "payable": false,
      "stateMutability": "view",
      "type": "function"
    },
    {
      "constant": true,
      "inputs": [
        {
          "name": "user",
          "type": "address"
        },
        {
          "name": "stoneCoinAddress",
          "type": "address"
        }
      ],
      "name": "askMortgage",
      "outputs": [
        {
          "name": "",
          "type": "address"
        }
      ],
      "payable": false,
      "stateMutability": "view",
      "type": "function"
    },
    {
      "constant": true,
      "inputs": [
        {
          "name": "user",
          "type": "address"
        },
        {
          "name": "stoneCoinAddress",
          "type": "address"
        }
      ],
      "name": "bidAmount",
      "outputs": [
        {
          "name": "",
          "type": "uint256"
        }
      ],
      "payable": false,
      "stateMutability": "view",
      "type": "function"
    },
    {
      "constant": true,
      "inputs": [
        {
          "name": "user",
          "type": "address"
        },
        {
          "name": "stoneCoinAddress",
          "type": "address"
        }
      ],
      "name": "bidLimit",
      "outputs": [
        {
          "name": "",
          "type": "uint256"
        }
      ],
      "payable": false,
      "stateMutability": "view",
      "type": "function"
    },
    {
      "constant": true,
      "inputs": [
        {
          "name": "user",
          "type": "address"
        },
        {
          "name": "stoneCoinAddress",
          "type": "address"
        }
      ],
      "name": "bidMortgaged",
      "outputs": [
        {
          "name": "",
          "type": "bool"
        }
      ],
      "payable": false,
      "stateMutability": "view",
      "type": "function"
    },
    {
      "constant": true,
      "inputs": [
        {
          "name": "user",
          "type": "address"
        },
        {
          "name": "stoneCoinAddress",
          "type": "address"
        }
      ],
      "name": "bidMortgageRequest",
      "outputs": [
        {
          "name": "",
          "type": "address"
        }
      ],
      "payable": false,
      "stateMutability": "view",
      "type": "function"
    },
    {
      "constant": true,
      "inputs": [
        {
          "name": "user",
          "type": "address"
        },
        {
          "name": "stoneCoinAddress",
          "type": "address"
        }
      ],
      "name": "bidMortgageValueHold",
      "outputs": [
        {
          "name": "",
          "type": "uint256"
        }
      ],
      "payable": false,
      "stateMutability": "view",
      "type": "function"
    },
    {
      "constant": true,
      "inputs": [
        {
          "name": "mortgagee",
          "type": "address"
        }
      ],
      "name": "getMortgageeBalance",
      "outputs": [
        {
          "name": "",
          "type": "uint256"
        }
      ],
      "payable": false,
      "stateMutability": "view",
      "type": "function"
    },
    {
      "constant": false,
      "inputs": [
        {
          "name": "mortgagee",
          "type": "address"
        },
        {
          "name": "balance",
          "type": "uint256"
        }
      ],
      "name": "setMortgageeBalance",
      "outputs": [],
      "payable": false,
      "stateMutability": "nonpayable",
      "type": "function"
    },
    {
      "constant": false,
      "inputs": [
        {
          "name": "_stoneCoinAddress",
          "type": "address"
        },
        {
          "name": "user",
          "type": "address"
        },
        {
          "name": "amount",
          "type": "uint256"
        }
      ],
      "name": "setBidAmount",
      "outputs": [],
      "payable": false,
      "stateMutability": "nonpayable",
      "type": "function"
    },
    {
      "constant": false,
      "inputs": [
        {
          "name": "stoneCoinAddress",
          "type": "address"
        },
        {
          "name": "user",
          "type": "address"
        },
        {
          "name": "mortgaged",
          "type": "bool"
        }
      ],
      "name": "setBidMortgaged",
      "outputs": [],
      "payable": false,
      "stateMutability": "nonpayable",
      "type": "function"
    },
    {
      "constant": false,
      "inputs": [
        {
          "name": "stoneCoinAddress",
          "type": "address"
        },
        {
          "name": "user",
          "type": "address"
        },
        {
          "name": "limit",
          "type": "uint256"
        }
      ],
      "name": "setBidLimit",
      "outputs": [],
      "payable": false,
      "stateMutability": "nonpayable",
      "type": "function"
    },
    {
      "constant": false,
      "inputs": [
        {
          "name": "stoneCoinAddress",
          "type": "address"
        },
        {
          "name": "user",
          "type": "address"
        },
        {
          "name": "amount",
          "type": "uint256"
        }
      ],
      "name": "setAskAmount",
      "outputs": [],
      "payable": false,
      "stateMutability": "nonpayable",
      "type": "function"
    },
    {
      "constant": false,
      "inputs": [
        {
          "name": "stoneCoinAddress",
          "type": "address"
        },
        {
          "name": "user",
          "type": "address"
        },
        {
          "name": "mortgaged",
          "type": "bool"
        }
      ],
      "name": "setAskMortgaged",
      "outputs": [],
      "payable": false,
      "stateMutability": "nonpayable",
      "type": "function"
    },
    {
      "constant": false,
      "inputs": [
        {
          "name": "stoneCoinAddress",
          "type": "address"
        },
        {
          "name": "user",
          "type": "address"
        },
        {
          "name": "limit",
          "type": "uint256"
        }
      ],
      "name": "setAskLimit",
      "outputs": [],
      "payable": false,
      "stateMutability": "nonpayable",
      "type": "function"
    },
    {
      "constant": false,
      "inputs": [
        {
          "name": "stoneCoinAddress",
          "type": "address"
        },
        {
          "name": "user",
          "type": "address"
        },
        {
          "name": "valueHold",
          "type": "uint256"
        }
      ],
      "name": "setBidValueHold",
      "outputs": [],
      "payable": false,
      "stateMutability": "nonpayable",
      "type": "function"
    },
    {
      "constant": false,
      "inputs": [
        {
          "name": "key",
          "type": "uint64"
        },
        {
          "name": "valid",
          "type": "bool"
        },
        {
          "name": "stoneCoinAddress",
          "type": "address"
        },
        {
          "name": "buyer",
          "type": "address"
        },
        {
          "name": "seller",
          "type": "address"
        },
        {
          "name": "buyerMortgage",
          "type": "address"
        },
        {
          "name": "sellerMortgage",
          "type": "address"
        },
        {
          "name": "amount",
          "type": "uint256"
        },
        {
          "name": "price",
          "type": "uint256"
        },
        {
          "name": "valuePayed",
          "type": "uint256"
        },
        {
          "name": "valueHold",
          "type": "uint256"
        },
        {
          "name": "_bidMortgaged",
          "type": "bool"
        },
        {
          "name": "_askMortgaged",
          "type": "bool"
        }
      ],
      "name": "createTradeMortgage",
      "outputs": [],
      "payable": false,
      "stateMutability": "nonpayable",
      "type": "function"
    },
    {
      "constant": true,
      "inputs": [
        {
          "name": "key",
          "type": "uint64"
        }
      ],
      "name": "getTradeStoneCoin",
      "outputs": [
        {
          "name": "",
          "type": "address"
        }
      ],
      "payable": false,
      "stateMutability": "view",
      "type": "function"
    },
    {
      "constant": true,
      "inputs": [
        {
          "name": "key",
          "type": "uint64"
        }
      ],
      "name": "getTradeBuyer",
      "outputs": [
        {
          "name": "",
          "type": "address"
        }
      ],
      "payable": false,
      "stateMutability": "view",
      "type": "function"
    },
    {
      "constant": true,
      "inputs": [
        {
          "name": "key",
          "type": "uint64"
        }
      ],
      "name": "getTradeSeller",
      "outputs": [
        {
          "name": "",
          "type": "address"
        }
      ],
      "payable": false,
      "stateMutability": "view",
      "type": "function"
    },
    {
      "constant": true,
      "inputs": [
        {
          "name": "key",
          "type": "uint64"
        }
      ],
      "name": "getTradeBuyerMortgage",
      "outputs": [
        {
          "name": "",
          "type": "address"
        }
      ],
      "payable": false,
      "stateMutability": "view",
      "type": "function"
    },
    {
      "constant": true,
      "inputs": [
        {
          "name": "key",
          "type": "uint64"
        }
      ],
      "name": "getTradeSellerMortgage",
      "outputs": [
        {
          "name": "",
          "type": "address"
        }
      ],
      "payable": false,
      "stateMutability": "view",
      "type": "function"
    },
    {
      "constant": true,
      "inputs": [
        {
          "name": "key",
          "type": "uint64"
        }
      ],
      "name": "getTradeSellerAmount",
      "outputs": [
        {
          "name": "",
          "type": "uint256"
        }
      ],
      "payable": false,
      "stateMutability": "view",
      "type": "function"
    },
    {
      "constant": true,
      "inputs": [
        {
          "name": "key",
          "type": "uint64"
        }
      ],
      "name": "getTradeAmount",
      "outputs": [
        {
          "name": "",
          "type": "uint256"
        }
      ],
      "payable": false,
      "stateMutability": "view",
      "type": "function"
    },
    {
      "constant": true,
      "inputs": [
        {
          "name": "key",
          "type": "uint64"
        }
      ],
      "name": "getTradePrice",
      "outputs": [
        {
          "name": "",
          "type": "uint256"
        }
      ],
      "payable": false,
      "stateMutability": "view",
      "type": "function"
    },
    {
      "constant": true,
      "inputs": [
        {
          "name": "key",
          "type": "uint64"
        }
      ],
      "name": "getTradeValuePayed",
      "outputs": [
        {
          "name": "",
          "type": "uint256"
        }
      ],
      "payable": false,
      "stateMutability": "view",
      "type": "function"
    },
    {
      "constant": true,
      "inputs": [
        {
          "name": "key",
          "type": "uint64"
        }
      ],
      "name": "getTradeValueHold",
      "outputs": [
        {
          "name": "",
          "type": "uint256"
        }
      ],
      "payable": false,
      "stateMutability": "view",
      "type": "function"
    },
    {
      "constant": true,
      "inputs": [
        {
          "name": "key",
          "type": "uint64"
        }
      ],
      "name": "isTradeBidMortgage",
      "outputs": [
        {
          "name": "",
          "type": "bool"
        }
      ],
      "payable": false,
      "stateMutability": "view",
      "type": "function"
    },
    {
      "constant": true,
      "inputs": [
        {
          "name": "key",
          "type": "uint64"
        }
      ],
      "name": "isTradeAskMortgage",
      "outputs": [
        {
          "name": "",
          "type": "bool"
        }
      ],
      "payable": false,
      "stateMutability": "view",
      "type": "function"
    },
    {
      "constant": true,
      "inputs": [
        {
          "name": "key",
          "type": "uint64"
        }
      ],
      "name": "isTradeValid",
      "outputs": [
        {
          "name": "",
          "type": "bool"
        }
      ],
      "payable": false,
      "stateMutability": "view",
      "type": "function"
    },
    {
      "constant": false,
      "inputs": [
        {
          "name": "key",
          "type": "uint64"
        },
        {
          "name": "valid",
          "type": "bool"
        }
      ],
      "name": "setTradeValid",
      "outputs": [],
      "payable": false,
      "stateMutability": "nonpayable",
      "type": "function"
    },
    {
      "constant": false,
      "inputs": [
        {
          "name": "key",
          "type": "uint64"
        },
        {
          "name": "valueHold",
          "type": "uint256"
        }
      ],
      "name": "setTradeValueHold",
      "outputs": [],
      "payable": false,
      "stateMutability": "nonpayable",
      "type": "function"
    }
  ],
  "bytecode": "0x608060405234801561001057600080fd5b50336000818152602081905260409020805460ff191660019081179091558054600160a060020a03191690911790556115788061004e6000396000f30060806040526004361061020e5763ffffffff7c0100000000000000000000000000000000000000000000000000000000600035041663022914a7811461021357806304ac71f914610248578063079ea7411461028157806313879e3a146102af57806313af4035146102e75780631cc9a03b1461030857806328c367ee1461034b5780632df840f41461036d5780632fa9cb801461039457806331fa3d20146103bb57806338cc4831146103f6578063411bd4b81461040b57806341be76d51461042d57806355d02272146104575780635810587b14610479578063621e4ab7146104a0578063638a6a37146104c257806363fd16e4146104e7578063666a342714610509578063701ada821461052a57806370667d3a146105515780637642678b146105735780638234d27f1461059a5780638da5cb5b146105bc57806398fb4083146105d15780639e2c041e1461059a5780639e561cec146105fb5780639eaeec3c14610625578063a1ea85de14610646578063a2c4ced8146106ac578063a9bd5835146106d3578063b027ae8d146106fa578063bd8d6e6d14610724578063bde1827414610746578063d294f2e114610768578063d38ee4811461078f578063d9b40fac146107b1578063dd173611146107d5578063e11a9cb2146107ff578063e88914de14610821578063f5a55ff614610842578063fae7555014610863578063fcbd3e5c1461088f575b600080fd5b34801561021f57600080fd5b50610234600160a060020a03600435166108b1565b604080519115158252519081900360200190f35b34801561025457600080fd5b5061026f600160a060020a03600435811690602435166108c6565b60408051918252519081900360200190f35b34801561028d57600080fd5b506102ad600160a060020a03600435811690602435166044351515610914565b005b3480156102bb57600080fd5b506102ad6004356024356044351515600160a060020a0360643581169060843581169060a4351661096e565b3480156102f357600080fd5b506102ad600160a060020a03600435166109f6565b34801561031457600080fd5b5061032f600160a060020a0360043581169060243516610a43565b60408051600160a060020a039092168252519081900360200190f35b34801561035757600080fd5b5061023467ffffffffffffffff60043516610a94565b34801561037957600080fd5b5061026f600160a060020a0360043581169060243516610ad5565b3480156103a057600080fd5b50610234600160a060020a0360043581169060243516610b22565b3480156103c757600080fd5b506102ad6004356024356044356064351515600160a060020a0360843581169060a43581169060c43516610b72565b34801561040257600080fd5b5061032f610bfe565b34801561041757600080fd5b5061032f67ffffffffffffffff60043516610c02565b34801561043957600080fd5b506102ad600160a060020a0360043581169060243516604435610c49565b34801561046357600080fd5b5061023467ffffffffffffffff60043516610c92565b34801561048557600080fd5b5061026f600160a060020a0360043581169060243516610cd8565b3480156104ac57600080fd5b5061032f67ffffffffffffffff60043516610d22565b3480156104ce57600080fd5b506102ad67ffffffffffffffff60043516602435610d6b565b3480156104f357600080fd5b5061023467ffffffffffffffff60043516610da9565b34801561051557600080fd5b506102ad600160a060020a0360043516610de7565b34801561053657600080fd5b5061026f600160a060020a0360043581169060243516610e11565b34801561055d57600080fd5b5061032f67ffffffffffffffff60043516610e5b565b34801561057f57600080fd5b5061026f600160a060020a0360043581169060243516610ea2565b3480156105a657600080fd5b5061026f67ffffffffffffffff60043516610eef565b3480156105c857600080fd5b5061032f610f2e565b3480156105dd57600080fd5b506102ad600160a060020a0360043581169060243516604435610f3d565b34801561060757600080fd5b506102ad600160a060020a0360043581169060243516604435610f89565b34801561063157600080fd5b5061026f600160a060020a0360043516610fd7565b34801561065257600080fd5b506102ad67ffffffffffffffff600435166024351515600160a060020a0360443581169060643581169060843581169060a43581169060c4351660e435610104356101243561014435610164351515610184351515611011565b3480156106b857600080fd5b50610234600160a060020a0360043581169060243516611120565b3480156106df57600080fd5b5061032f600160a060020a0360043581169060243516611170565b34801561070657600080fd5b506102ad600160a060020a03600435811690602435166044356111c1565b34801561073057600080fd5b5061032f67ffffffffffffffff6004351661120a565b34801561075257600080fd5b5061026f67ffffffffffffffff60043516611251565b34801561077457600080fd5b506102ad67ffffffffffffffff60043516602435151561128f565b34801561079b57600080fd5b5061026f67ffffffffffffffff600435166112d9565b3480156107bd57600080fd5b506102ad600160a060020a0360043516602435611317565b3480156107e157600080fd5b506102ad600160a060020a0360043581169060243516604435611333565b34801561080b57600080fd5b5061026f67ffffffffffffffff6004351661137f565b34801561082d57600080fd5b50610234600160a060020a03600435166113bd565b34801561084e57600080fd5b506102ad600160a060020a03600435166113db565b34801561086f57600080fd5b506102ad600160a060020a03600435811690602435166044351515611402565b34801561089b57600080fd5b5061032f67ffffffffffffffff6004351661145c565b60006020819052908152604090205460ff1681565b3360009081526020819052604081205460ff1615156108e457600080fd5b50600160a060020a0380831660009081526002602081815260408084209486168452939052919020015492915050565b3360009081526020819052604090205460ff16151561093257600080fd5b600160a060020a039182166000908152600260209081526040808320959094168252939093529120600301805460ff1916911515919091179055565b3360009081526020819052604090205460ff16151561098c57600080fd5b600160a060020a03918216600090815260036020908152604080832093851683529290522094855560018501939093556002909301805460ff19169115159190911774ffffffffffffffffffffffffffffffffffffffff0019166101009390921692909202179055565b3360009081526020819052604090205460ff161515610a1457600080fd5b6001805473ffffffffffffffffffffffffffffffffffffffff1916600160a060020a0392909216919091179055565b3360009081526020819052604081205460ff161515610a6157600080fd5b50600160a060020a0391821660009081526002602090815260408083209385168352929052206003015461010090041690565b3360009081526020819052604081205460ff161515610ab257600080fd5b5067ffffffffffffffff1660009081526005602052604090206009015460ff1690565b3360009081526020819052604081205460ff161515610af357600080fd5b50600160a060020a03918216600090815260036020908152604080832093909416825291909152206001015490565b3360009081526020819052604081205460ff161515610b4057600080fd5b50600160a060020a03918216600090815260026020908152604080832093909416825291909152206003015460ff1690565b3360009081526020819052604090205460ff161515610b9057600080fd5b600160a060020a0391821660009081526002602081815260408084209486168452939052919020968755600187019590955560038601805460ff19169315159390931774ffffffffffffffffffffffffffffffffffffffff0019166101009290911691909102179055910155565b3090565b3360009081526020819052604081205460ff161515610c2057600080fd5b5067ffffffffffffffff16600090815260056020526040902060020154600160a060020a031690565b3360009081526020819052604090205460ff161515610c6757600080fd5b600160a060020a03918216600090815260026020908152604080832095909416825293909352912055565b3360009081526020819052604081205460ff161515610cb057600080fd5b5067ffffffffffffffff16600090815260056020526040902060090154610100900460ff1690565b3360009081526020819052604081205460ff161515610cf657600080fd5b50600160a060020a03918216600090815260026020908152604080832093909416825291909152205490565b3360009081526020819052604081205460ff161515610d4057600080fd5b5067ffffffffffffffff166000908152600560205260409020546101009004600160a060020a031690565b3360009081526020819052604090205460ff161515610d8957600080fd5b67ffffffffffffffff909116600090815260056020526040902060080155565b3360009081526020819052604081205460ff161515610dc757600080fd5b5067ffffffffffffffff1660009081526005602052604090205460ff1690565b3360009081526020819052604090205460ff161515610e0557600080fd5b610e0e816114a3565b50565b3360009081526020819052604081205460ff161515610e2f57600080fd5b50600160a060020a03918216600090815260036020908152604080832093909416825291909152205490565b3360009081526020819052604081205460ff161515610e7957600080fd5b5067ffffffffffffffff16600090815260056020526040902060040154600160a060020a031690565b3360009081526020819052604081205460ff161515610ec057600080fd5b50600160a060020a03918216600090815260026020908152604080832093909416825291909152206001015490565b3360009081526020819052604081205460ff161515610f0d57600080fd5b5067ffffffffffffffff166000908152600560208190526040909120015490565b600154600160a060020a031681565b3360009081526020819052604090205460ff161515610f5b57600080fd5b600160a060020a03918216600090815260036020908152604080832095909416825293909352912060010155565b3360009081526020819052604090205460ff161515610fa757600080fd5b600160a060020a039182166000908152600260208181526040808420969095168352949094529190912090910155565b3360009081526020819052604081205460ff161515610ff557600080fd5b50600160a060020a031660009081526004602052604090205490565b3360009081526020819052604090205460ff16151561102f57600080fd5b67ffffffffffffffff9c909c166000908152600560208190526040909120805460018201805473ffffffffffffffffffffffffffffffffffffffff19908116600160a060020a039e8f161790915560028301805482169c8e169c909c17909b556003820180548c169a8d169a909a17909955600481018054909a16978b16979097179098559685019390935560068401919091556007830155600882015560098101805460ff199081169415159490941761ff001916610100981515890217905574ffffffffffffffffffffffffffffffffffffffff00199091169390921690940291909117909216901515179055565b3360009081526020819052604081205460ff16151561113e57600080fd5b50600160a060020a03918216600090815260036020908152604080832093909416825291909152206002015460ff1690565b3360009081526020819052604081205460ff16151561118e57600080fd5b50600160a060020a0391821660009081526003602090815260408083209385168352929052206002015461010090041690565b3360009081526020819052604090205460ff1615156111df57600080fd5b600160a060020a03918216600090815260036020908152604080832095909416825293909352912055565b3360009081526020819052604081205460ff16151561122857600080fd5b5067ffffffffffffffff16600090815260056020526040902060010154600160a060020a031690565b3360009081526020819052604081205460ff16151561126f57600080fd5b5067ffffffffffffffff1660009081526005602052604090206008015490565b3360009081526020819052604090205460ff1615156112ad57600080fd5b67ffffffffffffffff919091166000908152600560205260409020805460ff1916911515919091179055565b3360009081526020819052604081205460ff1615156112f757600080fd5b5067ffffffffffffffff1660009081526005602052604090206007015490565b600160a060020a03909116600090815260046020526040902055565b3360009081526020819052604090205460ff16151561135157600080fd5b600160a060020a03918216600090815260026020908152604080832095909416825293909352912060010155565b3360009081526020819052604081205460ff16151561139d57600080fd5b5067ffffffffffffffff1660009081526005602052604090206006015490565b600160a060020a031660009081526020819052604090205460ff1690565b3360009081526020819052604090205460ff1615156113f957600080fd5b610e0e816114d9565b3360009081526020819052604090205460ff16151561142057600080fd5b600160a060020a039182166000908152600360209081526040808320959094168252939093529120600201805460ff1916911515919091179055565b3360009081526020819052604081205460ff16151561147a57600080fd5b5067ffffffffffffffff16600090815260056020526040902060030154600160a060020a031690565b600160a060020a03811615156114b857600080fd5b600160a060020a03166000908152602081905260409020805460ff19169055565b600160a060020a03811615156114ee57600080fd5b600154604051600160a060020a038084169216907f8be0079c531659141344cd1fd0a4f28419497f9722a3daafe3b4186f6b6457e090600090a3600160a060020a03166000908152602081905260409020805460ff191660011790555600a165627a7a723058207cc8463c9d814fe12579a4280020cec1c2804a5868498d74455c6b786fb87ea70029",
  "source": "pragma solidity ^0.4.24;\n\nimport \"openzeppelin-solidity/contracts/token/ERC20/StandardToken.sol\";\nimport \"openzeppelin-solidity/contracts/ownership/Ownable.sol\";\nimport 'openzeppelin-solidity/contracts/math/SafeMath.sol';\nimport \"../interfaces/Ownables.sol\";\nimport \"../interfaces/MortgageStoneStorageInt.sol\";\n\ncontract MortgageStoneStorage  is Ownables, MortgageStoneStorageInt{\n  using SafeMath for uint256;\n\n  struct TradeMortgage {\n    bool    valid;\n    address stoneCoinAddress;\n    address buyer;\n    address seller;\n    address buyerMortgage;\n    address sellerMortgage;\n    uint256 amount;\n    uint256 price;\n    uint256 valuePayed;\n    uint256 valueHold;\n    bool    bidMortgaged;\n    bool    askMortgaged;\n  }\n\n  struct Bid {\n    uint256 limit;\n    uint256 amount;\n    uint256 valueHold;\n    bool  mortgaged;\n    address mortgageRequest;\n  }\n\n  struct Ask {\n    uint256 limit;\n    uint256 amount;\n    bool  mortgaged;\n    address mortgage;\n  }\n  mapping(address => mapping(address => Bid))  userProjectBids;\n  mapping(address => mapping(address => Ask))  userProjectAsks;\n  mapping(address => uint256) mortgageeBalances;\n  mapping(uint64 => TradeMortgage) tradeMortgages;\n  constructor() public Ownables() {\n  }\n\n  function createBid(uint256 limit,  uint256 amount, uint256 valueHold, bool  mortgaged, address mortgageRequest, address user, address stoneCoinAddress) public onlyOwner{\n    userProjectBids[user][stoneCoinAddress].limit = limit;\n    userProjectBids[user][stoneCoinAddress].amount = amount;\n    userProjectBids[user][stoneCoinAddress].mortgaged = mortgaged;\n    userProjectBids[user][stoneCoinAddress].mortgageRequest = mortgageRequest;\n    userProjectBids[user][stoneCoinAddress].valueHold = valueHold;\n  }\n  function createAsk(uint256 limit,  uint256 amount,  bool  mortgaged, address mortgageAddress, address user, address stoneCoinAddress) public onlyOwner{\n    userProjectAsks[user][stoneCoinAddress].limit = limit;\n    userProjectAsks[user][stoneCoinAddress].amount = amount;\n    userProjectAsks[user][stoneCoinAddress].mortgaged = mortgaged;\n    userProjectAsks[user][stoneCoinAddress].mortgage = mortgageAddress;\n  }\n\n  function askAmount(address user, address stoneCoinAddress) public view onlyOwner returns(uint256){\n    return  userProjectAsks[user][stoneCoinAddress].amount;\n  }\n  function askLimit(address user, address stoneCoinAddress) public view onlyOwner returns(uint256){\n    return  userProjectAsks[user][stoneCoinAddress].limit;\n  }\n\n  function askMortgaged(address user, address stoneCoinAddress) public view onlyOwner returns(bool){\n    return  userProjectAsks[user][stoneCoinAddress].mortgaged;\n  }\n\n  function askMortgage(address user, address stoneCoinAddress) public view onlyOwner returns(address){\n    return  userProjectAsks[user][stoneCoinAddress].mortgage;\n  }\n\n  function bidAmount(address user, address stoneCoinAddress) public view onlyOwner returns(uint256){\n    return  userProjectBids[user][stoneCoinAddress].amount;\n  }\n  function bidLimit(address user, address stoneCoinAddress) public view onlyOwner returns(uint256){\n    return  userProjectBids[user][stoneCoinAddress].limit;\n  }\n\n  function bidMortgaged(address user, address stoneCoinAddress) public view onlyOwner returns(bool){\n    return  userProjectBids[user][stoneCoinAddress].mortgaged;\n  }\n\n  function bidMortgageRequest(address user, address stoneCoinAddress) public view onlyOwner returns(address){\n    return  userProjectBids[user][stoneCoinAddress].mortgageRequest;\n  }\n\n  function bidMortgageValueHold(address user, address stoneCoinAddress) public view onlyOwner returns(uint256){\n    return  userProjectBids[user][stoneCoinAddress].valueHold;\n  }\n\n  function getMortgageeBalance(address mortgagee) public view onlyOwner returns(uint256){\n    return  mortgageeBalances[mortgagee];\n  }\n\n  function setMortgageeBalance(address mortgagee, uint256 balance ) public  {\n    mortgageeBalances[mortgagee] = balance;\n  }\n\n  function setBidAmount(address _stoneCoinAddress, address user, uint256 amount) public  onlyOwner {\n    userProjectBids[user][_stoneCoinAddress].amount = amount;\n  }\n\n  function setBidMortgaged(address stoneCoinAddress, address user, bool mortgaged) public  onlyOwner  {\n    userProjectBids[user][stoneCoinAddress].mortgaged = mortgaged;\n  }\n\n  function setBidLimit(address stoneCoinAddress, address user, uint256 limit) public onlyOwner{\n    userProjectBids[user][stoneCoinAddress].limit = limit;\n  }\n\n  function setAskAmount(address stoneCoinAddress, address user, uint256 amount) public  onlyOwner {\n    userProjectAsks[user][stoneCoinAddress].amount = amount;\n  }\n  function setAskMortgaged(address stoneCoinAddress, address user, bool mortgaged) public  onlyOwner {\n    userProjectAsks[user][stoneCoinAddress].mortgaged = mortgaged;\n  }\n\n  function setAskLimit(address stoneCoinAddress, address user, uint256 limit) public onlyOwner  {\n    userProjectAsks[user][stoneCoinAddress].limit = limit;\n  }\n\n  function setBidValueHold(address stoneCoinAddress, address user, uint256 valueHold)  public onlyOwner {\n    userProjectBids[user][stoneCoinAddress].valueHold = valueHold;\n  }\n\n  function createTradeMortgage(\n    uint64 key,\n    bool    valid,\n    address stoneCoinAddress,\n    address buyer,\n    address seller,\n    address buyerMortgage,\n    address sellerMortgage,\n    uint256 amount,\n    uint256 price,\n    uint256 valuePayed,\n    uint256 valueHold,\n    bool    _bidMortgaged,\n    bool    _askMortgaged\n  ) public onlyOwner{\n    tradeMortgages[key].stoneCoinAddress = stoneCoinAddress;\n    tradeMortgages[key].buyer = buyer;\n    tradeMortgages[key].seller = seller;\n    tradeMortgages[key].buyerMortgage = buyerMortgage;\n    tradeMortgages[key].sellerMortgage = sellerMortgage;\n    tradeMortgages[key].amount = amount;\n    tradeMortgages[key].price = price;\n    tradeMortgages[key].valuePayed = valuePayed;\n    tradeMortgages[key].valueHold = valueHold;\n    tradeMortgages[key].bidMortgaged = _bidMortgaged;\n    tradeMortgages[key].askMortgaged = _askMortgaged;\n    tradeMortgages[key].valid = valid;\n  }\n\n  function getTradeStoneCoin(uint64 key) public view onlyOwner returns(address){\n    return  tradeMortgages[key].stoneCoinAddress;\n  }\n\n  function getTradeBuyer(uint64 key) public view onlyOwner returns(address){\n    return  tradeMortgages[key].buyer;\n  }\n\n  function getTradeSeller(uint64 key) public view onlyOwner returns(address){\n    return  tradeMortgages[key].seller;\n  }\n\n  function getTradeBuyerMortgage(uint64 key) public view onlyOwner returns(address){\n    return  tradeMortgages[key].buyerMortgage;\n  }\n\n  function getTradeSellerMortgage(uint64 key) public view onlyOwner returns(address){\n    return  tradeMortgages[key].sellerMortgage;\n  }\n\n  function getTradeSellerAmount(uint64 key) public view onlyOwner returns(uint256){\n    return  tradeMortgages[key].amount;\n  }\n\n  function getTradeAmount(uint64 key) public view onlyOwner returns(uint256){\n    return  tradeMortgages[key].amount;\n  }\n\n  function getTradePrice(uint64 key) public view onlyOwner returns(uint256){\n    return  tradeMortgages[key].price;\n  }\n\n  function getTradeValuePayed(uint64 key) public view onlyOwner returns(uint256){\n    return  tradeMortgages[key].valuePayed;\n  }\n\n  function getTradeValueHold(uint64 key) public view onlyOwner returns(uint256){\n    return  tradeMortgages[key].valueHold;\n  }\n\n  function isTradeBidMortgage(uint64 key) public view onlyOwner returns(bool){\n    return  tradeMortgages[key].bidMortgaged;\n  }\n\n  function isTradeAskMortgage(uint64 key) public view onlyOwner returns(bool){\n    return  tradeMortgages[key].askMortgaged;\n  }\n  function isTradeValid(uint64 key) public view onlyOwner returns(bool){\n    return  tradeMortgages[key].valid;\n  }\n\n  function setTradeValid(uint64 key, bool valid) public onlyOwner {\n    tradeMortgages[key].valid = valid;\n  }\n\n  function setTradeValueHold(uint64 key, uint256 valueHold) public  onlyOwner {\n    tradeMortgages[key].valueHold = valueHold;\n  }\n\n\n}\n",
  "sourcePath": "/Users/roilandshut/projects/brikoin/brikoin/contracts/storage/MortgageStoneStorage.sol",
  "compiler": {
    "name": "solc",
    "version": "0.4.24+commit.e67f0147.Emscripten.clang"
  },
  "schemaVersion": "2.0.1",
  "updatedAt": "2019-10-27T14:12:11.060Z"
}