{
  "contractName": "MortgageRequest",
  "abi": [
    {
      "constant": true,
      "inputs": [],
      "name": "approved",
      "outputs": [
        {
          "name": "",
          "type": "bool"
        }
      ],
      "payable": false,
      "stateMutability": "view",
      "type": "function"
    },
    {
      "constant": true,
      "inputs": [],
      "name": "isExternal",
      "outputs": [
        {
          "name": "",
          "type": "bool"
        }
      ],
      "payable": false,
      "stateMutability": "view",
      "type": "function"
    },
    {
      "constant": true,
      "inputs": [],
      "name": "downPayment",
      "outputs": [
        {
          "name": "",
          "type": "uint256"
        }
      ],
      "payable": false,
      "stateMutability": "view",
      "type": "function"
    },
    {
      "constant": true,
      "inputs": [],
      "name": "totalPayment",
      "outputs": [
        {
          "name": "",
          "type": "uint256"
        }
      ],
      "payable": false,
      "stateMutability": "view",
      "type": "function"
    },
    {
      "constant": false,
      "inputs": [],
      "name": "renounceOwnership",
      "outputs": [],
      "payable": false,
      "stateMutability": "nonpayable",
      "type": "function"
    },
    {
      "constant": true,
      "inputs": [],
      "name": "mortgagee",
      "outputs": [
        {
          "name": "",
          "type": "address"
        }
      ],
      "payable": false,
      "stateMutability": "view",
      "type": "function"
    },
    {
      "constant": true,
      "inputs": [],
      "name": "owner",
      "outputs": [
        {
          "name": "",
          "type": "address"
        }
      ],
      "payable": false,
      "stateMutability": "view",
      "type": "function"
    },
    {
      "constant": true,
      "inputs": [],
      "name": "approvedByMortgage",
      "outputs": [
        {
          "name": "",
          "type": "address"
        }
      ],
      "payable": false,
      "stateMutability": "view",
      "type": "function"
    },
    {
      "constant": true,
      "inputs": [],
      "name": "requester",
      "outputs": [
        {
          "name": "",
          "type": "address"
        }
      ],
      "payable": false,
      "stateMutability": "view",
      "type": "function"
    },
    {
      "constant": true,
      "inputs": [],
      "name": "valid",
      "outputs": [
        {
          "name": "",
          "type": "bool"
        }
      ],
      "payable": false,
      "stateMutability": "view",
      "type": "function"
    },
    {
      "constant": true,
      "inputs": [],
      "name": "mortgageCondition",
      "outputs": [
        {
          "name": "",
          "type": "address"
        }
      ],
      "payable": false,
      "stateMutability": "view",
      "type": "function"
    },
    {
      "constant": true,
      "inputs": [],
      "name": "stoneCoin",
      "outputs": [
        {
          "name": "",
          "type": "address"
        }
      ],
      "payable": false,
      "stateMutability": "view",
      "type": "function"
    },
    {
      "constant": true,
      "inputs": [],
      "name": "longTermMonth",
      "outputs": [
        {
          "name": "",
          "type": "uint256"
        }
      ],
      "payable": false,
      "stateMutability": "view",
      "type": "function"
    },
    {
      "constant": false,
      "inputs": [
        {
          "name": "_newOwner",
          "type": "address"
        }
      ],
      "name": "transferOwnership",
      "outputs": [],
      "payable": false,
      "stateMutability": "nonpayable",
      "type": "function"
    },
    {
      "constant": true,
      "inputs": [],
      "name": "downPaymentPercentMill",
      "outputs": [
        {
          "name": "",
          "type": "uint256"
        }
      ],
      "payable": false,
      "stateMutability": "view",
      "type": "function"
    },
    {
      "inputs": [
        {
          "name": "_requester",
          "type": "address"
        },
        {
          "name": "_stoneCoin",
          "type": "address"
        },
        {
          "name": "_mortgageCondition",
          "type": "address"
        },
        {
          "name": "_totalPayment",
          "type": "uint256"
        },
        {
          "name": "_downPayment",
          "type": "uint256"
        },
        {
          "name": "_downPaymentPercentMill",
          "type": "uint256"
        },
        {
          "name": "_longTermMonth",
          "type": "uint256"
        },
        {
          "name": "_mortgagee",
          "type": "address"
        },
        {
          "name": "_isExternal",
          "type": "bool"
        }
      ],
      "payable": false,
      "stateMutability": "nonpayable",
      "type": "constructor"
    },
    {
      "anonymous": false,
      "inputs": [
        {
          "indexed": true,
          "name": "previousOwner",
          "type": "address"
        }
      ],
      "name": "OwnershipRenounced",
      "type": "event"
    },
    {
      "anonymous": false,
      "inputs": [
        {
          "indexed": true,
          "name": "previousOwner",
          "type": "address"
        },
        {
          "indexed": true,
          "name": "newOwner",
          "type": "address"
        }
      ],
      "name": "OwnershipTransferred",
      "type": "event"
    },
    {
      "constant": false,
      "inputs": [],
      "name": "approveByAdmin",
      "outputs": [],
      "payable": false,
      "stateMutability": "nonpayable",
      "type": "function"
    },
    {
      "constant": false,
      "inputs": [],
      "name": "approve",
      "outputs": [],
      "payable": false,
      "stateMutability": "nonpayable",
      "type": "function"
    },
    {
      "constant": true,
      "inputs": [],
      "name": "validateContract",
      "outputs": [
        {
          "name": "",
          "type": "bool"
        }
      ],
      "payable": false,
      "stateMutability": "view",
      "type": "function"
    },
    {
      "constant": false,
      "inputs": [],
      "name": "disable",
      "outputs": [],
      "payable": false,
      "stateMutability": "nonpayable",
      "type": "function"
    },
    {
      "constant": false,
      "inputs": [],
      "name": "enable",
      "outputs": [],
      "payable": false,
      "stateMutability": "nonpayable",
      "type": "function"
    },
    {
      "constant": true,
      "inputs": [],
      "name": "isEnabled",
      "outputs": [
        {
          "name": "",
          "type": "bool"
        }
      ],
      "payable": false,
      "stateMutability": "view",
      "type": "function"
    },
    {
      "constant": true,
      "inputs": [],
      "name": "isApproved",
      "outputs": [
        {
          "name": "",
          "type": "bool"
        }
      ],
      "payable": false,
      "stateMutability": "view",
      "type": "function"
    },
    {
      "constant": true,
      "inputs": [],
      "name": "getRequester",
      "outputs": [
        {
          "name": "",
          "type": "address"
        }
      ],
      "payable": false,
      "stateMutability": "view",
      "type": "function"
    },
    {
      "constant": true,
      "inputs": [],
      "name": "getMortgageCondition",
      "outputs": [
        {
          "name": "",
          "type": "address"
        }
      ],
      "payable": false,
      "stateMutability": "view",
      "type": "function"
    },
    {
      "constant": true,
      "inputs": [],
      "name": "getMortgagee",
      "outputs": [
        {
          "name": "",
          "type": "address"
        }
      ],
      "payable": false,
      "stateMutability": "view",
      "type": "function"
    },
    {
      "constant": true,
      "inputs": [],
      "name": "getTotalLoan",
      "outputs": [
        {
          "name": "",
          "type": "uint256"
        }
      ],
      "payable": false,
      "stateMutability": "view",
      "type": "function"
    },
    {
      "constant": true,
      "inputs": [],
      "name": "getLongTermMonth",
      "outputs": [
        {
          "name": "",
          "type": "uint256"
        }
      ],
      "payable": false,
      "stateMutability": "view",
      "type": "function"
    },
    {
      "constant": true,
      "inputs": [],
      "name": "getDownPayment",
      "outputs": [
        {
          "name": "",
          "type": "uint256"
        }
      ],
      "payable": false,
      "stateMutability": "view",
      "type": "function"
    },
    {
      "constant": true,
      "inputs": [],
      "name": "getDownPaymentPercentMill",
      "outputs": [
        {
          "name": "",
          "type": "uint256"
        }
      ],
      "payable": false,
      "stateMutability": "view",
      "type": "function"
    },
    {
      "constant": true,
      "inputs": [],
      "name": "getMortgageApprove",
      "outputs": [
        {
          "name": "",
          "type": "address"
        }
      ],
      "payable": false,
      "stateMutability": "view",
      "type": "function"
    }
  ],
  "bytecode": "0x608060405234801561001057600080fd5b5060405161012080610b7d83398101604090815281516020830151918301516060840151608085015160a086015160c087015160e0880151610100909801516000805460028054600160a060020a03998a16600160a060020a031991821617909155600380549a8a169a82169a909a17909955600480549a89169a8a169a909a179099556005805497909a16968816969096179098556006929092556007929092556008556009559215157601000000000000000000000000000000000000000000000260a860020a61ffff021960a060020a60ff021992909316331791909116740100000000000000000000000000000000000000001791909116179055610a5f8061011e6000396000f30060806040526004361061017f5763ffffffff7c010000000000000000000000000000000000000000000000000000000060003504166306bff47b811461018457806312234ee0146101ab57806312424e3f146101dc57806319d40b08146101f35780631febdd9c1461021c57806328f371aa146102315780632929c6e6146102465780632baa031e1461025b5780632f2770db146102705780632f29a0621461028557806356f504731461029a57806358eeabbc146102af5780635f311214146102c45780636aa633b6146102d9578063715018a6146102ee57806374ebef68146103035780638da5cb5b14610318578063927ff3361461032d5780639db47b7714610342578063a3907d7114610357578063b61e96a51461036c578063c199121914610381578063cd1e071714610396578063cf062110146103ab578063d055900c146103c0578063d6dd04f7146103d5578063da62fdc6146103ea578063ed5257f4146103ff578063f2fde38b14610414578063f8ac635214610435575b600080fd5b34801561019057600080fd5b5061019961044a565b60408051918252519081900360200190f35b3480156101b757600080fd5b506101c0610450565b60408051600160a060020a039092168252519081900360200190f35b3480156101e857600080fd5b506101f161045f565b005b3480156101ff57600080fd5b506102086104d5565b604080519115158252519081900360200190f35b34801561022857600080fd5b506102086104f7565b34801561023d57600080fd5b5061020861051a565b34801561025257600080fd5b5061019961053c565b34801561026757600080fd5b50610208610542565b34801561027c57600080fd5b506101f16106b7565b34801561029157600080fd5b506101c06106ee565b3480156102a657600080fd5b506101996106fd565b3480156102bb57600080fd5b50610199610703565b3480156102d057600080fd5b506101c0610709565b3480156102e557600080fd5b50610208610718565b3480156102fa57600080fd5b506101f1610739565b34801561030f57600080fd5b506101c06107a5565b34801561032457600080fd5b506101c06107b4565b34801561033957600080fd5b506101c06107c3565b34801561034e57600080fd5b506101996107d2565b34801561036357600080fd5b506101f16107d8565b34801561037857600080fd5b506101c0610826565b34801561038d57600080fd5b50610208610835565b3480156103a257600080fd5b506101c0610856565b3480156103b757600080fd5b506101c0610865565b3480156103cc57600080fd5b506101c0610874565b3480156103e157600080fd5b50610199610883565b3480156103f657600080fd5b506101f1610889565b34801561040b57600080fd5b50610199610987565b34801561042057600080fd5b506101f1600160a060020a036004351661098d565b34801561044157600080fd5b506101996109b0565b60085490565b600154600160a060020a031690565b600554600160a060020a0316331461047657600080fd5b61047e610542565b151561048957600080fd5b610491610718565b151561049c57600080fd5b6000805475ff00000000000000000000000000000000000000000019167501000000000000000000000000000000000000000000179055565b6000547501000000000000000000000000000000000000000000900460ff1681565b600054760100000000000000000000000000000000000000000000900460ff1681565b6000547501000000000000000000000000000000000000000000900460ff1690565b60075490565b600080548190760100000000000000000000000000000000000000000000900460ff161561057357600191506106b3565b5060025460048054604080517f4538f92f0000000000000000000000000000000000000000000000000000000081529051600160a060020a0394851694909216928492634538f92f9280830192602092918290030181600087803b1580156105da57600080fd5b505af11580156105ee573d6000803e3d6000fd5b505050506040513d602081101561060457600080fd5b5051600160a060020a03161480156106b05750600554604080517f2f29a0620000000000000000000000000000000000000000000000000000000081529051600160a060020a0392831692841691632f29a0629160048083019260209291908290030181600087803b15801561067957600080fd5b505af115801561068d573d6000803e3d6000fd5b505050506040513d60208110156106a357600080fd5b5051600160a060020a0316145b91505b5090565b600054600160a060020a031633146106ce57600080fd5b6000805474ff000000000000000000000000000000000000000019169055565b600554600160a060020a031690565b60065481565b60075481565b600254600160a060020a031690565b60005474010000000000000000000000000000000000000000900460ff1690565b600054600160a060020a0316331461075057600080fd5b60008054604051600160a060020a03909116917ff8df31144d9c2f0f6b59d69b8b98abd5459d07f2742c4df920b25aae33c6482091a26000805473ffffffffffffffffffffffffffffffffffffffff19169055565b600554600160a060020a031681565b600054600160a060020a031681565b600154600160a060020a031681565b60095490565b600054600160a060020a031633146107ef57600080fd5b6000805474ff0000000000000000000000000000000000000000191674010000000000000000000000000000000000000000179055565b600354600160a060020a031681565b60005474010000000000000000000000000000000000000000900460ff1681565b600354600160a060020a031690565b600254600160a060020a031681565b600454600160a060020a031681565b60065490565b60008054600160a060020a031633146108a157600080fd5b6108a9610542565b15156108b457600080fd5b50600254604080517f6524395e0000000000000000000000000000000000000000000000000000000081529051600160a060020a03909216918291636524395e9160048083019260209291908290030181600087803b15801561091657600080fd5b505af115801561092a573d6000803e3d6000fd5b505050506040513d602081101561094057600080fd5b5051151561094d57600080fd5b506000805475ff00000000000000000000000000000000000000000019167501000000000000000000000000000000000000000000179055565b60085481565b600054600160a060020a031633146109a457600080fd5b6109ad816109b6565b50565b60095481565b600160a060020a03811615156109cb57600080fd5b60008054604051600160a060020a03808516939216917f8be0079c531659141344cd1fd0a4f28419497f9722a3daafe3b4186f6b6457e091a36000805473ffffffffffffffffffffffffffffffffffffffff1916600160a060020a03929092169190911790555600a165627a7a7230582076fd13435a0311b0eba73e38c417dc403525edc575fa091bf6e8d7438e10c2650029",
  "source": "pragma solidity ^0.4.24;\nimport 'openzeppelin-solidity/contracts/ownership/Ownable.sol';\nimport 'openzeppelin-solidity/contracts/math/SafeMath.sol';\nimport \"./MortgageeCondition.sol\";\nimport \"../interfaces/MortgageRequestInt.sol\";\n\ncontract MortgageRequest is Ownable, MortgageRequestInt{\n  using SafeMath for uint256;\n\n  bool    public valid;\n  bool    public approved;\n  bool    public isExternal;\n  address public approvedByMortgage;\n  address public mortgageCondition;\n  address public requester;\n  address public stoneCoin;\n  address public mortgagee;\n  uint256 public downPayment;\n  uint256 public totalPayment;\n  uint256 public longTermMonth;\n  uint256 public downPaymentPercentMill;\n\n  constructor(\n    address _requester,\n    address _stoneCoin,\n    address _mortgageCondition,\n    uint256 _totalPayment,\n    uint256 _downPayment,\n    uint256 _downPaymentPercentMill,\n    uint256 _longTermMonth,\n    address _mortgagee,\n    bool _isExternal\n  ) Ownable() public {\n    valid = true;\n    mortgageCondition = _mortgageCondition;\n    requester = _requester;\n    stoneCoin = _stoneCoin;\n    mortgagee = _mortgagee;\n    downPayment = _downPayment;\n    totalPayment = _totalPayment;\n    longTermMonth = _longTermMonth;\n    downPaymentPercentMill = _downPaymentPercentMill;\n    approved = false;\n    isExternal = _isExternal;\n  }\n\n  function approveByAdmin() public onlyOwner {\n    require(validateContract());\n    MortgageeCondition mortgageConditionContract = MortgageeCondition(mortgageCondition);\n    require(mortgageConditionContract.isAutomaticApproval());\n    approved = true;\n  }\n  function approve() public {\n    require(msg.sender == mortgagee);\n    require(validateContract());\n    require(isEnabled());\n    approved = true;\n  }\n\n  function validateContract() public view returns(bool) {\n    if(isExternal){\n      return true;\n    }\n    MortgageeCondition mortgageConditionContract = MortgageeCondition(mortgageCondition);\n    return mortgageConditionContract.getStoneCoinAddress() == stoneCoin && mortgageConditionContract.getMortgagee() == mortgagee;\n  }\n\n  function disable() public onlyOwner{\n    valid = false;\n  }\n\n  function enable() public onlyOwner{\n    valid = true;\n  }\n\n  function isEnabled() public view returns(bool){\n    return valid;\n  }\n\n  function isApproved() public view returns(bool){\n    return approved;\n  }\n\n  function getRequester() public view returns(address) {\n    return requester;\n  }\n  function getMortgageCondition() public view returns(address) {\n    return mortgageCondition;\n  }\n\n  function getMortgagee() public view returns(address) {\n    return mortgagee;\n  }\n\n  function getTotalLoan() public view returns(uint256) {\n    return totalPayment;\n  }\n  function getLongTermMonth() public view returns(uint256) {\n    return longTermMonth;\n  }\n\n  function getDownPayment() public view returns(uint256) {\n    return downPayment;\n  }\n  function getDownPaymentPercentMill() public view returns(uint256) {\n    return downPaymentPercentMill;\n  }\n\n  function getMortgageApprove()public view returns(address) {\n    return approvedByMortgage;\n  }\n\n\n\n}\n",
  "sourcePath": "/Users/roilandshut/projects/brikoin/brikoin/contracts/structures/MortgageRequest.sol",
  "compiler": {
    "name": "solc",
    "version": "0.4.24+commit.e67f0147.Emscripten.clang"
  },
  "schemaVersion": "2.0.1",
  "updatedAt": "2019-10-27T14:12:11.099Z"
}