{
  "contractName": "MortgageeCondition",
  "abi": [
    {
      "constant": true,
      "inputs": [
        {
          "name": "",
          "type": "address"
        }
      ],
      "name": "owners",
      "outputs": [
        {
          "name": "",
          "type": "bool"
        }
      ],
      "payable": false,
      "stateMutability": "view",
      "type": "function"
    },
    {
      "constant": true,
      "inputs": [],
      "name": "active",
      "outputs": [
        {
          "name": "",
          "type": "bool"
        }
      ],
      "payable": false,
      "stateMutability": "view",
      "type": "function"
    },
    {
      "constant": false,
      "inputs": [
        {
          "name": "_newOwner",
          "type": "address"
        }
      ],
      "name": "setOwner",
      "outputs": [],
      "payable": false,
      "stateMutability": "nonpayable",
      "type": "function"
    },
    {
      "constant": true,
      "inputs": [],
      "name": "getAddress",
      "outputs": [
        {
          "name": "",
          "type": "address"
        }
      ],
      "payable": false,
      "stateMutability": "view",
      "type": "function"
    },
    {
      "constant": true,
      "inputs": [],
      "name": "fixedInterestRateMilliPercent",
      "outputs": [
        {
          "name": "",
          "type": "uint64"
        }
      ],
      "payable": false,
      "stateMutability": "view",
      "type": "function"
    },
    {
      "constant": false,
      "inputs": [
        {
          "name": "_newOwner",
          "type": "address"
        }
      ],
      "name": "removeOwnership",
      "outputs": [],
      "payable": false,
      "stateMutability": "nonpayable",
      "type": "function"
    },
    {
      "constant": true,
      "inputs": [],
      "name": "maxLoanTermMonths",
      "outputs": [
        {
          "name": "",
          "type": "uint64"
        }
      ],
      "payable": false,
      "stateMutability": "view",
      "type": "function"
    },
    {
      "constant": true,
      "inputs": [],
      "name": "mortgagee",
      "outputs": [
        {
          "name": "",
          "type": "address"
        }
      ],
      "payable": false,
      "stateMutability": "view",
      "type": "function"
    },
    {
      "constant": true,
      "inputs": [],
      "name": "owner",
      "outputs": [
        {
          "name": "",
          "type": "address"
        }
      ],
      "payable": false,
      "stateMutability": "view",
      "type": "function"
    },
    {
      "constant": true,
      "inputs": [],
      "name": "automaticApproval",
      "outputs": [
        {
          "name": "",
          "type": "bool"
        }
      ],
      "payable": false,
      "stateMutability": "view",
      "type": "function"
    },
    {
      "constant": true,
      "inputs": [],
      "name": "maxLoanMicros",
      "outputs": [
        {
          "name": "",
          "type": "uint256"
        }
      ],
      "payable": false,
      "stateMutability": "view",
      "type": "function"
    },
    {
      "constant": true,
      "inputs": [],
      "name": "adjustPeriodicCap25",
      "outputs": [
        {
          "name": "",
          "type": "uint64"
        }
      ],
      "payable": false,
      "stateMutability": "view",
      "type": "function"
    },
    {
      "constant": true,
      "inputs": [],
      "name": "adjustFixedRateMonths",
      "outputs": [
        {
          "name": "",
          "type": "uint64"
        }
      ],
      "payable": false,
      "stateMutability": "view",
      "type": "function"
    },
    {
      "constant": true,
      "inputs": [],
      "name": "adjustInitialCap25",
      "outputs": [
        {
          "name": "",
          "type": "uint64"
        }
      ],
      "payable": false,
      "stateMutability": "view",
      "type": "function"
    },
    {
      "constant": true,
      "inputs": [],
      "name": "adjustLifetimeCa",
      "outputs": [
        {
          "name": "",
          "type": "uint64"
        }
      ],
      "payable": false,
      "stateMutability": "view",
      "type": "function"
    },
    {
      "constant": true,
      "inputs": [],
      "name": "downPaymentMilliPercent",
      "outputs": [
        {
          "name": "",
          "type": "uint64"
        }
      ],
      "payable": false,
      "stateMutability": "view",
      "type": "function"
    },
    {
      "constant": true,
      "inputs": [],
      "name": "interestRateMilliPercent",
      "outputs": [
        {
          "name": "",
          "type": "uint64"
        }
      ],
      "payable": false,
      "stateMutability": "view",
      "type": "function"
    },
    {
      "constant": true,
      "inputs": [
        {
          "name": "user",
          "type": "address"
        }
      ],
      "name": "isOwnable",
      "outputs": [
        {
          "name": "",
          "type": "bool"
        }
      ],
      "payable": false,
      "stateMutability": "view",
      "type": "function"
    },
    {
      "constant": true,
      "inputs": [],
      "name": "stoneCoinAddress",
      "outputs": [
        {
          "name": "",
          "type": "address"
        }
      ],
      "payable": false,
      "stateMutability": "view",
      "type": "function"
    },
    {
      "constant": false,
      "inputs": [
        {
          "name": "_newOwner",
          "type": "address"
        }
      ],
      "name": "addOwnership",
      "outputs": [],
      "payable": false,
      "stateMutability": "nonpayable",
      "type": "function"
    },
    {
      "inputs": [
        {
          "name": "_mortgagee",
          "type": "address"
        },
        {
          "name": "_automaticApproval",
          "type": "bool"
        },
        {
          "name": "_stoneCoinAddress",
          "type": "address"
        },
        {
          "name": "_maxLoanMicros",
          "type": "uint256"
        },
        {
          "name": "_interestRateMilliPercent",
          "type": "uint64"
        },
        {
          "name": "_fixedInterestRateMilliPercent",
          "type": "uint64"
        },
        {
          "name": "_downPaymentMilliPercent",
          "type": "uint64"
        },
        {
          "name": "_loanTermMonths",
          "type": "uint64"
        },
        {
          "name": "_adjustFixedRateMonths",
          "type": "uint64"
        },
        {
          "name": "_adjustInitialCap25",
          "type": "uint64"
        },
        {
          "name": "_adjustPeriodicCap25",
          "type": "uint64"
        },
        {
          "name": "_adjustLifetimeCap",
          "type": "uint64"
        }
      ],
      "payable": false,
      "stateMutability": "nonpayable",
      "type": "constructor"
    },
    {
      "anonymous": false,
      "inputs": [
        {
          "indexed": true,
          "name": "previousOwner",
          "type": "address"
        }
      ],
      "name": "OwnershipRenounced",
      "type": "event"
    },
    {
      "anonymous": false,
      "inputs": [
        {
          "indexed": true,
          "name": "previousOwner",
          "type": "address"
        },
        {
          "indexed": true,
          "name": "newOwner",
          "type": "address"
        }
      ],
      "name": "OwnershipTransferred",
      "type": "event"
    },
    {
      "constant": false,
      "inputs": [],
      "name": "disable",
      "outputs": [],
      "payable": false,
      "stateMutability": "nonpayable",
      "type": "function"
    },
    {
      "constant": false,
      "inputs": [],
      "name": "activate",
      "outputs": [],
      "payable": false,
      "stateMutability": "nonpayable",
      "type": "function"
    },
    {
      "constant": true,
      "inputs": [],
      "name": "getStoneCoinAddress",
      "outputs": [
        {
          "name": "",
          "type": "address"
        }
      ],
      "payable": false,
      "stateMutability": "view",
      "type": "function"
    },
    {
      "constant": true,
      "inputs": [],
      "name": "getInterestRateMilliPercent",
      "outputs": [
        {
          "name": "",
          "type": "address"
        }
      ],
      "payable": false,
      "stateMutability": "view",
      "type": "function"
    },
    {
      "constant": true,
      "inputs": [],
      "name": "getGixedInterestRateMilliPercent",
      "outputs": [
        {
          "name": "",
          "type": "address"
        }
      ],
      "payable": false,
      "stateMutability": "view",
      "type": "function"
    },
    {
      "constant": true,
      "inputs": [],
      "name": "getMaxLoanMicros",
      "outputs": [
        {
          "name": "",
          "type": "uint256"
        }
      ],
      "payable": false,
      "stateMutability": "view",
      "type": "function"
    },
    {
      "constant": true,
      "inputs": [],
      "name": "getMaxLoanTermMonths",
      "outputs": [
        {
          "name": "",
          "type": "uint256"
        }
      ],
      "payable": false,
      "stateMutability": "view",
      "type": "function"
    },
    {
      "constant": true,
      "inputs": [],
      "name": "getMortgagee",
      "outputs": [
        {
          "name": "",
          "type": "address"
        }
      ],
      "payable": false,
      "stateMutability": "view",
      "type": "function"
    },
    {
      "constant": true,
      "inputs": [],
      "name": "isAutomaticApproval",
      "outputs": [
        {
          "name": "",
          "type": "bool"
        }
      ],
      "payable": false,
      "stateMutability": "view",
      "type": "function"
    },
    {
      "constant": true,
      "inputs": [],
      "name": "isActive",
      "outputs": [
        {
          "name": "",
          "type": "bool"
        }
      ],
      "payable": false,
      "stateMutability": "view",
      "type": "function"
    }
  ],
  "bytecode": "0x608060405234801561001057600080fd5b5060405161018080610ae78339810160409081528151602080840151838501516060860151608087015160a088015160c089015160e08a01516101008b01516101208c01516101408d0151610160909d01513360008181529b8c90529c8b208054600160ff199091168117909155805474010000000000000000000000000000000000000000600160a060020a0319918216909f1760a060020a60ff0219169e909e1760a860020a60ff02191675010000000000000000000000000000000000000000009b15159b909b029a909a17909955600280548d16600160a060020a039c8d1617905560038054909c169a9097169990991790995560049390935560058054604060020a608060020a03199081166801000000000000000067ffffffffffffffff94851681029190911767ffffffffffffffff1990811695851695909517608060020a60c060020a0319908116700100000000000000000000000000000000978616880217600160c060020a0390811678010000000000000000000000000000000000000000000000009d87168e0217909455600680549096169a85169a909a17909116958316029490941790961697861690910296909617169216909202179091556109019081906101e690396000f30060806040526004361061017f5763ffffffff7c0100000000000000000000000000000000000000000000000000000000600035041663022914a7811461018457806302fb0c5e146101b95780630f15f4c0146101ce57806313420e7b146101e557806313af40351461021657806322f3e2d4146102375780632f2770db1461024c5780632f29a0621461026157806338cc4831146102765780634538f92f1461028b57806354ca14fb146102a0578063591d567d146102b55780636524395e146102e7578063666a3427146102fc57806367b3f40a1461031d57806374ebef68146103325780638da5cb5b146103475780639bc57aec1461035c578063a062749d14610371578063adea3c8f14610398578063b5f8edfd146103ad578063c3d4450b146103c2578063d7c7c7f8146103d7578063da82485e146103ec578063e04fb87014610401578063e5e28dd214610416578063e88914de1461042b578063f04414f21461044c578063f5a55ff614610461578063fcbc6d6914610482575b600080fd5b34801561019057600080fd5b506101a5600160a060020a0360043516610497565b604080519115158252519081900360200190f35b3480156101c557600080fd5b506101a56104ac565b3480156101da57600080fd5b506101e36104cd565b005b3480156101f157600080fd5b506101fa610522565b60408051600160a060020a039092168252519081900360200190f35b34801561022257600080fd5b506101e3600160a060020a0360043516610532565b34801561024357600080fd5b506101a561057f565b34801561025857600080fd5b506101e36105a0565b34801561026d57600080fd5b506101fa6105de565b34801561028257600080fd5b506101fa6105ed565b34801561029757600080fd5b506101fa6105f1565b3480156102ac57600080fd5b506101fa610600565b3480156102c157600080fd5b506102ca61061c565b6040805167ffffffffffffffff9092168252519081900360200190f35b3480156102f357600080fd5b506101a5610638565b34801561030857600080fd5b506101e3600160a060020a036004351661065a565b34801561032957600080fd5b506102ca610684565b34801561033e57600080fd5b506101fa6106b0565b34801561035357600080fd5b506101fa6106bf565b34801561036857600080fd5b506101a56106ce565b34801561037d57600080fd5b506103866106f0565b60408051918252519081900360200190f35b3480156103a457600080fd5b506102ca6106f6565b3480156103b957600080fd5b506102ca61071a565b3480156103ce57600080fd5b506102ca61072a565b3480156103e357600080fd5b506102ca610746565b3480156103f857600080fd5b50610386610772565b34801561040d57600080fd5b506102ca610778565b34801561042257600080fd5b506102ca61079c565b34801561043757600080fd5b506101a5600160a060020a03600435166107ac565b34801561045857600080fd5b506101fa6107ca565b34801561046d57600080fd5b506101e3600160a060020a03600435166107d9565b34801561048e57600080fd5b50610386610800565b60006020819052908152604090205460ff1681565b60015474010000000000000000000000000000000000000000900460ff1681565b3360009081526020819052604090205460ff1615156104eb57600080fd5b6001805474ff0000000000000000000000000000000000000000191674010000000000000000000000000000000000000000179055565b60055467ffffffffffffffff1690565b3360009081526020819052604090205460ff16151561055057600080fd5b6001805473ffffffffffffffffffffffffffffffffffffffff1916600160a060020a0392909216919091179055565b60015474010000000000000000000000000000000000000000900460ff1690565b3360009081526020819052604090205460ff1615156105be57600080fd5b6001805474ff000000000000000000000000000000000000000019169055565b600254600160a060020a031690565b3090565b600354600160a060020a031690565b60055468010000000000000000900467ffffffffffffffff1690565b60055468010000000000000000900467ffffffffffffffff1681565b6001547501000000000000000000000000000000000000000000900460ff1690565b3360009081526020819052604090205460ff16151561067857600080fd5b6106818161082c565b50565b6005547801000000000000000000000000000000000000000000000000900467ffffffffffffffff1681565b600254600160a060020a031681565b600154600160a060020a031681565b6001547501000000000000000000000000000000000000000000900460ff1681565b60045481565b600654700100000000000000000000000000000000900467ffffffffffffffff1681565b60065467ffffffffffffffff1681565b60065468010000000000000000900467ffffffffffffffff1681565b6006547801000000000000000000000000000000000000000000000000900467ffffffffffffffff1681565b60045490565b600554700100000000000000000000000000000000900467ffffffffffffffff1681565b60055467ffffffffffffffff1681565b600160a060020a031660009081526020819052604090205460ff1690565b600354600160a060020a031681565b3360009081526020819052604090205460ff1615156107f757600080fd5b61068181610862565b6005547801000000000000000000000000000000000000000000000000900467ffffffffffffffff1690565b600160a060020a038116151561084157600080fd5b600160a060020a03166000908152602081905260409020805460ff19169055565b600160a060020a038116151561087757600080fd5b600154604051600160a060020a038084169216907f8be0079c531659141344cd1fd0a4f28419497f9722a3daafe3b4186f6b6457e090600090a3600160a060020a03166000908152602081905260409020805460ff191660011790555600a165627a7a72305820afd6e529d586b591caafe9cbc4d5ef969962c41c6702d5f8def5ca36e279ffd20029",
  "source": "pragma solidity ^0.4.24;\nimport 'openzeppelin-solidity/contracts/ownership/Ownable.sol';\nimport 'openzeppelin-solidity/contracts/math/SafeMath.sol';\nimport \"../interfaces/Ownables.sol\";\n\ncontract MortgageeCondition is Ownables{\n  using SafeMath for uint256;\n  using SafeMath for uint64;\n\n  bool    public active;\n  bool    public automaticApproval;\n  address public mortgagee;\n  address public stoneCoinAddress;\n  uint256 public maxLoanMicros;\n  uint64  public interestRateMilliPercent;\n  uint64  public fixedInterestRateMilliPercent;\n  uint64  public downPaymentMilliPercent;\n  uint64  public maxLoanTermMonths;\n  uint64  public adjustFixedRateMonths;\n  uint64  public adjustInitialCap25;\n  uint64  public adjustPeriodicCap25;\n  uint64  public adjustLifetimeCa;\n\n  constructor(\n    address _mortgagee,\n    bool _automaticApproval,\n    address _stoneCoinAddress,\n    uint256 _maxLoanMicros,\n    uint64  _interestRateMilliPercent,\n    uint64  _fixedInterestRateMilliPercent,\n    uint64  _downPaymentMilliPercent,\n    uint64  _loanTermMonths,\n    uint64  _adjustFixedRateMonths,\n    uint64  _adjustInitialCap25,\n    uint64  _adjustPeriodicCap25,\n    uint64  _adjustLifetimeCap\n  ) Ownables() public {\n    active = true;\n    automaticApproval = _automaticApproval;\n    mortgagee = _mortgagee;\n    stoneCoinAddress = _stoneCoinAddress;\n    maxLoanMicros = _maxLoanMicros;\n    fixedInterestRateMilliPercent = _fixedInterestRateMilliPercent;\n    interestRateMilliPercent = _interestRateMilliPercent;\n    downPaymentMilliPercent = _downPaymentMilliPercent;\n    maxLoanTermMonths = _loanTermMonths;\n    adjustFixedRateMonths = _adjustFixedRateMonths;\n    adjustInitialCap25 = _adjustInitialCap25;\n    adjustPeriodicCap25 = _adjustPeriodicCap25;\n    adjustLifetimeCa = _adjustLifetimeCap;\n  }\n\n  function disable() public onlyOwner {\n    active = false;\n  }\n\n  function activate() public onlyOwner {\n    active = true;\n  }\n\n  function getStoneCoinAddress() public view returns(address) {\n    return stoneCoinAddress;\n  }\n  function getInterestRateMilliPercent() public view returns(address) {\n    return interestRateMilliPercent;\n  }\n\n  function getGixedInterestRateMilliPercent() public view returns(address) {\n    return fixedInterestRateMilliPercent;\n  }\n\n  function getMaxLoanMicros() public view returns(uint256) {\n    return maxLoanMicros;\n  }\n\n  function getMaxLoanTermMonths() public view returns(uint256) {\n    return maxLoanTermMonths;\n  }\n\n  function getMortgagee() public view returns(address) {\n    return mortgagee;\n  }\n  function isAutomaticApproval() public view returns(bool) {\n    return automaticApproval;\n  }\n  function isActive() public view returns(bool) {\n    return active;\n  }\n}",
  "sourcePath": "/Users/roilandshut/projects/brikoin/brikoin/contracts/structures/MortgageeCondition.sol",
  "compiler": {
    "name": "solc",
    "version": "0.4.24+commit.e67f0147.Emscripten.clang"
  },
  "schemaVersion": "2.0.1",
  "updatedAt": "2019-10-27T14:12:11.107Z"
}