{
  "contractName": "OrganizationFactory",
  "abi": [
    {
      "constant": false,
      "inputs": [],
      "name": "renounceOwnership",
      "outputs": [],
      "payable": false,
      "stateMutability": "nonpayable",
      "type": "function"
    },
    {
      "constant": true,
      "inputs": [],
      "name": "owner",
      "outputs": [
        {
          "name": "",
          "type": "address"
        }
      ],
      "payable": false,
      "stateMutability": "view",
      "type": "function"
    },
    {
      "constant": false,
      "inputs": [
        {
          "name": "_newOwner",
          "type": "address"
        }
      ],
      "name": "transferOwnership",
      "outputs": [],
      "payable": false,
      "stateMutability": "nonpayable",
      "type": "function"
    },
    {
      "anonymous": false,
      "inputs": [
        {
          "indexed": false,
          "name": "Asset",
          "type": "address"
        }
      ],
      "name": "OrganizationContractCreated",
      "type": "event"
    },
    {
      "anonymous": false,
      "inputs": [
        {
          "indexed": true,
          "name": "previousOwner",
          "type": "address"
        }
      ],
      "name": "OwnershipRenounced",
      "type": "event"
    },
    {
      "anonymous": false,
      "inputs": [
        {
          "indexed": true,
          "name": "previousOwner",
          "type": "address"
        },
        {
          "indexed": true,
          "name": "newOwner",
          "type": "address"
        }
      ],
      "name": "OwnershipTransferred",
      "type": "event"
    },
    {
      "constant": false,
      "inputs": [
        {
          "name": "_name",
          "type": "bytes32"
        },
        {
          "name": "_phoneNumber",
          "type": "bytes32"
        },
        {
          "name": "_email",
          "type": "bytes32"
        },
        {
          "name": "key",
          "type": "uint256"
        }
      ],
      "name": "createOrganization",
      "outputs": [
        {
          "name": "",
          "type": "address"
        }
      ],
      "payable": false,
      "stateMutability": "nonpayable",
      "type": "function"
    },
    {
      "constant": true,
      "inputs": [
        {
          "name": "key",
          "type": "uint256"
        }
      ],
      "name": "getContractAddress",
      "outputs": [
        {
          "name": "",
          "type": "address"
        }
      ],
      "payable": false,
      "stateMutability": "view",
      "type": "function"
    }
  ],
  "bytecode": "0x608060405260008054600160a060020a03191633179055610763806100256000396000f30060806040526004361061006c5763ffffffff7c0100000000000000000000000000000000000000000000000000000000600035041663715018a681146100715780638da5cb5b14610088578063aefa7d98146100c6578063f2fde38b146100de578063fd5334621461010c575b600080fd5b34801561007d57600080fd5b5061008661012d565b005b34801561009457600080fd5b5061009d6101b3565b6040805173ffffffffffffffffffffffffffffffffffffffff9092168252519081900360200190f35b3480156100d257600080fd5b5061009d6004356101cf565b3480156100ea57600080fd5b5061008673ffffffffffffffffffffffffffffffffffffffff600435166101f7565b34801561011857600080fd5b5061009d600435602435604435606435610227565b60005473ffffffffffffffffffffffffffffffffffffffff16331461015157600080fd5b6000805460405173ffffffffffffffffffffffffffffffffffffffff909116917ff8df31144d9c2f0f6b59d69b8b98abd5459d07f2742c4df920b25aae33c6482091a26000805473ffffffffffffffffffffffffffffffffffffffff19169055565b60005473ffffffffffffffffffffffffffffffffffffffff1681565b60009081526001602052604090205473ffffffffffffffffffffffffffffffffffffffff1690565b60005473ffffffffffffffffffffffffffffffffffffffff16331461021b57600080fd5b61022481610323565b50565b60008054819073ffffffffffffffffffffffffffffffffffffffff16331461024e57600080fd5b8585856102596103c7565b92835260208301919091526040808301919091525190819003606001906000f08015801561028b573d6000803e3d6000fd5b506040805173ffffffffffffffffffffffffffffffffffffffff8316815290519192507f912c2762a5b415fe8c8595b88daf01db3628ddc2c78f76d3e8fa4bedff4ad6c7919081900360200190a1600092835260016020526040909220805473ffffffffffffffffffffffffffffffffffffffff191673ffffffffffffffffffffffffffffffffffffffff8416179055509392505050565b73ffffffffffffffffffffffffffffffffffffffff8116151561034557600080fd5b6000805460405173ffffffffffffffffffffffffffffffffffffffff808516939216917f8be0079c531659141344cd1fd0a4f28419497f9722a3daafe3b4186f6b6457e091a36000805473ffffffffffffffffffffffffffffffffffffffff191673ffffffffffffffffffffffffffffffffffffffff92909216919091179055565b604051610360806103d8833901905600608060405234801561001057600080fd5b5060405160608061036083398101604090815281516020830151919092015160008054600160a060020a031916331790556001929092556002556003556103048061005c6000396000f3006080604052600436106100775763ffffffff7c010000000000000000000000000000000000000000000000000000000060003504166306fdde03811461007c578063715018a6146100a3578063747f3380146100ba578063820e93f5146100cf5780638da5cb5b146100e4578063f2fde38b14610122575b600080fd5b34801561008857600080fd5b50610091610150565b60408051918252519081900360200190f35b3480156100af57600080fd5b506100b8610156565b005b3480156100c657600080fd5b506100916101dc565b3480156100db57600080fd5b506100916101e2565b3480156100f057600080fd5b506100f96101e8565b6040805173ffffffffffffffffffffffffffffffffffffffff9092168252519081900360200190f35b34801561012e57600080fd5b506100b873ffffffffffffffffffffffffffffffffffffffff60043516610204565b60015481565b60005473ffffffffffffffffffffffffffffffffffffffff16331461017a57600080fd5b6000805460405173ffffffffffffffffffffffffffffffffffffffff909116917ff8df31144d9c2f0f6b59d69b8b98abd5459d07f2742c4df920b25aae33c6482091a26000805473ffffffffffffffffffffffffffffffffffffffff19169055565b60025481565b60035481565b60005473ffffffffffffffffffffffffffffffffffffffff1681565b60005473ffffffffffffffffffffffffffffffffffffffff16331461022857600080fd5b61023181610234565b50565b73ffffffffffffffffffffffffffffffffffffffff8116151561025657600080fd5b6000805460405173ffffffffffffffffffffffffffffffffffffffff808516939216917f8be0079c531659141344cd1fd0a4f28419497f9722a3daafe3b4186f6b6457e091a36000805473ffffffffffffffffffffffffffffffffffffffff191673ffffffffffffffffffffffffffffffffffffffff929092169190911790555600a165627a7a7230582001ae261b4fd922e7e2383c504fed7418c583847e2cf9f9cc9caa0b7e256596da0029a165627a7a72305820e910c85798eb0725e7231aa34e4fb8be5085a19a8196d8e2bbe2f62fa57932040029",
  "source": "pragma solidity ^0.4.24;\n\nimport 'openzeppelin-solidity/contracts/ownership/Ownable.sol';\nimport 'openzeppelin-solidity/contracts/math/SafeMath.sol';\nimport '../structures/Organization.sol';\n\ncontract OrganizationFactory is Ownable{\n    using SafeMath for uint256;\n    event OrganizationContractCreated(address Asset);\n    mapping(uint256 => address) keyToContractAddress;\n    function createOrganization(\n        bytes32 _name,\n        bytes32 _phoneNumber,\n        bytes32 _email,\n        uint256 key\n    ) public onlyOwner returns(address){\n\n        Organization newContract = new Organization(_name,\n            _phoneNumber,\n            _email);\n        emit OrganizationContractCreated(address(newContract));\n        keyToContractAddress[key] = address(newContract);\n        return address(newContract);\n    }\n\n    function getContractAddress( uint256 key) public view returns (address) {\n        return keyToContractAddress[key];\n    }\n\n\n\n}\n",
  "sourcePath": "/Users/roilandshut/projects/brikoin/brikoin/contracts/factory/OrganizationFactory.sol",
  "compiler": {
    "name": "solc",
    "version": "0.4.24+commit.e67f0147.Emscripten.clang"
  },
  "schemaVersion": "2.0.1",
  "updatedAt": "2019-10-27T14:12:10.992Z"
}