{
  "contractName": "Pledgee",
  "abi": [
    {
      "constant": false,
      "inputs": [],
      "name": "renounceOwnership",
      "outputs": [],
      "payable": false,
      "stateMutability": "nonpayable",
      "type": "function"
    },
    {
      "constant": true,
      "inputs": [],
      "name": "owner",
      "outputs": [
        {
          "name": "",
          "type": "address"
        }
      ],
      "payable": false,
      "stateMutability": "view",
      "type": "function"
    },
    {
      "constant": false,
      "inputs": [
        {
          "name": "_newOwner",
          "type": "address"
        }
      ],
      "name": "transferOwnership",
      "outputs": [],
      "payable": false,
      "stateMutability": "nonpayable",
      "type": "function"
    },
    {
      "inputs": [
        {
          "name": "_name",
          "type": "bytes32"
        },
        {
          "name": "_PledgeeType",
          "type": "uint8"
        },
        {
          "name": "_licenseNumber",
          "type": "bytes32"
        },
        {
          "name": "_country",
          "type": "bytes32"
        },
        {
          "name": "_address1",
          "type": "bytes32"
        },
        {
          "name": "_address2",
          "type": "bytes32"
        },
        {
          "name": "_contactFirstName",
          "type": "bytes32"
        },
        {
          "name": "_contactSecondName",
          "type": "bytes32"
        },
        {
          "name": "_phoneNumber",
          "type": "bytes32"
        },
        {
          "name": "_email",
          "type": "bytes32"
        },
        {
          "name": "_url",
          "type": "bytes32"
        },
        {
          "name": "_urlMD5",
          "type": "bytes32"
        }
      ],
      "payable": false,
      "stateMutability": "nonpayable",
      "type": "constructor"
    },
    {
      "anonymous": false,
      "inputs": [
        {
          "indexed": true,
          "name": "previousOwner",
          "type": "address"
        }
      ],
      "name": "OwnershipRenounced",
      "type": "event"
    },
    {
      "anonymous": false,
      "inputs": [
        {
          "indexed": true,
          "name": "previousOwner",
          "type": "address"
        },
        {
          "indexed": true,
          "name": "newOwner",
          "type": "address"
        }
      ],
      "name": "OwnershipTransferred",
      "type": "event"
    }
  ],
  "bytecode": "0x608060405234801561001057600080fd5b506040516101808061036683398101604090815281516020830151918301516060840151608085015160a086015160c087015160e08801516101008901516101208a01516101408b0151610160909b015160008054600160a060020a0319163317905560018a8155600280549b9d9a9b999a989997989697959694959394938d9260ff199091169083838111156100a357fe5b0217905550600399909955600497909755600595909555600693909355600791909155600855600955600a55600b55600c555050610280806100e66000396000f3006080604052600436106100565763ffffffff7c0100000000000000000000000000000000000000000000000000000000600035041663715018a6811461005b5780638da5cb5b14610072578063f2fde38b146100b0575b600080fd5b34801561006757600080fd5b506100706100de565b005b34801561007e57600080fd5b50610087610164565b6040805173ffffffffffffffffffffffffffffffffffffffff9092168252519081900360200190f35b3480156100bc57600080fd5b5061007073ffffffffffffffffffffffffffffffffffffffff60043516610180565b60005473ffffffffffffffffffffffffffffffffffffffff16331461010257600080fd5b6000805460405173ffffffffffffffffffffffffffffffffffffffff909116917ff8df31144d9c2f0f6b59d69b8b98abd5459d07f2742c4df920b25aae33c6482091a26000805473ffffffffffffffffffffffffffffffffffffffff19169055565b60005473ffffffffffffffffffffffffffffffffffffffff1681565b60005473ffffffffffffffffffffffffffffffffffffffff1633146101a457600080fd5b6101ad816101b0565b50565b73ffffffffffffffffffffffffffffffffffffffff811615156101d257600080fd5b6000805460405173ffffffffffffffffffffffffffffffffffffffff808516939216917f8be0079c531659141344cd1fd0a4f28419497f9722a3daafe3b4186f6b6457e091a36000805473ffffffffffffffffffffffffffffffffffffffff191673ffffffffffffffffffffffffffffffffffffffff929092169190911790555600a165627a7a72305820611292351ef0fe0927e58c740147ae56751d110ef755b1fc65486ee5f8cc3f4e0029",
  "source": "pragma solidity ^0.4.24;\nimport \"openzeppelin-solidity/contracts/ownership/Ownable.sol\";\nimport 'openzeppelin-solidity/contracts/math/SafeMath.sol';\n\ncontract Pledgee is Ownable{\n    using SafeMath for uint256;\n\n    enum PledgeeType {Bank, Company, individual}\n\n    bytes32 name;\n    PledgeeType pledgeeType;\n    bytes32 licenseNumber;\n    bytes32 country;\n    bytes32 address1;\n    bytes32 address2;\n    bytes32 contactFirstName;\n    bytes32 contactSecondName;\n    bytes32 phoneNumber;\n    bytes32 email;\n    bytes32 url;\n    bytes32 urlMD5;\n\n    constructor (\n        bytes32         _name,\n        PledgeeType     _PledgeeType,\n        bytes32         _licenseNumber,\n        bytes32         _country,\n        bytes32         _address1,\n        bytes32         _address2,\n        bytes32         _contactFirstName,\n        bytes32         _contactSecondName,\n        bytes32         _phoneNumber,\n        bytes32         _email,\n        bytes32         _url,\n        bytes32         _urlMD5\n    ) Ownable() public {\n\n//        require(_name.length != 0);\n//        require(_PledgeeType.length != 0);\n//        require(_licenseNumber.length != 0);\n//        require(_country.length != 0);\n//        require(_address1.length != 0);\n//        require(_address2.length != 0);\n//        require(_contactFirstName.length != 0);\n//        require(_contactSecondName.length != 0);\n//        require(_phoneNumber.length != 0);\n//        require(_email.length != 0);\n//        require(_url.length != 0);\n//        require(_urlMD5.length != 0);\n\n        name = _name;\n        pledgeeType = _PledgeeType;\n        licenseNumber = _licenseNumber;\n        country = _country;\n        address1 = _address1;\n        address2 = _address2;\n        contactFirstName = _contactFirstName;\n        contactSecondName = _contactSecondName;\n        phoneNumber = _phoneNumber;\n        email = _email;\n        url = _url;\n        urlMD5 = _urlMD5;\n    }\n}\n",
  "sourcePath": "/Users/roilandshut/projects/brikoin/brikoin/contracts/structures/Pledgee.sol",
  "compiler": {
    "name": "solc",
    "version": "0.4.24+commit.e67f0147.Emscripten.clang"
  },
  "schemaVersion": "2.0.1",
  "updatedAt": "2019-10-27T14:12:10.993Z"
}