{
  "contractName": "Project",
  "abi": [
    {
      "constant": true,
      "inputs": [],
      "name": "name",
      "outputs": [
        {
          "name": "",
          "type": "bytes32"
        }
      ],
      "payable": false,
      "stateMutability": "view",
      "type": "function"
    },
    {
      "inputs": [
        {
          "name": "_name",
          "type": "bytes32"
        }
      ],
      "payable": false,
      "stateMutability": "nonpayable",
      "type": "constructor"
    },
    {
      "constant": false,
      "inputs": [
        {
          "name": "_name",
          "type": "bytes32"
        }
      ],
      "name": "setName",
      "outputs": [],
      "payable": false,
      "stateMutability": "nonpayable",
      "type": "function"
    },
    {
      "constant": true,
      "inputs": [],
      "name": "getName",
      "outputs": [
        {
          "name": "",
          "type": "bytes32"
        }
      ],
      "payable": false,
      "stateMutability": "view",
      "type": "function"
    }
  ],
  "bytecode": "0x60806040527f70726f6a6563740000000000000000000000000000000000000000000000000060005534801561003457600080fd5b50604051602080610138833981016040525160005560e1806100576000396000f30060806040526004361060525763ffffffff7c010000000000000000000000000000000000000000000000000000000060003504166306fdde038114605757806317d7de7c14607b5780635ac801fe14608d575b600080fd5b348015606257600080fd5b50606960a4565b60408051918252519081900360200190f35b348015608657600080fd5b50606960aa565b348015609857600080fd5b5060a260043560b0565b005b60005481565b60005490565b6000555600a165627a7a72305820b02e55e484aa14c73a01a93b0c9439e7bf3b8adb482b4a2faf662fa909408df00029",
  "source": "pragma solidity ^0.4.24;\n\nimport \"openzeppelin-solidity/contracts/ownership/Ownable.sol\";\n\ncontract Project {\n\n    bytes32 public name = \"project\";\n\n    constructor(bytes32 _name) public {\n        name = _name;\n    }\n\n    function setName(bytes32 _name) public {\n        name = _name;\n    }\n\n    function getName() public view returns(bytes32){\n        return name;\n    }\n}\n",
  "sourcePath": "/Users/roilandshut/projects/brikoin/brikoin/contracts/Project.sol",
  "compiler": {
    "name": "solc",
    "version": "0.4.24+commit.e67f0147.Emscripten.clang"
  },
  "schemaVersion": "2.0.1",
  "updatedAt": "2019-10-27T14:12:10.914Z"
}