{
  "contractName": "ProjectGroupsStorage",
  "abi": [
    {
      "constant": true,
      "inputs": [
        {
          "name": "",
          "type": "address"
        }
      ],
      "name": "owners",
      "outputs": [
        {
          "name": "",
          "type": "bool"
        }
      ],
      "payable": false,
      "stateMutability": "view",
      "type": "function"
    },
    {
      "constant": false,
      "inputs": [
        {
          "name": "_newOwner",
          "type": "address"
        }
      ],
      "name": "setOwner",
      "outputs": [],
      "payable": false,
      "stateMutability": "nonpayable",
      "type": "function"
    },
    {
      "constant": true,
      "inputs": [],
      "name": "getAddress",
      "outputs": [
        {
          "name": "",
          "type": "address"
        }
      ],
      "payable": false,
      "stateMutability": "view",
      "type": "function"
    },
    {
      "constant": false,
      "inputs": [
        {
          "name": "_newOwner",
          "type": "address"
        }
      ],
      "name": "removeOwnership",
      "outputs": [],
      "payable": false,
      "stateMutability": "nonpayable",
      "type": "function"
    },
    {
      "constant": true,
      "inputs": [],
      "name": "owner",
      "outputs": [
        {
          "name": "",
          "type": "address"
        }
      ],
      "payable": false,
      "stateMutability": "view",
      "type": "function"
    },
    {
      "constant": true,
      "inputs": [
        {
          "name": "user",
          "type": "address"
        }
      ],
      "name": "isOwnable",
      "outputs": [
        {
          "name": "",
          "type": "bool"
        }
      ],
      "payable": false,
      "stateMutability": "view",
      "type": "function"
    },
    {
      "constant": false,
      "inputs": [
        {
          "name": "_newOwner",
          "type": "address"
        }
      ],
      "name": "addOwnership",
      "outputs": [],
      "payable": false,
      "stateMutability": "nonpayable",
      "type": "function"
    },
    {
      "inputs": [],
      "payable": false,
      "stateMutability": "nonpayable",
      "type": "constructor"
    },
    {
      "anonymous": false,
      "inputs": [
        {
          "indexed": true,
          "name": "previousOwner",
          "type": "address"
        }
      ],
      "name": "OwnershipRenounced",
      "type": "event"
    },
    {
      "anonymous": false,
      "inputs": [
        {
          "indexed": true,
          "name": "previousOwner",
          "type": "address"
        },
        {
          "indexed": true,
          "name": "newOwner",
          "type": "address"
        }
      ],
      "name": "OwnershipTransferred",
      "type": "event"
    },
    {
      "constant": false,
      "inputs": [
        {
          "name": "member",
          "type": "address"
        }
      ],
      "name": "addMember",
      "outputs": [],
      "payable": false,
      "stateMutability": "nonpayable",
      "type": "function"
    },
    {
      "constant": true,
      "inputs": [
        {
          "name": "member",
          "type": "address"
        }
      ],
      "name": "isMember",
      "outputs": [
        {
          "name": "",
          "type": "bool"
        }
      ],
      "payable": false,
      "stateMutability": "view",
      "type": "function"
    },
    {
      "constant": false,
      "inputs": [
        {
          "name": "member",
          "type": "address"
        }
      ],
      "name": "inviteMember",
      "outputs": [],
      "payable": false,
      "stateMutability": "nonpayable",
      "type": "function"
    },
    {
      "constant": true,
      "inputs": [
        {
          "name": "member",
          "type": "address"
        }
      ],
      "name": "isInvited",
      "outputs": [
        {
          "name": "",
          "type": "bool"
        }
      ],
      "payable": false,
      "stateMutability": "view",
      "type": "function"
    },
    {
      "constant": false,
      "inputs": [
        {
          "name": "member",
          "type": "address"
        }
      ],
      "name": "removeMember",
      "outputs": [],
      "payable": false,
      "stateMutability": "nonpayable",
      "type": "function"
    },
    {
      "constant": false,
      "inputs": [
        {
          "name": "member",
          "type": "address"
        },
        {
          "name": "offer",
          "type": "uint256"
        }
      ],
      "name": "addMemberOffer",
      "outputs": [],
      "payable": false,
      "stateMutability": "nonpayable",
      "type": "function"
    },
    {
      "constant": true,
      "inputs": [
        {
          "name": "member",
          "type": "address"
        }
      ],
      "name": "getMemberOffer",
      "outputs": [
        {
          "name": "",
          "type": "uint256"
        }
      ],
      "payable": false,
      "stateMutability": "view",
      "type": "function"
    },
    {
      "constant": true,
      "inputs": [],
      "name": "getMembers",
      "outputs": [
        {
          "name": "",
          "type": "address[]"
        }
      ],
      "payable": false,
      "stateMutability": "view",
      "type": "function"
    },
    {
      "constant": false,
      "inputs": [
        {
          "name": "member",
          "type": "address"
        },
        {
          "name": "status",
          "type": "string"
        }
      ],
      "name": "setOfferStatus",
      "outputs": [],
      "payable": false,
      "stateMutability": "nonpayable",
      "type": "function"
    },
    {
      "constant": false,
      "inputs": [
        {
          "name": "member",
          "type": "address"
        }
      ],
      "name": "getOfferStatus",
      "outputs": [
        {
          "name": "",
          "type": "string"
        }
      ],
      "payable": false,
      "stateMutability": "nonpayable",
      "type": "function"
    },
    {
      "constant": false,
      "inputs": [
        {
          "name": "user",
          "type": "address"
        },
        {
          "name": "debt",
          "type": "uint256"
        }
      ],
      "name": "addMemberDebt",
      "outputs": [],
      "payable": false,
      "stateMutability": "nonpayable",
      "type": "function"
    },
    {
      "constant": false,
      "inputs": [
        {
          "name": "user",
          "type": "address"
        }
      ],
      "name": "getMemberDebt",
      "outputs": [
        {
          "name": "",
          "type": "uint256"
        }
      ],
      "payable": false,
      "stateMutability": "nonpayable",
      "type": "function"
    },
    {
      "constant": false,
      "inputs": [
        {
          "name": "user",
          "type": "address"
        },
        {
          "name": "debt",
          "type": "uint256"
        }
      ],
      "name": "subMemberDebt",
      "outputs": [],
      "payable": false,
      "stateMutability": "nonpayable",
      "type": "function"
    }
  ],
  "bytecode": "0x608060405234801561001057600080fd5b50336000818152602081905260409020805460ff191660019081179091558054600160a060020a0319169091179055610e2d8061004e6000396000f3006080604052600436106101115763ffffffff7c0100000000000000000000000000000000000000000000000000000000600035041663022914a781146101165780630b1ca49a1461014b57806313af40351461016e5780631dcbe5001461018f5780632f890b93146101b05780633626eaff146101d157806338cc483114610267578063395f4f0014610298578063666a3427146102cb5780638b69e734146102ec5780638da5cb5b146103105780639eab525314610325578063a230c5241461038a578063afb6aa0c146103ab578063ca6d56dc14610412578063e866ce3814610433578063e88914de14610457578063efd5d19c14610478578063f48a237f1461049c578063f5a55ff6146104bd575b600080fd5b34801561012257600080fd5b50610137600160a060020a03600435166104de565b604080519115158252519081900360200190f35b34801561015757600080fd5b5061016c600160a060020a03600435166104f3565b005b34801561017a57600080fd5b5061016c600160a060020a03600435166105c2565b34801561019b57600080fd5b50610137600160a060020a036004351661060f565b3480156101bc57600080fd5b5061016c600160a060020a036004351661064c565b3480156101dd57600080fd5b506101f2600160a060020a036004351661068e565b6040805160208082528351818301528351919283929083019185019080838360005b8381101561022c578181015183820152602001610214565b50505050905090810190601f1680156102595780820380516001836020036101000a031916815260200191505b509250505060405180910390f35b34801561027357600080fd5b5061027c610758565b60408051600160a060020a039092168252519081900360200190f35b3480156102a457600080fd5b506102b9600160a060020a036004351661075d565b60408051918252519081900360200190f35b3480156102d757600080fd5b5061016c600160a060020a0360043516610797565b3480156102f857600080fd5b5061016c600160a060020a03600435166024356107c1565b34801561031c57600080fd5b5061027c610801565b34801561033157600080fd5b5061033a610810565b60408051602080825283518183015283519192839290830191858101910280838360005b8381101561037657818101518382015260200161035e565b505050509050019250505060405180910390f35b34801561039657600080fd5b50610137600160a060020a0360043516610872565b3480156103b757600080fd5b5060408051602060046024803582810135601f810185900485028601850190965285855261016c958335600160a060020a03169536956044949193909101919081908401838280828437509497506108af9650505050505050565b34801561041e57600080fd5b5061016c600160a060020a0360043516610922565b34801561043f57600080fd5b5061016c600160a060020a03600435166024356109c0565b34801561046357600080fd5b50610137600160a060020a0360043516610a21565b34801561048457600080fd5b5061016c600160a060020a0360043516602435610a3f565b3480156104a857600080fd5b506102b9600160a060020a0360043516610abe565b3480156104c957600080fd5b5061016c600160a060020a0360043516610af8565b60006020819052908152604090205460ff1681565b3360009081526020819052604090205460ff16151561051157600080fd5b600160a060020a038116600090815260026020908152604091829020805460ff19169055600680548351818402810184019094528084526105aa939283018282801561058657602002820191906000526020600020905b8154600160a060020a03168152600190910190602001808311610568575b50505050600160a060020a0384166000908152600360205260409020549050610b1f565b80516105be91600691602090910190610cca565b5050565b3360009081526020819052604090205460ff1615156105e057600080fd5b6001805473ffffffffffffffffffffffffffffffffffffffff1916600160a060020a0392909216919091179055565b3360009081526020819052604081205460ff16151561062d57600080fd5b50600160a060020a031660009081526005602052604090205460ff1690565b3360009081526020819052604090205460ff16151561066a57600080fd5b600160a060020a03166000908152600560205260409020805460ff19166001179055565b3360009081526020819052604090205460609060ff1615156106af57600080fd5b600160a060020a03821660009081526009602090815260409182902080548351601f60026000196101006001861615020190931692909204918201849004840281018401909452808452909183018282801561074c5780601f106107215761010080835404028352916020019161074c565b820191906000526020600020905b81548152906001019060200180831161072f57829003601f168201915b50505050509050919050565b305b90565b3360009081526020819052604081205460ff16151561077b57600080fd5b50600160a060020a031660009081526008602052604090205490565b3360009081526020819052604090205460ff1615156107b557600080fd5b6107be81610c21565b50565b3360009081526020819052604090205460ff1615156107df57600080fd5b600160a060020a03909116600090815260046020526040902080549091019055565b600154600160a060020a031681565b6060600680548060200260200160405190810160405280929190818152602001828054801561086857602002820191906000526020600020905b8154600160a060020a0316815260019091019060200180831161084a575b5050505050905090565b3360009081526020819052604081205460ff16151561089057600080fd5b50600160a060020a031660009081526002602052604090205460ff1690565b3360009081526020819052604090205460ff1615156108cd57600080fd5b600160a060020a03821660009081526002602052604090205460ff1615156108f457600080fd5b600160a060020a0382166000908152600960209081526040909120825161091d92840190610d3c565b505050565b3360009081526020819052604090205460ff16151561094057600080fd5b600160a060020a03166000818152600260209081526040808320805460ff19166001908117909155600680546003909452918420839055820181559091527ff652222313e28459528d920b65115c16c04f3efc82aaedc97be59f3f377c0d3f01805473ffffffffffffffffffffffffffffffffffffffff19169091179055565b3360009081526020819052604090205460ff1615156109de57600080fd5b600160a060020a03821660009081526002602052604090205460ff161515610a0557600080fd5b600160a060020a03909116600090815260086020526040902055565b600160a060020a031660009081526020819052604090205460ff1690565b3360009081526020819052604090205460ff161515610a5d57600080fd5b600160a060020a038216600090815260046020526040902054811115610a9b57600160a060020a0382166000908152600460205260408120556105be565b600160a060020a0382166000908152600460205260409020805482900390555050565b3360009081526020819052604081205460ff161515610adc57600080fd5b50600160a060020a031660009081526004602052604090205490565b3360009081526020819052604090205460ff161515610b1657600080fd5b6107be81610c57565b6060806000845184101515610b3357610c19565b6001855103604051908082528060200260200182016040528015610b61578160200160208202803883390190505b509150600090505b8151811015610c1157838114158015610b8157508381105b15610bc8578481815181101515610b9457fe5b906020019060200201518282815181101515610bac57fe5b600160a060020a03909216602092830290910190910152610c09565b8481600101815181101515610bd957fe5b906020019060200201518282815181101515610bf157fe5b600160a060020a039092166020928302909101909101525b600101610b69565b606094508192505b505092915050565b600160a060020a0381161515610c3657600080fd5b600160a060020a03166000908152602081905260409020805460ff19169055565b600160a060020a0381161515610c6c57600080fd5b600154604051600160a060020a038084169216907f8be0079c531659141344cd1fd0a4f28419497f9722a3daafe3b4186f6b6457e090600090a3600160a060020a03166000908152602081905260409020805460ff19166001179055565b828054828255906000526020600020908101928215610d2c579160200282015b82811115610d2c578251825473ffffffffffffffffffffffffffffffffffffffff1916600160a060020a03909116178255602090920191600190910190610cea565b50610d38929150610db6565b5090565b828054600181600116156101000203166002900490600052602060002090601f016020900481019282601f10610d7d57805160ff1916838001178555610daa565b82800160010185558215610daa579182015b82811115610daa578251825591602001919060010190610d8f565b50610d38929150610de7565b61075a91905b80821115610d3857805473ffffffffffffffffffffffffffffffffffffffff19168155600101610dbc565b61075a91905b80821115610d385760008155600101610ded5600a165627a7a7230582019b89a43dc052ca93f16eff3b8bf2bab982ddde66938a7df1f8e1b3987934f9b0029",
  "source": "pragma solidity ^0.4.24;\n\nimport \"openzeppelin-solidity/contracts/token/ERC20/StandardToken.sol\";\nimport \"openzeppelin-solidity/contracts/ownership/Ownable.sol\";\nimport 'openzeppelin-solidity/contracts/math/SafeMath.sol';\nimport \"../interfaces/Ownables.sol\";\nimport \"../interfaces/ProjectGroupsStorageInt.sol\";\n\ncontract ProjectGroupsStorage is Ownables, ProjectGroupsStorageInt {\n    using SafeMath for uint256;\n    mapping(address => bool) members;\n    mapping(address => uint256) membersIndex;\n    mapping(address => uint256) membersDebt;\n    mapping(address => bool) invitedMembers;\n    address[] membersArray;\n    mapping(string => mapping(address => bool)) memberVoted;\n    mapping(address => uint256) membersOffer;\n    mapping(address => string) offerStatus;\n    constructor() public Ownables() {\n    }\n\n    function addMember(address member) public onlyOwner {\n        members[member] = true;\n        membersIndex[member] = membersArray.length;\n        membersArray.push(member);\n    }\n\n\n    function isMember(address member) public view onlyOwner returns (bool){\n        return members[member];\n    }\n\n\n    function inviteMember(address member) public onlyOwner {\n        invitedMembers[member] = true;\n    }\n\n    function isInvited(address member) public view onlyOwner returns (bool){\n        return invitedMembers[member];\n    }\n\n    function removeMember(address member) public onlyOwner {\n        members[member] = false;\n        membersArray = remove(membersArray, membersIndex[member]);\n    }\n\n    function addMemberOffer(address member, uint256 offer) public onlyOwner {\n        require(members[member]);\n        membersOffer[member] = offer;\n    }\n\n    function getMemberOffer(address member) public view onlyOwner returns (uint256){\n        return membersOffer[member];\n    }\n\n    function getMembers() public view returns (address[]){\n        return membersArray;\n    }\n\n    function setOfferStatus(address member, string status) public onlyOwner {\n        require(members[member]);\n        offerStatus[member] = status;\n    }\n\n    function getOfferStatus(address member) public onlyOwner returns(string){\n        return offerStatus[member];\n    }\n\n    function addMemberDebt(address user, uint256 debt) public onlyOwner{\n      membersDebt[user] = membersDebt[user] + debt;\n    }\n\n    function getMemberDebt(address user) public onlyOwner  returns(uint256){\n      return membersDebt[user];\n    }\n\n    function subMemberDebt(address user, uint256 debt) public onlyOwner{\n      if(membersDebt[user]  < debt){\n         membersDebt[user]  = 0;\n      }else{\n         membersDebt[user] = membersDebt[user] - debt;\n      }\n    }\n\n    function remove(address[] array, uint256 index)  internal pure  returns (address[] value) {\n        if (index >= array.length) return;\n\n        address[] memory arrayNew = new address[](array.length - 1);\n        for (uint i = 0; i < arrayNew.length; i++) {\n            if (i != index && i < index) {\n                arrayNew[i] = array[i];\n            } else {\n                arrayNew[i] = array[i + 1];\n            }\n        }\n        delete array;\n        return arrayNew;\n    }\n\n\n}\n",
  "sourcePath": "/Users/roilandshut/projects/brikoin/brikoin/contracts/storage/ProjectGroupsStorage.sol",
  "compiler": {
    "name": "solc",
    "version": "0.4.24+commit.e67f0147.Emscripten.clang"
  },
  "schemaVersion": "2.0.1",
  "updatedAt": "2019-10-27T14:12:11.068Z"
}