{
  "contractName": "RegistrarFactory",
  "abi": [
    {
      "constant": false,
      "inputs": [],
      "name": "renounceOwnership",
      "outputs": [],
      "payable": false,
      "stateMutability": "nonpayable",
      "type": "function"
    },
    {
      "constant": true,
      "inputs": [],
      "name": "owner",
      "outputs": [
        {
          "name": "",
          "type": "address"
        }
      ],
      "payable": false,
      "stateMutability": "view",
      "type": "function"
    },
    {
      "constant": true,
      "inputs": [],
      "name": "_registrar",
      "outputs": [
        {
          "name": "",
          "type": "address"
        }
      ],
      "payable": false,
      "stateMutability": "view",
      "type": "function"
    },
    {
      "constant": false,
      "inputs": [
        {
          "name": "_newOwner",
          "type": "address"
        }
      ],
      "name": "transferOwnership",
      "outputs": [],
      "payable": false,
      "stateMutability": "nonpayable",
      "type": "function"
    },
    {
      "anonymous": false,
      "inputs": [
        {
          "indexed": false,
          "name": "registrar",
          "type": "address"
        }
      ],
      "name": "RegistrarRoleCreated",
      "type": "event"
    },
    {
      "anonymous": false,
      "inputs": [
        {
          "indexed": false,
          "name": "registrar",
          "type": "address"
        }
      ],
      "name": "RegistrarCreated",
      "type": "event"
    },
    {
      "anonymous": false,
      "inputs": [
        {
          "indexed": true,
          "name": "previousOwner",
          "type": "address"
        }
      ],
      "name": "OwnershipRenounced",
      "type": "event"
    },
    {
      "anonymous": false,
      "inputs": [
        {
          "indexed": true,
          "name": "previousOwner",
          "type": "address"
        },
        {
          "indexed": true,
          "name": "newOwner",
          "type": "address"
        }
      ],
      "name": "OwnershipTransferred",
      "type": "event"
    },
    {
      "constant": false,
      "inputs": [
        {
          "name": "_name",
          "type": "bytes32"
        },
        {
          "name": "_licenseNumber",
          "type": "bytes32"
        },
        {
          "name": "_country",
          "type": "bytes32"
        },
        {
          "name": "_address1",
          "type": "bytes32"
        },
        {
          "name": "_address2",
          "type": "bytes32"
        },
        {
          "name": "_phoneNumber",
          "type": "bytes32"
        },
        {
          "name": "_faxNumber",
          "type": "bytes32"
        },
        {
          "name": "_email",
          "type": "bytes32"
        },
        {
          "name": "_url",
          "type": "bytes32"
        }
      ],
      "name": "createRegistrar",
      "outputs": [
        {
          "name": "",
          "type": "address"
        }
      ],
      "payable": false,
      "stateMutability": "nonpayable",
      "type": "function"
    },
    {
      "constant": false,
      "inputs": [
        {
          "name": "newRegistrar",
          "type": "address"
        }
      ],
      "name": "addRegistrar",
      "outputs": [],
      "payable": false,
      "stateMutability": "nonpayable",
      "type": "function"
    }
  ],
  "bytecode": "0x608060405260008054600160a060020a03191633179055610765806100256000396000f3006080604052600436106100775763ffffffff7c0100000000000000000000000000000000000000000000000000000000600035041663715018a6811461007c5780638da5cb5b146100935780639e1e8fb2146100c4578063ae0a7226146100d9578063af92a6931461010a578063f2fde38b1461012b575b600080fd5b34801561008857600080fd5b5061009161014c565b005b34801561009f57600080fd5b506100a86101b8565b60408051600160a060020a039092168252519081900360200190f35b3480156100d057600080fd5b506100a86101c7565b3480156100e557600080fd5b506100a860043560243560443560643560843560a43560c43560e435610104356101d6565b34801561011657600080fd5b50610091600160a060020a03600435166102cd565b34801561013757600080fd5b50610091600160a060020a036004351661036c565b600054600160a060020a0316331461016357600080fd5b60008054604051600160a060020a03909116917ff8df31144d9c2f0f6b59d69b8b98abd5459d07f2742c4df920b25aae33c6482091a26000805473ffffffffffffffffffffffffffffffffffffffff19169055565b600054600160a060020a031681565b600254600160a060020a031681565b336000908152600160208190526040822054829160ff909116151514806102075750600054600160a060020a031633145b151561021257600080fd5b8a8a8a8a8a8a8a8a8a61022361040c565b98895260208901979097526040808901969096526060880194909452608087019290925260a086015260c085015260e0840152610100830191909152519081900361012001906000f08015801561027e573d6000803e3d6000fd5b5060408051600160a060020a038316815290519192507f3d4402f25957fc924234a21846f6c09ace945e901c1d6c67ad78c917575754cc919081900360200190a19a9950505050505050505050565b600054600160a060020a031633146102e457600080fd5b600160a060020a03811660009081526001602081905260409091205460ff161515141561031057600080fd5b600160a060020a038116600081815260016020818152604092839020805460ff1916909217909155815192835290517f02e682f3834bccba4369f2d9ff37e371c0e1e158a8617c61725f82ad4cad90759281900390910190a150565b600054600160a060020a0316331461038357600080fd5b61038c8161038f565b50565b600160a060020a03811615156103a457600080fd5b60008054604051600160a060020a03808516939216917f8be0079c531659141344cd1fd0a4f28419497f9722a3daafe3b4186f6b6457e091a36000805473ffffffffffffffffffffffffffffffffffffffff1916600160a060020a0392909216919091179055565b60405161031d8061041d833901905600608060405234801561001057600080fd5b506040516101208061031d83398101604090815281516020830151918301516060840151608085015160a086015160c087015160e08801516101009098015160008054600160a060020a031916331790556001969096556002969096556003939093556004919091556005556006556007919091556008919091556009556102808061009d6000396000f3006080604052600436106100565763ffffffff7c0100000000000000000000000000000000000000000000000000000000600035041663715018a6811461005b5780638da5cb5b14610072578063f2fde38b146100b0575b600080fd5b34801561006757600080fd5b506100706100de565b005b34801561007e57600080fd5b50610087610164565b6040805173ffffffffffffffffffffffffffffffffffffffff9092168252519081900360200190f35b3480156100bc57600080fd5b5061007073ffffffffffffffffffffffffffffffffffffffff60043516610180565b60005473ffffffffffffffffffffffffffffffffffffffff16331461010257600080fd5b6000805460405173ffffffffffffffffffffffffffffffffffffffff909116917ff8df31144d9c2f0f6b59d69b8b98abd5459d07f2742c4df920b25aae33c6482091a26000805473ffffffffffffffffffffffffffffffffffffffff19169055565b60005473ffffffffffffffffffffffffffffffffffffffff1681565b60005473ffffffffffffffffffffffffffffffffffffffff1633146101a457600080fd5b6101ad816101b0565b50565b73ffffffffffffffffffffffffffffffffffffffff811615156101d257600080fd5b6000805460405173ffffffffffffffffffffffffffffffffffffffff808516939216917f8be0079c531659141344cd1fd0a4f28419497f9722a3daafe3b4186f6b6457e091a36000805473ffffffffffffffffffffffffffffffffffffffff191673ffffffffffffffffffffffffffffffffffffffff929092169190911790555600a165627a7a72305820cc5507ce6460f36490cba3c1f77983b5ecd30d32e056fe5ffc605d4e6ea9aa4d0029a165627a7a7230582009934f34b572629e8b16237fd97918f0b904733b31092d0c6fc138b5b788f6d80029",
  "source": "pragma solidity ^0.4.24;\nimport \"openzeppelin-solidity/contracts/ownership/Ownable.sol\";\nimport 'openzeppelin-solidity/contracts/math/SafeMath.sol';\nimport '../structures/Registrar.sol';\n\ncontract RegistrarFactory is Ownable{\n    using SafeMath for uint256;\n    mapping( address=> bool) registrars;\n    event RegistrarRoleCreated(address registrar);\n    event RegistrarCreated(address registrar);\n    address public _registrar;\n\n\n    modifier onlyRegistrar() {\n        require(registrars[msg.sender] == true ||  owner == msg.sender);\n        _;\n    }\n\n    function createRegistrar (\n        bytes32 _name,\n        bytes32 _licenseNumber,\n        bytes32 _country,\n        bytes32 _address1,\n        bytes32 _address2,\n        bytes32 _phoneNumber,\n        bytes32 _faxNumber,\n        bytes32 _email,\n        bytes32 _url\n    ) public onlyRegistrar returns(address){\n\n        Registrar newContract = new Registrar(_name,\n            _licenseNumber,\n            _country,\n            _address1,\n            _address2,\n            _phoneNumber,\n            _faxNumber,\n            _email,\n            _url );\n        emit RegistrarCreated(address(newContract));\n        return address(newContract);\n    }\n\n    function addRegistrar(address newRegistrar) public onlyOwner {\n        require(registrars[newRegistrar] != true);\n        registrars[newRegistrar] = true;\n        emit RegistrarRoleCreated(newRegistrar);\n    }\n}\n",
  "sourcePath": "/Users/roilandshut/projects/brikoin/brikoin/contracts/factory/RegistrarFactory.sol",
  "compiler": {
    "name": "solc",
    "version": "0.4.24+commit.e67f0147.Emscripten.clang"
  },
  "schemaVersion": "2.0.1",
  "updatedAt": "2019-10-27T14:12:10.998Z"
}