{
  "contractName": "States",
  "abi": [
    {
      "constant": true,
      "inputs": [
        {
          "name": "",
          "type": "uint256"
        }
      ],
      "name": "states",
      "outputs": [
        {
          "name": "name",
          "type": "string"
        },
        {
          "name": "executor",
          "type": "address"
        },
        {
          "name": "executed",
          "type": "bool"
        },
        {
          "name": "isValue",
          "type": "bool"
        }
      ],
      "payable": false,
      "stateMutability": "view",
      "type": "function"
    },
    {
      "constant": true,
      "inputs": [
        {
          "name": "",
          "type": "address"
        }
      ],
      "name": "owners",
      "outputs": [
        {
          "name": "",
          "type": "bool"
        }
      ],
      "payable": false,
      "stateMutability": "view",
      "type": "function"
    },
    {
      "constant": false,
      "inputs": [
        {
          "name": "_newOwner",
          "type": "address"
        }
      ],
      "name": "setOwner",
      "outputs": [],
      "payable": false,
      "stateMutability": "nonpayable",
      "type": "function"
    },
    {
      "constant": true,
      "inputs": [],
      "name": "getAddress",
      "outputs": [
        {
          "name": "",
          "type": "address"
        }
      ],
      "payable": false,
      "stateMutability": "view",
      "type": "function"
    },
    {
      "constant": false,
      "inputs": [
        {
          "name": "_newOwner",
          "type": "address"
        }
      ],
      "name": "removeOwnership",
      "outputs": [],
      "payable": false,
      "stateMutability": "nonpayable",
      "type": "function"
    },
    {
      "constant": true,
      "inputs": [],
      "name": "owner",
      "outputs": [
        {
          "name": "",
          "type": "address"
        }
      ],
      "payable": false,
      "stateMutability": "view",
      "type": "function"
    },
    {
      "constant": true,
      "inputs": [
        {
          "name": "user",
          "type": "address"
        }
      ],
      "name": "isOwnable",
      "outputs": [
        {
          "name": "",
          "type": "bool"
        }
      ],
      "payable": false,
      "stateMutability": "view",
      "type": "function"
    },
    {
      "constant": false,
      "inputs": [
        {
          "name": "_newOwner",
          "type": "address"
        }
      ],
      "name": "addOwnership",
      "outputs": [],
      "payable": false,
      "stateMutability": "nonpayable",
      "type": "function"
    },
    {
      "inputs": [
        {
          "name": "_project",
          "type": "address"
        }
      ],
      "payable": false,
      "stateMutability": "nonpayable",
      "type": "constructor"
    },
    {
      "anonymous": false,
      "inputs": [
        {
          "indexed": true,
          "name": "previousOwner",
          "type": "address"
        }
      ],
      "name": "OwnershipRenounced",
      "type": "event"
    },
    {
      "anonymous": false,
      "inputs": [
        {
          "indexed": true,
          "name": "previousOwner",
          "type": "address"
        },
        {
          "indexed": true,
          "name": "newOwner",
          "type": "address"
        }
      ],
      "name": "OwnershipTransferred",
      "type": "event"
    },
    {
      "constant": false,
      "inputs": [
        {
          "name": "_index",
          "type": "uint256"
        },
        {
          "name": "_name",
          "type": "string"
        },
        {
          "name": "_executor",
          "type": "address"
        }
      ],
      "name": "updateState",
      "outputs": [],
      "payable": false,
      "stateMutability": "nonpayable",
      "type": "function"
    },
    {
      "constant": false,
      "inputs": [],
      "name": "finalize",
      "outputs": [],
      "payable": false,
      "stateMutability": "nonpayable",
      "type": "function"
    },
    {
      "constant": false,
      "inputs": [
        {
          "name": "_name",
          "type": "string"
        },
        {
          "name": "_executor",
          "type": "address"
        }
      ],
      "name": "addState",
      "outputs": [],
      "payable": false,
      "stateMutability": "nonpayable",
      "type": "function"
    },
    {
      "constant": false,
      "inputs": [],
      "name": "removeState",
      "outputs": [],
      "payable": false,
      "stateMutability": "nonpayable",
      "type": "function"
    },
    {
      "constant": true,
      "inputs": [
        {
          "name": "_index",
          "type": "uint256"
        }
      ],
      "name": "getStateStatus",
      "outputs": [
        {
          "name": "",
          "type": "string"
        },
        {
          "name": "",
          "type": "address"
        },
        {
          "name": "",
          "type": "bool"
        },
        {
          "name": "",
          "type": "bool"
        }
      ],
      "payable": false,
      "stateMutability": "view",
      "type": "function"
    },
    {
      "constant": false,
      "inputs": [
        {
          "name": "_executor",
          "type": "address"
        }
      ],
      "name": "advanceState",
      "outputs": [],
      "payable": false,
      "stateMutability": "nonpayable",
      "type": "function"
    },
    {
      "constant": true,
      "inputs": [],
      "name": "isLastState",
      "outputs": [
        {
          "name": "",
          "type": "bool"
        }
      ],
      "payable": false,
      "stateMutability": "view",
      "type": "function"
    },
    {
      "constant": true,
      "inputs": [],
      "name": "getNextState",
      "outputs": [
        {
          "name": "",
          "type": "string"
        },
        {
          "name": "",
          "type": "address"
        },
        {
          "name": "",
          "type": "bool"
        },
        {
          "name": "",
          "type": "bool"
        }
      ],
      "payable": false,
      "stateMutability": "view",
      "type": "function"
    }
  ],
  "bytecode": "0x608060405260006005556006805460ff1916905534801561001f57600080fd5b50604051602080610e2f83398101604090815290513360008181526020819052928320805460ff191660019081179091558054600160a060020a0319908116909217905560049290925560028054600160a060020a0390921691909216179055610da18061008e6000396000f3006080604052600436106100e55763ffffffff7c0100000000000000000000000000000000000000000000000000000000600035041663017a910581146100ea578063022914a7146101a957806313af4035146101de5780632369989714610201578063382824df1461021657806338cc48311461027a57806343e1cf8c146102ab5780634bb278f3146102c057806364d2a828146102d557806364f5492e1461033e578063666a34271461035f5780638da5cb5b14610380578063e1d0ba6f14610395578063e5849e10146103aa578063e88914de146103c2578063f5a55ff6146103e3575b600080fd5b3480156100f657600080fd5b50610102600435610404565b604051808060200185600160a060020a0316600160a060020a031681526020018415151515815260200183151515158152602001828103825286818151815260200191508051906020019080838360005b8381101561016b578181015183820152602001610153565b50505050905090810190601f1680156101985780820380516001836020036101000a031916815260200191505b509550505050505060405180910390f35b3480156101b557600080fd5b506101ca600160a060020a03600435166104ed565b604080519115158252519081900360200190f35b3480156101ea57600080fd5b506101ff600160a060020a0360043516610502565b005b34801561020d57600080fd5b5061010261054f565b34801561022257600080fd5b506040805160206004803580820135601f81018490048402850184019095528484526101ff94369492936024939284019190819084018382808284375094975050509235600160a060020a0316935061069f92505050565b34801561028657600080fd5b5061028f6107a1565b60408051600160a060020a039092168252519081900360200190f35b3480156102b757600080fd5b506101ca6107a6565b3480156102cc57600080fd5b506101ff6107db565b3480156102e157600080fd5b5060408051602060046024803582810135601f81018590048502860185019096528585526101ff95833595369560449491939091019190819084018382808284375094975050509235600160a060020a0316935061081792505050565b34801561034a57600080fd5b506101ff600160a060020a03600435166108d4565b34801561036b57600080fd5b506101ff600160a060020a03600435166109c8565b34801561038c57600080fd5b5061028f6109f2565b3480156103a157600080fd5b506101ff610a01565b3480156103b657600080fd5b50610102600435610aae565b3480156103ce57600080fd5b506101ca600160a060020a0360043516610bf9565b3480156103ef57600080fd5b506101ff600160a060020a0360043516610c17565b60036020908152600091825260409182902080548351601f6002600019610100600186161502019093169290920491820184900484028101840190945280845290929183919083018282801561049b5780601f106104705761010080835404028352916020019161049b565b820191906000526020600020905b81548152906001019060200180831161047e57829003601f168201915b50505060019093015491925050600160a060020a0381169060ff740100000000000000000000000000000000000000008204811691750100000000000000000000000000000000000000000090041684565b60006020819052908152604090205460ff1681565b3360009081526020819052604090205460ff16151561052057600080fd5b6001805473ffffffffffffffffffffffffffffffffffffffff1916600160a060020a0392909216919091179055565b6006546060906000908190819060ff16151561056a57600080fd5b6005546000908152600360205260409020600101547501000000000000000000000000000000000000000000900460ff1615156105a657600080fd5b60055460009081526003602090815260409182902060018082015482548551601f6002600019958416156101000295909501909216939093049081018590048502830185019095528482529193600160a060020a0383169360ff74010000000000000000000000000000000000000000850481169475010000000000000000000000000000000000000000009004169291869183018282801561068a5780601f1061065f5761010080835404028352916020019161068a565b820191906000526020600020905b81548152906001019060200180831161066d57829003601f168201915b50505050509350935093509350935090919293565b3360009081526020819052604090205460ff1615156106bd57600080fd5b60065460ff16156106cd57600080fd5b600454600090815260036020908152604090912083516106ef92850190610ce7565b506004805460009081526003602052604080822060019081018054600160a060020a0390961673ffffffffffffffffffffffffffffffffffffffff1990961695909517909455825482528082208401805474ff0000000000000000000000000000000000000000191690558254825290208201805475ff000000000000000000000000000000000000000000191675010000000000000000000000000000000000000000001790558054909101905550565b305b90565b33600090815260208190526040812054819060ff1615156107c657600080fd5b600454905080600554600101101591505b5090565b3360009081526020819052604090205460ff1615156107f957600080fd5b60045460001061080857600080fd5b6006805460ff19166001179055565b3360009081526020819052604090205460ff16151561083557600080fd5b6000838152600360205260409020600101547501000000000000000000000000000000000000000000900460ff16151561086e57600080fd5b6004546000908152600360209081526040909120835161089092850190610ce7565b506004546000908152600360205260409020600101805473ffffffffffffffffffffffffffffffffffffffff1916600160a060020a03929092169190911790555050565b3360009081526020819052604090205460ff1615156108f257600080fd5b60065460ff16151561090357600080fd5b6005546000908152600360205260409020600101547501000000000000000000000000000000000000000000900460ff16151561093f57600080fd5b6005805460009081526003602052604080822060019081018054600160a060020a0390961673ffffffffffffffffffffffffffffffffffffffff19909616959095179094558254825290208201805474ff000000000000000000000000000000000000000019167401000000000000000000000000000000000000000017905580549091019055565b3360009081526020819052604090205460ff1615156109e657600080fd5b6109ef81610c3e565b50565b600154600160a060020a031681565b3360009081526020819052604090205460ff161515610a1f57600080fd5b60065460ff1615610a2f57600080fd5b600454600019016000908152600360205260409020600101547501000000000000000000000000000000000000000000900460ff161515610a6f57600080fd5b600480546000199081016000908152600360205260409020600101805475ff000000000000000000000000000000000000000000191690558154019055565b6006546060906000908190819060ff161515610ac957600080fd5b6000858152600360205260409020600101547501000000000000000000000000000000000000000000900460ff161515610b0257600080fd5b60008581526003602090815260409182902060018082015482548551601f6002600019958416156101000295909501909216939093049081018590048502830185019095528482529193600160a060020a0383169360ff740100000000000000000000000000000000000000008504811694750100000000000000000000000000000000000000000090041692918691830182828015610be35780601f10610bb857610100808354040283529160200191610be3565b820191906000526020600020905b815481529060010190602001808311610bc657829003601f168201915b5050505050935093509350935093509193509193565b600160a060020a031660009081526020819052604090205460ff1690565b3360009081526020819052604090205460ff161515610c3557600080fd5b6109ef81610c74565b600160a060020a0381161515610c5357600080fd5b600160a060020a03166000908152602081905260409020805460ff19169055565b600160a060020a0381161515610c8957600080fd5b600154604051600160a060020a038084169216907f8be0079c531659141344cd1fd0a4f28419497f9722a3daafe3b4186f6b6457e090600090a3600160a060020a03166000908152602081905260409020805460ff19166001179055565b828054600181600116156101000203166002900490600052602060002090601f016020900481019282601f10610d2857805160ff1916838001178555610d55565b82800160010185558215610d55579182015b82811115610d55578251825591602001919060010190610d3a565b506107d7926107a39250905b808211156107d75760008155600101610d615600a165627a7a723058209592da737be57501de8082900e0f0595706a5635044d72bc397b7dfbde2168880029",
  "source": "pragma solidity ^0.4.0;\n\nimport 'openzeppelin-solidity/contracts/math/SafeMath.sol';\nimport \"./../interfaces/Ownables.sol\";\n\n\ncontract States is Ownables{ //, StatesInt{\n  using SafeMath for uint256;\n\n  address project;\n\n  struct State {\n    string  name;\n    address executor;\n    bool    executed;\n    bool    isValue;\n  }\n\n  mapping(uint => State) public states;\n  uint  insertIndex;\n  uint  currentState = 0;\n  bool  finalized = false;\n\n  constructor (address _project) Ownables() public {\n    insertIndex = 0;\n    project = _project;\n  }\n\n  function updateState(uint _index, string _name, address _executor) public onlyOwner{\n    require(states[_index].isValue);\n    states[insertIndex].name     = _name    ;\n    states[insertIndex].executor = _executor;\n  }\n\n  function finalize() public onlyOwner{\n    require(insertIndex > 0);\n    finalized = true;\n  }\n\n  function addState(string _name, address _executor) public onlyOwner{\n    require(!finalized);\n    states[insertIndex].name     = _name    ;\n    states[insertIndex].executor = _executor;\n    states[insertIndex].executed = false;\n    states[insertIndex].isValue  = true ;\n    insertIndex = insertIndex + 1;\n  }\n\n  function removeState() public onlyOwner{\n    require(!finalized);\n    require(states[insertIndex - 1].isValue);\n    states[insertIndex - 1].isValue  = false;\n    insertIndex = insertIndex - 1;\n  }\n\n  function getStateStatus(uint _index) public view  returns(string, address, bool, bool) {\n    require(finalized);\n    require(states[_index].isValue);\n    return (states[_index].name,\n            states[_index].executor,\n            states[_index].executed,\n            states[_index].isValue);\n  }\n\n  function advanceState(address _executor) public onlyOwner {\n    require(finalized);\n    require(states[currentState].isValue);\n    states[currentState].executor = _executor;\n    states[currentState].executed = true;\n    currentState = currentState + 1;\n  }\n\n  function isLastState() public view onlyOwner returns(bool) {\n    uint items = insertIndex;\n    return currentState + 1 >= items;\n  }\n\n\n  function getNextState() public view  returns(string, address, bool, bool) {\n    require(finalized);\n    require(states[currentState].isValue);\n    return (states[currentState].name,\n            states[currentState].executor,\n            states[currentState].executed,\n            states[currentState].isValue);\n  }\n}",
  "sourcePath": "/Users/roilandshut/projects/brikoin/brikoin/contracts/structures/States.sol",
  "compiler": {
    "name": "solc",
    "version": "0.4.24+commit.e67f0147.Emscripten.clang"
  },
  "schemaVersion": "2.0.1",
  "updatedAt": "2019-10-27T14:12:11.117Z"
}