{
  "contractName": "TradesHistory",
  "abi": [
    {
      "constant": true,
      "inputs": [
        {
          "name": "",
          "type": "address"
        }
      ],
      "name": "owners",
      "outputs": [
        {
          "name": "",
          "type": "bool"
        }
      ],
      "payable": false,
      "stateMutability": "view",
      "type": "function"
    },
    {
      "constant": false,
      "inputs": [
        {
          "name": "_newOwner",
          "type": "address"
        }
      ],
      "name": "setOwner",
      "outputs": [],
      "payable": false,
      "stateMutability": "nonpayable",
      "type": "function"
    },
    {
      "constant": true,
      "inputs": [],
      "name": "getAddress",
      "outputs": [
        {
          "name": "",
          "type": "address"
        }
      ],
      "payable": false,
      "stateMutability": "view",
      "type": "function"
    },
    {
      "constant": false,
      "inputs": [
        {
          "name": "_newOwner",
          "type": "address"
        }
      ],
      "name": "removeOwnership",
      "outputs": [],
      "payable": false,
      "stateMutability": "nonpayable",
      "type": "function"
    },
    {
      "constant": true,
      "inputs": [],
      "name": "owner",
      "outputs": [
        {
          "name": "",
          "type": "address"
        }
      ],
      "payable": false,
      "stateMutability": "view",
      "type": "function"
    },
    {
      "constant": true,
      "inputs": [
        {
          "name": "user",
          "type": "address"
        }
      ],
      "name": "isOwnable",
      "outputs": [
        {
          "name": "",
          "type": "bool"
        }
      ],
      "payable": false,
      "stateMutability": "view",
      "type": "function"
    },
    {
      "constant": false,
      "inputs": [
        {
          "name": "_newOwner",
          "type": "address"
        }
      ],
      "name": "addOwnership",
      "outputs": [],
      "payable": false,
      "stateMutability": "nonpayable",
      "type": "function"
    },
    {
      "inputs": [],
      "payable": false,
      "stateMutability": "nonpayable",
      "type": "constructor"
    },
    {
      "anonymous": false,
      "inputs": [
        {
          "indexed": false,
          "name": "user",
          "type": "address"
        },
        {
          "indexed": false,
          "name": "stoneCoinAddress",
          "type": "address"
        },
        {
          "indexed": false,
          "name": "amount",
          "type": "uint256"
        },
        {
          "indexed": false,
          "name": "limit_micros",
          "type": "uint256"
        }
      ],
      "name": "buyEvent",
      "type": "event"
    },
    {
      "anonymous": false,
      "inputs": [
        {
          "indexed": false,
          "name": "user",
          "type": "address"
        },
        {
          "indexed": false,
          "name": "stoneCoinAddress",
          "type": "address"
        },
        {
          "indexed": false,
          "name": "amount",
          "type": "uint256"
        },
        {
          "indexed": false,
          "name": "buy_limit",
          "type": "uint256"
        },
        {
          "indexed": false,
          "name": "sell_limit",
          "type": "uint256"
        }
      ],
      "name": "sellEvent",
      "type": "event"
    },
    {
      "anonymous": false,
      "inputs": [
        {
          "indexed": true,
          "name": "previousOwner",
          "type": "address"
        }
      ],
      "name": "OwnershipRenounced",
      "type": "event"
    },
    {
      "anonymous": false,
      "inputs": [
        {
          "indexed": true,
          "name": "previousOwner",
          "type": "address"
        },
        {
          "indexed": true,
          "name": "newOwner",
          "type": "address"
        }
      ],
      "name": "OwnershipTransferred",
      "type": "event"
    },
    {
      "constant": false,
      "inputs": [
        {
          "name": "stoneCoinAddress",
          "type": "address"
        },
        {
          "name": "user",
          "type": "address"
        },
        {
          "name": "amount",
          "type": "uint256"
        },
        {
          "name": "buy_limit",
          "type": "uint256"
        }
      ],
      "name": "buyingTrade",
      "outputs": [],
      "payable": false,
      "stateMutability": "nonpayable",
      "type": "function"
    },
    {
      "constant": false,
      "inputs": [
        {
          "name": "stoneCoinAddress",
          "type": "address"
        },
        {
          "name": "user",
          "type": "address"
        },
        {
          "name": "amount",
          "type": "uint256"
        },
        {
          "name": "sell_limit",
          "type": "uint256"
        }
      ],
      "name": "sellingTrade",
      "outputs": [],
      "payable": false,
      "stateMutability": "nonpayable",
      "type": "function"
    },
    {
      "constant": true,
      "inputs": [
        {
          "name": "user",
          "type": "address"
        }
      ],
      "name": "getHistoryTradesCount",
      "outputs": [
        {
          "name": "",
          "type": "uint256"
        }
      ],
      "payable": false,
      "stateMutability": "view",
      "type": "function"
    },
    {
      "constant": true,
      "inputs": [
        {
          "name": "user",
          "type": "address"
        },
        {
          "name": "index",
          "type": "uint256"
        }
      ],
      "name": "getHistoryTradesTime",
      "outputs": [
        {
          "name": "",
          "type": "uint256"
        }
      ],
      "payable": false,
      "stateMutability": "view",
      "type": "function"
    },
    {
      "constant": true,
      "inputs": [
        {
          "name": "user",
          "type": "address"
        },
        {
          "name": "index",
          "type": "uint256"
        }
      ],
      "name": "getHistoryTradesAmount",
      "outputs": [
        {
          "name": "",
          "type": "uint256"
        }
      ],
      "payable": false,
      "stateMutability": "view",
      "type": "function"
    },
    {
      "constant": true,
      "inputs": [
        {
          "name": "user",
          "type": "address"
        },
        {
          "name": "index",
          "type": "uint256"
        }
      ],
      "name": "getHistoryTradesSellingPrice",
      "outputs": [
        {
          "name": "",
          "type": "uint256"
        }
      ],
      "payable": false,
      "stateMutability": "view",
      "type": "function"
    },
    {
      "constant": true,
      "inputs": [
        {
          "name": "user",
          "type": "address"
        },
        {
          "name": "index",
          "type": "uint256"
        }
      ],
      "name": "getHistoryTradesBuyingPrice",
      "outputs": [
        {
          "name": "",
          "type": "uint256"
        }
      ],
      "payable": false,
      "stateMutability": "view",
      "type": "function"
    },
    {
      "constant": true,
      "inputs": [
        {
          "name": "user",
          "type": "address"
        },
        {
          "name": "index",
          "type": "uint256"
        }
      ],
      "name": "getHistoryTradesProject",
      "outputs": [
        {
          "name": "",
          "type": "address"
        }
      ],
      "payable": false,
      "stateMutability": "view",
      "type": "function"
    },
    {
      "constant": true,
      "inputs": [
        {
          "name": "stoneCoinAddress",
          "type": "address"
        },
        {
          "name": "user",
          "type": "address"
        },
        {
          "name": "index",
          "type": "uint256"
        }
      ],
      "name": "getPrice",
      "outputs": [
        {
          "name": "",
          "type": "uint256"
        }
      ],
      "payable": false,
      "stateMutability": "view",
      "type": "function"
    },
    {
      "constant": true,
      "inputs": [
        {
          "name": "stoneCoinAddress",
          "type": "address"
        },
        {
          "name": "user",
          "type": "address"
        }
      ],
      "name": "getPrices",
      "outputs": [
        {
          "name": "",
          "type": "uint256"
        }
      ],
      "payable": false,
      "stateMutability": "view",
      "type": "function"
    },
    {
      "constant": true,
      "inputs": [
        {
          "name": "stoneCoinAddress",
          "type": "address"
        },
        {
          "name": "user",
          "type": "address"
        },
        {
          "name": "price",
          "type": "uint256"
        }
      ],
      "name": "getAmountByPrice",
      "outputs": [
        {
          "name": "",
          "type": "uint256"
        }
      ],
      "payable": false,
      "stateMutability": "view",
      "type": "function"
    }
  ],
  "bytecode": "0x608060405234801561001057600080fd5b50336000818152602081905260409020805460ff191660019081179091558054600160a060020a0319169091179055610e8a8061004e6000396000f3006080604052600436106100fb5763ffffffff7c0100000000000000000000000000000000000000000000000000000000600035041663022914a7811461010057806313af40351461013557806338cc4831146101585780633c962a12146101895780633cf7210d146101bf57806340f11351146101e65780634d09929c146102135780634d60d48d146102375780636437078b14610261578063666a34271461028557806368bcc6b9146102a65780636d96b261146102c75780638da5cb5b146102eb578063944d1cb51461030057806399c4d5741461032d578063a9dd14d614610351578063e88914de1461037b578063f5a55ff61461039c575b600080fd5b34801561010c57600080fd5b50610121600160a060020a03600435166103bd565b604080519115158252519081900360200190f35b34801561014157600080fd5b50610156600160a060020a03600435166103d2565b005b34801561016457600080fd5b5061016d61041f565b60408051600160a060020a039092168252519081900360200190f35b34801561019557600080fd5b506101ad600160a060020a0360043516602435610424565b60408051918252519081900360200190f35b3480156101cb57600080fd5b506101ad600160a060020a0360043581169060243516610486565b3480156101f257600080fd5b50610156600160a060020a03600435811690602435166044356064356104b4565b34801561021f57600080fd5b506101ad600160a060020a03600435166024356106bc565b34801561024357600080fd5b506101ad600160a060020a036004358116906024351660443561071e565b34801561026d57600080fd5b506101ad600160a060020a0360043516602435610755565b34801561029157600080fd5b50610156600160a060020a03600435166107b7565b3480156102b257600080fd5b506101ad600160a060020a03600435166107e1565b3480156102d357600080fd5b506101ad600160a060020a03600435166024356107fc565b3480156102f757600080fd5b5061016d61085e565b34801561030c57600080fd5b50610156600160a060020a036004358116906024351660443560643561086d565b34801561033957600080fd5b5061016d600160a060020a03600435166024356109e7565b34801561035d57600080fd5b506101ad600160a060020a0360043581169060243516604435610a53565b34801561038757600080fd5b50610121600160a060020a0360043516610ad1565b3480156103a857600080fd5b50610156600160a060020a0360043516610aef565b60006020819052908152604090205460ff1681565b3360009081526020819052604090205460ff1615156103f057600080fd5b6001805473ffffffffffffffffffffffffffffffffffffffff1916600160a060020a0392909216919091179055565b305b90565b600160a060020a038216600090815260036020526040812054821061044857600080fd5b600160a060020a038316600090815260036020526040902080548390811061046c57fe5b906000526020600020906005020160000154905092915050565b600160a060020a03918216600090815260026020908152604080832093909416825291909152206001015490565b33600090815260208190526040812054819081908190819060ff1615156104da57600080fd5b600160a060020a03808a166000908152600260209081526040808320938c16835292905220805490955060ff16156106b1576001850154600019019350600092505b60008711801561052a575082155b156106b15783151561053b57600192505b6001850180548590811061054b57fe5b906000526020600020015491508460020160008381526020019081526020016000205490508060001415610584576001840393506106ac565b808711156106205760408051600160a060020a03808b1682528b16602082015280820183905260608101849052608081018890529051600019909501947fad58240cb6db019676dc5153aeb0e3e20eb7052333e2e2dd31ced59be36722929181900360a00190a160008281526002860160205260408120556106098989838986610b16565b610619878263ffffffff610bb816565b96506106ac565b60408051600160a060020a03808b1682528b166020820152808201899052606081018490526080810188905290517fad58240cb6db019676dc5153aeb0e3e20eb7052333e2e2dd31ced59be36722929181900360a00190a16106858989898986610b16565b610695818863ffffffff610bb816565b600083815260028701602052604081209190915596505b61051c565b505050505050505050565b600160a060020a03821660009081526003602052604081205482106106e057600080fd5b600160a060020a038316600090815260036020526040902080548390811061070457fe5b906000526020600020906005020160020154905092915050565b600160a060020a03928316600090815260026020818152604080842095909616835293845284822092825291909101909152205490565b600160a060020a038216600090815260036020526040812054821061077957600080fd5b600160a060020a038316600090815260036020526040902080548390811061079d57fe5b906000526020600020906005020160010154905092915050565b3360009081526020819052604090205460ff1615156107d557600080fd5b6107de81610bca565b50565b600160a060020a031660009081526003602052604090205490565b600160a060020a038216600090815260036020526040812054821061082057600080fd5b600160a060020a038316600090815260036020526040902080548390811061084457fe5b906000526020600020906005020160030154905092915050565b600154600160a060020a031681565b3360009081526020819052604090205460ff16151561088b57600080fd5b600160a060020a03848116600090815260026020908152604080832093871680845293825280832060018082018054808301825581875285872001889055825460ff1916909117909155939092528254825181830281018301909352808352610928939183018282801561091e57602002820191906000526020600020905b81548152602001906001019080831161090a575b5050505050610c00565b600160a060020a03808616600090815260026020908152604080832093881683529281529190208251610965936001909201929190910190610dc4565b50600160a060020a03808516600081815260026020818152604080842095891680855295825280842087855290920181529181902086905580519384529083019190915281810184905260608201839052517f0593304e642425cbef3bf52551e397e544e9fa4c1f672831d8adc885eb8274bc9181900360800190a150505050565b600160a060020a0382166000908152600360205260408120548210610a0b57600080fd5b600160a060020a0383166000908152600360205260409020805483908110610a2f57fe5b6000918252602090912060059091020160040154600160a060020a03169392505050565b600160a060020a0380841660009081526002602090815260408083209386168352929052908120600101548210610a8957600080fd5b600160a060020a038085166000908152600260209081526040808320938716835292905220600101805483908110610abd57fe5b906000526020600020015490509392505050565b600160a060020a031660009081526020819052604090205460ff1690565b3360009081526020819052604090205460ff161515610b0d57600080fd5b6107de81610c16565b610b1e610e0b565b4281526020808201948552604080830194855260608301938452600160a060020a039788166080840190815296881660009081526003808452918120805460018082018355918352939091209351600590930290930191825594519181019190915591516002830155519181019190915590516004909101805473ffffffffffffffffffffffffffffffffffffffff191691909216179055565b600082821115610bc457fe5b50900390565b600160a060020a0381161515610bdf57600080fd5b600160a060020a03166000908152602081905260409020805460ff19169055565b6060610c128260006001855103610c89565b5090565b600160a060020a0381161515610c2b57600080fd5b600154604051600160a060020a038084169216907f8be0079c531659141344cd1fd0a4f28419497f9722a3daafe3b4186f6b6457e090600090a3600160a060020a03166000908152602081905260409020805460ff19166001179055565b8181600081831415610c9a57610dbc565b856002868603058601815181101515610caf57fe5b9060200190602002015190505b818313610d96575b808684815181101515610cd357fe5b906020019060200201511015610cee57600190920191610cc4565b8582815181101515610cfc57fe5b90602001906020020151811015610d195760001990910190610cee565b818313610d91578582815181101515610d2e57fe5b906020019060200201518684815181101515610d4657fe5b906020019060200201518785815181101515610d5e57fe5b9060200190602002018885815181101515610d7557fe5b6020908102909101019190915252600190920191600019909101905b610cbc565b81851215610da957610da9868684610c89565b83831215610dbc57610dbc868486610c89565b505050505050565b828054828255906000526020600020908101928215610dff579160200282015b82811115610dff578251825591602001919060010190610de4565b50610c12929150610e44565b60a060405190810160405280600081526020016000815260200160008152602001600081526020016000600160a060020a031681525090565b61042191905b80821115610c125760008155600101610e4a5600a165627a7a72305820240d4cd8c85793a3cafa7cd417d652241d2ee6224480723b0dc42bf7b22e86960029",
  "source": "pragma solidity ^0.4.24;\n\nimport 'openzeppelin-solidity/contracts/ownership/Ownable.sol';\nimport 'openzeppelin-solidity/contracts/math/SafeMath.sol';\nimport \"../interfaces/TradesHistoryInt.sol\";\nimport \"../interfaces/Ownables.sol\";\ncontract TradesHistory is Ownables, TradesHistoryInt{\n    using SafeMath for uint256;\n    event buyEvent(address user, address stoneCoinAddress, uint256 amount, uint256 limit_micros);\n    event sellEvent(address user, address stoneCoinAddress, uint256 amount, uint256 buy_limit, uint256 sell_limit);\n\n    struct HoldingBundle {\n        bool holds;\n        uint256[] buyPrices;\n        mapping(uint256 => uint256) buysPriceToAmount;\n    }\n\n    struct TradeHistory {\n        uint256 time;\n        uint256 amount;\n        uint256 sellingPrice;\n        uint256 buyingPrice;\n        address stoneCoinAddress;\n    }\n\n\n    mapping(address  => mapping(address => HoldingBundle)) private trades;\n    mapping(address  => TradeHistory[]) private userTradesHistory;\n\n    constructor (\n    ) Ownables() public {\n    }\n\n\n    function remove(uint index, uint256[] array) private pure returns(uint256[]) {\n        if (index >= array.length) return;\n\n        for (uint i = index; i<array.length-1; i++){\n            array[i] = array[i+1];\n        }\n        delete array[array.length-1];\n        return array;\n    }\n\n    function sort(uint256[] data) private pure returns(uint256[]) {\n        quickSort(data, int(0), int(data.length - 1));\n        return data;\n    }\n\n    function quickSort(uint256[] memory arr, int left, int right) internal pure{\n        int i = left;\n        int j = right;\n        if(i==j) return;\n        uint256 pivot = arr[uint256(left + (right - left) / 2)];\n        while (i <= j) {\n            while (arr[uint256(i)] < pivot) i++;\n            while (pivot < arr[uint256(j)]) j--;\n            if (i <= j) {\n                (arr[uint256(i)], arr[uint256(j)]) = (arr[uint256(j)], arr[uint256(i)]);\n                i++;\n                j--;\n            }\n        }\n        if (left < j)\n            quickSort(arr, left, j);\n        if (i < right)\n            quickSort(arr, i, right);\n    }\n\n    function buyingTrade(address stoneCoinAddress, address user, uint256 amount, uint256 buy_limit) public onlyOwner {\n        trades[stoneCoinAddress][user].buyPrices.push(buy_limit);\n        trades[stoneCoinAddress][user].holds = true;\n        trades[stoneCoinAddress][user].buyPrices = sort(trades[stoneCoinAddress][user].buyPrices);\n        trades[stoneCoinAddress][user].buysPriceToAmount[buy_limit] = amount;\n        emit buyEvent(user, stoneCoinAddress ,amount, buy_limit);\n    }\n\n    function sellingTrade(address stoneCoinAddress, address user, uint256 amount, uint256 sell_limit) public onlyOwner {\n        HoldingBundle storage holdings = trades[stoneCoinAddress][user];\n          if(holdings.holds){\n            uint index = holdings.buyPrices.length - 1;\n              bool last = false;\n            while(amount > 0  && !last){\n                if(index == 0){\n                    last = true;\n                }\n                uint256 holdingPrice = holdings.buyPrices[index];\n                uint256 tradeAmount =  holdings.buysPriceToAmount[holdingPrice];\n                if(tradeAmount == 0){\n                    index = index - 1;\n                }else{\n                    if(amount > tradeAmount){\n                        index = index - 1;\n                        emit sellEvent(user, stoneCoinAddress ,tradeAmount, holdingPrice, sell_limit);\n                        holdings.buysPriceToAmount[holdingPrice] = 0;\n                        addTradeHistory(stoneCoinAddress, user, tradeAmount, sell_limit, holdingPrice);\n                        amount = amount.sub(tradeAmount);\n                    }else{\n                        emit sellEvent(user, stoneCoinAddress ,amount, holdingPrice, sell_limit);\n                        addTradeHistory(stoneCoinAddress, user, amount, sell_limit, holdingPrice);\n                        holdings.buysPriceToAmount[holdingPrice] = tradeAmount.sub(amount);\n                        amount = 0;\n                    }\n                }\n            }\n        }\n    }\n\n    function addTradeHistory(address stoneCoinAddress, address user, uint256 amount, uint256 sellingPrice, uint256 buyingPrice) private {\n        TradeHistory memory trade;\n        trade.time = now;\n        trade.amount = amount;\n        trade.sellingPrice = sellingPrice;\n        trade.buyingPrice = buyingPrice;\n        trade.stoneCoinAddress = stoneCoinAddress;\n        userTradesHistory[user].push(trade);\n    }\n\n    function getHistoryTradesCount( address user)  public view returns(uint256) {\n        return userTradesHistory[user].length;\n    }\n\n    function getHistoryTradesTime( address user, uint index)  public view returns(uint256) {\n         require(userTradesHistory[user].length > index);\n         return  userTradesHistory[user][index].time;\n    }\n    function getHistoryTradesAmount(address user, uint index)  public view returns(uint256) {\n         require(userTradesHistory[user].length > index);\n         return  userTradesHistory[user][index].amount;\n    }\n    function getHistoryTradesSellingPrice(address user, uint index)  public view returns(uint256) {\n         require(userTradesHistory[user].length > index);\n         return  userTradesHistory[user][index].sellingPrice;\n    }\n\n    function getHistoryTradesBuyingPrice(address user, uint index)  public view returns(uint256) {\n         require(userTradesHistory[user].length > index);\n         return  userTradesHistory[user][index].buyingPrice;\n    }\n\n    function getHistoryTradesProject(address user, uint index)  public view returns(address) {\n         require(userTradesHistory[user].length > index);\n         return  userTradesHistory[user][index].stoneCoinAddress;\n    }\n\n    function getPrice(address stoneCoinAddress, address user, uint index) public view returns(uint256) {\n        require(trades[stoneCoinAddress][user].buyPrices.length > index);\n        return trades[stoneCoinAddress][user].buyPrices[index];\n    }\n\n    function getPrices(address stoneCoinAddress, address user) public view returns(uint256) {\n        return trades[stoneCoinAddress][user].buyPrices.length;\n    }\n\n    function getAmountByPrice(address stoneCoinAddress, address user, uint256 price) public view returns(uint256) {\n        return trades[stoneCoinAddress][user].buysPriceToAmount[price];\n    }\n\n\n}\n",
  "sourcePath": "/Users/roilandshut/projects/brikoin/brikoin/contracts/structures/TradesHistory.sol",
  "compiler": {
    "name": "solc",
    "version": "0.4.24+commit.e67f0147.Emscripten.clang"
  },
  "schemaVersion": "2.0.1",
  "updatedAt": "2019-10-27T14:12:11.128Z"
}