{
  "contractName": "TrusteeFactory",
  "abi": [
    {
      "constant": false,
      "inputs": [],
      "name": "renounceOwnership",
      "outputs": [],
      "payable": false,
      "stateMutability": "nonpayable",
      "type": "function"
    },
    {
      "constant": true,
      "inputs": [],
      "name": "owner",
      "outputs": [
        {
          "name": "",
          "type": "address"
        }
      ],
      "payable": false,
      "stateMutability": "view",
      "type": "function"
    },
    {
      "constant": true,
      "inputs": [],
      "name": "_manager",
      "outputs": [
        {
          "name": "",
          "type": "address"
        }
      ],
      "payable": false,
      "stateMutability": "view",
      "type": "function"
    },
    {
      "constant": false,
      "inputs": [
        {
          "name": "_newOwner",
          "type": "address"
        }
      ],
      "name": "transferOwnership",
      "outputs": [],
      "payable": false,
      "stateMutability": "nonpayable",
      "type": "function"
    },
    {
      "anonymous": false,
      "inputs": [
        {
          "indexed": false,
          "name": "trustee",
          "type": "address"
        }
      ],
      "name": "TrusteeRoleCreated",
      "type": "event"
    },
    {
      "anonymous": false,
      "inputs": [
        {
          "indexed": false,
          "name": "trustee",
          "type": "address"
        }
      ],
      "name": "TrusteeCreated",
      "type": "event"
    },
    {
      "anonymous": false,
      "inputs": [
        {
          "indexed": true,
          "name": "previousOwner",
          "type": "address"
        }
      ],
      "name": "OwnershipRenounced",
      "type": "event"
    },
    {
      "anonymous": false,
      "inputs": [
        {
          "indexed": true,
          "name": "previousOwner",
          "type": "address"
        },
        {
          "indexed": true,
          "name": "newOwner",
          "type": "address"
        }
      ],
      "name": "OwnershipTransferred",
      "type": "event"
    },
    {
      "constant": false,
      "inputs": [
        {
          "name": "_name",
          "type": "bytes32"
        },
        {
          "name": "_trusteeType",
          "type": "uint8"
        },
        {
          "name": "_licenseNumber",
          "type": "bytes32"
        },
        {
          "name": "_country",
          "type": "bytes32"
        },
        {
          "name": "_address1",
          "type": "bytes32"
        },
        {
          "name": "_address2",
          "type": "bytes32"
        },
        {
          "name": "_contactFirstName",
          "type": "bytes32"
        },
        {
          "name": "_contactSecondName",
          "type": "bytes32"
        },
        {
          "name": "_phoneNumber",
          "type": "bytes32"
        },
        {
          "name": "_email",
          "type": "bytes32"
        },
        {
          "name": "_url",
          "type": "bytes32"
        },
        {
          "name": "_urlMD5",
          "type": "bytes32"
        }
      ],
      "name": "createTrustee",
      "outputs": [
        {
          "name": "",
          "type": "address"
        }
      ],
      "payable": false,
      "stateMutability": "nonpayable",
      "type": "function"
    },
    {
      "constant": false,
      "inputs": [
        {
          "name": "_trustee",
          "type": "address"
        }
      ],
      "name": "addTrustee",
      "outputs": [],
      "payable": false,
      "stateMutability": "nonpayable",
      "type": "function"
    }
  ],
  "bytecode": "0x608060405260008054600160a060020a031916331790556108d8806100256000396000f3006080604052600436106100775763ffffffff7c0100000000000000000000000000000000000000000000000000000000600035041663715018a6811461007c5780638da5cb5b14610093578063d5d0786e146100c4578063dc78ac1c14610104578063f0329f6b14610125578063f2fde38b1461013a575b600080fd5b34801561008857600080fd5b5061009161015b565b005b34801561009f57600080fd5b506100a86101c7565b60408051600160a060020a039092168252519081900360200190f35b3480156100d057600080fd5b506100a860043560ff6024351660443560643560843560a43560c43560e435610104356101243561014435610164356101d6565b34801561011057600080fd5b50610091600160a060020a03600435166102fb565b34801561013157600080fd5b506100a861039a565b34801561014657600080fd5b50610091600160a060020a03600435166103a9565b600054600160a060020a0316331461017257600080fd5b60008054604051600160a060020a03909116917ff8df31144d9c2f0f6b59d69b8b98abd5459d07f2742c4df920b25aae33c6482091a26000805473ffffffffffffffffffffffffffffffffffffffff19169055565b600054600160a060020a031681565b336000908152600160208190526040822054829160ff909116151514806102075750600054600160a060020a031633145b151561021257600080fd5b8d8d8d8d8d8d8d8d8d8d8d8d610226610449565b8c8152602081018c600281111561023957fe5b60ff168152602081019b909b52506040808b019990995260608a0197909752608089019590955260a088019390935260c087019190915260e0860152610100850152610120840152610140830152519081900361016001925090506000f0801580156102a9573d6000803e3d6000fd5b5060408051600160a060020a038316815290519192507f230a34263bf89d4e369929a8f730f4be00b8d918d57d3e292e7103d21a5f5f9a919081900360200190a19d9c50505050505050505050505050565b600054600160a060020a0316331461031257600080fd5b600160a060020a03811660009081526001602081905260409091205460ff161515141561033e57600080fd5b600160a060020a038116600081815260016020818152604092839020805460ff1916909217909155815192835290517f0e2a6d4311b4eb55a01849ec95b77716896028ead73073b5e98fb346e7ad20169281900390910190a150565b600254600160a060020a031681565b600054600160a060020a031633146103c057600080fd5b6103c9816103cc565b50565b600160a060020a03811615156103e157600080fd5b60008054604051600160a060020a03808516939216917f8be0079c531659141344cd1fd0a4f28419497f9722a3daafe3b4186f6b6457e091a36000805473ffffffffffffffffffffffffffffffffffffffff1916600160a060020a0392909216919091179055565b6040516104538061045a833901905600608060405234801561001057600080fd5b506040516101808061045383398101604090815281516020830151918301516060840151608085015160a086015160c087015160e08801516101008901516101208a01516101408b0151610160909b015160008054600160a060020a0319163317905560018a8155600280549b9d9a9b999a989997989697959694959394938d9260ff199091169083838111156100a357fe5b0217905550600399909955600497909755600595909555600693909355600791909155600855600955600a55600b55600d55505061036d806100e66000396000f30060806040526004361061006c5763ffffffff7c010000000000000000000000000000000000000000000000000000000060003504166329092d0e8114610071578063715018a6146100a15780638da5cb5b146100b6578063ac8a260c146100f4578063f2fde38b14610136575b600080fd5b34801561007d57600080fd5b5061009f73ffffffffffffffffffffffffffffffffffffffff60043516610164565b005b3480156100ad57600080fd5b5061009f6101b6565b3480156100c257600080fd5b506100cb61023c565b6040805173ffffffffffffffffffffffffffffffffffffffff9092168252519081900360200190f35b34801561010057600080fd5b5061012273ffffffffffffffffffffffffffffffffffffffff60043516610258565b604080519115158252519081900360200190f35b34801561014257600080fd5b5061009f73ffffffffffffffffffffffffffffffffffffffff6004351661026d565b60005473ffffffffffffffffffffffffffffffffffffffff16331461018857600080fd5b73ffffffffffffffffffffffffffffffffffffffff166000908152600c60205260409020805460ff19169055565b60005473ffffffffffffffffffffffffffffffffffffffff1633146101da57600080fd5b6000805460405173ffffffffffffffffffffffffffffffffffffffff909116917ff8df31144d9c2f0f6b59d69b8b98abd5459d07f2742c4df920b25aae33c6482091a26000805473ffffffffffffffffffffffffffffffffffffffff19169055565b60005473ffffffffffffffffffffffffffffffffffffffff1681565b600c6020526000908152604090205460ff1681565b60005473ffffffffffffffffffffffffffffffffffffffff16331461029157600080fd5b61029a8161029d565b50565b73ffffffffffffffffffffffffffffffffffffffff811615156102bf57600080fd5b6000805460405173ffffffffffffffffffffffffffffffffffffffff808516939216917f8be0079c531659141344cd1fd0a4f28419497f9722a3daafe3b4186f6b6457e091a36000805473ffffffffffffffffffffffffffffffffffffffff191673ffffffffffffffffffffffffffffffffffffffff929092169190911790555600a165627a7a723058200f179b6cfbfef3c69a00a0803b73bf9fdc5219d2bc9b20983f2100f04f8c811d0029a165627a7a723058202c678ca949bc60b2f51209e2bad6278e9ad8a42926958c14e38b54eae5e205790029",
  "source": "pragma solidity ^0.4.24;\nimport \"openzeppelin-solidity/contracts/ownership/Ownable.sol\";\nimport 'openzeppelin-solidity/contracts/math/SafeMath.sol';\nimport '../structures/Trustee.sol';\nimport \"../libs/types.sol\";\n\ncontract TrusteeFactory is Ownable{\n    using SafeMath for uint256;\n    mapping( address=> bool) trustees;\n    event TrusteeRoleCreated(address trustee);\n    event TrusteeCreated(address trustee);\n    address public _manager;\n\n\n    modifier onlyTrustee() {\n        require(trustees[msg.sender] == true ||  owner == msg.sender);\n        _;\n    }\n\n    function createTrustee (\n        bytes32         _name,\n        Types.TrusteeType    _trusteeType,\n        bytes32         _licenseNumber,\n        bytes32         _country,\n        bytes32         _address1,\n        bytes32         _address2,\n        bytes32         _contactFirstName,\n        bytes32         _contactSecondName,\n        bytes32         _phoneNumber,\n        bytes32         _email,\n        bytes32         _url,\n        bytes32         _urlMD5\n    ) public onlyTrustee returns(address){\n        Trustee newContract = new Trustee(_name,\n            _trusteeType,\n            _licenseNumber,\n            _country,\n            _address1,\n            _address2,\n            _contactFirstName,\n            _contactSecondName,\n            _phoneNumber,\n            _email,\n            _url,\n            _urlMD5);\n        emit TrusteeCreated(address(newContract));\n        return address(newContract);\n    }\n\n    function addTrustee(address _trustee) public onlyOwner {\n        require(trustees[_trustee] != true);\n        trustees[_trustee] = true;\n        emit TrusteeRoleCreated(_trustee);\n    }\n}\n",
  "sourcePath": "/Users/roilandshut/projects/brikoin/brikoin/contracts/factory/TrusteeFactory.sol",
  "compiler": {
    "name": "solc",
    "version": "0.4.24+commit.e67f0147.Emscripten.clang"
  },
  "schemaVersion": "2.0.1",
  "updatedAt": "2019-10-27T14:12:11.017Z"
}