{
  "contractName": "AggregateStoneCoinFactory",
  "abi": [
    {
      "constant": false,
      "inputs": [],
      "name": "renounceOwnership",
      "outputs": [],
      "payable": false,
      "stateMutability": "nonpayable",
      "type": "function"
    },
    {
      "constant": true,
      "inputs": [],
      "name": "owner",
      "outputs": [
        {
          "name": "",
          "type": "address"
        }
      ],
      "payable": false,
      "stateMutability": "view",
      "type": "function"
    },
    {
      "constant": false,
      "inputs": [
        {
          "name": "_newOwner",
          "type": "address"
        }
      ],
      "name": "transferOwnership",
      "outputs": [],
      "payable": false,
      "stateMutability": "nonpayable",
      "type": "function"
    },
    {
      "anonymous": false,
      "inputs": [
        {
          "indexed": false,
          "name": "Aggregator",
          "type": "address"
        }
      ],
      "name": "AggregatedStoneCoinsCreated",
      "type": "event"
    },
    {
      "anonymous": false,
      "inputs": [
        {
          "indexed": true,
          "name": "previousOwner",
          "type": "address"
        }
      ],
      "name": "OwnershipRenounced",
      "type": "event"
    },
    {
      "anonymous": false,
      "inputs": [
        {
          "indexed": true,
          "name": "previousOwner",
          "type": "address"
        },
        {
          "indexed": true,
          "name": "newOwner",
          "type": "address"
        }
      ],
      "name": "OwnershipTransferred",
      "type": "event"
    },
    {
      "constant": false,
      "inputs": [
        {
          "name": "_name",
          "type": "bytes32"
        },
        {
          "name": "_symbol",
          "type": "bytes32"
        },
        {
          "name": "_startTimestamp",
          "type": "uint256"
        },
        {
          "name": "_durationSeconds",
          "type": "uint256"
        },
        {
          "name": "_assetManager",
          "type": "address"
        },
        {
          "name": "_organization",
          "type": "address"
        },
        {
          "name": "key",
          "type": "uint256"
        }
      ],
      "name": "createAggregateStoneCoins",
      "outputs": [
        {
          "name": "",
          "type": "address"
        }
      ],
      "payable": false,
      "stateMutability": "nonpayable",
      "type": "function"
    },
    {
      "constant": true,
      "inputs": [
        {
          "name": "key",
          "type": "uint256"
        }
      ],
      "name": "getContractAddress",
      "outputs": [
        {
          "name": "",
          "type": "address"
        }
      ],
      "payable": false,
      "stateMutability": "view",
      "type": "function"
    }
  ],
  "bytecode": "0x608060405260008054600160a060020a03191633179055610b08806100256000396000f30060806040526004361061006c5763ffffffff7c0100000000000000000000000000000000000000000000000000000000600035041663715018a681146100715780638da5cb5b14610088578063a3844886146100c6578063aefa7d9814610109578063f2fde38b14610121575b600080fd5b34801561007d57600080fd5b5061008661014f565b005b34801561009457600080fd5b5061009d6101d5565b6040805173ffffffffffffffffffffffffffffffffffffffff9092168252519081900360200190f35b3480156100d257600080fd5b5061009d60043560243560443560643573ffffffffffffffffffffffffffffffffffffffff60843581169060a4351660c4356101f1565b34801561011557600080fd5b5061009d60043561032a565b34801561012d57600080fd5b5061008673ffffffffffffffffffffffffffffffffffffffff60043516610352565b60005473ffffffffffffffffffffffffffffffffffffffff16331461017357600080fd5b6000805460405173ffffffffffffffffffffffffffffffffffffffff909116917ff8df31144d9c2f0f6b59d69b8b98abd5459d07f2742c4df920b25aae33c6482091a26000805473ffffffffffffffffffffffffffffffffffffffff19169055565b60005473ffffffffffffffffffffffffffffffffffffffff1681565b60008054819073ffffffffffffffffffffffffffffffffffffffff16331461021857600080fd5b88888888888833610227610426565b9687526020870195909552604080870194909452606086019290925273ffffffffffffffffffffffffffffffffffffffff908116608086015290811660a08501529190911660c0830152519081900360e001906000f08015801561028f573d6000803e3d6000fd5b506040805173ffffffffffffffffffffffffffffffffffffffff8316815290519192507f293674b1dbdf1dd0c57122efca5a3101564c0d480576d55aeef6d686cdc52a4c919081900360200190a1600092835260016020526040909220805473ffffffffffffffffffffffffffffffffffffffff191673ffffffffffffffffffffffffffffffffffffffff8416179055509695505050505050565b60009081526001602052604090205473ffffffffffffffffffffffffffffffffffffffff1690565b60005473ffffffffffffffffffffffffffffffffffffffff16331461037657600080fd5b61037f81610382565b50565b73ffffffffffffffffffffffffffffffffffffffff811615156103a457600080fd5b6000805460405173ffffffffffffffffffffffffffffffffffffffff808516939216917f8be0079c531659141344cd1fd0a4f28419497f9722a3daafe3b4186f6b6457e091a36000805473ffffffffffffffffffffffffffffffffffffffff191673ffffffffffffffffffffffffffffffffffffffff92909216919091179055565b6040516106a68061043783390190560060806040527f53746f6e65436f696e41475200000000000000000000000000000000000000006004557f53544300000000000000000000000000000000000000000000000000000000006005556293a80060085560098054600160a060020a031916905534801561006f57600080fd5b5060405160e0806106a683398101604090815281516020830151918301516060840151608085015160a086015160c0909601516000805460049690965560059690965560079390935560089190915560068054600160a060020a03928316600160a060020a031991821617909155928316339081178416179093556009805494841694831694909417909355600a805492909316911617905561058f806101176000396000f3006080604052600436106100f05763ffffffff7c010000000000000000000000000000000000000000000000000000000060003504166306fdde0381146100f557806309173f9e1461011c5780630f4ee32f146101395780631d9821cd1461015157806323bd4d7a14610169578063349d82b11461019a57806362db90c3146101b2578063715018a6146101c75780638da5cb5b146101dc57806394217ad1146101f157806395d89b41146102065780639acba2af1461021b578063b6fd585114610230578063ce606ee014610251578063e6fd48bc14610266578063f2fde38b1461027b578063fa80be901461029c575b600080fd5b34801561010157600080fd5b5061010a6102b1565b60408051918252519081900360200190f35b34801561012857600080fd5b506101376004356024356102b7565b005b34801561014557600080fd5b5061010a600435610333565b34801561015d57600080fd5b5061010a600435610352565b34801561017557600080fd5b5061017e610360565b60408051600160a060020a039092168252519081900360200190f35b3480156101a657600080fd5b5061017e60043561036f565b3480156101be57600080fd5b5061010a610397565b3480156101d357600080fd5b5061013761039d565b3480156101e857600080fd5b5061017e610409565b3480156101fd57600080fd5b5061017e610418565b34801561021257600080fd5b5061010a610427565b34801561022757600080fd5b5061010a61042d565b34801561023c57600080fd5b50610137600160a060020a0360043516610433565b34801561025d57600080fd5b5061017e6104a8565b34801561027257600080fd5b5061010a6104b7565b34801561028757600080fd5b50610137600160a060020a03600435166104bd565b3480156102a857600080fd5b5061010a6104e0565b60045481565b600a54600160a060020a031633146102ce57600080fd5b6002805460018181019092557f405787fa12a823e0f2b7631cc41b3ba8828b3321ca811111fa75cd3aa3bb5ace01929092556003805492830181556000527fc2575a0e9e593c00f959f8c92f12db2869c3395a3b0502d05e2516446f71f85b90910155565b600380548290811061034157fe5b600091825260209091200154905081565b600280548290811061034157fe5b600954600160a060020a031681565b600180548290811061037d57fe5b600091825260209091200154600160a060020a0316905081565b60035490565b600054600160a060020a031633146103b457600080fd5b60008054604051600160a060020a03909116917ff8df31144d9c2f0f6b59d69b8b98abd5459d07f2742c4df920b25aae33c6482091a26000805473ffffffffffffffffffffffffffffffffffffffff19169055565b600054600160a060020a031681565b600654600160a060020a031681565b60055481565b60085481565b600a54600160a060020a0316331461044a57600080fd5b6001805480820182556000919091527fb10e2d527612073b26eecdfd717e6a320cf44b4afac2b0732d9fcbe2b7fa0cf601805473ffffffffffffffffffffffffffffffffffffffff1916600160a060020a0392909216919091179055565b600a54600160a060020a031681565b60075481565b600054600160a060020a031633146104d457600080fd5b6104dd816104e6565b50565b60015490565b600160a060020a03811615156104fb57600080fd5b60008054604051600160a060020a03808516939216917f8be0079c531659141344cd1fd0a4f28419497f9722a3daafe3b4186f6b6457e091a36000805473ffffffffffffffffffffffffffffffffffffffff1916600160a060020a03929092169190911790555600a165627a7a72305820759fe2a4ccd2a0cc70f7f97f9ed45579dd6e2d73b588a123101b34933c2b22af0029a165627a7a72305820622d7d91b9d791523f4fc459002ccc7d7b07ce6dec4f809859e5c000a1b335a60029",
  "source": "pragma solidity ^0.4.24;\n\nimport 'openzeppelin-solidity/contracts/ownership/Ownable.sol';\nimport 'openzeppelin-solidity/contracts/math/SafeMath.sol';\nimport \"../AggregatedStoneCoin.sol\";\n\ncontract AggregateStoneCoinFactory is Ownable{\n    using SafeMath for uint256;\n    event AggregatedStoneCoinsCreated(address Aggregator);\n    mapping(uint256 => address) keyToContractAddress;\n    function createAggregateStoneCoins(\n        bytes32 _name,\n        bytes32 _symbol,\n        uint256 _startTimestamp,\n        uint256 _durationSeconds,\n        address _assetManager,\n        address _organization,\n        uint256 key\n    ) public onlyOwner returns(address){\n\n        AggregatedStoneCoins newContract = new AggregatedStoneCoins(_name,\n            _symbol,\n            _startTimestamp,\n            _durationSeconds,\n            _assetManager,\n        _organization,\n        msg.sender);\n        emit AggregatedStoneCoinsCreated(address(newContract));\n        keyToContractAddress[key] = address(newContract);\n        return address(newContract);\n    }\n\n    function getContractAddress( uint256 key) public view returns (address) {\n        return keyToContractAddress[key];\n    }\n\n\n\n}\n",
  "sourcePath": "/Users/roilandshut/projects/brikoin/brikoin/contracts/factory/AggregatedStoneCoinFactory.sol",
  "compiler": {
    "name": "solc",
    "version": "0.4.24+commit.e67f0147.Emscripten.clang"
  },
  "schemaVersion": "2.0.1",
  "updatedAt": "2019-10-27T14:12:10.952Z"
}