{
  "contractName": "AggregatedStoneCoins",
  "abi": [
    {
      "constant": true,
      "inputs": [],
      "name": "name",
      "outputs": [
        {
          "name": "",
          "type": "bytes32"
        }
      ],
      "payable": false,
      "stateMutability": "view",
      "type": "function"
    },
    {
      "constant": true,
      "inputs": [
        {
          "name": "",
          "type": "uint256"
        }
      ],
      "name": "urlMD5",
      "outputs": [
        {
          "name": "",
          "type": "bytes32"
        }
      ],
      "payable": false,
      "stateMutability": "view",
      "type": "function"
    },
    {
      "constant": true,
      "inputs": [
        {
          "name": "",
          "type": "uint256"
        }
      ],
      "name": "url",
      "outputs": [
        {
          "name": "",
          "type": "bytes32"
        }
      ],
      "payable": false,
      "stateMutability": "view",
      "type": "function"
    },
    {
      "constant": true,
      "inputs": [],
      "name": "organization",
      "outputs": [
        {
          "name": "",
          "type": "address"
        }
      ],
      "payable": false,
      "stateMutability": "view",
      "type": "function"
    },
    {
      "constant": true,
      "inputs": [
        {
          "name": "",
          "type": "uint256"
        }
      ],
      "name": "stoneCoins",
      "outputs": [
        {
          "name": "",
          "type": "address"
        }
      ],
      "payable": false,
      "stateMutability": "view",
      "type": "function"
    },
    {
      "constant": false,
      "inputs": [],
      "name": "renounceOwnership",
      "outputs": [],
      "payable": false,
      "stateMutability": "nonpayable",
      "type": "function"
    },
    {
      "constant": true,
      "inputs": [],
      "name": "owner",
      "outputs": [
        {
          "name": "",
          "type": "address"
        }
      ],
      "payable": false,
      "stateMutability": "view",
      "type": "function"
    },
    {
      "constant": true,
      "inputs": [],
      "name": "assetManager",
      "outputs": [
        {
          "name": "",
          "type": "address"
        }
      ],
      "payable": false,
      "stateMutability": "view",
      "type": "function"
    },
    {
      "constant": true,
      "inputs": [],
      "name": "symbol",
      "outputs": [
        {
          "name": "",
          "type": "bytes32"
        }
      ],
      "payable": false,
      "stateMutability": "view",
      "type": "function"
    },
    {
      "constant": true,
      "inputs": [],
      "name": "durationSeconds",
      "outputs": [
        {
          "name": "",
          "type": "uint256"
        }
      ],
      "payable": false,
      "stateMutability": "view",
      "type": "function"
    },
    {
      "constant": true,
      "inputs": [],
      "name": "contractOwner",
      "outputs": [
        {
          "name": "",
          "type": "address"
        }
      ],
      "payable": false,
      "stateMutability": "view",
      "type": "function"
    },
    {
      "constant": true,
      "inputs": [],
      "name": "startTimestamp",
      "outputs": [
        {
          "name": "",
          "type": "uint256"
        }
      ],
      "payable": false,
      "stateMutability": "view",
      "type": "function"
    },
    {
      "constant": false,
      "inputs": [
        {
          "name": "_newOwner",
          "type": "address"
        }
      ],
      "name": "transferOwnership",
      "outputs": [],
      "payable": false,
      "stateMutability": "nonpayable",
      "type": "function"
    },
    {
      "inputs": [
        {
          "name": "_name",
          "type": "bytes32"
        },
        {
          "name": "_symbol",
          "type": "bytes32"
        },
        {
          "name": "_startTimestamp",
          "type": "uint256"
        },
        {
          "name": "_durationSeconds",
          "type": "uint256"
        },
        {
          "name": "_assetManager",
          "type": "address"
        },
        {
          "name": "_organization",
          "type": "address"
        },
        {
          "name": "_contractOwner",
          "type": "address"
        }
      ],
      "payable": false,
      "stateMutability": "nonpayable",
      "type": "constructor"
    },
    {
      "anonymous": false,
      "inputs": [
        {
          "indexed": true,
          "name": "previousOwner",
          "type": "address"
        }
      ],
      "name": "OwnershipRenounced",
      "type": "event"
    },
    {
      "anonymous": false,
      "inputs": [
        {
          "indexed": true,
          "name": "previousOwner",
          "type": "address"
        },
        {
          "indexed": true,
          "name": "newOwner",
          "type": "address"
        }
      ],
      "name": "OwnershipTransferred",
      "type": "event"
    },
    {
      "constant": false,
      "inputs": [
        {
          "name": "_url",
          "type": "bytes32"
        },
        {
          "name": "_urlMD5",
          "type": "bytes32"
        }
      ],
      "name": "addDocument",
      "outputs": [],
      "payable": false,
      "stateMutability": "nonpayable",
      "type": "function"
    },
    {
      "constant": false,
      "inputs": [
        {
          "name": "stoneCoin",
          "type": "address"
        }
      ],
      "name": "addStoneCoin",
      "outputs": [],
      "payable": false,
      "stateMutability": "nonpayable",
      "type": "function"
    },
    {
      "constant": true,
      "inputs": [],
      "name": "getDocumentsLength",
      "outputs": [
        {
          "name": "",
          "type": "uint256"
        }
      ],
      "payable": false,
      "stateMutability": "view",
      "type": "function"
    },
    {
      "constant": true,
      "inputs": [],
      "name": "getStoneCoinsProjects",
      "outputs": [
        {
          "name": "",
          "type": "uint256"
        }
      ],
      "payable": false,
      "stateMutability": "view",
      "type": "function"
    }
  ],
  "bytecode": "0x60806040527f53746f6e65436f696e41475200000000000000000000000000000000000000006004557f53544300000000000000000000000000000000000000000000000000000000006005556293a80060085560098054600160a060020a031916905534801561006f57600080fd5b5060405160e0806106a683398101604090815281516020830151918301516060840151608085015160a086015160c0909601516000805460049690965560059690965560079390935560089190915560068054600160a060020a03928316600160a060020a031991821617909155928316339081178416179093556009805494841694831694909417909355600a805492909316911617905561058f806101176000396000f3006080604052600436106100f05763ffffffff7c010000000000000000000000000000000000000000000000000000000060003504166306fdde0381146100f557806309173f9e1461011c5780630f4ee32f146101395780631d9821cd1461015157806323bd4d7a14610169578063349d82b11461019a57806362db90c3146101b2578063715018a6146101c75780638da5cb5b146101dc57806394217ad1146101f157806395d89b41146102065780639acba2af1461021b578063b6fd585114610230578063ce606ee014610251578063e6fd48bc14610266578063f2fde38b1461027b578063fa80be901461029c575b600080fd5b34801561010157600080fd5b5061010a6102b1565b60408051918252519081900360200190f35b34801561012857600080fd5b506101376004356024356102b7565b005b34801561014557600080fd5b5061010a600435610333565b34801561015d57600080fd5b5061010a600435610352565b34801561017557600080fd5b5061017e610360565b60408051600160a060020a039092168252519081900360200190f35b3480156101a657600080fd5b5061017e60043561036f565b3480156101be57600080fd5b5061010a610397565b3480156101d357600080fd5b5061013761039d565b3480156101e857600080fd5b5061017e610409565b3480156101fd57600080fd5b5061017e610418565b34801561021257600080fd5b5061010a610427565b34801561022757600080fd5b5061010a61042d565b34801561023c57600080fd5b50610137600160a060020a0360043516610433565b34801561025d57600080fd5b5061017e6104a8565b34801561027257600080fd5b5061010a6104b7565b34801561028757600080fd5b50610137600160a060020a03600435166104bd565b3480156102a857600080fd5b5061010a6104e0565b60045481565b600a54600160a060020a031633146102ce57600080fd5b6002805460018181019092557f405787fa12a823e0f2b7631cc41b3ba8828b3321ca811111fa75cd3aa3bb5ace01929092556003805492830181556000527fc2575a0e9e593c00f959f8c92f12db2869c3395a3b0502d05e2516446f71f85b90910155565b600380548290811061034157fe5b600091825260209091200154905081565b600280548290811061034157fe5b600954600160a060020a031681565b600180548290811061037d57fe5b600091825260209091200154600160a060020a0316905081565b60035490565b600054600160a060020a031633146103b457600080fd5b60008054604051600160a060020a03909116917ff8df31144d9c2f0f6b59d69b8b98abd5459d07f2742c4df920b25aae33c6482091a26000805473ffffffffffffffffffffffffffffffffffffffff19169055565b600054600160a060020a031681565b600654600160a060020a031681565b60055481565b60085481565b600a54600160a060020a0316331461044a57600080fd5b6001805480820182556000919091527fb10e2d527612073b26eecdfd717e6a320cf44b4afac2b0732d9fcbe2b7fa0cf601805473ffffffffffffffffffffffffffffffffffffffff1916600160a060020a0392909216919091179055565b600a54600160a060020a031681565b60075481565b600054600160a060020a031633146104d457600080fd5b6104dd816104e6565b50565b60015490565b600160a060020a03811615156104fb57600080fd5b60008054604051600160a060020a03808516939216917f8be0079c531659141344cd1fd0a4f28419497f9722a3daafe3b4186f6b6457e091a36000805473ffffffffffffffffffffffffffffffffffffffff1916600160a060020a03929092169190911790555600a165627a7a72305820759fe2a4ccd2a0cc70f7f97f9ed45579dd6e2d73b588a123101b34933c2b22af0029",
  "source": "pragma solidity ^0.4.24;\n\nimport \"openzeppelin-solidity/contracts/ownership/Ownable.sol\";\nimport 'openzeppelin-solidity/contracts/math/SafeMath.sol';\nimport \"./StoneCoin.sol\";\n\n//TODO: https://ethereum.stackexchange.com/questions/13167/are-there-well-solved-and-simple-storage-patterns-for-solidity\ncontract AggregatedStoneCoins is Ownable {\n    using SafeMath for uint256;\n\n    address[]  public stoneCoins;\n\n    bytes32[] public url;\n    bytes32[] public urlMD5;\n\n    bytes32  public name = \"StoneCoinAGR\";\n    bytes32  public symbol = \"STC\";\n    address  public assetManager;\n    uint256  public startTimestamp; // timestamp after which ICO will start\n    uint256  public durationSeconds = 16 * 7 * 24 * 60 * 60; // 16 weeks\n    address  public organization = 0 ;\n    address  public contractOwner;\n\n    // This is the constructor whose code is\n    // run only when the contract is created.\n    constructor(\n        bytes32 _name,\n        bytes32 _symbol,\n        uint256 _startTimestamp,\n        uint256 _durationSeconds,\n        address _assetManager,\n        address _organization,\n        address _contractOwner\n    ) Ownable() public {\n        name            = _name;\n        symbol          = _symbol;\n        startTimestamp  = _startTimestamp;\n        durationSeconds = _durationSeconds;\n        assetManager =  _assetManager;\n        owner = msg.sender;\n        organization = _organization;\n        contractOwner = _contractOwner;\n    }\n\n\n    function addDocument( bytes32 _url, bytes32 _urlMD5) public  {\n        require(msg.sender == contractOwner);\n        url.push(_url);\n        urlMD5.push(_urlMD5);\n    }\n\n    function addStoneCoin(address stoneCoin) public {\n         require(msg.sender == contractOwner);\n         stoneCoins.push(stoneCoin);\n    }\n\n    function getDocumentsLength() external view returns (uint256) {\n        return urlMD5.length;\n    }\n\n    function getStoneCoinsProjects() external view returns (uint256) {\n        return stoneCoins.length;\n    }\n\n}",
  "sourcePath": "/Users/roilandshut/projects/brikoin/brikoin/contracts/AggregatedStoneCoin.sol",
  "compiler": {
    "name": "solc",
    "version": "0.4.24+commit.e67f0147.Emscripten.clang"
  },
  "schemaVersion": "2.0.1",
  "updatedAt": "2019-10-27T14:12:10.835Z"
}