{
  "contractName": "CornerStoneBaseStorage",
  "abi": [
    {
      "constant": true,
      "inputs": [
        {
          "name": "",
          "type": "address"
        }
      ],
      "name": "owners",
      "outputs": [
        {
          "name": "",
          "type": "bool"
        }
      ],
      "payable": false,
      "stateMutability": "view",
      "type": "function"
    },
    {
      "constant": false,
      "inputs": [
        {
          "name": "_newOwner",
          "type": "address"
        }
      ],
      "name": "setOwner",
      "outputs": [],
      "payable": false,
      "stateMutability": "nonpayable",
      "type": "function"
    },
    {
      "constant": true,
      "inputs": [],
      "name": "getAddress",
      "outputs": [
        {
          "name": "",
          "type": "address"
        }
      ],
      "payable": false,
      "stateMutability": "view",
      "type": "function"
    },
    {
      "constant": true,
      "inputs": [
        {
          "name": "",
          "type": "address"
        }
      ],
      "name": "mortgageOperatorRoles",
      "outputs": [
        {
          "name": "",
          "type": "bool"
        }
      ],
      "payable": false,
      "stateMutability": "view",
      "type": "function"
    },
    {
      "constant": false,
      "inputs": [
        {
          "name": "_newOwner",
          "type": "address"
        }
      ],
      "name": "removeOwnership",
      "outputs": [],
      "payable": false,
      "stateMutability": "nonpayable",
      "type": "function"
    },
    {
      "constant": true,
      "inputs": [
        {
          "name": "",
          "type": "address"
        }
      ],
      "name": "mortgageFinanceRoles",
      "outputs": [
        {
          "name": "",
          "type": "bool"
        }
      ],
      "payable": false,
      "stateMutability": "view",
      "type": "function"
    },
    {
      "constant": true,
      "inputs": [
        {
          "name": "",
          "type": "address"
        }
      ],
      "name": "feeManagerRoles",
      "outputs": [
        {
          "name": "",
          "type": "bool"
        }
      ],
      "payable": false,
      "stateMutability": "view",
      "type": "function"
    },
    {
      "constant": true,
      "inputs": [],
      "name": "owner",
      "outputs": [
        {
          "name": "",
          "type": "address"
        }
      ],
      "payable": false,
      "stateMutability": "view",
      "type": "function"
    },
    {
      "constant": true,
      "inputs": [
        {
          "name": "",
          "type": "address"
        }
      ],
      "name": "tokenApproveRoles",
      "outputs": [
        {
          "name": "",
          "type": "bool"
        }
      ],
      "payable": false,
      "stateMutability": "view",
      "type": "function"
    },
    {
      "constant": true,
      "inputs": [
        {
          "name": "user",
          "type": "address"
        }
      ],
      "name": "isOwnable",
      "outputs": [
        {
          "name": "",
          "type": "bool"
        }
      ],
      "payable": false,
      "stateMutability": "view",
      "type": "function"
    },
    {
      "constant": false,
      "inputs": [
        {
          "name": "_newOwner",
          "type": "address"
        }
      ],
      "name": "addOwnership",
      "outputs": [],
      "payable": false,
      "stateMutability": "nonpayable",
      "type": "function"
    },
    {
      "anonymous": false,
      "inputs": [
        {
          "indexed": true,
          "name": "previousOwner",
          "type": "address"
        }
      ],
      "name": "OwnershipRenounced",
      "type": "event"
    },
    {
      "anonymous": false,
      "inputs": [
        {
          "indexed": true,
          "name": "previousOwner",
          "type": "address"
        },
        {
          "indexed": true,
          "name": "newOwner",
          "type": "address"
        }
      ],
      "name": "OwnershipTransferred",
      "type": "event"
    },
    {
      "constant": true,
      "inputs": [],
      "name": "getName",
      "outputs": [
        {
          "name": "",
          "type": "bytes32"
        }
      ],
      "payable": false,
      "stateMutability": "view",
      "type": "function"
    },
    {
      "constant": true,
      "inputs": [],
      "name": "getSymbol",
      "outputs": [
        {
          "name": "",
          "type": "bytes32"
        }
      ],
      "payable": false,
      "stateMutability": "view",
      "type": "function"
    },
    {
      "constant": true,
      "inputs": [],
      "name": "getInitialSupply",
      "outputs": [
        {
          "name": "",
          "type": "uint256"
        }
      ],
      "payable": false,
      "stateMutability": "view",
      "type": "function"
    },
    {
      "constant": false,
      "inputs": [
        {
          "name": "user",
          "type": "address"
        },
        {
          "name": "balance",
          "type": "uint256"
        }
      ],
      "name": "setUserBalance",
      "outputs": [],
      "payable": false,
      "stateMutability": "nonpayable",
      "type": "function"
    },
    {
      "constant": true,
      "inputs": [
        {
          "name": "user",
          "type": "address"
        }
      ],
      "name": "getUserBalance",
      "outputs": [
        {
          "name": "",
          "type": "uint256"
        }
      ],
      "payable": false,
      "stateMutability": "view",
      "type": "function"
    },
    {
      "constant": false,
      "inputs": [
        {
          "name": "user",
          "type": "address"
        },
        {
          "name": "stoneCoinAddress",
          "type": "address"
        },
        {
          "name": "balance",
          "type": "uint256"
        }
      ],
      "name": "setUserReservedBalance",
      "outputs": [],
      "payable": false,
      "stateMutability": "nonpayable",
      "type": "function"
    },
    {
      "constant": true,
      "inputs": [
        {
          "name": "user",
          "type": "address"
        },
        {
          "name": "stoneCoinAddress",
          "type": "address"
        }
      ],
      "name": "getUserReservedBalance",
      "outputs": [
        {
          "name": "",
          "type": "uint256"
        }
      ],
      "payable": false,
      "stateMutability": "view",
      "type": "function"
    },
    {
      "constant": false,
      "inputs": [
        {
          "name": "user",
          "type": "address"
        },
        {
          "name": "balance",
          "type": "uint256"
        }
      ],
      "name": "setUserPendingBalance",
      "outputs": [],
      "payable": false,
      "stateMutability": "nonpayable",
      "type": "function"
    },
    {
      "constant": true,
      "inputs": [
        {
          "name": "user",
          "type": "address"
        }
      ],
      "name": "getUserPendingBalance",
      "outputs": [
        {
          "name": "",
          "type": "uint256"
        }
      ],
      "payable": false,
      "stateMutability": "view",
      "type": "function"
    },
    {
      "constant": false,
      "inputs": [
        {
          "name": "user",
          "type": "address"
        },
        {
          "name": "approveRole",
          "type": "bool"
        }
      ],
      "name": "setMortgageOperatorRoles",
      "outputs": [],
      "payable": false,
      "stateMutability": "nonpayable",
      "type": "function"
    },
    {
      "constant": true,
      "inputs": [
        {
          "name": "user",
          "type": "address"
        }
      ],
      "name": "getMortgageOperatorRoles",
      "outputs": [
        {
          "name": "",
          "type": "bool"
        }
      ],
      "payable": false,
      "stateMutability": "view",
      "type": "function"
    },
    {
      "constant": false,
      "inputs": [
        {
          "name": "user",
          "type": "address"
        },
        {
          "name": "approveRole",
          "type": "bool"
        }
      ],
      "name": "setFeeManagerRoles",
      "outputs": [],
      "payable": false,
      "stateMutability": "nonpayable",
      "type": "function"
    },
    {
      "constant": true,
      "inputs": [
        {
          "name": "user",
          "type": "address"
        }
      ],
      "name": "getFeeManagerRoles",
      "outputs": [
        {
          "name": "",
          "type": "bool"
        }
      ],
      "payable": false,
      "stateMutability": "view",
      "type": "function"
    },
    {
      "constant": false,
      "inputs": [
        {
          "name": "user",
          "type": "address"
        },
        {
          "name": "approveRole",
          "type": "bool"
        }
      ],
      "name": "setTokenApproveRoles",
      "outputs": [],
      "payable": false,
      "stateMutability": "nonpayable",
      "type": "function"
    },
    {
      "constant": true,
      "inputs": [
        {
          "name": "user",
          "type": "address"
        }
      ],
      "name": "getTokenApproveRoles",
      "outputs": [
        {
          "name": "",
          "type": "bool"
        }
      ],
      "payable": false,
      "stateMutability": "view",
      "type": "function"
    },
    {
      "constant": false,
      "inputs": [
        {
          "name": "user",
          "type": "address"
        },
        {
          "name": "approveRole",
          "type": "bool"
        }
      ],
      "name": "setMortgageFinanceRoles",
      "outputs": [],
      "payable": false,
      "stateMutability": "nonpayable",
      "type": "function"
    },
    {
      "constant": true,
      "inputs": [
        {
          "name": "user",
          "type": "address"
        }
      ],
      "name": "getMortgageFinanceRoles",
      "outputs": [
        {
          "name": "",
          "type": "bool"
        }
      ],
      "payable": false,
      "stateMutability": "view",
      "type": "function"
    }
  ],
  "bytecode": "0x608060409081527f4d6963726f5553446f6c6c61720000000000000000000000000000000000000060028190557f4d6963726f555344000000000000000000000000000000000000000000000000600381905567ffffffffffffffff6004819055600b92909255600c55600d55336000818152602081905291909120805460ff191660019081179091558054600160a060020a0319169091179055610aee806100a96000396000f3006080604052600436106101695763ffffffff7c0100000000000000000000000000000000000000000000000000000000600035041663022914a7811461016e5780630b41b4a5146101a357806313af4035146101cb57806315070401146101ec57806317d7de7c1461021357806338cc483114610228578063477348921461025957806352e0fc1c1461027a578063561c3f961461029b578063666a3427146102bc57806366c4ad19146102dd5780636d7c91401461030357806373d3e97614610324578063791297fe1461034557806381a4a6d81461036657806384c980f31461037b5780638da5cb5b146103a1578063b31ce65b146103b6578063c5f33082146103d7578063c6685c8f146103f8578063d37512f81461041c578063d50450cf14610446578063d928f80714610467578063e88914de1461048e578063edae030c146104af578063f5a55ff6146104d5578063f69417dd146104f6578063fe17770014610517575b600080fd5b34801561017a57600080fd5b5061018f600160a060020a036004351661053b565b604080519115158252519081900360200190f35b3480156101af57600080fd5b506101c9600160a060020a03600435166024351515610550565b005b3480156101d757600080fd5b506101c9600160a060020a0360043516610599565b3480156101f857600080fd5b506102016105e6565b60408051918252519081900360200190f35b34801561021f57600080fd5b506102016105ec565b34801561023457600080fd5b5061023d6105f2565b60408051600160a060020a039092168252519081900360200190f35b34801561026557600080fd5b50610201600160a060020a03600435166105f6565b34801561028657600080fd5b5061018f600160a060020a0360043516610630565b3480156102a757600080fd5b5061018f600160a060020a0360043516610645565b3480156102c857600080fd5b506101c9600160a060020a0360043516610682565b3480156102e957600080fd5b506101c9600160a060020a036004351660243515156106ac565b34801561030f57600080fd5b5061018f600160a060020a03600435166106f5565b34801561033057600080fd5b5061018f600160a060020a036004351661070a565b34801561035157600080fd5b5061018f600160a060020a036004351661071f565b34801561037257600080fd5b5061020161075c565b34801561038757600080fd5b506101c9600160a060020a03600435166024351515610762565b3480156103ad57600080fd5b5061023d6107ab565b3480156103c257600080fd5b5061018f600160a060020a03600435166107ba565b3480156103e357600080fd5b5061018f600160a060020a03600435166107f7565b34801561040457600080fd5b506101c9600160a060020a0360043516602435610834565b34801561042857600080fd5b506101c9600160a060020a036004358116906024351660443561086e565b34801561045257600080fd5b5061018f600160a060020a03600435166108b8565b34801561047357600080fd5b50610201600160a060020a03600435811690602435166108cd565b34801561049a57600080fd5b5061018f600160a060020a0360043516610917565b3480156104bb57600080fd5b506101c9600160a060020a03600435166024351515610935565b3480156104e157600080fd5b506101c9600160a060020a036004351661097e565b34801561050257600080fd5b50610201600160a060020a03600435166109a5565b34801561052357600080fd5b506101c9600160a060020a03600435166024356109df565b60006020819052908152604090205460ff1681565b3360009081526020819052604090205460ff16151561056e57600080fd5b600160a060020a03919091166000908152601260205260409020805460ff1916911515919091179055565b3360009081526020819052604090205460ff1615156105b757600080fd5b6001805473ffffffffffffffffffffffffffffffffffffffff1916600160a060020a0392909216919091179055565b600c5490565b600b5490565b3090565b3360009081526020819052604081205460ff16151561061457600080fd5b50600160a060020a03166000908152600e602052604090205490565b600f6020526000908152604090205460ff1681565b3360009081526020819052604081205460ff16151561066357600080fd5b50600160a060020a031660009081526011602052604090205460ff1690565b3360009081526020819052604090205460ff1615156106a057600080fd5b6106a981610a19565b50565b3360009081526020819052604090205460ff1615156106ca57600080fd5b600160a060020a03919091166000908152601160205260409020805460ff1916911515919091179055565b60126020526000908152604090205460ff1681565b60106020526000908152604090205460ff1681565b3360009081526020819052604081205460ff16151561073d57600080fd5b50600160a060020a03166000908152600f602052604090205460ff1690565b600d5490565b3360009081526020819052604090205460ff16151561078057600080fd5b600160a060020a03919091166000908152601060205260409020805460ff1916911515919091179055565b600154600160a060020a031681565b3360009081526020819052604081205460ff1615156107d857600080fd5b50600160a060020a031660009081526010602052604090205460ff1690565b3360009081526020819052604081205460ff16151561081557600080fd5b50600160a060020a031660009081526012602052604090205460ff1690565b3360009081526020819052604090205460ff16151561085257600080fd5b600160a060020a03909116600090815260146020526040902055565b3360009081526020819052604090205460ff16151561088c57600080fd5b600160a060020a0392831660009081526013602090815260408083209490951682529290925291902055565b60116020526000908152604090205460ff1681565b3360009081526020819052604081205460ff1615156108eb57600080fd5b50600160a060020a03918216600090815260136020908152604080832093909416825291909152205490565b600160a060020a031660009081526020819052604090205460ff1690565b3360009081526020819052604090205460ff16151561095357600080fd5b600160a060020a03919091166000908152600f60205260409020805460ff1916911515919091179055565b3360009081526020819052604090205460ff16151561099c57600080fd5b6106a981610a4f565b3360009081526020819052604081205460ff1615156109c357600080fd5b50600160a060020a031660009081526014602052604090205490565b3360009081526020819052604090205460ff1615156109fd57600080fd5b600160a060020a039091166000908152600e6020526040902055565b600160a060020a0381161515610a2e57600080fd5b600160a060020a03166000908152602081905260409020805460ff19169055565b600160a060020a0381161515610a6457600080fd5b600154604051600160a060020a038084169216907f8be0079c531659141344cd1fd0a4f28419497f9722a3daafe3b4186f6b6457e090600090a3600160a060020a03166000908152602081905260409020805460ff191660011790555600a165627a7a7230582075a3955e03d3289338a406def7e9382930fa5df37762c2ffbe37fddf590733030029",
  "source": "pragma solidity ^0.4.24;\n\nimport \"openzeppelin-solidity/contracts/token/ERC20/StandardToken.sol\";\nimport 'openzeppelin-solidity/contracts/math/SafeMath.sol';\nimport \"../interfaces/Ownables.sol\";\nimport \"../interfaces/CornerStoneBaseStorageInt.sol\";\n\ncontract CornerStoneBaseStorage is Ownables, CornerStoneBaseStorageInt{\n  using SafeMath for uint256;\n  bytes32   name              = \"MicroUSDollar\"; //10^(−6) Dollar\n  bytes32   symbol            = \"MicroUSD\";\n  uint256   INITIAL_SUPPLY    = 18446744073709551615;\n  mapping(address => uint256) balances;\n  mapping(address => bool) public mortgageOperatorRoles;\n  mapping(address => bool) public feeManagerRoles;\n  mapping(address => bool) public tokenApproveRoles;\n  mapping(address => bool) public mortgageFinanceRoles;\n  mapping(address => mapping (address => uint256)) reservedBalances;\n  mapping(address => uint256) pendingWithdrawals;\n\n    function getName() public view returns(bytes32){\n        return name;\n    }\n    function getSymbol() public view returns(bytes32){\n        return symbol;\n    }\n\n    function getInitialSupply() public view returns(uint256){\n        return INITIAL_SUPPLY;\n    }\n\n    function setUserBalance( address user, uint256 balance) public onlyOwner {\n        balances[user] = balance;\n    }\n    function getUserBalance( address user) public view onlyOwner returns(uint256){\n        return balances[user];\n    }\n    function setUserReservedBalance( address user, address stoneCoinAddress, uint256 balance) public onlyOwner {\n        reservedBalances[user][stoneCoinAddress] = balance;\n    }\n    function getUserReservedBalance( address user, address stoneCoinAddress) public view onlyOwner returns(uint256){\n        return reservedBalances[user][stoneCoinAddress];\n    }\n    function setUserPendingBalance( address user, uint256 balance) public onlyOwner {\n        pendingWithdrawals[user] = balance;\n    }\n    function getUserPendingBalance( address user) public view onlyOwner returns(uint256){\n        return pendingWithdrawals[user];\n    }\n\n    function setMortgageOperatorRoles( address user, bool approveRole) public onlyOwner {\n        mortgageOperatorRoles[user] = approveRole;\n    }\n    function getMortgageOperatorRoles( address user) public view onlyOwner returns(bool){\n        return mortgageOperatorRoles[user];\n    }\n\n    function setFeeManagerRoles( address user, bool approveRole) public onlyOwner {\n        feeManagerRoles[user] = approveRole;\n    }\n    function getFeeManagerRoles( address user) public view onlyOwner returns(bool){\n        return feeManagerRoles[user];\n    }\n    function setTokenApproveRoles( address user, bool approveRole) public onlyOwner {\n        tokenApproveRoles[user] = approveRole;\n    }\n    function getTokenApproveRoles( address user) public view onlyOwner returns(bool){\n        return tokenApproveRoles[user];\n    }\n\n    function setMortgageFinanceRoles( address user, bool approveRole) public onlyOwner {\n       mortgageFinanceRoles[user] = approveRole;\n    }\n\n    function getMortgageFinanceRoles(address user) public view onlyOwner returns(bool){\n        return mortgageFinanceRoles[user];\n    }\n\n\n\n}\n",
  "sourcePath": "/Users/roilandshut/projects/brikoin/brikoin/contracts/storage/CornerStoneBaseStorage.sol",
  "compiler": {
    "name": "solc",
    "version": "0.4.24+commit.e67f0147.Emscripten.clang"
  },
  "schemaVersion": "2.0.1",
  "updatedAt": "2019-10-27T14:12:11.052Z"
}