{
  "contractName": "EstimationFactory",
  "abi": [
    {
      "constant": false,
      "inputs": [],
      "name": "renounceOwnership",
      "outputs": [],
      "payable": false,
      "stateMutability": "nonpayable",
      "type": "function"
    },
    {
      "constant": true,
      "inputs": [],
      "name": "_estimator",
      "outputs": [
        {
          "name": "",
          "type": "address"
        }
      ],
      "payable": false,
      "stateMutability": "view",
      "type": "function"
    },
    {
      "constant": true,
      "inputs": [],
      "name": "owner",
      "outputs": [
        {
          "name": "",
          "type": "address"
        }
      ],
      "payable": false,
      "stateMutability": "view",
      "type": "function"
    },
    {
      "constant": false,
      "inputs": [
        {
          "name": "_newOwner",
          "type": "address"
        }
      ],
      "name": "transferOwnership",
      "outputs": [],
      "payable": false,
      "stateMutability": "nonpayable",
      "type": "function"
    },
    {
      "anonymous": false,
      "inputs": [
        {
          "indexed": false,
          "name": "estimator",
          "type": "address"
        }
      ],
      "name": "EstimatorCreated",
      "type": "event"
    },
    {
      "anonymous": false,
      "inputs": [
        {
          "indexed": false,
          "name": "estimation",
          "type": "address"
        }
      ],
      "name": "EstimationCreated",
      "type": "event"
    },
    {
      "anonymous": false,
      "inputs": [
        {
          "indexed": true,
          "name": "previousOwner",
          "type": "address"
        }
      ],
      "name": "OwnershipRenounced",
      "type": "event"
    },
    {
      "anonymous": false,
      "inputs": [
        {
          "indexed": true,
          "name": "previousOwner",
          "type": "address"
        },
        {
          "indexed": true,
          "name": "newOwner",
          "type": "address"
        }
      ],
      "name": "OwnershipTransferred",
      "type": "event"
    },
    {
      "constant": false,
      "inputs": [
        {
          "name": "_price",
          "type": "uint256"
        },
        {
          "name": "_currency",
          "type": "bytes32"
        },
        {
          "name": "_timestamp",
          "type": "uint256"
        },
        {
          "name": "_rental",
          "type": "bytes32"
        },
        {
          "name": "_expectedYield",
          "type": "uint256"
        },
        {
          "name": "_estimatorName",
          "type": "bytes32"
        },
        {
          "name": "_estimatorFirstName",
          "type": "bytes32"
        },
        {
          "name": "_estimatorSecondName",
          "type": "bytes32"
        },
        {
          "name": "_phoneNumber",
          "type": "bytes32"
        },
        {
          "name": "_email",
          "type": "bytes32"
        },
        {
          "name": "_url",
          "type": "bytes32"
        },
        {
          "name": "_urlMD5",
          "type": "bytes32"
        }
      ],
      "name": "createEstimation",
      "outputs": [
        {
          "name": "",
          "type": "address"
        }
      ],
      "payable": false,
      "stateMutability": "nonpayable",
      "type": "function"
    },
    {
      "constant": false,
      "inputs": [
        {
          "name": "newEstimator",
          "type": "address"
        }
      ],
      "name": "addEstimator",
      "outputs": [],
      "payable": false,
      "stateMutability": "nonpayable",
      "type": "function"
    }
  ],
  "bytecode": "0x608060405260008054600160a060020a031916331790556109bc806100256000396000f3006080604052600436106100775763ffffffff7c010000000000000000000000000000000000000000000000000000000060003504166356998686811461007c578063715018a6146100d55780638220c1ea146100ec5780638da5cb5b14610101578063babcaa3c14610116578063f2fde38b14610137575b600080fd5b34801561008857600080fd5b506100b960043560243560443560643560843560a43560c43560e43561010435610124356101443561016435610158565b60408051600160a060020a039092168252519081900360200190f35b3480156100e157600080fd5b506100ea61026d565b005b3480156100f857600080fd5b506100b96102d9565b34801561010d57600080fd5b506100b96102e8565b34801561012257600080fd5b506100ea600160a060020a03600435166102f7565b34801561014357600080fd5b506100ea600160a060020a0360043516610396565b336000908152600160208190526040822054829160ff909116151514806101895750600054600160a060020a031633145b151561019457600080fd5b8d8d8d8d8d8d8d8d8d8d8d8d6101a8610436565b9b8c5260208c019a909a526040808c019990995260608b019790975260808a019590955260a089019390935260c088019190915260e0870152610100860152610120850152610140840152610160830191909152519081900361018001906000f08015801561021b573d6000803e3d6000fd5b5060408051600160a060020a038316815290519192507f6c3b6076ec79e08d6451ad5ecd7c2dd1ba19de9538a250c83ef4b1d7f163a768919081900360200190a19d9c50505050505050505050505050565b600054600160a060020a0316331461028457600080fd5b60008054604051600160a060020a03909116917ff8df31144d9c2f0f6b59d69b8b98abd5459d07f2742c4df920b25aae33c6482091a26000805473ffffffffffffffffffffffffffffffffffffffff19169055565b600254600160a060020a031681565b600054600160a060020a031681565b600054600160a060020a0316331461030e57600080fd5b600160a060020a03811660009081526001602081905260409091205460ff161515141561033a57600080fd5b600160a060020a038116600081815260016020818152604092839020805460ff1916909217909155815192835290517f88a70b1fe4f1336d0e076df7aaa6223258de0f0e1fc3079fc5a7dc0d4453f2e39281900390910190a150565b600054600160a060020a031633146103ad57600080fd5b6103b6816103b9565b50565b600160a060020a03811615156103ce57600080fd5b60008054604051600160a060020a03808516939216917f8be0079c531659141344cd1fd0a4f28419497f9722a3daafe3b4186f6b6457e091a36000805473ffffffffffffffffffffffffffffffffffffffff1916600160a060020a0392909216919091179055565b60405161054a80610447833901905600608060405234801561001057600080fd5b506040516101808061054a83398101604090815281516020830151918301516060840151608085015160a086015160c087015160e08801516101008901516101208a01516101408b0151610160909b015160008054600160a060020a03191633178155999b98999798969795969495939492939192918c1161009157600080fd5b60008a1161009e57600080fd5b600088116100ab57600080fd5b60019b909b55600299909955600397909755600495909555600593909355600691909155600755600855600955600a55600b55600c5561045a806100f06000396000f3006080604052600436106100da5763ffffffff7c0100000000000000000000000000000000000000000000000000000000600035041663027b980b81146100df578063181d13fc146101065780633f10573d1461011b5780635600f04f14610130578063715018a614610145578063747f33801461015c578063820e93f5146101715780638da5cb5b1461018657806395ed26e7146101c4578063a035b1fe146101d9578063b80777ea146101ee578063da4de74314610203578063e5a6b10f14610218578063f2fde38b1461022d578063f44da35a1461025b575b600080fd5b3480156100eb57600080fd5b506100f4610270565b60408051918252519081900360200190f35b34801561011257600080fd5b506100f4610276565b34801561012757600080fd5b506100f461027c565b34801561013c57600080fd5b506100f4610282565b34801561015157600080fd5b5061015a610288565b005b34801561016857600080fd5b506100f461030e565b34801561017d57600080fd5b506100f4610314565b34801561019257600080fd5b5061019b61031a565b6040805173ffffffffffffffffffffffffffffffffffffffff9092168252519081900360200190f35b3480156101d057600080fd5b506100f4610336565b3480156101e557600080fd5b506100f461033c565b3480156101fa57600080fd5b506100f4610342565b34801561020f57600080fd5b506100f4610348565b34801561022457600080fd5b506100f461034e565b34801561023957600080fd5b5061015a73ffffffffffffffffffffffffffffffffffffffff60043516610354565b34801561026757600080fd5b506100f4610384565b60055481565b60045481565b60075481565b600b5481565b60005473ffffffffffffffffffffffffffffffffffffffff1633146102ac57600080fd5b6000805460405173ffffffffffffffffffffffffffffffffffffffff909116917ff8df31144d9c2f0f6b59d69b8b98abd5459d07f2742c4df920b25aae33c6482091a26000805473ffffffffffffffffffffffffffffffffffffffff19169055565b60095481565b600a5481565b60005473ffffffffffffffffffffffffffffffffffffffff1681565b60085481565b60015481565b60035481565b600c5481565b60025481565b60005473ffffffffffffffffffffffffffffffffffffffff16331461037857600080fd5b6103818161038a565b50565b60065481565b73ffffffffffffffffffffffffffffffffffffffff811615156103ac57600080fd5b6000805460405173ffffffffffffffffffffffffffffffffffffffff808516939216917f8be0079c531659141344cd1fd0a4f28419497f9722a3daafe3b4186f6b6457e091a36000805473ffffffffffffffffffffffffffffffffffffffff191673ffffffffffffffffffffffffffffffffffffffff929092169190911790555600a165627a7a723058202b6a5ca73be0d51aa339c4f70ef1554022e88ad830c97bf5281dbd1bce22859c0029a165627a7a72305820e18c8a15faf70ce3548c4923a84937503918f58b9861faf5205bdc25edcfe8060029",
  "source": "pragma solidity ^0.4.24;\n\nimport 'openzeppelin-solidity/contracts/ownership/Ownable.sol';\nimport 'openzeppelin-solidity/contracts/math/SafeMath.sol';\nimport '../structures/Estimation.sol';\n\ncontract EstimationFactory is Ownable{\n    using SafeMath for uint256;\n    mapping( address=> bool) estimators;\n    event EstimatorCreated(address estimator);\n    event EstimationCreated(address estimation);\n    address public _estimator;\n\n\n    modifier onlyEstimator() {\n        require(estimators[msg.sender] == true ||  owner == msg.sender);\n        _;\n    }\n\n    function createEstimation (\n        uint256  _price,\n        bytes32  _currency,\n        uint256  _timestamp,\n        bytes32  _rental,\n        uint256  _expectedYield,\n        bytes32  _estimatorName,\n        bytes32  _estimatorFirstName,\n        bytes32  _estimatorSecondName,\n        bytes32  _phoneNumber,\n        bytes32  _email,\n        bytes32  _url,\n        bytes32  _urlMD5\n    ) public onlyEstimator returns(address){\n\n        Estimation newContract = new Estimation(_price,\n                                                _currency,\n                                                _timestamp,\n                                                _rental,\n                                                _expectedYield,\n                                                _estimatorName,\n                                                _estimatorFirstName,\n                                                _estimatorSecondName,\n                                                _phoneNumber,\n                                                _email,\n                                                _url,\n                                                _urlMD5              );\n        emit EstimationCreated(address(newContract));\n        return address(newContract);\n    }\n\n    function addEstimator(address newEstimator) public onlyOwner {\n        require(estimators[newEstimator] != true);\n        estimators[newEstimator] = true;\n        emit EstimatorCreated(newEstimator);\n    }\n}\n",
  "sourcePath": "/Users/roilandshut/projects/brikoin/brikoin/contracts/factory/EstimationFactory.sol",
  "compiler": {
    "name": "solc",
    "version": "0.4.24+commit.e67f0147.Emscripten.clang"
  },
  "schemaVersion": "2.0.1",
  "updatedAt": "2019-10-27T14:12:10.961Z"
}