{
  "contractName": "MortgageRequestFactory",
  "abi": [
    {
      "constant": true,
      "inputs": [
        {
          "name": "",
          "type": "address"
        }
      ],
      "name": "owners",
      "outputs": [
        {
          "name": "",
          "type": "bool"
        }
      ],
      "payable": false,
      "stateMutability": "view",
      "type": "function"
    },
    {
      "constant": false,
      "inputs": [
        {
          "name": "_newOwner",
          "type": "address"
        }
      ],
      "name": "setOwner",
      "outputs": [],
      "payable": false,
      "stateMutability": "nonpayable",
      "type": "function"
    },
    {
      "constant": true,
      "inputs": [],
      "name": "getAddress",
      "outputs": [
        {
          "name": "",
          "type": "address"
        }
      ],
      "payable": false,
      "stateMutability": "view",
      "type": "function"
    },
    {
      "constant": false,
      "inputs": [
        {
          "name": "_newOwner",
          "type": "address"
        }
      ],
      "name": "removeOwnership",
      "outputs": [],
      "payable": false,
      "stateMutability": "nonpayable",
      "type": "function"
    },
    {
      "constant": true,
      "inputs": [],
      "name": "owner",
      "outputs": [
        {
          "name": "",
          "type": "address"
        }
      ],
      "payable": false,
      "stateMutability": "view",
      "type": "function"
    },
    {
      "constant": true,
      "inputs": [
        {
          "name": "user",
          "type": "address"
        }
      ],
      "name": "isOwnable",
      "outputs": [
        {
          "name": "",
          "type": "bool"
        }
      ],
      "payable": false,
      "stateMutability": "view",
      "type": "function"
    },
    {
      "constant": false,
      "inputs": [
        {
          "name": "_newOwner",
          "type": "address"
        }
      ],
      "name": "addOwnership",
      "outputs": [],
      "payable": false,
      "stateMutability": "nonpayable",
      "type": "function"
    },
    {
      "inputs": [],
      "payable": false,
      "stateMutability": "nonpayable",
      "type": "constructor"
    },
    {
      "anonymous": false,
      "inputs": [
        {
          "indexed": false,
          "name": "mortgageRequest",
          "type": "address"
        }
      ],
      "name": "MortgageRequestCreated",
      "type": "event"
    },
    {
      "anonymous": false,
      "inputs": [
        {
          "indexed": false,
          "name": "mortgageeCondition",
          "type": "address"
        }
      ],
      "name": "MortgageeConditionCreated",
      "type": "event"
    },
    {
      "anonymous": false,
      "inputs": [
        {
          "indexed": false,
          "name": "mortgageeAddress",
          "type": "address"
        }
      ],
      "name": "MortgageeCreated",
      "type": "event"
    },
    {
      "anonymous": false,
      "inputs": [
        {
          "indexed": false,
          "name": "mortgageAddress",
          "type": "address"
        }
      ],
      "name": "MortgagePaymentCreated",
      "type": "event"
    },
    {
      "anonymous": false,
      "inputs": [
        {
          "indexed": false,
          "name": "newMortgagee",
          "type": "address"
        },
        {
          "indexed": false,
          "name": "microUSDs",
          "type": "uint256"
        },
        {
          "indexed": false,
          "name": "maxMortgage",
          "type": "uint256"
        }
      ],
      "name": "MortgageeAdded",
      "type": "event"
    },
    {
      "anonymous": false,
      "inputs": [
        {
          "indexed": false,
          "name": "newMortgagee",
          "type": "address"
        },
        {
          "indexed": false,
          "name": "microUSDs",
          "type": "uint256"
        },
        {
          "indexed": false,
          "name": "maxMortgage",
          "type": "uint256"
        }
      ],
      "name": "MortgageeAddFunds",
      "type": "event"
    },
    {
      "anonymous": false,
      "inputs": [
        {
          "indexed": false,
          "name": "mortgage",
          "type": "address"
        },
        {
          "indexed": false,
          "name": "stoneCoin",
          "type": "address"
        },
        {
          "indexed": false,
          "name": "mortgagee",
          "type": "address"
        },
        {
          "indexed": false,
          "name": "requester",
          "type": "address"
        },
        {
          "indexed": false,
          "name": "mortgageRequest",
          "type": "address"
        },
        {
          "indexed": false,
          "name": "mortgageeCondition",
          "type": "address"
        }
      ],
      "name": "MortgageCreated",
      "type": "event"
    },
    {
      "anonymous": false,
      "inputs": [
        {
          "indexed": true,
          "name": "previousOwner",
          "type": "address"
        }
      ],
      "name": "OwnershipRenounced",
      "type": "event"
    },
    {
      "anonymous": false,
      "inputs": [
        {
          "indexed": true,
          "name": "previousOwner",
          "type": "address"
        },
        {
          "indexed": true,
          "name": "newOwner",
          "type": "address"
        }
      ],
      "name": "OwnershipTransferred",
      "type": "event"
    },
    {
      "constant": true,
      "inputs": [
        {
          "name": "_user",
          "type": "address"
        }
      ],
      "name": "mortgageeAddress",
      "outputs": [
        {
          "name": "",
          "type": "address"
        }
      ],
      "payable": false,
      "stateMutability": "view",
      "type": "function"
    },
    {
      "constant": true,
      "inputs": [],
      "name": "getLastMortgageConditionTest",
      "outputs": [
        {
          "name": "",
          "type": "address"
        }
      ],
      "payable": false,
      "stateMutability": "view",
      "type": "function"
    },
    {
      "constant": true,
      "inputs": [
        {
          "name": "_user",
          "type": "address"
        },
        {
          "name": "_stoneCoin",
          "type": "address"
        }
      ],
      "name": "lastMortgageCondition",
      "outputs": [
        {
          "name": "",
          "type": "address"
        }
      ],
      "payable": false,
      "stateMutability": "view",
      "type": "function"
    },
    {
      "constant": true,
      "inputs": [
        {
          "name": "_user",
          "type": "address"
        }
      ],
      "name": "lastMortgageRequest",
      "outputs": [
        {
          "name": "",
          "type": "address"
        }
      ],
      "payable": false,
      "stateMutability": "view",
      "type": "function"
    },
    {
      "constant": true,
      "inputs": [
        {
          "name": "_user",
          "type": "address"
        }
      ],
      "name": "lastMortgage",
      "outputs": [
        {
          "name": "",
          "type": "address"
        }
      ],
      "payable": false,
      "stateMutability": "view",
      "type": "function"
    },
    {
      "constant": false,
      "inputs": [
        {
          "name": "automaticApproval",
          "type": "bool"
        },
        {
          "name": "_stoneCoinAddress",
          "type": "address"
        },
        {
          "name": "_maxLoanMicros",
          "type": "uint256"
        },
        {
          "name": "_interestRateMilliPercent",
          "type": "uint64"
        },
        {
          "name": "_fixedInterestRateMilliPercent",
          "type": "uint64"
        },
        {
          "name": "_downPaymentMilliPercent",
          "type": "uint64"
        },
        {
          "name": "_loanTermMonths",
          "type": "uint64"
        },
        {
          "name": "_adjustFixedRateMonths",
          "type": "uint64"
        },
        {
          "name": "_adjustInitialCap25",
          "type": "uint64"
        },
        {
          "name": "_adjustPeriodicCap25",
          "type": "uint64"
        },
        {
          "name": "_adjustLifetimeCap",
          "type": "uint64"
        }
      ],
      "name": "createMortgageeCondition",
      "outputs": [
        {
          "name": "",
          "type": "address"
        }
      ],
      "payable": false,
      "stateMutability": "nonpayable",
      "type": "function"
    },
    {
      "constant": false,
      "inputs": [
        {
          "name": "user",
          "type": "address"
        },
        {
          "name": "_stoneCoin",
          "type": "address"
        },
        {
          "name": "_mortgageCondition",
          "type": "address"
        },
        {
          "name": "_totalPayment",
          "type": "uint256"
        },
        {
          "name": "_downPayment",
          "type": "uint256"
        },
        {
          "name": "_longTermMonth",
          "type": "uint256"
        },
        {
          "name": "_downPaymentPercentMill",
          "type": "uint256"
        },
        {
          "name": "_mortgagee",
          "type": "address"
        }
      ],
      "name": "createMortgageRequest",
      "outputs": [
        {
          "name": "",
          "type": "address"
        }
      ],
      "payable": false,
      "stateMutability": "nonpayable",
      "type": "function"
    },
    {
      "constant": false,
      "inputs": [
        {
          "name": "user",
          "type": "address"
        },
        {
          "name": "_stoneCoin",
          "type": "address"
        },
        {
          "name": "_totalPayment",
          "type": "uint256"
        },
        {
          "name": "_downPayment",
          "type": "uint256"
        },
        {
          "name": "_longTermMonth",
          "type": "uint256"
        },
        {
          "name": "_downPaymentPercentMill",
          "type": "uint256"
        },
        {
          "name": "_mortgagee",
          "type": "address"
        }
      ],
      "name": "createExternalMortgageRequest",
      "outputs": [
        {
          "name": "",
          "type": "address"
        }
      ],
      "payable": false,
      "stateMutability": "nonpayable",
      "type": "function"
    },
    {
      "constant": false,
      "inputs": [
        {
          "name": "_mortgageRequestAddress",
          "type": "address"
        }
      ],
      "name": "approveByAdmin",
      "outputs": [
        {
          "name": "",
          "type": "bool"
        }
      ],
      "payable": false,
      "stateMutability": "nonpayable",
      "type": "function"
    },
    {
      "constant": false,
      "inputs": [
        {
          "name": "_mortgageCondition",
          "type": "address"
        }
      ],
      "name": "cancelMortgageCondition",
      "outputs": [
        {
          "name": "",
          "type": "bool"
        }
      ],
      "payable": false,
      "stateMutability": "nonpayable",
      "type": "function"
    }
  ],
  "bytecode": "0x608060405234801561001057600080fd5b50336000818152602081905260409020805460ff191660019081179091558054600160a060020a03191690911790556122618061004e6000396000f3006080604052600436106100f05763ffffffff7c0100000000000000000000000000000000000000000000000000000000600035041663022914a781146100f55780630eaaf32f1461012a57806313af40351461016757806332d1e8cc1461018a57806338cc4831146101ab57806357d9ee1a146101c0578063666a3427146101fd5780638c5726de1461021e5780638da5cb5b14610281578063ab398e2314610296578063ac136ecf146102b7578063c2b24787146102d8578063cc3df4fd146102ed578063cd69d2cc1461030e578063e79ecfe314610351578063e88914de14610378578063f5a55ff614610399575b600080fd5b34801561010157600080fd5b50610116600160a060020a03600435166103ba565b604080519115158252519081900360200190f35b34801561013657600080fd5b5061014b600160a060020a03600435166103cf565b60408051600160a060020a039092168252519081900360200190f35b34801561017357600080fd5b50610188600160a060020a03600435166103ed565b005b34801561019657600080fd5b5061014b600160a060020a036004351661043a565b3480156101b757600080fd5b5061014b610458565b3480156101cc57600080fd5b5061014b600160a060020a0360043581169060243581169060443590606435906084359060a4359060c4351661045c565b34801561020957600080fd5b50610188600160a060020a036004351661055e565b34801561022a57600080fd5b5061014b6004351515600160a060020a036024351660443567ffffffffffffffff60643581169060843581169060a43581169060c43581169060e43581169061010435811690610124358116906101443516610588565b34801561028d57600080fd5b5061014b610724565b3480156102a257600080fd5b50610116600160a060020a0360043516610733565b3480156102c357600080fd5b50610116600160a060020a03600435166108d2565b3480156102e457600080fd5b5061014b61096a565b3480156102f957600080fd5b5061014b600160a060020a0360043516610979565b34801561031a57600080fd5b5061014b600160a060020a03600435811690602435811690604435811690606435906084359060a4359060c4359060e43516610997565b34801561035d57600080fd5b5061014b600160a060020a0360043581169060243516610a99565b34801561038457600080fd5b50610116600160a060020a0360043516610ac3565b3480156103a557600080fd5b50610188600160a060020a0360043516610ae1565b60006020819052908152604090205460ff1681565b600160a060020a039081166000908152600460205260409020541690565b3360009081526020819052604090205460ff16151561040b57600080fd5b6001805473ffffffffffffffffffffffffffffffffffffffff1916600160a060020a0392909216919091179055565b600160a060020a039081166000908152600660205260409020541690565b3090565b600080888860008989888a896001610472610bb1565b600160a060020a03998a16815297891660208901529588166040808901919091526060880195909552608087019390935260a086019190915260c085015290931660e0830152151561010082015290519081900361012001906000f0801580156104e0573d6000803e3d6000fd5b50600160a060020a038a8116600090815260046020908152604091829020805473ffffffffffffffffffffffffffffffffffffffff19169385169384179055815192835290519293507f341408d5a0d30c293116aa17de994df1397694ff949b050add4abd62ac39e4d692918290030190a198975050505050505050565b3360009081526020819052604090205460ff16151561057c57600080fd5b61058581610b08565b50565b600080338d8d8d8d8d8d8d8d8d8d8d61059f610bc1565b600160a060020a039c8d1681529a151560208c015298909a166040808b019190915260608a019790975267ffffffffffffffff95861660808a015293851660a089015291841660c0880152831660e087015282166101008601528116610120850152938416610140840152921661016082015290519081900361018001906000f080158015610632573d6000803e3d6000fd5b50604080517ff5a55ff60000000000000000000000000000000000000000000000000000000081523360048201529051919250600160a060020a0383169163f5a55ff69160248082019260009290919082900301818387803b15801561069757600080fd5b505af11580156106ab573d6000803e3d6000fd5b505060408051600160a060020a038516815290517f16b0f131d37349127a1dd9f2d976d6d42436b0a64aa671f7cc15e3c508a2704a9350908190036020019150a16008805473ffffffffffffffffffffffffffffffffffffffff1916600160a060020a0383161790559c9b505050505050505050505050565b600154600160a060020a031681565b60008082905033600160a060020a031681600160a060020a0316632f29a0626040518163ffffffff167c0100000000000000000000000000000000000000000000000000000000028152600401602060405180830381600087803b15801561079a57600080fd5b505af11580156107ae573d6000803e3d6000fd5b505050506040513d60208110156107c457600080fd5b5051600160a060020a0316146107d957600080fd5b80600160a060020a0316632f2770db6040518163ffffffff167c0100000000000000000000000000000000000000000000000000000000028152600401600060405180830381600087803b15801561083057600080fd5b505af1158015610844573d6000803e3d6000fd5b5050505080600160a060020a03166322f3e2d46040518163ffffffff167c0100000000000000000000000000000000000000000000000000000000028152600401602060405180830381600087803b15801561089f57600080fd5b505af11580156108b3573d6000803e3d6000fd5b505050506040513d60208110156108c957600080fd5b50519392505050565b33600090815260208190526040812054819060ff1615156108f257600080fd5b82905080600160a060020a031663da62fdc66040518163ffffffff167c0100000000000000000000000000000000000000000000000000000000028152600401600060405180830381600087803b15801561094c57600080fd5b505af1158015610960573d6000803e3d6000fd5b5050505050919050565b600854600160a060020a031690565b600160a060020a039081166000908152600360205260409020541690565b6000808989898989888a8960006109ac610bb1565b600160a060020a03998a16815297891660208901529588166040808901919091526060880195909552608087019390935260a086019190915260c085015290931660e0830152151561010082015290519081900361012001906000f080158015610a1a573d6000803e3d6000fd5b50600160a060020a038b8116600090815260046020908152604091829020805473ffffffffffffffffffffffffffffffffffffffff19169385169384179055815192835290519293507f341408d5a0d30c293116aa17de994df1397694ff949b050add4abd62ac39e4d692918290030190a19998505050505050505050565b600160a060020a039182166000908152600560209081526040808320938516835292905220541690565b600160a060020a031660009081526020819052604090205460ff1690565b3360009081526020819052604090205460ff161515610aff57600080fd5b61058581610b3e565b600160a060020a0381161515610b1d57600080fd5b600160a060020a03166000908152602081905260409020805460ff19169055565b600160a060020a0381161515610b5357600080fd5b600154604051600160a060020a038084169216907f8be0079c531659141344cd1fd0a4f28419497f9722a3daafe3b4186f6b6457e090600090a3600160a060020a03166000908152602081905260409020805460ff19166001179055565b604051610b7d80610bd283390190565b604051610ae78061174f833901905600608060405234801561001057600080fd5b5060405161012080610b7d83398101604090815281516020830151918301516060840151608085015160a086015160c087015160e0880151610100909801516000805460028054600160a060020a03998a16600160a060020a031991821617909155600380549a8a169a82169a909a17909955600480549a89169a8a169a909a179099556005805497909a16968816969096179098556006929092556007929092556008556009559215157601000000000000000000000000000000000000000000000260a860020a61ffff021960a060020a60ff021992909316331791909116740100000000000000000000000000000000000000001791909116179055610a5f8061011e6000396000f30060806040526004361061017f5763ffffffff7c010000000000000000000000000000000000000000000000000000000060003504166306bff47b811461018457806312234ee0146101ab57806312424e3f146101dc57806319d40b08146101f35780631febdd9c1461021c57806328f371aa146102315780632929c6e6146102465780632baa031e1461025b5780632f2770db146102705780632f29a0621461028557806356f504731461029a57806358eeabbc146102af5780635f311214146102c45780636aa633b6146102d9578063715018a6146102ee57806374ebef68146103035780638da5cb5b14610318578063927ff3361461032d5780639db47b7714610342578063a3907d7114610357578063b61e96a51461036c578063c199121914610381578063cd1e071714610396578063cf062110146103ab578063d055900c146103c0578063d6dd04f7146103d5578063da62fdc6146103ea578063ed5257f4146103ff578063f2fde38b14610414578063f8ac635214610435575b600080fd5b34801561019057600080fd5b5061019961044a565b60408051918252519081900360200190f35b3480156101b757600080fd5b506101c0610450565b60408051600160a060020a039092168252519081900360200190f35b3480156101e857600080fd5b506101f161045f565b005b3480156101ff57600080fd5b506102086104d5565b604080519115158252519081900360200190f35b34801561022857600080fd5b506102086104f7565b34801561023d57600080fd5b5061020861051a565b34801561025257600080fd5b5061019961053c565b34801561026757600080fd5b50610208610542565b34801561027c57600080fd5b506101f16106b7565b34801561029157600080fd5b506101c06106ee565b3480156102a657600080fd5b506101996106fd565b3480156102bb57600080fd5b50610199610703565b3480156102d057600080fd5b506101c0610709565b3480156102e557600080fd5b50610208610718565b3480156102fa57600080fd5b506101f1610739565b34801561030f57600080fd5b506101c06107a5565b34801561032457600080fd5b506101c06107b4565b34801561033957600080fd5b506101c06107c3565b34801561034e57600080fd5b506101996107d2565b34801561036357600080fd5b506101f16107d8565b34801561037857600080fd5b506101c0610826565b34801561038d57600080fd5b50610208610835565b3480156103a257600080fd5b506101c0610856565b3480156103b757600080fd5b506101c0610865565b3480156103cc57600080fd5b506101c0610874565b3480156103e157600080fd5b50610199610883565b3480156103f657600080fd5b506101f1610889565b34801561040b57600080fd5b50610199610987565b34801561042057600080fd5b506101f1600160a060020a036004351661098d565b34801561044157600080fd5b506101996109b0565b60085490565b600154600160a060020a031690565b600554600160a060020a0316331461047657600080fd5b61047e610542565b151561048957600080fd5b610491610718565b151561049c57600080fd5b6000805475ff00000000000000000000000000000000000000000019167501000000000000000000000000000000000000000000179055565b6000547501000000000000000000000000000000000000000000900460ff1681565b600054760100000000000000000000000000000000000000000000900460ff1681565b6000547501000000000000000000000000000000000000000000900460ff1690565b60075490565b600080548190760100000000000000000000000000000000000000000000900460ff161561057357600191506106b3565b5060025460048054604080517f4538f92f0000000000000000000000000000000000000000000000000000000081529051600160a060020a0394851694909216928492634538f92f9280830192602092918290030181600087803b1580156105da57600080fd5b505af11580156105ee573d6000803e3d6000fd5b505050506040513d602081101561060457600080fd5b5051600160a060020a03161480156106b05750600554604080517f2f29a0620000000000000000000000000000000000000000000000000000000081529051600160a060020a0392831692841691632f29a0629160048083019260209291908290030181600087803b15801561067957600080fd5b505af115801561068d573d6000803e3d6000fd5b505050506040513d60208110156106a357600080fd5b5051600160a060020a0316145b91505b5090565b600054600160a060020a031633146106ce57600080fd5b6000805474ff000000000000000000000000000000000000000019169055565b600554600160a060020a031690565b60065481565b60075481565b600254600160a060020a031690565b60005474010000000000000000000000000000000000000000900460ff1690565b600054600160a060020a0316331461075057600080fd5b60008054604051600160a060020a03909116917ff8df31144d9c2f0f6b59d69b8b98abd5459d07f2742c4df920b25aae33c6482091a26000805473ffffffffffffffffffffffffffffffffffffffff19169055565b600554600160a060020a031681565b600054600160a060020a031681565b600154600160a060020a031681565b60095490565b600054600160a060020a031633146107ef57600080fd5b6000805474ff0000000000000000000000000000000000000000191674010000000000000000000000000000000000000000179055565b600354600160a060020a031681565b60005474010000000000000000000000000000000000000000900460ff1681565b600354600160a060020a031690565b600254600160a060020a031681565b600454600160a060020a031681565b60065490565b60008054600160a060020a031633146108a157600080fd5b6108a9610542565b15156108b457600080fd5b50600254604080517f6524395e0000000000000000000000000000000000000000000000000000000081529051600160a060020a03909216918291636524395e9160048083019260209291908290030181600087803b15801561091657600080fd5b505af115801561092a573d6000803e3d6000fd5b505050506040513d602081101561094057600080fd5b5051151561094d57600080fd5b506000805475ff00000000000000000000000000000000000000000019167501000000000000000000000000000000000000000000179055565b60085481565b600054600160a060020a031633146109a457600080fd5b6109ad816109b6565b50565b60095481565b600160a060020a03811615156109cb57600080fd5b60008054604051600160a060020a03808516939216917f8be0079c531659141344cd1fd0a4f28419497f9722a3daafe3b4186f6b6457e091a36000805473ffffffffffffffffffffffffffffffffffffffff1916600160a060020a03929092169190911790555600a165627a7a7230582076fd13435a0311b0eba73e38c417dc403525edc575fa091bf6e8d7438e10c2650029608060405234801561001057600080fd5b5060405161018080610ae78339810160409081528151602080840151838501516060860151608087015160a088015160c089015160e08a01516101008b01516101208c01516101408d0151610160909d01513360008181529b8c90529c8b208054600160ff199091168117909155805474010000000000000000000000000000000000000000600160a060020a0319918216909f1760a060020a60ff0219169e909e1760a860020a60ff02191675010000000000000000000000000000000000000000009b15159b909b029a909a17909955600280548d16600160a060020a039c8d1617905560038054909c169a9097169990991790995560049390935560058054604060020a608060020a03199081166801000000000000000067ffffffffffffffff94851681029190911767ffffffffffffffff1990811695851695909517608060020a60c060020a0319908116700100000000000000000000000000000000978616880217600160c060020a0390811678010000000000000000000000000000000000000000000000009d87168e0217909455600680549096169a85169a909a17909116958316029490941790961697861690910296909617169216909202179091556109019081906101e690396000f30060806040526004361061017f5763ffffffff7c0100000000000000000000000000000000000000000000000000000000600035041663022914a7811461018457806302fb0c5e146101b95780630f15f4c0146101ce57806313420e7b146101e557806313af40351461021657806322f3e2d4146102375780632f2770db1461024c5780632f29a0621461026157806338cc4831146102765780634538f92f1461028b57806354ca14fb146102a0578063591d567d146102b55780636524395e146102e7578063666a3427146102fc57806367b3f40a1461031d57806374ebef68146103325780638da5cb5b146103475780639bc57aec1461035c578063a062749d14610371578063adea3c8f14610398578063b5f8edfd146103ad578063c3d4450b146103c2578063d7c7c7f8146103d7578063da82485e146103ec578063e04fb87014610401578063e5e28dd214610416578063e88914de1461042b578063f04414f21461044c578063f5a55ff614610461578063fcbc6d6914610482575b600080fd5b34801561019057600080fd5b506101a5600160a060020a0360043516610497565b604080519115158252519081900360200190f35b3480156101c557600080fd5b506101a56104ac565b3480156101da57600080fd5b506101e36104cd565b005b3480156101f157600080fd5b506101fa610522565b60408051600160a060020a039092168252519081900360200190f35b34801561022257600080fd5b506101e3600160a060020a0360043516610532565b34801561024357600080fd5b506101a561057f565b34801561025857600080fd5b506101e36105a0565b34801561026d57600080fd5b506101fa6105de565b34801561028257600080fd5b506101fa6105ed565b34801561029757600080fd5b506101fa6105f1565b3480156102ac57600080fd5b506101fa610600565b3480156102c157600080fd5b506102ca61061c565b6040805167ffffffffffffffff9092168252519081900360200190f35b3480156102f357600080fd5b506101a5610638565b34801561030857600080fd5b506101e3600160a060020a036004351661065a565b34801561032957600080fd5b506102ca610684565b34801561033e57600080fd5b506101fa6106b0565b34801561035357600080fd5b506101fa6106bf565b34801561036857600080fd5b506101a56106ce565b34801561037d57600080fd5b506103866106f0565b60408051918252519081900360200190f35b3480156103a457600080fd5b506102ca6106f6565b3480156103b957600080fd5b506102ca61071a565b3480156103ce57600080fd5b506102ca61072a565b3480156103e357600080fd5b506102ca610746565b3480156103f857600080fd5b50610386610772565b34801561040d57600080fd5b506102ca610778565b34801561042257600080fd5b506102ca61079c565b34801561043757600080fd5b506101a5600160a060020a03600435166107ac565b34801561045857600080fd5b506101fa6107ca565b34801561046d57600080fd5b506101e3600160a060020a03600435166107d9565b34801561048e57600080fd5b50610386610800565b60006020819052908152604090205460ff1681565b60015474010000000000000000000000000000000000000000900460ff1681565b3360009081526020819052604090205460ff1615156104eb57600080fd5b6001805474ff0000000000000000000000000000000000000000191674010000000000000000000000000000000000000000179055565b60055467ffffffffffffffff1690565b3360009081526020819052604090205460ff16151561055057600080fd5b6001805473ffffffffffffffffffffffffffffffffffffffff1916600160a060020a0392909216919091179055565b60015474010000000000000000000000000000000000000000900460ff1690565b3360009081526020819052604090205460ff1615156105be57600080fd5b6001805474ff000000000000000000000000000000000000000019169055565b600254600160a060020a031690565b3090565b600354600160a060020a031690565b60055468010000000000000000900467ffffffffffffffff1690565b60055468010000000000000000900467ffffffffffffffff1681565b6001547501000000000000000000000000000000000000000000900460ff1690565b3360009081526020819052604090205460ff16151561067857600080fd5b6106818161082c565b50565b6005547801000000000000000000000000000000000000000000000000900467ffffffffffffffff1681565b600254600160a060020a031681565b600154600160a060020a031681565b6001547501000000000000000000000000000000000000000000900460ff1681565b60045481565b600654700100000000000000000000000000000000900467ffffffffffffffff1681565b60065467ffffffffffffffff1681565b60065468010000000000000000900467ffffffffffffffff1681565b6006547801000000000000000000000000000000000000000000000000900467ffffffffffffffff1681565b60045490565b600554700100000000000000000000000000000000900467ffffffffffffffff1681565b60055467ffffffffffffffff1681565b600160a060020a031660009081526020819052604090205460ff1690565b600354600160a060020a031681565b3360009081526020819052604090205460ff1615156107f757600080fd5b61068181610862565b6005547801000000000000000000000000000000000000000000000000900467ffffffffffffffff1690565b600160a060020a038116151561084157600080fd5b600160a060020a03166000908152602081905260409020805460ff19169055565b600160a060020a038116151561087757600080fd5b600154604051600160a060020a038084169216907f8be0079c531659141344cd1fd0a4f28419497f9722a3daafe3b4186f6b6457e090600090a3600160a060020a03166000908152602081905260409020805460ff191660011790555600a165627a7a72305820afd6e529d586b591caafe9cbc4d5ef969962c41c6702d5f8def5ca36e279ffd20029a165627a7a72305820a43fb470e065cf5877c27fb2ab374b4152d30a057593a565533e5833971bb89d0029",
  "source": "pragma solidity ^0.4.24;\n\n\nimport \"openzeppelin-solidity/contracts/ownership/Ownable.sol\";\nimport 'openzeppelin-solidity/contracts/math/SafeMath.sol';\nimport '../structures/MortgageRequest.sol';\nimport '../structures/MortgageeCondition.sol';\nimport '../Mortgagee.sol';\nimport \"../interfaces/Ownables.sol\";\n\n\ncontract MortgageRequestFactory is Ownables {\n    using SafeMath for uint256;\n    mapping (address => bool) mortgageRequests;\n    mapping (address => address)  mortgagees ;\n    mapping (address => address)  lastMortgageRequestsAddress;\n    mapping (address =>  mapping (address => address))  lastMortgageeConditionsAddress;\n    mapping (address => address)  lastMortgageAddress;\n\n    mapping (address => bool) mortgageeConditions;\n\n    address  lastMortgageConditionTest ;\n    event MortgageRequestCreated(address mortgageRequest);\n\n    event MortgageeConditionCreated(address mortgageeCondition);\n\n    event MortgageeCreated(address mortgageeAddress);\n    event MortgagePaymentCreated(address mortgageAddress);\n\n    event MortgageeAdded(address newMortgagee, uint256 microUSDs, uint256 maxMortgage);\n    event MortgageeAddFunds(address newMortgagee, uint256 microUSDs, uint256 maxMortgage);\n    event MortgageCreated(  address mortgage,\n        address stoneCoin,\n        address mortgagee,\n        address requester,\n        address mortgageRequest,\n        address mortgageeCondition);\n\n\n    constructor() Ownables() public {\n\n    }\n    function mortgageeAddress(address _user) public view returns (address) {\n        return mortgagees[_user];\n    }\n\n\n    function getLastMortgageConditionTest() public view returns (address) {\n        return lastMortgageConditionTest;\n    }\n\n    function lastMortgageCondition(address _user, address _stoneCoin) public view returns (address) {\n        return lastMortgageeConditionsAddress[_user][_stoneCoin];\n    }\n\n    function lastMortgageRequest(address _user) public view returns (address) {\n        return lastMortgageRequestsAddress[_user];\n    }\n\n    function lastMortgage(address _user) public view returns (address) {\n        return lastMortgageAddress[_user];\n    }\n\n\n    function createMortgageeCondition(bool automaticApproval,\n        address _stoneCoinAddress,\n        uint256 _maxLoanMicros,\n        uint64 _interestRateMilliPercent,\n        uint64 _fixedInterestRateMilliPercent,\n        uint64 _downPaymentMilliPercent,\n        uint64 _loanTermMonths,\n        uint64 _adjustFixedRateMonths,\n        uint64 _adjustInitialCap25,\n        uint64 _adjustPeriodicCap25,\n        uint64 _adjustLifetimeCap ) public  returns (address){\n\n        MortgageeCondition newContract = new MortgageeCondition(msg.sender,\n            automaticApproval,\n            _stoneCoinAddress,\n            _maxLoanMicros,\n            _interestRateMilliPercent,\n           _fixedInterestRateMilliPercent,\n            _downPaymentMilliPercent,\n            _loanTermMonths,\n            _adjustFixedRateMonths,\n            _adjustInitialCap25,\n            _adjustPeriodicCap25,\n            _adjustLifetimeCap);\n        newContract.addOwnership(msg.sender);\n        emit MortgageeConditionCreated(address(newContract));\n        lastMortgageConditionTest = address(newContract);\n        return address(newContract);\n    }\n\n    function createMortgageRequest( address user, address _stoneCoin,\n        address _mortgageCondition,\n        uint256 _totalPayment,\n        uint256 _downPayment,\n        uint256 _longTermMonth,\n        uint256 _downPaymentPercentMill,\n        address _mortgagee) public returns (address){\n\n        MortgageRequest newContract = new MortgageRequest(user,\n            _stoneCoin,\n            _mortgageCondition,\n            _totalPayment,\n            _downPayment,\n            _downPaymentPercentMill,\n            _longTermMonth,\n            _mortgagee, false);\n        lastMortgageRequestsAddress[user] = address(newContract);\n        emit MortgageRequestCreated(address(newContract));\n        return address(newContract);\n    }\n\n     function createExternalMortgageRequest( address user, address _stoneCoin,\n        uint256 _totalPayment,\n        uint256 _downPayment,\n        uint256 _longTermMonth,\n        uint256 _downPaymentPercentMill,\n        address _mortgagee) public returns (address){\n\n        MortgageRequest newContract = new MortgageRequest(user,\n            _stoneCoin,\n            0,\n            _totalPayment,\n            _downPayment,\n            _downPaymentPercentMill,\n            _longTermMonth,\n            _mortgagee, true);\n        lastMortgageRequestsAddress[user] = address(newContract);\n        emit MortgageRequestCreated(address(newContract));\n        return address(newContract);\n    }\n\n\n\n    function approveByAdmin( address _mortgageRequestAddress) public onlyOwner returns (bool){\n        MortgageRequest mortgageRequest = MortgageRequest(_mortgageRequestAddress);\n        mortgageRequest.approveByAdmin();\n    }\n\n    function cancelMortgageCondition( address _mortgageCondition) public returns (bool){\n        MortgageeCondition mortgageCondition = MortgageeCondition(_mortgageCondition);\n        require(mortgageCondition.getMortgagee() == msg.sender);\n        mortgageCondition.disable();\n        return mortgageCondition.isActive();\n    }\n\n\n}\n",
  "sourcePath": "/Users/roilandshut/projects/brikoin/brikoin/contracts/factory/MortgageRequestFactory.sol",
  "compiler": {
    "name": "solc",
    "version": "0.4.24+commit.e67f0147.Emscripten.clang"
  },
  "schemaVersion": "2.0.1",
  "updatedAt": "2019-10-27T14:12:11.002Z"
}