{
  "contractName": "Ownables",
  "abi": [
    {
      "constant": true,
      "inputs": [
        {
          "name": "",
          "type": "address"
        }
      ],
      "name": "owners",
      "outputs": [
        {
          "name": "",
          "type": "bool"
        }
      ],
      "payable": false,
      "stateMutability": "view",
      "type": "function"
    },
    {
      "constant": true,
      "inputs": [],
      "name": "owner",
      "outputs": [
        {
          "name": "",
          "type": "address"
        }
      ],
      "payable": false,
      "stateMutability": "view",
      "type": "function"
    },
    {
      "inputs": [],
      "payable": false,
      "stateMutability": "nonpayable",
      "type": "constructor"
    },
    {
      "anonymous": false,
      "inputs": [
        {
          "indexed": true,
          "name": "previousOwner",
          "type": "address"
        }
      ],
      "name": "OwnershipRenounced",
      "type": "event"
    },
    {
      "anonymous": false,
      "inputs": [
        {
          "indexed": true,
          "name": "previousOwner",
          "type": "address"
        },
        {
          "indexed": true,
          "name": "newOwner",
          "type": "address"
        }
      ],
      "name": "OwnershipTransferred",
      "type": "event"
    },
    {
      "constant": true,
      "inputs": [],
      "name": "getAddress",
      "outputs": [
        {
          "name": "",
          "type": "address"
        }
      ],
      "payable": false,
      "stateMutability": "view",
      "type": "function"
    },
    {
      "constant": true,
      "inputs": [
        {
          "name": "user",
          "type": "address"
        }
      ],
      "name": "isOwnable",
      "outputs": [
        {
          "name": "",
          "type": "bool"
        }
      ],
      "payable": false,
      "stateMutability": "view",
      "type": "function"
    },
    {
      "constant": false,
      "inputs": [
        {
          "name": "_newOwner",
          "type": "address"
        }
      ],
      "name": "addOwnership",
      "outputs": [],
      "payable": false,
      "stateMutability": "nonpayable",
      "type": "function"
    },
    {
      "constant": false,
      "inputs": [
        {
          "name": "_newOwner",
          "type": "address"
        }
      ],
      "name": "removeOwnership",
      "outputs": [],
      "payable": false,
      "stateMutability": "nonpayable",
      "type": "function"
    },
    {
      "constant": false,
      "inputs": [
        {
          "name": "_newOwner",
          "type": "address"
        }
      ],
      "name": "setOwner",
      "outputs": [],
      "payable": false,
      "stateMutability": "nonpayable",
      "type": "function"
    }
  ],
  "bytecode": "0x608060405234801561001057600080fd5b50336000818152602081905260409020805460ff191660019081179091558054600160a060020a03191690911790556103f78061004e6000396000f3006080604052600436106100825763ffffffff7c0100000000000000000000000000000000000000000000000000000000600035041663022914a7811461008757806313af4035146100c957806338cc4831146100f9578063666a3427146101375780638da5cb5b14610165578063e88914de1461017a578063f5a55ff6146101a8575b600080fd5b34801561009357600080fd5b506100b573ffffffffffffffffffffffffffffffffffffffff600435166101d6565b604080519115158252519081900360200190f35b3480156100d557600080fd5b506100f773ffffffffffffffffffffffffffffffffffffffff600435166101eb565b005b34801561010557600080fd5b5061010e610245565b6040805173ffffffffffffffffffffffffffffffffffffffff9092168252519081900360200190f35b34801561014357600080fd5b506100f773ffffffffffffffffffffffffffffffffffffffff60043516610249565b34801561017157600080fd5b5061010e610273565b34801561018657600080fd5b506100b573ffffffffffffffffffffffffffffffffffffffff6004351661028f565b3480156101b457600080fd5b506100f773ffffffffffffffffffffffffffffffffffffffff600435166102ba565b60006020819052908152604090205460ff1681565b3360009081526020819052604090205460ff16151561020957600080fd5b6001805473ffffffffffffffffffffffffffffffffffffffff191673ffffffffffffffffffffffffffffffffffffffff92909216919091179055565b3090565b3360009081526020819052604090205460ff16151561026757600080fd5b610270816102e1565b50565b60015473ffffffffffffffffffffffffffffffffffffffff1681565b73ffffffffffffffffffffffffffffffffffffffff1660009081526020819052604090205460ff1690565b3360009081526020819052604090205460ff1615156102d857600080fd5b61027081610331565b73ffffffffffffffffffffffffffffffffffffffff8116151561030357600080fd5b73ffffffffffffffffffffffffffffffffffffffff166000908152602081905260409020805460ff19169055565b73ffffffffffffffffffffffffffffffffffffffff8116151561035357600080fd5b60015460405173ffffffffffffffffffffffffffffffffffffffff8084169216907f8be0079c531659141344cd1fd0a4f28419497f9722a3daafe3b4186f6b6457e090600090a373ffffffffffffffffffffffffffffffffffffffff166000908152602081905260409020805460ff191660011790555600a165627a7a7230582029bbec2a4925f7a5214d05e46ad1436eb9a8137bc07b285cbc40d76b9166b0d20029",
  "source": "pragma solidity ^0.4.24;\n\n\n/**\n * @title Ownable\n * @dev The Ownable contract has an owner address, and provides basic authorization control\n * functions, this simplifies the implementation of \"user permissions\".\n */\ncontract Ownables {\n\tmapping (address => bool) public owners;\n\taddress  public owner;\n\n\n\tevent OwnershipRenounced(address indexed previousOwner);\n\tevent OwnershipTransferred(\n\t\taddress indexed previousOwner,\n\t\taddress indexed newOwner\n\t);\n\n\n\tfunction getAddress() public view returns(address){\n\t\treturn address(this);\n\t}\n\tfunction isOwnable(address user) public view returns(bool){\n\t\treturn owners[user];\n\t}\n\n\t/**\n     * @dev The Ownable constructor sets the original `owner` of the contract to the sender\n     * account.\n     */\n\tconstructor() public {\n\t\towners[msg.sender] = true;\n\t\towner = msg.sender;\n\t}\n\n\t/**\n     * @dev Throws if called by any account other than the owner.\n     */\n\tmodifier onlyOwner() {\n\t\trequire(owners[msg.sender]);\n\t\t_;\n\t}\n\n\t/**\n     * @dev Allows the current owner to transfer control of the contract to a newOwner.\n     * @param _newOwner The address to transfer ownership to.\n     */\n\tfunction addOwnership(address _newOwner) public onlyOwner {\n\t\t_addOwnership(_newOwner);\n\t}\n\n\tfunction removeOwnership(address _newOwner) public onlyOwner {\n\t\t_removeOwnership(_newOwner);\n\t}\n\n\tfunction setOwner(address _newOwner) public onlyOwner {\n\t\towner = _newOwner;\n\t}\n\n\t/**\n     * @dev Transfers control of the contract to a newOwner.\n     * @param _newOwner The address to transfer ownership to.\n     */\n\tfunction _addOwnership(address _newOwner) internal {\n\t\trequire(_newOwner != address(0));\n\t\temit OwnershipTransferred(owner, _newOwner);\n\t\towners[_newOwner] = true;\n\t}\n\n\tfunction _removeOwnership(address _newOwner) internal {\n\t\trequire(_newOwner != address(0));\n\t\towners[_newOwner] = false;\n\t}\n}\n",
  "sourcePath": "/Users/roilandshut/projects/brikoin/brikoin/contracts/interfaces/Ownables.sol",
  "compiler": {
    "name": "solc",
    "version": "0.4.24+commit.e67f0147.Emscripten.clang"
  },
  "schemaVersion": "2.0.1",
  "updatedAt": "2019-10-27T14:12:11.034Z"
}