{
  "contractName": "ProjectGroups",
  "abi": [
    {
      "constant": true,
      "inputs": [
        {
          "name": "",
          "type": "address"
        }
      ],
      "name": "owners",
      "outputs": [
        {
          "name": "",
          "type": "bool"
        }
      ],
      "payable": false,
      "stateMutability": "view",
      "type": "function"
    },
    {
      "constant": false,
      "inputs": [
        {
          "name": "_newOwner",
          "type": "address"
        }
      ],
      "name": "setOwner",
      "outputs": [],
      "payable": false,
      "stateMutability": "nonpayable",
      "type": "function"
    },
    {
      "constant": true,
      "inputs": [],
      "name": "getAddress",
      "outputs": [
        {
          "name": "",
          "type": "address"
        }
      ],
      "payable": false,
      "stateMutability": "view",
      "type": "function"
    },
    {
      "constant": false,
      "inputs": [
        {
          "name": "_newOwner",
          "type": "address"
        }
      ],
      "name": "removeOwnership",
      "outputs": [],
      "payable": false,
      "stateMutability": "nonpayable",
      "type": "function"
    },
    {
      "constant": true,
      "inputs": [],
      "name": "owner",
      "outputs": [
        {
          "name": "",
          "type": "address"
        }
      ],
      "payable": false,
      "stateMutability": "view",
      "type": "function"
    },
    {
      "constant": true,
      "inputs": [
        {
          "name": "user",
          "type": "address"
        }
      ],
      "name": "isOwnable",
      "outputs": [
        {
          "name": "",
          "type": "bool"
        }
      ],
      "payable": false,
      "stateMutability": "view",
      "type": "function"
    },
    {
      "constant": false,
      "inputs": [
        {
          "name": "_newOwner",
          "type": "address"
        }
      ],
      "name": "addOwnership",
      "outputs": [],
      "payable": false,
      "stateMutability": "nonpayable",
      "type": "function"
    },
    {
      "inputs": [
        {
          "name": "_stoneCoinAddress",
          "type": "address"
        },
        {
          "name": "_creator",
          "type": "address"
        },
        {
          "name": "_isOpen",
          "type": "bool"
        }
      ],
      "payable": false,
      "stateMutability": "nonpayable",
      "type": "constructor"
    },
    {
      "anonymous": false,
      "inputs": [
        {
          "indexed": true,
          "name": "previousOwner",
          "type": "address"
        }
      ],
      "name": "OwnershipRenounced",
      "type": "event"
    },
    {
      "anonymous": false,
      "inputs": [
        {
          "indexed": true,
          "name": "previousOwner",
          "type": "address"
        },
        {
          "indexed": true,
          "name": "newOwner",
          "type": "address"
        }
      ],
      "name": "OwnershipTransferred",
      "type": "event"
    },
    {
      "constant": false,
      "inputs": [],
      "name": "init",
      "outputs": [],
      "payable": false,
      "stateMutability": "nonpayable",
      "type": "function"
    },
    {
      "constant": false,
      "inputs": [
        {
          "name": "_projectGroupsStorageAddress",
          "type": "address"
        }
      ],
      "name": "setProjectGroupsStorage",
      "outputs": [],
      "payable": false,
      "stateMutability": "nonpayable",
      "type": "function"
    },
    {
      "constant": false,
      "inputs": [
        {
          "name": "_projectGroupsVotingStorageAddress",
          "type": "address"
        }
      ],
      "name": "setProjectGroupsVotingStorage",
      "outputs": [],
      "payable": false,
      "stateMutability": "nonpayable",
      "type": "function"
    },
    {
      "constant": false,
      "inputs": [],
      "name": "joinGroup",
      "outputs": [],
      "payable": false,
      "stateMutability": "nonpayable",
      "type": "function"
    },
    {
      "constant": true,
      "inputs": [],
      "name": "getMembers",
      "outputs": [
        {
          "name": "",
          "type": "address[]"
        }
      ],
      "payable": false,
      "stateMutability": "view",
      "type": "function"
    },
    {
      "constant": false,
      "inputs": [],
      "name": "leaveGroup",
      "outputs": [],
      "payable": false,
      "stateMutability": "nonpayable",
      "type": "function"
    },
    {
      "constant": false,
      "inputs": [
        {
          "name": "member",
          "type": "address"
        }
      ],
      "name": "inviteMember",
      "outputs": [],
      "payable": false,
      "stateMutability": "nonpayable",
      "type": "function"
    },
    {
      "constant": false,
      "inputs": [
        {
          "name": "amount",
          "type": "uint256"
        }
      ],
      "name": "setOffer",
      "outputs": [],
      "payable": false,
      "stateMutability": "nonpayable",
      "type": "function"
    },
    {
      "constant": true,
      "inputs": [],
      "name": "getOffer",
      "outputs": [
        {
          "name": "",
          "type": "uint256"
        }
      ],
      "payable": false,
      "stateMutability": "view",
      "type": "function"
    },
    {
      "constant": false,
      "inputs": [
        {
          "name": "documentMd5",
          "type": "string"
        },
        {
          "name": "status",
          "type": "bool"
        }
      ],
      "name": "vote",
      "outputs": [],
      "payable": false,
      "stateMutability": "nonpayable",
      "type": "function"
    },
    {
      "constant": true,
      "inputs": [],
      "name": "isVotingMember",
      "outputs": [
        {
          "name": "",
          "type": "bool"
        }
      ],
      "payable": false,
      "stateMutability": "view",
      "type": "function"
    },
    {
      "constant": true,
      "inputs": [
        {
          "name": "documentMd5",
          "type": "string"
        }
      ],
      "name": "getVotingResult",
      "outputs": [
        {
          "name": "",
          "type": "uint256"
        }
      ],
      "payable": false,
      "stateMutability": "view",
      "type": "function"
    },
    {
      "constant": true,
      "inputs": [
        {
          "name": "documentMd5",
          "type": "string"
        }
      ],
      "name": "getNumberOfVoters",
      "outputs": [
        {
          "name": "",
          "type": "uint256"
        }
      ],
      "payable": false,
      "stateMutability": "view",
      "type": "function"
    },
    {
      "constant": true,
      "inputs": [
        {
          "name": "documentMd5",
          "type": "string"
        }
      ],
      "name": "getVotingPositiveResult",
      "outputs": [
        {
          "name": "",
          "type": "uint256"
        }
      ],
      "payable": false,
      "stateMutability": "view",
      "type": "function"
    },
    {
      "constant": true,
      "inputs": [],
      "name": "getCreator",
      "outputs": [
        {
          "name": "",
          "type": "address"
        }
      ],
      "payable": false,
      "stateMutability": "view",
      "type": "function"
    },
    {
      "constant": true,
      "inputs": [],
      "name": "getProjectAddress",
      "outputs": [
        {
          "name": "",
          "type": "address"
        }
      ],
      "payable": false,
      "stateMutability": "view",
      "type": "function"
    },
    {
      "constant": true,
      "inputs": [],
      "name": "isGroupOpen",
      "outputs": [
        {
          "name": "",
          "type": "bool"
        }
      ],
      "payable": false,
      "stateMutability": "view",
      "type": "function"
    },
    {
      "constant": false,
      "inputs": [
        {
          "name": "member",
          "type": "address"
        }
      ],
      "name": "addGroupRepresentation",
      "outputs": [],
      "payable": false,
      "stateMutability": "nonpayable",
      "type": "function"
    },
    {
      "constant": false,
      "inputs": [
        {
          "name": "user",
          "type": "address"
        },
        {
          "name": "amount",
          "type": "uint256"
        },
        {
          "name": "add",
          "type": "bool"
        }
      ],
      "name": "paymentStatus",
      "outputs": [],
      "payable": false,
      "stateMutability": "nonpayable",
      "type": "function"
    },
    {
      "constant": false,
      "inputs": [
        {
          "name": "documentMd5",
          "type": "string"
        },
        {
          "name": "votingType",
          "type": "string"
        }
      ],
      "name": "setVotingType",
      "outputs": [],
      "payable": false,
      "stateMutability": "nonpayable",
      "type": "function"
    },
    {
      "constant": true,
      "inputs": [
        {
          "name": "documentMd5",
          "type": "string"
        }
      ],
      "name": "getVotingType",
      "outputs": [
        {
          "name": "",
          "type": "string"
        }
      ],
      "payable": false,
      "stateMutability": "view",
      "type": "function"
    },
    {
      "constant": true,
      "inputs": [],
      "name": "getGroupRepresentation",
      "outputs": [
        {
          "name": "",
          "type": "address[]"
        }
      ],
      "payable": false,
      "stateMutability": "view",
      "type": "function"
    },
    {
      "constant": true,
      "inputs": [
        {
          "name": "member",
          "type": "address"
        }
      ],
      "name": "isGroupRepresentative",
      "outputs": [
        {
          "name": "",
          "type": "bool"
        }
      ],
      "payable": false,
      "stateMutability": "view",
      "type": "function"
    }
  ],
  "bytecode": "0x608060405234801561001057600080fd5b50604051606080611d208339810160409081528151602080840151938301513360008181529283905293909120805460ff19166001908117909155805460038054600160a060020a03958616600160a060020a031991821617909155600280549590971694811694909417909555901515740100000000000000000000000000000000000000000260a060020a60ff02199290941690921716919091179055611c62806100be6000396000f30060806040526004361061017f5763ffffffff7c0100000000000000000000000000000000000000000000000000000000600035041663022914a7811461018457806305366506146101b95780630ee2cb10146101e45780630f3825d41461021557806313af40351461023657806313d92e671461025757806327d3410c146102785780632cdf4b7e146102d55780632f890b93146102ed57806338cc48311461030e5780634251a4411461032357806344b745d714610338578063641eb0de146103cf578063666a3427146103f05780638da5cb5b146104115780639a725239146104265780639ac79e0a146104475780639b904f0a1461045c5780639eab5253146104c7578063a1077fb41461052c578063c5362e2314610541578063cb1fb4901461059a578063cdc2895c146105af578063d47f4d2a146105c4578063d61bb179146105d9578063db7cde8b146105ee578063e1c7392a14610647578063e6e836b41461065c578063e88914de1461072a578063f5a55ff61461074b575b600080fd5b34801561019057600080fd5b506101a5600160a060020a036004351661076c565b604080519115158252519081900360200190f35b3480156101c557600080fd5b506101e2600160a060020a03600435166024356044351515610781565b005b3480156101f057600080fd5b506101f9610a70565b60408051600160a060020a039092168252519081900360200190f35b34801561022157600080fd5b506101a5600160a060020a0360043516610a7f565b34801561024257600080fd5b506101e2600160a060020a0360043516610b1c565b34801561026357600080fd5b506101e2600160a060020a0360043516610b69565b34801561028457600080fd5b506040805160206004803580820135601f81018490048402850184019095528484526101e2943694929360249392840191908190840183828082843750949750505050913515159250610bb6915050565b3480156102e157600080fd5b506101e2600435610d4c565b3480156102f957600080fd5b506101e2600160a060020a0360043516610e72565b34801561031a57600080fd5b506101f9610ef4565b34801561032f57600080fd5b506101a5610ef8565b34801561034457600080fd5b506040805160206004803580820135601f81018490048402850184019095528484526101e294369492936024939284019190819084018382808284375050604080516020601f89358b018035918201839004830284018301909452808352979a999881019791965091820194509250829150840183828082843750949750610f199650505050505050565b3480156103db57600080fd5b506101e2600160a060020a0360043516611016565b3480156103fc57600080fd5b506101e2600160a060020a0360043516611063565b34801561041d57600080fd5b506101f961108d565b34801561043257600080fd5b506101e2600160a060020a036004351661109c565b34801561045357600080fd5b506101e2611117565b34801561046857600080fd5b506040805160206004803580820135601f81018490048402850184019095528484526104b59436949293602493928401919081908401838280828437509497506112549650505050505050565b60408051918252519081900360200190f35b3480156104d357600080fd5b506104dc611317565b60408051602080825283518183015283519192839290830191858101910280838360005b83811015610518578181015183820152602001610500565b505050509050019250505060405180910390f35b34801561053857600080fd5b506104dc611415565b34801561054d57600080fd5b506040805160206004803580820135601f81018490048402850184019095528484526104b59436949293602493928401919081908401838280828437509497506114749650505050505050565b3480156105a657600080fd5b506101e26114ea565b3480156105bb57600080fd5b506104b5611550565b3480156105d057600080fd5b506101f9611688565b3480156105e557600080fd5b506101a5611697565b3480156105fa57600080fd5b506040805160206004803580820135601f81018490048402850184019095528484526104b59436949293602493928401919081908401838280828437509497506116fc9650505050505050565b34801561065357600080fd5b506101e2611772565b34801561066857600080fd5b506040805160206004803580820135601f81018490048402850184019095528484526106b59436949293602493928401919081908401838280828437509497506118839650505050505050565b6040805160208082528351818301528351919283929083019185019080838360005b838110156106ef5781810151838201526020016106d7565b50505050905090810190601f16801561071c5780820380516001836020036101000a031916815260200191505b509250505060405180910390f35b34801561073657600080fd5b506101a5600160a060020a03600435166119d5565b34801561075757600080fd5b506101e2600160a060020a03600435166119f3565b60006020819052908152604090205460ff1681565b600061078c33611a1a565b151561079757600080fd5b811561082c5760048054604080517f8b69e734000000000000000000000000000000000000000000000000000000008152600160a060020a03888116948201949094526024810187905290519290911691638b69e7349160448082019260009290919082900301818387803b15801561080f57600080fd5b505af1158015610823573d6000803e3d6000fd5b505050506108b7565b60048054604080517fefd5d19c000000000000000000000000000000000000000000000000000000008152600160a060020a0388811694820194909452602481018790529051929091169163efd5d19c9160448082019260009290919082900301818387803b15801561089e57600080fd5b505af11580156108b2573d6000803e3d6000fd5b505050505b60048054604080517ff48a237f000000000000000000000000000000000000000000000000000000008152600160a060020a03888116948201949094529051929091169163f48a237f916024808201926020929091908290030181600087803b15801561092357600080fd5b505af1158015610937573d6000803e3d6000fd5b505050506040513d602081101561094d57600080fd5b5051905060008111156109e357600554604080517f57987aed000000000000000000000000000000000000000000000000000000008152600160a060020a03878116600483015260006024830181905292519316926357987aed9260448084019391929182900301818387803b1580156109c657600080fd5b505af11580156109da573d6000803e3d6000fd5b50505050610a6a565b600554604080517f57987aed000000000000000000000000000000000000000000000000000000008152600160a060020a03878116600483015260016024830152915191909216916357987aed91604480830192600092919082900301818387803b158015610a5157600080fd5b505af1158015610a65573d6000803e3d6000fd5b505050505b50505050565b600254600160a060020a031690565b600554604080517f0f3825d4000000000000000000000000000000000000000000000000000000008152600160a060020a03848116600483015291516000939290921691630f3825d49160248082019260209290919082900301818787803b158015610aea57600080fd5b505af1158015610afe573d6000803e3d6000fd5b505050506040513d6020811015610b1457600080fd5b505192915050565b3360009081526020819052604090205460ff161515610b3a57600080fd5b6001805473ffffffffffffffffffffffffffffffffffffffff1916600160a060020a0392909216919091179055565b3360009081526020819052604090205460ff161515610b8757600080fd5b6005805473ffffffffffffffffffffffffffffffffffffffff1916600160a060020a0392909216919091179055565b600554604080517f9b2b622d0000000000000000000000000000000000000000000000000000000081523360048201529051600160a060020a0390921691639b2b622d916024808201926020929091908290030181600087803b158015610c1c57600080fd5b505af1158015610c30573d6000803e3d6000fd5b505050506040513d6020811015610c4657600080fd5b50511515610c5357600080fd5b6005546040517f8ed8c88900000000000000000000000000000000000000000000000000000000815233602482018190528315156044830152606060048301908152855160648401528551600160a060020a0390941693638ed8c88993879392879290918291608490910190602087019080838360005b83811015610ce2578181015183820152602001610cca565b50505050905090810190601f168015610d0f5780820380516001836020036101000a031916815260200191505b50945050505050600060405180830381600087803b158015610d3057600080fd5b505af1158015610d44573d6000803e3d6000fd5b505050505050565b60048054604080517fa230c524000000000000000000000000000000000000000000000000000000008152339381019390935251600160a060020a039091169163a230c5249160248083019260209291908290030181600087803b158015610db357600080fd5b505af1158015610dc7573d6000803e3d6000fd5b505050506040513d6020811015610ddd57600080fd5b50511515610dea57600080fd5b60048054604080517fe866ce3800000000000000000000000000000000000000000000000000000000815233938101939093526024830184905251600160a060020a039091169163e866ce3891604480830192600092919082900301818387803b158015610e5757600080fd5b505af1158015610e6b573d6000803e3d6000fd5b5050505050565b600254600160a060020a03163314610e8957600080fd5b60048054604080517f2f890b93000000000000000000000000000000000000000000000000000000008152600160a060020a038581169482019490945290519290911691632f890b939160248082019260009290919082900301818387803b158015610e5757600080fd5b3090565b60015474010000000000000000000000000000000000000000900460ff1690565b3360009081526020819052604090205460ff161515610f3757600080fd5b600554604080517f44b745d700000000000000000000000000000000000000000000000000000000815260048101918252845160448201528451600160a060020a03909316926344b745d7928692869282916024810191606490910190602087019080838360005b83811015610fb7578181015183820152602001610f9f565b50505050905090810190601f168015610fe45780820380516001836020036101000a031916815260200191505b508381038252845181528451602091820191860190808383600083811015610ce2578181015183820152602001610cca565b3360009081526020819052604090205460ff16151561103457600080fd5b6004805473ffffffffffffffffffffffffffffffffffffffff1916600160a060020a0392909216919091179055565b3360009081526020819052604090205460ff16151561108157600080fd5b61108a81611b8d565b50565b600154600160a060020a031681565b6110a533611a1a565b15156110b057600080fd5b600554604080517f9a725239000000000000000000000000000000000000000000000000000000008152600160a060020a03848116600483015291519190921691639a72523991602480830192600092919082900301818387803b158015610e5757600080fd5b60048054604080517f1dcbe500000000000000000000000000000000000000000000000000000000008152339381019390935251600160a060020a0390911691631dcbe5009160248083019260209291908290030181600087803b15801561117e57600080fd5b505af1158015611192573d6000803e3d6000fd5b505050506040513d60208110156111a857600080fd5b5051806111cf575060015474010000000000000000000000000000000000000000900460ff165b15156111da57600080fd5b60048054604080517fca6d56dc000000000000000000000000000000000000000000000000000000008152339381019390935251600160a060020a039091169163ca6d56dc91602480830192600092919082900301818387803b15801561124057600080fd5b505af1158015610a6a573d6000803e3d6000fd5b6005546040517f9b904f0a000000000000000000000000000000000000000000000000000000008152602060048201818152845160248401528451600094600160a060020a031693639b904f0a938793928392604401918501908083838b5b838110156112cb5781810151838201526020016112b3565b50505050905090810190601f1680156112f85780820380516001836020036101000a031916815260200191505b5092505050602060405180830381600087803b158015610aea57600080fd5b6060600460009054906101000a9004600160a060020a0316600160a060020a0316639eab52536040518163ffffffff167c0100000000000000000000000000000000000000000000000000000000028152600401600060405180830381600087803b15801561138557600080fd5b505af1158015611399573d6000803e3d6000fd5b505050506040513d6000823e601f3d908101601f1916820160405260208110156113c257600080fd5b8101908080516401000000008111156113da57600080fd5b820160208101848111156113ed57600080fd5b815185602082028301116401000000008211171561140a57600080fd5b509094505050505090565b600554604080517fa1077fb40000000000000000000000000000000000000000000000000000000081529051606092600160a060020a03169163a1077fb491600480830192600092919082900301818387803b15801561138557600080fd5b6005546040517fc5362e23000000000000000000000000000000000000000000000000000000008152602060048201818152845160248401528451600094600160a060020a03169363c5362e23938793928392604401918501908083838b838110156112cb5781810151838201526020016112b3565b60048054604080517f0b1ca49a000000000000000000000000000000000000000000000000000000008152339381019390935251600160a060020a0390911691630b1ca49a91602480830192600092919082900301818387803b15801561124057600080fd5b60048054604080517fa230c524000000000000000000000000000000000000000000000000000000008152339381019390935251600092600160a060020a039092169163a230c52491602480830192602092919082900301818787803b1580156115b957600080fd5b505af11580156115cd573d6000803e3d6000fd5b505050506040513d60208110156115e357600080fd5b505115156115f057600080fd5b60048054604080517f395f4f00000000000000000000000000000000000000000000000000000000008152339381019390935251600160a060020a039091169163395f4f009160248083019260209291908290030181600087803b15801561165757600080fd5b505af115801561166b573d6000803e3d6000fd5b505050506040513d602081101561168157600080fd5b5051905090565b600354600160a060020a031690565b600554604080517f9b2b622d0000000000000000000000000000000000000000000000000000000081523360048201529051600092600160a060020a031691639b2b622d91602480830192602092919082900301818787803b15801561165757600080fd5b6005546040517fdb7cde8b000000000000000000000000000000000000000000000000000000008152602060048201818152845160248401528451600094600160a060020a03169363db7cde8b938793928392604401918501908083838b838110156112cb5781810151838201526020016112b3565b3360009081526020819052604090205460ff16151561179057600080fd5b60048054600254604080517fca6d56dc000000000000000000000000000000000000000000000000000000008152600160a060020a03928316948101949094525191169163ca6d56dc91602480830192600092919082900301818387803b1580156117fa57600080fd5b505af115801561180e573d6000803e3d6000fd5b5050600554600254604080517f57987aed000000000000000000000000000000000000000000000000000000008152600160a060020a0392831660048201526001602482015290519190921693506357987aed9250604480830192600092919082900301818387803b15801561124057600080fd5b6005546040517fe6e836b4000000000000000000000000000000000000000000000000000000008152602060048201818152845160248401528451606094600160a060020a03169363e6e836b49387939283926044019185019080838360005b838110156118fb5781810151838201526020016118e3565b50505050905090810190601f1680156119285780820380516001836020036101000a031916815260200191505b5092505050600060405180830381600087803b15801561194757600080fd5b505af115801561195b573d6000803e3d6000fd5b505050506040513d6000823e601f3d908101601f19168201604052602081101561198457600080fd5b81019080805164010000000081111561199c57600080fd5b820160208101848111156119af57600080fd5b81516401000000008111828201871017156119c957600080fd5b50909695505050505050565b600160a060020a031660009081526020819052604090205460ff1690565b3360009081526020819052604090205460ff161515611a1157600080fd5b61108a81611bc3565b6000806000600360009054906101000a9004600160a060020a0316600160a060020a03166394217ad16040518163ffffffff167c0100000000000000000000000000000000000000000000000000000000028152600401602060405180830381600087803b158015611a8b57600080fd5b505af1158015611a9f573d6000803e3d6000fd5b505050506040513d6020811015611ab557600080fd5b5051604080517f5ee732a9000000000000000000000000000000000000000000000000000000008152602060048201819052600760248301527f545255535445450000000000000000000000000000000000000000000000000060448301529151929450600160a060020a03851692635ee732a9926064808401939192918290030181600087803b158015611b4957600080fd5b505af1158015611b5d573d6000803e3d6000fd5b505050506040513d6020811015611b7357600080fd5b5051600160a060020a039485169416939093149392505050565b600160a060020a0381161515611ba257600080fd5b600160a060020a03166000908152602081905260409020805460ff19169055565b600160a060020a0381161515611bd857600080fd5b600154604051600160a060020a038084169216907f8be0079c531659141344cd1fd0a4f28419497f9722a3daafe3b4186f6b6457e090600090a3600160a060020a03166000908152602081905260409020805460ff191660011790555600a165627a7a72305820480ca5de83fd0bb7b74de3906e8e3e65eafdec73ee33c79782377ba60f5f6d620029",
  "source": "pragma solidity ^0.4.24;\n\nimport \"openzeppelin-solidity/contracts/ownership/Ownable.sol\";\nimport 'openzeppelin-solidity/contracts/math/SafeMath.sol';\nimport './StoneCoin.sol';\nimport './AssetManager.sol';\nimport \"./interfaces/ProjectGroupsStorageInt.sol\";\nimport \"./interfaces/ProjectGroupsVotingStorageInt.sol\";\nimport \"./interfaces/Ownables.sol\";\n\ncontract ProjectGroups is Ownables {\n    using SafeMath for uint256;\n    bool isOpen;\n    address creator;\n    address stoneCoinAddress;\n    address projectGroupsStorageAddress;\n    address projectGroupsVotingStorageAddress;\n\n\n    constructor(\n        address _stoneCoinAddress,\n        address _creator,\n        bool _isOpen\n\n    ) Ownables() public {\n        stoneCoinAddress = _stoneCoinAddress;\n        creator = _creator;\n        isOpen = _isOpen;\n\n    }\n\n    function init() public onlyOwner {\n        ProjectGroupsStorageInt(projectGroupsStorageAddress).addMember(creator);\n        ProjectGroupsVotingStorageInt(projectGroupsVotingStorageAddress).setVotingMember(creator, true);\n\n    }\n\n    function setProjectGroupsStorage(address _projectGroupsStorageAddress) public onlyOwner {\n        projectGroupsStorageAddress = _projectGroupsStorageAddress;\n    }\n\n    function setProjectGroupsVotingStorage(address _projectGroupsVotingStorageAddress) public onlyOwner {\n        projectGroupsVotingStorageAddress = _projectGroupsVotingStorageAddress;\n    }\n\n    function joinGroup() public {\n        require(ProjectGroupsStorageInt(projectGroupsStorageAddress).isInvited(msg.sender) || isOpen);\n        ProjectGroupsStorageInt(projectGroupsStorageAddress).addMember(msg.sender);\n    }\n\n    function getMembers() public view returns (address[]) {\n        return ProjectGroupsStorageInt(projectGroupsStorageAddress).getMembers();\n    }\n\n    function leaveGroup() public {\n        ProjectGroupsStorageInt(projectGroupsStorageAddress).removeMember(msg.sender);\n    }\n\n    function inviteMember(address member) public {\n        require(msg.sender == creator);\n        ProjectGroupsStorageInt(projectGroupsStorageAddress).inviteMember(member);\n    }\n\n    function setOffer(uint256 amount) public {\n        require(ProjectGroupsStorageInt(projectGroupsStorageAddress).isMember(msg.sender));\n        ProjectGroupsStorageInt(projectGroupsStorageAddress).addMemberOffer(msg.sender, amount);\n    }\n\n    function getOffer() public view returns (uint256) {\n        require(ProjectGroupsStorageInt(projectGroupsStorageAddress).isMember(msg.sender));\n        return ProjectGroupsStorageInt(projectGroupsStorageAddress).getMemberOffer(msg.sender);\n    }\n\n\n    function vote(string documentMd5, bool status) public {\n        require(ProjectGroupsVotingStorageInt(projectGroupsVotingStorageAddress).isVotingMember(msg.sender));\n        ProjectGroupsVotingStorageInt(projectGroupsVotingStorageAddress).vote(documentMd5, msg.sender, status);\n    }\n\n    function isVotingMember() public view returns (bool){\n        return ProjectGroupsVotingStorageInt(projectGroupsVotingStorageAddress).isVotingMember(msg.sender);\n    }\n\n    function getVotingResult(string documentMd5) public view returns (uint256){\n        return ProjectGroupsVotingStorageInt(projectGroupsVotingStorageAddress).getVotingResult(documentMd5);\n    }\n\n    function getNumberOfVoters(string documentMd5) public view returns (uint256){\n        return ProjectGroupsVotingStorageInt(projectGroupsVotingStorageAddress).getNumberOfVoters(documentMd5);\n    }\n\n    function getVotingPositiveResult(string documentMd5) public view returns (uint256){\n        return ProjectGroupsVotingStorageInt(projectGroupsVotingStorageAddress).getVotingPositiveResult(documentMd5);\n    }\n\n    function getCreator() public view returns (address) {\n        return creator;\n    }\n\n    function getProjectAddress() public view returns (address) {\n        return stoneCoinAddress;\n    }\n\n    function isGroupOpen() public view returns (bool) {\n        return isOpen;\n    }\n\n    function addGroupRepresentation(address member) public {\n        require(isTrustee(msg.sender));\n        ProjectGroupsVotingStorageInt(projectGroupsVotingStorageAddress).addGroupRepresentation(member);\n    }\n\n    function paymentStatus(address user, uint256 amount, bool add) public {\n        require(isTrustee(msg.sender));\n        if (add) {\n            ProjectGroupsStorageInt(projectGroupsStorageAddress).addMemberDebt(user, amount);\n        } else {\n            ProjectGroupsStorageInt(projectGroupsStorageAddress).subMemberDebt(user, amount);\n        }\n\n        uint256 debt = ProjectGroupsStorageInt(projectGroupsStorageAddress).getMemberDebt(user);\n        if (debt > 0) {\n            ProjectGroupsVotingStorageInt(projectGroupsVotingStorageAddress).setVotingMember(user, false);\n        } else {\n            ProjectGroupsVotingStorageInt(projectGroupsVotingStorageAddress).setVotingMember(user, true);\n        }\n    }\n\n    function isTrustee(address user) private view returns (bool){\n        address assetManager = StoneCoin(stoneCoinAddress).assetManager();\n        address trustee = AssetManager(assetManager).getOfficial('TRUSTEE');\n        return trustee == user;\n    }\n\n    function setVotingType(string documentMd5, string votingType) public onlyOwner {\n        ProjectGroupsVotingStorageInt(projectGroupsVotingStorageAddress).setVotingType(documentMd5, votingType);\n    }\n\n    function getVotingType(string documentMd5) public view returns (string){\n        return ProjectGroupsVotingStorageInt(projectGroupsVotingStorageAddress).getVotingType(documentMd5);\n    }\n\n    function getGroupRepresentation() public view returns (address[]) {\n        return ProjectGroupsVotingStorageInt(projectGroupsVotingStorageAddress).getGroupRepresentation();\n    }\n\n    function isGroupRepresentative(address member) public view returns (bool) {\n        return ProjectGroupsVotingStorageInt(projectGroupsVotingStorageAddress).isGroupRepresentative(member);\n    }\n\n\n}",
  "sourcePath": "/Users/roilandshut/projects/brikoin/brikoin/contracts/ProjectGroups.sol",
  "compiler": {
    "name": "solc",
    "version": "0.4.24+commit.e67f0147.Emscripten.clang"
  },
  "schemaVersion": "2.0.1",
  "updatedAt": "2019-10-27T14:12:10.918Z"
}