{
  "contractName": "StoneCoinFactory",
  "abi": [
    {
      "constant": false,
      "inputs": [],
      "name": "renounceOwnership",
      "outputs": [],
      "payable": false,
      "stateMutability": "nonpayable",
      "type": "function"
    },
    {
      "constant": true,
      "inputs": [],
      "name": "owner",
      "outputs": [
        {
          "name": "",
          "type": "address"
        }
      ],
      "payable": false,
      "stateMutability": "view",
      "type": "function"
    },
    {
      "constant": true,
      "inputs": [
        {
          "name": "",
          "type": "address"
        }
      ],
      "name": "stoneCoinContractsRoles",
      "outputs": [
        {
          "name": "",
          "type": "bool"
        }
      ],
      "payable": false,
      "stateMutability": "view",
      "type": "function"
    },
    {
      "constant": true,
      "inputs": [
        {
          "name": "",
          "type": "address"
        }
      ],
      "name": "stoneCoinContracts",
      "outputs": [
        {
          "name": "",
          "type": "bytes32"
        }
      ],
      "payable": false,
      "stateMutability": "view",
      "type": "function"
    },
    {
      "constant": true,
      "inputs": [],
      "name": "_stoneCoin",
      "outputs": [
        {
          "name": "",
          "type": "address"
        }
      ],
      "payable": false,
      "stateMutability": "view",
      "type": "function"
    },
    {
      "constant": false,
      "inputs": [
        {
          "name": "_newOwner",
          "type": "address"
        }
      ],
      "name": "transferOwnership",
      "outputs": [],
      "payable": false,
      "stateMutability": "nonpayable",
      "type": "function"
    },
    {
      "anonymous": false,
      "inputs": [
        {
          "indexed": false,
          "name": "stoneCoin",
          "type": "address"
        }
      ],
      "name": "StoneCoinRoleCreated",
      "type": "event"
    },
    {
      "anonymous": false,
      "inputs": [
        {
          "indexed": false,
          "name": "stoneCoin",
          "type": "address"
        }
      ],
      "name": "StoneCoinCreated",
      "type": "event"
    },
    {
      "anonymous": false,
      "inputs": [
        {
          "indexed": true,
          "name": "previousOwner",
          "type": "address"
        }
      ],
      "name": "OwnershipRenounced",
      "type": "event"
    },
    {
      "anonymous": false,
      "inputs": [
        {
          "indexed": true,
          "name": "previousOwner",
          "type": "address"
        },
        {
          "indexed": true,
          "name": "newOwner",
          "type": "address"
        }
      ],
      "name": "OwnershipTransferred",
      "type": "event"
    },
    {
      "constant": false,
      "inputs": [
        {
          "name": "_stoneCoinAddress",
          "type": "address"
        }
      ],
      "name": "addStoneCoinRole",
      "outputs": [],
      "payable": false,
      "stateMutability": "nonpayable",
      "type": "function"
    }
  ],
  "bytecode": "0x608060405260008054600160a060020a031916331790556103a8806100256000396000f3006080604052600436106100825763ffffffff7c0100000000000000000000000000000000000000000000000000000000600035041663715018a681146100875780638da5cb5b1461009e5780638e99e175146100cf5780639ac2de1514610104578063ad5392ee14610125578063bf9c1ff414610158578063f2fde38b1461016d575b600080fd5b34801561009357600080fd5b5061009c61018e565b005b3480156100aa57600080fd5b506100b36101fa565b60408051600160a060020a039092168252519081900360200190f35b3480156100db57600080fd5b506100f0600160a060020a0360043516610209565b604080519115158252519081900360200190f35b34801561011057600080fd5b5061009c600160a060020a036004351661021e565b34801561013157600080fd5b50610146600160a060020a03600435166102bb565b60408051918252519081900360200190f35b34801561016457600080fd5b506100b36102cd565b34801561017957600080fd5b5061009c600160a060020a03600435166102dc565b600054600160a060020a031633146101a557600080fd5b60008054604051600160a060020a03909116917ff8df31144d9c2f0f6b59d69b8b98abd5459d07f2742c4df920b25aae33c6482091a26000805473ffffffffffffffffffffffffffffffffffffffff19169055565b600054600160a060020a031681565b60026020526000908152604090205460ff1681565b600054600160a060020a0316331461023557600080fd5b600160a060020a03811660009081526002602052604090205460ff1615156001141561026057600080fd5b600160a060020a038116600081815260026020908152604091829020805460ff19166001179055815192835290517fc986c2c94a54819926a3189283b7ea75ff69bd7fa71e224cf2b8da99da7e63969281900390910190a150565b60016020526000908152604090205481565b600354600160a060020a031681565b600054600160a060020a031633146102f357600080fd5b6102fc816102ff565b50565b600160a060020a038116151561031457600080fd5b60008054604051600160a060020a03808516939216917f8be0079c531659141344cd1fd0a4f28419497f9722a3daafe3b4186f6b6457e091a36000805473ffffffffffffffffffffffffffffffffffffffff1916600160a060020a03929092169190911790555600a165627a7a72305820a07010ea1599e4522cd8e3b830bf7a106ee256e17c92855ccee56c28064b43ce0029",
  "source": "pragma solidity ^0.4.24;\n\nimport \"openzeppelin-solidity/contracts/ownership/Ownable.sol\";\nimport \"../StoneCoin.sol\";\n\ncontract StoneCoinFactory is Ownable {\n    mapping(address => bytes32) public stoneCoinContracts;\n    mapping(address => bool) public stoneCoinContractsRoles;\n    event StoneCoinRoleCreated(address stoneCoin);\n    event StoneCoinCreated(address stoneCoin);\n    address public _stoneCoin;\n    bytes32 version;\n\n    modifier onlyStoneCoinRole() {\n        require(stoneCoinContractsRoles[msg.sender] == true ||  owner == msg.sender);\n        _;\n    }\n\n    function addStoneCoinRole(address _stoneCoinAddress) public onlyOwner {\n        require(stoneCoinContractsRoles[_stoneCoinAddress] != true);\n        stoneCoinContractsRoles[_stoneCoinAddress] = true;\n        emit StoneCoinRoleCreated(_stoneCoinAddress);\n    }\n}\n",
  "sourcePath": "/Users/roilandshut/projects/brikoin/brikoin/contracts/factory/StoneCoinFactory.sol",
  "compiler": {
    "name": "solc",
    "version": "0.4.24+commit.e67f0147.Emscripten.clang"
  },
  "schemaVersion": "2.0.1",
  "updatedAt": "2019-10-27T14:12:11.007Z"
}