{
  "contractName": "StoneCoinMortgage",
  "abi": [
    {
      "constant": true,
      "inputs": [
        {
          "name": "",
          "type": "address"
        }
      ],
      "name": "owners",
      "outputs": [
        {
          "name": "",
          "type": "bool"
        }
      ],
      "payable": false,
      "stateMutability": "view",
      "type": "function"
    },
    {
      "constant": false,
      "inputs": [
        {
          "name": "_newOwner",
          "type": "address"
        }
      ],
      "name": "setOwner",
      "outputs": [],
      "payable": false,
      "stateMutability": "nonpayable",
      "type": "function"
    },
    {
      "constant": true,
      "inputs": [],
      "name": "getAddress",
      "outputs": [
        {
          "name": "",
          "type": "address"
        }
      ],
      "payable": false,
      "stateMutability": "view",
      "type": "function"
    },
    {
      "constant": false,
      "inputs": [
        {
          "name": "_newOwner",
          "type": "address"
        }
      ],
      "name": "removeOwnership",
      "outputs": [],
      "payable": false,
      "stateMutability": "nonpayable",
      "type": "function"
    },
    {
      "constant": true,
      "inputs": [],
      "name": "owner",
      "outputs": [
        {
          "name": "",
          "type": "address"
        }
      ],
      "payable": false,
      "stateMutability": "view",
      "type": "function"
    },
    {
      "constant": true,
      "inputs": [
        {
          "name": "user",
          "type": "address"
        }
      ],
      "name": "isOwnable",
      "outputs": [
        {
          "name": "",
          "type": "bool"
        }
      ],
      "payable": false,
      "stateMutability": "view",
      "type": "function"
    },
    {
      "constant": false,
      "inputs": [
        {
          "name": "_newOwner",
          "type": "address"
        }
      ],
      "name": "addOwnership",
      "outputs": [],
      "payable": false,
      "stateMutability": "nonpayable",
      "type": "function"
    },
    {
      "inputs": [],
      "payable": false,
      "stateMutability": "nonpayable",
      "type": "constructor"
    },
    {
      "anonymous": false,
      "inputs": [
        {
          "indexed": true,
          "name": "previousOwner",
          "type": "address"
        }
      ],
      "name": "OwnershipRenounced",
      "type": "event"
    },
    {
      "anonymous": false,
      "inputs": [
        {
          "indexed": true,
          "name": "previousOwner",
          "type": "address"
        },
        {
          "indexed": true,
          "name": "newOwner",
          "type": "address"
        }
      ],
      "name": "OwnershipTransferred",
      "type": "event"
    },
    {
      "constant": false,
      "inputs": [
        {
          "name": "_mortgageStorage",
          "type": "address"
        }
      ],
      "name": "setStoneCoinMortgageStorage",
      "outputs": [],
      "payable": false,
      "stateMutability": "nonpayable",
      "type": "function"
    },
    {
      "constant": false,
      "inputs": [
        {
          "name": "_mortgageAddress",
          "type": "address"
        },
        {
          "name": "_to",
          "type": "address"
        },
        {
          "name": "_units",
          "type": "uint256"
        }
      ],
      "name": "transferBuyMortgaged",
      "outputs": [
        {
          "name": "",
          "type": "bool"
        }
      ],
      "payable": false,
      "stateMutability": "nonpayable",
      "type": "function"
    },
    {
      "constant": false,
      "inputs": [
        {
          "name": "_mortgageAddress",
          "type": "address"
        },
        {
          "name": "_from",
          "type": "address"
        },
        {
          "name": "_units",
          "type": "uint256"
        }
      ],
      "name": "transferSellMortgaged",
      "outputs": [
        {
          "name": "",
          "type": "bool"
        }
      ],
      "payable": false,
      "stateMutability": "nonpayable",
      "type": "function"
    },
    {
      "constant": false,
      "inputs": [
        {
          "name": "user",
          "type": "address"
        },
        {
          "name": "_mortgageAddress",
          "type": "address"
        }
      ],
      "name": "clearMortgage",
      "outputs": [],
      "payable": false,
      "stateMutability": "nonpayable",
      "type": "function"
    },
    {
      "constant": false,
      "inputs": [
        {
          "name": "user",
          "type": "address"
        },
        {
          "name": "mortgagee",
          "type": "address"
        },
        {
          "name": "_mortgageAddress",
          "type": "address"
        },
        {
          "name": "_marketPriceMills",
          "type": "uint256"
        },
        {
          "name": "maxDefaulted",
          "type": "bool"
        }
      ],
      "name": "partlyForfeitureMortgage",
      "outputs": [
        {
          "name": "",
          "type": "uint256"
        }
      ],
      "payable": false,
      "stateMutability": "nonpayable",
      "type": "function"
    },
    {
      "constant": false,
      "inputs": [
        {
          "name": "mortgageAddress",
          "type": "address"
        },
        {
          "name": "buyer",
          "type": "address"
        },
        {
          "name": "units",
          "type": "uint256"
        }
      ],
      "name": "buyMortgaged",
      "outputs": [],
      "payable": false,
      "stateMutability": "nonpayable",
      "type": "function"
    },
    {
      "constant": false,
      "inputs": [
        {
          "name": "mortgageAddress",
          "type": "address"
        },
        {
          "name": "seller",
          "type": "address"
        },
        {
          "name": "units",
          "type": "uint256"
        }
      ],
      "name": "sellMortgaged",
      "outputs": [],
      "payable": false,
      "stateMutability": "nonpayable",
      "type": "function"
    },
    {
      "constant": true,
      "inputs": [
        {
          "name": "_user",
          "type": "address"
        }
      ],
      "name": "balanceOf",
      "outputs": [
        {
          "name": "",
          "type": "uint256"
        }
      ],
      "payable": false,
      "stateMutability": "view",
      "type": "function"
    },
    {
      "constant": true,
      "inputs": [
        {
          "name": "_user",
          "type": "address"
        },
        {
          "name": "mortgageAddress",
          "type": "address"
        }
      ],
      "name": "balanceOfMortgage",
      "outputs": [
        {
          "name": "",
          "type": "uint256"
        }
      ],
      "payable": false,
      "stateMutability": "view",
      "type": "function"
    },
    {
      "constant": false,
      "inputs": [
        {
          "name": "_user",
          "type": "address"
        },
        {
          "name": "mortgageAddress",
          "type": "address"
        }
      ],
      "name": "forecloseTokens",
      "outputs": [],
      "payable": false,
      "stateMutability": "nonpayable",
      "type": "function"
    }
  ],
  "bytecode": "0x608060405234801561001057600080fd5b50336000818152602081905260409020805460ff191660019081179091558054600160a060020a031916909117905561152b8061004e6000396000f3006080604052600436106100d75763ffffffff60e060020a600035041663022914a781146100dc57806313af4035146101115780632adfd6d61461013457806338cc48311461015e578063666a34271461018f57806370a08231146101b05780637f5cdb44146101e35780638da5cb5b1461020d578063b52d75c314610222578063cff15d7914610257578063d22c010014610281578063e88914de146102ab578063eeceeef6146102cc578063f22ec3da146102f3578063f31c41c81461031a578063f5a55ff61461033b578063ff98e76f1461035c575b600080fd5b3480156100e857600080fd5b506100fd600160a060020a0360043516610383565b604080519115158252519081900360200190f35b34801561011d57600080fd5b50610132600160a060020a0360043516610398565b005b34801561014057600080fd5b506100fd600160a060020a03600435811690602435166044356103e5565b34801561016a57600080fd5b5061017361050c565b60408051600160a060020a039092168252519081900360200190f35b34801561019b57600080fd5b50610132600160a060020a0360043516610510565b3480156101bc57600080fd5b506101d1600160a060020a036004351661053a565b60408051918252519081900360200190f35b3480156101ef57600080fd5b506100fd600160a060020a036004358116906024351660443561054d565b34801561021957600080fd5b506101736108f1565b34801561022e57600080fd5b506101d1600160a060020a03600435811690602435811690604435166064356084351515610900565b34801561026357600080fd5b50610132600160a060020a0360043581169060243516604435610938565b34801561028d57600080fd5b50610132600160a060020a0360043581169060243516604435610967565b3480156102b757600080fd5b506100fd600160a060020a0360043516610990565b3480156102d857600080fd5b50610132600160a060020a03600435811690602435166109ae565b3480156102ff57600080fd5b506101d1600160a060020a0360043581169060243516610a5c565b34801561032657600080fd5b50610132600160a060020a0360043516610a71565b34801561034757600080fd5b50610132600160a060020a0360043516610abe565b34801561036857600080fd5b50610132600160a060020a0360043581169060243516610ae5565b60006020819052908152604090205460ff1681565b3360009081526020819052604090205460ff1615156103b657600080fd5b6001805473ffffffffffffffffffffffffffffffffffffffff1916600160a060020a0392909216919091179055565b3360009081526020819052604081205460ff16151561040357600080fd5b600160a060020a038316151561041857600080fd5b600254604080517f8a642bea000000000000000000000000000000000000000000000000000000008152600160a060020a038681166004830152878116602483015291519190921691638a642bea9160448083019260209291908290030181600087803b15801561048857600080fd5b505af115801561049c573d6000803e3d6000fd5b505050506040513d60208110156104b257600080fd5b505115156104bf57600080fd5b816104ca8486610b12565b10156104d557600080fd5b6104f7836104f2846104e687610bba565b9063ffffffff610c5716565b610c69565b610502838584610cd7565b5060019392505050565b3090565b3360009081526020819052604090205460ff16151561052e57600080fd5b61053781610d7d565b50565b60008061054683610bba565b9392505050565b33600090815260208190526040812054819060ff16151561056d57600080fd5b600160a060020a038416151561058257600080fd5b600254604080517f8a642bea000000000000000000000000000000000000000000000000000000008152600160a060020a038781166004830152888116602483015291519190921691638a642bea9160448083019260209291908290030181600087803b1580156105f257600080fd5b505af1158015610606573d6000803e3d6000fd5b505050506040513d602081101561061c57600080fd5b50511561062857600080fd5b5083610647846104f28561063b83610bba565b9063ffffffff610db316565b600254604080517f74e03f80000000000000000000000000000000000000000000000000000000008152600160a060020a038781166004830152888116602483015260016044830152915191909216916374e03f8091606480830192600092919082900301818387803b1580156106bd57600080fd5b505af11580156106d1573d6000803e3d6000fd5b5050600254604080517feccabc93000000000000000000000000000000000000000000000000000000008152600160a060020a0389811660048301528a8116602483015260448201899052915191909216935063eccabc939250606480830192600092919082900301818387803b15801561074b57600080fd5b505af115801561075f573d6000803e3d6000fd5b50505050600260009054906101000a9004600160a060020a0316600160a060020a031663b4034676858784600160a060020a0316632f29a0626040518163ffffffff1660e060020a028152600401602060405180830381600087803b1580156107c757600080fd5b505af11580156107db573d6000803e3d6000fd5b505050506040513d60208110156107f157600080fd5b50516040805160e060020a63ffffffff8716028152600160a060020a0394851660048201529284166024840152921660448201529051606480830192600092919082900301818387803b15801561084757600080fd5b505af115801561085b573d6000803e3d6000fd5b5050600254604080517fb27deccc000000000000000000000000000000000000000000000000000000008152600160a060020a0389811660048301528a81166024830152915191909216935063b27deccc9250604480830192600092919082900301818387803b1580156108ce57600080fd5b505af11580156108e2573d6000803e3d6000fd5b50600198975050505050505050565b600154600160a060020a031681565b33600090815260208190526040812054819060ff16151561092057600080fd5b61092d8787878787610dc0565b979650505050505050565b3360009081526020819052604090205460ff16151561095657600080fd5b6109618383836103e5565b50505050565b3360009081526020819052604090205460ff16151561098557600080fd5b61096183838361054d565b600160a060020a031660009081526020819052604090205460ff1690565b3360009081526020819052604090205460ff1615156109cc57600080fd5b600254604080517feccabc93000000000000000000000000000000000000000000000000000000008152600160a060020a0385811660048301528481166024830152600060448301819052925193169263eccabc939260648084019391929182900301818387803b158015610a4057600080fd5b505af1158015610a54573d6000803e3d6000fd5b505050505050565b600080610a698484610b12565b949350505050565b3360009081526020819052604090205460ff161515610a8f57600080fd5b6002805473ffffffffffffffffffffffffffffffffffffffff1916600160a060020a0392909216919091179055565b3360009081526020819052604090205460ff161515610adc57600080fd5b61053781611204565b3360009081526020819052604090205460ff161515610b0357600080fd5b610b0d8282611277565b505050565b600254604080517f1bb4d932000000000000000000000000000000000000000000000000000000008152600160a060020a038581166004830152848116602483015291516000939290921691631bb4d9329160448082019260209290919082900301818787803b158015610b8557600080fd5b505af1158015610b99573d6000803e3d6000fd5b505050506040513d6020811015610baf57600080fd5b505190505b92915050565b600254604080517fa7a92cda000000000000000000000000000000000000000000000000000000008152600160a060020a0384811660048301529151600093929092169163a7a92cda9160248082019260209290919082900301818787803b158015610c2557600080fd5b505af1158015610c39573d6000803e3d6000fd5b505050506040513d6020811015610c4f57600080fd5b505192915050565b600082821115610c6357fe5b50900390565b600254604080517f90b273e2000000000000000000000000000000000000000000000000000000008152600160a060020a03858116600483015260248201859052915191909216916390b273e291604480830192600092919082900301818387803b158015610a4057600080fd5b6000610ce7826104e68686610b12565b600254604080517feccabc93000000000000000000000000000000000000000000000000000000008152600160a060020a038881166004830152878116602483015260448201859052915193945091169163eccabc939160648082019260009290919082900301818387803b158015610d5f57600080fd5b505af1158015610d73573d6000803e3d6000fd5b5050505050505050565b600160a060020a0381161515610d9257600080fd5b600160a060020a03166000908152602081905260409020805460ff19169055565b81810182811015610bb457fe5b6000808080600160a060020a0389161515610dda57600080fd5b86925082600160a060020a031663603daf9a6040518163ffffffff1660e060020a028152600401602060405180830381600087803b158015610e1b57600080fd5b505af1158015610e2f573d6000803e3d6000fd5b505050506040513d6020811015610e4557600080fd5b5051600160a060020a038a8116911614610e5e57600080fd5b82600160a060020a0316632f29a0626040518163ffffffff1660e060020a028152600401602060405180830381600087803b158015610e9c57600080fd5b505af1158015610eb0573d6000803e3d6000fd5b505050506040513d6020811015610ec657600080fd5b5051600160a060020a03898116911614610edf57600080fd5b82600160a060020a031663485d498a6040518163ffffffff1660e060020a028152600401602060405180830381600087803b158015610f1d57600080fd5b505af1158015610f31573d6000803e3d6000fd5b505050506040513d6020811015610f4757600080fd5b505167ffffffffffffffff16600010610f5f57600080fd5b82600160a060020a0316634ae01cdc6040518163ffffffff1660e060020a028152600401602060405180830381600087803b158015610f9d57600080fd5b505af1158015610fb1573d6000803e3d6000fd5b505050506040513d6020811015610fc757600080fd5b50519150841561103e5782600160a060020a0316631832ca2e6040518163ffffffff1660e060020a028152600401602060405180830381600087803b15801561100f57600080fd5b505af1158015611023573d6000803e3d6000fd5b505050506040513d602081101561103957600080fd5b505191505b6110736103e86110678861105b86620f424063ffffffff6114c116565b9063ffffffff6114d616565b9063ffffffff6114c116565b905061108d6103e86110678361044c63ffffffff6114d616565b90506110998988610b12565b8111156111d8576110ba896104f26110b18c8b610b12565b6104e68d610bba565b600254604080517feccabc93000000000000000000000000000000000000000000000000000000008152600160a060020a038c811660048301528a81166024830152600060448301819052925193169263eccabc939260648084019391929182900301818387803b15801561112e57600080fd5b505af1158015611142573d6000803e3d6000fd5b5050600254604080517f74e03f80000000000000000000000000000000000000000000000000000000008152600160a060020a038e811660048301528c811660248301526000604483018190529251931694506374e03f8093506064808201939182900301818387803b1580156111b857600080fd5b505af11580156111cc573d6000803e3d6000fd5b505050508093506111f8565b6111e3898883610cd7565b6111f4896104f2836104e68d610bba565b8093505b50505095945050505050565b600160a060020a038116151561121957600080fd5b600154604051600160a060020a038084169216907f8be0079c531659141344cd1fd0a4f28419497f9722a3daafe3b4186f6b6457e090600090a3600160a060020a03166000908152602081905260409020805460ff19166001179055565b600080600160a060020a038416151561128f57600080fd5b82905080600160a060020a031663603daf9a6040518163ffffffff1660e060020a028152600401602060405180830381600087803b1580156112d057600080fd5b505af11580156112e4573d6000803e3d6000fd5b505050506040513d60208110156112fa57600080fd5b5051600160a060020a0385811691161461131357600080fd5b80600160a060020a0316631832ca2e6040518163ffffffff1660e060020a028152600401602060405180830381600087803b15801561135157600080fd5b505af1158015611365573d6000803e3d6000fd5b505050506040513d602081101561137b57600080fd5b50511561138757600080fd5b6113a1846104f26113988787610b12565b6104e688610bba565b600254604080517feccabc93000000000000000000000000000000000000000000000000000000008152600160a060020a0387811660048301528681166024830152600060448301819052925193169263eccabc939260648084019391929182900301818387803b15801561141557600080fd5b505af1158015611429573d6000803e3d6000fd5b5050600254604080517f74e03f80000000000000000000000000000000000000000000000000000000008152600160a060020a03898116600483015288811660248301526000604483018190529251931694506374e03f8093506064808201939182900301818387803b15801561149f57600080fd5b505af11580156114b3573d6000803e3d6000fd5b506001979650505050505050565b600081838115156114ce57fe5b049392505050565b60008215156114e757506000610bb4565b508181028183828115156114f757fe5b0414610bb457fe00a165627a7a723058208a796b42f2279cf30b27ab9dda54b13b2ed53dc52fae176c524577891faa484e0029",
  "source": "pragma solidity ^0.4.24;\n\nimport \"openzeppelin-solidity/contracts/ownership/Ownable.sol\";\nimport 'openzeppelin-solidity/contracts/math/SafeMath.sol';\nimport \"./Mortgage.sol\";\nimport \"./structures/Estimation.sol\";\nimport \"./structures/Registrar.sol\";\nimport \"./structures/Terms.sol\";\nimport \"./structures/Manager.sol\";\nimport \"./structures/Property.sol\";\nimport \"./structures/Trustee.sol\";\nimport \"./interfaces/StoneCoinMortgageInt.sol\";\nimport \"./interfaces/Ownables.sol\";\nimport \"./interfaces/StoneCoinMortgageStorageInt.sol\";\n\n//TODO: https://ethereum.stackexchange.com/questions/13167/are-there-well-solved-and-simple-storage-patterns-for-solidity\ncontract StoneCoinMortgage is Ownables, StoneCoinMortgageInt {\n    using SafeMath for uint256;\n\n    address mortgageStorage;\n\n    constructor(\n    ) Ownables() public {\n    }\n\n    function setStoneCoinMortgageStorage(address _mortgageStorage) public onlyOwner{\n         mortgageStorage = _mortgageStorage;\n    }\n\n    function  getUserMortgageHoldings(address _user, address _mortgageAddress) private view returns(uint256){\n        return StoneCoinMortgageStorageInt(mortgageStorage).getMortgageHoldings(_user, _mortgageAddress);\n    }\n\n    function  getTotalUserHoldings(address _user) private view returns(uint256){\n        return StoneCoinMortgageStorageInt(mortgageStorage).getTotalUserHoldings(_user);\n    }\n\n    function  setTotalUserHoldings(address _user, uint256 units) private {\n\n        StoneCoinMortgageStorageInt(mortgageStorage).setTotalUserHoldings(_user, units);\n    }\n\n    function  subUserMortgageHoldings(address _user, address _mortgageAddress, uint256 units) private {\n        uint256 userHoldings = getUserMortgageHoldings(_user, _mortgageAddress).sub(units);\n         StoneCoinMortgageStorageInt(mortgageStorage).setMortgageHoldings(_user, _mortgageAddress, userHoldings);\n\n    }\n\n    function transferFromMortgage(address _user, address _mortgageAddress) private  returns (bool) {\n        require(_user != address(0));\n        Mortgage mortgage = Mortgage(_mortgageAddress);\n        require(_user == mortgage.getBuyer());\n        require(0 == mortgage.getRemainingLoanBalance());\n        setTotalUserHoldings(_user,getTotalUserHoldings(_user).sub(getUserMortgageHoldings(_user,_mortgageAddress)));\n        StoneCoinMortgageStorageInt(mortgageStorage).setMortgageHoldings(_user, _mortgageAddress, 0);\n        StoneCoinMortgageStorageInt(mortgageStorage).setMortgageValid(_user, _mortgageAddress, false);\n        return true;\n    }\n\n\n    function partlyForfeitureTransfer(address _user, address _mortgagee, address _mortgageAddress, uint marketPriceMill, bool maxDefaulted) private  returns (uint256) {\n        require(_user != address(0));\n        Mortgage mortgage = Mortgage(_mortgageAddress);\n        require(_user == mortgage.getBuyer());\n        require(_mortgagee == mortgage.getMortgagee());\n        require(0 < mortgage.getDefaultStatus());\n\n        uint payment = mortgage.getNextPayment();\n        if(maxDefaulted){\n            payment = mortgage.getRemainingLoanBalance();\n        }\n        uint numberOfUnits = payment.div(1000000).mul(marketPriceMill).div(1000);\n        numberOfUnits = numberOfUnits.mul(1100).div(1000);\n        if(numberOfUnits > getUserMortgageHoldings(_user,_mortgageAddress)){\n            setTotalUserHoldings(_user,getTotalUserHoldings(_user).sub(getUserMortgageHoldings(_user,_mortgageAddress)));\n            StoneCoinMortgageStorageInt(mortgageStorage).setMortgageHoldings(_user, _mortgageAddress, 0);\n            StoneCoinMortgageStorageInt(mortgageStorage).setMortgageValid(_user, _mortgageAddress, false);\n            return numberOfUnits;\n        }\n        subUserMortgageHoldings(_user, _mortgageAddress, numberOfUnits);\n        setTotalUserHoldings(_user,getTotalUserHoldings(_user).sub(numberOfUnits));\n        return numberOfUnits;\n    }\n\n    function transferBuyMortgaged(address _mortgageAddress, address _to, uint256 _units) public onlyOwner returns (bool) {\n        require(_to != address(0));\n        require(!StoneCoinMortgageStorageInt(mortgageStorage).isMortgageValid(_to, _mortgageAddress));\n        Mortgage mortgage = Mortgage(_mortgageAddress);\n        setTotalUserHoldings(_to,getTotalUserHoldings(_to).add(_units));\n        StoneCoinMortgageStorageInt(mortgageStorage).setMortgageValid(_to, _mortgageAddress, true);\n        StoneCoinMortgageStorageInt(mortgageStorage).setMortgageHoldings(_to, _mortgageAddress, _units);\n        StoneCoinMortgageStorageInt(mortgageStorage).setMortgageMortgagee(_to, _mortgageAddress,  mortgage.getMortgagee());\n        StoneCoinMortgageStorageInt(mortgageStorage).setMortgageHolder(_to, _mortgageAddress);\n        return true;\n    }\n\n\n    function transferSellMortgaged(address _mortgageAddress, address _from, uint256 _units) public onlyOwner returns (bool) {\n        require(_from != address(0));\n        require(StoneCoinMortgageStorageInt(mortgageStorage).isMortgageValid(_from, _mortgageAddress));\n\n        require(getUserMortgageHoldings(_from,_mortgageAddress) >= _units);\n        setTotalUserHoldings(_from, getTotalUserHoldings(_from).sub(_units));\n        subUserMortgageHoldings(_from, _mortgageAddress, _units);\n        return true;\n    }\n\n    function clearMortgage(address user, address _mortgageAddress) public  onlyOwner {\n        transferFromMortgage(user, _mortgageAddress);\n    }\n\n    function partlyForfeitureMortgage(address user, address mortgagee, address _mortgageAddress, uint _marketPriceMills, bool maxDefaulted) public onlyOwner returns (uint256) {\n        uint256 result = partlyForfeitureTransfer(user, mortgagee,_mortgageAddress, _marketPriceMills, maxDefaulted);\n        return result;\n    }\n\n    function buyMortgaged(address mortgageAddress, address buyer, uint256 units) public onlyOwner {\n        transferBuyMortgaged(mortgageAddress, buyer, units);\n    }\n\n    function sellMortgaged(address mortgageAddress, address seller, uint256 units) public  onlyOwner {\n        transferSellMortgaged(mortgageAddress, seller, units);\n    }\n\n    function balanceOf(address _user) public view returns (uint256) {\n        uint256 result = getTotalUserHoldings(_user);\n        return result;\n    }\n\n    function balanceOfMortgage(address _user, address mortgageAddress) public view returns (uint256) {\n        uint256 result = getUserMortgageHoldings(_user,mortgageAddress);\n        return result;\n    }\n    function forecloseTokens(address _user, address mortgageAddress) public onlyOwner {\n        StoneCoinMortgageStorageInt(mortgageStorage).setMortgageHoldings(_user, mortgageAddress, 0);\n    }\n\n\n\n\n}",
  "sourcePath": "/Users/roilandshut/projects/brikoin/brikoin/contracts/StoneCoinMortgage.sol",
  "compiler": {
    "name": "solc",
    "version": "0.4.24+commit.e67f0147.Emscripten.clang"
  },
  "schemaVersion": "2.0.1",
  "updatedAt": "2019-10-27T14:12:10.957Z"
}