{
  "contractName": "StoneCoinMortgageStorage",
  "abi": [
    {
      "constant": true,
      "inputs": [
        {
          "name": "",
          "type": "address"
        }
      ],
      "name": "owners",
      "outputs": [
        {
          "name": "",
          "type": "bool"
        }
      ],
      "payable": false,
      "stateMutability": "view",
      "type": "function"
    },
    {
      "constant": false,
      "inputs": [
        {
          "name": "_newOwner",
          "type": "address"
        }
      ],
      "name": "setOwner",
      "outputs": [],
      "payable": false,
      "stateMutability": "nonpayable",
      "type": "function"
    },
    {
      "constant": true,
      "inputs": [],
      "name": "getAddress",
      "outputs": [
        {
          "name": "",
          "type": "address"
        }
      ],
      "payable": false,
      "stateMutability": "view",
      "type": "function"
    },
    {
      "constant": true,
      "inputs": [
        {
          "name": "",
          "type": "address"
        },
        {
          "name": "",
          "type": "address"
        }
      ],
      "name": "holdings",
      "outputs": [
        {
          "name": "valid",
          "type": "bool"
        },
        {
          "name": "defaulted",
          "type": "bool"
        },
        {
          "name": "units",
          "type": "uint256"
        },
        {
          "name": "mortgagee",
          "type": "address"
        },
        {
          "name": "holder",
          "type": "address"
        }
      ],
      "payable": false,
      "stateMutability": "view",
      "type": "function"
    },
    {
      "constant": false,
      "inputs": [
        {
          "name": "_newOwner",
          "type": "address"
        }
      ],
      "name": "removeOwnership",
      "outputs": [],
      "payable": false,
      "stateMutability": "nonpayable",
      "type": "function"
    },
    {
      "constant": true,
      "inputs": [],
      "name": "owner",
      "outputs": [
        {
          "name": "",
          "type": "address"
        }
      ],
      "payable": false,
      "stateMutability": "view",
      "type": "function"
    },
    {
      "constant": true,
      "inputs": [
        {
          "name": "",
          "type": "address"
        }
      ],
      "name": "totalUserMortgageHoldings",
      "outputs": [
        {
          "name": "",
          "type": "uint256"
        }
      ],
      "payable": false,
      "stateMutability": "view",
      "type": "function"
    },
    {
      "constant": true,
      "inputs": [
        {
          "name": "user",
          "type": "address"
        }
      ],
      "name": "isOwnable",
      "outputs": [
        {
          "name": "",
          "type": "bool"
        }
      ],
      "payable": false,
      "stateMutability": "view",
      "type": "function"
    },
    {
      "constant": false,
      "inputs": [
        {
          "name": "_newOwner",
          "type": "address"
        }
      ],
      "name": "addOwnership",
      "outputs": [],
      "payable": false,
      "stateMutability": "nonpayable",
      "type": "function"
    },
    {
      "anonymous": false,
      "inputs": [
        {
          "indexed": true,
          "name": "previousOwner",
          "type": "address"
        }
      ],
      "name": "OwnershipRenounced",
      "type": "event"
    },
    {
      "anonymous": false,
      "inputs": [
        {
          "indexed": true,
          "name": "previousOwner",
          "type": "address"
        },
        {
          "indexed": true,
          "name": "newOwner",
          "type": "address"
        }
      ],
      "name": "OwnershipTransferred",
      "type": "event"
    },
    {
      "constant": false,
      "inputs": [
        {
          "name": "user",
          "type": "address"
        },
        {
          "name": "_holdings",
          "type": "uint256"
        }
      ],
      "name": "setTotalUserHoldings",
      "outputs": [],
      "payable": false,
      "stateMutability": "nonpayable",
      "type": "function"
    },
    {
      "constant": true,
      "inputs": [
        {
          "name": "user",
          "type": "address"
        }
      ],
      "name": "getTotalUserHoldings",
      "outputs": [
        {
          "name": "",
          "type": "uint256"
        }
      ],
      "payable": false,
      "stateMutability": "view",
      "type": "function"
    },
    {
      "constant": true,
      "inputs": [
        {
          "name": "user",
          "type": "address"
        },
        {
          "name": "mortgageAddress",
          "type": "address"
        }
      ],
      "name": "isMortgageValid",
      "outputs": [
        {
          "name": "",
          "type": "bool"
        }
      ],
      "payable": false,
      "stateMutability": "view",
      "type": "function"
    },
    {
      "constant": false,
      "inputs": [
        {
          "name": "user",
          "type": "address"
        },
        {
          "name": "mortgageAddress",
          "type": "address"
        },
        {
          "name": "valid",
          "type": "bool"
        }
      ],
      "name": "setMortgageValid",
      "outputs": [],
      "payable": false,
      "stateMutability": "nonpayable",
      "type": "function"
    },
    {
      "constant": true,
      "inputs": [
        {
          "name": "user",
          "type": "address"
        },
        {
          "name": "mortgageAddress",
          "type": "address"
        }
      ],
      "name": "isMortgageDefaulted",
      "outputs": [
        {
          "name": "",
          "type": "bool"
        }
      ],
      "payable": false,
      "stateMutability": "view",
      "type": "function"
    },
    {
      "constant": false,
      "inputs": [
        {
          "name": "user",
          "type": "address"
        },
        {
          "name": "mortgageAddress",
          "type": "address"
        },
        {
          "name": "defaulted",
          "type": "bool"
        }
      ],
      "name": "setMortgageDefaulted",
      "outputs": [],
      "payable": false,
      "stateMutability": "nonpayable",
      "type": "function"
    },
    {
      "constant": true,
      "inputs": [
        {
          "name": "user",
          "type": "address"
        },
        {
          "name": "mortgageAddress",
          "type": "address"
        }
      ],
      "name": "getMortgageHoldings",
      "outputs": [
        {
          "name": "",
          "type": "uint256"
        }
      ],
      "payable": false,
      "stateMutability": "view",
      "type": "function"
    },
    {
      "constant": false,
      "inputs": [
        {
          "name": "user",
          "type": "address"
        },
        {
          "name": "mortgageAddress",
          "type": "address"
        },
        {
          "name": "units",
          "type": "uint256"
        }
      ],
      "name": "setMortgageHoldings",
      "outputs": [],
      "payable": false,
      "stateMutability": "nonpayable",
      "type": "function"
    },
    {
      "constant": true,
      "inputs": [
        {
          "name": "user",
          "type": "address"
        },
        {
          "name": "mortgageAddress",
          "type": "address"
        }
      ],
      "name": "getMortgageHolder",
      "outputs": [
        {
          "name": "",
          "type": "address"
        }
      ],
      "payable": false,
      "stateMutability": "view",
      "type": "function"
    },
    {
      "constant": false,
      "inputs": [
        {
          "name": "user",
          "type": "address"
        },
        {
          "name": "mortgageAddress",
          "type": "address"
        }
      ],
      "name": "setMortgageHolder",
      "outputs": [],
      "payable": false,
      "stateMutability": "nonpayable",
      "type": "function"
    },
    {
      "constant": true,
      "inputs": [
        {
          "name": "user",
          "type": "address"
        },
        {
          "name": "mortgageAddress",
          "type": "address"
        }
      ],
      "name": "getMortgageMortgagee",
      "outputs": [
        {
          "name": "",
          "type": "address"
        }
      ],
      "payable": false,
      "stateMutability": "view",
      "type": "function"
    },
    {
      "constant": false,
      "inputs": [
        {
          "name": "user",
          "type": "address"
        },
        {
          "name": "mortgageAddress",
          "type": "address"
        },
        {
          "name": "mortgagee",
          "type": "address"
        }
      ],
      "name": "setMortgageMortgagee",
      "outputs": [],
      "payable": false,
      "stateMutability": "nonpayable",
      "type": "function"
    }
  ],
  "bytecode": "0x60806040908152336000818152602081905291909120805460ff191660019081179091558054600160a060020a03191690911790556109bc806100436000396000f30060806040526004361061011c5763ffffffff7c0100000000000000000000000000000000000000000000000000000000600035041663022914a7811461012157806313af4035146101565780631bb4d9321461017957806338cc4831146101b257806339a90000146101e35780634036ff2e1461020a578063666a34271461026a57806374e03f801461028b57806385c7bee2146102b75780638a642bea146102de5780638da5cb5b146103055780638ed213031461031a57806390b273e214610341578063a7a92cda14610365578063b27deccc14610386578063b3bea530146103ad578063b4034676146103ce578063e88914de146103fb578063eccabc931461041c578063f5a55ff614610446578063ff31a5a114610467575b600080fd5b34801561012d57600080fd5b50610142600160a060020a0360043516610493565b604080519115158252519081900360200190f35b34801561016257600080fd5b50610177600160a060020a03600435166104a8565b005b34801561018557600080fd5b506101a0600160a060020a03600435811690602435166104f5565b60408051918252519081900360200190f35b3480156101be57600080fd5b506101c7610523565b60408051600160a060020a039092168252519081900360200190f35b3480156101ef57600080fd5b506101c7600160a060020a0360043581169060243516610527565b34801561021657600080fd5b50610231600160a060020a0360043581169060243516610554565b604080519515158652931515602086015284840192909252600160a060020a039081166060850152166080830152519081900360a00190f35b34801561027657600080fd5b50610177600160a060020a036004351661059c565b34801561029757600080fd5b50610177600160a060020a036004358116906024351660443515156105c6565b3480156102c357600080fd5b506101c7600160a060020a036004358116906024351661061e565b3480156102ea57600080fd5b50610142600160a060020a036004358116906024351661064b565b34801561031157600080fd5b506101c7610679565b34801561032657600080fd5b50610142600160a060020a0360043581169060243516610688565b34801561034d57600080fd5b50610177600160a060020a03600435166024356106bb565b34801561037157600080fd5b506101a0600160a060020a03600435166106f5565b34801561039257600080fd5b50610177600160a060020a0360043581169060243516610710565b3480156103b957600080fd5b506101a0600160a060020a036004351661077a565b3480156103da57600080fd5b50610177600160a060020a036004358116906024358116906044351661078c565b34801561040757600080fd5b50610142600160a060020a03600435166107f6565b34801561042857600080fd5b50610177600160a060020a0360043581169060243516604435610814565b34801561045257600080fd5b50610177600160a060020a0360043516610861565b34801561047357600080fd5b50610177600160a060020a03600435811690602435166044351515610888565b60006020819052908152604090205460ff1681565b3360009081526020819052604090205460ff1615156104c657600080fd5b6001805473ffffffffffffffffffffffffffffffffffffffff1916600160a060020a0392909216919091179055565b600160a060020a03918216600090815260026020908152604080832093909416825291909152206001015490565b3090565b600160a060020a039182166000908152600260209081526040808320938516835292905220600301541690565b60026020818152600093845260408085209091529183529120805460018201549282015460039092015460ff808316946101009093041692600160a060020a03908116911685565b3360009081526020819052604090205460ff1615156105ba57600080fd5b6105c3816108e7565b50565b3360009081526020819052604090205460ff1615156105e457600080fd5b600160a060020a03928316600090815260026020908152604080832094909516825292909252919020805460ff1916911515919091179055565b600160a060020a039182166000908152600260208181526040808420948616845293905291902001541690565b600160a060020a03918216600090815260026020908152604080832093909416825291909152205460ff1690565b600154600160a060020a031681565b600160a060020a039182166000908152600260209081526040808320939094168252919091522054610100900460ff1690565b3360009081526020819052604090205460ff1615156106d957600080fd5b600160a060020a03909116600090815260036020526040902055565b600160a060020a031660009081526003602052604090205490565b3360009081526020819052604090205460ff16151561072e57600080fd5b600160a060020a03918216600081815260026020908152604080832094909516825292909252919020600301805473ffffffffffffffffffffffffffffffffffffffff19169091179055565b60036020526000908152604090205481565b3360009081526020819052604090205460ff1615156107aa57600080fd5b600160a060020a0392831660009081526002602081815260408084209587168452949052929020909101805473ffffffffffffffffffffffffffffffffffffffff191691909216179055565b600160a060020a031660009081526020819052604090205460ff1690565b3360009081526020819052604090205460ff16151561083257600080fd5b600160a060020a0392831660009081526002602090815260408083209490951682529290925291902060010155565b3360009081526020819052604090205460ff16151561087f57600080fd5b6105c38161091d565b3360009081526020819052604090205460ff1615156108a657600080fd5b600160a060020a0392831660009081526002602090815260408083209490951682529290925291902080549115156101000261ff0019909216919091179055565b600160a060020a03811615156108fc57600080fd5b600160a060020a03166000908152602081905260409020805460ff19169055565b600160a060020a038116151561093257600080fd5b600154604051600160a060020a038084169216907f8be0079c531659141344cd1fd0a4f28419497f9722a3daafe3b4186f6b6457e090600090a3600160a060020a03166000908152602081905260409020805460ff191660011790555600a165627a7a723058204ada8d21b81e26a8e1f5667784f4226f9198cfef715bc3fcd14944f8312778c10029",
  "source": "pragma solidity ^0.4.24;\n\nimport \"openzeppelin-solidity/contracts/ownership/Ownable.sol\";\nimport 'openzeppelin-solidity/contracts/math/SafeMath.sol';\nimport \"../interfaces/Ownables.sol\";\nimport \"../interfaces/StoneCoinMortgageStorageInt.sol\";\n\n//TODO: https://ethereum.stackexchange.com/questions/13167/are-there-well-solved-and-simple-storage-patterns-for-solidity\ncontract StoneCoinMortgageStorage is Ownables, StoneCoinMortgageStorageInt {\n    using SafeMath for uint256;\n\n    struct MortgagedHolding {\n      bool    valid;\n      bool    defaulted;\n      uint256 units;\n      address mortgagee;\n      address holder;\n    }\n    mapping(address => mapping(address => MortgagedHolding)) public holdings;\n    mapping(address => uint256) public totalUserMortgageHoldings;\n\n\n    function setTotalUserHoldings(address user, uint256 _holdings) public onlyOwner{\n        totalUserMortgageHoldings[user] = _holdings;\n    }\n\n    function getTotalUserHoldings(address user) public view  returns(uint256){\n        return totalUserMortgageHoldings[user];\n    }\n\n    function isMortgageValid(address user, address mortgageAddress) public view  returns (bool){\n        return holdings[user][mortgageAddress].valid;\n    }\n\n    function setMortgageValid(address user, address mortgageAddress, bool valid) public  onlyOwner {\n        holdings[user][mortgageAddress].valid = valid;\n    }\n\n    function isMortgageDefaulted(address user, address mortgageAddress) public view  returns (bool){\n        return holdings[user][mortgageAddress].defaulted;\n    }\n\n    function setMortgageDefaulted(address user, address mortgageAddress, bool defaulted) public  onlyOwner {\n        holdings[user][mortgageAddress].defaulted = defaulted;\n    }\n\n    function getMortgageHoldings(address user, address mortgageAddress) public view  returns (uint256){\n        return holdings[user][mortgageAddress].units;\n    }\n    function setMortgageHoldings(address user, address mortgageAddress, uint256 units) public  onlyOwner{\n         holdings[user][mortgageAddress].units = units;\n    }\n\n\n    function getMortgageHolder(address user, address mortgageAddress) public view  returns (address){\n        return holdings[user][mortgageAddress].holder;\n    }\n    function setMortgageHolder(address user, address mortgageAddress) public  onlyOwner{\n         holdings[user][mortgageAddress].holder = user;\n    }\n\n    function getMortgageMortgagee(address user, address mortgageAddress) public view  returns (address){\n        return holdings[user][mortgageAddress].mortgagee;\n    }\n\n    function setMortgageMortgagee(address user, address mortgageAddress, address mortgagee) public  onlyOwner {\n        holdings[user][mortgageAddress].mortgagee = mortgagee;\n    }\n\n\n\n\n}",
  "sourcePath": "/Users/roilandshut/projects/brikoin/brikoin/contracts/storage/StoneCoinMortgageStorage.sol",
  "compiler": {
    "name": "solc",
    "version": "0.4.24+commit.e67f0147.Emscripten.clang"
  },
  "schemaVersion": "2.0.1",
  "updatedAt": "2019-10-27T14:12:11.071Z"
}