{
  "contractName": "StoneCoinStorage",
  "abi": [
    {
      "constant": true,
      "inputs": [
        {
          "name": "",
          "type": "address"
        }
      ],
      "name": "owners",
      "outputs": [
        {
          "name": "",
          "type": "bool"
        }
      ],
      "payable": false,
      "stateMutability": "view",
      "type": "function"
    },
    {
      "constant": false,
      "inputs": [
        {
          "name": "_newOwner",
          "type": "address"
        }
      ],
      "name": "setOwner",
      "outputs": [],
      "payable": false,
      "stateMutability": "nonpayable",
      "type": "function"
    },
    {
      "constant": true,
      "inputs": [],
      "name": "getAddress",
      "outputs": [
        {
          "name": "",
          "type": "address"
        }
      ],
      "payable": false,
      "stateMutability": "view",
      "type": "function"
    },
    {
      "constant": false,
      "inputs": [
        {
          "name": "_newOwner",
          "type": "address"
        }
      ],
      "name": "removeOwnership",
      "outputs": [],
      "payable": false,
      "stateMutability": "nonpayable",
      "type": "function"
    },
    {
      "constant": true,
      "inputs": [],
      "name": "owner",
      "outputs": [
        {
          "name": "",
          "type": "address"
        }
      ],
      "payable": false,
      "stateMutability": "view",
      "type": "function"
    },
    {
      "constant": true,
      "inputs": [
        {
          "name": "user",
          "type": "address"
        }
      ],
      "name": "isOwnable",
      "outputs": [
        {
          "name": "",
          "type": "bool"
        }
      ],
      "payable": false,
      "stateMutability": "view",
      "type": "function"
    },
    {
      "constant": false,
      "inputs": [
        {
          "name": "_newOwner",
          "type": "address"
        }
      ],
      "name": "addOwnership",
      "outputs": [],
      "payable": false,
      "stateMutability": "nonpayable",
      "type": "function"
    },
    {
      "anonymous": false,
      "inputs": [
        {
          "indexed": true,
          "name": "previousOwner",
          "type": "address"
        }
      ],
      "name": "OwnershipRenounced",
      "type": "event"
    },
    {
      "anonymous": false,
      "inputs": [
        {
          "indexed": true,
          "name": "previousOwner",
          "type": "address"
        },
        {
          "indexed": true,
          "name": "newOwner",
          "type": "address"
        }
      ],
      "name": "OwnershipTransferred",
      "type": "event"
    },
    {
      "constant": false,
      "inputs": [
        {
          "name": "holder",
          "type": "address"
        }
      ],
      "name": "addHolder",
      "outputs": [
        {
          "name": "",
          "type": "uint256"
        }
      ],
      "payable": false,
      "stateMutability": "nonpayable",
      "type": "function"
    },
    {
      "constant": false,
      "inputs": [
        {
          "name": "holder",
          "type": "address"
        }
      ],
      "name": "deleteHolder",
      "outputs": [
        {
          "name": "",
          "type": "bool"
        }
      ],
      "payable": false,
      "stateMutability": "nonpayable",
      "type": "function"
    },
    {
      "constant": true,
      "inputs": [
        {
          "name": "index",
          "type": "uint256"
        }
      ],
      "name": "getHolder",
      "outputs": [
        {
          "name": "",
          "type": "address"
        }
      ],
      "payable": false,
      "stateMutability": "view",
      "type": "function"
    },
    {
      "constant": true,
      "inputs": [],
      "name": "getHoldersLength",
      "outputs": [
        {
          "name": "",
          "type": "uint256"
        }
      ],
      "payable": false,
      "stateMutability": "view",
      "type": "function"
    },
    {
      "constant": true,
      "inputs": [],
      "name": "getStones",
      "outputs": [
        {
          "name": "",
          "type": "uint256"
        }
      ],
      "payable": false,
      "stateMutability": "view",
      "type": "function"
    },
    {
      "constant": false,
      "inputs": [
        {
          "name": "stones",
          "type": "uint256"
        }
      ],
      "name": "addStones",
      "outputs": [],
      "payable": false,
      "stateMutability": "nonpayable",
      "type": "function"
    },
    {
      "constant": false,
      "inputs": [
        {
          "name": "stones",
          "type": "uint256"
        }
      ],
      "name": "removeStones",
      "outputs": [],
      "payable": false,
      "stateMutability": "nonpayable",
      "type": "function"
    },
    {
      "constant": true,
      "inputs": [
        {
          "name": "_user",
          "type": "address"
        }
      ],
      "name": "getHoldingsUnits",
      "outputs": [
        {
          "name": "",
          "type": "uint256"
        }
      ],
      "payable": false,
      "stateMutability": "view",
      "type": "function"
    },
    {
      "constant": false,
      "inputs": [
        {
          "name": "_user",
          "type": "address"
        },
        {
          "name": "units",
          "type": "uint256"
        }
      ],
      "name": "setHoldingsUnits",
      "outputs": [],
      "payable": false,
      "stateMutability": "nonpayable",
      "type": "function"
    },
    {
      "constant": true,
      "inputs": [
        {
          "name": "_user",
          "type": "address"
        }
      ],
      "name": "getHoldersIndex",
      "outputs": [
        {
          "name": "",
          "type": "uint256"
        }
      ],
      "payable": false,
      "stateMutability": "view",
      "type": "function"
    },
    {
      "constant": false,
      "inputs": [
        {
          "name": "_user",
          "type": "address"
        },
        {
          "name": "listPointer",
          "type": "uint256"
        }
      ],
      "name": "setHoldersIndex",
      "outputs": [],
      "payable": false,
      "stateMutability": "nonpayable",
      "type": "function"
    },
    {
      "constant": true,
      "inputs": [
        {
          "name": "_user",
          "type": "address"
        }
      ],
      "name": "isValid",
      "outputs": [
        {
          "name": "",
          "type": "bool"
        }
      ],
      "payable": false,
      "stateMutability": "view",
      "type": "function"
    },
    {
      "constant": false,
      "inputs": [
        {
          "name": "_user",
          "type": "address"
        },
        {
          "name": "valid",
          "type": "bool"
        }
      ],
      "name": "setValid",
      "outputs": [],
      "payable": false,
      "stateMutability": "nonpayable",
      "type": "function"
    }
  ],
  "bytecode": "0x6080604090815260006002819055338082526020829052919020805460ff191660019081179091558054600160a060020a03191690911790556108f4806100476000396000f3006080604052600436106101115763ffffffff7c0100000000000000000000000000000000000000000000000000000000600035041663022914a781146101165780630db509211461014b578063118f55881461017157806313af403514610195578063368e73cf146101b6578063379cae23146101e957806338cc48311461020a57806339b161731461023b5780635cbf00d51461025c578063666a3427146102745780638b1b925f146102955780638da5cb5b146102b6578063ac1e17df146102cb578063ad2e5c8b146102ec578063c2ce4ae214610301578063d7fc2d1f14610319578063db04aef41461033f578063e88914de14610354578063e8a96b4614610375578063f5a55ff61461038d575b600080fd5b34801561012257600080fd5b50610137600160a060020a03600435166103ae565b604080519115158252519081900360200190f35b34801561015757600080fd5b5061016f600160a060020a03600435166024356103c3565b005b34801561017d57600080fd5b5061016f600160a060020a0360043516602435610400565b3480156101a157600080fd5b5061016f600160a060020a036004351661043d565b3480156101c257600080fd5b506101d7600160a060020a036004351661048a565b60408051918252519081900360200190f35b3480156101f557600080fd5b506101d7600160a060020a03600435166104a8565b34801561021657600080fd5b5061021f6104c6565b60408051600160a060020a039092168252519081900360200190f35b34801561024757600080fd5b50610137600160a060020a03600435166104cb565b34801561026857600080fd5b5061016f6004356105af565b34801561028057600080fd5b5061016f600160a060020a03600435166105e6565b3480156102a157600080fd5b50610137600160a060020a0360043516610610565b3480156102c257600080fd5b5061021f61062e565b3480156102d757600080fd5b506101d7600160a060020a036004351661063d565b3480156102f857600080fd5b506101d76106bc565b34801561030d57600080fd5b5061016f6004356106c2565b34801561032557600080fd5b5061016f600160a060020a036004351660243515156106f3565b34801561034b57600080fd5b506101d761073c565b34801561036057600080fd5b50610137600160a060020a0360043516610742565b34801561038157600080fd5b5061021f600435610760565b34801561039957600080fd5b5061016f600160a060020a036004351661078c565b60006020819052908152604090205460ff1681565b3360009081526020819052604090205460ff1615156103e157600080fd5b600160a060020a03909116600090815260036020526040902060020155565b3360009081526020819052604090205460ff16151561041e57600080fd5b600160a060020a03909116600090815260036020526040902060010155565b3360009081526020819052604090205460ff16151561045b57600080fd5b6001805473ffffffffffffffffffffffffffffffffffffffff1916600160a060020a0392909216919091179055565b600160a060020a031660009081526003602052604090206001015490565b600160a060020a031660009081526003602052604090206002015490565b305b90565b336000908152602081905260408120548190819060ff1615156104ed57600080fd5b600160a060020a0384166000908152600360205260409020600201546004805491935090600019810190811061051f57fe5b60009182526020909120015460048054600160a060020a03909216925082918490811061054857fe5b6000918252602080832091909101805473ffffffffffffffffffffffffffffffffffffffff1916600160a060020a03948516179055918316815260039091526040902060020182905560048054906105a4906000198301610881565b506001949350505050565b3360009081526020819052604090205460ff1615156105cd57600080fd5b6002546105e0908263ffffffff6107b316565b60025550565b3360009081526020819052604090205460ff16151561060457600080fd5b61060d816107c6565b50565b600160a060020a031660009081526003602052604090205460ff1690565b600154600160a060020a031681565b3360009081526020819052604081205460ff16151561065b57600080fd5b5060048054600181018083556000929092527f8a35acfbc15ff81a39ae7d344fd709f28e8600b4aa8c65c6b64bfe7fe36bd19b018054600160a060020a03841673ffffffffffffffffffffffffffffffffffffffff19909116179055919050565b60025490565b3360009081526020819052604090205460ff1615156106e057600080fd5b6002546105e0908263ffffffff6107fc16565b3360009081526020819052604090205460ff16151561071157600080fd5b600160a060020a03919091166000908152600360205260409020805460ff1916911515919091179055565b60045490565b600160a060020a031660009081526020819052604090205460ff1690565b600060048281548110151561077157fe5b600091825260209091200154600160a060020a031692915050565b3360009081526020819052604090205460ff1615156107aa57600080fd5b61060d8161080e565b818101828110156107c057fe5b92915050565b600160a060020a03811615156107db57600080fd5b600160a060020a03166000908152602081905260409020805460ff19169055565b60008282111561080857fe5b50900390565b600160a060020a038116151561082357600080fd5b600154604051600160a060020a038084169216907f8be0079c531659141344cd1fd0a4f28419497f9722a3daafe3b4186f6b6457e090600090a3600160a060020a03166000908152602081905260409020805460ff19166001179055565b8154818355818111156108a5576000838152602090206108a59181019083016108aa565b505050565b6104c891905b808211156108c457600081556001016108b0565b50905600a165627a7a72305820c371f06e9cd2080b33a4b00a40981d513b0129882ab2978e27cabb27a638476c0029",
  "source": "pragma solidity ^0.4.24;\n\nimport \"openzeppelin-solidity/contracts/ownership/Ownable.sol\";\nimport 'openzeppelin-solidity/contracts/math/SafeMath.sol';\nimport \"../interfaces/Ownables.sol\";\nimport \"../interfaces/StoneCoinStorageInt.sol\";\n//TODO: https://ethereum.stackexchange.com/questions/13167/are-there-well-solved-and-simple-storage-patterns-for-solidity\ncontract StoneCoinStorage is Ownables, StoneCoinStorageInt {\n    using SafeMath for uint256;\n    struct Holding {\n        bool valid;\n        uint256 units;\n        uint256 listPointer;\n    }\n    uint256  STONES = 0;\n    mapping(address => Holding)  holdings;\n    address[]  holders;\n\n    function addHolder(address holder) public onlyOwner returns (uint256) {\n        return holders.push(holder);\n    }\n\n    function deleteHolder(address holder) public onlyOwner returns(bool ) {\n        uint256 rowToDelete = holdings[holder].listPointer;\n        address keyToMove   = holders[holders.length-1];\n        holders[rowToDelete] = keyToMove;\n        holdings[keyToMove].listPointer = rowToDelete;\n        holders.length--;\n        return true;\n    }\n    function getHolder(uint index) public view returns(address) {\n        return holders[index];\n    }\n    function getHoldersLength() public view returns(uint) {\n        return holders.length;\n    }\n\n    function getStones() public view  returns(uint256) {\n        return STONES;\n    }\n    function addStones(uint256 stones) public onlyOwner  {\n        STONES = STONES.add(stones);\n    }\n\n    function removeStones(uint256 stones) public onlyOwner  {\n        STONES = STONES.sub(stones);\n    }\n\n    function getHoldingsUnits(address _user) public view returns (uint256){\n        return holdings[_user].units;\n    }\n\n    function setHoldingsUnits(address _user, uint256 units) public onlyOwner{\n         holdings[_user].units = units;\n    }\n    function getHoldersIndex(address _user) public view returns (uint256){\n        return holdings[_user].listPointer;\n    }\n\n    function setHoldersIndex(address _user, uint256 listPointer) public onlyOwner{\n         holdings[_user].listPointer = listPointer;\n    }\n\n    function isValid(address _user) public view returns (bool){\n        return holdings[_user].valid;\n    }\n\n    function setValid(address _user, bool valid) public onlyOwner{\n         holdings[_user].valid = valid;\n    }\n}",
  "sourcePath": "/Users/roilandshut/projects/brikoin/brikoin/contracts/storage/StoneCoinStorage.sol",
  "compiler": {
    "name": "solc",
    "version": "0.4.24+commit.e67f0147.Emscripten.clang"
  },
  "schemaVersion": "2.0.1",
  "updatedAt": "2019-10-27T14:12:11.077Z"
}