{
  "contractName": "TaxEntity",
  "abi": [
    {
      "constant": true,
      "inputs": [
        {
          "name": "",
          "type": "address"
        }
      ],
      "name": "owners",
      "outputs": [
        {
          "name": "",
          "type": "bool"
        }
      ],
      "payable": false,
      "stateMutability": "view",
      "type": "function"
    },
    {
      "constant": false,
      "inputs": [
        {
          "name": "_newOwner",
          "type": "address"
        }
      ],
      "name": "setOwner",
      "outputs": [],
      "payable": false,
      "stateMutability": "nonpayable",
      "type": "function"
    },
    {
      "constant": true,
      "inputs": [],
      "name": "getAddress",
      "outputs": [
        {
          "name": "",
          "type": "address"
        }
      ],
      "payable": false,
      "stateMutability": "view",
      "type": "function"
    },
    {
      "constant": false,
      "inputs": [
        {
          "name": "_newOwner",
          "type": "address"
        }
      ],
      "name": "removeOwnership",
      "outputs": [],
      "payable": false,
      "stateMutability": "nonpayable",
      "type": "function"
    },
    {
      "constant": true,
      "inputs": [],
      "name": "owner",
      "outputs": [
        {
          "name": "",
          "type": "address"
        }
      ],
      "payable": false,
      "stateMutability": "view",
      "type": "function"
    },
    {
      "constant": true,
      "inputs": [
        {
          "name": "user",
          "type": "address"
        }
      ],
      "name": "isOwnable",
      "outputs": [
        {
          "name": "",
          "type": "bool"
        }
      ],
      "payable": false,
      "stateMutability": "view",
      "type": "function"
    },
    {
      "constant": false,
      "inputs": [
        {
          "name": "_newOwner",
          "type": "address"
        }
      ],
      "name": "addOwnership",
      "outputs": [],
      "payable": false,
      "stateMutability": "nonpayable",
      "type": "function"
    },
    {
      "inputs": [],
      "payable": false,
      "stateMutability": "nonpayable",
      "type": "constructor"
    },
    {
      "anonymous": false,
      "inputs": [
        {
          "indexed": true,
          "name": "previousOwner",
          "type": "address"
        }
      ],
      "name": "OwnershipRenounced",
      "type": "event"
    },
    {
      "anonymous": false,
      "inputs": [
        {
          "indexed": true,
          "name": "previousOwner",
          "type": "address"
        },
        {
          "indexed": true,
          "name": "newOwner",
          "type": "address"
        }
      ],
      "name": "OwnershipTransferred",
      "type": "event"
    },
    {
      "constant": false,
      "inputs": [
        {
          "name": "_name",
          "type": "bytes32"
        }
      ],
      "name": "setName",
      "outputs": [],
      "payable": false,
      "stateMutability": "nonpayable",
      "type": "function"
    },
    {
      "constant": true,
      "inputs": [],
      "name": "getName",
      "outputs": [
        {
          "name": "",
          "type": "bytes32"
        }
      ],
      "payable": false,
      "stateMutability": "view",
      "type": "function"
    },
    {
      "constant": false,
      "inputs": [
        {
          "name": "user",
          "type": "address"
        },
        {
          "name": "stoneCoinAddress",
          "type": "address"
        },
        {
          "name": "tax",
          "type": "uint256"
        }
      ],
      "name": "setTax",
      "outputs": [],
      "payable": false,
      "stateMutability": "nonpayable",
      "type": "function"
    },
    {
      "constant": true,
      "inputs": [
        {
          "name": "user",
          "type": "address"
        },
        {
          "name": "stoneCoinAddress",
          "type": "address"
        }
      ],
      "name": "getTax",
      "outputs": [
        {
          "name": "",
          "type": "uint256"
        }
      ],
      "payable": false,
      "stateMutability": "view",
      "type": "function"
    }
  ],
  "bytecode": "0x608060405234801561001057600080fd5b50336000818152602081905260409020805460ff191660019081179091558054600160a060020a031916909117905561049b8061004e6000396000f3006080604052600436106100ae5763ffffffff7c0100000000000000000000000000000000000000000000000000000000600035041663022914a781146100b357806313af4035146100e857806317d7de7c1461010b57806338cc48311461013257806356101b25146101635780635ac801fe1461018a578063666a3427146101a25780638da5cb5b146101c3578063a6c5a404146101d8578063e88914de14610202578063f5a55ff614610223575b600080fd5b3480156100bf57600080fd5b506100d4600160a060020a0360043516610244565b604080519115158252519081900360200190f35b3480156100f457600080fd5b50610109600160a060020a0360043516610259565b005b34801561011757600080fd5b506101206102a6565b60408051918252519081900360200190f35b34801561013e57600080fd5b506101476102ac565b60408051600160a060020a039092168252519081900360200190f35b34801561016f57600080fd5b50610120600160a060020a03600435811690602435166102b0565b34801561019657600080fd5b506101096004356102db565b3480156101ae57600080fd5b50610109600160a060020a03600435166102fe565b3480156101cf57600080fd5b50610147610328565b3480156101e457600080fd5b50610109600160a060020a0360043581169060243516604435610337565b34801561020e57600080fd5b506100d4600160a060020a0360043516610381565b34801561022f57600080fd5b50610109600160a060020a036004351661039f565b60006020819052908152604090205460ff1681565b3360009081526020819052604090205460ff16151561027757600080fd5b6001805473ffffffffffffffffffffffffffffffffffffffff1916600160a060020a0392909216919091179055565b60035490565b3090565b600160a060020a03918216600090815260026020908152604080832093909416825291909152205490565b3360009081526020819052604090205460ff1615156102f957600080fd5b600355565b3360009081526020819052604090205460ff16151561031c57600080fd5b610325816103c6565b50565b600154600160a060020a031681565b3360009081526020819052604090205460ff16151561035557600080fd5b600160a060020a0392831660009081526002602090815260408083209490951682529290925291902055565b600160a060020a031660009081526020819052604090205460ff1690565b3360009081526020819052604090205460ff1615156103bd57600080fd5b610325816103fc565b600160a060020a03811615156103db57600080fd5b600160a060020a03166000908152602081905260409020805460ff19169055565b600160a060020a038116151561041157600080fd5b600154604051600160a060020a038084169216907f8be0079c531659141344cd1fd0a4f28419497f9722a3daafe3b4186f6b6457e090600090a3600160a060020a03166000908152602081905260409020805460ff191660011790555600a165627a7a723058203f0be50040aff619c03d7340dbba81abc7e9688e3a94dced497772a90f6746810029",
  "source": "pragma solidity ^0.4.0;\nimport 'openzeppelin-solidity/contracts/math/SafeMath.sol';\nimport \"../interfaces/Ownables.sol\";\nimport \"../interfaces/TaxEntityInt.sol\";\n\ncontract TaxEntity  is Ownables, TaxEntityInt{\n    using SafeMath for uint256;\n    mapping( address => mapping(address => uint256)) taxes;\n    bytes32 name;\n\n    constructor (\n    ) Ownables() public {\n    }\n\n    function setName(bytes32 _name) public onlyOwner{\n        name = _name;\n    }\n\n    function getName() public view returns(bytes32){\n       return name;\n    }\n\n    function setTax(address user, address stoneCoinAddress, uint256 tax) public onlyOwner{\n        taxes[user][stoneCoinAddress] = tax;\n    }\n\n    function getTax(address user, address stoneCoinAddress)  public view returns (uint256){\n\n        return taxes[user][stoneCoinAddress];\n    }\n\n\n}\n",
  "sourcePath": "/Users/roilandshut/projects/brikoin/brikoin/contracts/structures/TaxEntity.sol",
  "compiler": {
    "name": "solc",
    "version": "0.4.24+commit.e67f0147.Emscripten.clang"
  },
  "schemaVersion": "2.0.1",
  "updatedAt": "2019-10-27T14:12:11.109Z"
}