{
  "contractName": "TermsFactory",
  "abi": [
    {
      "constant": false,
      "inputs": [],
      "name": "renounceOwnership",
      "outputs": [],
      "payable": false,
      "stateMutability": "nonpayable",
      "type": "function"
    },
    {
      "constant": true,
      "inputs": [],
      "name": "owner",
      "outputs": [
        {
          "name": "",
          "type": "address"
        }
      ],
      "payable": false,
      "stateMutability": "view",
      "type": "function"
    },
    {
      "constant": false,
      "inputs": [
        {
          "name": "_newOwner",
          "type": "address"
        }
      ],
      "name": "transferOwnership",
      "outputs": [],
      "payable": false,
      "stateMutability": "nonpayable",
      "type": "function"
    },
    {
      "constant": true,
      "inputs": [],
      "name": "_terms",
      "outputs": [
        {
          "name": "",
          "type": "address"
        }
      ],
      "payable": false,
      "stateMutability": "view",
      "type": "function"
    },
    {
      "anonymous": false,
      "inputs": [
        {
          "indexed": false,
          "name": "terms",
          "type": "address"
        }
      ],
      "name": "TermsRoleCreated",
      "type": "event"
    },
    {
      "anonymous": false,
      "inputs": [
        {
          "indexed": false,
          "name": "terms",
          "type": "address"
        }
      ],
      "name": "TermsCreated",
      "type": "event"
    },
    {
      "anonymous": false,
      "inputs": [
        {
          "indexed": true,
          "name": "previousOwner",
          "type": "address"
        }
      ],
      "name": "OwnershipRenounced",
      "type": "event"
    },
    {
      "anonymous": false,
      "inputs": [
        {
          "indexed": true,
          "name": "previousOwner",
          "type": "address"
        },
        {
          "indexed": true,
          "name": "newOwner",
          "type": "address"
        }
      ],
      "name": "OwnershipTransferred",
      "type": "event"
    },
    {
      "constant": false,
      "inputs": [
        {
          "name": "_name",
          "type": "bytes32"
        },
        {
          "name": "_holdingYears",
          "type": "bytes32"
        },
        {
          "name": "_sellPercentage",
          "type": "bytes32"
        },
        {
          "name": "_rental",
          "type": "bytes32"
        },
        {
          "name": "_url",
          "type": "bytes32"
        },
        {
          "name": "_urlMD5",
          "type": "bytes32"
        }
      ],
      "name": "createTerms",
      "outputs": [
        {
          "name": "",
          "type": "address"
        }
      ],
      "payable": false,
      "stateMutability": "nonpayable",
      "type": "function"
    },
    {
      "constant": false,
      "inputs": [
        {
          "name": "newTerms",
          "type": "address"
        }
      ],
      "name": "addTerms",
      "outputs": [],
      "payable": false,
      "stateMutability": "nonpayable",
      "type": "function"
    }
  ],
  "bytecode": "0x608060405260008054600160a060020a03191633179055610721806100256000396000f3006080604052600436106100775763ffffffff7c010000000000000000000000000000000000000000000000000000000060003504166317d07b93811461007c578063715018a61461009f5780638da5cb5b146100b45780639267738d146100e5578063f2fde38b1461010c578063fa0ee37e1461012d575b600080fd5b34801561008857600080fd5b5061009d600160a060020a0360043516610142565b005b3480156100ab57600080fd5b5061009d6101e1565b3480156100c057600080fd5b506100c961024d565b60408051600160a060020a039092168252519081900360200190f35b3480156100f157600080fd5b506100c960043560243560443560643560843560a43561025c565b34801561011857600080fd5b5061009d600160a060020a0360043516610339565b34801561013957600080fd5b506100c961035c565b600054600160a060020a0316331461015957600080fd5b600160a060020a03811660009081526001602081905260409091205460ff161515141561018557600080fd5b600160a060020a038116600081815260016020818152604092839020805460ff1916909217909155815192835290517f3743c86922053b7c5dd54417a39050729965954653506d4e47671836573161ea9281900390910190a150565b600054600160a060020a031633146101f857600080fd5b60008054604051600160a060020a03909116917ff8df31144d9c2f0f6b59d69b8b98abd5459d07f2742c4df920b25aae33c6482091a26000805473ffffffffffffffffffffffffffffffffffffffff19169055565b600054600160a060020a031681565b336000908152600160208190526040822054829160ff9091161515148061028d5750600054600160a060020a031633145b151561029857600080fd5b8787878787876102a66103e8565b95865260208601949094526040808601939093526060850191909152608084015260a0830191909152519081900360c001906000f0801580156102ed573d6000803e3d6000fd5b5060408051600160a060020a038316815290519192507f626ed6a587fb178258092b41e7447181bed2473e3a6f662358945feadb96bff3919081900360200190a1979650505050505050565b600054600160a060020a0316331461035057600080fd5b6103598161036b565b50565b600254600160a060020a031681565b600160a060020a038116151561038057600080fd5b60008054604051600160a060020a03808516939216917f8be0079c531659141344cd1fd0a4f28419497f9722a3daafe3b4186f6b6457e091a36000805473ffffffffffffffffffffffffffffffffffffffff1916600160a060020a0392909216919091179055565b6040516102fd806103f9833901905600608060405234801561001057600080fd5b5060405160c0806102fd83398101604090815281516020830151918301516060840151608085015160a09095015160008054600160a060020a031916331790556001939093556002939093556003556004919091556005919091556006556102808061007d6000396000f3006080604052600436106100565763ffffffff7c0100000000000000000000000000000000000000000000000000000000600035041663715018a6811461005b5780638da5cb5b14610072578063f2fde38b146100b0575b600080fd5b34801561006757600080fd5b506100706100de565b005b34801561007e57600080fd5b50610087610164565b6040805173ffffffffffffffffffffffffffffffffffffffff9092168252519081900360200190f35b3480156100bc57600080fd5b5061007073ffffffffffffffffffffffffffffffffffffffff60043516610180565b60005473ffffffffffffffffffffffffffffffffffffffff16331461010257600080fd5b6000805460405173ffffffffffffffffffffffffffffffffffffffff909116917ff8df31144d9c2f0f6b59d69b8b98abd5459d07f2742c4df920b25aae33c6482091a26000805473ffffffffffffffffffffffffffffffffffffffff19169055565b60005473ffffffffffffffffffffffffffffffffffffffff1681565b60005473ffffffffffffffffffffffffffffffffffffffff1633146101a457600080fd5b6101ad816101b0565b50565b73ffffffffffffffffffffffffffffffffffffffff811615156101d257600080fd5b6000805460405173ffffffffffffffffffffffffffffffffffffffff808516939216917f8be0079c531659141344cd1fd0a4f28419497f9722a3daafe3b4186f6b6457e091a36000805473ffffffffffffffffffffffffffffffffffffffff191673ffffffffffffffffffffffffffffffffffffffff929092169190911790555600a165627a7a723058202f8e18c1187359d9257a0dac4e39e4959d5c2f65cc1aba8a01dde358faf3df100029a165627a7a7230582013eda56d1cadea35c567c7600941de530d5c86294e607a3c3cc88570a2a308940029",
  "source": "pragma solidity ^0.4.24;\nimport 'openzeppelin-solidity/contracts/ownership/Ownable.sol';\nimport 'openzeppelin-solidity/contracts/math/SafeMath.sol';\nimport '../structures/Terms.sol';\ncontract TermsFactory is Ownable{\n    using SafeMath for uint256;\n    mapping( address=> bool) terms;\n    event TermsRoleCreated(address terms);\n    event TermsCreated(address terms);\n    address public _terms;\n\n\n    modifier onlyTerms() {\n        require(terms[msg.sender] == true ||  owner == msg.sender);\n        _;\n    }\n\n    function createTerms (\n        bytes32 _name,\n        bytes32 _holdingYears,\n        bytes32 _sellPercentage,\n        bytes32 _rental,\n        bytes32 _url,\n        bytes32 _urlMD5\n    ) public onlyTerms returns(address){\n\n        Terms newContract = new Terms(_name,\n            _holdingYears,\n            _sellPercentage,\n            _rental,\n            _url,\n            _urlMD5              );\n        emit TermsCreated(address(newContract));\n        return address(newContract);\n    }\n\n    function addTerms(address newTerms) public onlyOwner {\n        require(terms[newTerms] != true);\n        terms[newTerms] = true;\n        emit TermsRoleCreated(newTerms);\n    }\n}\n",
  "sourcePath": "/Users/roilandshut/projects/brikoin/brikoin/contracts/factory/TermsFactory.sol",
  "compiler": {
    "name": "solc",
    "version": "0.4.24+commit.e67f0147.Emscripten.clang"
  },
  "schemaVersion": "2.0.1",
  "updatedAt": "2019-10-27T14:12:11.009Z"
}