{
  "contractName": "TokenApproveFactory",
  "abi": [
    {
      "constant": false,
      "inputs": [],
      "name": "renounceOwnership",
      "outputs": [],
      "payable": false,
      "stateMutability": "nonpayable",
      "type": "function"
    },
    {
      "constant": true,
      "inputs": [],
      "name": "owner",
      "outputs": [
        {
          "name": "",
          "type": "address"
        }
      ],
      "payable": false,
      "stateMutability": "view",
      "type": "function"
    },
    {
      "constant": false,
      "inputs": [
        {
          "name": "_newOwner",
          "type": "address"
        }
      ],
      "name": "transferOwnership",
      "outputs": [],
      "payable": false,
      "stateMutability": "nonpayable",
      "type": "function"
    },
    {
      "anonymous": false,
      "inputs": [
        {
          "indexed": false,
          "name": "Asset",
          "type": "address"
        }
      ],
      "name": "TokenApproveContractCreated",
      "type": "event"
    },
    {
      "anonymous": false,
      "inputs": [
        {
          "indexed": true,
          "name": "previousOwner",
          "type": "address"
        }
      ],
      "name": "OwnershipRenounced",
      "type": "event"
    },
    {
      "anonymous": false,
      "inputs": [
        {
          "indexed": true,
          "name": "previousOwner",
          "type": "address"
        },
        {
          "indexed": true,
          "name": "newOwner",
          "type": "address"
        }
      ],
      "name": "OwnershipTransferred",
      "type": "event"
    },
    {
      "constant": false,
      "inputs": [
        {
          "name": "_baseCornerContractAddress",
          "type": "address"
        },
        {
          "name": "_stoneCoinAddress",
          "type": "address"
        },
        {
          "name": "_fromUser",
          "type": "address"
        },
        {
          "name": "_toUser",
          "type": "address"
        },
        {
          "name": "_units",
          "type": "uint256"
        },
        {
          "name": "key",
          "type": "uint256"
        }
      ],
      "name": "createTokenApprove",
      "outputs": [
        {
          "name": "",
          "type": "address"
        }
      ],
      "payable": false,
      "stateMutability": "nonpayable",
      "type": "function"
    },
    {
      "constant": true,
      "inputs": [
        {
          "name": "key",
          "type": "uint256"
        }
      ],
      "name": "getContractAddress",
      "outputs": [
        {
          "name": "",
          "type": "address"
        }
      ],
      "payable": false,
      "stateMutability": "view",
      "type": "function"
    }
  ],
  "bytecode": "0x608060405260008054600160a060020a031916331790556109c1806100256000396000f30060806040526004361061006c5763ffffffff7c01000000000000000000000000000000000000000000000000000000006000350416636cc22c0b8114610071578063715018a6146100e05780638da5cb5b146100f7578063aefa7d981461010c578063f2fde38b14610124575b600080fd5b34801561007d57600080fd5b506100b773ffffffffffffffffffffffffffffffffffffffff6004358116906024358116906044358116906064351660843560a435610152565b6040805173ffffffffffffffffffffffffffffffffffffffff9092168252519081900360200190f35b3480156100ec57600080fd5b506100f5610279565b005b34801561010357600080fd5b506100b76102ff565b34801561011857600080fd5b506100b760043561031b565b34801561013057600080fd5b506100f573ffffffffffffffffffffffffffffffffffffffff60043516610343565b60008054819073ffffffffffffffffffffffffffffffffffffffff16331461017957600080fd5b8787878787610186610417565b73ffffffffffffffffffffffffffffffffffffffff9586168152938516602085015291841660408085019190915293166060830152608082015290519081900360a001906000f0801580156101df573d6000803e3d6000fd5b506040805173ffffffffffffffffffffffffffffffffffffffff8316815290519192507f53bd3b473e43884a3ae4f8c1e4c104e21590118e441d4376fc25a0f3c63606fb919081900360200190a1600092835260016020526040909220805473ffffffffffffffffffffffffffffffffffffffff191673ffffffffffffffffffffffffffffffffffffffff84161790555095945050505050565b60005473ffffffffffffffffffffffffffffffffffffffff16331461029d57600080fd5b6000805460405173ffffffffffffffffffffffffffffffffffffffff909116917ff8df31144d9c2f0f6b59d69b8b98abd5459d07f2742c4df920b25aae33c6482091a26000805473ffffffffffffffffffffffffffffffffffffffff19169055565b60005473ffffffffffffffffffffffffffffffffffffffff1681565b60009081526001602052604090205473ffffffffffffffffffffffffffffffffffffffff1690565b60005473ffffffffffffffffffffffffffffffffffffffff16331461036757600080fd5b61037081610373565b50565b73ffffffffffffffffffffffffffffffffffffffff8116151561039557600080fd5b6000805460405173ffffffffffffffffffffffffffffffffffffffff808516939216917f8be0079c531659141344cd1fd0a4f28419497f9722a3daafe3b4186f6b6457e091a36000805473ffffffffffffffffffffffffffffffffffffffff191673ffffffffffffffffffffffffffffffffffffffff92909216919091179055565b60405161056e80610428833901905600608060405234801561001057600080fd5b5060405160a08061056e8339810160409081528151602083015191830151606084015160809094015160008054600160a060020a0319908116331790915560048054600160a060020a0395861690831617905560038054958516958216959095179094556001805492841692851692909217909155600280549290941691909216179091556005556104c7806100a76000396000f3006080604052600436106100985763ffffffff7c010000000000000000000000000000000000000000000000000000000060003504166328f371aa811461009d57806332269243146100c657806343d00d0414610104578063715018a61461011b5780638da5cb5b1461013057806394704c9014610145578063976a84351461015a578063f04414f214610181578063f2fde38b14610196575b600080fd5b3480156100a957600080fd5b506100b26101c4565b604080519115158252519081900360200190f35b3480156100d257600080fd5b506100db6101e5565b6040805173ffffffffffffffffffffffffffffffffffffffff9092168252519081900360200190f35b34801561011057600080fd5b50610119610201565b005b34801561012757600080fd5b506101196102e7565b34801561013c57600080fd5b506100db61036d565b34801561015157600080fd5b506100db610389565b34801561016657600080fd5b5061016f6103a5565b60408051918252519081900360200190f35b34801561018d57600080fd5b506100db6103ab565b3480156101a257600080fd5b5061011973ffffffffffffffffffffffffffffffffffffffff600435166103c7565b60045474010000000000000000000000000000000000000000900460ff1681565b60015473ffffffffffffffffffffffffffffffffffffffff1681565b60048054604080517f6f8ee4c600000000000000000000000000000000000000000000000000000000815233938101939093525173ffffffffffffffffffffffffffffffffffffffff909116918291636f8ee4c6916024808201926020929091908290030181600087803b15801561027857600080fd5b505af115801561028c573d6000803e3d6000fd5b505050506040513d60208110156102a257600080fd5b505115156102af57600080fd5b506004805474ff0000000000000000000000000000000000000000191674010000000000000000000000000000000000000000179055565b60005473ffffffffffffffffffffffffffffffffffffffff16331461030b57600080fd5b6000805460405173ffffffffffffffffffffffffffffffffffffffff909116917ff8df31144d9c2f0f6b59d69b8b98abd5459d07f2742c4df920b25aae33c6482091a26000805473ffffffffffffffffffffffffffffffffffffffff19169055565b60005473ffffffffffffffffffffffffffffffffffffffff1681565b60025473ffffffffffffffffffffffffffffffffffffffff1681565b60055481565b60035473ffffffffffffffffffffffffffffffffffffffff1681565b60005473ffffffffffffffffffffffffffffffffffffffff1633146103eb57600080fd5b6103f4816103f7565b50565b73ffffffffffffffffffffffffffffffffffffffff8116151561041957600080fd5b6000805460405173ffffffffffffffffffffffffffffffffffffffff808516939216917f8be0079c531659141344cd1fd0a4f28419497f9722a3daafe3b4186f6b6457e091a36000805473ffffffffffffffffffffffffffffffffffffffff191673ffffffffffffffffffffffffffffffffffffffff929092169190911790555600a165627a7a72305820e718df2946b90c321dd3a1fb7667f67f0b43dd113c2a9e65c68e2b6141c2e4650029a165627a7a72305820664f1ab2218fabaa889d0474ce3151b6fbdad867119fa67efd13df15293358ff0029",
  "source": "pragma solidity ^0.4.24;\n\nimport 'openzeppelin-solidity/contracts/ownership/Ownable.sol';\nimport 'openzeppelin-solidity/contracts/math/SafeMath.sol';\nimport '../structures/TokenApproveContract.sol';\n\ncontract TokenApproveFactory is Ownable{\n    using SafeMath for uint256;\n    event TokenApproveContractCreated(address Asset);\n    mapping(uint256 => address) keyToContractAddress;\n    function createTokenApprove(\n        address _baseCornerContractAddress,\n        address _stoneCoinAddress,\n        address _fromUser,\n        address _toUser,\n        uint256 _units,\n        uint256 key\n    ) public onlyOwner returns(address){\n\n        TokenApproveContract newContract = new TokenApproveContract(_baseCornerContractAddress,\n            _stoneCoinAddress,\n            _fromUser,\n            _toUser,\n            _units);\n        emit TokenApproveContractCreated(address(newContract));\n        keyToContractAddress[key] = address(newContract);\n        return address(newContract);\n    }\n\n    function getContractAddress( uint256 key) public view returns (address) {\n        return keyToContractAddress[key];\n    }\n\n\n\n}\n",
  "sourcePath": "/Users/roilandshut/projects/brikoin/brikoin/contracts/factory/TokenApproveFactory.sol",
  "compiler": {
    "name": "solc",
    "version": "0.4.24+commit.e67f0147.Emscripten.clang"
  },
  "schemaVersion": "2.0.1",
  "updatedAt": "2019-10-27T14:12:11.008Z"
}