{
  "contractName": "TokenApproveContract",
  "abi": [
    {
      "constant": true,
      "inputs": [],
      "name": "isApproved",
      "outputs": [
        {
          "name": "",
          "type": "bool"
        }
      ],
      "payable": false,
      "stateMutability": "view",
      "type": "function"
    },
    {
      "constant": true,
      "inputs": [],
      "name": "fromUser",
      "outputs": [
        {
          "name": "",
          "type": "address"
        }
      ],
      "payable": false,
      "stateMutability": "view",
      "type": "function"
    },
    {
      "constant": false,
      "inputs": [],
      "name": "renounceOwnership",
      "outputs": [],
      "payable": false,
      "stateMutability": "nonpayable",
      "type": "function"
    },
    {
      "constant": true,
      "inputs": [],
      "name": "owner",
      "outputs": [
        {
          "name": "",
          "type": "address"
        }
      ],
      "payable": false,
      "stateMutability": "view",
      "type": "function"
    },
    {
      "constant": true,
      "inputs": [],
      "name": "toUser",
      "outputs": [
        {
          "name": "",
          "type": "address"
        }
      ],
      "payable": false,
      "stateMutability": "view",
      "type": "function"
    },
    {
      "constant": true,
      "inputs": [],
      "name": "units",
      "outputs": [
        {
          "name": "",
          "type": "uint256"
        }
      ],
      "payable": false,
      "stateMutability": "view",
      "type": "function"
    },
    {
      "constant": true,
      "inputs": [],
      "name": "stoneCoinAddress",
      "outputs": [
        {
          "name": "",
          "type": "address"
        }
      ],
      "payable": false,
      "stateMutability": "view",
      "type": "function"
    },
    {
      "constant": false,
      "inputs": [
        {
          "name": "_newOwner",
          "type": "address"
        }
      ],
      "name": "transferOwnership",
      "outputs": [],
      "payable": false,
      "stateMutability": "nonpayable",
      "type": "function"
    },
    {
      "inputs": [
        {
          "name": "_baseCornerContractAddress",
          "type": "address"
        },
        {
          "name": "_stoneCoinAddress",
          "type": "address"
        },
        {
          "name": "_fromUser",
          "type": "address"
        },
        {
          "name": "_toUser",
          "type": "address"
        },
        {
          "name": "_units",
          "type": "uint256"
        }
      ],
      "payable": false,
      "stateMutability": "nonpayable",
      "type": "constructor"
    },
    {
      "anonymous": false,
      "inputs": [
        {
          "indexed": true,
          "name": "previousOwner",
          "type": "address"
        }
      ],
      "name": "OwnershipRenounced",
      "type": "event"
    },
    {
      "anonymous": false,
      "inputs": [
        {
          "indexed": true,
          "name": "previousOwner",
          "type": "address"
        },
        {
          "indexed": true,
          "name": "newOwner",
          "type": "address"
        }
      ],
      "name": "OwnershipTransferred",
      "type": "event"
    },
    {
      "constant": false,
      "inputs": [],
      "name": "approveContract",
      "outputs": [],
      "payable": false,
      "stateMutability": "nonpayable",
      "type": "function"
    }
  ],
  "bytecode": "0x608060405234801561001057600080fd5b5060405160a08061056e8339810160409081528151602083015191830151606084015160809094015160008054600160a060020a0319908116331790915560048054600160a060020a0395861690831617905560038054958516958216959095179094556001805492841692851692909217909155600280549290941691909216179091556005556104c7806100a76000396000f3006080604052600436106100985763ffffffff7c010000000000000000000000000000000000000000000000000000000060003504166328f371aa811461009d57806332269243146100c657806343d00d0414610104578063715018a61461011b5780638da5cb5b1461013057806394704c9014610145578063976a84351461015a578063f04414f214610181578063f2fde38b14610196575b600080fd5b3480156100a957600080fd5b506100b26101c4565b604080519115158252519081900360200190f35b3480156100d257600080fd5b506100db6101e5565b6040805173ffffffffffffffffffffffffffffffffffffffff9092168252519081900360200190f35b34801561011057600080fd5b50610119610201565b005b34801561012757600080fd5b506101196102e7565b34801561013c57600080fd5b506100db61036d565b34801561015157600080fd5b506100db610389565b34801561016657600080fd5b5061016f6103a5565b60408051918252519081900360200190f35b34801561018d57600080fd5b506100db6103ab565b3480156101a257600080fd5b5061011973ffffffffffffffffffffffffffffffffffffffff600435166103c7565b60045474010000000000000000000000000000000000000000900460ff1681565b60015473ffffffffffffffffffffffffffffffffffffffff1681565b60048054604080517f6f8ee4c600000000000000000000000000000000000000000000000000000000815233938101939093525173ffffffffffffffffffffffffffffffffffffffff909116918291636f8ee4c6916024808201926020929091908290030181600087803b15801561027857600080fd5b505af115801561028c573d6000803e3d6000fd5b505050506040513d60208110156102a257600080fd5b505115156102af57600080fd5b506004805474ff0000000000000000000000000000000000000000191674010000000000000000000000000000000000000000179055565b60005473ffffffffffffffffffffffffffffffffffffffff16331461030b57600080fd5b6000805460405173ffffffffffffffffffffffffffffffffffffffff909116917ff8df31144d9c2f0f6b59d69b8b98abd5459d07f2742c4df920b25aae33c6482091a26000805473ffffffffffffffffffffffffffffffffffffffff19169055565b60005473ffffffffffffffffffffffffffffffffffffffff1681565b60025473ffffffffffffffffffffffffffffffffffffffff1681565b60055481565b60035473ffffffffffffffffffffffffffffffffffffffff1681565b60005473ffffffffffffffffffffffffffffffffffffffff1633146103eb57600080fd5b6103f4816103f7565b50565b73ffffffffffffffffffffffffffffffffffffffff8116151561041957600080fd5b6000805460405173ffffffffffffffffffffffffffffffffffffffff808516939216917f8be0079c531659141344cd1fd0a4f28419497f9722a3daafe3b4186f6b6457e091a36000805473ffffffffffffffffffffffffffffffffffffffff191673ffffffffffffffffffffffffffffffffffffffff929092169190911790555600a165627a7a72305820e718df2946b90c321dd3a1fb7667f67f0b43dd113c2a9e65c68e2b6141c2e4650029",
  "source": "pragma solidity ^0.4.0;\n\nimport 'openzeppelin-solidity/contracts/ownership/Ownable.sol';\nimport 'openzeppelin-solidity/contracts/math/SafeMath.sol';\nimport \"../StoneCoin.sol\";\nimport \"../CornerStoneBase.sol\";\n\ncontract TokenApproveContract is Ownable{\n    using SafeMath for uint256;\n    address public fromUser;\n    address public toUser;\n    address public stoneCoinAddress;\n    address        baseCornerContractAddress;\n    bool    public isApproved;\n    uint256 public units;\n\n\n    constructor(\n        address _baseCornerContractAddress,\n        address _stoneCoinAddress, address _fromUser, address _toUser, uint256 _units\n    ) Ownable() public {\n        baseCornerContractAddress = _baseCornerContractAddress;\n        stoneCoinAddress = _stoneCoinAddress;\n        fromUser = _fromUser;\n        toUser = _toUser;\n        units = _units;\n    }\n\n    function approveContract() public {\n        CornerStoneBase cornerStone = CornerStoneBase(baseCornerContractAddress);\n        require(cornerStone.isTokenApproveRole(msg.sender));\n        isApproved = true;\n    }\n\n\n}\n",
  "sourcePath": "/Users/roilandshut/projects/brikoin/brikoin/contracts/structures/TokenApproveContract.sol",
  "compiler": {
    "name": "solc",
    "version": "0.4.24+commit.e67f0147.Emscripten.clang"
  },
  "schemaVersion": "2.0.1",
  "updatedAt": "2019-10-27T14:12:11.114Z"
}