{
  "contractName": "TransactionTaxes",
  "abi": [
    {
      "constant": true,
      "inputs": [
        {
          "name": "",
          "type": "address"
        }
      ],
      "name": "owners",
      "outputs": [
        {
          "name": "",
          "type": "bool"
        }
      ],
      "payable": false,
      "stateMutability": "view",
      "type": "function"
    },
    {
      "constant": false,
      "inputs": [
        {
          "name": "_newOwner",
          "type": "address"
        }
      ],
      "name": "setOwner",
      "outputs": [],
      "payable": false,
      "stateMutability": "nonpayable",
      "type": "function"
    },
    {
      "constant": true,
      "inputs": [],
      "name": "getAddress",
      "outputs": [
        {
          "name": "",
          "type": "address"
        }
      ],
      "payable": false,
      "stateMutability": "view",
      "type": "function"
    },
    {
      "constant": false,
      "inputs": [
        {
          "name": "_newOwner",
          "type": "address"
        }
      ],
      "name": "removeOwnership",
      "outputs": [],
      "payable": false,
      "stateMutability": "nonpayable",
      "type": "function"
    },
    {
      "constant": true,
      "inputs": [],
      "name": "owner",
      "outputs": [
        {
          "name": "",
          "type": "address"
        }
      ],
      "payable": false,
      "stateMutability": "view",
      "type": "function"
    },
    {
      "constant": true,
      "inputs": [
        {
          "name": "user",
          "type": "address"
        }
      ],
      "name": "isOwnable",
      "outputs": [
        {
          "name": "",
          "type": "bool"
        }
      ],
      "payable": false,
      "stateMutability": "view",
      "type": "function"
    },
    {
      "constant": false,
      "inputs": [
        {
          "name": "_newOwner",
          "type": "address"
        }
      ],
      "name": "addOwnership",
      "outputs": [],
      "payable": false,
      "stateMutability": "nonpayable",
      "type": "function"
    },
    {
      "inputs": [
        {
          "name": "_stoneCoinAddress",
          "type": "address"
        }
      ],
      "payable": false,
      "stateMutability": "nonpayable",
      "type": "constructor"
    },
    {
      "anonymous": false,
      "inputs": [
        {
          "indexed": true,
          "name": "previousOwner",
          "type": "address"
        }
      ],
      "name": "OwnershipRenounced",
      "type": "event"
    },
    {
      "anonymous": false,
      "inputs": [
        {
          "indexed": true,
          "name": "previousOwner",
          "type": "address"
        },
        {
          "indexed": true,
          "name": "newOwner",
          "type": "address"
        }
      ],
      "name": "OwnershipTransferred",
      "type": "event"
    },
    {
      "constant": false,
      "inputs": [
        {
          "name": "taxEntity",
          "type": "address"
        }
      ],
      "name": "addBuyerTaxes",
      "outputs": [],
      "payable": false,
      "stateMutability": "nonpayable",
      "type": "function"
    },
    {
      "constant": true,
      "inputs": [],
      "name": "getBuyerTaxEntitiesLength",
      "outputs": [
        {
          "name": "",
          "type": "uint256"
        }
      ],
      "payable": false,
      "stateMutability": "view",
      "type": "function"
    },
    {
      "constant": true,
      "inputs": [
        {
          "name": "index",
          "type": "uint256"
        }
      ],
      "name": "getBuyerTaxEntity",
      "outputs": [
        {
          "name": "",
          "type": "address"
        }
      ],
      "payable": false,
      "stateMutability": "view",
      "type": "function"
    },
    {
      "constant": false,
      "inputs": [
        {
          "name": "taxEntity",
          "type": "address"
        }
      ],
      "name": "addSelleTaxes",
      "outputs": [],
      "payable": false,
      "stateMutability": "nonpayable",
      "type": "function"
    },
    {
      "constant": true,
      "inputs": [],
      "name": "getSellerTaxEntitiesLength",
      "outputs": [
        {
          "name": "",
          "type": "uint256"
        }
      ],
      "payable": false,
      "stateMutability": "view",
      "type": "function"
    },
    {
      "constant": true,
      "inputs": [],
      "name": "getStoneCoinAddress",
      "outputs": [
        {
          "name": "",
          "type": "address"
        }
      ],
      "payable": false,
      "stateMutability": "view",
      "type": "function"
    },
    {
      "constant": true,
      "inputs": [
        {
          "name": "index",
          "type": "uint256"
        }
      ],
      "name": "getSellerTaxEntity",
      "outputs": [
        {
          "name": "",
          "type": "address"
        }
      ],
      "payable": false,
      "stateMutability": "view",
      "type": "function"
    }
  ],
  "bytecode": "0x608060405234801561001057600080fd5b5060405160208061061d8339810160409081529051336000818152602081905292909220805460ff191660019081179091558054600160a060020a0319908116909317905560048054600160a060020a03909216919092161790556105a38061007a6000396000f3006080604052600436106100cf5763ffffffff7c0100000000000000000000000000000000000000000000000000000000600035041663022914a781146100d457806313af40351461010957806338cc48311461012c57806339a4f7271461015d5780634538f92f1461017e578063666a34271461019357806375f2e4e5146101b4578063785cad0b146101cc5780638d9e55f3146101e45780638da5cb5b1461020b5780639be69835146102205780639fb9e7bd14610241578063e88914de14610256578063f5a55ff614610277575b600080fd5b3480156100e057600080fd5b506100f5600160a060020a0360043516610298565b604080519115158252519081900360200190f35b34801561011557600080fd5b5061012a600160a060020a03600435166102ad565b005b34801561013857600080fd5b506101416102fa565b60408051600160a060020a039092168252519081900360200190f35b34801561016957600080fd5b5061012a600160a060020a03600435166102fe565b34801561018a57600080fd5b5061014161037b565b34801561019f57600080fd5b5061012a600160a060020a036004351661038a565b3480156101c057600080fd5b506101416004356103b4565b3480156101d857600080fd5b506101416004356103e0565b3480156101f057600080fd5b506101f96103f1565b60408051918252519081900360200190f35b34801561021757600080fd5b506101416103f7565b34801561022c57600080fd5b5061012a600160a060020a0360043516610406565b34801561024d57600080fd5b506101f9610483565b34801561026257600080fd5b506100f5600160a060020a0360043516610489565b34801561028357600080fd5b5061012a600160a060020a03600435166104a7565b60006020819052908152604090205460ff1681565b3360009081526020819052604090205460ff1615156102cb57600080fd5b6001805473ffffffffffffffffffffffffffffffffffffffff1916600160a060020a0392909216919091179055565b3090565b3360009081526020819052604090205460ff16151561031c57600080fd5b600280546001810182556000919091527f405787fa12a823e0f2b7631cc41b3ba8828b3321ca811111fa75cd3aa3bb5ace01805473ffffffffffffffffffffffffffffffffffffffff1916600160a060020a0392909216919091179055565b600454600160a060020a031690565b3360009081526020819052604090205460ff1615156103a857600080fd5b6103b1816104ce565b50565b60006003828154811015156103c557fe5b600091825260209091200154600160a060020a031692915050565b60006002828154811015156103c557fe5b60025490565b600154600160a060020a031681565b3360009081526020819052604090205460ff16151561042457600080fd5b600380546001810182556000919091527fc2575a0e9e593c00f959f8c92f12db2869c3395a3b0502d05e2516446f71f85b01805473ffffffffffffffffffffffffffffffffffffffff1916600160a060020a0392909216919091179055565b60035490565b600160a060020a031660009081526020819052604090205460ff1690565b3360009081526020819052604090205460ff1615156104c557600080fd5b6103b181610504565b600160a060020a03811615156104e357600080fd5b600160a060020a03166000908152602081905260409020805460ff19169055565b600160a060020a038116151561051957600080fd5b600154604051600160a060020a038084169216907f8be0079c531659141344cd1fd0a4f28419497f9722a3daafe3b4186f6b6457e090600090a3600160a060020a03166000908152602081905260409020805460ff191660011790555600a165627a7a723058206e582c01f0ca3b1a752cc29462e63c65f54cff3a4703b3780b9c56a553052ad40029",
  "source": "pragma solidity ^0.4.0;\nimport 'openzeppelin-solidity/contracts/math/SafeMath.sol';\nimport \"../interfaces/Ownables.sol\";\nimport \"../interfaces/TransactionTaxesInt.sol\";\ncontract TransactionTaxes  is Ownables, TransactionTaxesInt{\n    using SafeMath for uint256;\n    address[] sellerTaxes;\n    address[] buyerTaxes;\n    address stoneCoinAddress;\n\n    constructor (address _stoneCoinAddress\n    ) Ownables() public {\n        stoneCoinAddress = _stoneCoinAddress;\n    }\n\n    function addBuyerTaxes(address taxEntity) public onlyOwner{\n        buyerTaxes.push(taxEntity);\n    }\n\n    function getBuyerTaxEntitiesLength() public view returns(uint256){\n       return buyerTaxes.length;\n    }\n    function getBuyerTaxEntity(uint index) public view returns(address){\n       return buyerTaxes[index];\n    }\n\n    function addSelleTaxes(address taxEntity) public onlyOwner{\n        sellerTaxes.push(taxEntity);\n    }\n\n    function getSellerTaxEntitiesLength() public view returns(uint256){\n       return sellerTaxes.length;\n    }\n    function getStoneCoinAddress() public view returns(address){\n       return stoneCoinAddress;\n    }\n    function getSellerTaxEntity(uint index) public view returns(address){\n       return sellerTaxes[index];\n    }\n\n}\n",
  "sourcePath": "/Users/roilandshut/projects/brikoin/brikoin/contracts/structures/TransactionTaxes.sol",
  "compiler": {
    "name": "solc",
    "version": "0.4.24+commit.e67f0147.Emscripten.clang"
  },
  "schemaVersion": "2.0.1",
  "updatedAt": "2019-10-27T14:12:11.132Z"
}