{
  "contractName": "Trustee",
  "abi": [
    {
      "constant": false,
      "inputs": [],
      "name": "renounceOwnership",
      "outputs": [],
      "payable": false,
      "stateMutability": "nonpayable",
      "type": "function"
    },
    {
      "constant": true,
      "inputs": [],
      "name": "owner",
      "outputs": [
        {
          "name": "",
          "type": "address"
        }
      ],
      "payable": false,
      "stateMutability": "view",
      "type": "function"
    },
    {
      "constant": true,
      "inputs": [
        {
          "name": "",
          "type": "address"
        }
      ],
      "name": "valid",
      "outputs": [
        {
          "name": "",
          "type": "bool"
        }
      ],
      "payable": false,
      "stateMutability": "view",
      "type": "function"
    },
    {
      "constant": false,
      "inputs": [
        {
          "name": "_newOwner",
          "type": "address"
        }
      ],
      "name": "transferOwnership",
      "outputs": [],
      "payable": false,
      "stateMutability": "nonpayable",
      "type": "function"
    },
    {
      "inputs": [
        {
          "name": "_name",
          "type": "bytes32"
        },
        {
          "name": "_trusteeType",
          "type": "uint8"
        },
        {
          "name": "_licenseNumber",
          "type": "bytes32"
        },
        {
          "name": "_country",
          "type": "bytes32"
        },
        {
          "name": "_address1",
          "type": "bytes32"
        },
        {
          "name": "_address2",
          "type": "bytes32"
        },
        {
          "name": "_contactFirstName",
          "type": "bytes32"
        },
        {
          "name": "_contactSecondName",
          "type": "bytes32"
        },
        {
          "name": "_phoneNumber",
          "type": "bytes32"
        },
        {
          "name": "_email",
          "type": "bytes32"
        },
        {
          "name": "_url",
          "type": "bytes32"
        },
        {
          "name": "_urlMD5",
          "type": "bytes32"
        }
      ],
      "payable": false,
      "stateMutability": "nonpayable",
      "type": "constructor"
    },
    {
      "anonymous": false,
      "inputs": [
        {
          "indexed": true,
          "name": "previousOwner",
          "type": "address"
        }
      ],
      "name": "OwnershipRenounced",
      "type": "event"
    },
    {
      "anonymous": false,
      "inputs": [
        {
          "indexed": true,
          "name": "previousOwner",
          "type": "address"
        },
        {
          "indexed": true,
          "name": "newOwner",
          "type": "address"
        }
      ],
      "name": "OwnershipTransferred",
      "type": "event"
    },
    {
      "constant": false,
      "inputs": [
        {
          "name": "_stoneCoinAddress",
          "type": "address"
        }
      ],
      "name": "remove",
      "outputs": [],
      "payable": false,
      "stateMutability": "nonpayable",
      "type": "function"
    }
  ],
  "bytecode": "0x608060405234801561001057600080fd5b506040516101808061045383398101604090815281516020830151918301516060840151608085015160a086015160c087015160e08801516101008901516101208a01516101408b0151610160909b015160008054600160a060020a0319163317905560018a8155600280549b9d9a9b999a989997989697959694959394938d9260ff199091169083838111156100a357fe5b0217905550600399909955600497909755600595909555600693909355600791909155600855600955600a55600b55600d55505061036d806100e66000396000f30060806040526004361061006c5763ffffffff7c010000000000000000000000000000000000000000000000000000000060003504166329092d0e8114610071578063715018a6146100a15780638da5cb5b146100b6578063ac8a260c146100f4578063f2fde38b14610136575b600080fd5b34801561007d57600080fd5b5061009f73ffffffffffffffffffffffffffffffffffffffff60043516610164565b005b3480156100ad57600080fd5b5061009f6101b6565b3480156100c257600080fd5b506100cb61023c565b6040805173ffffffffffffffffffffffffffffffffffffffff9092168252519081900360200190f35b34801561010057600080fd5b5061012273ffffffffffffffffffffffffffffffffffffffff60043516610258565b604080519115158252519081900360200190f35b34801561014257600080fd5b5061009f73ffffffffffffffffffffffffffffffffffffffff6004351661026d565b60005473ffffffffffffffffffffffffffffffffffffffff16331461018857600080fd5b73ffffffffffffffffffffffffffffffffffffffff166000908152600c60205260409020805460ff19169055565b60005473ffffffffffffffffffffffffffffffffffffffff1633146101da57600080fd5b6000805460405173ffffffffffffffffffffffffffffffffffffffff909116917ff8df31144d9c2f0f6b59d69b8b98abd5459d07f2742c4df920b25aae33c6482091a26000805473ffffffffffffffffffffffffffffffffffffffff19169055565b60005473ffffffffffffffffffffffffffffffffffffffff1681565b600c6020526000908152604090205460ff1681565b60005473ffffffffffffffffffffffffffffffffffffffff16331461029157600080fd5b61029a8161029d565b50565b73ffffffffffffffffffffffffffffffffffffffff811615156102bf57600080fd5b6000805460405173ffffffffffffffffffffffffffffffffffffffff808516939216917f8be0079c531659141344cd1fd0a4f28419497f9722a3daafe3b4186f6b6457e091a36000805473ffffffffffffffffffffffffffffffffffffffff191673ffffffffffffffffffffffffffffffffffffffff929092169190911790555600a165627a7a723058200f179b6cfbfef3c69a00a0803b73bf9fdc5219d2bc9b20983f2100f04f8c811d0029",
  "source": "pragma solidity ^0.4.24;\nimport \"openzeppelin-solidity/contracts/ownership/Ownable.sol\";\nimport 'openzeppelin-solidity/contracts/math/SafeMath.sol';\nimport \"../libs/types.sol\";\n\ncontract Trustee is Ownable{\n    using SafeMath for uint256;\n\n\n    bytes32 name;\n    Types.TrusteeType trusteeType;\n    bytes32 licenseNumber;\n    bytes32 country;\n    bytes32 address1;\n    bytes32 address2;\n    bytes32 contactFirstName;\n    bytes32 contactSecondName;\n    bytes32 phoneNumber;\n    bytes32 email;\n    bytes32 url;\n    mapping(address => bool) public valid;\n    bytes32 urlMD5;\n\n    constructor (\n        bytes32         _name,\n        Types.TrusteeType    _trusteeType,\n        bytes32         _licenseNumber,\n        bytes32         _country,\n        bytes32         _address1,\n        bytes32         _address2,\n        bytes32         _contactFirstName,\n        bytes32         _contactSecondName,\n        bytes32         _phoneNumber,\n        bytes32         _email,\n        bytes32         _url,\n        bytes32         _urlMD5\n    ) Ownable() public  {\n\n        name = _name;\n        trusteeType = _trusteeType;\n        licenseNumber = _licenseNumber;\n        country = _country;\n        address1 = _address1;\n        address2 = _address2;\n        contactFirstName = _contactFirstName;\n        contactSecondName = _contactSecondName;\n        phoneNumber = _phoneNumber;\n        email = _email;\n        url = _url;\n        urlMD5 = _urlMD5;\n    }\n\n    function remove(address _stoneCoinAddress)  public onlyOwner {\n        valid[_stoneCoinAddress] = false;\n    }\n\n\n}\n",
  "sourcePath": "/Users/roilandshut/projects/brikoin/brikoin/contracts/structures/Trustee.sol",
  "compiler": {
    "name": "solc",
    "version": "0.4.24+commit.e67f0147.Emscripten.clang"
  },
  "schemaVersion": "2.0.1",
  "updatedAt": "2019-10-27T14:12:11.134Z"
}