{
  "contractName": "VotingFactory",
  "abi": [
    {
      "constant": false,
      "inputs": [],
      "name": "renounceOwnership",
      "outputs": [],
      "payable": false,
      "stateMutability": "nonpayable",
      "type": "function"
    },
    {
      "constant": true,
      "inputs": [],
      "name": "owner",
      "outputs": [
        {
          "name": "",
          "type": "address"
        }
      ],
      "payable": false,
      "stateMutability": "view",
      "type": "function"
    },
    {
      "constant": false,
      "inputs": [
        {
          "name": "_newOwner",
          "type": "address"
        }
      ],
      "name": "transferOwnership",
      "outputs": [],
      "payable": false,
      "stateMutability": "nonpayable",
      "type": "function"
    },
    {
      "anonymous": false,
      "inputs": [
        {
          "indexed": false,
          "name": "Voting",
          "type": "address"
        }
      ],
      "name": "VotingCreated",
      "type": "event"
    },
    {
      "anonymous": false,
      "inputs": [
        {
          "indexed": true,
          "name": "previousOwner",
          "type": "address"
        }
      ],
      "name": "OwnershipRenounced",
      "type": "event"
    },
    {
      "anonymous": false,
      "inputs": [
        {
          "indexed": true,
          "name": "previousOwner",
          "type": "address"
        },
        {
          "indexed": true,
          "name": "newOwner",
          "type": "address"
        }
      ],
      "name": "OwnershipTransferred",
      "type": "event"
    },
    {
      "constant": false,
      "inputs": [
        {
          "name": "_stoneCoinAddress",
          "type": "address"
        },
        {
          "name": "_url",
          "type": "bytes32"
        },
        {
          "name": "_urlMD5",
          "type": "bytes32"
        },
        {
          "name": "_dueDate",
          "type": "uint256"
        }
      ],
      "name": "createVoting",
      "outputs": [
        {
          "name": "",
          "type": "address"
        }
      ],
      "payable": false,
      "stateMutability": "nonpayable",
      "type": "function"
    },
    {
      "constant": false,
      "inputs": [
        {
          "name": "voting",
          "type": "address"
        },
        {
          "name": "_url",
          "type": "bytes32"
        },
        {
          "name": "_md5",
          "type": "bytes32"
        }
      ],
      "name": "addVoteOptions",
      "outputs": [
        {
          "name": "",
          "type": "bool"
        }
      ],
      "payable": false,
      "stateMutability": "nonpayable",
      "type": "function"
    },
    {
      "constant": true,
      "inputs": [
        {
          "name": "voting",
          "type": "address"
        }
      ],
      "name": "isVoted",
      "outputs": [
        {
          "name": "success",
          "type": "bool"
        }
      ],
      "payable": false,
      "stateMutability": "view",
      "type": "function"
    },
    {
      "constant": false,
      "inputs": [
        {
          "name": "voting",
          "type": "address"
        },
        {
          "name": "voteOption",
          "type": "uint256"
        }
      ],
      "name": "vote",
      "outputs": [
        {
          "name": "success",
          "type": "bool"
        }
      ],
      "payable": false,
      "stateMutability": "nonpayable",
      "type": "function"
    },
    {
      "constant": true,
      "inputs": [
        {
          "name": "voting",
          "type": "address"
        }
      ],
      "name": "voteResult",
      "outputs": [
        {
          "name": "",
          "type": "uint256"
        }
      ],
      "payable": false,
      "stateMutability": "view",
      "type": "function"
    },
    {
      "constant": true,
      "inputs": [
        {
          "name": "voting",
          "type": "address"
        },
        {
          "name": "optionIndex",
          "type": "uint256"
        }
      ],
      "name": "getTotalVotingUnits",
      "outputs": [
        {
          "name": "",
          "type": "uint256"
        }
      ],
      "payable": false,
      "stateMutability": "view",
      "type": "function"
    },
    {
      "constant": true,
      "inputs": [
        {
          "name": "voting",
          "type": "address"
        }
      ],
      "name": "isEnded",
      "outputs": [
        {
          "name": "",
          "type": "bool"
        }
      ],
      "payable": false,
      "stateMutability": "view",
      "type": "function"
    },
    {
      "constant": true,
      "inputs": [
        {
          "name": "voting",
          "type": "address"
        },
        {
          "name": "optionIndex",
          "type": "uint256"
        }
      ],
      "name": "getVoteOption",
      "outputs": [
        {
          "name": "",
          "type": "bytes32"
        }
      ],
      "payable": false,
      "stateMutability": "view",
      "type": "function"
    },
    {
      "constant": true,
      "inputs": [
        {
          "name": "voting",
          "type": "address"
        },
        {
          "name": "optionIndex",
          "type": "uint256"
        }
      ],
      "name": "getVoteOptionMd5",
      "outputs": [
        {
          "name": "",
          "type": "bytes32"
        }
      ],
      "payable": false,
      "stateMutability": "view",
      "type": "function"
    },
    {
      "constant": true,
      "inputs": [
        {
          "name": "voting",
          "type": "address"
        }
      ],
      "name": "getDueDate",
      "outputs": [
        {
          "name": "",
          "type": "uint256"
        }
      ],
      "payable": false,
      "stateMutability": "view",
      "type": "function"
    },
    {
      "constant": true,
      "inputs": [
        {
          "name": "voting",
          "type": "address"
        }
      ],
      "name": "getNow",
      "outputs": [
        {
          "name": "",
          "type": "uint256"
        }
      ],
      "payable": false,
      "stateMutability": "view",
      "type": "function"
    }
  ],
  "bytecode": "0x608060405260008054600160a060020a031916331790556114ac806100256000396000f3006080604052600436106100b65763ffffffff60e060020a60003504166327dbccb981146100bb5780633c0660d6146100f05780634ed5a5a0146101265780635f74bbde1461016c578063715018a6146101905780637280d633146101a75780637f16ab80146101c85780638da5cb5b146101e95780638dc04816146101fe578063c4b5d78914610222578063cbff75cb14610246578063e893a5e714610267578063eb4d03b414610288578063f2fde38b146102af575b600080fd5b3480156100c757600080fd5b506100dc600160a060020a03600435166102d0565b604080519115158252519081900360200190f35b3480156100fc57600080fd5b50610114600160a060020a0360043516602435610347565b60408051918252519081900360200190f35b34801561013257600080fd5b50610150600160a060020a03600435166024356044356064356103ca565b60408051600160a060020a039092168252519081900360200190f35b34801561017857600080fd5b506100dc600160a060020a0360043516602435610467565b34801561019c57600080fd5b506101a56104d3565b005b3480156101b357600080fd5b50610114600160a060020a036004351661053f565b3480156101d457600080fd5b50610114600160a060020a0360043516610583565b3480156101f557600080fd5b506101506105c7565b34801561020a57600080fd5b50610114600160a060020a03600435166024356105d6565b34801561022e57600080fd5b50610114600160a060020a0360043516602435610625565b34801561025257600080fd5b506100dc600160a060020a0360043516610674565b34801561027357600080fd5b50610114600160a060020a03600435166106d9565b34801561029457600080fd5b506100dc600160a060020a036004351660243560443561071c565b3480156102bb57600080fd5b506101a5600160a060020a03600435166107d8565b60008082905080600160a060020a031663a4fd6f566040518163ffffffff1660e060020a028152600401602060405180830381600087803b15801561031457600080fd5b505af1158015610328573d6000803e3d6000fd5b505050506040513d602081101561033e57600080fd5b50519392505050565b60008083905080600160a060020a0316639fe3dcec846040518263ffffffff1660e060020a02815260040180828152602001915050602060405180830381600087803b15801561039657600080fd5b505af11580156103aa573d6000803e3d6000fd5b505050506040513d60208110156103c057600080fd5b5051949350505050565b600080858486856103d9610878565b600160a060020a039094168452602084019290925260408084019190915260608301919091525190819003608001906000f08015801561041d573d6000803e3d6000fd5b5060408051600160a060020a038316815290519192507f8d59e26d1a30e4599d9266c3cc51905634249f88e542c997ce6769cf0c91e1db919081900360200190a195945050505050565b604080517f5f74bbde0000000000000000000000000000000000000000000000000000000081523360048201526024810183905290516000918491600160a060020a03831691635f74bbde91604480830192602092919082900301818887803b15801561039657600080fd5b600054600160a060020a031633146104ea57600080fd5b60008054604051600160a060020a03909116917ff8df31144d9c2f0f6b59d69b8b98abd5459d07f2742c4df920b25aae33c6482091a26000805473ffffffffffffffffffffffffffffffffffffffff19169055565b60008082905080600160a060020a031663bbe4fd506040518163ffffffff1660e060020a028152600401602060405180830381600087803b15801561031457600080fd5b60008082905080600160a060020a031663de30c3b86040518163ffffffff1660e060020a028152600401602060405180830381600087803b15801561031457600080fd5b600054600160a060020a031681565b60008083905080600160a060020a0316638d9599cb846040518263ffffffff1660e060020a02815260040180828152602001915050602060405180830381600087803b15801561039657600080fd5b60008083905080600160a060020a03166320a9a4f0846040518263ffffffff1660e060020a02815260040180828152602001915050602060405180830381600087803b15801561039657600080fd5b604080517fcbff75cb00000000000000000000000000000000000000000000000000000000815233600482015290516000918391600160a060020a0383169163cbff75cb91602480830192602092919082900301818887803b15801561031457600080fd5b60008082905080600160a060020a0316623259ea6040518163ffffffff1660e060020a028152600401602060405180830381600087803b15801561031457600080fd5b600080548190600160a060020a0316331461073657600080fd5b50604080517f93b9add0000000000000000000000000000000000000000000000000000000008152600481018590526024810184905290518591600160a060020a038316916393b9add0916044808201926020929091908290030181600087803b1580156107a357600080fd5b505af11580156107b7573d6000803e3d6000fd5b505050506040513d60208110156107cd57600080fd5b505195945050505050565b600054600160a060020a031633146107ef57600080fd5b6107f8816107fb565b50565b600160a060020a038116151561081057600080fd5b60008054604051600160a060020a03808516939216917f8be0079c531659141344cd1fd0a4f28419497f9722a3daafe3b4186f6b6457e091a36000805473ffffffffffffffffffffffffffffffffffffffff1916600160a060020a0392909216919091179055565b604051610bf880610889833901905600608060405234801561001057600080fd5b50604051608080610bf8833981016040908152815160208301519183015160609093015160008054600160a060020a0319163317905590929042811161005557600080fd5b60018390556003829055600281905560048054600160a060020a038616600160a060020a0319909116811790915560408051918252517fcba2f00a72b09f8b9aaa4d32392380761344d482c8ce21f0404ef1f236e3b6eb9181900360200190a150505050610b30806100c86000396000f3006080604052600436106101265763ffffffff7c01000000000000000000000000000000000000000000000000000000006000350416623259ea811461012b5780631069143a146101525780631b605b861461016757806320a9a4f01461017c5780634704d8ec146101945780635600f04f146101d25780635f74bbde146101e7578063715018a61461021f578063786716fe146102365780638d9599cb1461024b5780638da5cb5b1461026357806393b9add0146102945780639fe3dcec146102af578063a4fd6f56146102c7578063bbe4fd50146102dc578063cbff75cb146102f1578063d8bff5a514610312578063da4de74314610363578063da58c7d914610378578063de30c3b814610390578063f04414f2146103a5578063f2fde38b146103ba575b600080fd5b34801561013757600080fd5b506101406103db565b60408051918252519081900360200190f35b34801561015e57600080fd5b5061014061044a565b34801561017357600080fd5b50610140610450565b34801561018857600080fd5b50610140600435610456565b3480156101a057600080fd5b506101ac60043561047d565b604080519485526020850193909352838301919091526060830152519081900360800190f35b3480156101de57600080fd5b506101406104a4565b3480156101f357600080fd5b5061020b600160a060020a03600435166024356104aa565b604080519115158252519081900360200190f35b34801561022b57600080fd5b50610234610764565b005b34801561024257600080fd5b506101406107d0565b34801561025757600080fd5b506101406004356107d6565b34801561026f57600080fd5b506102786107fd565b60408051600160a060020a039092168252519081900360200190f35b3480156102a057600080fd5b5061020b60043560243561080c565b3480156102bb57600080fd5b506101406004356108a9565b3480156102d357600080fd5b5061020b6108cd565b3480156102e857600080fd5b506101406108d5565b3480156102fd57600080fd5b5061020b600160a060020a03600435166108d9565b34801561031e57600080fd5b50610333600160a060020a03600435166109da565b604080519415158552600160a060020a039093166020850152838301919091526060830152519081900360800190f35b34801561036f57600080fd5b50610140610a0e565b34801561038457600080fd5b50610278600435610a14565b34801561039c57600080fd5b50610140610a3c565b3480156103b157600080fd5b50610278610a42565b3480156103c657600080fd5b50610234600160a060020a0360043516610a51565b60008060008060006005805490501115156103f557600080fd5b5060009150819050805b60055481101561044257600081815260086020526040902060030154821161043a576000818152600860205260409020600301549092509050815b6001016103ff565b509092915050565b60065481565b60055490565b600654600090821061046757600080fd5b5060009081526008602052604090206001015490565b60086020526000908152604090208054600182015460028301546003909301549192909184565b60015481565b6000805481908190600160a060020a031633146104c657600080fd5b60048054604080517fd4d7b19a000000000000000000000000000000000000000000000000000000008152600160a060020a03898116948201949094529051929091169350839163d4d7b19a916024808201926020929091908290030181600087803b15801561053557600080fd5b505af1158015610549573d6000803e3d6000fd5b505050506040513d602081101561055f57600080fd5b5051151561056c57600080fd5b600254421061057a57600080fd5b600654841061058857600080fd5b600160a060020a03851660009081526007602052604090205460ff16156105ae57600080fd5b6005805460018082019092557f036b6384b5eca791c62761152d0c79bb0604c104a5fb6f4eb0703f3154bb3db08101805473ffffffffffffffffffffffffffffffffffffffff1916600160a060020a03898116918217909255600081815260076020908152604080832080880196909655855474ffffffffffffffffffffffffffffffffffffffff00191661010033021760ff19169096178555600290940189905584517f70a0823100000000000000000000000000000000000000000000000000000000815260048101929092529351918616936370a082319360248084019491939192918390030190829087803b1580156106aa57600080fd5b505af11580156106be573d6000803e3d6000fd5b505050506040513d60208110156106d457600080fd5b50516000858152600860205260409020600301549091506106fb908263ffffffff610a7416565b600085815260086020908152604091829020600301929092558051600160a060020a0388168152918201869052818101839052517fea66f58e474bc09f580000e81f31b334d171db387d0c6098ba47bd897741679b9181900360600190a1506001949350505050565b600054600160a060020a0316331461077b57600080fd5b60008054604051600160a060020a03909116917ff8df31144d9c2f0f6b59d69b8b98abd5459d07f2742c4df920b25aae33c6482091a26000805473ffffffffffffffffffffffffffffffffffffffff19169055565b60025481565b60065460009082106107e757600080fd5b5060009081526008602052604090206003015490565b600054600160a060020a031681565b600080548190600160a060020a0316331461082657600080fd5b5060065461083b81600163ffffffff610a7416565b6006556000818152600860209081526040808320600281018590558781556001810187905560030192909255815186815290810185905281517f94ef21e62ae4338c10ce6f330817c2c734f78f967fefea2cbaabcca197a220d6929181900390910190a15060019392505050565b60065460009082106108ba57600080fd5b5060009081526008602052604090205490565b600254421190565b4290565b60048054604080517fd4d7b19a000000000000000000000000000000000000000000000000000000008152600160a060020a0385811694820194909452905160009390921691829163d4d7b19a91602480830192602092919082900301818887803b15801561094757600080fd5b505af115801561095b573d6000803e3d6000fd5b505050506040513d602081101561097157600080fd5b5051151561097e57600080fd5b600554151561099057600091506109d4565b600160a060020a0383166000818152600760205260409020600101546005805490919081106109bb57fe5b600091825260209091200154600160a060020a03161491505b50919050565b60076020526000908152604090208054600182015460029092015460ff821692610100909204600160a060020a0316919084565b60035481565b6005805482908110610a2257fe5b600091825260209091200154600160a060020a0316905081565b60025490565b600454600160a060020a031681565b600054600160a060020a03163314610a6857600080fd5b610a7181610a87565b50565b81810182811015610a8157fe5b92915050565b600160a060020a0381161515610a9c57600080fd5b60008054604051600160a060020a03808516939216917f8be0079c531659141344cd1fd0a4f28419497f9722a3daafe3b4186f6b6457e091a36000805473ffffffffffffffffffffffffffffffffffffffff1916600160a060020a03929092169190911790555600a165627a7a723058205eacaa2d499830a187c72fa475676f1e1a0b3588e63652d8c5249cc6b0e8ac000029a165627a7a7230582020c00ada49d7c739ea4d3dcf1d3bd084630b4571f3d8c9f2ae26eaaaf22501e00029",
  "source": "pragma solidity ^0.4.24;\nimport \"openzeppelin-solidity/contracts/ownership/Ownable.sol\";\nimport 'openzeppelin-solidity/contracts/math/SafeMath.sol';\nimport '../structures/Voting.sol';\n\ncontract VotingFactory is Ownable{\n    event VotingCreated(address Voting);\n\n    function createVoting(\n        address      _stoneCoinAddress,\n        bytes32      _url,\n        bytes32      _urlMD5,\n        uint         _dueDate\n    ) public returns(address){\n\n        Voting newContract = new Voting(_stoneCoinAddress,\n            _urlMD5,\n            _url,\n            _dueDate);\n        emit VotingCreated(address(newContract));\n        return address(newContract);\n    }\n\n    function addVoteOptions(address voting, bytes32 _url, bytes32 _md5) public onlyOwner returns(bool) {\n        Voting votingContract = Voting(voting);\n        return votingContract.addVoteOptions(_url, _md5);\n    }\n\n    function isVoted(address voting) public constant returns(bool success) {\n        Voting votingContract = Voting(voting);\n        return votingContract.isVoted( msg.sender);\n    }\n    function vote(address voting, uint voteOption) public returns(bool success) {\n        Voting votingContract = Voting(voting);\n        return votingContract.vote( msg.sender, voteOption);\n    }\n\n    function voteResult(address voting) public view returns(uint256) {\n        Voting votingContract = Voting(voting);\n        return votingContract.voteResult();\n    }\n\n    function getTotalVotingUnits(address voting, uint optionIndex) public view returns(uint256) {\n        Voting votingContract = Voting(voting);\n        return votingContract.getTotalVotingUnits(optionIndex);\n    }\n\n    function isEnded(address voting) public view returns(bool) {\n        Voting votingContract = Voting(voting);\n        return votingContract.isEnded();\n    }\n\n    function getVoteOption(address voting, uint optionIndex) public view returns(bytes32) {\n        Voting votingContract = Voting(voting);\n        return votingContract.getVoteOption(optionIndex);\n    }\n    function getVoteOptionMd5(address voting, uint optionIndex) public view returns(bytes32) {\n        Voting votingContract = Voting(voting);\n        return votingContract.getVoteOptionMd5(optionIndex);\n    }\n\n    function getDueDate(address voting) public view returns(uint) {\n        Voting votingContract = Voting(voting);\n        return votingContract.getDueDate();\n    }\n    function getNow(address voting) public view returns(uint) {\n        Voting votingContract = Voting(voting);\n        return votingContract.getNow();\n    }\n\n\n}\n",
  "sourcePath": "/Users/roilandshut/projects/brikoin/brikoin/contracts/factory/VotingFactory.sol",
  "compiler": {
    "name": "solc",
    "version": "0.4.24+commit.e67f0147.Emscripten.clang"
  },
  "schemaVersion": "2.0.1",
  "updatedAt": "2019-10-27T14:12:11.014Z"
}